{
	"frontend/src/contracts/MetaTransaction.sol": {
		"MetaTransaction": {
			"abi": [
				{
					"inputs": [],
					"stateMutability": "nonpayable",
					"type": "constructor"
				},
				{
					"anonymous": false,
					"inputs": [
						{
							"indexed": true,
							"internalType": "address",
							"name": "from",
							"type": "address"
						},
						{
							"indexed": false,
							"internalType": "string",
							"name": "_msg",
							"type": "string"
						}
					],
					"name": "Event01",
					"type": "event"
				},
				{
					"anonymous": false,
					"inputs": [
						{
							"indexed": true,
							"internalType": "bytes32",
							"name": "r",
							"type": "bytes32"
						},
						{
							"indexed": false,
							"internalType": "bytes32",
							"name": "s",
							"type": "bytes32"
						},
						{
							"indexed": false,
							"internalType": "uint8",
							"name": "v",
							"type": "uint8"
						}
					],
					"name": "Event02",
					"type": "event"
				},
				{
					"anonymous": false,
					"inputs": [
						{
							"indexed": true,
							"internalType": "address",
							"name": "account",
							"type": "address"
						}
					],
					"name": "Event03",
					"type": "event"
				},
				{
					"inputs": [],
					"name": "checkGas",
					"outputs": [
						{
							"internalType": "uint256",
							"name": "",
							"type": "uint256"
						}
					],
					"stateMutability": "view",
					"type": "function"
				},
				{
					"inputs": [],
					"name": "marketAddress",
					"outputs": [
						{
							"internalType": "address payable",
							"name": "",
							"type": "address"
						}
					],
					"stateMutability": "view",
					"type": "function"
				},
				{
					"inputs": [],
					"name": "owner",
					"outputs": [
						{
							"internalType": "address",
							"name": "",
							"type": "address"
						}
					],
					"stateMutability": "view",
					"type": "function"
				},
				{
					"inputs": [
						{
							"internalType": "address[]",
							"name": "users",
							"type": "address[]"
						},
						{
							"internalType": "bytes[]",
							"name": "signatures",
							"type": "bytes[]"
						},
						{
							"internalType": "string[]",
							"name": "messages",
							"type": "string[]"
						}
					],
					"name": "processBatchTransactions",
					"outputs": [],
					"stateMutability": "payable",
					"type": "function"
				},
				{
					"inputs": [
						{
							"internalType": "address payable",
							"name": "_marketAddress",
							"type": "address"
						}
					],
					"name": "setMarketAddress",
					"outputs": [],
					"stateMutability": "nonpayable",
					"type": "function"
				},
				{
					"inputs": [
						{
							"internalType": "address",
							"name": "user",
							"type": "address"
						},
						{
							"internalType": "string",
							"name": "_msg",
							"type": "string"
						},
						{
							"internalType": "bytes",
							"name": "signature",
							"type": "bytes"
						}
					],
					"name": "signTransaction",
					"outputs": [],
					"stateMutability": "nonpayable",
					"type": "function"
				},
				{
					"stateMutability": "payable",
					"type": "receive"
				}
			],
			"devdoc": {
				"kind": "dev",
				"methods": {},
				"version": 1
			},
			"evm": {
				"assembly": "    /* \"frontend/src/contracts/MetaTransaction.sol\":116:2366  contract MetaTransaction {... */\n  mstore(0x40, 0x80)\n    /* \"frontend/src/contracts/MetaTransaction.sol\":220:271  constructor() {... */\n  callvalue\n  dup1\n  iszero\n  tag_1\n  jumpi\n  0x00\n  dup1\n  revert\ntag_1:\n  pop\n    /* \"frontend/src/contracts/MetaTransaction.sol\":253:263  msg.sender */\n  caller\n    /* \"frontend/src/contracts/MetaTransaction.sol\":245:250  owner */\n  0x01\n  0x00\n    /* \"frontend/src/contracts/MetaTransaction.sol\":245:263  owner = msg.sender */\n  0x0100\n  exp\n  dup2\n  sload\n  dup2\n  0xffffffffffffffffffffffffffffffffffffffff\n  mul\n  not\n  and\n  swap1\n  dup4\n  0xffffffffffffffffffffffffffffffffffffffff\n  and\n  mul\n  or\n  swap1\n  sstore\n  pop\n    /* \"frontend/src/contracts/MetaTransaction.sol\":116:2366  contract MetaTransaction {... */\n  dataSize(sub_0)\n  dup1\n  dataOffset(sub_0)\n  0x00\n  codecopy\n  0x00\n  return\nstop\n\nsub_0: assembly {\n        /* \"frontend/src/contracts/MetaTransaction.sol\":116:2366  contract MetaTransaction {... */\n      mstore(0x40, 0x80)\n      jumpi(tag_1, lt(calldatasize, 0x04))\n      shr(0xe0, calldataload(0x00))\n      dup1\n      0x8da5cb5b\n      eq\n      tag_3\n      jumpi\n      dup1\n      0x95623641\n      eq\n      tag_4\n      jumpi\n      dup1\n      0x95db67e4\n      eq\n      tag_5\n      jumpi\n      dup1\n      0x95e0e0c9\n      eq\n      tag_6\n      jumpi\n      dup1\n      0xeca7ed0a\n      eq\n      tag_7\n      jumpi\n      dup1\n      0xfae92612\n      eq\n      tag_8\n      jumpi\n      jump(tag_2)\n    tag_1:\n      jumpi(tag_2, calldatasize)\n      stop\n    tag_2:\n      0x00\n      dup1\n      revert\n        /* \"frontend/src/contracts/MetaTransaction.sol\":191:211  address public owner */\n    tag_3:\n      callvalue\n      dup1\n      iszero\n      tag_11\n      jumpi\n      0x00\n      dup1\n      revert\n    tag_11:\n      pop\n      tag_12\n      tag_13\n      jump\t// in\n    tag_12:\n      mload(0x40)\n      tag_14\n      swap2\n      swap1\n      tag_15\n      jump\t// in\n    tag_14:\n      mload(0x40)\n      dup1\n      swap2\n      sub\n      swap1\n      return\n        /* \"frontend/src/contracts/MetaTransaction.sol\":148:184  address payable public marketAddress */\n    tag_4:\n      callvalue\n      dup1\n      iszero\n      tag_16\n      jumpi\n      0x00\n      dup1\n      revert\n    tag_16:\n      pop\n      tag_17\n      tag_18\n      jump\t// in\n    tag_17:\n      mload(0x40)\n      tag_19\n      swap2\n      swap1\n      tag_20\n      jump\t// in\n    tag_19:\n      mload(0x40)\n      dup1\n      swap2\n      sub\n      swap1\n      return\n        /* \"frontend/src/contracts/MetaTransaction.sol\":647:1184  function processBatchTransactions(address[] memory users, bytes[] memory signatures, string[] memory messages) public payable {... */\n    tag_5:\n      tag_21\n      0x04\n      dup1\n      calldatasize\n      sub\n      dup2\n      add\n      swap1\n      tag_22\n      swap2\n      swap1\n      tag_23\n      jump\t// in\n    tag_22:\n      tag_24\n      jump\t// in\n    tag_21:\n      stop\n        /* \"frontend/src/contracts/MetaTransaction.sol\":1192:1517  function signTransaction(... */\n    tag_6:\n      callvalue\n      dup1\n      iszero\n      tag_25\n      jumpi\n      0x00\n      dup1\n      revert\n    tag_25:\n      pop\n      tag_26\n      0x04\n      dup1\n      calldatasize\n      sub\n      dup2\n      add\n      swap1\n      tag_27\n      swap2\n      swap1\n      tag_28\n      jump\t// in\n    tag_27:\n      tag_29\n      jump\t// in\n    tag_26:\n      stop\n        /* \"frontend/src/contracts/MetaTransaction.sol\":517:602  function checkGas() public view returns (uint256) {... */\n    tag_7:\n      callvalue\n      dup1\n      iszero\n      tag_30\n      jumpi\n      0x00\n      dup1\n      revert\n    tag_30:\n      pop\n      tag_31\n      tag_32\n      jump\t// in\n    tag_31:\n      mload(0x40)\n      tag_33\n      swap2\n      swap1\n      tag_34\n      jump\t// in\n    tag_33:\n      mload(0x40)\n      dup1\n      swap2\n      sub\n      swap1\n      return\n        /* \"frontend/src/contracts/MetaTransaction.sol\":385:509  function setMarketAddress(address payable _marketAddress) public onlyOwner {... */\n    tag_8:\n      callvalue\n      dup1\n      iszero\n      tag_35\n      jumpi\n      0x00\n      dup1\n      revert\n    tag_35:\n      pop\n      tag_36\n      0x04\n      dup1\n      calldatasize\n      sub\n      dup2\n      add\n      swap1\n      tag_37\n      swap2\n      swap1\n      tag_38\n      jump\t// in\n    tag_37:\n      tag_39\n      jump\t// in\n    tag_36:\n      stop\n        /* \"frontend/src/contracts/MetaTransaction.sol\":191:211  address public owner */\n    tag_13:\n      0x01\n      0x00\n      swap1\n      sload\n      swap1\n      0x0100\n      exp\n      swap1\n      div\n      0xffffffffffffffffffffffffffffffffffffffff\n      and\n      dup2\n      jump\t// out\n        /* \"frontend/src/contracts/MetaTransaction.sol\":148:184  address payable public marketAddress */\n    tag_18:\n      0x00\n      dup1\n      sload\n      swap1\n      0x0100\n      exp\n      swap1\n      div\n      0xffffffffffffffffffffffffffffffffffffffff\n      and\n      dup2\n      jump\t// out\n        /* \"frontend/src/contracts/MetaTransaction.sol\":647:1184  function processBatchTransactions(address[] memory users, bytes[] memory signatures, string[] memory messages) public payable {... */\n    tag_24:\n        /* \"frontend/src/contracts/MetaTransaction.sol\":808:821  marketAddress */\n      0x00\n      dup1\n      sload\n      swap1\n      0x0100\n      exp\n      swap1\n      div\n      0xffffffffffffffffffffffffffffffffffffffff\n      and\n        /* \"frontend/src/contracts/MetaTransaction.sol\":794:821  msg.sender == marketAddress */\n      0xffffffffffffffffffffffffffffffffffffffff\n      and\n        /* \"frontend/src/contracts/MetaTransaction.sol\":794:804  msg.sender */\n      caller\n        /* \"frontend/src/contracts/MetaTransaction.sol\":794:821  msg.sender == marketAddress */\n      0xffffffffffffffffffffffffffffffffffffffff\n      and\n      eq\n        /* \"frontend/src/contracts/MetaTransaction.sol\":786:840  require(msg.sender == marketAddress, \"Invalid caller\") */\n      tag_41\n      jumpi\n      mload(0x40)\n      0x08c379a000000000000000000000000000000000000000000000000000000000\n      dup2\n      mstore\n      0x04\n      add\n      tag_42\n      swap1\n      tag_43\n      jump\t// in\n    tag_42:\n      mload(0x40)\n      dup1\n      swap2\n      sub\n      swap1\n      revert\n    tag_41:\n        /* \"frontend/src/contracts/MetaTransaction.sol\":875:885  signatures */\n      dup2\n        /* \"frontend/src/contracts/MetaTransaction.sol\":875:892  signatures.length */\n      mload\n        /* \"frontend/src/contracts/MetaTransaction.sol\":859:864  users */\n      dup4\n        /* \"frontend/src/contracts/MetaTransaction.sol\":859:871  users.length */\n      mload\n        /* \"frontend/src/contracts/MetaTransaction.sol\":859:892  users.length == signatures.length */\n      eq\n        /* \"frontend/src/contracts/MetaTransaction.sol\":859:927  users.length == signatures.length && users.length == messages.length */\n      dup1\n      iszero\n      tag_44\n      jumpi\n      pop\n        /* \"frontend/src/contracts/MetaTransaction.sol\":912:920  messages */\n      dup1\n        /* \"frontend/src/contracts/MetaTransaction.sol\":912:927  messages.length */\n      mload\n        /* \"frontend/src/contracts/MetaTransaction.sol\":896:901  users */\n      dup4\n        /* \"frontend/src/contracts/MetaTransaction.sol\":896:908  users.length */\n      mload\n        /* \"frontend/src/contracts/MetaTransaction.sol\":896:927  users.length == messages.length */\n      eq\n        /* \"frontend/src/contracts/MetaTransaction.sol\":859:927  users.length == signatures.length && users.length == messages.length */\n    tag_44:\n        /* \"frontend/src/contracts/MetaTransaction.sol\":851:945  require(users.length == signatures.length && users.length == messages.length, \"Invalid input\") */\n      tag_45\n      jumpi\n      mload(0x40)\n      0x08c379a000000000000000000000000000000000000000000000000000000000\n      dup2\n      mstore\n      0x04\n      add\n      tag_46\n      swap1\n      tag_47\n      jump\t// in\n    tag_46:\n      mload(0x40)\n      dup1\n      swap2\n      sub\n      swap1\n      revert\n    tag_45:\n        /* \"frontend/src/contracts/MetaTransaction.sol\":980:982  50 */\n      0x32\n        /* \"frontend/src/contracts/MetaTransaction.sol\":964:969  users */\n      dup4\n        /* \"frontend/src/contracts/MetaTransaction.sol\":964:976  users.length */\n      mload\n        /* \"frontend/src/contracts/MetaTransaction.sol\":964:982  users.length <= 50 */\n      gt\n      iszero\n        /* \"frontend/src/contracts/MetaTransaction.sol\":956:1007  require(users.length <= 50, \"Batch size too large\") */\n      tag_48\n      jumpi\n      mload(0x40)\n      0x08c379a000000000000000000000000000000000000000000000000000000000\n      dup2\n      mstore\n      0x04\n      add\n      tag_49\n      swap1\n      tag_50\n      jump\t// in\n    tag_49:\n      mload(0x40)\n      dup1\n      swap2\n      sub\n      swap1\n      revert\n    tag_48:\n        /* \"frontend/src/contracts/MetaTransaction.sol\":1025:1031  uint i */\n      0x00\n        /* \"frontend/src/contracts/MetaTransaction.sol\":1020:1177  for (uint i = 0; i < users.length; i++) {... */\n    tag_51:\n        /* \"frontend/src/contracts/MetaTransaction.sol\":1041:1046  users */\n      dup4\n        /* \"frontend/src/contracts/MetaTransaction.sol\":1041:1053  users.length */\n      mload\n        /* \"frontend/src/contracts/MetaTransaction.sol\":1037:1038  i */\n      dup2\n        /* \"frontend/src/contracts/MetaTransaction.sol\":1037:1053  i < users.length */\n      lt\n        /* \"frontend/src/contracts/MetaTransaction.sol\":1020:1177  for (uint i = 0; i < users.length; i++) {... */\n      iszero\n      tag_52\n      jumpi\n        /* \"frontend/src/contracts/MetaTransaction.sol\":1075:1128  signTransaction(users[i], messages[i], signatures[i]) */\n      tag_54\n        /* \"frontend/src/contracts/MetaTransaction.sol\":1091:1096  users */\n      dup5\n        /* \"frontend/src/contracts/MetaTransaction.sol\":1097:1098  i */\n      dup3\n        /* \"frontend/src/contracts/MetaTransaction.sol\":1091:1099  users[i] */\n      dup2\n      mload\n      dup2\n      lt\n      tag_55\n      jumpi\n      tag_56\n      tag_57\n      jump\t// in\n    tag_56:\n    tag_55:\n      0x20\n      mul\n      0x20\n      add\n      add\n      mload\n        /* \"frontend/src/contracts/MetaTransaction.sol\":1101:1109  messages */\n      dup4\n        /* \"frontend/src/contracts/MetaTransaction.sol\":1110:1111  i */\n      dup4\n        /* \"frontend/src/contracts/MetaTransaction.sol\":1101:1112  messages[i] */\n      dup2\n      mload\n      dup2\n      lt\n      tag_58\n      jumpi\n      tag_59\n      tag_57\n      jump\t// in\n    tag_59:\n    tag_58:\n      0x20\n      mul\n      0x20\n      add\n      add\n      mload\n        /* \"frontend/src/contracts/MetaTransaction.sol\":1114:1124  signatures */\n      dup6\n        /* \"frontend/src/contracts/MetaTransaction.sol\":1125:1126  i */\n      dup5\n        /* \"frontend/src/contracts/MetaTransaction.sol\":1114:1127  signatures[i] */\n      dup2\n      mload\n      dup2\n      lt\n      tag_60\n      jumpi\n      tag_61\n      tag_57\n      jump\t// in\n    tag_61:\n    tag_60:\n      0x20\n      mul\n      0x20\n      add\n      add\n      mload\n        /* \"frontend/src/contracts/MetaTransaction.sol\":1075:1090  signTransaction */\n      tag_29\n        /* \"frontend/src/contracts/MetaTransaction.sol\":1075:1128  signTransaction(users[i], messages[i], signatures[i]) */\n      jump\t// in\n    tag_54:\n        /* \"frontend/src/contracts/MetaTransaction.sol\":1156:1161  users */\n      dup4\n        /* \"frontend/src/contracts/MetaTransaction.sol\":1162:1163  i */\n      dup2\n        /* \"frontend/src/contracts/MetaTransaction.sol\":1156:1164  users[i] */\n      dup2\n      mload\n      dup2\n      lt\n      tag_62\n      jumpi\n      tag_63\n      tag_57\n      jump\t// in\n    tag_63:\n    tag_62:\n      0x20\n      mul\n      0x20\n      add\n      add\n      mload\n        /* \"frontend/src/contracts/MetaTransaction.sol\":1148:1165  Event03(users[i]) */\n      0xffffffffffffffffffffffffffffffffffffffff\n      and\n      0x78f048a4a5986309c511acbfc093d06c834685823625e9d42e6a75da34fbd0a4\n      mload(0x40)\n      mload(0x40)\n      dup1\n      swap2\n      sub\n      swap1\n      log2\n        /* \"frontend/src/contracts/MetaTransaction.sol\":1055:1058  i++ */\n      dup1\n      dup1\n      tag_64\n      swap1\n      tag_65\n      jump\t// in\n    tag_64:\n      swap2\n      pop\n      pop\n        /* \"frontend/src/contracts/MetaTransaction.sol\":1020:1177  for (uint i = 0; i < users.length; i++) {... */\n      jump(tag_51)\n    tag_52:\n      pop\n        /* \"frontend/src/contracts/MetaTransaction.sol\":647:1184  function processBatchTransactions(address[] memory users, bytes[] memory signatures, string[] memory messages) public payable {... */\n      pop\n      pop\n      pop\n      jump\t// out\n        /* \"frontend/src/contracts/MetaTransaction.sol\":1192:1517  function signTransaction(... */\n    tag_29:\n        /* \"frontend/src/contracts/MetaTransaction.sol\":1327:1342  bytes32 ethSign */\n      0x00\n        /* \"frontend/src/contracts/MetaTransaction.sol\":1345:1368  getEthSignMsgHash(_msg) */\n      tag_67\n        /* \"frontend/src/contracts/MetaTransaction.sol\":1363:1367  _msg */\n      dup4\n        /* \"frontend/src/contracts/MetaTransaction.sol\":1345:1362  getEthSignMsgHash */\n      tag_68\n        /* \"frontend/src/contracts/MetaTransaction.sol\":1345:1368  getEthSignMsgHash(_msg) */\n      jump\t// in\n    tag_67:\n        /* \"frontend/src/contracts/MetaTransaction.sol\":1327:1368  bytes32 ethSign = getEthSignMsgHash(_msg) */\n      swap1\n      pop\n        /* \"frontend/src/contracts/MetaTransaction.sol\":1380:1389  bytes32 r */\n      0x00\n        /* \"frontend/src/contracts/MetaTransaction.sol\":1391:1400  bytes32 s */\n      dup1\n        /* \"frontend/src/contracts/MetaTransaction.sol\":1402:1409  uint8 v */\n      0x00\n        /* \"frontend/src/contracts/MetaTransaction.sol\":1413:1433  splitSign(signature) */\n      tag_69\n        /* \"frontend/src/contracts/MetaTransaction.sol\":1423:1432  signature */\n      dup6\n        /* \"frontend/src/contracts/MetaTransaction.sol\":1413:1422  splitSign */\n      tag_70\n        /* \"frontend/src/contracts/MetaTransaction.sol\":1413:1433  splitSign(signature) */\n      jump\t// in\n    tag_69:\n        /* \"frontend/src/contracts/MetaTransaction.sol\":1379:1433  (bytes32 r, bytes32 s, uint8 v) = splitSign(signature) */\n      swap3\n      pop\n      swap3\n      pop\n      swap3\n      pop\n        /* \"frontend/src/contracts/MetaTransaction.sol\":1460:1487  ecrecover(ethSign, v, r, s) */\n      0x01\n        /* \"frontend/src/contracts/MetaTransaction.sol\":1470:1477  ethSign */\n      dup5\n        /* \"frontend/src/contracts/MetaTransaction.sol\":1479:1480  v */\n      dup3\n        /* \"frontend/src/contracts/MetaTransaction.sol\":1482:1483  r */\n      dup6\n        /* \"frontend/src/contracts/MetaTransaction.sol\":1485:1486  s */\n      dup6\n        /* \"frontend/src/contracts/MetaTransaction.sol\":1460:1487  ecrecover(ethSign, v, r, s) */\n      mload(0x40)\n      0x00\n      dup2\n      mstore\n      0x20\n      add\n      0x40\n      mstore\n      mload(0x40)\n      tag_71\n      swap5\n      swap4\n      swap3\n      swap2\n      swap1\n      tag_72\n      jump\t// in\n    tag_71:\n      0x20\n      mload(0x40)\n      0x20\n      dup2\n      sub\n      swap1\n      dup1\n      dup5\n      sub\n      swap1\n      dup6\n      gas\n      staticcall\n      iszero\n      dup1\n      iszero\n      tag_74\n      jumpi\n      returndatasize\n      0x00\n      dup1\n      returndatacopy\n      revert(0x00, returndatasize)\n    tag_74:\n      pop\n      pop\n      pop\n      mload(sub(mload(0x40), 0x20))\n        /* \"frontend/src/contracts/MetaTransaction.sol\":1452:1487  user == ecrecover(ethSign, v, r, s) */\n      0xffffffffffffffffffffffffffffffffffffffff\n      and\n        /* \"frontend/src/contracts/MetaTransaction.sol\":1452:1456  user */\n      dup8\n        /* \"frontend/src/contracts/MetaTransaction.sol\":1452:1487  user == ecrecover(ethSign, v, r, s) */\n      0xffffffffffffffffffffffffffffffffffffffff\n      and\n      eq\n        /* \"frontend/src/contracts/MetaTransaction.sol\":1444:1509  require(user == ecrecover(ethSign, v, r, s), \"Invalid signature\") */\n      tag_75\n      jumpi\n      mload(0x40)\n      0x08c379a000000000000000000000000000000000000000000000000000000000\n      dup2\n      mstore\n      0x04\n      add\n      tag_76\n      swap1\n      tag_77\n      jump\t// in\n    tag_76:\n      mload(0x40)\n      dup1\n      swap2\n      sub\n      swap1\n      revert\n    tag_75:\n        /* \"frontend/src/contracts/MetaTransaction.sol\":1316:1517  {... */\n      pop\n      pop\n      pop\n      pop\n        /* \"frontend/src/contracts/MetaTransaction.sol\":1192:1517  function signTransaction(... */\n      pop\n      pop\n      pop\n      jump\t// out\n        /* \"frontend/src/contracts/MetaTransaction.sol\":517:602  function checkGas() public view returns (uint256) {... */\n    tag_32:\n        /* \"frontend/src/contracts/MetaTransaction.sol\":558:565  uint256 */\n      0x00\n        /* \"frontend/src/contracts/MetaTransaction.sol\":585:594  gasleft() */\n      gas\n        /* \"frontend/src/contracts/MetaTransaction.sol\":578:594  return gasleft() */\n      swap1\n      pop\n        /* \"frontend/src/contracts/MetaTransaction.sol\":517:602  function checkGas() public view returns (uint256) {... */\n      swap1\n      jump\t// out\n        /* \"frontend/src/contracts/MetaTransaction.sol\":385:509  function setMarketAddress(address payable _marketAddress) public onlyOwner {... */\n    tag_39:\n        /* \"frontend/src/contracts/MetaTransaction.sol\":333:338  owner */\n      0x01\n      0x00\n      swap1\n      sload\n      swap1\n      0x0100\n      exp\n      swap1\n      div\n      0xffffffffffffffffffffffffffffffffffffffff\n      and\n        /* \"frontend/src/contracts/MetaTransaction.sol\":319:338  msg.sender == owner */\n      0xffffffffffffffffffffffffffffffffffffffff\n      and\n        /* \"frontend/src/contracts/MetaTransaction.sol\":319:329  msg.sender */\n      caller\n        /* \"frontend/src/contracts/MetaTransaction.sol\":319:338  msg.sender == owner */\n      0xffffffffffffffffffffffffffffffffffffffff\n      and\n      eq\n        /* \"frontend/src/contracts/MetaTransaction.sol\":311:357  require(msg.sender == owner, \"Invalid caller\") */\n      tag_80\n      jumpi\n      mload(0x40)\n      0x08c379a000000000000000000000000000000000000000000000000000000000\n      dup2\n      mstore\n      0x04\n      add\n      tag_81\n      swap1\n      tag_43\n      jump\t// in\n    tag_81:\n      mload(0x40)\n      dup1\n      swap2\n      sub\n      swap1\n      revert\n    tag_80:\n        /* \"frontend/src/contracts/MetaTransaction.sol\":487:501  _marketAddress */\n      dup1\n        /* \"frontend/src/contracts/MetaTransaction.sol\":471:484  marketAddress */\n      0x00\n      dup1\n        /* \"frontend/src/contracts/MetaTransaction.sol\":471:501  marketAddress = _marketAddress */\n      0x0100\n      exp\n      dup2\n      sload\n      dup2\n      0xffffffffffffffffffffffffffffffffffffffff\n      mul\n      not\n      and\n      swap1\n      dup4\n      0xffffffffffffffffffffffffffffffffffffffff\n      and\n      mul\n      or\n      swap1\n      sstore\n      pop\n        /* \"frontend/src/contracts/MetaTransaction.sol\":385:509  function setMarketAddress(address payable _marketAddress) public onlyOwner {... */\n      pop\n      jump\t// out\n        /* \"frontend/src/contracts/MetaTransaction.sol\":1525:1775  function getEthSignMsgHash(string memory _msg) internal pure returns (bytes32) {... */\n    tag_68:\n        /* \"frontend/src/contracts/MetaTransaction.sol\":1595:1602  bytes32 */\n      0x00\n        /* \"frontend/src/contracts/MetaTransaction.sol\":1615:1632  uint256 msgLength */\n      dup1\n        /* \"frontend/src/contracts/MetaTransaction.sol\":1641:1645  _msg */\n      dup3\n        /* \"frontend/src/contracts/MetaTransaction.sol\":1635:1653  bytes(_msg).length */\n      mload\n        /* \"frontend/src/contracts/MetaTransaction.sol\":1615:1653  uint256 msgLength = bytes(_msg).length */\n      swap1\n      pop\n        /* \"frontend/src/contracts/MetaTransaction.sol\":1732:1759  Strings.toString(msgLength) */\n      tag_84\n        /* \"frontend/src/contracts/MetaTransaction.sol\":1749:1758  msgLength */\n      dup2\n        /* \"frontend/src/contracts/MetaTransaction.sol\":1732:1748  Strings.toString */\n      tag_85\n        /* \"frontend/src/contracts/MetaTransaction.sol\":1732:1759  Strings.toString(msgLength) */\n      jump\t// in\n    tag_84:\n        /* \"frontend/src/contracts/MetaTransaction.sol\":1761:1765  _msg */\n      dup4\n        /* \"frontend/src/contracts/MetaTransaction.sol\":1681:1766  abi.encodePacked(\"\\x19Ethereum Signed Message:\\n\", Strings.toString(msgLength), _msg) */\n      add(0x20, mload(0x40))\n      tag_86\n      swap3\n      swap2\n      swap1\n      tag_87\n      jump\t// in\n    tag_86:\n      mload(0x40)\n      0x20\n      dup2\n      dup4\n      sub\n      sub\n      dup2\n      mstore\n      swap1\n      0x40\n      mstore\n        /* \"frontend/src/contracts/MetaTransaction.sol\":1671:1767  keccak256(abi.encodePacked(\"\\x19Ethereum Signed Message:\\n\", Strings.toString(msgLength), _msg)) */\n      dup1\n      mload\n      swap1\n      0x20\n      add\n      keccak256\n        /* \"frontend/src/contracts/MetaTransaction.sol\":1664:1767  return keccak256(abi.encodePacked(\"\\x19Ethereum Signed Message:\\n\", Strings.toString(msgLength), _msg)) */\n      swap2\n      pop\n      pop\n        /* \"frontend/src/contracts/MetaTransaction.sol\":1525:1775  function getEthSignMsgHash(string memory _msg) internal pure returns (bytes32) {... */\n      swap2\n      swap1\n      pop\n      jump\t// out\n        /* \"frontend/src/contracts/MetaTransaction.sol\":1783:2202  function splitSign(bytes memory sign) internal pure returns (bytes32 r, bytes32 s, uint8 v) {... */\n    tag_70:\n        /* \"frontend/src/contracts/MetaTransaction.sol\":1844:1853  bytes32 r */\n      0x00\n        /* \"frontend/src/contracts/MetaTransaction.sol\":1855:1864  bytes32 s */\n      dup1\n        /* \"frontend/src/contracts/MetaTransaction.sol\":1866:1873  uint8 v */\n      0x00\n        /* \"frontend/src/contracts/MetaTransaction.sol\":1909:1911  65 */\n      0x41\n        /* \"frontend/src/contracts/MetaTransaction.sol\":1894:1898  sign */\n      dup5\n        /* \"frontend/src/contracts/MetaTransaction.sol\":1894:1905  sign.length */\n      mload\n        /* \"frontend/src/contracts/MetaTransaction.sol\":1894:1911  sign.length == 65 */\n      eq\n        /* \"frontend/src/contracts/MetaTransaction.sol\":1886:1940  require(sign.length == 65, \"Invalid signature length\") */\n      tag_89\n      jumpi\n      mload(0x40)\n      0x08c379a000000000000000000000000000000000000000000000000000000000\n      dup2\n      mstore\n      0x04\n      add\n      tag_90\n      swap1\n      tag_91\n      jump\t// in\n    tag_90:\n      mload(0x40)\n      dup1\n      swap2\n      sub\n      swap1\n      revert\n    tag_89:\n        /* \"frontend/src/contracts/MetaTransaction.sol\":1996:1998  32 */\n      0x20\n        /* \"frontend/src/contracts/MetaTransaction.sol\":1990:1994  sign */\n      dup5\n        /* \"frontend/src/contracts/MetaTransaction.sol\":1986:1999  add(sign, 32) */\n      add\n        /* \"frontend/src/contracts/MetaTransaction.sol\":1980:2000  mload(add(sign, 32)) */\n      mload\n        /* \"frontend/src/contracts/MetaTransaction.sol\":1975:2000  r := mload(add(sign, 32)) */\n      swap3\n      pop\n        /* \"frontend/src/contracts/MetaTransaction.sol\":2035:2037  64 */\n      0x40\n        /* \"frontend/src/contracts/MetaTransaction.sol\":2029:2033  sign */\n      dup5\n        /* \"frontend/src/contracts/MetaTransaction.sol\":2025:2038  add(sign, 64) */\n      add\n        /* \"frontend/src/contracts/MetaTransaction.sol\":2019:2039  mload(add(sign, 64)) */\n      mload\n        /* \"frontend/src/contracts/MetaTransaction.sol\":2014:2039  s := mload(add(sign, 64)) */\n      swap2\n      pop\n        /* \"frontend/src/contracts/MetaTransaction.sol\":2082:2084  96 */\n      0x60\n        /* \"frontend/src/contracts/MetaTransaction.sol\":2076:2080  sign */\n      dup5\n        /* \"frontend/src/contracts/MetaTransaction.sol\":2072:2085  add(sign, 96) */\n      add\n        /* \"frontend/src/contracts/MetaTransaction.sol\":2066:2086  mload(add(sign, 96)) */\n      mload\n        /* \"frontend/src/contracts/MetaTransaction.sol\":2063:2064  0 */\n      0x00\n        /* \"frontend/src/contracts/MetaTransaction.sol\":2058:2087  byte(0, mload(add(sign, 96))) */\n      byte\n        /* \"frontend/src/contracts/MetaTransaction.sol\":2053:2087  v := byte(0, mload(add(sign, 96))) */\n      swap1\n      pop\n        /* \"frontend/src/contracts/MetaTransaction.sol\":2116:2118  27 */\n      0x1b\n        /* \"frontend/src/contracts/MetaTransaction.sol\":2112:2113  v */\n      dup2\n        /* \"frontend/src/contracts/MetaTransaction.sol\":2112:2118  v < 27 */\n      0xff\n      and\n      lt\n        /* \"frontend/src/contracts/MetaTransaction.sol\":2108:2127  if (v < 27) v += 27 */\n      iszero\n      tag_92\n      jumpi\n        /* \"frontend/src/contracts/MetaTransaction.sol\":2125:2127  27 */\n      0x1b\n        /* \"frontend/src/contracts/MetaTransaction.sol\":2120:2127  v += 27 */\n      dup2\n      tag_93\n      swap2\n      swap1\n      tag_94\n      jump\t// in\n    tag_93:\n      swap1\n      pop\n        /* \"frontend/src/contracts/MetaTransaction.sol\":2108:2127  if (v < 27) v += 27 */\n    tag_92:\n        /* \"frontend/src/contracts/MetaTransaction.sol\":2151:2153  27 */\n      0x1b\n        /* \"frontend/src/contracts/MetaTransaction.sol\":2146:2147  v */\n      dup2\n        /* \"frontend/src/contracts/MetaTransaction.sol\":2146:2153  v == 27 */\n      0xff\n      and\n      eq\n        /* \"frontend/src/contracts/MetaTransaction.sol\":2146:2164  v == 27 || v == 28 */\n      dup1\n      tag_95\n      jumpi\n      pop\n        /* \"frontend/src/contracts/MetaTransaction.sol\":2162:2164  28 */\n      0x1c\n        /* \"frontend/src/contracts/MetaTransaction.sol\":2157:2158  v */\n      dup2\n        /* \"frontend/src/contracts/MetaTransaction.sol\":2157:2164  v == 28 */\n      0xff\n      and\n      eq\n        /* \"frontend/src/contracts/MetaTransaction.sol\":2146:2164  v == 27 || v == 28 */\n    tag_95:\n        /* \"frontend/src/contracts/MetaTransaction.sol\":2138:2194  require(v == 27 || v == 28, \"Invalid signature version\") */\n      tag_96\n      jumpi\n      mload(0x40)\n      0x08c379a000000000000000000000000000000000000000000000000000000000\n      dup2\n      mstore\n      0x04\n      add\n      tag_97\n      swap1\n      tag_98\n      jump\t// in\n    tag_97:\n      mload(0x40)\n      dup1\n      swap2\n      sub\n      swap1\n      revert\n    tag_96:\n        /* \"frontend/src/contracts/MetaTransaction.sol\":1783:2202  function splitSign(bytes memory sign) internal pure returns (bytes32 r, bytes32 s, uint8 v) {... */\n      swap2\n      swap4\n      swap1\n      swap3\n      pop\n      jump\t// out\n        /* \"@openzeppelin/contracts/utils/Strings.sol\":637:1335  function toString(uint256 value) internal pure returns (string memory) {... */\n    tag_85:\n        /* \"@openzeppelin/contracts/utils/Strings.sol\":693:706  string memory */\n      0x60\n        /* \"@openzeppelin/contracts/utils/Strings.sol\":742:756  uint256 length */\n      0x00\n        /* \"@openzeppelin/contracts/utils/Strings.sol\":779:780  1 */\n      0x01\n        /* \"@openzeppelin/contracts/utils/Strings.sol\":759:776  Math.log10(value) */\n      tag_100\n        /* \"@openzeppelin/contracts/utils/Strings.sol\":770:775  value */\n      dup5\n        /* \"@openzeppelin/contracts/utils/Strings.sol\":759:769  Math.log10 */\n      tag_101\n        /* \"@openzeppelin/contracts/utils/Strings.sol\":759:776  Math.log10(value) */\n      jump\t// in\n    tag_100:\n        /* \"@openzeppelin/contracts/utils/Strings.sol\":759:780  Math.log10(value) + 1 */\n      add\n        /* \"@openzeppelin/contracts/utils/Strings.sol\":742:780  uint256 length = Math.log10(value) + 1 */\n      swap1\n      pop\n        /* \"@openzeppelin/contracts/utils/Strings.sol\":794:814  string memory buffer */\n      0x00\n        /* \"@openzeppelin/contracts/utils/Strings.sol\":828:834  length */\n      dup2\n        /* \"@openzeppelin/contracts/utils/Strings.sol\":817:835  new string(length) */\n      0xffffffffffffffff\n      dup2\n      gt\n      iszero\n      tag_102\n      jumpi\n      tag_103\n      tag_104\n      jump\t// in\n    tag_103:\n    tag_102:\n      mload(0x40)\n      swap1\n      dup1\n      dup3\n      mstore\n      dup1\n      0x1f\n      add\n      not(0x1f)\n      and\n      0x20\n      add\n      dup3\n      add\n      0x40\n      mstore\n      dup1\n      iszero\n      tag_105\n      jumpi\n      dup2\n      0x20\n      add\n      0x01\n      dup3\n      mul\n      dup1\n      calldatasize\n      dup4\n      calldatacopy\n      dup1\n      dup3\n      add\n      swap2\n      pop\n      pop\n      swap1\n      pop\n    tag_105:\n      pop\n        /* \"@openzeppelin/contracts/utils/Strings.sol\":794:835  string memory buffer = new string(length) */\n      swap1\n      pop\n        /* \"@openzeppelin/contracts/utils/Strings.sol\":849:860  uint256 ptr */\n      0x00\n        /* \"@openzeppelin/contracts/utils/Strings.sol\":975:981  length */\n      dup3\n        /* \"@openzeppelin/contracts/utils/Strings.sol\":971:973  32 */\n      0x20\n        /* \"@openzeppelin/contracts/utils/Strings.sol\":967:982  add(32, length) */\n      add\n        /* \"@openzeppelin/contracts/utils/Strings.sol\":959:965  buffer */\n      dup3\n        /* \"@openzeppelin/contracts/utils/Strings.sol\":955:983  add(buffer, add(32, length)) */\n      add\n        /* \"@openzeppelin/contracts/utils/Strings.sol\":948:983  ptr := add(buffer, add(32, length)) */\n      swap1\n      pop\n        /* \"@openzeppelin/contracts/utils/Strings.sol\":1010:1292  while (true) {... */\n    tag_106:\n        /* \"@openzeppelin/contracts/utils/Strings.sol\":1017:1021  true */\n      0x01\n        /* \"@openzeppelin/contracts/utils/Strings.sol\":1010:1292  while (true) {... */\n      iszero\n      tag_107\n      jumpi\n        /* \"@openzeppelin/contracts/utils/Strings.sol\":1041:1046  ptr-- */\n      dup1\n      dup1\n      0x01\n      swap1\n      sub\n      swap2\n      pop\n      pop\n        /* \"@openzeppelin/contracts/utils/Strings.sol\":1180:1190  HEX_DIGITS */\n      0x3031323334353637383961626364656600000000000000000000000000000000\n        /* \"@openzeppelin/contracts/utils/Strings.sol\":1175:1177  10 */\n      0x0a\n        /* \"@openzeppelin/contracts/utils/Strings.sol\":1168:1173  value */\n      dup7\n        /* \"@openzeppelin/contracts/utils/Strings.sol\":1164:1178  mod(value, 10) */\n      mod\n        /* \"@openzeppelin/contracts/utils/Strings.sol\":1159:1191  byte(mod(value, 10), HEX_DIGITS) */\n      byte\n        /* \"@openzeppelin/contracts/utils/Strings.sol\":1154:1157  ptr */\n      dup2\n        /* \"@openzeppelin/contracts/utils/Strings.sol\":1146:1192  mstore8(ptr, byte(mod(value, 10), HEX_DIGITS)) */\n      mstore8\n        /* \"@openzeppelin/contracts/utils/Strings.sol\":1236:1238  10 */\n      0x0a\n        /* \"@openzeppelin/contracts/utils/Strings.sol\":1227:1238  value /= 10 */\n      dup6\n      dup2\n      tag_108\n      jumpi\n      tag_109\n      tag_110\n      jump\t// in\n    tag_109:\n    tag_108:\n      div\n      swap5\n      pop\n        /* \"@openzeppelin/contracts/utils/Strings.sol\":1269:1270  0 */\n      0x00\n        /* \"@openzeppelin/contracts/utils/Strings.sol\":1260:1265  value */\n      dup6\n        /* \"@openzeppelin/contracts/utils/Strings.sol\":1260:1270  value == 0 */\n      sub\n        /* \"@openzeppelin/contracts/utils/Strings.sol\":1010:1292  while (true) {... */\n      tag_106\n        /* \"@openzeppelin/contracts/utils/Strings.sol\":1256:1277  if (value == 0) break */\n      jumpi\n        /* \"@openzeppelin/contracts/utils/Strings.sol\":1010:1292  while (true) {... */\n    tag_107:\n        /* \"@openzeppelin/contracts/utils/Strings.sol\":1312:1318  buffer */\n      dup2\n        /* \"@openzeppelin/contracts/utils/Strings.sol\":1305:1318  return buffer */\n      swap4\n      pop\n      pop\n      pop\n      pop\n        /* \"@openzeppelin/contracts/utils/Strings.sol\":637:1335  function toString(uint256 value) internal pure returns (string memory) {... */\n      swap2\n      swap1\n      pop\n      jump\t// out\n        /* \"@openzeppelin/contracts/utils/math/Math.sol\":12214:13130  function log10(uint256 value) internal pure returns (uint256) {... */\n    tag_101:\n        /* \"@openzeppelin/contracts/utils/math/Math.sol\":12267:12274  uint256 */\n      0x00\n        /* \"@openzeppelin/contracts/utils/math/Math.sol\":12286:12300  uint256 result */\n      dup1\n        /* \"@openzeppelin/contracts/utils/math/Math.sol\":12303:12304  0 */\n      0x00\n        /* \"@openzeppelin/contracts/utils/math/Math.sol\":12286:12304  uint256 result = 0 */\n      swap1\n      pop\n        /* \"@openzeppelin/contracts/utils/math/Math.sol\":12351:12359  10 ** 64 */\n      0x184f03e93ff9f4daa797ed6e38ed64bf6a1f010000000000000000\n        /* \"@openzeppelin/contracts/utils/math/Math.sol\":12342:12347  value */\n      dup4\n        /* \"@openzeppelin/contracts/utils/math/Math.sol\":12342:12359  value >= 10 ** 64 */\n      lt\n        /* \"@openzeppelin/contracts/utils/math/Math.sol\":12338:12441  if (value >= 10 ** 64) {... */\n      tag_113\n      jumpi\n        /* \"@openzeppelin/contracts/utils/math/Math.sol\":12388:12396  10 ** 64 */\n      0x184f03e93ff9f4daa797ed6e38ed64bf6a1f010000000000000000\n        /* \"@openzeppelin/contracts/utils/math/Math.sol\":12379:12396  value /= 10 ** 64 */\n      dup4\n      dup2\n      tag_114\n      jumpi\n      tag_115\n      tag_110\n      jump\t// in\n    tag_115:\n    tag_114:\n      div\n      swap3\n      pop\n        /* \"@openzeppelin/contracts/utils/math/Math.sol\":12424:12426  64 */\n      0x40\n        /* \"@openzeppelin/contracts/utils/math/Math.sol\":12414:12426  result += 64 */\n      dup2\n      add\n      swap1\n      pop\n        /* \"@openzeppelin/contracts/utils/math/Math.sol\":12338:12441  if (value >= 10 ** 64) {... */\n    tag_113:\n        /* \"@openzeppelin/contracts/utils/math/Math.sol\":12467:12475  10 ** 32 */\n      0x04ee2d6d415b85acef8100000000\n        /* \"@openzeppelin/contracts/utils/math/Math.sol\":12458:12463  value */\n      dup4\n        /* \"@openzeppelin/contracts/utils/math/Math.sol\":12458:12475  value >= 10 ** 32 */\n      lt\n        /* \"@openzeppelin/contracts/utils/math/Math.sol\":12454:12557  if (value >= 10 ** 32) {... */\n      tag_116\n      jumpi\n        /* \"@openzeppelin/contracts/utils/math/Math.sol\":12504:12512  10 ** 32 */\n      0x04ee2d6d415b85acef8100000000\n        /* \"@openzeppelin/contracts/utils/math/Math.sol\":12495:12512  value /= 10 ** 32 */\n      dup4\n      dup2\n      tag_117\n      jumpi\n      tag_118\n      tag_110\n      jump\t// in\n    tag_118:\n    tag_117:\n      div\n      swap3\n      pop\n        /* \"@openzeppelin/contracts/utils/math/Math.sol\":12540:12542  32 */\n      0x20\n        /* \"@openzeppelin/contracts/utils/math/Math.sol\":12530:12542  result += 32 */\n      dup2\n      add\n      swap1\n      pop\n        /* \"@openzeppelin/contracts/utils/math/Math.sol\":12454:12557  if (value >= 10 ** 32) {... */\n    tag_116:\n        /* \"@openzeppelin/contracts/utils/math/Math.sol\":12583:12591  10 ** 16 */\n      0x2386f26fc10000\n        /* \"@openzeppelin/contracts/utils/math/Math.sol\":12574:12579  value */\n      dup4\n        /* \"@openzeppelin/contracts/utils/math/Math.sol\":12574:12591  value >= 10 ** 16 */\n      lt\n        /* \"@openzeppelin/contracts/utils/math/Math.sol\":12570:12673  if (value >= 10 ** 16) {... */\n      tag_119\n      jumpi\n        /* \"@openzeppelin/contracts/utils/math/Math.sol\":12620:12628  10 ** 16 */\n      0x2386f26fc10000\n        /* \"@openzeppelin/contracts/utils/math/Math.sol\":12611:12628  value /= 10 ** 16 */\n      dup4\n      dup2\n      tag_120\n      jumpi\n      tag_121\n      tag_110\n      jump\t// in\n    tag_121:\n    tag_120:\n      div\n      swap3\n      pop\n        /* \"@openzeppelin/contracts/utils/math/Math.sol\":12656:12658  16 */\n      0x10\n        /* \"@openzeppelin/contracts/utils/math/Math.sol\":12646:12658  result += 16 */\n      dup2\n      add\n      swap1\n      pop\n        /* \"@openzeppelin/contracts/utils/math/Math.sol\":12570:12673  if (value >= 10 ** 16) {... */\n    tag_119:\n        /* \"@openzeppelin/contracts/utils/math/Math.sol\":12699:12706  10 ** 8 */\n      0x05f5e100\n        /* \"@openzeppelin/contracts/utils/math/Math.sol\":12690:12695  value */\n      dup4\n        /* \"@openzeppelin/contracts/utils/math/Math.sol\":12690:12706  value >= 10 ** 8 */\n      lt\n        /* \"@openzeppelin/contracts/utils/math/Math.sol\":12686:12786  if (value >= 10 ** 8) {... */\n      tag_122\n      jumpi\n        /* \"@openzeppelin/contracts/utils/math/Math.sol\":12735:12742  10 ** 8 */\n      0x05f5e100\n        /* \"@openzeppelin/contracts/utils/math/Math.sol\":12726:12742  value /= 10 ** 8 */\n      dup4\n      dup2\n      tag_123\n      jumpi\n      tag_124\n      tag_110\n      jump\t// in\n    tag_124:\n    tag_123:\n      div\n      swap3\n      pop\n        /* \"@openzeppelin/contracts/utils/math/Math.sol\":12770:12771  8 */\n      0x08\n        /* \"@openzeppelin/contracts/utils/math/Math.sol\":12760:12771  result += 8 */\n      dup2\n      add\n      swap1\n      pop\n        /* \"@openzeppelin/contracts/utils/math/Math.sol\":12686:12786  if (value >= 10 ** 8) {... */\n    tag_122:\n        /* \"@openzeppelin/contracts/utils/math/Math.sol\":12812:12819  10 ** 4 */\n      0x2710\n        /* \"@openzeppelin/contracts/utils/math/Math.sol\":12803:12808  value */\n      dup4\n        /* \"@openzeppelin/contracts/utils/math/Math.sol\":12803:12819  value >= 10 ** 4 */\n      lt\n        /* \"@openzeppelin/contracts/utils/math/Math.sol\":12799:12899  if (value >= 10 ** 4) {... */\n      tag_125\n      jumpi\n        /* \"@openzeppelin/contracts/utils/math/Math.sol\":12848:12855  10 ** 4 */\n      0x2710\n        /* \"@openzeppelin/contracts/utils/math/Math.sol\":12839:12855  value /= 10 ** 4 */\n      dup4\n      dup2\n      tag_126\n      jumpi\n      tag_127\n      tag_110\n      jump\t// in\n    tag_127:\n    tag_126:\n      div\n      swap3\n      pop\n        /* \"@openzeppelin/contracts/utils/math/Math.sol\":12883:12884  4 */\n      0x04\n        /* \"@openzeppelin/contracts/utils/math/Math.sol\":12873:12884  result += 4 */\n      dup2\n      add\n      swap1\n      pop\n        /* \"@openzeppelin/contracts/utils/math/Math.sol\":12799:12899  if (value >= 10 ** 4) {... */\n    tag_125:\n        /* \"@openzeppelin/contracts/utils/math/Math.sol\":12925:12932  10 ** 2 */\n      0x64\n        /* \"@openzeppelin/contracts/utils/math/Math.sol\":12916:12921  value */\n      dup4\n        /* \"@openzeppelin/contracts/utils/math/Math.sol\":12916:12932  value >= 10 ** 2 */\n      lt\n        /* \"@openzeppelin/contracts/utils/math/Math.sol\":12912:13012  if (value >= 10 ** 2) {... */\n      tag_128\n      jumpi\n        /* \"@openzeppelin/contracts/utils/math/Math.sol\":12961:12968  10 ** 2 */\n      0x64\n        /* \"@openzeppelin/contracts/utils/math/Math.sol\":12952:12968  value /= 10 ** 2 */\n      dup4\n      dup2\n      tag_129\n      jumpi\n      tag_130\n      tag_110\n      jump\t// in\n    tag_130:\n    tag_129:\n      div\n      swap3\n      pop\n        /* \"@openzeppelin/contracts/utils/math/Math.sol\":12996:12997  2 */\n      0x02\n        /* \"@openzeppelin/contracts/utils/math/Math.sol\":12986:12997  result += 2 */\n      dup2\n      add\n      swap1\n      pop\n        /* \"@openzeppelin/contracts/utils/math/Math.sol\":12912:13012  if (value >= 10 ** 2) {... */\n    tag_128:\n        /* \"@openzeppelin/contracts/utils/math/Math.sol\":13038:13045  10 ** 1 */\n      0x0a\n        /* \"@openzeppelin/contracts/utils/math/Math.sol\":13029:13034  value */\n      dup4\n        /* \"@openzeppelin/contracts/utils/math/Math.sol\":13029:13045  value >= 10 ** 1 */\n      lt\n        /* \"@openzeppelin/contracts/utils/math/Math.sol\":13025:13091  if (value >= 10 ** 1) {... */\n      tag_131\n      jumpi\n        /* \"@openzeppelin/contracts/utils/math/Math.sol\":13075:13076  1 */\n      0x01\n        /* \"@openzeppelin/contracts/utils/math/Math.sol\":13065:13076  result += 1 */\n      dup2\n      add\n      swap1\n      pop\n        /* \"@openzeppelin/contracts/utils/math/Math.sol\":13025:13091  if (value >= 10 ** 1) {... */\n    tag_131:\n        /* \"@openzeppelin/contracts/utils/math/Math.sol\":13117:13123  result */\n      dup1\n        /* \"@openzeppelin/contracts/utils/math/Math.sol\":13110:13123  return result */\n      swap2\n      pop\n      pop\n        /* \"@openzeppelin/contracts/utils/math/Math.sol\":12214:13130  function log10(uint256 value) internal pure returns (uint256) {... */\n      swap2\n      swap1\n      pop\n      jump\t// out\n        /* \"#utility.yul\":7:133   */\n    tag_132:\n        /* \"#utility.yul\":44:51   */\n      0x00\n        /* \"#utility.yul\":84:126   */\n      0xffffffffffffffffffffffffffffffffffffffff\n        /* \"#utility.yul\":77:82   */\n      dup3\n        /* \"#utility.yul\":73:127   */\n      and\n        /* \"#utility.yul\":62:127   */\n      swap1\n      pop\n        /* \"#utility.yul\":7:133   */\n      swap2\n      swap1\n      pop\n      jump\t// out\n        /* \"#utility.yul\":139:235   */\n    tag_133:\n        /* \"#utility.yul\":176:183   */\n      0x00\n        /* \"#utility.yul\":205:229   */\n      tag_195\n        /* \"#utility.yul\":223:228   */\n      dup3\n        /* \"#utility.yul\":205:229   */\n      tag_132\n      jump\t// in\n    tag_195:\n        /* \"#utility.yul\":194:229   */\n      swap1\n      pop\n        /* \"#utility.yul\":139:235   */\n      swap2\n      swap1\n      pop\n      jump\t// out\n        /* \"#utility.yul\":241:359   */\n    tag_134:\n        /* \"#utility.yul\":328:352   */\n      tag_197\n        /* \"#utility.yul\":346:351   */\n      dup2\n        /* \"#utility.yul\":328:352   */\n      tag_133\n      jump\t// in\n    tag_197:\n        /* \"#utility.yul\":323:326   */\n      dup3\n        /* \"#utility.yul\":316:353   */\n      mstore\n        /* \"#utility.yul\":241:359   */\n      pop\n      pop\n      jump\t// out\n        /* \"#utility.yul\":365:587   */\n    tag_15:\n        /* \"#utility.yul\":458:462   */\n      0x00\n        /* \"#utility.yul\":496:498   */\n      0x20\n        /* \"#utility.yul\":485:494   */\n      dup3\n        /* \"#utility.yul\":481:499   */\n      add\n        /* \"#utility.yul\":473:499   */\n      swap1\n      pop\n        /* \"#utility.yul\":509:580   */\n      tag_199\n        /* \"#utility.yul\":577:578   */\n      0x00\n        /* \"#utility.yul\":566:575   */\n      dup4\n        /* \"#utility.yul\":562:579   */\n      add\n        /* \"#utility.yul\":553:559   */\n      dup5\n        /* \"#utility.yul\":509:580   */\n      tag_134\n      jump\t// in\n    tag_199:\n        /* \"#utility.yul\":365:587   */\n      swap3\n      swap2\n      pop\n      pop\n      jump\t// out\n        /* \"#utility.yul\":593:697   */\n    tag_135:\n        /* \"#utility.yul\":638:645   */\n      0x00\n        /* \"#utility.yul\":667:691   */\n      tag_201\n        /* \"#utility.yul\":685:690   */\n      dup3\n        /* \"#utility.yul\":667:691   */\n      tag_132\n      jump\t// in\n    tag_201:\n        /* \"#utility.yul\":656:691   */\n      swap1\n      pop\n        /* \"#utility.yul\":593:697   */\n      swap2\n      swap1\n      pop\n      jump\t// out\n        /* \"#utility.yul\":703:845   */\n    tag_136:\n        /* \"#utility.yul\":806:838   */\n      tag_203\n        /* \"#utility.yul\":832:837   */\n      dup2\n        /* \"#utility.yul\":806:838   */\n      tag_135\n      jump\t// in\n    tag_203:\n        /* \"#utility.yul\":801:804   */\n      dup3\n        /* \"#utility.yul\":794:839   */\n      mstore\n        /* \"#utility.yul\":703:845   */\n      pop\n      pop\n      jump\t// out\n        /* \"#utility.yul\":851:1105   */\n    tag_20:\n        /* \"#utility.yul\":960:964   */\n      0x00\n        /* \"#utility.yul\":998:1000   */\n      0x20\n        /* \"#utility.yul\":987:996   */\n      dup3\n        /* \"#utility.yul\":983:1001   */\n      add\n        /* \"#utility.yul\":975:1001   */\n      swap1\n      pop\n        /* \"#utility.yul\":1011:1098   */\n      tag_205\n        /* \"#utility.yul\":1095:1096   */\n      0x00\n        /* \"#utility.yul\":1084:1093   */\n      dup4\n        /* \"#utility.yul\":1080:1097   */\n      add\n        /* \"#utility.yul\":1071:1077   */\n      dup5\n        /* \"#utility.yul\":1011:1098   */\n      tag_136\n      jump\t// in\n    tag_205:\n        /* \"#utility.yul\":851:1105   */\n      swap3\n      swap2\n      pop\n      pop\n      jump\t// out\n        /* \"#utility.yul\":1111:1186   */\n    tag_137:\n        /* \"#utility.yul\":1144:1150   */\n      0x00\n        /* \"#utility.yul\":1177:1179   */\n      0x40\n        /* \"#utility.yul\":1171:1180   */\n      mload\n        /* \"#utility.yul\":1161:1180   */\n      swap1\n      pop\n        /* \"#utility.yul\":1111:1186   */\n      swap1\n      jump\t// out\n        /* \"#utility.yul\":1192:1309   */\n    tag_138:\n        /* \"#utility.yul\":1301:1302   */\n      0x00\n        /* \"#utility.yul\":1298:1299   */\n      dup1\n        /* \"#utility.yul\":1291:1303   */\n      revert\n        /* \"#utility.yul\":1315:1432   */\n    tag_139:\n        /* \"#utility.yul\":1424:1425   */\n      0x00\n        /* \"#utility.yul\":1421:1422   */\n      dup1\n        /* \"#utility.yul\":1414:1426   */\n      revert\n        /* \"#utility.yul\":1438:1555   */\n    tag_140:\n        /* \"#utility.yul\":1547:1548   */\n      0x00\n        /* \"#utility.yul\":1544:1545   */\n      dup1\n        /* \"#utility.yul\":1537:1549   */\n      revert\n        /* \"#utility.yul\":1561:1663   */\n    tag_141:\n        /* \"#utility.yul\":1602:1608   */\n      0x00\n        /* \"#utility.yul\":1653:1655   */\n      0x1f\n        /* \"#utility.yul\":1649:1656   */\n      not\n        /* \"#utility.yul\":1644:1646   */\n      0x1f\n        /* \"#utility.yul\":1637:1642   */\n      dup4\n        /* \"#utility.yul\":1633:1647   */\n      add\n        /* \"#utility.yul\":1629:1657   */\n      and\n        /* \"#utility.yul\":1619:1657   */\n      swap1\n      pop\n        /* \"#utility.yul\":1561:1663   */\n      swap2\n      swap1\n      pop\n      jump\t// out\n        /* \"#utility.yul\":1669:1849   */\n    tag_104:\n        /* \"#utility.yul\":1717:1794   */\n      0x4e487b7100000000000000000000000000000000000000000000000000000000\n        /* \"#utility.yul\":1714:1715   */\n      0x00\n        /* \"#utility.yul\":1707:1795   */\n      mstore\n        /* \"#utility.yul\":1814:1818   */\n      0x41\n        /* \"#utility.yul\":1811:1812   */\n      0x04\n        /* \"#utility.yul\":1804:1819   */\n      mstore\n        /* \"#utility.yul\":1838:1842   */\n      0x24\n        /* \"#utility.yul\":1835:1836   */\n      0x00\n        /* \"#utility.yul\":1828:1843   */\n      revert\n        /* \"#utility.yul\":1855:2136   */\n    tag_142:\n        /* \"#utility.yul\":1938:1965   */\n      tag_213\n        /* \"#utility.yul\":1960:1964   */\n      dup3\n        /* \"#utility.yul\":1938:1965   */\n      tag_141\n      jump\t// in\n    tag_213:\n        /* \"#utility.yul\":1930:1936   */\n      dup2\n        /* \"#utility.yul\":1926:1966   */\n      add\n        /* \"#utility.yul\":2068:2074   */\n      dup2\n        /* \"#utility.yul\":2056:2066   */\n      dup2\n        /* \"#utility.yul\":2053:2075   */\n      lt\n        /* \"#utility.yul\":2032:2050   */\n      0xffffffffffffffff\n        /* \"#utility.yul\":2020:2030   */\n      dup3\n        /* \"#utility.yul\":2017:2051   */\n      gt\n        /* \"#utility.yul\":2014:2076   */\n      or\n        /* \"#utility.yul\":2011:2099   */\n      iszero\n      tag_214\n      jumpi\n        /* \"#utility.yul\":2079:2097   */\n      tag_215\n      tag_104\n      jump\t// in\n    tag_215:\n        /* \"#utility.yul\":2011:2099   */\n    tag_214:\n        /* \"#utility.yul\":2119:2129   */\n      dup1\n        /* \"#utility.yul\":2115:2117   */\n      0x40\n        /* \"#utility.yul\":2108:2130   */\n      mstore\n        /* \"#utility.yul\":1898:2136   */\n      pop\n        /* \"#utility.yul\":1855:2136   */\n      pop\n      pop\n      jump\t// out\n        /* \"#utility.yul\":2142:2271   */\n    tag_143:\n        /* \"#utility.yul\":2176:2182   */\n      0x00\n        /* \"#utility.yul\":2203:2223   */\n      tag_217\n      tag_137\n      jump\t// in\n    tag_217:\n        /* \"#utility.yul\":2193:2223   */\n      swap1\n      pop\n        /* \"#utility.yul\":2232:2265   */\n      tag_218\n        /* \"#utility.yul\":2260:2264   */\n      dup3\n        /* \"#utility.yul\":2252:2258   */\n      dup3\n        /* \"#utility.yul\":2232:2265   */\n      tag_142\n      jump\t// in\n    tag_218:\n        /* \"#utility.yul\":2142:2271   */\n      swap2\n      swap1\n      pop\n      jump\t// out\n        /* \"#utility.yul\":2277:2588   */\n    tag_144:\n        /* \"#utility.yul\":2354:2358   */\n      0x00\n        /* \"#utility.yul\":2444:2462   */\n      0xffffffffffffffff\n        /* \"#utility.yul\":2436:2442   */\n      dup3\n        /* \"#utility.yul\":2433:2463   */\n      gt\n        /* \"#utility.yul\":2430:2486   */\n      iszero\n      tag_220\n      jumpi\n        /* \"#utility.yul\":2466:2484   */\n      tag_221\n      tag_104\n      jump\t// in\n    tag_221:\n        /* \"#utility.yul\":2430:2486   */\n    tag_220:\n        /* \"#utility.yul\":2516:2520   */\n      0x20\n        /* \"#utility.yul\":2508:2514   */\n      dup3\n        /* \"#utility.yul\":2504:2521   */\n      mul\n        /* \"#utility.yul\":2496:2521   */\n      swap1\n      pop\n        /* \"#utility.yul\":2576:2580   */\n      0x20\n        /* \"#utility.yul\":2570:2574   */\n      dup2\n        /* \"#utility.yul\":2566:2581   */\n      add\n        /* \"#utility.yul\":2558:2581   */\n      swap1\n      pop\n        /* \"#utility.yul\":2277:2588   */\n      swap2\n      swap1\n      pop\n      jump\t// out\n        /* \"#utility.yul\":2594:2711   */\n    tag_145:\n        /* \"#utility.yul\":2703:2704   */\n      0x00\n        /* \"#utility.yul\":2700:2701   */\n      dup1\n        /* \"#utility.yul\":2693:2705   */\n      revert\n        /* \"#utility.yul\":2717:2839   */\n    tag_146:\n        /* \"#utility.yul\":2790:2814   */\n      tag_224\n        /* \"#utility.yul\":2808:2813   */\n      dup2\n        /* \"#utility.yul\":2790:2814   */\n      tag_133\n      jump\t// in\n    tag_224:\n        /* \"#utility.yul\":2783:2788   */\n      dup2\n        /* \"#utility.yul\":2780:2815   */\n      eq\n        /* \"#utility.yul\":2770:2833   */\n      tag_225\n      jumpi\n        /* \"#utility.yul\":2829:2830   */\n      0x00\n        /* \"#utility.yul\":2826:2827   */\n      dup1\n        /* \"#utility.yul\":2819:2831   */\n      revert\n        /* \"#utility.yul\":2770:2833   */\n    tag_225:\n        /* \"#utility.yul\":2717:2839   */\n      pop\n      jump\t// out\n        /* \"#utility.yul\":2845:2984   */\n    tag_147:\n        /* \"#utility.yul\":2891:2896   */\n      0x00\n        /* \"#utility.yul\":2929:2935   */\n      dup2\n        /* \"#utility.yul\":2916:2936   */\n      calldataload\n        /* \"#utility.yul\":2907:2936   */\n      swap1\n      pop\n        /* \"#utility.yul\":2945:2978   */\n      tag_227\n        /* \"#utility.yul\":2972:2977   */\n      dup2\n        /* \"#utility.yul\":2945:2978   */\n      tag_146\n      jump\t// in\n    tag_227:\n        /* \"#utility.yul\":2845:2984   */\n      swap3\n      swap2\n      pop\n      pop\n      jump\t// out\n        /* \"#utility.yul\":3007:3717   */\n    tag_148:\n        /* \"#utility.yul\":3103:3108   */\n      0x00\n        /* \"#utility.yul\":3128:3209   */\n      tag_229\n        /* \"#utility.yul\":3144:3208   */\n      tag_230\n        /* \"#utility.yul\":3201:3207   */\n      dup5\n        /* \"#utility.yul\":3144:3208   */\n      tag_144\n      jump\t// in\n    tag_230:\n        /* \"#utility.yul\":3128:3209   */\n      tag_143\n      jump\t// in\n    tag_229:\n        /* \"#utility.yul\":3119:3209   */\n      swap1\n      pop\n        /* \"#utility.yul\":3229:3234   */\n      dup1\n        /* \"#utility.yul\":3258:3264   */\n      dup4\n        /* \"#utility.yul\":3251:3256   */\n      dup3\n        /* \"#utility.yul\":3244:3265   */\n      mstore\n        /* \"#utility.yul\":3292:3296   */\n      0x20\n        /* \"#utility.yul\":3285:3290   */\n      dup3\n        /* \"#utility.yul\":3281:3297   */\n      add\n        /* \"#utility.yul\":3274:3297   */\n      swap1\n      pop\n        /* \"#utility.yul\":3345:3349   */\n      0x20\n        /* \"#utility.yul\":3337:3343   */\n      dup5\n        /* \"#utility.yul\":3333:3350   */\n      mul\n        /* \"#utility.yul\":3325:3331   */\n      dup4\n        /* \"#utility.yul\":3321:3351   */\n      add\n        /* \"#utility.yul\":3374:3377   */\n      dup6\n        /* \"#utility.yul\":3366:3372   */\n      dup2\n        /* \"#utility.yul\":3363:3378   */\n      gt\n        /* \"#utility.yul\":3360:3482   */\n      iszero\n      tag_231\n      jumpi\n        /* \"#utility.yul\":3393:3472   */\n      tag_232\n      tag_145\n      jump\t// in\n    tag_232:\n        /* \"#utility.yul\":3360:3482   */\n    tag_231:\n        /* \"#utility.yul\":3508:3514   */\n      dup4\n        /* \"#utility.yul\":3491:3711   */\n    tag_233:\n        /* \"#utility.yul\":3525:3531   */\n      dup2\n        /* \"#utility.yul\":3520:3523   */\n      dup2\n        /* \"#utility.yul\":3517:3532   */\n      lt\n        /* \"#utility.yul\":3491:3711   */\n      iszero\n      tag_235\n      jumpi\n        /* \"#utility.yul\":3600:3603   */\n      dup1\n        /* \"#utility.yul\":3629:3666   */\n      tag_236\n        /* \"#utility.yul\":3662:3665   */\n      dup9\n        /* \"#utility.yul\":3650:3660   */\n      dup3\n        /* \"#utility.yul\":3629:3666   */\n      tag_147\n      jump\t// in\n    tag_236:\n        /* \"#utility.yul\":3624:3627   */\n      dup5\n        /* \"#utility.yul\":3617:3667   */\n      mstore\n        /* \"#utility.yul\":3696:3700   */\n      0x20\n        /* \"#utility.yul\":3691:3694   */\n      dup5\n        /* \"#utility.yul\":3687:3701   */\n      add\n        /* \"#utility.yul\":3680:3701   */\n      swap4\n      pop\n        /* \"#utility.yul\":3567:3711   */\n      pop\n        /* \"#utility.yul\":3551:3555   */\n      0x20\n        /* \"#utility.yul\":3546:3549   */\n      dup2\n        /* \"#utility.yul\":3542:3556   */\n      add\n        /* \"#utility.yul\":3535:3556   */\n      swap1\n      pop\n        /* \"#utility.yul\":3491:3711   */\n      jump(tag_233)\n    tag_235:\n        /* \"#utility.yul\":3495:3516   */\n      pop\n        /* \"#utility.yul\":3109:3717   */\n      pop\n      pop\n        /* \"#utility.yul\":3007:3717   */\n      swap4\n      swap3\n      pop\n      pop\n      pop\n      jump\t// out\n        /* \"#utility.yul\":3740:4110   */\n    tag_149:\n        /* \"#utility.yul\":3811:3816   */\n      0x00\n        /* \"#utility.yul\":3860:3863   */\n      dup3\n        /* \"#utility.yul\":3853:3857   */\n      0x1f\n        /* \"#utility.yul\":3845:3851   */\n      dup4\n        /* \"#utility.yul\":3841:3858   */\n      add\n        /* \"#utility.yul\":3837:3864   */\n      slt\n        /* \"#utility.yul\":3827:3949   */\n      tag_238\n      jumpi\n        /* \"#utility.yul\":3868:3947   */\n      tag_239\n      tag_140\n      jump\t// in\n    tag_239:\n        /* \"#utility.yul\":3827:3949   */\n    tag_238:\n        /* \"#utility.yul\":3985:3991   */\n      dup2\n        /* \"#utility.yul\":3972:3992   */\n      calldataload\n        /* \"#utility.yul\":4010:4104   */\n      tag_240\n        /* \"#utility.yul\":4100:4103   */\n      dup5\n        /* \"#utility.yul\":4092:4098   */\n      dup3\n        /* \"#utility.yul\":4085:4089   */\n      0x20\n        /* \"#utility.yul\":4077:4083   */\n      dup7\n        /* \"#utility.yul\":4073:4090   */\n      add\n        /* \"#utility.yul\":4010:4104   */\n      tag_148\n      jump\t// in\n    tag_240:\n        /* \"#utility.yul\":4001:4104   */\n      swap2\n      pop\n        /* \"#utility.yul\":3817:4110   */\n      pop\n        /* \"#utility.yul\":3740:4110   */\n      swap3\n      swap2\n      pop\n      pop\n      jump\t// out\n        /* \"#utility.yul\":4116:4436   */\n    tag_150:\n        /* \"#utility.yul\":4202:4206   */\n      0x00\n        /* \"#utility.yul\":4292:4310   */\n      0xffffffffffffffff\n        /* \"#utility.yul\":4284:4290   */\n      dup3\n        /* \"#utility.yul\":4281:4311   */\n      gt\n        /* \"#utility.yul\":4278:4334   */\n      iszero\n      tag_242\n      jumpi\n        /* \"#utility.yul\":4314:4332   */\n      tag_243\n      tag_104\n      jump\t// in\n    tag_243:\n        /* \"#utility.yul\":4278:4334   */\n    tag_242:\n        /* \"#utility.yul\":4364:4368   */\n      0x20\n        /* \"#utility.yul\":4356:4362   */\n      dup3\n        /* \"#utility.yul\":4352:4369   */\n      mul\n        /* \"#utility.yul\":4344:4369   */\n      swap1\n      pop\n        /* \"#utility.yul\":4424:4428   */\n      0x20\n        /* \"#utility.yul\":4418:4422   */\n      dup2\n        /* \"#utility.yul\":4414:4429   */\n      add\n        /* \"#utility.yul\":4406:4429   */\n      swap1\n      pop\n        /* \"#utility.yul\":4116:4436   */\n      swap2\n      swap1\n      pop\n      jump\t// out\n        /* \"#utility.yul\":4442:4559   */\n    tag_151:\n        /* \"#utility.yul\":4551:4552   */\n      0x00\n        /* \"#utility.yul\":4548:4549   */\n      dup1\n        /* \"#utility.yul\":4541:4553   */\n      revert\n        /* \"#utility.yul\":4565:4872   */\n    tag_152:\n        /* \"#utility.yul\":4626:4630   */\n      0x00\n        /* \"#utility.yul\":4716:4734   */\n      0xffffffffffffffff\n        /* \"#utility.yul\":4708:4714   */\n      dup3\n        /* \"#utility.yul\":4705:4735   */\n      gt\n        /* \"#utility.yul\":4702:4758   */\n      iszero\n      tag_246\n      jumpi\n        /* \"#utility.yul\":4738:4756   */\n      tag_247\n      tag_104\n      jump\t// in\n    tag_247:\n        /* \"#utility.yul\":4702:4758   */\n    tag_246:\n        /* \"#utility.yul\":4776:4805   */\n      tag_248\n        /* \"#utility.yul\":4798:4804   */\n      dup3\n        /* \"#utility.yul\":4776:4805   */\n      tag_141\n      jump\t// in\n    tag_248:\n        /* \"#utility.yul\":4768:4805   */\n      swap1\n      pop\n        /* \"#utility.yul\":4860:4864   */\n      0x20\n        /* \"#utility.yul\":4854:4858   */\n      dup2\n        /* \"#utility.yul\":4850:4865   */\n      add\n        /* \"#utility.yul\":4842:4865   */\n      swap1\n      pop\n        /* \"#utility.yul\":4565:4872   */\n      swap2\n      swap1\n      pop\n      jump\t// out\n        /* \"#utility.yul\":4878:5024   */\n    tag_153:\n        /* \"#utility.yul\":4975:4981   */\n      dup3\n        /* \"#utility.yul\":4970:4973   */\n      dup2\n        /* \"#utility.yul\":4965:4968   */\n      dup4\n        /* \"#utility.yul\":4952:4982   */\n      calldatacopy\n        /* \"#utility.yul\":5016:5017   */\n      0x00\n        /* \"#utility.yul\":5007:5013   */\n      dup4\n        /* \"#utility.yul\":5002:5005   */\n      dup4\n        /* \"#utility.yul\":4998:5014   */\n      add\n        /* \"#utility.yul\":4991:5018   */\n      mstore\n        /* \"#utility.yul\":4878:5024   */\n      pop\n      pop\n      pop\n      jump\t// out\n        /* \"#utility.yul\":5030:5453   */\n    tag_154:\n        /* \"#utility.yul\":5107:5112   */\n      0x00\n        /* \"#utility.yul\":5132:5197   */\n      tag_251\n        /* \"#utility.yul\":5148:5196   */\n      tag_252\n        /* \"#utility.yul\":5189:5195   */\n      dup5\n        /* \"#utility.yul\":5148:5196   */\n      tag_152\n      jump\t// in\n    tag_252:\n        /* \"#utility.yul\":5132:5197   */\n      tag_143\n      jump\t// in\n    tag_251:\n        /* \"#utility.yul\":5123:5197   */\n      swap1\n      pop\n        /* \"#utility.yul\":5220:5226   */\n      dup3\n        /* \"#utility.yul\":5213:5218   */\n      dup2\n        /* \"#utility.yul\":5206:5227   */\n      mstore\n        /* \"#utility.yul\":5258:5262   */\n      0x20\n        /* \"#utility.yul\":5251:5256   */\n      dup2\n        /* \"#utility.yul\":5247:5263   */\n      add\n        /* \"#utility.yul\":5296:5299   */\n      dup5\n        /* \"#utility.yul\":5287:5293   */\n      dup5\n        /* \"#utility.yul\":5282:5285   */\n      dup5\n        /* \"#utility.yul\":5278:5294   */\n      add\n        /* \"#utility.yul\":5275:5300   */\n      gt\n        /* \"#utility.yul\":5272:5384   */\n      iszero\n      tag_253\n      jumpi\n        /* \"#utility.yul\":5303:5382   */\n      tag_254\n      tag_151\n      jump\t// in\n    tag_254:\n        /* \"#utility.yul\":5272:5384   */\n    tag_253:\n        /* \"#utility.yul\":5393:5447   */\n      tag_255\n        /* \"#utility.yul\":5440:5446   */\n      dup5\n        /* \"#utility.yul\":5435:5438   */\n      dup3\n        /* \"#utility.yul\":5430:5433   */\n      dup6\n        /* \"#utility.yul\":5393:5447   */\n      tag_153\n      jump\t// in\n    tag_255:\n        /* \"#utility.yul\":5113:5453   */\n      pop\n        /* \"#utility.yul\":5030:5453   */\n      swap4\n      swap3\n      pop\n      pop\n      pop\n      jump\t// out\n        /* \"#utility.yul\":5472:5810   */\n    tag_155:\n        /* \"#utility.yul\":5527:5532   */\n      0x00\n        /* \"#utility.yul\":5576:5579   */\n      dup3\n        /* \"#utility.yul\":5569:5573   */\n      0x1f\n        /* \"#utility.yul\":5561:5567   */\n      dup4\n        /* \"#utility.yul\":5557:5574   */\n      add\n        /* \"#utility.yul\":5553:5580   */\n      slt\n        /* \"#utility.yul\":5543:5665   */\n      tag_257\n      jumpi\n        /* \"#utility.yul\":5584:5663   */\n      tag_258\n      tag_140\n      jump\t// in\n    tag_258:\n        /* \"#utility.yul\":5543:5665   */\n    tag_257:\n        /* \"#utility.yul\":5701:5707   */\n      dup2\n        /* \"#utility.yul\":5688:5708   */\n      calldataload\n        /* \"#utility.yul\":5726:5804   */\n      tag_259\n        /* \"#utility.yul\":5800:5803   */\n      dup5\n        /* \"#utility.yul\":5792:5798   */\n      dup3\n        /* \"#utility.yul\":5785:5789   */\n      0x20\n        /* \"#utility.yul\":5777:5783   */\n      dup7\n        /* \"#utility.yul\":5773:5790   */\n      add\n        /* \"#utility.yul\":5726:5804   */\n      tag_154\n      jump\t// in\n    tag_259:\n        /* \"#utility.yul\":5717:5804   */\n      swap2\n      pop\n        /* \"#utility.yul\":5533:5810   */\n      pop\n        /* \"#utility.yul\":5472:5810   */\n      swap3\n      swap2\n      pop\n      pop\n      jump\t// out\n        /* \"#utility.yul\":5831:6773   */\n    tag_156:\n        /* \"#utility.yul\":5936:5941   */\n      0x00\n        /* \"#utility.yul\":5961:6051   */\n      tag_261\n        /* \"#utility.yul\":5977:6050   */\n      tag_262\n        /* \"#utility.yul\":6043:6049   */\n      dup5\n        /* \"#utility.yul\":5977:6050   */\n      tag_150\n      jump\t// in\n    tag_262:\n        /* \"#utility.yul\":5961:6051   */\n      tag_143\n      jump\t// in\n    tag_261:\n        /* \"#utility.yul\":5952:6051   */\n      swap1\n      pop\n        /* \"#utility.yul\":6071:6076   */\n      dup1\n        /* \"#utility.yul\":6100:6106   */\n      dup4\n        /* \"#utility.yul\":6093:6098   */\n      dup3\n        /* \"#utility.yul\":6086:6107   */\n      mstore\n        /* \"#utility.yul\":6134:6138   */\n      0x20\n        /* \"#utility.yul\":6127:6132   */\n      dup3\n        /* \"#utility.yul\":6123:6139   */\n      add\n        /* \"#utility.yul\":6116:6139   */\n      swap1\n      pop\n        /* \"#utility.yul\":6187:6191   */\n      0x20\n        /* \"#utility.yul\":6179:6185   */\n      dup5\n        /* \"#utility.yul\":6175:6192   */\n      mul\n        /* \"#utility.yul\":6167:6173   */\n      dup4\n        /* \"#utility.yul\":6163:6193   */\n      add\n        /* \"#utility.yul\":6216:6219   */\n      dup6\n        /* \"#utility.yul\":6208:6214   */\n      dup2\n        /* \"#utility.yul\":6205:6220   */\n      gt\n        /* \"#utility.yul\":6202:6324   */\n      iszero\n      tag_263\n      jumpi\n        /* \"#utility.yul\":6235:6314   */\n      tag_264\n      tag_145\n      jump\t// in\n    tag_264:\n        /* \"#utility.yul\":6202:6324   */\n    tag_263:\n        /* \"#utility.yul\":6350:6356   */\n      dup4\n        /* \"#utility.yul\":6333:6767   */\n    tag_265:\n        /* \"#utility.yul\":6367:6373   */\n      dup2\n        /* \"#utility.yul\":6362:6365   */\n      dup2\n        /* \"#utility.yul\":6359:6374   */\n      lt\n        /* \"#utility.yul\":6333:6767   */\n      iszero\n      tag_267\n      jumpi\n        /* \"#utility.yul\":6456:6459   */\n      dup1\n        /* \"#utility.yul\":6443:6460   */\n      calldataload\n        /* \"#utility.yul\":6492:6510   */\n      0xffffffffffffffff\n        /* \"#utility.yul\":6479:6490   */\n      dup2\n        /* \"#utility.yul\":6476:6511   */\n      gt\n        /* \"#utility.yul\":6473:6595   */\n      iszero\n      tag_268\n      jumpi\n        /* \"#utility.yul\":6514:6593   */\n      tag_269\n      tag_140\n      jump\t// in\n    tag_269:\n        /* \"#utility.yul\":6473:6595   */\n    tag_268:\n        /* \"#utility.yul\":6638:6649   */\n      dup1\n        /* \"#utility.yul\":6630:6636   */\n      dup7\n        /* \"#utility.yul\":6626:6650   */\n      add\n        /* \"#utility.yul\":6676:6722   */\n      tag_270\n        /* \"#utility.yul\":6718:6721   */\n      dup10\n        /* \"#utility.yul\":6706:6716   */\n      dup3\n        /* \"#utility.yul\":6676:6722   */\n      tag_155\n      jump\t// in\n    tag_270:\n        /* \"#utility.yul\":6671:6674   */\n      dup6\n        /* \"#utility.yul\":6664:6723   */\n      mstore\n        /* \"#utility.yul\":6752:6756   */\n      0x20\n        /* \"#utility.yul\":6747:6750   */\n      dup6\n        /* \"#utility.yul\":6743:6757   */\n      add\n        /* \"#utility.yul\":6736:6757   */\n      swap5\n      pop\n        /* \"#utility.yul\":6409:6767   */\n      pop\n      pop\n        /* \"#utility.yul\":6393:6397   */\n      0x20\n        /* \"#utility.yul\":6388:6391   */\n      dup2\n        /* \"#utility.yul\":6384:6398   */\n      add\n        /* \"#utility.yul\":6377:6398   */\n      swap1\n      pop\n        /* \"#utility.yul\":6333:6767   */\n      jump(tag_265)\n    tag_267:\n        /* \"#utility.yul\":6337:6358   */\n      pop\n        /* \"#utility.yul\":5942:6773   */\n      pop\n      pop\n        /* \"#utility.yul\":5831:6773   */\n      swap4\n      swap3\n      pop\n      pop\n      pop\n      jump\t// out\n        /* \"#utility.yul\":6794:7182   */\n    tag_157:\n        /* \"#utility.yul\":6874:6879   */\n      0x00\n        /* \"#utility.yul\":6923:6926   */\n      dup3\n        /* \"#utility.yul\":6916:6920   */\n      0x1f\n        /* \"#utility.yul\":6908:6914   */\n      dup4\n        /* \"#utility.yul\":6904:6921   */\n      add\n        /* \"#utility.yul\":6900:6927   */\n      slt\n        /* \"#utility.yul\":6890:7012   */\n      tag_272\n      jumpi\n        /* \"#utility.yul\":6931:7010   */\n      tag_273\n      tag_140\n      jump\t// in\n    tag_273:\n        /* \"#utility.yul\":6890:7012   */\n    tag_272:\n        /* \"#utility.yul\":7048:7054   */\n      dup2\n        /* \"#utility.yul\":7035:7055   */\n      calldataload\n        /* \"#utility.yul\":7073:7176   */\n      tag_274\n        /* \"#utility.yul\":7172:7175   */\n      dup5\n        /* \"#utility.yul\":7164:7170   */\n      dup3\n        /* \"#utility.yul\":7157:7161   */\n      0x20\n        /* \"#utility.yul\":7149:7155   */\n      dup7\n        /* \"#utility.yul\":7145:7162   */\n      add\n        /* \"#utility.yul\":7073:7176   */\n      tag_156\n      jump\t// in\n    tag_274:\n        /* \"#utility.yul\":7064:7176   */\n      swap2\n      pop\n        /* \"#utility.yul\":6880:7182   */\n      pop\n        /* \"#utility.yul\":6794:7182   */\n      swap3\n      swap2\n      pop\n      pop\n      jump\t// out\n        /* \"#utility.yul\":7188:7509   */\n    tag_158:\n        /* \"#utility.yul\":7275:7279   */\n      0x00\n        /* \"#utility.yul\":7365:7383   */\n      0xffffffffffffffff\n        /* \"#utility.yul\":7357:7363   */\n      dup3\n        /* \"#utility.yul\":7354:7384   */\n      gt\n        /* \"#utility.yul\":7351:7407   */\n      iszero\n      tag_276\n      jumpi\n        /* \"#utility.yul\":7387:7405   */\n      tag_277\n      tag_104\n      jump\t// in\n    tag_277:\n        /* \"#utility.yul\":7351:7407   */\n    tag_276:\n        /* \"#utility.yul\":7437:7441   */\n      0x20\n        /* \"#utility.yul\":7429:7435   */\n      dup3\n        /* \"#utility.yul\":7425:7442   */\n      mul\n        /* \"#utility.yul\":7417:7442   */\n      swap1\n      pop\n        /* \"#utility.yul\":7497:7501   */\n      0x20\n        /* \"#utility.yul\":7491:7495   */\n      dup2\n        /* \"#utility.yul\":7487:7502   */\n      add\n        /* \"#utility.yul\":7479:7502   */\n      swap1\n      pop\n        /* \"#utility.yul\":7188:7509   */\n      swap2\n      swap1\n      pop\n      jump\t// out\n        /* \"#utility.yul\":7515:7823   */\n    tag_159:\n        /* \"#utility.yul\":7577:7581   */\n      0x00\n        /* \"#utility.yul\":7667:7685   */\n      0xffffffffffffffff\n        /* \"#utility.yul\":7659:7665   */\n      dup3\n        /* \"#utility.yul\":7656:7686   */\n      gt\n        /* \"#utility.yul\":7653:7709   */\n      iszero\n      tag_279\n      jumpi\n        /* \"#utility.yul\":7689:7707   */\n      tag_280\n      tag_104\n      jump\t// in\n    tag_280:\n        /* \"#utility.yul\":7653:7709   */\n    tag_279:\n        /* \"#utility.yul\":7727:7756   */\n      tag_281\n        /* \"#utility.yul\":7749:7755   */\n      dup3\n        /* \"#utility.yul\":7727:7756   */\n      tag_141\n      jump\t// in\n    tag_281:\n        /* \"#utility.yul\":7719:7756   */\n      swap1\n      pop\n        /* \"#utility.yul\":7811:7815   */\n      0x20\n        /* \"#utility.yul\":7805:7809   */\n      dup2\n        /* \"#utility.yul\":7801:7816   */\n      add\n        /* \"#utility.yul\":7793:7816   */\n      swap1\n      pop\n        /* \"#utility.yul\":7515:7823   */\n      swap2\n      swap1\n      pop\n      jump\t// out\n        /* \"#utility.yul\":7829:8254   */\n    tag_160:\n        /* \"#utility.yul\":7907:7912   */\n      0x00\n        /* \"#utility.yul\":7932:7998   */\n      tag_283\n        /* \"#utility.yul\":7948:7997   */\n      tag_284\n        /* \"#utility.yul\":7990:7996   */\n      dup5\n        /* \"#utility.yul\":7948:7997   */\n      tag_159\n      jump\t// in\n    tag_284:\n        /* \"#utility.yul\":7932:7998   */\n      tag_143\n      jump\t// in\n    tag_283:\n        /* \"#utility.yul\":7923:7998   */\n      swap1\n      pop\n        /* \"#utility.yul\":8021:8027   */\n      dup3\n        /* \"#utility.yul\":8014:8019   */\n      dup2\n        /* \"#utility.yul\":8007:8028   */\n      mstore\n        /* \"#utility.yul\":8059:8063   */\n      0x20\n        /* \"#utility.yul\":8052:8057   */\n      dup2\n        /* \"#utility.yul\":8048:8064   */\n      add\n        /* \"#utility.yul\":8097:8100   */\n      dup5\n        /* \"#utility.yul\":8088:8094   */\n      dup5\n        /* \"#utility.yul\":8083:8086   */\n      dup5\n        /* \"#utility.yul\":8079:8095   */\n      add\n        /* \"#utility.yul\":8076:8101   */\n      gt\n        /* \"#utility.yul\":8073:8185   */\n      iszero\n      tag_285\n      jumpi\n        /* \"#utility.yul\":8104:8183   */\n      tag_286\n      tag_151\n      jump\t// in\n    tag_286:\n        /* \"#utility.yul\":8073:8185   */\n    tag_285:\n        /* \"#utility.yul\":8194:8248   */\n      tag_287\n        /* \"#utility.yul\":8241:8247   */\n      dup5\n        /* \"#utility.yul\":8236:8239   */\n      dup3\n        /* \"#utility.yul\":8231:8234   */\n      dup6\n        /* \"#utility.yul\":8194:8248   */\n      tag_153\n      jump\t// in\n    tag_287:\n        /* \"#utility.yul\":7913:8254   */\n      pop\n        /* \"#utility.yul\":7829:8254   */\n      swap4\n      swap3\n      pop\n      pop\n      pop\n      jump\t// out\n        /* \"#utility.yul\":8274:8614   */\n    tag_161:\n        /* \"#utility.yul\":8330:8335   */\n      0x00\n        /* \"#utility.yul\":8379:8382   */\n      dup3\n        /* \"#utility.yul\":8372:8376   */\n      0x1f\n        /* \"#utility.yul\":8364:8370   */\n      dup4\n        /* \"#utility.yul\":8360:8377   */\n      add\n        /* \"#utility.yul\":8356:8383   */\n      slt\n        /* \"#utility.yul\":8346:8468   */\n      tag_289\n      jumpi\n        /* \"#utility.yul\":8387:8466   */\n      tag_290\n      tag_140\n      jump\t// in\n    tag_290:\n        /* \"#utility.yul\":8346:8468   */\n    tag_289:\n        /* \"#utility.yul\":8504:8510   */\n      dup2\n        /* \"#utility.yul\":8491:8511   */\n      calldataload\n        /* \"#utility.yul\":8529:8608   */\n      tag_291\n        /* \"#utility.yul\":8604:8607   */\n      dup5\n        /* \"#utility.yul\":8596:8602   */\n      dup3\n        /* \"#utility.yul\":8589:8593   */\n      0x20\n        /* \"#utility.yul\":8581:8587   */\n      dup7\n        /* \"#utility.yul\":8577:8594   */\n      add\n        /* \"#utility.yul\":8529:8608   */\n      tag_160\n      jump\t// in\n    tag_291:\n        /* \"#utility.yul\":8520:8608   */\n      swap2\n      pop\n        /* \"#utility.yul\":8336:8614   */\n      pop\n        /* \"#utility.yul\":8274:8614   */\n      swap3\n      swap2\n      pop\n      pop\n      jump\t// out\n        /* \"#utility.yul\":8636:9581   */\n    tag_162:\n        /* \"#utility.yul\":8742:8747   */\n      0x00\n        /* \"#utility.yul\":8767:8858   */\n      tag_293\n        /* \"#utility.yul\":8783:8857   */\n      tag_294\n        /* \"#utility.yul\":8850:8856   */\n      dup5\n        /* \"#utility.yul\":8783:8857   */\n      tag_158\n      jump\t// in\n    tag_294:\n        /* \"#utility.yul\":8767:8858   */\n      tag_143\n      jump\t// in\n    tag_293:\n        /* \"#utility.yul\":8758:8858   */\n      swap1\n      pop\n        /* \"#utility.yul\":8878:8883   */\n      dup1\n        /* \"#utility.yul\":8907:8913   */\n      dup4\n        /* \"#utility.yul\":8900:8905   */\n      dup3\n        /* \"#utility.yul\":8893:8914   */\n      mstore\n        /* \"#utility.yul\":8941:8945   */\n      0x20\n        /* \"#utility.yul\":8934:8939   */\n      dup3\n        /* \"#utility.yul\":8930:8946   */\n      add\n        /* \"#utility.yul\":8923:8946   */\n      swap1\n      pop\n        /* \"#utility.yul\":8994:8998   */\n      0x20\n        /* \"#utility.yul\":8986:8992   */\n      dup5\n        /* \"#utility.yul\":8982:8999   */\n      mul\n        /* \"#utility.yul\":8974:8980   */\n      dup4\n        /* \"#utility.yul\":8970:9000   */\n      add\n        /* \"#utility.yul\":9023:9026   */\n      dup6\n        /* \"#utility.yul\":9015:9021   */\n      dup2\n        /* \"#utility.yul\":9012:9027   */\n      gt\n        /* \"#utility.yul\":9009:9131   */\n      iszero\n      tag_295\n      jumpi\n        /* \"#utility.yul\":9042:9121   */\n      tag_296\n      tag_145\n      jump\t// in\n    tag_296:\n        /* \"#utility.yul\":9009:9131   */\n    tag_295:\n        /* \"#utility.yul\":9157:9163   */\n      dup4\n        /* \"#utility.yul\":9140:9575   */\n    tag_297:\n        /* \"#utility.yul\":9174:9180   */\n      dup2\n        /* \"#utility.yul\":9169:9172   */\n      dup2\n        /* \"#utility.yul\":9166:9181   */\n      lt\n        /* \"#utility.yul\":9140:9575   */\n      iszero\n      tag_299\n      jumpi\n        /* \"#utility.yul\":9263:9266   */\n      dup1\n        /* \"#utility.yul\":9250:9267   */\n      calldataload\n        /* \"#utility.yul\":9299:9317   */\n      0xffffffffffffffff\n        /* \"#utility.yul\":9286:9297   */\n      dup2\n        /* \"#utility.yul\":9283:9318   */\n      gt\n        /* \"#utility.yul\":9280:9402   */\n      iszero\n      tag_300\n      jumpi\n        /* \"#utility.yul\":9321:9400   */\n      tag_301\n      tag_140\n      jump\t// in\n    tag_301:\n        /* \"#utility.yul\":9280:9402   */\n    tag_300:\n        /* \"#utility.yul\":9445:9456   */\n      dup1\n        /* \"#utility.yul\":9437:9443   */\n      dup7\n        /* \"#utility.yul\":9433:9457   */\n      add\n        /* \"#utility.yul\":9483:9530   */\n      tag_302\n        /* \"#utility.yul\":9526:9529   */\n      dup10\n        /* \"#utility.yul\":9514:9524   */\n      dup3\n        /* \"#utility.yul\":9483:9530   */\n      tag_161\n      jump\t// in\n    tag_302:\n        /* \"#utility.yul\":9478:9481   */\n      dup6\n        /* \"#utility.yul\":9471:9531   */\n      mstore\n        /* \"#utility.yul\":9560:9564   */\n      0x20\n        /* \"#utility.yul\":9555:9558   */\n      dup6\n        /* \"#utility.yul\":9551:9565   */\n      add\n        /* \"#utility.yul\":9544:9565   */\n      swap5\n      pop\n        /* \"#utility.yul\":9216:9575   */\n      pop\n      pop\n        /* \"#utility.yul\":9200:9204   */\n      0x20\n        /* \"#utility.yul\":9195:9198   */\n      dup2\n        /* \"#utility.yul\":9191:9205   */\n      add\n        /* \"#utility.yul\":9184:9205   */\n      swap1\n      pop\n        /* \"#utility.yul\":9140:9575   */\n      jump(tag_297)\n    tag_299:\n        /* \"#utility.yul\":9144:9165   */\n      pop\n        /* \"#utility.yul\":8748:9581   */\n      pop\n      pop\n        /* \"#utility.yul\":8636:9581   */\n      swap4\n      swap3\n      pop\n      pop\n      pop\n      jump\t// out\n        /* \"#utility.yul\":9603:9993   */\n    tag_163:\n        /* \"#utility.yul\":9684:9689   */\n      0x00\n        /* \"#utility.yul\":9733:9736   */\n      dup3\n        /* \"#utility.yul\":9726:9730   */\n      0x1f\n        /* \"#utility.yul\":9718:9724   */\n      dup4\n        /* \"#utility.yul\":9714:9731   */\n      add\n        /* \"#utility.yul\":9710:9737   */\n      slt\n        /* \"#utility.yul\":9700:9822   */\n      tag_304\n      jumpi\n        /* \"#utility.yul\":9741:9820   */\n      tag_305\n      tag_140\n      jump\t// in\n    tag_305:\n        /* \"#utility.yul\":9700:9822   */\n    tag_304:\n        /* \"#utility.yul\":9858:9864   */\n      dup2\n        /* \"#utility.yul\":9845:9865   */\n      calldataload\n        /* \"#utility.yul\":9883:9987   */\n      tag_306\n        /* \"#utility.yul\":9983:9986   */\n      dup5\n        /* \"#utility.yul\":9975:9981   */\n      dup3\n        /* \"#utility.yul\":9968:9972   */\n      0x20\n        /* \"#utility.yul\":9960:9966   */\n      dup7\n        /* \"#utility.yul\":9956:9973   */\n      add\n        /* \"#utility.yul\":9883:9987   */\n      tag_162\n      jump\t// in\n    tag_306:\n        /* \"#utility.yul\":9874:9987   */\n      swap2\n      pop\n        /* \"#utility.yul\":9690:9993   */\n      pop\n        /* \"#utility.yul\":9603:9993   */\n      swap3\n      swap2\n      pop\n      pop\n      jump\t// out\n        /* \"#utility.yul\":9999:11286   */\n    tag_23:\n        /* \"#utility.yul\":10170:10176   */\n      0x00\n        /* \"#utility.yul\":10178:10184   */\n      dup1\n        /* \"#utility.yul\":10186:10192   */\n      0x00\n        /* \"#utility.yul\":10235:10237   */\n      0x60\n        /* \"#utility.yul\":10223:10232   */\n      dup5\n        /* \"#utility.yul\":10214:10221   */\n      dup7\n        /* \"#utility.yul\":10210:10233   */\n      sub\n        /* \"#utility.yul\":10206:10238   */\n      slt\n        /* \"#utility.yul\":10203:10322   */\n      iszero\n      tag_308\n      jumpi\n        /* \"#utility.yul\":10241:10320   */\n      tag_309\n      tag_138\n      jump\t// in\n    tag_309:\n        /* \"#utility.yul\":10203:10322   */\n    tag_308:\n        /* \"#utility.yul\":10389:10390   */\n      0x00\n        /* \"#utility.yul\":10378:10387   */\n      dup5\n        /* \"#utility.yul\":10374:10391   */\n      add\n        /* \"#utility.yul\":10361:10392   */\n      calldataload\n        /* \"#utility.yul\":10419:10437   */\n      0xffffffffffffffff\n        /* \"#utility.yul\":10411:10417   */\n      dup2\n        /* \"#utility.yul\":10408:10438   */\n      gt\n        /* \"#utility.yul\":10405:10522   */\n      iszero\n      tag_310\n      jumpi\n        /* \"#utility.yul\":10441:10520   */\n      tag_311\n      tag_139\n      jump\t// in\n    tag_311:\n        /* \"#utility.yul\":10405:10522   */\n    tag_310:\n        /* \"#utility.yul\":10546:10624   */\n      tag_312\n        /* \"#utility.yul\":10616:10623   */\n      dup7\n        /* \"#utility.yul\":10607:10613   */\n      dup3\n        /* \"#utility.yul\":10596:10605   */\n      dup8\n        /* \"#utility.yul\":10592:10614   */\n      add\n        /* \"#utility.yul\":10546:10624   */\n      tag_149\n      jump\t// in\n    tag_312:\n        /* \"#utility.yul\":10536:10624   */\n      swap4\n      pop\n        /* \"#utility.yul\":10332:10634   */\n      pop\n        /* \"#utility.yul\":10701:10703   */\n      0x20\n        /* \"#utility.yul\":10690:10699   */\n      dup5\n        /* \"#utility.yul\":10686:10704   */\n      add\n        /* \"#utility.yul\":10673:10705   */\n      calldataload\n        /* \"#utility.yul\":10732:10750   */\n      0xffffffffffffffff\n        /* \"#utility.yul\":10724:10730   */\n      dup2\n        /* \"#utility.yul\":10721:10751   */\n      gt\n        /* \"#utility.yul\":10718:10835   */\n      iszero\n      tag_313\n      jumpi\n        /* \"#utility.yul\":10754:10833   */\n      tag_314\n      tag_139\n      jump\t// in\n    tag_314:\n        /* \"#utility.yul\":10718:10835   */\n    tag_313:\n        /* \"#utility.yul\":10859:10946   */\n      tag_315\n        /* \"#utility.yul\":10938:10945   */\n      dup7\n        /* \"#utility.yul\":10929:10935   */\n      dup3\n        /* \"#utility.yul\":10918:10927   */\n      dup8\n        /* \"#utility.yul\":10914:10936   */\n      add\n        /* \"#utility.yul\":10859:10946   */\n      tag_157\n      jump\t// in\n    tag_315:\n        /* \"#utility.yul\":10849:10946   */\n      swap3\n      pop\n        /* \"#utility.yul\":10644:10956   */\n      pop\n        /* \"#utility.yul\":11023:11025   */\n      0x40\n        /* \"#utility.yul\":11012:11021   */\n      dup5\n        /* \"#utility.yul\":11008:11026   */\n      add\n        /* \"#utility.yul\":10995:11027   */\n      calldataload\n        /* \"#utility.yul\":11054:11072   */\n      0xffffffffffffffff\n        /* \"#utility.yul\":11046:11052   */\n      dup2\n        /* \"#utility.yul\":11043:11073   */\n      gt\n        /* \"#utility.yul\":11040:11157   */\n      iszero\n      tag_316\n      jumpi\n        /* \"#utility.yul\":11076:11155   */\n      tag_317\n      tag_139\n      jump\t// in\n    tag_317:\n        /* \"#utility.yul\":11040:11157   */\n    tag_316:\n        /* \"#utility.yul\":11181:11269   */\n      tag_318\n        /* \"#utility.yul\":11261:11268   */\n      dup7\n        /* \"#utility.yul\":11252:11258   */\n      dup3\n        /* \"#utility.yul\":11241:11250   */\n      dup8\n        /* \"#utility.yul\":11237:11259   */\n      add\n        /* \"#utility.yul\":11181:11269   */\n      tag_163\n      jump\t// in\n    tag_318:\n        /* \"#utility.yul\":11171:11269   */\n      swap2\n      pop\n        /* \"#utility.yul\":10966:11279   */\n      pop\n        /* \"#utility.yul\":9999:11286   */\n      swap3\n      pop\n      swap3\n      pop\n      swap3\n      jump\t// out\n        /* \"#utility.yul\":11292:12269   */\n    tag_28:\n        /* \"#utility.yul\":11388:11394   */\n      0x00\n        /* \"#utility.yul\":11396:11402   */\n      dup1\n        /* \"#utility.yul\":11404:11410   */\n      0x00\n        /* \"#utility.yul\":11453:11455   */\n      0x60\n        /* \"#utility.yul\":11441:11450   */\n      dup5\n        /* \"#utility.yul\":11432:11439   */\n      dup7\n        /* \"#utility.yul\":11428:11451   */\n      sub\n        /* \"#utility.yul\":11424:11456   */\n      slt\n        /* \"#utility.yul\":11421:11540   */\n      iszero\n      tag_320\n      jumpi\n        /* \"#utility.yul\":11459:11538   */\n      tag_321\n      tag_138\n      jump\t// in\n    tag_321:\n        /* \"#utility.yul\":11421:11540   */\n    tag_320:\n        /* \"#utility.yul\":11579:11580   */\n      0x00\n        /* \"#utility.yul\":11604:11657   */\n      tag_322\n        /* \"#utility.yul\":11649:11656   */\n      dup7\n        /* \"#utility.yul\":11640:11646   */\n      dup3\n        /* \"#utility.yul\":11629:11638   */\n      dup8\n        /* \"#utility.yul\":11625:11647   */\n      add\n        /* \"#utility.yul\":11604:11657   */\n      tag_147\n      jump\t// in\n    tag_322:\n        /* \"#utility.yul\":11594:11657   */\n      swap4\n      pop\n        /* \"#utility.yul\":11550:11667   */\n      pop\n        /* \"#utility.yul\":11734:11736   */\n      0x20\n        /* \"#utility.yul\":11723:11732   */\n      dup5\n        /* \"#utility.yul\":11719:11737   */\n      add\n        /* \"#utility.yul\":11706:11738   */\n      calldataload\n        /* \"#utility.yul\":11765:11783   */\n      0xffffffffffffffff\n        /* \"#utility.yul\":11757:11763   */\n      dup2\n        /* \"#utility.yul\":11754:11784   */\n      gt\n        /* \"#utility.yul\":11751:11868   */\n      iszero\n      tag_323\n      jumpi\n        /* \"#utility.yul\":11787:11866   */\n      tag_324\n      tag_139\n      jump\t// in\n    tag_324:\n        /* \"#utility.yul\":11751:11868   */\n    tag_323:\n        /* \"#utility.yul\":11892:11955   */\n      tag_325\n        /* \"#utility.yul\":11947:11954   */\n      dup7\n        /* \"#utility.yul\":11938:11944   */\n      dup3\n        /* \"#utility.yul\":11927:11936   */\n      dup8\n        /* \"#utility.yul\":11923:11945   */\n      add\n        /* \"#utility.yul\":11892:11955   */\n      tag_161\n      jump\t// in\n    tag_325:\n        /* \"#utility.yul\":11882:11955   */\n      swap3\n      pop\n        /* \"#utility.yul\":11677:11965   */\n      pop\n        /* \"#utility.yul\":12032:12034   */\n      0x40\n        /* \"#utility.yul\":12021:12030   */\n      dup5\n        /* \"#utility.yul\":12017:12035   */\n      add\n        /* \"#utility.yul\":12004:12036   */\n      calldataload\n        /* \"#utility.yul\":12063:12081   */\n      0xffffffffffffffff\n        /* \"#utility.yul\":12055:12061   */\n      dup2\n        /* \"#utility.yul\":12052:12082   */\n      gt\n        /* \"#utility.yul\":12049:12166   */\n      iszero\n      tag_326\n      jumpi\n        /* \"#utility.yul\":12085:12164   */\n      tag_327\n      tag_139\n      jump\t// in\n    tag_327:\n        /* \"#utility.yul\":12049:12166   */\n    tag_326:\n        /* \"#utility.yul\":12190:12252   */\n      tag_328\n        /* \"#utility.yul\":12244:12251   */\n      dup7\n        /* \"#utility.yul\":12235:12241   */\n      dup3\n        /* \"#utility.yul\":12224:12233   */\n      dup8\n        /* \"#utility.yul\":12220:12242   */\n      add\n        /* \"#utility.yul\":12190:12252   */\n      tag_155\n      jump\t// in\n    tag_328:\n        /* \"#utility.yul\":12180:12252   */\n      swap2\n      pop\n        /* \"#utility.yul\":11975:12262   */\n      pop\n        /* \"#utility.yul\":11292:12269   */\n      swap3\n      pop\n      swap3\n      pop\n      swap3\n      jump\t// out\n        /* \"#utility.yul\":12275:12352   */\n    tag_164:\n        /* \"#utility.yul\":12312:12319   */\n      0x00\n        /* \"#utility.yul\":12341:12346   */\n      dup2\n        /* \"#utility.yul\":12330:12346   */\n      swap1\n      pop\n        /* \"#utility.yul\":12275:12352   */\n      swap2\n      swap1\n      pop\n      jump\t// out\n        /* \"#utility.yul\":12358:12476   */\n    tag_165:\n        /* \"#utility.yul\":12445:12469   */\n      tag_331\n        /* \"#utility.yul\":12463:12468   */\n      dup2\n        /* \"#utility.yul\":12445:12469   */\n      tag_164\n      jump\t// in\n    tag_331:\n        /* \"#utility.yul\":12440:12443   */\n      dup3\n        /* \"#utility.yul\":12433:12470   */\n      mstore\n        /* \"#utility.yul\":12358:12476   */\n      pop\n      pop\n      jump\t// out\n        /* \"#utility.yul\":12482:12704   */\n    tag_34:\n        /* \"#utility.yul\":12575:12579   */\n      0x00\n        /* \"#utility.yul\":12613:12615   */\n      0x20\n        /* \"#utility.yul\":12602:12611   */\n      dup3\n        /* \"#utility.yul\":12598:12616   */\n      add\n        /* \"#utility.yul\":12590:12616   */\n      swap1\n      pop\n        /* \"#utility.yul\":12626:12697   */\n      tag_333\n        /* \"#utility.yul\":12694:12695   */\n      0x00\n        /* \"#utility.yul\":12683:12692   */\n      dup4\n        /* \"#utility.yul\":12679:12696   */\n      add\n        /* \"#utility.yul\":12670:12676   */\n      dup5\n        /* \"#utility.yul\":12626:12697   */\n      tag_165\n      jump\t// in\n    tag_333:\n        /* \"#utility.yul\":12482:12704   */\n      swap3\n      swap2\n      pop\n      pop\n      jump\t// out\n        /* \"#utility.yul\":12710:12848   */\n    tag_166:\n        /* \"#utility.yul\":12791:12823   */\n      tag_335\n        /* \"#utility.yul\":12817:12822   */\n      dup2\n        /* \"#utility.yul\":12791:12823   */\n      tag_135\n      jump\t// in\n    tag_335:\n        /* \"#utility.yul\":12784:12789   */\n      dup2\n        /* \"#utility.yul\":12781:12824   */\n      eq\n        /* \"#utility.yul\":12771:12842   */\n      tag_336\n      jumpi\n        /* \"#utility.yul\":12838:12839   */\n      0x00\n        /* \"#utility.yul\":12835:12836   */\n      dup1\n        /* \"#utility.yul\":12828:12840   */\n      revert\n        /* \"#utility.yul\":12771:12842   */\n    tag_336:\n        /* \"#utility.yul\":12710:12848   */\n      pop\n      jump\t// out\n        /* \"#utility.yul\":12854:13009   */\n    tag_167:\n        /* \"#utility.yul\":12908:12913   */\n      0x00\n        /* \"#utility.yul\":12946:12952   */\n      dup2\n        /* \"#utility.yul\":12933:12953   */\n      calldataload\n        /* \"#utility.yul\":12924:12953   */\n      swap1\n      pop\n        /* \"#utility.yul\":12962:13003   */\n      tag_338\n        /* \"#utility.yul\":12997:13002   */\n      dup2\n        /* \"#utility.yul\":12962:13003   */\n      tag_166\n      jump\t// in\n    tag_338:\n        /* \"#utility.yul\":12854:13009   */\n      swap3\n      swap2\n      pop\n      pop\n      jump\t// out\n        /* \"#utility.yul\":13015:13360   */\n    tag_38:\n        /* \"#utility.yul\":13082:13088   */\n      0x00\n        /* \"#utility.yul\":13131:13133   */\n      0x20\n        /* \"#utility.yul\":13119:13128   */\n      dup3\n        /* \"#utility.yul\":13110:13117   */\n      dup5\n        /* \"#utility.yul\":13106:13129   */\n      sub\n        /* \"#utility.yul\":13102:13134   */\n      slt\n        /* \"#utility.yul\":13099:13218   */\n      iszero\n      tag_340\n      jumpi\n        /* \"#utility.yul\":13137:13216   */\n      tag_341\n      tag_138\n      jump\t// in\n    tag_341:\n        /* \"#utility.yul\":13099:13218   */\n    tag_340:\n        /* \"#utility.yul\":13257:13258   */\n      0x00\n        /* \"#utility.yul\":13282:13343   */\n      tag_342\n        /* \"#utility.yul\":13335:13342   */\n      dup5\n        /* \"#utility.yul\":13326:13332   */\n      dup3\n        /* \"#utility.yul\":13315:13324   */\n      dup6\n        /* \"#utility.yul\":13311:13333   */\n      add\n        /* \"#utility.yul\":13282:13343   */\n      tag_167\n      jump\t// in\n    tag_342:\n        /* \"#utility.yul\":13272:13343   */\n      swap2\n      pop\n        /* \"#utility.yul\":13228:13353   */\n      pop\n        /* \"#utility.yul\":13015:13360   */\n      swap3\n      swap2\n      pop\n      pop\n      jump\t// out\n        /* \"#utility.yul\":13366:13535   */\n    tag_168:\n        /* \"#utility.yul\":13450:13461   */\n      0x00\n        /* \"#utility.yul\":13484:13490   */\n      dup3\n        /* \"#utility.yul\":13479:13482   */\n      dup3\n        /* \"#utility.yul\":13472:13491   */\n      mstore\n        /* \"#utility.yul\":13524:13528   */\n      0x20\n        /* \"#utility.yul\":13519:13522   */\n      dup3\n        /* \"#utility.yul\":13515:13529   */\n      add\n        /* \"#utility.yul\":13500:13529   */\n      swap1\n      pop\n        /* \"#utility.yul\":13366:13535   */\n      swap3\n      swap2\n      pop\n      pop\n      jump\t// out\n        /* \"#utility.yul\":13541:13705   */\n    tag_169:\n        /* \"#utility.yul\":13681:13697   */\n      0x496e76616c69642063616c6c6572000000000000000000000000000000000000\n        /* \"#utility.yul\":13677:13678   */\n      0x00\n        /* \"#utility.yul\":13669:13675   */\n      dup3\n        /* \"#utility.yul\":13665:13679   */\n      add\n        /* \"#utility.yul\":13658:13698   */\n      mstore\n        /* \"#utility.yul\":13541:13705   */\n      pop\n      jump\t// out\n        /* \"#utility.yul\":13711:14077   */\n    tag_170:\n        /* \"#utility.yul\":13853:13856   */\n      0x00\n        /* \"#utility.yul\":13874:13941   */\n      tag_346\n        /* \"#utility.yul\":13938:13940   */\n      0x0e\n        /* \"#utility.yul\":13933:13936   */\n      dup4\n        /* \"#utility.yul\":13874:13941   */\n      tag_168\n      jump\t// in\n    tag_346:\n        /* \"#utility.yul\":13867:13941   */\n      swap2\n      pop\n        /* \"#utility.yul\":13950:14043   */\n      tag_347\n        /* \"#utility.yul\":14039:14042   */\n      dup3\n        /* \"#utility.yul\":13950:14043   */\n      tag_169\n      jump\t// in\n    tag_347:\n        /* \"#utility.yul\":14068:14070   */\n      0x20\n        /* \"#utility.yul\":14063:14066   */\n      dup3\n        /* \"#utility.yul\":14059:14071   */\n      add\n        /* \"#utility.yul\":14052:14071   */\n      swap1\n      pop\n        /* \"#utility.yul\":13711:14077   */\n      swap2\n      swap1\n      pop\n      jump\t// out\n        /* \"#utility.yul\":14083:14502   */\n    tag_43:\n        /* \"#utility.yul\":14249:14253   */\n      0x00\n        /* \"#utility.yul\":14287:14289   */\n      0x20\n        /* \"#utility.yul\":14276:14285   */\n      dup3\n        /* \"#utility.yul\":14272:14290   */\n      add\n        /* \"#utility.yul\":14264:14290   */\n      swap1\n      pop\n        /* \"#utility.yul\":14336:14345   */\n      dup2\n        /* \"#utility.yul\":14330:14334   */\n      dup2\n        /* \"#utility.yul\":14326:14346   */\n      sub\n        /* \"#utility.yul\":14322:14323   */\n      0x00\n        /* \"#utility.yul\":14311:14320   */\n      dup4\n        /* \"#utility.yul\":14307:14324   */\n      add\n        /* \"#utility.yul\":14300:14347   */\n      mstore\n        /* \"#utility.yul\":14364:14495   */\n      tag_349\n        /* \"#utility.yul\":14490:14494   */\n      dup2\n        /* \"#utility.yul\":14364:14495   */\n      tag_170\n      jump\t// in\n    tag_349:\n        /* \"#utility.yul\":14356:14495   */\n      swap1\n      pop\n        /* \"#utility.yul\":14083:14502   */\n      swap2\n      swap1\n      pop\n      jump\t// out\n        /* \"#utility.yul\":14508:14671   */\n    tag_171:\n        /* \"#utility.yul\":14648:14663   */\n      0x496e76616c696420696e70757400000000000000000000000000000000000000\n        /* \"#utility.yul\":14644:14645   */\n      0x00\n        /* \"#utility.yul\":14636:14642   */\n      dup3\n        /* \"#utility.yul\":14632:14646   */\n      add\n        /* \"#utility.yul\":14625:14664   */\n      mstore\n        /* \"#utility.yul\":14508:14671   */\n      pop\n      jump\t// out\n        /* \"#utility.yul\":14677:15043   */\n    tag_172:\n        /* \"#utility.yul\":14819:14822   */\n      0x00\n        /* \"#utility.yul\":14840:14907   */\n      tag_352\n        /* \"#utility.yul\":14904:14906   */\n      0x0d\n        /* \"#utility.yul\":14899:14902   */\n      dup4\n        /* \"#utility.yul\":14840:14907   */\n      tag_168\n      jump\t// in\n    tag_352:\n        /* \"#utility.yul\":14833:14907   */\n      swap2\n      pop\n        /* \"#utility.yul\":14916:15009   */\n      tag_353\n        /* \"#utility.yul\":15005:15008   */\n      dup3\n        /* \"#utility.yul\":14916:15009   */\n      tag_171\n      jump\t// in\n    tag_353:\n        /* \"#utility.yul\":15034:15036   */\n      0x20\n        /* \"#utility.yul\":15029:15032   */\n      dup3\n        /* \"#utility.yul\":15025:15037   */\n      add\n        /* \"#utility.yul\":15018:15037   */\n      swap1\n      pop\n        /* \"#utility.yul\":14677:15043   */\n      swap2\n      swap1\n      pop\n      jump\t// out\n        /* \"#utility.yul\":15049:15468   */\n    tag_47:\n        /* \"#utility.yul\":15215:15219   */\n      0x00\n        /* \"#utility.yul\":15253:15255   */\n      0x20\n        /* \"#utility.yul\":15242:15251   */\n      dup3\n        /* \"#utility.yul\":15238:15256   */\n      add\n        /* \"#utility.yul\":15230:15256   */\n      swap1\n      pop\n        /* \"#utility.yul\":15302:15311   */\n      dup2\n        /* \"#utility.yul\":15296:15300   */\n      dup2\n        /* \"#utility.yul\":15292:15312   */\n      sub\n        /* \"#utility.yul\":15288:15289   */\n      0x00\n        /* \"#utility.yul\":15277:15286   */\n      dup4\n        /* \"#utility.yul\":15273:15290   */\n      add\n        /* \"#utility.yul\":15266:15313   */\n      mstore\n        /* \"#utility.yul\":15330:15461   */\n      tag_355\n        /* \"#utility.yul\":15456:15460   */\n      dup2\n        /* \"#utility.yul\":15330:15461   */\n      tag_172\n      jump\t// in\n    tag_355:\n        /* \"#utility.yul\":15322:15461   */\n      swap1\n      pop\n        /* \"#utility.yul\":15049:15468   */\n      swap2\n      swap1\n      pop\n      jump\t// out\n        /* \"#utility.yul\":15474:15644   */\n    tag_173:\n        /* \"#utility.yul\":15614:15636   */\n      0x42617463682073697a6520746f6f206c61726765000000000000000000000000\n        /* \"#utility.yul\":15610:15611   */\n      0x00\n        /* \"#utility.yul\":15602:15608   */\n      dup3\n        /* \"#utility.yul\":15598:15612   */\n      add\n        /* \"#utility.yul\":15591:15637   */\n      mstore\n        /* \"#utility.yul\":15474:15644   */\n      pop\n      jump\t// out\n        /* \"#utility.yul\":15650:16016   */\n    tag_174:\n        /* \"#utility.yul\":15792:15795   */\n      0x00\n        /* \"#utility.yul\":15813:15880   */\n      tag_358\n        /* \"#utility.yul\":15877:15879   */\n      0x14\n        /* \"#utility.yul\":15872:15875   */\n      dup4\n        /* \"#utility.yul\":15813:15880   */\n      tag_168\n      jump\t// in\n    tag_358:\n        /* \"#utility.yul\":15806:15880   */\n      swap2\n      pop\n        /* \"#utility.yul\":15889:15982   */\n      tag_359\n        /* \"#utility.yul\":15978:15981   */\n      dup3\n        /* \"#utility.yul\":15889:15982   */\n      tag_173\n      jump\t// in\n    tag_359:\n        /* \"#utility.yul\":16007:16009   */\n      0x20\n        /* \"#utility.yul\":16002:16005   */\n      dup3\n        /* \"#utility.yul\":15998:16010   */\n      add\n        /* \"#utility.yul\":15991:16010   */\n      swap1\n      pop\n        /* \"#utility.yul\":15650:16016   */\n      swap2\n      swap1\n      pop\n      jump\t// out\n        /* \"#utility.yul\":16022:16441   */\n    tag_50:\n        /* \"#utility.yul\":16188:16192   */\n      0x00\n        /* \"#utility.yul\":16226:16228   */\n      0x20\n        /* \"#utility.yul\":16215:16224   */\n      dup3\n        /* \"#utility.yul\":16211:16229   */\n      add\n        /* \"#utility.yul\":16203:16229   */\n      swap1\n      pop\n        /* \"#utility.yul\":16275:16284   */\n      dup2\n        /* \"#utility.yul\":16269:16273   */\n      dup2\n        /* \"#utility.yul\":16265:16285   */\n      sub\n        /* \"#utility.yul\":16261:16262   */\n      0x00\n        /* \"#utility.yul\":16250:16259   */\n      dup4\n        /* \"#utility.yul\":16246:16263   */\n      add\n        /* \"#utility.yul\":16239:16286   */\n      mstore\n        /* \"#utility.yul\":16303:16434   */\n      tag_361\n        /* \"#utility.yul\":16429:16433   */\n      dup2\n        /* \"#utility.yul\":16303:16434   */\n      tag_174\n      jump\t// in\n    tag_361:\n        /* \"#utility.yul\":16295:16434   */\n      swap1\n      pop\n        /* \"#utility.yul\":16022:16441   */\n      swap2\n      swap1\n      pop\n      jump\t// out\n        /* \"#utility.yul\":16447:16627   */\n    tag_57:\n        /* \"#utility.yul\":16495:16572   */\n      0x4e487b7100000000000000000000000000000000000000000000000000000000\n        /* \"#utility.yul\":16492:16493   */\n      0x00\n        /* \"#utility.yul\":16485:16573   */\n      mstore\n        /* \"#utility.yul\":16592:16596   */\n      0x32\n        /* \"#utility.yul\":16589:16590   */\n      0x04\n        /* \"#utility.yul\":16582:16597   */\n      mstore\n        /* \"#utility.yul\":16616:16620   */\n      0x24\n        /* \"#utility.yul\":16613:16614   */\n      0x00\n        /* \"#utility.yul\":16606:16621   */\n      revert\n        /* \"#utility.yul\":16633:16813   */\n    tag_175:\n        /* \"#utility.yul\":16681:16758   */\n      0x4e487b7100000000000000000000000000000000000000000000000000000000\n        /* \"#utility.yul\":16678:16679   */\n      0x00\n        /* \"#utility.yul\":16671:16759   */\n      mstore\n        /* \"#utility.yul\":16778:16782   */\n      0x11\n        /* \"#utility.yul\":16775:16776   */\n      0x04\n        /* \"#utility.yul\":16768:16783   */\n      mstore\n        /* \"#utility.yul\":16802:16806   */\n      0x24\n        /* \"#utility.yul\":16799:16800   */\n      0x00\n        /* \"#utility.yul\":16792:16807   */\n      revert\n        /* \"#utility.yul\":16819:17052   */\n    tag_65:\n        /* \"#utility.yul\":16858:16861   */\n      0x00\n        /* \"#utility.yul\":16881:16905   */\n      tag_365\n        /* \"#utility.yul\":16899:16904   */\n      dup3\n        /* \"#utility.yul\":16881:16905   */\n      tag_164\n      jump\t// in\n    tag_365:\n        /* \"#utility.yul\":16872:16905   */\n      swap2\n      pop\n        /* \"#utility.yul\":16927:16993   */\n      0xffffffffffffffffffffffffffffffffffffffffffffffffffffffffffffffff\n        /* \"#utility.yul\":16920:16925   */\n      dup3\n        /* \"#utility.yul\":16917:16994   */\n      sub\n        /* \"#utility.yul\":16914:17017   */\n      tag_366\n      jumpi\n        /* \"#utility.yul\":16997:17015   */\n      tag_367\n      tag_175\n      jump\t// in\n    tag_367:\n        /* \"#utility.yul\":16914:17017   */\n    tag_366:\n        /* \"#utility.yul\":17044:17045   */\n      0x01\n        /* \"#utility.yul\":17037:17042   */\n      dup3\n        /* \"#utility.yul\":17033:17046   */\n      add\n        /* \"#utility.yul\":17026:17046   */\n      swap1\n      pop\n        /* \"#utility.yul\":16819:17052   */\n      swap2\n      swap1\n      pop\n      jump\t// out\n        /* \"#utility.yul\":17058:17135   */\n    tag_176:\n        /* \"#utility.yul\":17095:17102   */\n      0x00\n        /* \"#utility.yul\":17124:17129   */\n      dup2\n        /* \"#utility.yul\":17113:17129   */\n      swap1\n      pop\n        /* \"#utility.yul\":17058:17135   */\n      swap2\n      swap1\n      pop\n      jump\t// out\n        /* \"#utility.yul\":17141:17259   */\n    tag_177:\n        /* \"#utility.yul\":17228:17252   */\n      tag_370\n        /* \"#utility.yul\":17246:17251   */\n      dup2\n        /* \"#utility.yul\":17228:17252   */\n      tag_176\n      jump\t// in\n    tag_370:\n        /* \"#utility.yul\":17223:17226   */\n      dup3\n        /* \"#utility.yul\":17216:17253   */\n      mstore\n        /* \"#utility.yul\":17141:17259   */\n      pop\n      pop\n      jump\t// out\n        /* \"#utility.yul\":17265:17351   */\n    tag_178:\n        /* \"#utility.yul\":17300:17307   */\n      0x00\n        /* \"#utility.yul\":17340:17344   */\n      0xff\n        /* \"#utility.yul\":17333:17338   */\n      dup3\n        /* \"#utility.yul\":17329:17345   */\n      and\n        /* \"#utility.yul\":17318:17345   */\n      swap1\n      pop\n        /* \"#utility.yul\":17265:17351   */\n      swap2\n      swap1\n      pop\n      jump\t// out\n        /* \"#utility.yul\":17357:17469   */\n    tag_179:\n        /* \"#utility.yul\":17440:17462   */\n      tag_373\n        /* \"#utility.yul\":17456:17461   */\n      dup2\n        /* \"#utility.yul\":17440:17462   */\n      tag_178\n      jump\t// in\n    tag_373:\n        /* \"#utility.yul\":17435:17438   */\n      dup3\n        /* \"#utility.yul\":17428:17463   */\n      mstore\n        /* \"#utility.yul\":17357:17469   */\n      pop\n      pop\n      jump\t// out\n        /* \"#utility.yul\":17475:18020   */\n    tag_72:\n        /* \"#utility.yul\":17648:17652   */\n      0x00\n        /* \"#utility.yul\":17686:17689   */\n      0x80\n        /* \"#utility.yul\":17675:17684   */\n      dup3\n        /* \"#utility.yul\":17671:17690   */\n      add\n        /* \"#utility.yul\":17663:17690   */\n      swap1\n      pop\n        /* \"#utility.yul\":17700:17771   */\n      tag_375\n        /* \"#utility.yul\":17768:17769   */\n      0x00\n        /* \"#utility.yul\":17757:17766   */\n      dup4\n        /* \"#utility.yul\":17753:17770   */\n      add\n        /* \"#utility.yul\":17744:17750   */\n      dup8\n        /* \"#utility.yul\":17700:17771   */\n      tag_177\n      jump\t// in\n    tag_375:\n        /* \"#utility.yul\":17781:17849   */\n      tag_376\n        /* \"#utility.yul\":17845:17847   */\n      0x20\n        /* \"#utility.yul\":17834:17843   */\n      dup4\n        /* \"#utility.yul\":17830:17848   */\n      add\n        /* \"#utility.yul\":17821:17827   */\n      dup7\n        /* \"#utility.yul\":17781:17849   */\n      tag_179\n      jump\t// in\n    tag_376:\n        /* \"#utility.yul\":17859:17931   */\n      tag_377\n        /* \"#utility.yul\":17927:17929   */\n      0x40\n        /* \"#utility.yul\":17916:17925   */\n      dup4\n        /* \"#utility.yul\":17912:17930   */\n      add\n        /* \"#utility.yul\":17903:17909   */\n      dup6\n        /* \"#utility.yul\":17859:17931   */\n      tag_177\n      jump\t// in\n    tag_377:\n        /* \"#utility.yul\":17941:18013   */\n      tag_378\n        /* \"#utility.yul\":18009:18011   */\n      0x60\n        /* \"#utility.yul\":17998:18007   */\n      dup4\n        /* \"#utility.yul\":17994:18012   */\n      add\n        /* \"#utility.yul\":17985:17991   */\n      dup5\n        /* \"#utility.yul\":17941:18013   */\n      tag_177\n      jump\t// in\n    tag_378:\n        /* \"#utility.yul\":17475:18020   */\n      swap6\n      swap5\n      pop\n      pop\n      pop\n      pop\n      pop\n      jump\t// out\n        /* \"#utility.yul\":18026:18193   */\n    tag_180:\n        /* \"#utility.yul\":18166:18185   */\n      0x496e76616c6964207369676e6174757265000000000000000000000000000000\n        /* \"#utility.yul\":18162:18163   */\n      0x00\n        /* \"#utility.yul\":18154:18160   */\n      dup3\n        /* \"#utility.yul\":18150:18164   */\n      add\n        /* \"#utility.yul\":18143:18186   */\n      mstore\n        /* \"#utility.yul\":18026:18193   */\n      pop\n      jump\t// out\n        /* \"#utility.yul\":18199:18565   */\n    tag_181:\n        /* \"#utility.yul\":18341:18344   */\n      0x00\n        /* \"#utility.yul\":18362:18429   */\n      tag_381\n        /* \"#utility.yul\":18426:18428   */\n      0x11\n        /* \"#utility.yul\":18421:18424   */\n      dup4\n        /* \"#utility.yul\":18362:18429   */\n      tag_168\n      jump\t// in\n    tag_381:\n        /* \"#utility.yul\":18355:18429   */\n      swap2\n      pop\n        /* \"#utility.yul\":18438:18531   */\n      tag_382\n        /* \"#utility.yul\":18527:18530   */\n      dup3\n        /* \"#utility.yul\":18438:18531   */\n      tag_180\n      jump\t// in\n    tag_382:\n        /* \"#utility.yul\":18556:18558   */\n      0x20\n        /* \"#utility.yul\":18551:18554   */\n      dup3\n        /* \"#utility.yul\":18547:18559   */\n      add\n        /* \"#utility.yul\":18540:18559   */\n      swap1\n      pop\n        /* \"#utility.yul\":18199:18565   */\n      swap2\n      swap1\n      pop\n      jump\t// out\n        /* \"#utility.yul\":18571:18990   */\n    tag_77:\n        /* \"#utility.yul\":18737:18741   */\n      0x00\n        /* \"#utility.yul\":18775:18777   */\n      0x20\n        /* \"#utility.yul\":18764:18773   */\n      dup3\n        /* \"#utility.yul\":18760:18778   */\n      add\n        /* \"#utility.yul\":18752:18778   */\n      swap1\n      pop\n        /* \"#utility.yul\":18824:18833   */\n      dup2\n        /* \"#utility.yul\":18818:18822   */\n      dup2\n        /* \"#utility.yul\":18814:18834   */\n      sub\n        /* \"#utility.yul\":18810:18811   */\n      0x00\n        /* \"#utility.yul\":18799:18808   */\n      dup4\n        /* \"#utility.yul\":18795:18812   */\n      add\n        /* \"#utility.yul\":18788:18835   */\n      mstore\n        /* \"#utility.yul\":18852:18983   */\n      tag_384\n        /* \"#utility.yul\":18978:18982   */\n      dup2\n        /* \"#utility.yul\":18852:18983   */\n      tag_181\n      jump\t// in\n    tag_384:\n        /* \"#utility.yul\":18844:18983   */\n      swap1\n      pop\n        /* \"#utility.yul\":18571:18990   */\n      swap2\n      swap1\n      pop\n      jump\t// out\n        /* \"#utility.yul\":18996:19144   */\n    tag_182:\n        /* \"#utility.yul\":19098:19109   */\n      0x00\n        /* \"#utility.yul\":19135:19138   */\n      dup2\n        /* \"#utility.yul\":19120:19138   */\n      swap1\n      pop\n        /* \"#utility.yul\":18996:19144   */\n      swap3\n      swap2\n      pop\n      pop\n      jump\t// out\n        /* \"#utility.yul\":19150:19364   */\n    tag_183:\n        /* \"#utility.yul\":19290:19356   */\n      0x19457468657265756d205369676e6564204d6573736167653a0a000000000000\n        /* \"#utility.yul\":19286:19287   */\n      0x00\n        /* \"#utility.yul\":19278:19284   */\n      dup3\n        /* \"#utility.yul\":19274:19288   */\n      add\n        /* \"#utility.yul\":19267:19357   */\n      mstore\n        /* \"#utility.yul\":19150:19364   */\n      pop\n      jump\t// out\n        /* \"#utility.yul\":19370:19772   */\n    tag_184:\n        /* \"#utility.yul\":19530:19533   */\n      0x00\n        /* \"#utility.yul\":19551:19636   */\n      tag_388\n        /* \"#utility.yul\":19633:19635   */\n      0x1a\n        /* \"#utility.yul\":19628:19631   */\n      dup4\n        /* \"#utility.yul\":19551:19636   */\n      tag_182\n      jump\t// in\n    tag_388:\n        /* \"#utility.yul\":19544:19636   */\n      swap2\n      pop\n        /* \"#utility.yul\":19645:19738   */\n      tag_389\n        /* \"#utility.yul\":19734:19737   */\n      dup3\n        /* \"#utility.yul\":19645:19738   */\n      tag_183\n      jump\t// in\n    tag_389:\n        /* \"#utility.yul\":19763:19765   */\n      0x1a\n        /* \"#utility.yul\":19758:19761   */\n      dup3\n        /* \"#utility.yul\":19754:19766   */\n      add\n        /* \"#utility.yul\":19747:19766   */\n      swap1\n      pop\n        /* \"#utility.yul\":19370:19772   */\n      swap2\n      swap1\n      pop\n      jump\t// out\n        /* \"#utility.yul\":19778:19877   */\n    tag_185:\n        /* \"#utility.yul\":19830:19836   */\n      0x00\n        /* \"#utility.yul\":19864:19869   */\n      dup2\n        /* \"#utility.yul\":19858:19870   */\n      mload\n        /* \"#utility.yul\":19848:19870   */\n      swap1\n      pop\n        /* \"#utility.yul\":19778:19877   */\n      swap2\n      swap1\n      pop\n      jump\t// out\n        /* \"#utility.yul\":19883:20129   */\n    tag_186:\n        /* \"#utility.yul\":19964:19965   */\n      0x00\n        /* \"#utility.yul\":19974:20087   */\n    tag_392:\n        /* \"#utility.yul\":19988:19994   */\n      dup4\n        /* \"#utility.yul\":19985:19986   */\n      dup2\n        /* \"#utility.yul\":19982:19995   */\n      lt\n        /* \"#utility.yul\":19974:20087   */\n      iszero\n      tag_394\n      jumpi\n        /* \"#utility.yul\":20073:20074   */\n      dup1\n        /* \"#utility.yul\":20068:20071   */\n      dup3\n        /* \"#utility.yul\":20064:20075   */\n      add\n        /* \"#utility.yul\":20058:20076   */\n      mload\n        /* \"#utility.yul\":20054:20055   */\n      dup2\n        /* \"#utility.yul\":20049:20052   */\n      dup5\n        /* \"#utility.yul\":20045:20056   */\n      add\n        /* \"#utility.yul\":20038:20077   */\n      mstore\n        /* \"#utility.yul\":20010:20012   */\n      0x20\n        /* \"#utility.yul\":20007:20008   */\n      dup2\n        /* \"#utility.yul\":20003:20013   */\n      add\n        /* \"#utility.yul\":19998:20013   */\n      swap1\n      pop\n        /* \"#utility.yul\":19974:20087   */\n      jump(tag_392)\n    tag_394:\n        /* \"#utility.yul\":20121:20122   */\n      0x00\n        /* \"#utility.yul\":20112:20118   */\n      dup5\n        /* \"#utility.yul\":20107:20110   */\n      dup5\n        /* \"#utility.yul\":20103:20119   */\n      add\n        /* \"#utility.yul\":20096:20123   */\n      mstore\n        /* \"#utility.yul\":19945:20129   */\n      pop\n        /* \"#utility.yul\":19883:20129   */\n      pop\n      pop\n      pop\n      jump\t// out\n        /* \"#utility.yul\":20135:20525   */\n    tag_187:\n        /* \"#utility.yul\":20241:20244   */\n      0x00\n        /* \"#utility.yul\":20269:20308   */\n      tag_396\n        /* \"#utility.yul\":20302:20307   */\n      dup3\n        /* \"#utility.yul\":20269:20308   */\n      tag_185\n      jump\t// in\n    tag_396:\n        /* \"#utility.yul\":20324:20413   */\n      tag_397\n        /* \"#utility.yul\":20406:20412   */\n      dup2\n        /* \"#utility.yul\":20401:20404   */\n      dup6\n        /* \"#utility.yul\":20324:20413   */\n      tag_182\n      jump\t// in\n    tag_397:\n        /* \"#utility.yul\":20317:20413   */\n      swap4\n      pop\n        /* \"#utility.yul\":20422:20487   */\n      tag_398\n        /* \"#utility.yul\":20480:20486   */\n      dup2\n        /* \"#utility.yul\":20475:20478   */\n      dup6\n        /* \"#utility.yul\":20468:20472   */\n      0x20\n        /* \"#utility.yul\":20461:20466   */\n      dup7\n        /* \"#utility.yul\":20457:20473   */\n      add\n        /* \"#utility.yul\":20422:20487   */\n      tag_186\n      jump\t// in\n    tag_398:\n        /* \"#utility.yul\":20512:20518   */\n      dup1\n        /* \"#utility.yul\":20507:20510   */\n      dup5\n        /* \"#utility.yul\":20503:20519   */\n      add\n        /* \"#utility.yul\":20496:20519   */\n      swap2\n      pop\n        /* \"#utility.yul\":20245:20525   */\n      pop\n        /* \"#utility.yul\":20135:20525   */\n      swap3\n      swap2\n      pop\n      pop\n      jump\t// out\n        /* \"#utility.yul\":20531:21232   */\n    tag_87:\n        /* \"#utility.yul\":20812:20815   */\n      0x00\n        /* \"#utility.yul\":20834:20982   */\n      tag_400\n        /* \"#utility.yul\":20978:20981   */\n      dup3\n        /* \"#utility.yul\":20834:20982   */\n      tag_184\n      jump\t// in\n    tag_400:\n        /* \"#utility.yul\":20827:20982   */\n      swap2\n      pop\n        /* \"#utility.yul\":20999:21094   */\n      tag_401\n        /* \"#utility.yul\":21090:21093   */\n      dup3\n        /* \"#utility.yul\":21081:21087   */\n      dup6\n        /* \"#utility.yul\":20999:21094   */\n      tag_187\n      jump\t// in\n    tag_401:\n        /* \"#utility.yul\":20992:21094   */\n      swap2\n      pop\n        /* \"#utility.yul\":21111:21206   */\n      tag_402\n        /* \"#utility.yul\":21202:21205   */\n      dup3\n        /* \"#utility.yul\":21193:21199   */\n      dup5\n        /* \"#utility.yul\":21111:21206   */\n      tag_187\n      jump\t// in\n    tag_402:\n        /* \"#utility.yul\":21104:21206   */\n      swap2\n      pop\n        /* \"#utility.yul\":21223:21226   */\n      dup2\n        /* \"#utility.yul\":21216:21226   */\n      swap1\n      pop\n        /* \"#utility.yul\":20531:21232   */\n      swap4\n      swap3\n      pop\n      pop\n      pop\n      jump\t// out\n        /* \"#utility.yul\":21238:21412   */\n    tag_188:\n        /* \"#utility.yul\":21378:21404   */\n      0x496e76616c6964207369676e6174757265206c656e6774680000000000000000\n        /* \"#utility.yul\":21374:21375   */\n      0x00\n        /* \"#utility.yul\":21366:21372   */\n      dup3\n        /* \"#utility.yul\":21362:21376   */\n      add\n        /* \"#utility.yul\":21355:21405   */\n      mstore\n        /* \"#utility.yul\":21238:21412   */\n      pop\n      jump\t// out\n        /* \"#utility.yul\":21418:21784   */\n    tag_189:\n        /* \"#utility.yul\":21560:21563   */\n      0x00\n        /* \"#utility.yul\":21581:21648   */\n      tag_405\n        /* \"#utility.yul\":21645:21647   */\n      0x18\n        /* \"#utility.yul\":21640:21643   */\n      dup4\n        /* \"#utility.yul\":21581:21648   */\n      tag_168\n      jump\t// in\n    tag_405:\n        /* \"#utility.yul\":21574:21648   */\n      swap2\n      pop\n        /* \"#utility.yul\":21657:21750   */\n      tag_406\n        /* \"#utility.yul\":21746:21749   */\n      dup3\n        /* \"#utility.yul\":21657:21750   */\n      tag_188\n      jump\t// in\n    tag_406:\n        /* \"#utility.yul\":21775:21777   */\n      0x20\n        /* \"#utility.yul\":21770:21773   */\n      dup3\n        /* \"#utility.yul\":21766:21778   */\n      add\n        /* \"#utility.yul\":21759:21778   */\n      swap1\n      pop\n        /* \"#utility.yul\":21418:21784   */\n      swap2\n      swap1\n      pop\n      jump\t// out\n        /* \"#utility.yul\":21790:22209   */\n    tag_91:\n        /* \"#utility.yul\":21956:21960   */\n      0x00\n        /* \"#utility.yul\":21994:21996   */\n      0x20\n        /* \"#utility.yul\":21983:21992   */\n      dup3\n        /* \"#utility.yul\":21979:21997   */\n      add\n        /* \"#utility.yul\":21971:21997   */\n      swap1\n      pop\n        /* \"#utility.yul\":22043:22052   */\n      dup2\n        /* \"#utility.yul\":22037:22041   */\n      dup2\n        /* \"#utility.yul\":22033:22053   */\n      sub\n        /* \"#utility.yul\":22029:22030   */\n      0x00\n        /* \"#utility.yul\":22018:22027   */\n      dup4\n        /* \"#utility.yul\":22014:22031   */\n      add\n        /* \"#utility.yul\":22007:22054   */\n      mstore\n        /* \"#utility.yul\":22071:22202   */\n      tag_408\n        /* \"#utility.yul\":22197:22201   */\n      dup2\n        /* \"#utility.yul\":22071:22202   */\n      tag_189\n      jump\t// in\n    tag_408:\n        /* \"#utility.yul\":22063:22202   */\n      swap1\n      pop\n        /* \"#utility.yul\":21790:22209   */\n      swap2\n      swap1\n      pop\n      jump\t// out\n        /* \"#utility.yul\":22215:22403   */\n    tag_94:\n        /* \"#utility.yul\":22253:22256   */\n      0x00\n        /* \"#utility.yul\":22272:22290   */\n      tag_410\n        /* \"#utility.yul\":22288:22289   */\n      dup3\n        /* \"#utility.yul\":22272:22290   */\n      tag_178\n      jump\t// in\n    tag_410:\n        /* \"#utility.yul\":22267:22290   */\n      swap2\n      pop\n        /* \"#utility.yul\":22304:22322   */\n      tag_411\n        /* \"#utility.yul\":22320:22321   */\n      dup4\n        /* \"#utility.yul\":22304:22322   */\n      tag_178\n      jump\t// in\n    tag_411:\n        /* \"#utility.yul\":22299:22322   */\n      swap3\n      pop\n        /* \"#utility.yul\":22345:22346   */\n      dup3\n        /* \"#utility.yul\":22342:22343   */\n      dup3\n        /* \"#utility.yul\":22338:22347   */\n      add\n        /* \"#utility.yul\":22331:22347   */\n      swap1\n      pop\n        /* \"#utility.yul\":22368:22372   */\n      0xff\n        /* \"#utility.yul\":22363:22366   */\n      dup2\n        /* \"#utility.yul\":22360:22373   */\n      gt\n        /* \"#utility.yul\":22357:22396   */\n      iszero\n      tag_412\n      jumpi\n        /* \"#utility.yul\":22376:22394   */\n      tag_413\n      tag_175\n      jump\t// in\n    tag_413:\n        /* \"#utility.yul\":22357:22396   */\n    tag_412:\n        /* \"#utility.yul\":22215:22403   */\n      swap3\n      swap2\n      pop\n      pop\n      jump\t// out\n        /* \"#utility.yul\":22409:22584   */\n    tag_190:\n        /* \"#utility.yul\":22549:22576   */\n      0x496e76616c6964207369676e61747572652076657273696f6e00000000000000\n        /* \"#utility.yul\":22545:22546   */\n      0x00\n        /* \"#utility.yul\":22537:22543   */\n      dup3\n        /* \"#utility.yul\":22533:22547   */\n      add\n        /* \"#utility.yul\":22526:22577   */\n      mstore\n        /* \"#utility.yul\":22409:22584   */\n      pop\n      jump\t// out\n        /* \"#utility.yul\":22590:22956   */\n    tag_191:\n        /* \"#utility.yul\":22732:22735   */\n      0x00\n        /* \"#utility.yul\":22753:22820   */\n      tag_416\n        /* \"#utility.yul\":22817:22819   */\n      0x19\n        /* \"#utility.yul\":22812:22815   */\n      dup4\n        /* \"#utility.yul\":22753:22820   */\n      tag_168\n      jump\t// in\n    tag_416:\n        /* \"#utility.yul\":22746:22820   */\n      swap2\n      pop\n        /* \"#utility.yul\":22829:22922   */\n      tag_417\n        /* \"#utility.yul\":22918:22921   */\n      dup3\n        /* \"#utility.yul\":22829:22922   */\n      tag_190\n      jump\t// in\n    tag_417:\n        /* \"#utility.yul\":22947:22949   */\n      0x20\n        /* \"#utility.yul\":22942:22945   */\n      dup3\n        /* \"#utility.yul\":22938:22950   */\n      add\n        /* \"#utility.yul\":22931:22950   */\n      swap1\n      pop\n        /* \"#utility.yul\":22590:22956   */\n      swap2\n      swap1\n      pop\n      jump\t// out\n        /* \"#utility.yul\":22962:23381   */\n    tag_98:\n        /* \"#utility.yul\":23128:23132   */\n      0x00\n        /* \"#utility.yul\":23166:23168   */\n      0x20\n        /* \"#utility.yul\":23155:23164   */\n      dup3\n        /* \"#utility.yul\":23151:23169   */\n      add\n        /* \"#utility.yul\":23143:23169   */\n      swap1\n      pop\n        /* \"#utility.yul\":23215:23224   */\n      dup2\n        /* \"#utility.yul\":23209:23213   */\n      dup2\n        /* \"#utility.yul\":23205:23225   */\n      sub\n        /* \"#utility.yul\":23201:23202   */\n      0x00\n        /* \"#utility.yul\":23190:23199   */\n      dup4\n        /* \"#utility.yul\":23186:23203   */\n      add\n        /* \"#utility.yul\":23179:23226   */\n      mstore\n        /* \"#utility.yul\":23243:23374   */\n      tag_419\n        /* \"#utility.yul\":23369:23373   */\n      dup2\n        /* \"#utility.yul\":23243:23374   */\n      tag_191\n      jump\t// in\n    tag_419:\n        /* \"#utility.yul\":23235:23374   */\n      swap1\n      pop\n        /* \"#utility.yul\":22962:23381   */\n      swap2\n      swap1\n      pop\n      jump\t// out\n        /* \"#utility.yul\":23387:23567   */\n    tag_110:\n        /* \"#utility.yul\":23435:23512   */\n      0x4e487b7100000000000000000000000000000000000000000000000000000000\n        /* \"#utility.yul\":23432:23433   */\n      0x00\n        /* \"#utility.yul\":23425:23513   */\n      mstore\n        /* \"#utility.yul\":23532:23536   */\n      0x12\n        /* \"#utility.yul\":23529:23530   */\n      0x04\n        /* \"#utility.yul\":23522:23537   */\n      mstore\n        /* \"#utility.yul\":23556:23560   */\n      0x24\n        /* \"#utility.yul\":23553:23554   */\n      0x00\n        /* \"#utility.yul\":23546:23561   */\n      revert\n\n    auxdata: 0xa2646970667358221220674d93b8fc1e6dcdc4487ca028da3e95e0ee8bb95446f88e35c0dc3d03c3397f64736f6c63430008140033\n}\n",
				"bytecode": {
					"linkReferences": {},
					"object": "608060405234801561000f575f80fd5b503360015f6101000a81548173ffffffffffffffffffffffffffffffffffffffff021916908373ffffffffffffffffffffffffffffffffffffffff1602179055506114638061005d5f395ff3fe608060405260043610610058575f3560e01c80638da5cb5b14610063578063956236411461008d57806395db67e4146100b757806395e0e0c9146100d3578063eca7ed0a146100fb578063fae92612146101255761005f565b3661005f57005b5f80fd5b34801561006e575f80fd5b5061007761014d565b60405161008491906108b8565b60405180910390f35b348015610098575f80fd5b506100a1610172565b6040516100ae91906108f1565b60405180910390f35b6100d160048036038101906100cc9190610d9f565b610195565b005b3480156100de575f80fd5b506100f960048036038101906100f49190610e43565b610392565b005b348015610106575f80fd5b5061010f610472565b60405161011c9190610ee3565b60405180910390f35b348015610130575f80fd5b5061014b60048036038101906101469190610f26565b610479565b005b60015f9054906101000a900473ffffffffffffffffffffffffffffffffffffffff1681565b5f8054906101000a900473ffffffffffffffffffffffffffffffffffffffff1681565b5f8054906101000a900473ffffffffffffffffffffffffffffffffffffffff1673ffffffffffffffffffffffffffffffffffffffff163373ffffffffffffffffffffffffffffffffffffffff1614610222576040517f08c379a000000000000000000000000000000000000000000000000000000000815260040161021990610fab565b60405180910390fd5b81518351148015610234575080518351145b610273576040517f08c379a000000000000000000000000000000000000000000000000000000000815260040161026a90611013565b60405180910390fd5b6032835111156102b8576040517f08c379a00000000000000000000000000000000000000000000000000000000081526004016102af9061107b565b60405180910390fd5b5f5b835181101561038c5761031c8482815181106102d9576102d8611099565b5b60200260200101518383815181106102f4576102f3611099565b5b602002602001015185848151811061030f5761030e611099565b5b6020026020010151610392565b83818151811061032f5761032e611099565b5b602002602001015173ffffffffffffffffffffffffffffffffffffffff167f78f048a4a5986309c511acbfc093d06c834685823625e9d42e6a75da34fbd0a460405160405180910390a28080610384906110f3565b9150506102ba565b50505050565b5f61039c8361054a565b90505f805f6103aa85610589565b9250925092506001848285856040515f81526020016040526040516103d2949392919061116d565b6020604051602081039080840390855afa1580156103f2573d5f803e3d5ffd5b5050506020604051035173ffffffffffffffffffffffffffffffffffffffff168773ffffffffffffffffffffffffffffffffffffffff1614610469576040517f08c379a0000000000000000000000000000000000000000000000000000000008152600401610460906111fa565b60405180910390fd5b50505050505050565b5f5a905090565b60015f9054906101000a900473ffffffffffffffffffffffffffffffffffffffff1673ffffffffffffffffffffffffffffffffffffffff163373ffffffffffffffffffffffffffffffffffffffff1614610508576040517f08c379a00000000000000000000000000000000000000000000000000000000081526004016104ff90610fab565b60405180910390fd5b805f806101000a81548173ffffffffffffffffffffffffffffffffffffffff021916908373ffffffffffffffffffffffffffffffffffffffff16021790555050565b5f80825190506105598161065e565b8360405160200161056b9291906112ce565b60405160208183030381529060405280519060200120915050919050565b5f805f60418451146105d0576040517f08c379a00000000000000000000000000000000000000000000000000000000081526004016105c790611346565b60405180910390fd5b602084015192506040840151915060608401515f1a9050601b8160ff16101561060357601b816106009190611364565b90505b601b8160ff1614806106185750601c8160ff16145b610657576040517f08c379a000000000000000000000000000000000000000000000000000000000815260040161064e906113e2565b60405180910390fd5b9193909250565b60605f600161066c84610728565b0190505f8167ffffffffffffffff81111561068a5761068961092f565b5b6040519080825280601f01601f1916602001820160405280156106bc5781602001600182028036833780820191505090505b5090505f82602001820190505b60011561071d578080600190039150507f3031323334353637383961626364656600000000000000000000000000000000600a86061a8153600a858161071257610711611400565b5b0494505f85036106c9575b819350505050919050565b5f805f90507a184f03e93ff9f4daa797ed6e38ed64bf6a1f0100000000000000008310610784577a184f03e93ff9f4daa797ed6e38ed64bf6a1f010000000000000000838161077a57610779611400565b5b0492506040810190505b6d04ee2d6d415b85acef810000000083106107c1576d04ee2d6d415b85acef810000000083816107b7576107b6611400565b5b0492506020810190505b662386f26fc1000083106107f057662386f26fc1000083816107e6576107e5611400565b5b0492506010810190505b6305f5e1008310610819576305f5e100838161080f5761080e611400565b5b0492506008810190505b612710831061083e57612710838161083457610833611400565b5b0492506004810190505b60648310610861576064838161085757610856611400565b5b0492506002810190505b600a8310610870576001810190505b80915050919050565b5f73ffffffffffffffffffffffffffffffffffffffff82169050919050565b5f6108a282610879565b9050919050565b6108b281610898565b82525050565b5f6020820190506108cb5f8301846108a9565b92915050565b5f6108db82610879565b9050919050565b6108eb816108d1565b82525050565b5f6020820190506109045f8301846108e2565b92915050565b5f604051905090565b5f80fd5b5f80fd5b5f80fd5b5f601f19601f8301169050919050565b7f4e487b71000000000000000000000000000000000000000000000000000000005f52604160045260245ffd5b6109658261091f565b810181811067ffffffffffffffff821117156109845761098361092f565b5b80604052505050565b5f61099661090a565b90506109a2828261095c565b919050565b5f67ffffffffffffffff8211156109c1576109c061092f565b5b602082029050602081019050919050565b5f80fd5b6109df81610898565b81146109e9575f80fd5b50565b5f813590506109fa816109d6565b92915050565b5f610a12610a0d846109a7565b61098d565b90508083825260208201905060208402830185811115610a3557610a346109d2565b5b835b81811015610a5e5780610a4a88826109ec565b845260208401935050602081019050610a37565b5050509392505050565b5f82601f830112610a7c57610a7b61091b565b5b8135610a8c848260208601610a00565b91505092915050565b5f67ffffffffffffffff821115610aaf57610aae61092f565b5b602082029050602081019050919050565b5f80fd5b5f67ffffffffffffffff821115610ade57610add61092f565b5b610ae78261091f565b9050602081019050919050565b828183375f83830152505050565b5f610b14610b0f84610ac4565b61098d565b905082815260208101848484011115610b3057610b2f610ac0565b5b610b3b848285610af4565b509392505050565b5f82601f830112610b5757610b5661091b565b5b8135610b67848260208601610b02565b91505092915050565b5f610b82610b7d84610a95565b61098d565b90508083825260208201905060208402830185811115610ba557610ba46109d2565b5b835b81811015610bec57803567ffffffffffffffff811115610bca57610bc961091b565b5b808601610bd78982610b43565b85526020850194505050602081019050610ba7565b5050509392505050565b5f82601f830112610c0a57610c0961091b565b5b8135610c1a848260208601610b70565b91505092915050565b5f67ffffffffffffffff821115610c3d57610c3c61092f565b5b602082029050602081019050919050565b5f67ffffffffffffffff821115610c6857610c6761092f565b5b610c718261091f565b9050602081019050919050565b5f610c90610c8b84610c4e565b61098d565b905082815260208101848484011115610cac57610cab610ac0565b5b610cb7848285610af4565b509392505050565b5f82601f830112610cd357610cd261091b565b5b8135610ce3848260208601610c7e565b91505092915050565b5f610cfe610cf984610c23565b61098d565b90508083825260208201905060208402830185811115610d2157610d206109d2565b5b835b81811015610d6857803567ffffffffffffffff811115610d4657610d4561091b565b5b808601610d538982610cbf565b85526020850194505050602081019050610d23565b5050509392505050565b5f82601f830112610d8657610d8561091b565b5b8135610d96848260208601610cec565b91505092915050565b5f805f60608486031215610db657610db5610913565b5b5f84013567ffffffffffffffff811115610dd357610dd2610917565b5b610ddf86828701610a68565b935050602084013567ffffffffffffffff811115610e0057610dff610917565b5b610e0c86828701610bf6565b925050604084013567ffffffffffffffff811115610e2d57610e2c610917565b5b610e3986828701610d72565b9150509250925092565b5f805f60608486031215610e5a57610e59610913565b5b5f610e67868287016109ec565b935050602084013567ffffffffffffffff811115610e8857610e87610917565b5b610e9486828701610cbf565b925050604084013567ffffffffffffffff811115610eb557610eb4610917565b5b610ec186828701610b43565b9150509250925092565b5f819050919050565b610edd81610ecb565b82525050565b5f602082019050610ef65f830184610ed4565b92915050565b610f05816108d1565b8114610f0f575f80fd5b50565b5f81359050610f2081610efc565b92915050565b5f60208284031215610f3b57610f3a610913565b5b5f610f4884828501610f12565b91505092915050565b5f82825260208201905092915050565b7f496e76616c69642063616c6c65720000000000000000000000000000000000005f82015250565b5f610f95600e83610f51565b9150610fa082610f61565b602082019050919050565b5f6020820190508181035f830152610fc281610f89565b9050919050565b7f496e76616c696420696e707574000000000000000000000000000000000000005f82015250565b5f610ffd600d83610f51565b915061100882610fc9565b602082019050919050565b5f6020820190508181035f83015261102a81610ff1565b9050919050565b7f42617463682073697a6520746f6f206c617267650000000000000000000000005f82015250565b5f611065601483610f51565b915061107082611031565b602082019050919050565b5f6020820190508181035f83015261109281611059565b9050919050565b7f4e487b71000000000000000000000000000000000000000000000000000000005f52603260045260245ffd5b7f4e487b71000000000000000000000000000000000000000000000000000000005f52601160045260245ffd5b5f6110fd82610ecb565b91507fffffffffffffffffffffffffffffffffffffffffffffffffffffffffffffffff820361112f5761112e6110c6565b5b600182019050919050565b5f819050919050565b61114c8161113a565b82525050565b5f60ff82169050919050565b61116781611152565b82525050565b5f6080820190506111805f830187611143565b61118d602083018661115e565b61119a6040830185611143565b6111a76060830184611143565b95945050505050565b7f496e76616c6964207369676e61747572650000000000000000000000000000005f82015250565b5f6111e4601183610f51565b91506111ef826111b0565b602082019050919050565b5f6020820190508181035f830152611211816111d8565b9050919050565b5f81905092915050565b7f19457468657265756d205369676e6564204d6573736167653a0a0000000000005f82015250565b5f611256601a83611218565b915061126182611222565b601a82019050919050565b5f81519050919050565b5f5b83811015611293578082015181840152602081019050611278565b5f8484015250505050565b5f6112a88261126c565b6112b28185611218565b93506112c2818560208601611276565b80840191505092915050565b5f6112d88261124a565b91506112e4828561129e565b91506112f0828461129e565b91508190509392505050565b7f496e76616c6964207369676e6174757265206c656e67746800000000000000005f82015250565b5f611330601883610f51565b915061133b826112fc565b602082019050919050565b5f6020820190508181035f83015261135d81611324565b9050919050565b5f61136e82611152565b915061137983611152565b9250828201905060ff811115611392576113916110c6565b5b92915050565b7f496e76616c6964207369676e61747572652076657273696f6e000000000000005f82015250565b5f6113cc601983610f51565b91506113d782611398565b602082019050919050565b5f6020820190508181035f8301526113f9816113c0565b9050919050565b7f4e487b71000000000000000000000000000000000000000000000000000000005f52601260045260245ffdfea2646970667358221220674d93b8fc1e6dcdc4487ca028da3e95e0ee8bb95446f88e35c0dc3d03c3397f64736f6c63430008140033",
					"opcodes": "PUSH1 0x80 PUSH1 0x40 MSTORE CALLVALUE DUP1 ISZERO PUSH2 0xF JUMPI PUSH0 DUP1 REVERT JUMPDEST POP CALLER PUSH1 0x1 PUSH0 PUSH2 0x100 EXP DUP2 SLOAD DUP2 PUSH20 0xFFFFFFFFFFFFFFFFFFFFFFFFFFFFFFFFFFFFFFFF MUL NOT AND SWAP1 DUP4 PUSH20 0xFFFFFFFFFFFFFFFFFFFFFFFFFFFFFFFFFFFFFFFF AND MUL OR SWAP1 SSTORE POP PUSH2 0x1463 DUP1 PUSH2 0x5D PUSH0 CODECOPY PUSH0 RETURN INVALID PUSH1 0x80 PUSH1 0x40 MSTORE PUSH1 0x4 CALLDATASIZE LT PUSH2 0x58 JUMPI PUSH0 CALLDATALOAD PUSH1 0xE0 SHR DUP1 PUSH4 0x8DA5CB5B EQ PUSH2 0x63 JUMPI DUP1 PUSH4 0x95623641 EQ PUSH2 0x8D JUMPI DUP1 PUSH4 0x95DB67E4 EQ PUSH2 0xB7 JUMPI DUP1 PUSH4 0x95E0E0C9 EQ PUSH2 0xD3 JUMPI DUP1 PUSH4 0xECA7ED0A EQ PUSH2 0xFB JUMPI DUP1 PUSH4 0xFAE92612 EQ PUSH2 0x125 JUMPI PUSH2 0x5F JUMP JUMPDEST CALLDATASIZE PUSH2 0x5F JUMPI STOP JUMPDEST PUSH0 DUP1 REVERT JUMPDEST CALLVALUE DUP1 ISZERO PUSH2 0x6E JUMPI PUSH0 DUP1 REVERT JUMPDEST POP PUSH2 0x77 PUSH2 0x14D JUMP JUMPDEST PUSH1 0x40 MLOAD PUSH2 0x84 SWAP2 SWAP1 PUSH2 0x8B8 JUMP JUMPDEST PUSH1 0x40 MLOAD DUP1 SWAP2 SUB SWAP1 RETURN JUMPDEST CALLVALUE DUP1 ISZERO PUSH2 0x98 JUMPI PUSH0 DUP1 REVERT JUMPDEST POP PUSH2 0xA1 PUSH2 0x172 JUMP JUMPDEST PUSH1 0x40 MLOAD PUSH2 0xAE SWAP2 SWAP1 PUSH2 0x8F1 JUMP JUMPDEST PUSH1 0x40 MLOAD DUP1 SWAP2 SUB SWAP1 RETURN JUMPDEST PUSH2 0xD1 PUSH1 0x4 DUP1 CALLDATASIZE SUB DUP2 ADD SWAP1 PUSH2 0xCC SWAP2 SWAP1 PUSH2 0xD9F JUMP JUMPDEST PUSH2 0x195 JUMP JUMPDEST STOP JUMPDEST CALLVALUE DUP1 ISZERO PUSH2 0xDE JUMPI PUSH0 DUP1 REVERT JUMPDEST POP PUSH2 0xF9 PUSH1 0x4 DUP1 CALLDATASIZE SUB DUP2 ADD SWAP1 PUSH2 0xF4 SWAP2 SWAP1 PUSH2 0xE43 JUMP JUMPDEST PUSH2 0x392 JUMP JUMPDEST STOP JUMPDEST CALLVALUE DUP1 ISZERO PUSH2 0x106 JUMPI PUSH0 DUP1 REVERT JUMPDEST POP PUSH2 0x10F PUSH2 0x472 JUMP JUMPDEST PUSH1 0x40 MLOAD PUSH2 0x11C SWAP2 SWAP1 PUSH2 0xEE3 JUMP JUMPDEST PUSH1 0x40 MLOAD DUP1 SWAP2 SUB SWAP1 RETURN JUMPDEST CALLVALUE DUP1 ISZERO PUSH2 0x130 JUMPI PUSH0 DUP1 REVERT JUMPDEST POP PUSH2 0x14B PUSH1 0x4 DUP1 CALLDATASIZE SUB DUP2 ADD SWAP1 PUSH2 0x146 SWAP2 SWAP1 PUSH2 0xF26 JUMP JUMPDEST PUSH2 0x479 JUMP JUMPDEST STOP JUMPDEST PUSH1 0x1 PUSH0 SWAP1 SLOAD SWAP1 PUSH2 0x100 EXP SWAP1 DIV PUSH20 0xFFFFFFFFFFFFFFFFFFFFFFFFFFFFFFFFFFFFFFFF AND DUP2 JUMP JUMPDEST PUSH0 DUP1 SLOAD SWAP1 PUSH2 0x100 EXP SWAP1 DIV PUSH20 0xFFFFFFFFFFFFFFFFFFFFFFFFFFFFFFFFFFFFFFFF AND DUP2 JUMP JUMPDEST PUSH0 DUP1 SLOAD SWAP1 PUSH2 0x100 EXP SWAP1 DIV PUSH20 0xFFFFFFFFFFFFFFFFFFFFFFFFFFFFFFFFFFFFFFFF AND PUSH20 0xFFFFFFFFFFFFFFFFFFFFFFFFFFFFFFFFFFFFFFFF AND CALLER PUSH20 0xFFFFFFFFFFFFFFFFFFFFFFFFFFFFFFFFFFFFFFFF AND EQ PUSH2 0x222 JUMPI PUSH1 0x40 MLOAD PUSH32 0x8C379A000000000000000000000000000000000000000000000000000000000 DUP2 MSTORE PUSH1 0x4 ADD PUSH2 0x219 SWAP1 PUSH2 0xFAB JUMP JUMPDEST PUSH1 0x40 MLOAD DUP1 SWAP2 SUB SWAP1 REVERT JUMPDEST DUP2 MLOAD DUP4 MLOAD EQ DUP1 ISZERO PUSH2 0x234 JUMPI POP DUP1 MLOAD DUP4 MLOAD EQ JUMPDEST PUSH2 0x273 JUMPI PUSH1 0x40 MLOAD PUSH32 0x8C379A000000000000000000000000000000000000000000000000000000000 DUP2 MSTORE PUSH1 0x4 ADD PUSH2 0x26A SWAP1 PUSH2 0x1013 JUMP JUMPDEST PUSH1 0x40 MLOAD DUP1 SWAP2 SUB SWAP1 REVERT JUMPDEST PUSH1 0x32 DUP4 MLOAD GT ISZERO PUSH2 0x2B8 JUMPI PUSH1 0x40 MLOAD PUSH32 0x8C379A000000000000000000000000000000000000000000000000000000000 DUP2 MSTORE PUSH1 0x4 ADD PUSH2 0x2AF SWAP1 PUSH2 0x107B JUMP JUMPDEST PUSH1 0x40 MLOAD DUP1 SWAP2 SUB SWAP1 REVERT JUMPDEST PUSH0 JUMPDEST DUP4 MLOAD DUP2 LT ISZERO PUSH2 0x38C JUMPI PUSH2 0x31C DUP5 DUP3 DUP2 MLOAD DUP2 LT PUSH2 0x2D9 JUMPI PUSH2 0x2D8 PUSH2 0x1099 JUMP JUMPDEST JUMPDEST PUSH1 0x20 MUL PUSH1 0x20 ADD ADD MLOAD DUP4 DUP4 DUP2 MLOAD DUP2 LT PUSH2 0x2F4 JUMPI PUSH2 0x2F3 PUSH2 0x1099 JUMP JUMPDEST JUMPDEST PUSH1 0x20 MUL PUSH1 0x20 ADD ADD MLOAD DUP6 DUP5 DUP2 MLOAD DUP2 LT PUSH2 0x30F JUMPI PUSH2 0x30E PUSH2 0x1099 JUMP JUMPDEST JUMPDEST PUSH1 0x20 MUL PUSH1 0x20 ADD ADD MLOAD PUSH2 0x392 JUMP JUMPDEST DUP4 DUP2 DUP2 MLOAD DUP2 LT PUSH2 0x32F JUMPI PUSH2 0x32E PUSH2 0x1099 JUMP JUMPDEST JUMPDEST PUSH1 0x20 MUL PUSH1 0x20 ADD ADD MLOAD PUSH20 0xFFFFFFFFFFFFFFFFFFFFFFFFFFFFFFFFFFFFFFFF AND PUSH32 0x78F048A4A5986309C511ACBFC093D06C834685823625E9D42E6A75DA34FBD0A4 PUSH1 0x40 MLOAD PUSH1 0x40 MLOAD DUP1 SWAP2 SUB SWAP1 LOG2 DUP1 DUP1 PUSH2 0x384 SWAP1 PUSH2 0x10F3 JUMP JUMPDEST SWAP2 POP POP PUSH2 0x2BA JUMP JUMPDEST POP POP POP POP JUMP JUMPDEST PUSH0 PUSH2 0x39C DUP4 PUSH2 0x54A JUMP JUMPDEST SWAP1 POP PUSH0 DUP1 PUSH0 PUSH2 0x3AA DUP6 PUSH2 0x589 JUMP JUMPDEST SWAP3 POP SWAP3 POP SWAP3 POP PUSH1 0x1 DUP5 DUP3 DUP6 DUP6 PUSH1 0x40 MLOAD PUSH0 DUP2 MSTORE PUSH1 0x20 ADD PUSH1 0x40 MSTORE PUSH1 0x40 MLOAD PUSH2 0x3D2 SWAP5 SWAP4 SWAP3 SWAP2 SWAP1 PUSH2 0x116D JUMP JUMPDEST PUSH1 0x20 PUSH1 0x40 MLOAD PUSH1 0x20 DUP2 SUB SWAP1 DUP1 DUP5 SUB SWAP1 DUP6 GAS STATICCALL ISZERO DUP1 ISZERO PUSH2 0x3F2 JUMPI RETURNDATASIZE PUSH0 DUP1 RETURNDATACOPY RETURNDATASIZE PUSH0 REVERT JUMPDEST POP POP POP PUSH1 0x20 PUSH1 0x40 MLOAD SUB MLOAD PUSH20 0xFFFFFFFFFFFFFFFFFFFFFFFFFFFFFFFFFFFFFFFF AND DUP8 PUSH20 0xFFFFFFFFFFFFFFFFFFFFFFFFFFFFFFFFFFFFFFFF AND EQ PUSH2 0x469 JUMPI PUSH1 0x40 MLOAD PUSH32 0x8C379A000000000000000000000000000000000000000000000000000000000 DUP2 MSTORE PUSH1 0x4 ADD PUSH2 0x460 SWAP1 PUSH2 0x11FA JUMP JUMPDEST PUSH1 0x40 MLOAD DUP1 SWAP2 SUB SWAP1 REVERT JUMPDEST POP POP POP POP POP POP POP JUMP JUMPDEST PUSH0 GAS SWAP1 POP SWAP1 JUMP JUMPDEST PUSH1 0x1 PUSH0 SWAP1 SLOAD SWAP1 PUSH2 0x100 EXP SWAP1 DIV PUSH20 0xFFFFFFFFFFFFFFFFFFFFFFFFFFFFFFFFFFFFFFFF AND PUSH20 0xFFFFFFFFFFFFFFFFFFFFFFFFFFFFFFFFFFFFFFFF AND CALLER PUSH20 0xFFFFFFFFFFFFFFFFFFFFFFFFFFFFFFFFFFFFFFFF AND EQ PUSH2 0x508 JUMPI PUSH1 0x40 MLOAD PUSH32 0x8C379A000000000000000000000000000000000000000000000000000000000 DUP2 MSTORE PUSH1 0x4 ADD PUSH2 0x4FF SWAP1 PUSH2 0xFAB JUMP JUMPDEST PUSH1 0x40 MLOAD DUP1 SWAP2 SUB SWAP1 REVERT JUMPDEST DUP1 PUSH0 DUP1 PUSH2 0x100 EXP DUP2 SLOAD DUP2 PUSH20 0xFFFFFFFFFFFFFFFFFFFFFFFFFFFFFFFFFFFFFFFF MUL NOT AND SWAP1 DUP4 PUSH20 0xFFFFFFFFFFFFFFFFFFFFFFFFFFFFFFFFFFFFFFFF AND MUL OR SWAP1 SSTORE POP POP JUMP JUMPDEST PUSH0 DUP1 DUP3 MLOAD SWAP1 POP PUSH2 0x559 DUP2 PUSH2 0x65E JUMP JUMPDEST DUP4 PUSH1 0x40 MLOAD PUSH1 0x20 ADD PUSH2 0x56B SWAP3 SWAP2 SWAP1 PUSH2 0x12CE JUMP JUMPDEST PUSH1 0x40 MLOAD PUSH1 0x20 DUP2 DUP4 SUB SUB DUP2 MSTORE SWAP1 PUSH1 0x40 MSTORE DUP1 MLOAD SWAP1 PUSH1 0x20 ADD KECCAK256 SWAP2 POP POP SWAP2 SWAP1 POP JUMP JUMPDEST PUSH0 DUP1 PUSH0 PUSH1 0x41 DUP5 MLOAD EQ PUSH2 0x5D0 JUMPI PUSH1 0x40 MLOAD PUSH32 0x8C379A000000000000000000000000000000000000000000000000000000000 DUP2 MSTORE PUSH1 0x4 ADD PUSH2 0x5C7 SWAP1 PUSH2 0x1346 JUMP JUMPDEST PUSH1 0x40 MLOAD DUP1 SWAP2 SUB SWAP1 REVERT JUMPDEST PUSH1 0x20 DUP5 ADD MLOAD SWAP3 POP PUSH1 0x40 DUP5 ADD MLOAD SWAP2 POP PUSH1 0x60 DUP5 ADD MLOAD PUSH0 BYTE SWAP1 POP PUSH1 0x1B DUP2 PUSH1 0xFF AND LT ISZERO PUSH2 0x603 JUMPI PUSH1 0x1B DUP2 PUSH2 0x600 SWAP2 SWAP1 PUSH2 0x1364 JUMP JUMPDEST SWAP1 POP JUMPDEST PUSH1 0x1B DUP2 PUSH1 0xFF AND EQ DUP1 PUSH2 0x618 JUMPI POP PUSH1 0x1C DUP2 PUSH1 0xFF AND EQ JUMPDEST PUSH2 0x657 JUMPI PUSH1 0x40 MLOAD PUSH32 0x8C379A000000000000000000000000000000000000000000000000000000000 DUP2 MSTORE PUSH1 0x4 ADD PUSH2 0x64E SWAP1 PUSH2 0x13E2 JUMP JUMPDEST PUSH1 0x40 MLOAD DUP1 SWAP2 SUB SWAP1 REVERT JUMPDEST SWAP2 SWAP4 SWAP1 SWAP3 POP JUMP JUMPDEST PUSH1 0x60 PUSH0 PUSH1 0x1 PUSH2 0x66C DUP5 PUSH2 0x728 JUMP JUMPDEST ADD SWAP1 POP PUSH0 DUP2 PUSH8 0xFFFFFFFFFFFFFFFF DUP2 GT ISZERO PUSH2 0x68A JUMPI PUSH2 0x689 PUSH2 0x92F JUMP JUMPDEST JUMPDEST PUSH1 0x40 MLOAD SWAP1 DUP1 DUP3 MSTORE DUP1 PUSH1 0x1F ADD PUSH1 0x1F NOT AND PUSH1 0x20 ADD DUP3 ADD PUSH1 0x40 MSTORE DUP1 ISZERO PUSH2 0x6BC JUMPI DUP2 PUSH1 0x20 ADD PUSH1 0x1 DUP3 MUL DUP1 CALLDATASIZE DUP4 CALLDATACOPY DUP1 DUP3 ADD SWAP2 POP POP SWAP1 POP JUMPDEST POP SWAP1 POP PUSH0 DUP3 PUSH1 0x20 ADD DUP3 ADD SWAP1 POP JUMPDEST PUSH1 0x1 ISZERO PUSH2 0x71D JUMPI DUP1 DUP1 PUSH1 0x1 SWAP1 SUB SWAP2 POP POP PUSH32 0x3031323334353637383961626364656600000000000000000000000000000000 PUSH1 0xA DUP7 MOD BYTE DUP2 MSTORE8 PUSH1 0xA DUP6 DUP2 PUSH2 0x712 JUMPI PUSH2 0x711 PUSH2 0x1400 JUMP JUMPDEST JUMPDEST DIV SWAP5 POP PUSH0 DUP6 SUB PUSH2 0x6C9 JUMPI JUMPDEST DUP2 SWAP4 POP POP POP POP SWAP2 SWAP1 POP JUMP JUMPDEST PUSH0 DUP1 PUSH0 SWAP1 POP PUSH27 0x184F03E93FF9F4DAA797ED6E38ED64BF6A1F010000000000000000 DUP4 LT PUSH2 0x784 JUMPI PUSH27 0x184F03E93FF9F4DAA797ED6E38ED64BF6A1F010000000000000000 DUP4 DUP2 PUSH2 0x77A JUMPI PUSH2 0x779 PUSH2 0x1400 JUMP JUMPDEST JUMPDEST DIV SWAP3 POP PUSH1 0x40 DUP2 ADD SWAP1 POP JUMPDEST PUSH14 0x4EE2D6D415B85ACEF8100000000 DUP4 LT PUSH2 0x7C1 JUMPI PUSH14 0x4EE2D6D415B85ACEF8100000000 DUP4 DUP2 PUSH2 0x7B7 JUMPI PUSH2 0x7B6 PUSH2 0x1400 JUMP JUMPDEST JUMPDEST DIV SWAP3 POP PUSH1 0x20 DUP2 ADD SWAP1 POP JUMPDEST PUSH7 0x2386F26FC10000 DUP4 LT PUSH2 0x7F0 JUMPI PUSH7 0x2386F26FC10000 DUP4 DUP2 PUSH2 0x7E6 JUMPI PUSH2 0x7E5 PUSH2 0x1400 JUMP JUMPDEST JUMPDEST DIV SWAP3 POP PUSH1 0x10 DUP2 ADD SWAP1 POP JUMPDEST PUSH4 0x5F5E100 DUP4 LT PUSH2 0x819 JUMPI PUSH4 0x5F5E100 DUP4 DUP2 PUSH2 0x80F JUMPI PUSH2 0x80E PUSH2 0x1400 JUMP JUMPDEST JUMPDEST DIV SWAP3 POP PUSH1 0x8 DUP2 ADD SWAP1 POP JUMPDEST PUSH2 0x2710 DUP4 LT PUSH2 0x83E JUMPI PUSH2 0x2710 DUP4 DUP2 PUSH2 0x834 JUMPI PUSH2 0x833 PUSH2 0x1400 JUMP JUMPDEST JUMPDEST DIV SWAP3 POP PUSH1 0x4 DUP2 ADD SWAP1 POP JUMPDEST PUSH1 0x64 DUP4 LT PUSH2 0x861 JUMPI PUSH1 0x64 DUP4 DUP2 PUSH2 0x857 JUMPI PUSH2 0x856 PUSH2 0x1400 JUMP JUMPDEST JUMPDEST DIV SWAP3 POP PUSH1 0x2 DUP2 ADD SWAP1 POP JUMPDEST PUSH1 0xA DUP4 LT PUSH2 0x870 JUMPI PUSH1 0x1 DUP2 ADD SWAP1 POP JUMPDEST DUP1 SWAP2 POP POP SWAP2 SWAP1 POP JUMP JUMPDEST PUSH0 PUSH20 0xFFFFFFFFFFFFFFFFFFFFFFFFFFFFFFFFFFFFFFFF DUP3 AND SWAP1 POP SWAP2 SWAP1 POP JUMP JUMPDEST PUSH0 PUSH2 0x8A2 DUP3 PUSH2 0x879 JUMP JUMPDEST SWAP1 POP SWAP2 SWAP1 POP JUMP JUMPDEST PUSH2 0x8B2 DUP2 PUSH2 0x898 JUMP JUMPDEST DUP3 MSTORE POP POP JUMP JUMPDEST PUSH0 PUSH1 0x20 DUP3 ADD SWAP1 POP PUSH2 0x8CB PUSH0 DUP4 ADD DUP5 PUSH2 0x8A9 JUMP JUMPDEST SWAP3 SWAP2 POP POP JUMP JUMPDEST PUSH0 PUSH2 0x8DB DUP3 PUSH2 0x879 JUMP JUMPDEST SWAP1 POP SWAP2 SWAP1 POP JUMP JUMPDEST PUSH2 0x8EB DUP2 PUSH2 0x8D1 JUMP JUMPDEST DUP3 MSTORE POP POP JUMP JUMPDEST PUSH0 PUSH1 0x20 DUP3 ADD SWAP1 POP PUSH2 0x904 PUSH0 DUP4 ADD DUP5 PUSH2 0x8E2 JUMP JUMPDEST SWAP3 SWAP2 POP POP JUMP JUMPDEST PUSH0 PUSH1 0x40 MLOAD SWAP1 POP SWAP1 JUMP JUMPDEST PUSH0 DUP1 REVERT JUMPDEST PUSH0 DUP1 REVERT JUMPDEST PUSH0 DUP1 REVERT JUMPDEST PUSH0 PUSH1 0x1F NOT PUSH1 0x1F DUP4 ADD AND SWAP1 POP SWAP2 SWAP1 POP JUMP JUMPDEST PUSH32 0x4E487B7100000000000000000000000000000000000000000000000000000000 PUSH0 MSTORE PUSH1 0x41 PUSH1 0x4 MSTORE PUSH1 0x24 PUSH0 REVERT JUMPDEST PUSH2 0x965 DUP3 PUSH2 0x91F JUMP JUMPDEST DUP2 ADD DUP2 DUP2 LT PUSH8 0xFFFFFFFFFFFFFFFF DUP3 GT OR ISZERO PUSH2 0x984 JUMPI PUSH2 0x983 PUSH2 0x92F JUMP JUMPDEST JUMPDEST DUP1 PUSH1 0x40 MSTORE POP POP POP JUMP JUMPDEST PUSH0 PUSH2 0x996 PUSH2 0x90A JUMP JUMPDEST SWAP1 POP PUSH2 0x9A2 DUP3 DUP3 PUSH2 0x95C JUMP JUMPDEST SWAP2 SWAP1 POP JUMP JUMPDEST PUSH0 PUSH8 0xFFFFFFFFFFFFFFFF DUP3 GT ISZERO PUSH2 0x9C1 JUMPI PUSH2 0x9C0 PUSH2 0x92F JUMP JUMPDEST JUMPDEST PUSH1 0x20 DUP3 MUL SWAP1 POP PUSH1 0x20 DUP2 ADD SWAP1 POP SWAP2 SWAP1 POP JUMP JUMPDEST PUSH0 DUP1 REVERT JUMPDEST PUSH2 0x9DF DUP2 PUSH2 0x898 JUMP JUMPDEST DUP2 EQ PUSH2 0x9E9 JUMPI PUSH0 DUP1 REVERT JUMPDEST POP JUMP JUMPDEST PUSH0 DUP2 CALLDATALOAD SWAP1 POP PUSH2 0x9FA DUP2 PUSH2 0x9D6 JUMP JUMPDEST SWAP3 SWAP2 POP POP JUMP JUMPDEST PUSH0 PUSH2 0xA12 PUSH2 0xA0D DUP5 PUSH2 0x9A7 JUMP JUMPDEST PUSH2 0x98D JUMP JUMPDEST SWAP1 POP DUP1 DUP4 DUP3 MSTORE PUSH1 0x20 DUP3 ADD SWAP1 POP PUSH1 0x20 DUP5 MUL DUP4 ADD DUP6 DUP2 GT ISZERO PUSH2 0xA35 JUMPI PUSH2 0xA34 PUSH2 0x9D2 JUMP JUMPDEST JUMPDEST DUP4 JUMPDEST DUP2 DUP2 LT ISZERO PUSH2 0xA5E JUMPI DUP1 PUSH2 0xA4A DUP9 DUP3 PUSH2 0x9EC JUMP JUMPDEST DUP5 MSTORE PUSH1 0x20 DUP5 ADD SWAP4 POP POP PUSH1 0x20 DUP2 ADD SWAP1 POP PUSH2 0xA37 JUMP JUMPDEST POP POP POP SWAP4 SWAP3 POP POP POP JUMP JUMPDEST PUSH0 DUP3 PUSH1 0x1F DUP4 ADD SLT PUSH2 0xA7C JUMPI PUSH2 0xA7B PUSH2 0x91B JUMP JUMPDEST JUMPDEST DUP2 CALLDATALOAD PUSH2 0xA8C DUP5 DUP3 PUSH1 0x20 DUP7 ADD PUSH2 0xA00 JUMP JUMPDEST SWAP2 POP POP SWAP3 SWAP2 POP POP JUMP JUMPDEST PUSH0 PUSH8 0xFFFFFFFFFFFFFFFF DUP3 GT ISZERO PUSH2 0xAAF JUMPI PUSH2 0xAAE PUSH2 0x92F JUMP JUMPDEST JUMPDEST PUSH1 0x20 DUP3 MUL SWAP1 POP PUSH1 0x20 DUP2 ADD SWAP1 POP SWAP2 SWAP1 POP JUMP JUMPDEST PUSH0 DUP1 REVERT JUMPDEST PUSH0 PUSH8 0xFFFFFFFFFFFFFFFF DUP3 GT ISZERO PUSH2 0xADE JUMPI PUSH2 0xADD PUSH2 0x92F JUMP JUMPDEST JUMPDEST PUSH2 0xAE7 DUP3 PUSH2 0x91F JUMP JUMPDEST SWAP1 POP PUSH1 0x20 DUP2 ADD SWAP1 POP SWAP2 SWAP1 POP JUMP JUMPDEST DUP3 DUP2 DUP4 CALLDATACOPY PUSH0 DUP4 DUP4 ADD MSTORE POP POP POP JUMP JUMPDEST PUSH0 PUSH2 0xB14 PUSH2 0xB0F DUP5 PUSH2 0xAC4 JUMP JUMPDEST PUSH2 0x98D JUMP JUMPDEST SWAP1 POP DUP3 DUP2 MSTORE PUSH1 0x20 DUP2 ADD DUP5 DUP5 DUP5 ADD GT ISZERO PUSH2 0xB30 JUMPI PUSH2 0xB2F PUSH2 0xAC0 JUMP JUMPDEST JUMPDEST PUSH2 0xB3B DUP5 DUP3 DUP6 PUSH2 0xAF4 JUMP JUMPDEST POP SWAP4 SWAP3 POP POP POP JUMP JUMPDEST PUSH0 DUP3 PUSH1 0x1F DUP4 ADD SLT PUSH2 0xB57 JUMPI PUSH2 0xB56 PUSH2 0x91B JUMP JUMPDEST JUMPDEST DUP2 CALLDATALOAD PUSH2 0xB67 DUP5 DUP3 PUSH1 0x20 DUP7 ADD PUSH2 0xB02 JUMP JUMPDEST SWAP2 POP POP SWAP3 SWAP2 POP POP JUMP JUMPDEST PUSH0 PUSH2 0xB82 PUSH2 0xB7D DUP5 PUSH2 0xA95 JUMP JUMPDEST PUSH2 0x98D JUMP JUMPDEST SWAP1 POP DUP1 DUP4 DUP3 MSTORE PUSH1 0x20 DUP3 ADD SWAP1 POP PUSH1 0x20 DUP5 MUL DUP4 ADD DUP6 DUP2 GT ISZERO PUSH2 0xBA5 JUMPI PUSH2 0xBA4 PUSH2 0x9D2 JUMP JUMPDEST JUMPDEST DUP4 JUMPDEST DUP2 DUP2 LT ISZERO PUSH2 0xBEC JUMPI DUP1 CALLDATALOAD PUSH8 0xFFFFFFFFFFFFFFFF DUP2 GT ISZERO PUSH2 0xBCA JUMPI PUSH2 0xBC9 PUSH2 0x91B JUMP JUMPDEST JUMPDEST DUP1 DUP7 ADD PUSH2 0xBD7 DUP10 DUP3 PUSH2 0xB43 JUMP JUMPDEST DUP6 MSTORE PUSH1 0x20 DUP6 ADD SWAP5 POP POP POP PUSH1 0x20 DUP2 ADD SWAP1 POP PUSH2 0xBA7 JUMP JUMPDEST POP POP POP SWAP4 SWAP3 POP POP POP JUMP JUMPDEST PUSH0 DUP3 PUSH1 0x1F DUP4 ADD SLT PUSH2 0xC0A JUMPI PUSH2 0xC09 PUSH2 0x91B JUMP JUMPDEST JUMPDEST DUP2 CALLDATALOAD PUSH2 0xC1A DUP5 DUP3 PUSH1 0x20 DUP7 ADD PUSH2 0xB70 JUMP JUMPDEST SWAP2 POP POP SWAP3 SWAP2 POP POP JUMP JUMPDEST PUSH0 PUSH8 0xFFFFFFFFFFFFFFFF DUP3 GT ISZERO PUSH2 0xC3D JUMPI PUSH2 0xC3C PUSH2 0x92F JUMP JUMPDEST JUMPDEST PUSH1 0x20 DUP3 MUL SWAP1 POP PUSH1 0x20 DUP2 ADD SWAP1 POP SWAP2 SWAP1 POP JUMP JUMPDEST PUSH0 PUSH8 0xFFFFFFFFFFFFFFFF DUP3 GT ISZERO PUSH2 0xC68 JUMPI PUSH2 0xC67 PUSH2 0x92F JUMP JUMPDEST JUMPDEST PUSH2 0xC71 DUP3 PUSH2 0x91F JUMP JUMPDEST SWAP1 POP PUSH1 0x20 DUP2 ADD SWAP1 POP SWAP2 SWAP1 POP JUMP JUMPDEST PUSH0 PUSH2 0xC90 PUSH2 0xC8B DUP5 PUSH2 0xC4E JUMP JUMPDEST PUSH2 0x98D JUMP JUMPDEST SWAP1 POP DUP3 DUP2 MSTORE PUSH1 0x20 DUP2 ADD DUP5 DUP5 DUP5 ADD GT ISZERO PUSH2 0xCAC JUMPI PUSH2 0xCAB PUSH2 0xAC0 JUMP JUMPDEST JUMPDEST PUSH2 0xCB7 DUP5 DUP3 DUP6 PUSH2 0xAF4 JUMP JUMPDEST POP SWAP4 SWAP3 POP POP POP JUMP JUMPDEST PUSH0 DUP3 PUSH1 0x1F DUP4 ADD SLT PUSH2 0xCD3 JUMPI PUSH2 0xCD2 PUSH2 0x91B JUMP JUMPDEST JUMPDEST DUP2 CALLDATALOAD PUSH2 0xCE3 DUP5 DUP3 PUSH1 0x20 DUP7 ADD PUSH2 0xC7E JUMP JUMPDEST SWAP2 POP POP SWAP3 SWAP2 POP POP JUMP JUMPDEST PUSH0 PUSH2 0xCFE PUSH2 0xCF9 DUP5 PUSH2 0xC23 JUMP JUMPDEST PUSH2 0x98D JUMP JUMPDEST SWAP1 POP DUP1 DUP4 DUP3 MSTORE PUSH1 0x20 DUP3 ADD SWAP1 POP PUSH1 0x20 DUP5 MUL DUP4 ADD DUP6 DUP2 GT ISZERO PUSH2 0xD21 JUMPI PUSH2 0xD20 PUSH2 0x9D2 JUMP JUMPDEST JUMPDEST DUP4 JUMPDEST DUP2 DUP2 LT ISZERO PUSH2 0xD68 JUMPI DUP1 CALLDATALOAD PUSH8 0xFFFFFFFFFFFFFFFF DUP2 GT ISZERO PUSH2 0xD46 JUMPI PUSH2 0xD45 PUSH2 0x91B JUMP JUMPDEST JUMPDEST DUP1 DUP7 ADD PUSH2 0xD53 DUP10 DUP3 PUSH2 0xCBF JUMP JUMPDEST DUP6 MSTORE PUSH1 0x20 DUP6 ADD SWAP5 POP POP POP PUSH1 0x20 DUP2 ADD SWAP1 POP PUSH2 0xD23 JUMP JUMPDEST POP POP POP SWAP4 SWAP3 POP POP POP JUMP JUMPDEST PUSH0 DUP3 PUSH1 0x1F DUP4 ADD SLT PUSH2 0xD86 JUMPI PUSH2 0xD85 PUSH2 0x91B JUMP JUMPDEST JUMPDEST DUP2 CALLDATALOAD PUSH2 0xD96 DUP5 DUP3 PUSH1 0x20 DUP7 ADD PUSH2 0xCEC JUMP JUMPDEST SWAP2 POP POP SWAP3 SWAP2 POP POP JUMP JUMPDEST PUSH0 DUP1 PUSH0 PUSH1 0x60 DUP5 DUP7 SUB SLT ISZERO PUSH2 0xDB6 JUMPI PUSH2 0xDB5 PUSH2 0x913 JUMP JUMPDEST JUMPDEST PUSH0 DUP5 ADD CALLDATALOAD PUSH8 0xFFFFFFFFFFFFFFFF DUP2 GT ISZERO PUSH2 0xDD3 JUMPI PUSH2 0xDD2 PUSH2 0x917 JUMP JUMPDEST JUMPDEST PUSH2 0xDDF DUP7 DUP3 DUP8 ADD PUSH2 0xA68 JUMP JUMPDEST SWAP4 POP POP PUSH1 0x20 DUP5 ADD CALLDATALOAD PUSH8 0xFFFFFFFFFFFFFFFF DUP2 GT ISZERO PUSH2 0xE00 JUMPI PUSH2 0xDFF PUSH2 0x917 JUMP JUMPDEST JUMPDEST PUSH2 0xE0C DUP7 DUP3 DUP8 ADD PUSH2 0xBF6 JUMP JUMPDEST SWAP3 POP POP PUSH1 0x40 DUP5 ADD CALLDATALOAD PUSH8 0xFFFFFFFFFFFFFFFF DUP2 GT ISZERO PUSH2 0xE2D JUMPI PUSH2 0xE2C PUSH2 0x917 JUMP JUMPDEST JUMPDEST PUSH2 0xE39 DUP7 DUP3 DUP8 ADD PUSH2 0xD72 JUMP JUMPDEST SWAP2 POP POP SWAP3 POP SWAP3 POP SWAP3 JUMP JUMPDEST PUSH0 DUP1 PUSH0 PUSH1 0x60 DUP5 DUP7 SUB SLT ISZERO PUSH2 0xE5A JUMPI PUSH2 0xE59 PUSH2 0x913 JUMP JUMPDEST JUMPDEST PUSH0 PUSH2 0xE67 DUP7 DUP3 DUP8 ADD PUSH2 0x9EC JUMP JUMPDEST SWAP4 POP POP PUSH1 0x20 DUP5 ADD CALLDATALOAD PUSH8 0xFFFFFFFFFFFFFFFF DUP2 GT ISZERO PUSH2 0xE88 JUMPI PUSH2 0xE87 PUSH2 0x917 JUMP JUMPDEST JUMPDEST PUSH2 0xE94 DUP7 DUP3 DUP8 ADD PUSH2 0xCBF JUMP JUMPDEST SWAP3 POP POP PUSH1 0x40 DUP5 ADD CALLDATALOAD PUSH8 0xFFFFFFFFFFFFFFFF DUP2 GT ISZERO PUSH2 0xEB5 JUMPI PUSH2 0xEB4 PUSH2 0x917 JUMP JUMPDEST JUMPDEST PUSH2 0xEC1 DUP7 DUP3 DUP8 ADD PUSH2 0xB43 JUMP JUMPDEST SWAP2 POP POP SWAP3 POP SWAP3 POP SWAP3 JUMP JUMPDEST PUSH0 DUP2 SWAP1 POP SWAP2 SWAP1 POP JUMP JUMPDEST PUSH2 0xEDD DUP2 PUSH2 0xECB JUMP JUMPDEST DUP3 MSTORE POP POP JUMP JUMPDEST PUSH0 PUSH1 0x20 DUP3 ADD SWAP1 POP PUSH2 0xEF6 PUSH0 DUP4 ADD DUP5 PUSH2 0xED4 JUMP JUMPDEST SWAP3 SWAP2 POP POP JUMP JUMPDEST PUSH2 0xF05 DUP2 PUSH2 0x8D1 JUMP JUMPDEST DUP2 EQ PUSH2 0xF0F JUMPI PUSH0 DUP1 REVERT JUMPDEST POP JUMP JUMPDEST PUSH0 DUP2 CALLDATALOAD SWAP1 POP PUSH2 0xF20 DUP2 PUSH2 0xEFC JUMP JUMPDEST SWAP3 SWAP2 POP POP JUMP JUMPDEST PUSH0 PUSH1 0x20 DUP3 DUP5 SUB SLT ISZERO PUSH2 0xF3B JUMPI PUSH2 0xF3A PUSH2 0x913 JUMP JUMPDEST JUMPDEST PUSH0 PUSH2 0xF48 DUP5 DUP3 DUP6 ADD PUSH2 0xF12 JUMP JUMPDEST SWAP2 POP POP SWAP3 SWAP2 POP POP JUMP JUMPDEST PUSH0 DUP3 DUP3 MSTORE PUSH1 0x20 DUP3 ADD SWAP1 POP SWAP3 SWAP2 POP POP JUMP JUMPDEST PUSH32 0x496E76616C69642063616C6C6572000000000000000000000000000000000000 PUSH0 DUP3 ADD MSTORE POP JUMP JUMPDEST PUSH0 PUSH2 0xF95 PUSH1 0xE DUP4 PUSH2 0xF51 JUMP JUMPDEST SWAP2 POP PUSH2 0xFA0 DUP3 PUSH2 0xF61 JUMP JUMPDEST PUSH1 0x20 DUP3 ADD SWAP1 POP SWAP2 SWAP1 POP JUMP JUMPDEST PUSH0 PUSH1 0x20 DUP3 ADD SWAP1 POP DUP2 DUP2 SUB PUSH0 DUP4 ADD MSTORE PUSH2 0xFC2 DUP2 PUSH2 0xF89 JUMP JUMPDEST SWAP1 POP SWAP2 SWAP1 POP JUMP JUMPDEST PUSH32 0x496E76616C696420696E70757400000000000000000000000000000000000000 PUSH0 DUP3 ADD MSTORE POP JUMP JUMPDEST PUSH0 PUSH2 0xFFD PUSH1 0xD DUP4 PUSH2 0xF51 JUMP JUMPDEST SWAP2 POP PUSH2 0x1008 DUP3 PUSH2 0xFC9 JUMP JUMPDEST PUSH1 0x20 DUP3 ADD SWAP1 POP SWAP2 SWAP1 POP JUMP JUMPDEST PUSH0 PUSH1 0x20 DUP3 ADD SWAP1 POP DUP2 DUP2 SUB PUSH0 DUP4 ADD MSTORE PUSH2 0x102A DUP2 PUSH2 0xFF1 JUMP JUMPDEST SWAP1 POP SWAP2 SWAP1 POP JUMP JUMPDEST PUSH32 0x42617463682073697A6520746F6F206C61726765000000000000000000000000 PUSH0 DUP3 ADD MSTORE POP JUMP JUMPDEST PUSH0 PUSH2 0x1065 PUSH1 0x14 DUP4 PUSH2 0xF51 JUMP JUMPDEST SWAP2 POP PUSH2 0x1070 DUP3 PUSH2 0x1031 JUMP JUMPDEST PUSH1 0x20 DUP3 ADD SWAP1 POP SWAP2 SWAP1 POP JUMP JUMPDEST PUSH0 PUSH1 0x20 DUP3 ADD SWAP1 POP DUP2 DUP2 SUB PUSH0 DUP4 ADD MSTORE PUSH2 0x1092 DUP2 PUSH2 0x1059 JUMP JUMPDEST SWAP1 POP SWAP2 SWAP1 POP JUMP JUMPDEST PUSH32 0x4E487B7100000000000000000000000000000000000000000000000000000000 PUSH0 MSTORE PUSH1 0x32 PUSH1 0x4 MSTORE PUSH1 0x24 PUSH0 REVERT JUMPDEST PUSH32 0x4E487B7100000000000000000000000000000000000000000000000000000000 PUSH0 MSTORE PUSH1 0x11 PUSH1 0x4 MSTORE PUSH1 0x24 PUSH0 REVERT JUMPDEST PUSH0 PUSH2 0x10FD DUP3 PUSH2 0xECB JUMP JUMPDEST SWAP2 POP PUSH32 0xFFFFFFFFFFFFFFFFFFFFFFFFFFFFFFFFFFFFFFFFFFFFFFFFFFFFFFFFFFFFFFFF DUP3 SUB PUSH2 0x112F JUMPI PUSH2 0x112E PUSH2 0x10C6 JUMP JUMPDEST JUMPDEST PUSH1 0x1 DUP3 ADD SWAP1 POP SWAP2 SWAP1 POP JUMP JUMPDEST PUSH0 DUP2 SWAP1 POP SWAP2 SWAP1 POP JUMP JUMPDEST PUSH2 0x114C DUP2 PUSH2 0x113A JUMP JUMPDEST DUP3 MSTORE POP POP JUMP JUMPDEST PUSH0 PUSH1 0xFF DUP3 AND SWAP1 POP SWAP2 SWAP1 POP JUMP JUMPDEST PUSH2 0x1167 DUP2 PUSH2 0x1152 JUMP JUMPDEST DUP3 MSTORE POP POP JUMP JUMPDEST PUSH0 PUSH1 0x80 DUP3 ADD SWAP1 POP PUSH2 0x1180 PUSH0 DUP4 ADD DUP8 PUSH2 0x1143 JUMP JUMPDEST PUSH2 0x118D PUSH1 0x20 DUP4 ADD DUP7 PUSH2 0x115E JUMP JUMPDEST PUSH2 0x119A PUSH1 0x40 DUP4 ADD DUP6 PUSH2 0x1143 JUMP JUMPDEST PUSH2 0x11A7 PUSH1 0x60 DUP4 ADD DUP5 PUSH2 0x1143 JUMP JUMPDEST SWAP6 SWAP5 POP POP POP POP POP JUMP JUMPDEST PUSH32 0x496E76616C6964207369676E6174757265000000000000000000000000000000 PUSH0 DUP3 ADD MSTORE POP JUMP JUMPDEST PUSH0 PUSH2 0x11E4 PUSH1 0x11 DUP4 PUSH2 0xF51 JUMP JUMPDEST SWAP2 POP PUSH2 0x11EF DUP3 PUSH2 0x11B0 JUMP JUMPDEST PUSH1 0x20 DUP3 ADD SWAP1 POP SWAP2 SWAP1 POP JUMP JUMPDEST PUSH0 PUSH1 0x20 DUP3 ADD SWAP1 POP DUP2 DUP2 SUB PUSH0 DUP4 ADD MSTORE PUSH2 0x1211 DUP2 PUSH2 0x11D8 JUMP JUMPDEST SWAP1 POP SWAP2 SWAP1 POP JUMP JUMPDEST PUSH0 DUP2 SWAP1 POP SWAP3 SWAP2 POP POP JUMP JUMPDEST PUSH32 0x19457468657265756D205369676E6564204D6573736167653A0A000000000000 PUSH0 DUP3 ADD MSTORE POP JUMP JUMPDEST PUSH0 PUSH2 0x1256 PUSH1 0x1A DUP4 PUSH2 0x1218 JUMP JUMPDEST SWAP2 POP PUSH2 0x1261 DUP3 PUSH2 0x1222 JUMP JUMPDEST PUSH1 0x1A DUP3 ADD SWAP1 POP SWAP2 SWAP1 POP JUMP JUMPDEST PUSH0 DUP2 MLOAD SWAP1 POP SWAP2 SWAP1 POP JUMP JUMPDEST PUSH0 JUMPDEST DUP4 DUP2 LT ISZERO PUSH2 0x1293 JUMPI DUP1 DUP3 ADD MLOAD DUP2 DUP5 ADD MSTORE PUSH1 0x20 DUP2 ADD SWAP1 POP PUSH2 0x1278 JUMP JUMPDEST PUSH0 DUP5 DUP5 ADD MSTORE POP POP POP POP JUMP JUMPDEST PUSH0 PUSH2 0x12A8 DUP3 PUSH2 0x126C JUMP JUMPDEST PUSH2 0x12B2 DUP2 DUP6 PUSH2 0x1218 JUMP JUMPDEST SWAP4 POP PUSH2 0x12C2 DUP2 DUP6 PUSH1 0x20 DUP7 ADD PUSH2 0x1276 JUMP JUMPDEST DUP1 DUP5 ADD SWAP2 POP POP SWAP3 SWAP2 POP POP JUMP JUMPDEST PUSH0 PUSH2 0x12D8 DUP3 PUSH2 0x124A JUMP JUMPDEST SWAP2 POP PUSH2 0x12E4 DUP3 DUP6 PUSH2 0x129E JUMP JUMPDEST SWAP2 POP PUSH2 0x12F0 DUP3 DUP5 PUSH2 0x129E JUMP JUMPDEST SWAP2 POP DUP2 SWAP1 POP SWAP4 SWAP3 POP POP POP JUMP JUMPDEST PUSH32 0x496E76616C6964207369676E6174757265206C656E6774680000000000000000 PUSH0 DUP3 ADD MSTORE POP JUMP JUMPDEST PUSH0 PUSH2 0x1330 PUSH1 0x18 DUP4 PUSH2 0xF51 JUMP JUMPDEST SWAP2 POP PUSH2 0x133B DUP3 PUSH2 0x12FC JUMP JUMPDEST PUSH1 0x20 DUP3 ADD SWAP1 POP SWAP2 SWAP1 POP JUMP JUMPDEST PUSH0 PUSH1 0x20 DUP3 ADD SWAP1 POP DUP2 DUP2 SUB PUSH0 DUP4 ADD MSTORE PUSH2 0x135D DUP2 PUSH2 0x1324 JUMP JUMPDEST SWAP1 POP SWAP2 SWAP1 POP JUMP JUMPDEST PUSH0 PUSH2 0x136E DUP3 PUSH2 0x1152 JUMP JUMPDEST SWAP2 POP PUSH2 0x1379 DUP4 PUSH2 0x1152 JUMP JUMPDEST SWAP3 POP DUP3 DUP3 ADD SWAP1 POP PUSH1 0xFF DUP2 GT ISZERO PUSH2 0x1392 JUMPI PUSH2 0x1391 PUSH2 0x10C6 JUMP JUMPDEST JUMPDEST SWAP3 SWAP2 POP POP JUMP JUMPDEST PUSH32 0x496E76616C6964207369676E61747572652076657273696F6E00000000000000 PUSH0 DUP3 ADD MSTORE POP JUMP JUMPDEST PUSH0 PUSH2 0x13CC PUSH1 0x19 DUP4 PUSH2 0xF51 JUMP JUMPDEST SWAP2 POP PUSH2 0x13D7 DUP3 PUSH2 0x1398 JUMP JUMPDEST PUSH1 0x20 DUP3 ADD SWAP1 POP SWAP2 SWAP1 POP JUMP JUMPDEST PUSH0 PUSH1 0x20 DUP3 ADD SWAP1 POP DUP2 DUP2 SUB PUSH0 DUP4 ADD MSTORE PUSH2 0x13F9 DUP2 PUSH2 0x13C0 JUMP JUMPDEST SWAP1 POP SWAP2 SWAP1 POP JUMP JUMPDEST PUSH32 0x4E487B7100000000000000000000000000000000000000000000000000000000 PUSH0 MSTORE PUSH1 0x12 PUSH1 0x4 MSTORE PUSH1 0x24 PUSH0 REVERT INVALID LOG2 PUSH5 0x6970667358 0x22 SLT KECCAK256 PUSH8 0x4D93B8FC1E6DCDC4 BASEFEE PUSH29 0xA028DA3E95E0EE8BB95446F88E35C0DC3D03C3397F64736F6C63430008 EQ STOP CALLER "
				},
				"gasEstimates": {
					"creation": {
						"codeDepositCost": "1043800",
						"executionCost": "25350",
						"totalCost": "1069150"
					},
					"external": {
						"checkGas()": "397",
						"marketAddress()": "2505",
						"owner()": "2486",
						"processBatchTransactions(address[],bytes[],string[])": "infinite",
						"setMarketAddress(address)": "26972",
						"signTransaction(address,string,bytes)": "infinite"
					},
					"internal": {
						"getEthSignMsgHash(string memory)": "infinite",
						"splitSign(bytes memory)": "infinite"
					}
				},
				"methodIdentifiers": {
					"checkGas()": "eca7ed0a",
					"marketAddress()": "95623641",
					"owner()": "8da5cb5b",
					"processBatchTransactions(address[],bytes[],string[])": "95db67e4",
					"setMarketAddress(address)": "fae92612",
					"signTransaction(address,string,bytes)": "95e0e0c9"
				}
			},
			"storageLayout": {
				"storage": [
					{
						"astId": 1418,
						"contract": "frontend/src/contracts/MetaTransaction.sol:MetaTransaction",
						"label": "marketAddress",
						"offset": 0,
						"slot": "0",
						"type": "t_address_payable"
					},
					{
						"astId": 1420,
						"contract": "frontend/src/contracts/MetaTransaction.sol:MetaTransaction",
						"label": "owner",
						"offset": 0,
						"slot": "1",
						"type": "t_address"
					}
				],
				"types": {
					"t_address": {
						"encoding": "inplace",
						"label": "address",
						"numberOfBytes": "20"
					},
					"t_address_payable": {
						"encoding": "inplace",
						"label": "address payable",
						"numberOfBytes": "20"
					}
				}
			},
			"userdoc": {
				"kind": "user",
				"methods": {},
				"version": 1
			}
		}
	}
}