{
	"Escrow.sol": {
		"NaegiftEscrow": {
			"abi": [
				{
					"inputs": [
						{
							"internalType": "address",
							"name": "_buyer",
							"type": "address"
						},
						{
							"internalType": "address",
							"name": "_seller",
							"type": "address"
						},
						{
							"internalType": "address",
							"name": "_receiver",
							"type": "address"
						},
						{
							"internalType": "address",
							"name": "_market",
							"type": "address"
						},
						{
							"internalType": "uint256",
							"name": "_contractPrice",
							"type": "uint256"
						}
					],
					"stateMutability": "payable",
					"type": "constructor"
				},
				{
					"anonymous": false,
					"inputs": [
						{
							"indexed": true,
							"internalType": "address",
							"name": "market",
							"type": "address"
						}
					],
					"name": "FulfillmentConfirmed",
					"type": "event"
				},
				{
					"anonymous": false,
					"inputs": [
						{
							"indexed": true,
							"internalType": "address",
							"name": "market",
							"type": "address"
						},
						{
							"indexed": false,
							"internalType": "uint256",
							"name": "marketShare",
							"type": "uint256"
						},
						{
							"indexed": true,
							"internalType": "address",
							"name": "seller",
							"type": "address"
						},
						{
							"indexed": false,
							"internalType": "uint256",
							"name": "sellerShare",
							"type": "uint256"
						}
					],
					"name": "FundsDistributed",
					"type": "event"
				},
				{
					"anonymous": false,
					"inputs": [
						{
							"indexed": true,
							"internalType": "address",
							"name": "receiver",
							"type": "address"
						}
					],
					"name": "ProductUsedConfirmed",
					"type": "event"
				},
				{
					"inputs": [],
					"name": "buyer",
					"outputs": [
						{
							"internalType": "address",
							"name": "",
							"type": "address"
						}
					],
					"stateMutability": "view",
					"type": "function"
				},
				{
					"inputs": [],
					"name": "confirmFulfillment",
					"outputs": [],
					"stateMutability": "nonpayable",
					"type": "function"
				},
				{
					"inputs": [],
					"name": "confirmProductUsed",
					"outputs": [],
					"stateMutability": "nonpayable",
					"type": "function"
				},
				{
					"inputs": [],
					"name": "contractPrice",
					"outputs": [
						{
							"internalType": "uint256",
							"name": "",
							"type": "uint256"
						}
					],
					"stateMutability": "view",
					"type": "function"
				},
				{
					"inputs": [],
					"name": "contractState",
					"outputs": [
						{
							"internalType": "enum NaegiftEscrow.ContractStateChoices",
							"name": "",
							"type": "uint8"
						}
					],
					"stateMutability": "view",
					"type": "function"
				},
				{
					"inputs": [],
					"name": "escrowStatus",
					"outputs": [
						{
							"internalType": "enum NaegiftEscrow.ContractStateChoices",
							"name": "",
							"type": "uint8"
						}
					],
					"stateMutability": "view",
					"type": "function"
				},
				{
					"inputs": [],
					"name": "market",
					"outputs": [
						{
							"internalType": "address",
							"name": "",
							"type": "address"
						}
					],
					"stateMutability": "view",
					"type": "function"
				},
				{
					"inputs": [],
					"name": "receiver",
					"outputs": [
						{
							"internalType": "address",
							"name": "",
							"type": "address"
						}
					],
					"stateMutability": "view",
					"type": "function"
				},
				{
					"inputs": [],
					"name": "seller",
					"outputs": [
						{
							"internalType": "address",
							"name": "",
							"type": "address"
						}
					],
					"stateMutability": "view",
					"type": "function"
				},
				{
					"stateMutability": "payable",
					"type": "receive"
				}
			],
			"devdoc": {
				"kind": "dev",
				"methods": {},
				"version": 1
			},
			"evm": {
				"assembly": "    /* \"Escrow.sol\":58:2481  contract NaegiftEscrow {... */\n  mstore(0x40, 0x0120)\n    /* \"Escrow.sol\":691:1228  constructor(... */\n  mload(0x40)\n  sub(codesize, bytecodeSize)\n  dup1\n  bytecodeSize\n  dup4\n  codecopy\n  dup2\n  dup2\n  add\n  0x40\n  mstore\n  dup2\n  add\n  swap1\n  tag_1\n  swap2\n  swap1\n  tag_2\n  jump\t// in\ntag_1:\n    /* \"Escrow.sol\":878:885  _seller */\n  dup4\n    /* \"Escrow.sol\":868:885  _buyer != _seller */\n  0xffffffffffffffffffffffffffffffffffffffff\n  and\n    /* \"Escrow.sol\":868:874  _buyer */\n  dup6\n    /* \"Escrow.sol\":868:885  _buyer != _seller */\n  0xffffffffffffffffffffffffffffffffffffffff\n  and\n  eq\n  iszero\n    /* \"Escrow.sol\":868:916  _buyer != _seller &&  ... */\n  dup1\n  iszero\n  tag_5\n  jumpi\n  pop\n    /* \"Escrow.sol\":909:916  _market */\n  dup2\n    /* \"Escrow.sol\":899:916  _buyer != _market */\n  0xffffffffffffffffffffffffffffffffffffffff\n  and\n    /* \"Escrow.sol\":899:905  _buyer */\n  dup6\n    /* \"Escrow.sol\":899:916  _buyer != _market */\n  0xffffffffffffffffffffffffffffffffffffffff\n  and\n  eq\n  iszero\n    /* \"Escrow.sol\":868:916  _buyer != _seller &&  ... */\ntag_5:\n    /* \"Escrow.sol\":868:949  _buyer != _seller &&  ... */\n  dup1\n  iszero\n  tag_6\n  jumpi\n  pop\n    /* \"Escrow.sol\":940:949  _receiver */\n  dup3\n    /* \"Escrow.sol\":929:949  _seller != _receiver */\n  0xffffffffffffffffffffffffffffffffffffffff\n  and\n    /* \"Escrow.sol\":929:936  _seller */\n  dup5\n    /* \"Escrow.sol\":929:949  _seller != _receiver */\n  0xffffffffffffffffffffffffffffffffffffffff\n  and\n  eq\n  iszero\n    /* \"Escrow.sol\":868:949  _buyer != _seller &&  ... */\ntag_6:\n    /* \"Escrow.sol\":868:980  _buyer != _seller &&  ... */\n  dup1\n  iszero\n  tag_7\n  jumpi\n  pop\n    /* \"Escrow.sol\":973:980  _market */\n  dup2\n    /* \"Escrow.sol\":962:980  _seller != _market */\n  0xffffffffffffffffffffffffffffffffffffffff\n  and\n    /* \"Escrow.sol\":962:969  _seller */\n  dup5\n    /* \"Escrow.sol\":962:980  _seller != _market */\n  0xffffffffffffffffffffffffffffffffffffffff\n  and\n  eq\n  iszero\n    /* \"Escrow.sol\":868:980  _buyer != _seller &&  ... */\ntag_7:\n    /* \"Escrow.sol\":868:1013  _buyer != _seller &&  ... */\n  dup1\n  iszero\n  tag_8\n  jumpi\n  pop\n    /* \"Escrow.sol\":1006:1013  _market */\n  dup2\n    /* \"Escrow.sol\":993:1013  _receiver != _market */\n  0xffffffffffffffffffffffffffffffffffffffff\n  and\n    /* \"Escrow.sol\":993:1002  _receiver */\n  dup4\n    /* \"Escrow.sol\":993:1013  _receiver != _market */\n  0xffffffffffffffffffffffffffffffffffffffff\n  and\n  eq\n  iszero\n    /* \"Escrow.sol\":868:1013  _buyer != _seller &&  ... */\ntag_8:\n    /* \"Escrow.sol\":860:1022  require(_buyer != _seller &&  ... */\n  tag_9\n  jumpi\n  mload(0x40)\n  0x08c379a000000000000000000000000000000000000000000000000000000000\n  dup2\n  mstore\n  0x04\n  add\n  tag_10\n  swap1\n  tag_11\n  jump\t// in\ntag_10:\n  mload(0x40)\n  dup1\n  swap2\n  sub\n  swap1\n  revert\ntag_9:\n    /* \"Escrow.sol\":1040:1046  _buyer */\n  dup5\n    /* \"Escrow.sol\":1032:1046  buyer = _buyer */\n  0xffffffffffffffffffffffffffffffffffffffff\n  and\n  0x80\n  dup2\n  0xffffffffffffffffffffffffffffffffffffffff\n  and\n  dup2\n  mstore\n  pop\n  pop\n    /* \"Escrow.sol\":1065:1072  _seller */\n  dup4\n    /* \"Escrow.sol\":1056:1072  seller = _seller */\n  0xffffffffffffffffffffffffffffffffffffffff\n  and\n  0xa0\n  dup2\n  0xffffffffffffffffffffffffffffffffffffffff\n  and\n  dup2\n  mstore\n  pop\n  pop\n    /* \"Escrow.sol\":1093:1102  _receiver */\n  dup3\n    /* \"Escrow.sol\":1082:1102  receiver = _receiver */\n  0xffffffffffffffffffffffffffffffffffffffff\n  and\n  0xc0\n  dup2\n  0xffffffffffffffffffffffffffffffffffffffff\n  and\n  dup2\n  mstore\n  pop\n  pop\n    /* \"Escrow.sol\":1121:1128  _market */\n  dup2\n    /* \"Escrow.sol\":1112:1128  market = _market */\n  0xffffffffffffffffffffffffffffffffffffffff\n  and\n  0xe0\n  dup2\n  0xffffffffffffffffffffffffffffffffffffffff\n  and\n  dup2\n  mstore\n  pop\n  pop\n    /* \"Escrow.sol\":1154:1168  _contractPrice */\n  dup1\n    /* \"Escrow.sol\":1138:1168  contractPrice = _contractPrice */\n  0x0100\n  dup2\n  dup2\n  mstore\n  pop\n  pop\n    /* \"Escrow.sol\":1194:1221  ContractStateChoices.ACTIVE */\n  0x01\n    /* \"Escrow.sol\":1178:1191  contractState */\n  0x00\n  dup1\n    /* \"Escrow.sol\":1178:1221  contractState = ContractStateChoices.ACTIVE */\n  0x0100\n  exp\n  dup2\n  sload\n  dup2\n  0xff\n  mul\n  not\n  and\n  swap1\n  dup4\n  0x04\n  dup2\n  gt\n  iszero\n  tag_12\n  jumpi\n  tag_13\n  tag_14\n  jump\t// in\ntag_13:\ntag_12:\n  mul\n  or\n  swap1\n  sstore\n  pop\n    /* \"Escrow.sol\":691:1228  constructor(... */\n  pop\n  pop\n  pop\n  pop\n  pop\n    /* \"Escrow.sol\":58:2481  contract NaegiftEscrow {... */\n  jump(tag_15)\n    /* \"#utility.yul\":88:205   */\ntag_17:\n    /* \"#utility.yul\":197:198   */\n  0x00\n    /* \"#utility.yul\":194:195   */\n  dup1\n    /* \"#utility.yul\":187:199   */\n  revert\n    /* \"#utility.yul\":334:460   */\ntag_19:\n    /* \"#utility.yul\":371:378   */\n  0x00\n    /* \"#utility.yul\":411:453   */\n  0xffffffffffffffffffffffffffffffffffffffff\n    /* \"#utility.yul\":404:409   */\n  dup3\n    /* \"#utility.yul\":400:454   */\n  and\n    /* \"#utility.yul\":389:454   */\n  swap1\n  pop\n    /* \"#utility.yul\":334:460   */\n  swap2\n  swap1\n  pop\n  jump\t// out\n    /* \"#utility.yul\":466:562   */\ntag_20:\n    /* \"#utility.yul\":503:510   */\n  0x00\n    /* \"#utility.yul\":532:556   */\n  tag_35\n    /* \"#utility.yul\":550:555   */\n  dup3\n    /* \"#utility.yul\":532:556   */\n  tag_19\n  jump\t// in\ntag_35:\n    /* \"#utility.yul\":521:556   */\n  swap1\n  pop\n    /* \"#utility.yul\":466:562   */\n  swap2\n  swap1\n  pop\n  jump\t// out\n    /* \"#utility.yul\":568:690   */\ntag_21:\n    /* \"#utility.yul\":641:665   */\n  tag_37\n    /* \"#utility.yul\":659:664   */\n  dup2\n    /* \"#utility.yul\":641:665   */\n  tag_20\n  jump\t// in\ntag_37:\n    /* \"#utility.yul\":634:639   */\n  dup2\n    /* \"#utility.yul\":631:666   */\n  eq\n    /* \"#utility.yul\":621:684   */\n  tag_38\n  jumpi\n    /* \"#utility.yul\":680:681   */\n  0x00\n    /* \"#utility.yul\":677:678   */\n  dup1\n    /* \"#utility.yul\":670:682   */\n  revert\n    /* \"#utility.yul\":621:684   */\ntag_38:\n    /* \"#utility.yul\":568:690   */\n  pop\n  jump\t// out\n    /* \"#utility.yul\":696:839   */\ntag_22:\n    /* \"#utility.yul\":753:758   */\n  0x00\n    /* \"#utility.yul\":784:790   */\n  dup2\n    /* \"#utility.yul\":778:791   */\n  mload\n    /* \"#utility.yul\":769:791   */\n  swap1\n  pop\n    /* \"#utility.yul\":800:833   */\n  tag_40\n    /* \"#utility.yul\":827:832   */\n  dup2\n    /* \"#utility.yul\":800:833   */\n  tag_21\n  jump\t// in\ntag_40:\n    /* \"#utility.yul\":696:839   */\n  swap3\n  swap2\n  pop\n  pop\n  jump\t// out\n    /* \"#utility.yul\":845:922   */\ntag_23:\n    /* \"#utility.yul\":882:889   */\n  0x00\n    /* \"#utility.yul\":911:916   */\n  dup2\n    /* \"#utility.yul\":900:916   */\n  swap1\n  pop\n    /* \"#utility.yul\":845:922   */\n  swap2\n  swap1\n  pop\n  jump\t// out\n    /* \"#utility.yul\":928:1050   */\ntag_24:\n    /* \"#utility.yul\":1001:1025   */\n  tag_43\n    /* \"#utility.yul\":1019:1024   */\n  dup2\n    /* \"#utility.yul\":1001:1025   */\n  tag_23\n  jump\t// in\ntag_43:\n    /* \"#utility.yul\":994:999   */\n  dup2\n    /* \"#utility.yul\":991:1026   */\n  eq\n    /* \"#utility.yul\":981:1044   */\n  tag_44\n  jumpi\n    /* \"#utility.yul\":1040:1041   */\n  0x00\n    /* \"#utility.yul\":1037:1038   */\n  dup1\n    /* \"#utility.yul\":1030:1042   */\n  revert\n    /* \"#utility.yul\":981:1044   */\ntag_44:\n    /* \"#utility.yul\":928:1050   */\n  pop\n  jump\t// out\n    /* \"#utility.yul\":1056:1199   */\ntag_25:\n    /* \"#utility.yul\":1113:1118   */\n  0x00\n    /* \"#utility.yul\":1144:1150   */\n  dup2\n    /* \"#utility.yul\":1138:1151   */\n  mload\n    /* \"#utility.yul\":1129:1151   */\n  swap1\n  pop\n    /* \"#utility.yul\":1160:1193   */\n  tag_46\n    /* \"#utility.yul\":1187:1192   */\n  dup2\n    /* \"#utility.yul\":1160:1193   */\n  tag_24\n  jump\t// in\ntag_46:\n    /* \"#utility.yul\":1056:1199   */\n  swap3\n  swap2\n  pop\n  pop\n  jump\t// out\n    /* \"#utility.yul\":1205:2182   */\ntag_2:\n    /* \"#utility.yul\":1311:1317   */\n  0x00\n    /* \"#utility.yul\":1319:1325   */\n  dup1\n    /* \"#utility.yul\":1327:1333   */\n  0x00\n    /* \"#utility.yul\":1335:1341   */\n  dup1\n    /* \"#utility.yul\":1343:1349   */\n  0x00\n    /* \"#utility.yul\":1392:1395   */\n  0xa0\n    /* \"#utility.yul\":1380:1389   */\n  dup7\n    /* \"#utility.yul\":1371:1378   */\n  dup9\n    /* \"#utility.yul\":1367:1390   */\n  sub\n    /* \"#utility.yul\":1363:1396   */\n  slt\n    /* \"#utility.yul\":1360:1480   */\n  iszero\n  tag_48\n  jumpi\n    /* \"#utility.yul\":1399:1478   */\n  tag_49\n  tag_17\n  jump\t// in\ntag_49:\n    /* \"#utility.yul\":1360:1480   */\ntag_48:\n    /* \"#utility.yul\":1519:1520   */\n  0x00\n    /* \"#utility.yul\":1544:1608   */\n  tag_50\n    /* \"#utility.yul\":1600:1607   */\n  dup9\n    /* \"#utility.yul\":1591:1597   */\n  dup3\n    /* \"#utility.yul\":1580:1589   */\n  dup10\n    /* \"#utility.yul\":1576:1598   */\n  add\n    /* \"#utility.yul\":1544:1608   */\n  tag_22\n  jump\t// in\ntag_50:\n    /* \"#utility.yul\":1534:1608   */\n  swap6\n  pop\n    /* \"#utility.yul\":1490:1618   */\n  pop\n    /* \"#utility.yul\":1657:1659   */\n  0x20\n    /* \"#utility.yul\":1683:1747   */\n  tag_51\n    /* \"#utility.yul\":1739:1746   */\n  dup9\n    /* \"#utility.yul\":1730:1736   */\n  dup3\n    /* \"#utility.yul\":1719:1728   */\n  dup10\n    /* \"#utility.yul\":1715:1737   */\n  add\n    /* \"#utility.yul\":1683:1747   */\n  tag_22\n  jump\t// in\ntag_51:\n    /* \"#utility.yul\":1673:1747   */\n  swap5\n  pop\n    /* \"#utility.yul\":1628:1757   */\n  pop\n    /* \"#utility.yul\":1796:1798   */\n  0x40\n    /* \"#utility.yul\":1822:1886   */\n  tag_52\n    /* \"#utility.yul\":1878:1885   */\n  dup9\n    /* \"#utility.yul\":1869:1875   */\n  dup3\n    /* \"#utility.yul\":1858:1867   */\n  dup10\n    /* \"#utility.yul\":1854:1876   */\n  add\n    /* \"#utility.yul\":1822:1886   */\n  tag_22\n  jump\t// in\ntag_52:\n    /* \"#utility.yul\":1812:1886   */\n  swap4\n  pop\n    /* \"#utility.yul\":1767:1896   */\n  pop\n    /* \"#utility.yul\":1935:1937   */\n  0x60\n    /* \"#utility.yul\":1961:2025   */\n  tag_53\n    /* \"#utility.yul\":2017:2024   */\n  dup9\n    /* \"#utility.yul\":2008:2014   */\n  dup3\n    /* \"#utility.yul\":1997:2006   */\n  dup10\n    /* \"#utility.yul\":1993:2015   */\n  add\n    /* \"#utility.yul\":1961:2025   */\n  tag_22\n  jump\t// in\ntag_53:\n    /* \"#utility.yul\":1951:2025   */\n  swap3\n  pop\n    /* \"#utility.yul\":1906:2035   */\n  pop\n    /* \"#utility.yul\":2074:2077   */\n  0x80\n    /* \"#utility.yul\":2101:2165   */\n  tag_54\n    /* \"#utility.yul\":2157:2164   */\n  dup9\n    /* \"#utility.yul\":2148:2154   */\n  dup3\n    /* \"#utility.yul\":2137:2146   */\n  dup10\n    /* \"#utility.yul\":2133:2155   */\n  add\n    /* \"#utility.yul\":2101:2165   */\n  tag_25\n  jump\t// in\ntag_54:\n    /* \"#utility.yul\":2091:2165   */\n  swap2\n  pop\n    /* \"#utility.yul\":2045:2175   */\n  pop\n    /* \"#utility.yul\":1205:2182   */\n  swap3\n  swap6\n  pop\n  swap3\n  swap6\n  swap1\n  swap4\n  pop\n  jump\t// out\n    /* \"#utility.yul\":2188:2357   */\ntag_26:\n    /* \"#utility.yul\":2272:2283   */\n  0x00\n    /* \"#utility.yul\":2306:2312   */\n  dup3\n    /* \"#utility.yul\":2301:2304   */\n  dup3\n    /* \"#utility.yul\":2294:2313   */\n  mstore\n    /* \"#utility.yul\":2346:2350   */\n  0x20\n    /* \"#utility.yul\":2341:2344   */\n  dup3\n    /* \"#utility.yul\":2337:2351   */\n  add\n    /* \"#utility.yul\":2322:2351   */\n  swap1\n  pop\n    /* \"#utility.yul\":2188:2357   */\n  swap3\n  swap2\n  pop\n  pop\n  jump\t// out\n    /* \"#utility.yul\":2363:2517   */\ntag_27:\n    /* \"#utility.yul\":2503:2509   */\n  0x6530303100000000000000000000000000000000000000000000000000000000\n    /* \"#utility.yul\":2499:2500   */\n  0x00\n    /* \"#utility.yul\":2491:2497   */\n  dup3\n    /* \"#utility.yul\":2487:2501   */\n  add\n    /* \"#utility.yul\":2480:2510   */\n  mstore\n    /* \"#utility.yul\":2363:2517   */\n  pop\n  jump\t// out\n    /* \"#utility.yul\":2523:2888   */\ntag_28:\n    /* \"#utility.yul\":2665:2668   */\n  0x00\n    /* \"#utility.yul\":2686:2752   */\n  tag_58\n    /* \"#utility.yul\":2750:2751   */\n  0x04\n    /* \"#utility.yul\":2745:2748   */\n  dup4\n    /* \"#utility.yul\":2686:2752   */\n  tag_26\n  jump\t// in\ntag_58:\n    /* \"#utility.yul\":2679:2752   */\n  swap2\n  pop\n    /* \"#utility.yul\":2761:2854   */\n  tag_59\n    /* \"#utility.yul\":2850:2853   */\n  dup3\n    /* \"#utility.yul\":2761:2854   */\n  tag_27\n  jump\t// in\ntag_59:\n    /* \"#utility.yul\":2879:2881   */\n  0x20\n    /* \"#utility.yul\":2874:2877   */\n  dup3\n    /* \"#utility.yul\":2870:2882   */\n  add\n    /* \"#utility.yul\":2863:2882   */\n  swap1\n  pop\n    /* \"#utility.yul\":2523:2888   */\n  swap2\n  swap1\n  pop\n  jump\t// out\n    /* \"#utility.yul\":2894:3313   */\ntag_11:\n    /* \"#utility.yul\":3060:3064   */\n  0x00\n    /* \"#utility.yul\":3098:3100   */\n  0x20\n    /* \"#utility.yul\":3087:3096   */\n  dup3\n    /* \"#utility.yul\":3083:3101   */\n  add\n    /* \"#utility.yul\":3075:3101   */\n  swap1\n  pop\n    /* \"#utility.yul\":3147:3156   */\n  dup2\n    /* \"#utility.yul\":3141:3145   */\n  dup2\n    /* \"#utility.yul\":3137:3157   */\n  sub\n    /* \"#utility.yul\":3133:3134   */\n  0x00\n    /* \"#utility.yul\":3122:3131   */\n  dup4\n    /* \"#utility.yul\":3118:3135   */\n  add\n    /* \"#utility.yul\":3111:3158   */\n  mstore\n    /* \"#utility.yul\":3175:3306   */\n  tag_61\n    /* \"#utility.yul\":3301:3305   */\n  dup2\n    /* \"#utility.yul\":3175:3306   */\n  tag_28\n  jump\t// in\ntag_61:\n    /* \"#utility.yul\":3167:3306   */\n  swap1\n  pop\n    /* \"#utility.yul\":2894:3313   */\n  swap2\n  swap1\n  pop\n  jump\t// out\n    /* \"#utility.yul\":3319:3499   */\ntag_14:\n    /* \"#utility.yul\":3367:3444   */\n  0x4e487b7100000000000000000000000000000000000000000000000000000000\n    /* \"#utility.yul\":3364:3365   */\n  0x00\n    /* \"#utility.yul\":3357:3445   */\n  mstore\n    /* \"#utility.yul\":3464:3468   */\n  0x21\n    /* \"#utility.yul\":3461:3462   */\n  0x04\n    /* \"#utility.yul\":3454:3469   */\n  mstore\n    /* \"#utility.yul\":3488:3492   */\n  0x24\n    /* \"#utility.yul\":3485:3486   */\n  0x00\n    /* \"#utility.yul\":3478:3493   */\n  revert\n    /* \"Escrow.sol\":58:2481  contract NaegiftEscrow {... */\ntag_15:\n  mload(0x80)\n  mload(0xa0)\n  mload(0xc0)\n  mload(0xe0)\n  mload(0x0100)\n  codecopy(0x00, dataOffset(sub_0), dataSize(sub_0))\n  0x00\n  assignImmutable(\"0x7880aec93413f117ef14bd4e6d130875ab2c7d7d55a064fac3c2f7bd51516380\")\n  0x00\n  assignImmutable(\"0xd2f8f61201b2b11a78d6e866abc9c3db2ae8631fa656bfe5cb53668255367afb\")\n  0x00\n  assignImmutable(\"0x52f1a9b320cab38e5da8a8f97989383aab0a49165fc91c737310e4f7e9821021\")\n  0x00\n  assignImmutable(\"0xceebf77a833b30520287ddd9478ff51abbdffa30aa90a8d655dba0e8a79ce0c1\")\n  0x00\n  assignImmutable(\"0x2a80e1ef1d7842f27f2e6be0972bb708b9a135c38860dbe73c27c3486c34f4de\")\n  return(0x00, dataSize(sub_0))\nstop\n\nsub_0: assembly {\n        /* \"Escrow.sol\":58:2481  contract NaegiftEscrow {... */\n      mstore(0x40, 0x80)\n      jumpi(tag_1, lt(calldatasize, 0x04))\n      shr(0xe0, calldataload(0x00))\n      dup1\n      0x80f55605\n      gt\n      tag_12\n      jumpi\n      dup1\n      0x80f55605\n      eq\n      tag_7\n      jumpi\n      dup1\n      0x85209ee0\n      eq\n      tag_8\n      jumpi\n      dup1\n      0x97e9a0bf\n      eq\n      tag_9\n      jumpi\n      dup1\n      0xd2c9ea03\n      eq\n      tag_10\n      jumpi\n      dup1\n      0xf7260d3e\n      eq\n      tag_11\n      jumpi\n      jump(tag_2)\n    tag_12:\n      dup1\n      0x08551a53\n      eq\n      tag_3\n      jumpi\n      dup1\n      0x18609960\n      eq\n      tag_4\n      jumpi\n      dup1\n      0x4fbc4f60\n      eq\n      tag_5\n      jumpi\n      dup1\n      0x7150d8ae\n      eq\n      tag_6\n      jumpi\n      jump(tag_2)\n    tag_1:\n      jumpi(tag_2, calldatasize)\n      stop\n    tag_2:\n      0x00\n      dup1\n      revert\n        /* \"Escrow.sol\":123:154  address public immutable seller */\n    tag_3:\n      callvalue\n      dup1\n      iszero\n      tag_15\n      jumpi\n      0x00\n      dup1\n      revert\n    tag_15:\n      pop\n      tag_16\n      tag_17\n      jump\t// in\n    tag_16:\n      mload(0x40)\n      tag_18\n      swap2\n      swap1\n      tag_19\n      jump\t// in\n    tag_18:\n      mload(0x40)\n      dup1\n      swap2\n      sub\n      swap1\n      return\n        /* \"Escrow.sol\":2339:2444  function escrowStatus() external view returns(ContractStateChoices) {... */\n    tag_4:\n      callvalue\n      dup1\n      iszero\n      tag_20\n      jumpi\n      0x00\n      dup1\n      revert\n    tag_20:\n      pop\n      tag_21\n      tag_22\n      jump\t// in\n    tag_21:\n      mload(0x40)\n      tag_23\n      swap2\n      swap1\n      tag_24\n      jump\t// in\n    tag_23:\n      mload(0x40)\n      dup1\n      swap2\n      sub\n      swap1\n      return\n        /* \"Escrow.sol\":1569:1868  function confirmProductUsed() external {... */\n    tag_5:\n      callvalue\n      dup1\n      iszero\n      tag_25\n      jumpi\n      0x00\n      dup1\n      revert\n    tag_25:\n      pop\n      tag_26\n      tag_27\n      jump\t// in\n    tag_26:\n      stop\n        /* \"Escrow.sol\":87:117  address public immutable buyer */\n    tag_6:\n      callvalue\n      dup1\n      iszero\n      tag_28\n      jumpi\n      0x00\n      dup1\n      revert\n    tag_28:\n      pop\n      tag_29\n      tag_30\n      jump\t// in\n    tag_29:\n      mload(0x40)\n      tag_31\n      swap2\n      swap1\n      tag_19\n      jump\t// in\n    tag_31:\n      mload(0x40)\n      dup1\n      swap2\n      sub\n      swap1\n      return\n        /* \"Escrow.sol\":199:230  address public immutable market */\n    tag_7:\n      callvalue\n      dup1\n      iszero\n      tag_32\n      jumpi\n      0x00\n      dup1\n      revert\n    tag_32:\n      pop\n      tag_33\n      tag_34\n      jump\t// in\n    tag_33:\n      mload(0x40)\n      tag_35\n      swap2\n      swap1\n      tag_19\n      jump\t// in\n    tag_35:\n      mload(0x40)\n      dup1\n      swap2\n      sub\n      swap1\n      return\n        /* \"Escrow.sol\":410:451  ContractStateChoices public contractState */\n    tag_8:\n      callvalue\n      dup1\n      iszero\n      tag_36\n      jumpi\n      0x00\n      dup1\n      revert\n    tag_36:\n      pop\n      tag_37\n      tag_38\n      jump\t// in\n    tag_37:\n      mload(0x40)\n      tag_39\n      swap2\n      swap1\n      tag_24\n      jump\t// in\n    tag_39:\n      mload(0x40)\n      dup1\n      swap2\n      sub\n      swap1\n      return\n        /* \"Escrow.sol\":236:274  uint256 public immutable contractPrice */\n    tag_9:\n      callvalue\n      dup1\n      iszero\n      tag_40\n      jumpi\n      0x00\n      dup1\n      revert\n    tag_40:\n      pop\n      tag_41\n      tag_42\n      jump\t// in\n    tag_41:\n      mload(0x40)\n      tag_43\n      swap2\n      swap1\n      tag_44\n      jump\t// in\n    tag_43:\n      mload(0x40)\n      dup1\n      swap2\n      sub\n      swap1\n      return\n        /* \"Escrow.sol\":1270:1535  function confirmFulfillment() external {... */\n    tag_10:\n      callvalue\n      dup1\n      iszero\n      tag_45\n      jumpi\n      0x00\n      dup1\n      revert\n    tag_45:\n      pop\n      tag_46\n      tag_47\n      jump\t// in\n    tag_46:\n      stop\n        /* \"Escrow.sol\":160:193  address public immutable receiver */\n    tag_11:\n      callvalue\n      dup1\n      iszero\n      tag_48\n      jumpi\n      0x00\n      dup1\n      revert\n    tag_48:\n      pop\n      tag_49\n      tag_50\n      jump\t// in\n    tag_49:\n      mload(0x40)\n      tag_51\n      swap2\n      swap1\n      tag_19\n      jump\t// in\n    tag_51:\n      mload(0x40)\n      dup1\n      swap2\n      sub\n      swap1\n      return\n        /* \"Escrow.sol\":123:154  address public immutable seller */\n    tag_17:\n      immutable(\"0xceebf77a833b30520287ddd9478ff51abbdffa30aa90a8d655dba0e8a79ce0c1\")\n      dup2\n      jump\t// out\n        /* \"Escrow.sol\":2339:2444  function escrowStatus() external view returns(ContractStateChoices) {... */\n    tag_22:\n        /* \"Escrow.sol\":2385:2405  ContractStateChoices */\n      0x00\n        /* \"Escrow.sol\":2424:2437  contractState */\n      dup1\n      0x00\n      swap1\n      sload\n      swap1\n      0x0100\n      exp\n      swap1\n      div\n      0xff\n      and\n        /* \"Escrow.sol\":2417:2437  return contractState */\n      swap1\n      pop\n        /* \"Escrow.sol\":2339:2444  function escrowStatus() external view returns(ContractStateChoices) {... */\n      swap1\n      jump\t// out\n        /* \"Escrow.sol\":1569:1868  function confirmProductUsed() external {... */\n    tag_27:\n        /* \"Escrow.sol\":1640:1646  market */\n      immutable(\"0xd2f8f61201b2b11a78d6e866abc9c3db2ae8631fa656bfe5cb53668255367afb\")\n        /* \"Escrow.sol\":1626:1646  msg.sender == market */\n      0xffffffffffffffffffffffffffffffffffffffff\n      and\n        /* \"Escrow.sol\":1626:1636  msg.sender */\n      caller\n        /* \"Escrow.sol\":1626:1646  msg.sender == market */\n      0xffffffffffffffffffffffffffffffffffffffff\n      and\n      eq\n        /* \"Escrow.sol\":1618:1655  require(msg.sender == market, 'e020') */\n      tag_54\n      jumpi\n      mload(0x40)\n      0x08c379a000000000000000000000000000000000000000000000000000000000\n      dup2\n      mstore\n      0x04\n      add\n      tag_55\n      swap1\n      tag_56\n      jump\t// in\n    tag_55:\n      mload(0x40)\n      dup1\n      swap2\n      sub\n      swap1\n      revert\n    tag_54:\n        /* \"Escrow.sol\":1691:1721  ContractStateChoices.FULFILLED */\n      0x02\n        /* \"Escrow.sol\":1674:1721  contractState == ContractStateChoices.FULFILLED */\n      0x04\n      dup2\n      gt\n      iszero\n      tag_57\n      jumpi\n      tag_58\n      tag_59\n      jump\t// in\n    tag_58:\n    tag_57:\n        /* \"Escrow.sol\":1674:1687  contractState */\n      0x00\n      dup1\n      sload\n      swap1\n      0x0100\n      exp\n      swap1\n      div\n      0xff\n      and\n        /* \"Escrow.sol\":1674:1721  contractState == ContractStateChoices.FULFILLED */\n      0x04\n      dup2\n      gt\n      iszero\n      tag_60\n      jumpi\n      tag_61\n      tag_59\n      jump\t// in\n    tag_61:\n    tag_60:\n      eq\n        /* \"Escrow.sol\":1666:1730  require(contractState == ContractStateChoices.FULFILLED, 'e021') */\n      tag_62\n      jumpi\n      mload(0x40)\n      0x08c379a000000000000000000000000000000000000000000000000000000000\n      dup2\n      mstore\n      0x04\n      add\n      tag_63\n      swap1\n      tag_64\n      jump\t// in\n    tag_63:\n      mload(0x40)\n      dup1\n      swap2\n      sub\n      swap1\n      revert\n    tag_62:\n        /* \"Escrow.sol\":1756:1789  ContractStateChoices.PRODUCT_USED */\n      0x03\n        /* \"Escrow.sol\":1740:1753  contractState */\n      0x00\n      dup1\n        /* \"Escrow.sol\":1740:1789  contractState = ContractStateChoices.PRODUCT_USED */\n      0x0100\n      exp\n      dup2\n      sload\n      dup2\n      0xff\n      mul\n      not\n      and\n      swap1\n      dup4\n      0x04\n      dup2\n      gt\n      iszero\n      tag_65\n      jumpi\n      tag_66\n      tag_59\n      jump\t// in\n    tag_66:\n    tag_65:\n      mul\n      or\n      swap1\n      sstore\n      pop\n        /* \"Escrow.sol\":1825:1831  market */\n      immutable(\"0xd2f8f61201b2b11a78d6e866abc9c3db2ae8631fa656bfe5cb53668255367afb\")\n        /* \"Escrow.sol\":1804:1832  ProductUsedConfirmed(market) */\n      0xffffffffffffffffffffffffffffffffffffffff\n      and\n      0x1ddd2177a0a6dd96c0353f0a0c2c45fcd1564f1c3ff3501c966e56f299b66e40\n      mload(0x40)\n      mload(0x40)\n      dup1\n      swap2\n      sub\n      swap1\n      log2\n        /* \"Escrow.sol\":1843:1860  distributeFunds() */\n      tag_67\n        /* \"Escrow.sol\":1843:1858  distributeFunds */\n      tag_68\n        /* \"Escrow.sol\":1843:1860  distributeFunds() */\n      jump\t// in\n    tag_67:\n        /* \"Escrow.sol\":1569:1868  function confirmProductUsed() external {... */\n      jump\t// out\n        /* \"Escrow.sol\":87:117  address public immutable buyer */\n    tag_30:\n      immutable(\"0x2a80e1ef1d7842f27f2e6be0972bb708b9a135c38860dbe73c27c3486c34f4de\")\n      dup2\n      jump\t// out\n        /* \"Escrow.sol\":199:230  address public immutable market */\n    tag_34:\n      immutable(\"0xd2f8f61201b2b11a78d6e866abc9c3db2ae8631fa656bfe5cb53668255367afb\")\n      dup2\n      jump\t// out\n        /* \"Escrow.sol\":410:451  ContractStateChoices public contractState */\n    tag_38:\n      0x00\n      dup1\n      sload\n      swap1\n      0x0100\n      exp\n      swap1\n      div\n      0xff\n      and\n      dup2\n      jump\t// out\n        /* \"Escrow.sol\":236:274  uint256 public immutable contractPrice */\n    tag_42:\n      immutable(\"0x7880aec93413f117ef14bd4e6d130875ab2c7d7d55a064fac3c2f7bd51516380\")\n      dup2\n      jump\t// out\n        /* \"Escrow.sol\":1270:1535  function confirmFulfillment() external {... */\n    tag_47:\n        /* \"Escrow.sol\":1341:1347  market */\n      immutable(\"0xd2f8f61201b2b11a78d6e866abc9c3db2ae8631fa656bfe5cb53668255367afb\")\n        /* \"Escrow.sol\":1327:1347  msg.sender == market */\n      0xffffffffffffffffffffffffffffffffffffffff\n      and\n        /* \"Escrow.sol\":1327:1337  msg.sender */\n      caller\n        /* \"Escrow.sol\":1327:1347  msg.sender == market */\n      0xffffffffffffffffffffffffffffffffffffffff\n      and\n      eq\n        /* \"Escrow.sol\":1319:1356  require(msg.sender == market, 'e024') */\n      tag_70\n      jumpi\n      mload(0x40)\n      0x08c379a000000000000000000000000000000000000000000000000000000000\n      dup2\n      mstore\n      0x04\n      add\n      tag_71\n      swap1\n      tag_72\n      jump\t// in\n    tag_71:\n      mload(0x40)\n      dup1\n      swap2\n      sub\n      swap1\n      revert\n    tag_70:\n        /* \"Escrow.sol\":1391:1418  ContractStateChoices.ACTIVE */\n      0x01\n        /* \"Escrow.sol\":1374:1418  contractState == ContractStateChoices.ACTIVE */\n      0x04\n      dup2\n      gt\n      iszero\n      tag_73\n      jumpi\n      tag_74\n      tag_59\n      jump\t// in\n    tag_74:\n    tag_73:\n        /* \"Escrow.sol\":1374:1387  contractState */\n      0x00\n      dup1\n      sload\n      swap1\n      0x0100\n      exp\n      swap1\n      div\n      0xff\n      and\n        /* \"Escrow.sol\":1374:1418  contractState == ContractStateChoices.ACTIVE */\n      0x04\n      dup2\n      gt\n      iszero\n      tag_75\n      jumpi\n      tag_76\n      tag_59\n      jump\t// in\n    tag_76:\n    tag_75:\n      eq\n        /* \"Escrow.sol\":1366:1427  require(contractState == ContractStateChoices.ACTIVE, 'e013') */\n      tag_77\n      jumpi\n      mload(0x40)\n      0x08c379a000000000000000000000000000000000000000000000000000000000\n      dup2\n      mstore\n      0x04\n      add\n      tag_78\n      swap1\n      tag_79\n      jump\t// in\n    tag_78:\n      mload(0x40)\n      dup1\n      swap2\n      sub\n      swap1\n      revert\n    tag_77:\n        /* \"Escrow.sol\":1453:1483  ContractStateChoices.FULFILLED */\n      0x02\n        /* \"Escrow.sol\":1437:1450  contractState */\n      0x00\n      dup1\n        /* \"Escrow.sol\":1437:1483  contractState = ContractStateChoices.FULFILLED */\n      0x0100\n      exp\n      dup2\n      sload\n      dup2\n      0xff\n      mul\n      not\n      and\n      swap1\n      dup4\n      0x04\n      dup2\n      gt\n      iszero\n      tag_80\n      jumpi\n      tag_81\n      tag_59\n      jump\t// in\n    tag_81:\n    tag_80:\n      mul\n      or\n      swap1\n      sstore\n      pop\n        /* \"Escrow.sol\":1519:1527  receiver */\n      immutable(\"0x52f1a9b320cab38e5da8a8f97989383aab0a49165fc91c737310e4f7e9821021\")\n        /* \"Escrow.sol\":1498:1528  FulfillmentConfirmed(receiver) */\n      0xffffffffffffffffffffffffffffffffffffffff\n      and\n      0x2b4d886262cf2de6c7d4426877b49a269f028810e47e65e9debbf5cd75b99f8b\n      mload(0x40)\n      mload(0x40)\n      dup1\n      swap2\n      sub\n      swap1\n      log2\n        /* \"Escrow.sol\":1270:1535  function confirmFulfillment() external {... */\n      jump\t// out\n        /* \"Escrow.sol\":160:193  address public immutable receiver */\n    tag_50:\n      immutable(\"0x52f1a9b320cab38e5da8a8f97989383aab0a49165fc91c737310e4f7e9821021\")\n      dup2\n      jump\t// out\n        /* \"Escrow.sol\":1902:2299  function distributeFunds() private {... */\n    tag_68:\n        /* \"Escrow.sol\":1972:2005  ContractStateChoices.PRODUCT_USED */\n      0x03\n        /* \"Escrow.sol\":1955:2005  contractState == ContractStateChoices.PRODUCT_USED */\n      0x04\n      dup2\n      gt\n      iszero\n      tag_83\n      jumpi\n      tag_84\n      tag_59\n      jump\t// in\n    tag_84:\n    tag_83:\n        /* \"Escrow.sol\":1955:1968  contractState */\n      0x00\n      dup1\n      sload\n      swap1\n      0x0100\n      exp\n      swap1\n      div\n      0xff\n      and\n        /* \"Escrow.sol\":1955:2005  contractState == ContractStateChoices.PRODUCT_USED */\n      0x04\n      dup2\n      gt\n      iszero\n      tag_85\n      jumpi\n      tag_86\n      tag_59\n      jump\t// in\n    tag_86:\n    tag_85:\n      eq\n        /* \"Escrow.sol\":1947:2014  require(contractState == ContractStateChoices.PRODUCT_USED, 'e022') */\n      tag_87\n      jumpi\n      mload(0x40)\n      0x08c379a000000000000000000000000000000000000000000000000000000000\n      dup2\n      mstore\n      0x04\n      add\n      tag_88\n      swap1\n      tag_89\n      jump\t// in\n    tag_88:\n      mload(0x40)\n      dup1\n      swap2\n      sub\n      swap1\n      revert\n    tag_87:\n        /* \"Escrow.sol\":2024:2043  uint256 marketShare */\n      0x00\n        /* \"Escrow.sol\":2062:2064  10 */\n      0x0a\n        /* \"Escrow.sol\":2046:2059  contractPrice */\n      immutable(\"0x7880aec93413f117ef14bd4e6d130875ab2c7d7d55a064fac3c2f7bd51516380\")\n        /* \"Escrow.sol\":2046:2064  contractPrice / 10 */\n      tag_90\n      swap2\n      swap1\n      tag_91\n      jump\t// in\n    tag_90:\n        /* \"Escrow.sol\":2024:2064  uint256 marketShare = contractPrice / 10 */\n      swap1\n      pop\n        /* \"Escrow.sol\":2075:2094  uint256 sellerShare */\n      0x00\n        /* \"Escrow.sol\":2113:2124  marketShare */\n      dup2\n        /* \"Escrow.sol\":2097:2110  contractPrice */\n      immutable(\"0x7880aec93413f117ef14bd4e6d130875ab2c7d7d55a064fac3c2f7bd51516380\")\n        /* \"Escrow.sol\":2097:2124  contractPrice - marketShare */\n      tag_92\n      swap2\n      swap1\n      tag_93\n      jump\t// in\n    tag_92:\n        /* \"Escrow.sol\":2075:2124  uint256 sellerShare = contractPrice - marketShare */\n      swap1\n      pop\n        /* \"Escrow.sol\":2143:2149  market */\n      immutable(\"0xd2f8f61201b2b11a78d6e866abc9c3db2ae8631fa656bfe5cb53668255367afb\")\n        /* \"Escrow.sol\":2135:2159  payable(market).transfer */\n      0xffffffffffffffffffffffffffffffffffffffff\n      and\n        /* \"Escrow.sol\":2135:2172  payable(market).transfer(marketShare) */\n      0x08fc\n        /* \"Escrow.sol\":2160:2171  marketShare */\n      dup4\n        /* \"Escrow.sol\":2135:2172  payable(market).transfer(marketShare) */\n      swap1\n      dup2\n      iszero\n      mul\n      swap1\n      mload(0x40)\n      0x00\n      mload(0x40)\n      dup1\n      dup4\n      sub\n      dup2\n      dup6\n      dup9\n      dup9\n      call\n      swap4\n      pop\n      pop\n      pop\n      pop\n      iszero\n      dup1\n      iszero\n      tag_95\n      jumpi\n      returndatasize\n      0x00\n      dup1\n      returndatacopy\n      revert(0x00, returndatasize)\n    tag_95:\n      pop\n        /* \"Escrow.sol\":2190:2196  seller */\n      immutable(\"0xceebf77a833b30520287ddd9478ff51abbdffa30aa90a8d655dba0e8a79ce0c1\")\n        /* \"Escrow.sol\":2182:2206  payable(seller).transfer */\n      0xffffffffffffffffffffffffffffffffffffffff\n      and\n        /* \"Escrow.sol\":2182:2219  payable(seller).transfer(sellerShare) */\n      0x08fc\n        /* \"Escrow.sol\":2207:2218  sellerShare */\n      dup3\n        /* \"Escrow.sol\":2182:2219  payable(seller).transfer(sellerShare) */\n      swap1\n      dup2\n      iszero\n      mul\n      swap1\n      mload(0x40)\n      0x00\n      mload(0x40)\n      dup1\n      dup4\n      sub\n      dup2\n      dup6\n      dup9\n      dup9\n      call\n      swap4\n      pop\n      pop\n      pop\n      pop\n      iszero\n      dup1\n      iszero\n      tag_97\n      jumpi\n      returndatasize\n      0x00\n      dup1\n      returndatacopy\n      revert(0x00, returndatasize)\n    tag_97:\n      pop\n        /* \"Escrow.sol\":2272:2278  seller */\n      immutable(\"0xceebf77a833b30520287ddd9478ff51abbdffa30aa90a8d655dba0e8a79ce0c1\")\n        /* \"Escrow.sol\":2234:2292  FundsDistributed(market, marketShare, seller, sellerShare) */\n      0xffffffffffffffffffffffffffffffffffffffff\n      and\n        /* \"Escrow.sol\":2251:2257  market */\n      immutable(\"0xd2f8f61201b2b11a78d6e866abc9c3db2ae8631fa656bfe5cb53668255367afb\")\n        /* \"Escrow.sol\":2234:2292  FundsDistributed(market, marketShare, seller, sellerShare) */\n      0xffffffffffffffffffffffffffffffffffffffff\n      and\n      0xcc2c3f002c6146160e9eb8ade8202f88f3d01aa0fbbc98e7582f7280af10651f\n        /* \"Escrow.sol\":2259:2270  marketShare */\n      dup5\n        /* \"Escrow.sol\":2280:2291  sellerShare */\n      dup5\n        /* \"Escrow.sol\":2234:2292  FundsDistributed(market, marketShare, seller, sellerShare) */\n      mload(0x40)\n      tag_98\n      swap3\n      swap2\n      swap1\n      tag_99\n      jump\t// in\n    tag_98:\n      mload(0x40)\n      dup1\n      swap2\n      sub\n      swap1\n      log3\n        /* \"Escrow.sol\":1937:2299  {... */\n      pop\n      pop\n        /* \"Escrow.sol\":1902:2299  function distributeFunds() private {... */\n      jump\t// out\n        /* \"#utility.yul\":7:133   */\n    tag_100:\n        /* \"#utility.yul\":44:51   */\n      0x00\n        /* \"#utility.yul\":84:126   */\n      0xffffffffffffffffffffffffffffffffffffffff\n        /* \"#utility.yul\":77:82   */\n      dup3\n        /* \"#utility.yul\":73:127   */\n      and\n        /* \"#utility.yul\":62:127   */\n      swap1\n      pop\n        /* \"#utility.yul\":7:133   */\n      swap2\n      swap1\n      pop\n      jump\t// out\n        /* \"#utility.yul\":139:235   */\n    tag_101:\n        /* \"#utility.yul\":176:183   */\n      0x00\n        /* \"#utility.yul\":205:229   */\n      tag_125\n        /* \"#utility.yul\":223:228   */\n      dup3\n        /* \"#utility.yul\":205:229   */\n      tag_100\n      jump\t// in\n    tag_125:\n        /* \"#utility.yul\":194:229   */\n      swap1\n      pop\n        /* \"#utility.yul\":139:235   */\n      swap2\n      swap1\n      pop\n      jump\t// out\n        /* \"#utility.yul\":241:359   */\n    tag_102:\n        /* \"#utility.yul\":328:352   */\n      tag_127\n        /* \"#utility.yul\":346:351   */\n      dup2\n        /* \"#utility.yul\":328:352   */\n      tag_101\n      jump\t// in\n    tag_127:\n        /* \"#utility.yul\":323:326   */\n      dup3\n        /* \"#utility.yul\":316:353   */\n      mstore\n        /* \"#utility.yul\":241:359   */\n      pop\n      pop\n      jump\t// out\n        /* \"#utility.yul\":365:587   */\n    tag_19:\n        /* \"#utility.yul\":458:462   */\n      0x00\n        /* \"#utility.yul\":496:498   */\n      0x20\n        /* \"#utility.yul\":485:494   */\n      dup3\n        /* \"#utility.yul\":481:499   */\n      add\n        /* \"#utility.yul\":473:499   */\n      swap1\n      pop\n        /* \"#utility.yul\":509:580   */\n      tag_129\n        /* \"#utility.yul\":577:578   */\n      0x00\n        /* \"#utility.yul\":566:575   */\n      dup4\n        /* \"#utility.yul\":562:579   */\n      add\n        /* \"#utility.yul\":553:559   */\n      dup5\n        /* \"#utility.yul\":509:580   */\n      tag_102\n      jump\t// in\n    tag_129:\n        /* \"#utility.yul\":365:587   */\n      swap3\n      swap2\n      pop\n      pop\n      jump\t// out\n        /* \"#utility.yul\":593:773   */\n    tag_59:\n        /* \"#utility.yul\":641:718   */\n      0x4e487b7100000000000000000000000000000000000000000000000000000000\n        /* \"#utility.yul\":638:639   */\n      0x00\n        /* \"#utility.yul\":631:719   */\n      mstore\n        /* \"#utility.yul\":738:742   */\n      0x21\n        /* \"#utility.yul\":735:736   */\n      0x04\n        /* \"#utility.yul\":728:743   */\n      mstore\n        /* \"#utility.yul\":762:766   */\n      0x24\n        /* \"#utility.yul\":759:760   */\n      0x00\n        /* \"#utility.yul\":752:767   */\n      revert\n        /* \"#utility.yul\":779:907   */\n    tag_103:\n        /* \"#utility.yul\":875:876   */\n      0x05\n        /* \"#utility.yul\":868:873   */\n      dup2\n        /* \"#utility.yul\":865:877   */\n      lt\n        /* \"#utility.yul\":855:901   */\n      tag_132\n      jumpi\n        /* \"#utility.yul\":881:899   */\n      tag_133\n      tag_59\n      jump\t// in\n    tag_133:\n        /* \"#utility.yul\":855:901   */\n    tag_132:\n        /* \"#utility.yul\":779:907   */\n      pop\n      jump\t// out\n        /* \"#utility.yul\":913:1070   */\n    tag_104:\n        /* \"#utility.yul\":973:980   */\n      0x00\n        /* \"#utility.yul\":1002:1007   */\n      dup2\n        /* \"#utility.yul\":991:1007   */\n      swap1\n      pop\n        /* \"#utility.yul\":1008:1064   */\n      tag_135\n        /* \"#utility.yul\":1058:1063   */\n      dup3\n        /* \"#utility.yul\":1008:1064   */\n      tag_103\n      jump\t// in\n    tag_135:\n        /* \"#utility.yul\":913:1070   */\n      swap2\n      swap1\n      pop\n      jump\t// out\n        /* \"#utility.yul\":1076:1233   */\n    tag_105:\n        /* \"#utility.yul\":1147:1156   */\n      0x00\n        /* \"#utility.yul\":1180:1227   */\n      tag_137\n        /* \"#utility.yul\":1221:1226   */\n      dup3\n        /* \"#utility.yul\":1180:1227   */\n      tag_104\n      jump\t// in\n    tag_137:\n        /* \"#utility.yul\":1167:1227   */\n      swap1\n      pop\n        /* \"#utility.yul\":1076:1233   */\n      swap2\n      swap1\n      pop\n      jump\t// out\n        /* \"#utility.yul\":1239:1412   */\n    tag_106:\n        /* \"#utility.yul\":1347:1405   */\n      tag_139\n        /* \"#utility.yul\":1399:1404   */\n      dup2\n        /* \"#utility.yul\":1347:1405   */\n      tag_105\n      jump\t// in\n    tag_139:\n        /* \"#utility.yul\":1342:1345   */\n      dup3\n        /* \"#utility.yul\":1335:1406   */\n      mstore\n        /* \"#utility.yul\":1239:1412   */\n      pop\n      pop\n      jump\t// out\n        /* \"#utility.yul\":1418:1682   */\n    tag_24:\n        /* \"#utility.yul\":1532:1536   */\n      0x00\n        /* \"#utility.yul\":1570:1572   */\n      0x20\n        /* \"#utility.yul\":1559:1568   */\n      dup3\n        /* \"#utility.yul\":1555:1573   */\n      add\n        /* \"#utility.yul\":1547:1573   */\n      swap1\n      pop\n        /* \"#utility.yul\":1583:1675   */\n      tag_141\n        /* \"#utility.yul\":1672:1673   */\n      0x00\n        /* \"#utility.yul\":1661:1670   */\n      dup4\n        /* \"#utility.yul\":1657:1674   */\n      add\n        /* \"#utility.yul\":1648:1654   */\n      dup5\n        /* \"#utility.yul\":1583:1675   */\n      tag_106\n      jump\t// in\n    tag_141:\n        /* \"#utility.yul\":1418:1682   */\n      swap3\n      swap2\n      pop\n      pop\n      jump\t// out\n        /* \"#utility.yul\":1688:1765   */\n    tag_107:\n        /* \"#utility.yul\":1725:1732   */\n      0x00\n        /* \"#utility.yul\":1754:1759   */\n      dup2\n        /* \"#utility.yul\":1743:1759   */\n      swap1\n      pop\n        /* \"#utility.yul\":1688:1765   */\n      swap2\n      swap1\n      pop\n      jump\t// out\n        /* \"#utility.yul\":1771:1889   */\n    tag_108:\n        /* \"#utility.yul\":1858:1882   */\n      tag_144\n        /* \"#utility.yul\":1876:1881   */\n      dup2\n        /* \"#utility.yul\":1858:1882   */\n      tag_107\n      jump\t// in\n    tag_144:\n        /* \"#utility.yul\":1853:1856   */\n      dup3\n        /* \"#utility.yul\":1846:1883   */\n      mstore\n        /* \"#utility.yul\":1771:1889   */\n      pop\n      pop\n      jump\t// out\n        /* \"#utility.yul\":1895:2117   */\n    tag_44:\n        /* \"#utility.yul\":1988:1992   */\n      0x00\n        /* \"#utility.yul\":2026:2028   */\n      0x20\n        /* \"#utility.yul\":2015:2024   */\n      dup3\n        /* \"#utility.yul\":2011:2029   */\n      add\n        /* \"#utility.yul\":2003:2029   */\n      swap1\n      pop\n        /* \"#utility.yul\":2039:2110   */\n      tag_146\n        /* \"#utility.yul\":2107:2108   */\n      0x00\n        /* \"#utility.yul\":2096:2105   */\n      dup4\n        /* \"#utility.yul\":2092:2109   */\n      add\n        /* \"#utility.yul\":2083:2089   */\n      dup5\n        /* \"#utility.yul\":2039:2110   */\n      tag_108\n      jump\t// in\n    tag_146:\n        /* \"#utility.yul\":1895:2117   */\n      swap3\n      swap2\n      pop\n      pop\n      jump\t// out\n        /* \"#utility.yul\":2123:2292   */\n    tag_109:\n        /* \"#utility.yul\":2207:2218   */\n      0x00\n        /* \"#utility.yul\":2241:2247   */\n      dup3\n        /* \"#utility.yul\":2236:2239   */\n      dup3\n        /* \"#utility.yul\":2229:2248   */\n      mstore\n        /* \"#utility.yul\":2281:2285   */\n      0x20\n        /* \"#utility.yul\":2276:2279   */\n      dup3\n        /* \"#utility.yul\":2272:2286   */\n      add\n        /* \"#utility.yul\":2257:2286   */\n      swap1\n      pop\n        /* \"#utility.yul\":2123:2292   */\n      swap3\n      swap2\n      pop\n      pop\n      jump\t// out\n        /* \"#utility.yul\":2298:2452   */\n    tag_110:\n        /* \"#utility.yul\":2438:2444   */\n      0x6530323000000000000000000000000000000000000000000000000000000000\n        /* \"#utility.yul\":2434:2435   */\n      0x00\n        /* \"#utility.yul\":2426:2432   */\n      dup3\n        /* \"#utility.yul\":2422:2436   */\n      add\n        /* \"#utility.yul\":2415:2445   */\n      mstore\n        /* \"#utility.yul\":2298:2452   */\n      pop\n      jump\t// out\n        /* \"#utility.yul\":2458:2823   */\n    tag_111:\n        /* \"#utility.yul\":2600:2603   */\n      0x00\n        /* \"#utility.yul\":2621:2687   */\n      tag_150\n        /* \"#utility.yul\":2685:2686   */\n      0x04\n        /* \"#utility.yul\":2680:2683   */\n      dup4\n        /* \"#utility.yul\":2621:2687   */\n      tag_109\n      jump\t// in\n    tag_150:\n        /* \"#utility.yul\":2614:2687   */\n      swap2\n      pop\n        /* \"#utility.yul\":2696:2789   */\n      tag_151\n        /* \"#utility.yul\":2785:2788   */\n      dup3\n        /* \"#utility.yul\":2696:2789   */\n      tag_110\n      jump\t// in\n    tag_151:\n        /* \"#utility.yul\":2814:2816   */\n      0x20\n        /* \"#utility.yul\":2809:2812   */\n      dup3\n        /* \"#utility.yul\":2805:2817   */\n      add\n        /* \"#utility.yul\":2798:2817   */\n      swap1\n      pop\n        /* \"#utility.yul\":2458:2823   */\n      swap2\n      swap1\n      pop\n      jump\t// out\n        /* \"#utility.yul\":2829:3248   */\n    tag_56:\n        /* \"#utility.yul\":2995:2999   */\n      0x00\n        /* \"#utility.yul\":3033:3035   */\n      0x20\n        /* \"#utility.yul\":3022:3031   */\n      dup3\n        /* \"#utility.yul\":3018:3036   */\n      add\n        /* \"#utility.yul\":3010:3036   */\n      swap1\n      pop\n        /* \"#utility.yul\":3082:3091   */\n      dup2\n        /* \"#utility.yul\":3076:3080   */\n      dup2\n        /* \"#utility.yul\":3072:3092   */\n      sub\n        /* \"#utility.yul\":3068:3069   */\n      0x00\n        /* \"#utility.yul\":3057:3066   */\n      dup4\n        /* \"#utility.yul\":3053:3070   */\n      add\n        /* \"#utility.yul\":3046:3093   */\n      mstore\n        /* \"#utility.yul\":3110:3241   */\n      tag_153\n        /* \"#utility.yul\":3236:3240   */\n      dup2\n        /* \"#utility.yul\":3110:3241   */\n      tag_111\n      jump\t// in\n    tag_153:\n        /* \"#utility.yul\":3102:3241   */\n      swap1\n      pop\n        /* \"#utility.yul\":2829:3248   */\n      swap2\n      swap1\n      pop\n      jump\t// out\n        /* \"#utility.yul\":3254:3408   */\n    tag_112:\n        /* \"#utility.yul\":3394:3400   */\n      0x6530323100000000000000000000000000000000000000000000000000000000\n        /* \"#utility.yul\":3390:3391   */\n      0x00\n        /* \"#utility.yul\":3382:3388   */\n      dup3\n        /* \"#utility.yul\":3378:3392   */\n      add\n        /* \"#utility.yul\":3371:3401   */\n      mstore\n        /* \"#utility.yul\":3254:3408   */\n      pop\n      jump\t// out\n        /* \"#utility.yul\":3414:3779   */\n    tag_113:\n        /* \"#utility.yul\":3556:3559   */\n      0x00\n        /* \"#utility.yul\":3577:3643   */\n      tag_156\n        /* \"#utility.yul\":3641:3642   */\n      0x04\n        /* \"#utility.yul\":3636:3639   */\n      dup4\n        /* \"#utility.yul\":3577:3643   */\n      tag_109\n      jump\t// in\n    tag_156:\n        /* \"#utility.yul\":3570:3643   */\n      swap2\n      pop\n        /* \"#utility.yul\":3652:3745   */\n      tag_157\n        /* \"#utility.yul\":3741:3744   */\n      dup3\n        /* \"#utility.yul\":3652:3745   */\n      tag_112\n      jump\t// in\n    tag_157:\n        /* \"#utility.yul\":3770:3772   */\n      0x20\n        /* \"#utility.yul\":3765:3768   */\n      dup3\n        /* \"#utility.yul\":3761:3773   */\n      add\n        /* \"#utility.yul\":3754:3773   */\n      swap1\n      pop\n        /* \"#utility.yul\":3414:3779   */\n      swap2\n      swap1\n      pop\n      jump\t// out\n        /* \"#utility.yul\":3785:4204   */\n    tag_64:\n        /* \"#utility.yul\":3951:3955   */\n      0x00\n        /* \"#utility.yul\":3989:3991   */\n      0x20\n        /* \"#utility.yul\":3978:3987   */\n      dup3\n        /* \"#utility.yul\":3974:3992   */\n      add\n        /* \"#utility.yul\":3966:3992   */\n      swap1\n      pop\n        /* \"#utility.yul\":4038:4047   */\n      dup2\n        /* \"#utility.yul\":4032:4036   */\n      dup2\n        /* \"#utility.yul\":4028:4048   */\n      sub\n        /* \"#utility.yul\":4024:4025   */\n      0x00\n        /* \"#utility.yul\":4013:4022   */\n      dup4\n        /* \"#utility.yul\":4009:4026   */\n      add\n        /* \"#utility.yul\":4002:4049   */\n      mstore\n        /* \"#utility.yul\":4066:4197   */\n      tag_159\n        /* \"#utility.yul\":4192:4196   */\n      dup2\n        /* \"#utility.yul\":4066:4197   */\n      tag_113\n      jump\t// in\n    tag_159:\n        /* \"#utility.yul\":4058:4197   */\n      swap1\n      pop\n        /* \"#utility.yul\":3785:4204   */\n      swap2\n      swap1\n      pop\n      jump\t// out\n        /* \"#utility.yul\":4210:4364   */\n    tag_114:\n        /* \"#utility.yul\":4350:4356   */\n      0x6530323400000000000000000000000000000000000000000000000000000000\n        /* \"#utility.yul\":4346:4347   */\n      0x00\n        /* \"#utility.yul\":4338:4344   */\n      dup3\n        /* \"#utility.yul\":4334:4348   */\n      add\n        /* \"#utility.yul\":4327:4357   */\n      mstore\n        /* \"#utility.yul\":4210:4364   */\n      pop\n      jump\t// out\n        /* \"#utility.yul\":4370:4735   */\n    tag_115:\n        /* \"#utility.yul\":4512:4515   */\n      0x00\n        /* \"#utility.yul\":4533:4599   */\n      tag_162\n        /* \"#utility.yul\":4597:4598   */\n      0x04\n        /* \"#utility.yul\":4592:4595   */\n      dup4\n        /* \"#utility.yul\":4533:4599   */\n      tag_109\n      jump\t// in\n    tag_162:\n        /* \"#utility.yul\":4526:4599   */\n      swap2\n      pop\n        /* \"#utility.yul\":4608:4701   */\n      tag_163\n        /* \"#utility.yul\":4697:4700   */\n      dup3\n        /* \"#utility.yul\":4608:4701   */\n      tag_114\n      jump\t// in\n    tag_163:\n        /* \"#utility.yul\":4726:4728   */\n      0x20\n        /* \"#utility.yul\":4721:4724   */\n      dup3\n        /* \"#utility.yul\":4717:4729   */\n      add\n        /* \"#utility.yul\":4710:4729   */\n      swap1\n      pop\n        /* \"#utility.yul\":4370:4735   */\n      swap2\n      swap1\n      pop\n      jump\t// out\n        /* \"#utility.yul\":4741:5160   */\n    tag_72:\n        /* \"#utility.yul\":4907:4911   */\n      0x00\n        /* \"#utility.yul\":4945:4947   */\n      0x20\n        /* \"#utility.yul\":4934:4943   */\n      dup3\n        /* \"#utility.yul\":4930:4948   */\n      add\n        /* \"#utility.yul\":4922:4948   */\n      swap1\n      pop\n        /* \"#utility.yul\":4994:5003   */\n      dup2\n        /* \"#utility.yul\":4988:4992   */\n      dup2\n        /* \"#utility.yul\":4984:5004   */\n      sub\n        /* \"#utility.yul\":4980:4981   */\n      0x00\n        /* \"#utility.yul\":4969:4978   */\n      dup4\n        /* \"#utility.yul\":4965:4982   */\n      add\n        /* \"#utility.yul\":4958:5005   */\n      mstore\n        /* \"#utility.yul\":5022:5153   */\n      tag_165\n        /* \"#utility.yul\":5148:5152   */\n      dup2\n        /* \"#utility.yul\":5022:5153   */\n      tag_115\n      jump\t// in\n    tag_165:\n        /* \"#utility.yul\":5014:5153   */\n      swap1\n      pop\n        /* \"#utility.yul\":4741:5160   */\n      swap2\n      swap1\n      pop\n      jump\t// out\n        /* \"#utility.yul\":5166:5320   */\n    tag_116:\n        /* \"#utility.yul\":5306:5312   */\n      0x6530313300000000000000000000000000000000000000000000000000000000\n        /* \"#utility.yul\":5302:5303   */\n      0x00\n        /* \"#utility.yul\":5294:5300   */\n      dup3\n        /* \"#utility.yul\":5290:5304   */\n      add\n        /* \"#utility.yul\":5283:5313   */\n      mstore\n        /* \"#utility.yul\":5166:5320   */\n      pop\n      jump\t// out\n        /* \"#utility.yul\":5326:5691   */\n    tag_117:\n        /* \"#utility.yul\":5468:5471   */\n      0x00\n        /* \"#utility.yul\":5489:5555   */\n      tag_168\n        /* \"#utility.yul\":5553:5554   */\n      0x04\n        /* \"#utility.yul\":5548:5551   */\n      dup4\n        /* \"#utility.yul\":5489:5555   */\n      tag_109\n      jump\t// in\n    tag_168:\n        /* \"#utility.yul\":5482:5555   */\n      swap2\n      pop\n        /* \"#utility.yul\":5564:5657   */\n      tag_169\n        /* \"#utility.yul\":5653:5656   */\n      dup3\n        /* \"#utility.yul\":5564:5657   */\n      tag_116\n      jump\t// in\n    tag_169:\n        /* \"#utility.yul\":5682:5684   */\n      0x20\n        /* \"#utility.yul\":5677:5680   */\n      dup3\n        /* \"#utility.yul\":5673:5685   */\n      add\n        /* \"#utility.yul\":5666:5685   */\n      swap1\n      pop\n        /* \"#utility.yul\":5326:5691   */\n      swap2\n      swap1\n      pop\n      jump\t// out\n        /* \"#utility.yul\":5697:6116   */\n    tag_79:\n        /* \"#utility.yul\":5863:5867   */\n      0x00\n        /* \"#utility.yul\":5901:5903   */\n      0x20\n        /* \"#utility.yul\":5890:5899   */\n      dup3\n        /* \"#utility.yul\":5886:5904   */\n      add\n        /* \"#utility.yul\":5878:5904   */\n      swap1\n      pop\n        /* \"#utility.yul\":5950:5959   */\n      dup2\n        /* \"#utility.yul\":5944:5948   */\n      dup2\n        /* \"#utility.yul\":5940:5960   */\n      sub\n        /* \"#utility.yul\":5936:5937   */\n      0x00\n        /* \"#utility.yul\":5925:5934   */\n      dup4\n        /* \"#utility.yul\":5921:5938   */\n      add\n        /* \"#utility.yul\":5914:5961   */\n      mstore\n        /* \"#utility.yul\":5978:6109   */\n      tag_171\n        /* \"#utility.yul\":6104:6108   */\n      dup2\n        /* \"#utility.yul\":5978:6109   */\n      tag_117\n      jump\t// in\n    tag_171:\n        /* \"#utility.yul\":5970:6109   */\n      swap1\n      pop\n        /* \"#utility.yul\":5697:6116   */\n      swap2\n      swap1\n      pop\n      jump\t// out\n        /* \"#utility.yul\":6122:6276   */\n    tag_118:\n        /* \"#utility.yul\":6262:6268   */\n      0x6530323200000000000000000000000000000000000000000000000000000000\n        /* \"#utility.yul\":6258:6259   */\n      0x00\n        /* \"#utility.yul\":6250:6256   */\n      dup3\n        /* \"#utility.yul\":6246:6260   */\n      add\n        /* \"#utility.yul\":6239:6269   */\n      mstore\n        /* \"#utility.yul\":6122:6276   */\n      pop\n      jump\t// out\n        /* \"#utility.yul\":6282:6647   */\n    tag_119:\n        /* \"#utility.yul\":6424:6427   */\n      0x00\n        /* \"#utility.yul\":6445:6511   */\n      tag_174\n        /* \"#utility.yul\":6509:6510   */\n      0x04\n        /* \"#utility.yul\":6504:6507   */\n      dup4\n        /* \"#utility.yul\":6445:6511   */\n      tag_109\n      jump\t// in\n    tag_174:\n        /* \"#utility.yul\":6438:6511   */\n      swap2\n      pop\n        /* \"#utility.yul\":6520:6613   */\n      tag_175\n        /* \"#utility.yul\":6609:6612   */\n      dup3\n        /* \"#utility.yul\":6520:6613   */\n      tag_118\n      jump\t// in\n    tag_175:\n        /* \"#utility.yul\":6638:6640   */\n      0x20\n        /* \"#utility.yul\":6633:6636   */\n      dup3\n        /* \"#utility.yul\":6629:6641   */\n      add\n        /* \"#utility.yul\":6622:6641   */\n      swap1\n      pop\n        /* \"#utility.yul\":6282:6647   */\n      swap2\n      swap1\n      pop\n      jump\t// out\n        /* \"#utility.yul\":6653:7072   */\n    tag_89:\n        /* \"#utility.yul\":6819:6823   */\n      0x00\n        /* \"#utility.yul\":6857:6859   */\n      0x20\n        /* \"#utility.yul\":6846:6855   */\n      dup3\n        /* \"#utility.yul\":6842:6860   */\n      add\n        /* \"#utility.yul\":6834:6860   */\n      swap1\n      pop\n        /* \"#utility.yul\":6906:6915   */\n      dup2\n        /* \"#utility.yul\":6900:6904   */\n      dup2\n        /* \"#utility.yul\":6896:6916   */\n      sub\n        /* \"#utility.yul\":6892:6893   */\n      0x00\n        /* \"#utility.yul\":6881:6890   */\n      dup4\n        /* \"#utility.yul\":6877:6894   */\n      add\n        /* \"#utility.yul\":6870:6917   */\n      mstore\n        /* \"#utility.yul\":6934:7065   */\n      tag_177\n        /* \"#utility.yul\":7060:7064   */\n      dup2\n        /* \"#utility.yul\":6934:7065   */\n      tag_119\n      jump\t// in\n    tag_177:\n        /* \"#utility.yul\":6926:7065   */\n      swap1\n      pop\n        /* \"#utility.yul\":6653:7072   */\n      swap2\n      swap1\n      pop\n      jump\t// out\n        /* \"#utility.yul\":7078:7258   */\n    tag_120:\n        /* \"#utility.yul\":7126:7203   */\n      0x4e487b7100000000000000000000000000000000000000000000000000000000\n        /* \"#utility.yul\":7123:7124   */\n      0x00\n        /* \"#utility.yul\":7116:7204   */\n      mstore\n        /* \"#utility.yul\":7223:7227   */\n      0x12\n        /* \"#utility.yul\":7220:7221   */\n      0x04\n        /* \"#utility.yul\":7213:7228   */\n      mstore\n        /* \"#utility.yul\":7247:7251   */\n      0x24\n        /* \"#utility.yul\":7244:7245   */\n      0x00\n        /* \"#utility.yul\":7237:7252   */\n      revert\n        /* \"#utility.yul\":7264:7444   */\n    tag_121:\n        /* \"#utility.yul\":7312:7389   */\n      0x4e487b7100000000000000000000000000000000000000000000000000000000\n        /* \"#utility.yul\":7309:7310   */\n      0x00\n        /* \"#utility.yul\":7302:7390   */\n      mstore\n        /* \"#utility.yul\":7409:7413   */\n      0x11\n        /* \"#utility.yul\":7406:7407   */\n      0x04\n        /* \"#utility.yul\":7399:7414   */\n      mstore\n        /* \"#utility.yul\":7433:7437   */\n      0x24\n        /* \"#utility.yul\":7430:7431   */\n      0x00\n        /* \"#utility.yul\":7423:7438   */\n      revert\n        /* \"#utility.yul\":7450:7635   */\n    tag_91:\n        /* \"#utility.yul\":7490:7491   */\n      0x00\n        /* \"#utility.yul\":7507:7527   */\n      tag_181\n        /* \"#utility.yul\":7525:7526   */\n      dup3\n        /* \"#utility.yul\":7507:7527   */\n      tag_107\n      jump\t// in\n    tag_181:\n        /* \"#utility.yul\":7502:7527   */\n      swap2\n      pop\n        /* \"#utility.yul\":7541:7561   */\n      tag_182\n        /* \"#utility.yul\":7559:7560   */\n      dup4\n        /* \"#utility.yul\":7541:7561   */\n      tag_107\n      jump\t// in\n    tag_182:\n        /* \"#utility.yul\":7536:7561   */\n      swap3\n      pop\n        /* \"#utility.yul\":7580:7581   */\n      dup3\n        /* \"#utility.yul\":7570:7605   */\n      tag_183\n      jumpi\n        /* \"#utility.yul\":7585:7603   */\n      tag_184\n      tag_120\n      jump\t// in\n    tag_184:\n        /* \"#utility.yul\":7570:7605   */\n    tag_183:\n        /* \"#utility.yul\":7627:7628   */\n      dup3\n        /* \"#utility.yul\":7624:7625   */\n      dup3\n        /* \"#utility.yul\":7620:7629   */\n      div\n        /* \"#utility.yul\":7615:7629   */\n      swap1\n      pop\n        /* \"#utility.yul\":7450:7635   */\n      swap3\n      swap2\n      pop\n      pop\n      jump\t// out\n        /* \"#utility.yul\":7641:7835   */\n    tag_93:\n        /* \"#utility.yul\":7681:7685   */\n      0x00\n        /* \"#utility.yul\":7701:7721   */\n      tag_186\n        /* \"#utility.yul\":7719:7720   */\n      dup3\n        /* \"#utility.yul\":7701:7721   */\n      tag_107\n      jump\t// in\n    tag_186:\n        /* \"#utility.yul\":7696:7721   */\n      swap2\n      pop\n        /* \"#utility.yul\":7735:7755   */\n      tag_187\n        /* \"#utility.yul\":7753:7754   */\n      dup4\n        /* \"#utility.yul\":7735:7755   */\n      tag_107\n      jump\t// in\n    tag_187:\n        /* \"#utility.yul\":7730:7755   */\n      swap3\n      pop\n        /* \"#utility.yul\":7779:7780   */\n      dup3\n        /* \"#utility.yul\":7776:7777   */\n      dup3\n        /* \"#utility.yul\":7772:7781   */\n      sub\n        /* \"#utility.yul\":7764:7781   */\n      swap1\n      pop\n        /* \"#utility.yul\":7803:7804   */\n      dup2\n        /* \"#utility.yul\":7797:7801   */\n      dup2\n        /* \"#utility.yul\":7794:7805   */\n      gt\n        /* \"#utility.yul\":7791:7828   */\n      iszero\n      tag_188\n      jumpi\n        /* \"#utility.yul\":7808:7826   */\n      tag_189\n      tag_121\n      jump\t// in\n    tag_189:\n        /* \"#utility.yul\":7791:7828   */\n    tag_188:\n        /* \"#utility.yul\":7641:7835   */\n      swap3\n      swap2\n      pop\n      pop\n      jump\t// out\n        /* \"#utility.yul\":7841:8173   */\n    tag_99:\n        /* \"#utility.yul\":7962:7966   */\n      0x00\n        /* \"#utility.yul\":8000:8002   */\n      0x40\n        /* \"#utility.yul\":7989:7998   */\n      dup3\n        /* \"#utility.yul\":7985:8003   */\n      add\n        /* \"#utility.yul\":7977:8003   */\n      swap1\n      pop\n        /* \"#utility.yul\":8013:8084   */\n      tag_191\n        /* \"#utility.yul\":8081:8082   */\n      0x00\n        /* \"#utility.yul\":8070:8079   */\n      dup4\n        /* \"#utility.yul\":8066:8083   */\n      add\n        /* \"#utility.yul\":8057:8063   */\n      dup6\n        /* \"#utility.yul\":8013:8084   */\n      tag_108\n      jump\t// in\n    tag_191:\n        /* \"#utility.yul\":8094:8166   */\n      tag_192\n        /* \"#utility.yul\":8162:8164   */\n      0x20\n        /* \"#utility.yul\":8151:8160   */\n      dup4\n        /* \"#utility.yul\":8147:8165   */\n      add\n        /* \"#utility.yul\":8138:8144   */\n      dup5\n        /* \"#utility.yul\":8094:8166   */\n      tag_108\n      jump\t// in\n    tag_192:\n        /* \"#utility.yul\":7841:8173   */\n      swap4\n      swap3\n      pop\n      pop\n      pop\n      jump\t// out\n\n    auxdata: 0xa2646970667358221220de72e778750668e0a390481e36029c4202120e18e8faeab56ed8323251c1d66664736f6c63430008140033\n}\n",
				"bytecode": {
					"linkReferences": {},
					"object": "610120604052604051620011503803806200115083398181016040528101906200002a91906200032d565b8373ffffffffffffffffffffffffffffffffffffffff168573ffffffffffffffffffffffffffffffffffffffff16141580156200009357508173ffffffffffffffffffffffffffffffffffffffff168573ffffffffffffffffffffffffffffffffffffffff1614155b8015620000cc57508273ffffffffffffffffffffffffffffffffffffffff168473ffffffffffffffffffffffffffffffffffffffff1614155b80156200010557508173ffffffffffffffffffffffffffffffffffffffff168473ffffffffffffffffffffffffffffffffffffffff1614155b80156200013e57508173ffffffffffffffffffffffffffffffffffffffff168373ffffffffffffffffffffffffffffffffffffffff1614155b62000180576040517f08c379a000000000000000000000000000000000000000000000000000000000815260040162000177906200040f565b60405180910390fd5b8473ffffffffffffffffffffffffffffffffffffffff1660808173ffffffffffffffffffffffffffffffffffffffff16815250508373ffffffffffffffffffffffffffffffffffffffff1660a08173ffffffffffffffffffffffffffffffffffffffff16815250508273ffffffffffffffffffffffffffffffffffffffff1660c08173ffffffffffffffffffffffffffffffffffffffff16815250508173ffffffffffffffffffffffffffffffffffffffff1660e08173ffffffffffffffffffffffffffffffffffffffff168152505080610100818152505060015f806101000a81548160ff0219169083600481111562000280576200027f6200042f565b5b021790555050505050506200045c565b5f80fd5b5f73ffffffffffffffffffffffffffffffffffffffff82169050919050565b5f620002bf8262000294565b9050919050565b620002d181620002b3565b8114620002dc575f80fd5b50565b5f81519050620002ef81620002c6565b92915050565b5f819050919050565b6200030981620002f5565b811462000314575f80fd5b50565b5f815190506200032781620002fe565b92915050565b5f805f805f60a0868803121562000349576200034862000290565b5b5f6200035888828901620002df565b95505060206200036b88828901620002df565b94505060406200037e88828901620002df565b93505060606200039188828901620002df565b9250506080620003a48882890162000317565b9150509295509295909350565b5f82825260208201905092915050565b7f65303031000000000000000000000000000000000000000000000000000000005f82015250565b5f620003f7600483620003b1565b91506200040482620003c1565b602082019050919050565b5f6020820190508181035f8301526200042881620003e9565b9050919050565b7f4e487b71000000000000000000000000000000000000000000000000000000005f52602160045260245ffd5b60805160a05160c05160e05161010051610c70620004e05f395f818161040f0152818161065c015261068b01525f81816102200152818161034a015281816103db01528181610433015281816106b801526107b701525f818161055d01526105c201525f81816101e80152818161071c015261078001525f6103b70152610c705ff3fe608060405260043610610089575f3560e01c806380f556051161005857806380f556051461012857806385209ee01461015257806397e9a0bf1461017c578063d2c9ea03146101a6578063f7260d3e146101bc57610090565b806308551a531461009457806318609960146100be5780634fbc4f60146100e85780637150d8ae146100fe57610090565b3661009057005b5f80fd5b34801561009f575f80fd5b506100a86101e6565b6040516100b59190610868565b60405180910390f35b3480156100c9575f80fd5b506100d261020a565b6040516100df91906108f4565b60405180910390f35b3480156100f3575f80fd5b506100fc61021e565b005b348015610109575f80fd5b506101126103b5565b60405161011f9190610868565b60405180910390f35b348015610133575f80fd5b5061013c6103d9565b6040516101499190610868565b60405180910390f35b34801561015d575f80fd5b506101666103fd565b60405161017391906108f4565b60405180910390f35b348015610187575f80fd5b5061019061040d565b60405161019d9190610925565b60405180910390f35b3480156101b1575f80fd5b506101ba610431565b005b3480156101c7575f80fd5b506101d06105c0565b6040516101dd9190610868565b60405180910390f35b7f000000000000000000000000000000000000000000000000000000000000000081565b5f805f9054906101000a900460ff16905090565b7f000000000000000000000000000000000000000000000000000000000000000073ffffffffffffffffffffffffffffffffffffffff163373ffffffffffffffffffffffffffffffffffffffff16146102ac576040517f08c379a00000000000000000000000000000000000000000000000000000000081526004016102a390610998565b60405180910390fd5b600260048111156102c0576102bf610881565b5b5f8054906101000a900460ff1660048111156102df576102de610881565b5b1461031f576040517f08c379a000000000000000000000000000000000000000000000000000000000815260040161031690610a00565b60405180910390fd5b60035f806101000a81548160ff0219169083600481111561034357610342610881565b5b02179055507f000000000000000000000000000000000000000000000000000000000000000073ffffffffffffffffffffffffffffffffffffffff167f1ddd2177a0a6dd96c0353f0a0c2c45fcd1564f1c3ff3501c966e56f299b66e4060405160405180910390a26103b36105e4565b565b7f000000000000000000000000000000000000000000000000000000000000000081565b7f000000000000000000000000000000000000000000000000000000000000000081565b5f8054906101000a900460ff1681565b7f000000000000000000000000000000000000000000000000000000000000000081565b7f000000000000000000000000000000000000000000000000000000000000000073ffffffffffffffffffffffffffffffffffffffff163373ffffffffffffffffffffffffffffffffffffffff16146104bf576040517f08c379a00000000000000000000000000000000000000000000000000000000081526004016104b690610a68565b60405180910390fd5b600160048111156104d3576104d2610881565b5b5f8054906101000a900460ff1660048111156104f2576104f1610881565b5b14610532576040517f08c379a000000000000000000000000000000000000000000000000000000000815260040161052990610ad0565b60405180910390fd5b60025f806101000a81548160ff0219169083600481111561055657610555610881565b5b02179055507f000000000000000000000000000000000000000000000000000000000000000073ffffffffffffffffffffffffffffffffffffffff167f2b4d886262cf2de6c7d4426877b49a269f028810e47e65e9debbf5cd75b99f8b60405160405180910390a2565b7f000000000000000000000000000000000000000000000000000000000000000081565b600360048111156105f8576105f7610881565b5b5f8054906101000a900460ff16600481111561061757610616610881565b5b14610657576040517f08c379a000000000000000000000000000000000000000000000000000000000815260040161064e90610b38565b60405180910390fd5b5f600a7f00000000000000000000000000000000000000000000000000000000000000006106859190610bb0565b90505f817f00000000000000000000000000000000000000000000000000000000000000006106b49190610be0565b90507f000000000000000000000000000000000000000000000000000000000000000073ffffffffffffffffffffffffffffffffffffffff166108fc8390811502906040515f60405180830381858888f19350505050158015610719573d5f803e3d5ffd5b507f000000000000000000000000000000000000000000000000000000000000000073ffffffffffffffffffffffffffffffffffffffff166108fc8290811502906040515f60405180830381858888f1935050505015801561077d573d5f803e3d5ffd5b507f000000000000000000000000000000000000000000000000000000000000000073ffffffffffffffffffffffffffffffffffffffff167f000000000000000000000000000000000000000000000000000000000000000073ffffffffffffffffffffffffffffffffffffffff167fcc2c3f002c6146160e9eb8ade8202f88f3d01aa0fbbc98e7582f7280af10651f848460405161081d929190610c13565b60405180910390a35050565b5f73ffffffffffffffffffffffffffffffffffffffff82169050919050565b5f61085282610829565b9050919050565b61086281610848565b82525050565b5f60208201905061087b5f830184610859565b92915050565b7f4e487b71000000000000000000000000000000000000000000000000000000005f52602160045260245ffd5b600581106108bf576108be610881565b5b50565b5f8190506108cf826108ae565b919050565b5f6108de826108c2565b9050919050565b6108ee816108d4565b82525050565b5f6020820190506109075f8301846108e5565b92915050565b5f819050919050565b61091f8161090d565b82525050565b5f6020820190506109385f830184610916565b92915050565b5f82825260208201905092915050565b7f65303230000000000000000000000000000000000000000000000000000000005f82015250565b5f61098260048361093e565b915061098d8261094e565b602082019050919050565b5f6020820190508181035f8301526109af81610976565b9050919050565b7f65303231000000000000000000000000000000000000000000000000000000005f82015250565b5f6109ea60048361093e565b91506109f5826109b6565b602082019050919050565b5f6020820190508181035f830152610a17816109de565b9050919050565b7f65303234000000000000000000000000000000000000000000000000000000005f82015250565b5f610a5260048361093e565b9150610a5d82610a1e565b602082019050919050565b5f6020820190508181035f830152610a7f81610a46565b9050919050565b7f65303133000000000000000000000000000000000000000000000000000000005f82015250565b5f610aba60048361093e565b9150610ac582610a86565b602082019050919050565b5f6020820190508181035f830152610ae781610aae565b9050919050565b7f65303232000000000000000000000000000000000000000000000000000000005f82015250565b5f610b2260048361093e565b9150610b2d82610aee565b602082019050919050565b5f6020820190508181035f830152610b4f81610b16565b9050919050565b7f4e487b71000000000000000000000000000000000000000000000000000000005f52601260045260245ffd5b7f4e487b71000000000000000000000000000000000000000000000000000000005f52601160045260245ffd5b5f610bba8261090d565b9150610bc58361090d565b925082610bd557610bd4610b56565b5b828204905092915050565b5f610bea8261090d565b9150610bf58361090d565b9250828203905081811115610c0d57610c0c610b83565b5b92915050565b5f604082019050610c265f830185610916565b610c336020830184610916565b939250505056fea2646970667358221220de72e778750668e0a390481e36029c4202120e18e8faeab56ed8323251c1d66664736f6c63430008140033",
					"opcodes": "PUSH2 0x120 PUSH1 0x40 MSTORE PUSH1 0x40 MLOAD PUSH3 0x1150 CODESIZE SUB DUP1 PUSH3 0x1150 DUP4 CODECOPY DUP2 DUP2 ADD PUSH1 0x40 MSTORE DUP2 ADD SWAP1 PUSH3 0x2A SWAP2 SWAP1 PUSH3 0x32D JUMP JUMPDEST DUP4 PUSH20 0xFFFFFFFFFFFFFFFFFFFFFFFFFFFFFFFFFFFFFFFF AND DUP6 PUSH20 0xFFFFFFFFFFFFFFFFFFFFFFFFFFFFFFFFFFFFFFFF AND EQ ISZERO DUP1 ISZERO PUSH3 0x93 JUMPI POP DUP2 PUSH20 0xFFFFFFFFFFFFFFFFFFFFFFFFFFFFFFFFFFFFFFFF AND DUP6 PUSH20 0xFFFFFFFFFFFFFFFFFFFFFFFFFFFFFFFFFFFFFFFF AND EQ ISZERO JUMPDEST DUP1 ISZERO PUSH3 0xCC JUMPI POP DUP3 PUSH20 0xFFFFFFFFFFFFFFFFFFFFFFFFFFFFFFFFFFFFFFFF AND DUP5 PUSH20 0xFFFFFFFFFFFFFFFFFFFFFFFFFFFFFFFFFFFFFFFF AND EQ ISZERO JUMPDEST DUP1 ISZERO PUSH3 0x105 JUMPI POP DUP2 PUSH20 0xFFFFFFFFFFFFFFFFFFFFFFFFFFFFFFFFFFFFFFFF AND DUP5 PUSH20 0xFFFFFFFFFFFFFFFFFFFFFFFFFFFFFFFFFFFFFFFF AND EQ ISZERO JUMPDEST DUP1 ISZERO PUSH3 0x13E JUMPI POP DUP2 PUSH20 0xFFFFFFFFFFFFFFFFFFFFFFFFFFFFFFFFFFFFFFFF AND DUP4 PUSH20 0xFFFFFFFFFFFFFFFFFFFFFFFFFFFFFFFFFFFFFFFF AND EQ ISZERO JUMPDEST PUSH3 0x180 JUMPI PUSH1 0x40 MLOAD PUSH32 0x8C379A000000000000000000000000000000000000000000000000000000000 DUP2 MSTORE PUSH1 0x4 ADD PUSH3 0x177 SWAP1 PUSH3 0x40F JUMP JUMPDEST PUSH1 0x40 MLOAD DUP1 SWAP2 SUB SWAP1 REVERT JUMPDEST DUP5 PUSH20 0xFFFFFFFFFFFFFFFFFFFFFFFFFFFFFFFFFFFFFFFF AND PUSH1 0x80 DUP2 PUSH20 0xFFFFFFFFFFFFFFFFFFFFFFFFFFFFFFFFFFFFFFFF AND DUP2 MSTORE POP POP DUP4 PUSH20 0xFFFFFFFFFFFFFFFFFFFFFFFFFFFFFFFFFFFFFFFF AND PUSH1 0xA0 DUP2 PUSH20 0xFFFFFFFFFFFFFFFFFFFFFFFFFFFFFFFFFFFFFFFF AND DUP2 MSTORE POP POP DUP3 PUSH20 0xFFFFFFFFFFFFFFFFFFFFFFFFFFFFFFFFFFFFFFFF AND PUSH1 0xC0 DUP2 PUSH20 0xFFFFFFFFFFFFFFFFFFFFFFFFFFFFFFFFFFFFFFFF AND DUP2 MSTORE POP POP DUP2 PUSH20 0xFFFFFFFFFFFFFFFFFFFFFFFFFFFFFFFFFFFFFFFF AND PUSH1 0xE0 DUP2 PUSH20 0xFFFFFFFFFFFFFFFFFFFFFFFFFFFFFFFFFFFFFFFF AND DUP2 MSTORE POP POP DUP1 PUSH2 0x100 DUP2 DUP2 MSTORE POP POP PUSH1 0x1 PUSH0 DUP1 PUSH2 0x100 EXP DUP2 SLOAD DUP2 PUSH1 0xFF MUL NOT AND SWAP1 DUP4 PUSH1 0x4 DUP2 GT ISZERO PUSH3 0x280 JUMPI PUSH3 0x27F PUSH3 0x42F JUMP JUMPDEST JUMPDEST MUL OR SWAP1 SSTORE POP POP POP POP POP POP PUSH3 0x45C JUMP JUMPDEST PUSH0 DUP1 REVERT JUMPDEST PUSH0 PUSH20 0xFFFFFFFFFFFFFFFFFFFFFFFFFFFFFFFFFFFFFFFF DUP3 AND SWAP1 POP SWAP2 SWAP1 POP JUMP JUMPDEST PUSH0 PUSH3 0x2BF DUP3 PUSH3 0x294 JUMP JUMPDEST SWAP1 POP SWAP2 SWAP1 POP JUMP JUMPDEST PUSH3 0x2D1 DUP2 PUSH3 0x2B3 JUMP JUMPDEST DUP2 EQ PUSH3 0x2DC JUMPI PUSH0 DUP1 REVERT JUMPDEST POP JUMP JUMPDEST PUSH0 DUP2 MLOAD SWAP1 POP PUSH3 0x2EF DUP2 PUSH3 0x2C6 JUMP JUMPDEST SWAP3 SWAP2 POP POP JUMP JUMPDEST PUSH0 DUP2 SWAP1 POP SWAP2 SWAP1 POP JUMP JUMPDEST PUSH3 0x309 DUP2 PUSH3 0x2F5 JUMP JUMPDEST DUP2 EQ PUSH3 0x314 JUMPI PUSH0 DUP1 REVERT JUMPDEST POP JUMP JUMPDEST PUSH0 DUP2 MLOAD SWAP1 POP PUSH3 0x327 DUP2 PUSH3 0x2FE JUMP JUMPDEST SWAP3 SWAP2 POP POP JUMP JUMPDEST PUSH0 DUP1 PUSH0 DUP1 PUSH0 PUSH1 0xA0 DUP7 DUP9 SUB SLT ISZERO PUSH3 0x349 JUMPI PUSH3 0x348 PUSH3 0x290 JUMP JUMPDEST JUMPDEST PUSH0 PUSH3 0x358 DUP9 DUP3 DUP10 ADD PUSH3 0x2DF JUMP JUMPDEST SWAP6 POP POP PUSH1 0x20 PUSH3 0x36B DUP9 DUP3 DUP10 ADD PUSH3 0x2DF JUMP JUMPDEST SWAP5 POP POP PUSH1 0x40 PUSH3 0x37E DUP9 DUP3 DUP10 ADD PUSH3 0x2DF JUMP JUMPDEST SWAP4 POP POP PUSH1 0x60 PUSH3 0x391 DUP9 DUP3 DUP10 ADD PUSH3 0x2DF JUMP JUMPDEST SWAP3 POP POP PUSH1 0x80 PUSH3 0x3A4 DUP9 DUP3 DUP10 ADD PUSH3 0x317 JUMP JUMPDEST SWAP2 POP POP SWAP3 SWAP6 POP SWAP3 SWAP6 SWAP1 SWAP4 POP JUMP JUMPDEST PUSH0 DUP3 DUP3 MSTORE PUSH1 0x20 DUP3 ADD SWAP1 POP SWAP3 SWAP2 POP POP JUMP JUMPDEST PUSH32 0x6530303100000000000000000000000000000000000000000000000000000000 PUSH0 DUP3 ADD MSTORE POP JUMP JUMPDEST PUSH0 PUSH3 0x3F7 PUSH1 0x4 DUP4 PUSH3 0x3B1 JUMP JUMPDEST SWAP2 POP PUSH3 0x404 DUP3 PUSH3 0x3C1 JUMP JUMPDEST PUSH1 0x20 DUP3 ADD SWAP1 POP SWAP2 SWAP1 POP JUMP JUMPDEST PUSH0 PUSH1 0x20 DUP3 ADD SWAP1 POP DUP2 DUP2 SUB PUSH0 DUP4 ADD MSTORE PUSH3 0x428 DUP2 PUSH3 0x3E9 JUMP JUMPDEST SWAP1 POP SWAP2 SWAP1 POP JUMP JUMPDEST PUSH32 0x4E487B7100000000000000000000000000000000000000000000000000000000 PUSH0 MSTORE PUSH1 0x21 PUSH1 0x4 MSTORE PUSH1 0x24 PUSH0 REVERT JUMPDEST PUSH1 0x80 MLOAD PUSH1 0xA0 MLOAD PUSH1 0xC0 MLOAD PUSH1 0xE0 MLOAD PUSH2 0x100 MLOAD PUSH2 0xC70 PUSH3 0x4E0 PUSH0 CODECOPY PUSH0 DUP2 DUP2 PUSH2 0x40F ADD MSTORE DUP2 DUP2 PUSH2 0x65C ADD MSTORE PUSH2 0x68B ADD MSTORE PUSH0 DUP2 DUP2 PUSH2 0x220 ADD MSTORE DUP2 DUP2 PUSH2 0x34A ADD MSTORE DUP2 DUP2 PUSH2 0x3DB ADD MSTORE DUP2 DUP2 PUSH2 0x433 ADD MSTORE DUP2 DUP2 PUSH2 0x6B8 ADD MSTORE PUSH2 0x7B7 ADD MSTORE PUSH0 DUP2 DUP2 PUSH2 0x55D ADD MSTORE PUSH2 0x5C2 ADD MSTORE PUSH0 DUP2 DUP2 PUSH2 0x1E8 ADD MSTORE DUP2 DUP2 PUSH2 0x71C ADD MSTORE PUSH2 0x780 ADD MSTORE PUSH0 PUSH2 0x3B7 ADD MSTORE PUSH2 0xC70 PUSH0 RETURN INVALID PUSH1 0x80 PUSH1 0x40 MSTORE PUSH1 0x4 CALLDATASIZE LT PUSH2 0x89 JUMPI PUSH0 CALLDATALOAD PUSH1 0xE0 SHR DUP1 PUSH4 0x80F55605 GT PUSH2 0x58 JUMPI DUP1 PUSH4 0x80F55605 EQ PUSH2 0x128 JUMPI DUP1 PUSH4 0x85209EE0 EQ PUSH2 0x152 JUMPI DUP1 PUSH4 0x97E9A0BF EQ PUSH2 0x17C JUMPI DUP1 PUSH4 0xD2C9EA03 EQ PUSH2 0x1A6 JUMPI DUP1 PUSH4 0xF7260D3E EQ PUSH2 0x1BC JUMPI PUSH2 0x90 JUMP JUMPDEST DUP1 PUSH4 0x8551A53 EQ PUSH2 0x94 JUMPI DUP1 PUSH4 0x18609960 EQ PUSH2 0xBE JUMPI DUP1 PUSH4 0x4FBC4F60 EQ PUSH2 0xE8 JUMPI DUP1 PUSH4 0x7150D8AE EQ PUSH2 0xFE JUMPI PUSH2 0x90 JUMP JUMPDEST CALLDATASIZE PUSH2 0x90 JUMPI STOP JUMPDEST PUSH0 DUP1 REVERT JUMPDEST CALLVALUE DUP1 ISZERO PUSH2 0x9F JUMPI PUSH0 DUP1 REVERT JUMPDEST POP PUSH2 0xA8 PUSH2 0x1E6 JUMP JUMPDEST PUSH1 0x40 MLOAD PUSH2 0xB5 SWAP2 SWAP1 PUSH2 0x868 JUMP JUMPDEST PUSH1 0x40 MLOAD DUP1 SWAP2 SUB SWAP1 RETURN JUMPDEST CALLVALUE DUP1 ISZERO PUSH2 0xC9 JUMPI PUSH0 DUP1 REVERT JUMPDEST POP PUSH2 0xD2 PUSH2 0x20A JUMP JUMPDEST PUSH1 0x40 MLOAD PUSH2 0xDF SWAP2 SWAP1 PUSH2 0x8F4 JUMP JUMPDEST PUSH1 0x40 MLOAD DUP1 SWAP2 SUB SWAP1 RETURN JUMPDEST CALLVALUE DUP1 ISZERO PUSH2 0xF3 JUMPI PUSH0 DUP1 REVERT JUMPDEST POP PUSH2 0xFC PUSH2 0x21E JUMP JUMPDEST STOP JUMPDEST CALLVALUE DUP1 ISZERO PUSH2 0x109 JUMPI PUSH0 DUP1 REVERT JUMPDEST POP PUSH2 0x112 PUSH2 0x3B5 JUMP JUMPDEST PUSH1 0x40 MLOAD PUSH2 0x11F SWAP2 SWAP1 PUSH2 0x868 JUMP JUMPDEST PUSH1 0x40 MLOAD DUP1 SWAP2 SUB SWAP1 RETURN JUMPDEST CALLVALUE DUP1 ISZERO PUSH2 0x133 JUMPI PUSH0 DUP1 REVERT JUMPDEST POP PUSH2 0x13C PUSH2 0x3D9 JUMP JUMPDEST PUSH1 0x40 MLOAD PUSH2 0x149 SWAP2 SWAP1 PUSH2 0x868 JUMP JUMPDEST PUSH1 0x40 MLOAD DUP1 SWAP2 SUB SWAP1 RETURN JUMPDEST CALLVALUE DUP1 ISZERO PUSH2 0x15D JUMPI PUSH0 DUP1 REVERT JUMPDEST POP PUSH2 0x166 PUSH2 0x3FD JUMP JUMPDEST PUSH1 0x40 MLOAD PUSH2 0x173 SWAP2 SWAP1 PUSH2 0x8F4 JUMP JUMPDEST PUSH1 0x40 MLOAD DUP1 SWAP2 SUB SWAP1 RETURN JUMPDEST CALLVALUE DUP1 ISZERO PUSH2 0x187 JUMPI PUSH0 DUP1 REVERT JUMPDEST POP PUSH2 0x190 PUSH2 0x40D JUMP JUMPDEST PUSH1 0x40 MLOAD PUSH2 0x19D SWAP2 SWAP1 PUSH2 0x925 JUMP JUMPDEST PUSH1 0x40 MLOAD DUP1 SWAP2 SUB SWAP1 RETURN JUMPDEST CALLVALUE DUP1 ISZERO PUSH2 0x1B1 JUMPI PUSH0 DUP1 REVERT JUMPDEST POP PUSH2 0x1BA PUSH2 0x431 JUMP JUMPDEST STOP JUMPDEST CALLVALUE DUP1 ISZERO PUSH2 0x1C7 JUMPI PUSH0 DUP1 REVERT JUMPDEST POP PUSH2 0x1D0 PUSH2 0x5C0 JUMP JUMPDEST PUSH1 0x40 MLOAD PUSH2 0x1DD SWAP2 SWAP1 PUSH2 0x868 JUMP JUMPDEST PUSH1 0x40 MLOAD DUP1 SWAP2 SUB SWAP1 RETURN JUMPDEST PUSH32 0x0 DUP2 JUMP JUMPDEST PUSH0 DUP1 PUSH0 SWAP1 SLOAD SWAP1 PUSH2 0x100 EXP SWAP1 DIV PUSH1 0xFF AND SWAP1 POP SWAP1 JUMP JUMPDEST PUSH32 0x0 PUSH20 0xFFFFFFFFFFFFFFFFFFFFFFFFFFFFFFFFFFFFFFFF AND CALLER PUSH20 0xFFFFFFFFFFFFFFFFFFFFFFFFFFFFFFFFFFFFFFFF AND EQ PUSH2 0x2AC JUMPI PUSH1 0x40 MLOAD PUSH32 0x8C379A000000000000000000000000000000000000000000000000000000000 DUP2 MSTORE PUSH1 0x4 ADD PUSH2 0x2A3 SWAP1 PUSH2 0x998 JUMP JUMPDEST PUSH1 0x40 MLOAD DUP1 SWAP2 SUB SWAP1 REVERT JUMPDEST PUSH1 0x2 PUSH1 0x4 DUP2 GT ISZERO PUSH2 0x2C0 JUMPI PUSH2 0x2BF PUSH2 0x881 JUMP JUMPDEST JUMPDEST PUSH0 DUP1 SLOAD SWAP1 PUSH2 0x100 EXP SWAP1 DIV PUSH1 0xFF AND PUSH1 0x4 DUP2 GT ISZERO PUSH2 0x2DF JUMPI PUSH2 0x2DE PUSH2 0x881 JUMP JUMPDEST JUMPDEST EQ PUSH2 0x31F JUMPI PUSH1 0x40 MLOAD PUSH32 0x8C379A000000000000000000000000000000000000000000000000000000000 DUP2 MSTORE PUSH1 0x4 ADD PUSH2 0x316 SWAP1 PUSH2 0xA00 JUMP JUMPDEST PUSH1 0x40 MLOAD DUP1 SWAP2 SUB SWAP1 REVERT JUMPDEST PUSH1 0x3 PUSH0 DUP1 PUSH2 0x100 EXP DUP2 SLOAD DUP2 PUSH1 0xFF MUL NOT AND SWAP1 DUP4 PUSH1 0x4 DUP2 GT ISZERO PUSH2 0x343 JUMPI PUSH2 0x342 PUSH2 0x881 JUMP JUMPDEST JUMPDEST MUL OR SWAP1 SSTORE POP PUSH32 0x0 PUSH20 0xFFFFFFFFFFFFFFFFFFFFFFFFFFFFFFFFFFFFFFFF AND PUSH32 0x1DDD2177A0A6DD96C0353F0A0C2C45FCD1564F1C3FF3501C966E56F299B66E40 PUSH1 0x40 MLOAD PUSH1 0x40 MLOAD DUP1 SWAP2 SUB SWAP1 LOG2 PUSH2 0x3B3 PUSH2 0x5E4 JUMP JUMPDEST JUMP JUMPDEST PUSH32 0x0 DUP2 JUMP JUMPDEST PUSH32 0x0 DUP2 JUMP JUMPDEST PUSH0 DUP1 SLOAD SWAP1 PUSH2 0x100 EXP SWAP1 DIV PUSH1 0xFF AND DUP2 JUMP JUMPDEST PUSH32 0x0 DUP2 JUMP JUMPDEST PUSH32 0x0 PUSH20 0xFFFFFFFFFFFFFFFFFFFFFFFFFFFFFFFFFFFFFFFF AND CALLER PUSH20 0xFFFFFFFFFFFFFFFFFFFFFFFFFFFFFFFFFFFFFFFF AND EQ PUSH2 0x4BF JUMPI PUSH1 0x40 MLOAD PUSH32 0x8C379A000000000000000000000000000000000000000000000000000000000 DUP2 MSTORE PUSH1 0x4 ADD PUSH2 0x4B6 SWAP1 PUSH2 0xA68 JUMP JUMPDEST PUSH1 0x40 MLOAD DUP1 SWAP2 SUB SWAP1 REVERT JUMPDEST PUSH1 0x1 PUSH1 0x4 DUP2 GT ISZERO PUSH2 0x4D3 JUMPI PUSH2 0x4D2 PUSH2 0x881 JUMP JUMPDEST JUMPDEST PUSH0 DUP1 SLOAD SWAP1 PUSH2 0x100 EXP SWAP1 DIV PUSH1 0xFF AND PUSH1 0x4 DUP2 GT ISZERO PUSH2 0x4F2 JUMPI PUSH2 0x4F1 PUSH2 0x881 JUMP JUMPDEST JUMPDEST EQ PUSH2 0x532 JUMPI PUSH1 0x40 MLOAD PUSH32 0x8C379A000000000000000000000000000000000000000000000000000000000 DUP2 MSTORE PUSH1 0x4 ADD PUSH2 0x529 SWAP1 PUSH2 0xAD0 JUMP JUMPDEST PUSH1 0x40 MLOAD DUP1 SWAP2 SUB SWAP1 REVERT JUMPDEST PUSH1 0x2 PUSH0 DUP1 PUSH2 0x100 EXP DUP2 SLOAD DUP2 PUSH1 0xFF MUL NOT AND SWAP1 DUP4 PUSH1 0x4 DUP2 GT ISZERO PUSH2 0x556 JUMPI PUSH2 0x555 PUSH2 0x881 JUMP JUMPDEST JUMPDEST MUL OR SWAP1 SSTORE POP PUSH32 0x0 PUSH20 0xFFFFFFFFFFFFFFFFFFFFFFFFFFFFFFFFFFFFFFFF AND PUSH32 0x2B4D886262CF2DE6C7D4426877B49A269F028810E47E65E9DEBBF5CD75B99F8B PUSH1 0x40 MLOAD PUSH1 0x40 MLOAD DUP1 SWAP2 SUB SWAP1 LOG2 JUMP JUMPDEST PUSH32 0x0 DUP2 JUMP JUMPDEST PUSH1 0x3 PUSH1 0x4 DUP2 GT ISZERO PUSH2 0x5F8 JUMPI PUSH2 0x5F7 PUSH2 0x881 JUMP JUMPDEST JUMPDEST PUSH0 DUP1 SLOAD SWAP1 PUSH2 0x100 EXP SWAP1 DIV PUSH1 0xFF AND PUSH1 0x4 DUP2 GT ISZERO PUSH2 0x617 JUMPI PUSH2 0x616 PUSH2 0x881 JUMP JUMPDEST JUMPDEST EQ PUSH2 0x657 JUMPI PUSH1 0x40 MLOAD PUSH32 0x8C379A000000000000000000000000000000000000000000000000000000000 DUP2 MSTORE PUSH1 0x4 ADD PUSH2 0x64E SWAP1 PUSH2 0xB38 JUMP JUMPDEST PUSH1 0x40 MLOAD DUP1 SWAP2 SUB SWAP1 REVERT JUMPDEST PUSH0 PUSH1 0xA PUSH32 0x0 PUSH2 0x685 SWAP2 SWAP1 PUSH2 0xBB0 JUMP JUMPDEST SWAP1 POP PUSH0 DUP2 PUSH32 0x0 PUSH2 0x6B4 SWAP2 SWAP1 PUSH2 0xBE0 JUMP JUMPDEST SWAP1 POP PUSH32 0x0 PUSH20 0xFFFFFFFFFFFFFFFFFFFFFFFFFFFFFFFFFFFFFFFF AND PUSH2 0x8FC DUP4 SWAP1 DUP2 ISZERO MUL SWAP1 PUSH1 0x40 MLOAD PUSH0 PUSH1 0x40 MLOAD DUP1 DUP4 SUB DUP2 DUP6 DUP9 DUP9 CALL SWAP4 POP POP POP POP ISZERO DUP1 ISZERO PUSH2 0x719 JUMPI RETURNDATASIZE PUSH0 DUP1 RETURNDATACOPY RETURNDATASIZE PUSH0 REVERT JUMPDEST POP PUSH32 0x0 PUSH20 0xFFFFFFFFFFFFFFFFFFFFFFFFFFFFFFFFFFFFFFFF AND PUSH2 0x8FC DUP3 SWAP1 DUP2 ISZERO MUL SWAP1 PUSH1 0x40 MLOAD PUSH0 PUSH1 0x40 MLOAD DUP1 DUP4 SUB DUP2 DUP6 DUP9 DUP9 CALL SWAP4 POP POP POP POP ISZERO DUP1 ISZERO PUSH2 0x77D JUMPI RETURNDATASIZE PUSH0 DUP1 RETURNDATACOPY RETURNDATASIZE PUSH0 REVERT JUMPDEST POP PUSH32 0x0 PUSH20 0xFFFFFFFFFFFFFFFFFFFFFFFFFFFFFFFFFFFFFFFF AND PUSH32 0x0 PUSH20 0xFFFFFFFFFFFFFFFFFFFFFFFFFFFFFFFFFFFFFFFF AND PUSH32 0xCC2C3F002C6146160E9EB8ADE8202F88F3D01AA0FBBC98E7582F7280AF10651F DUP5 DUP5 PUSH1 0x40 MLOAD PUSH2 0x81D SWAP3 SWAP2 SWAP1 PUSH2 0xC13 JUMP JUMPDEST PUSH1 0x40 MLOAD DUP1 SWAP2 SUB SWAP1 LOG3 POP POP JUMP JUMPDEST PUSH0 PUSH20 0xFFFFFFFFFFFFFFFFFFFFFFFFFFFFFFFFFFFFFFFF DUP3 AND SWAP1 POP SWAP2 SWAP1 POP JUMP JUMPDEST PUSH0 PUSH2 0x852 DUP3 PUSH2 0x829 JUMP JUMPDEST SWAP1 POP SWAP2 SWAP1 POP JUMP JUMPDEST PUSH2 0x862 DUP2 PUSH2 0x848 JUMP JUMPDEST DUP3 MSTORE POP POP JUMP JUMPDEST PUSH0 PUSH1 0x20 DUP3 ADD SWAP1 POP PUSH2 0x87B PUSH0 DUP4 ADD DUP5 PUSH2 0x859 JUMP JUMPDEST SWAP3 SWAP2 POP POP JUMP JUMPDEST PUSH32 0x4E487B7100000000000000000000000000000000000000000000000000000000 PUSH0 MSTORE PUSH1 0x21 PUSH1 0x4 MSTORE PUSH1 0x24 PUSH0 REVERT JUMPDEST PUSH1 0x5 DUP2 LT PUSH2 0x8BF JUMPI PUSH2 0x8BE PUSH2 0x881 JUMP JUMPDEST JUMPDEST POP JUMP JUMPDEST PUSH0 DUP2 SWAP1 POP PUSH2 0x8CF DUP3 PUSH2 0x8AE JUMP JUMPDEST SWAP2 SWAP1 POP JUMP JUMPDEST PUSH0 PUSH2 0x8DE DUP3 PUSH2 0x8C2 JUMP JUMPDEST SWAP1 POP SWAP2 SWAP1 POP JUMP JUMPDEST PUSH2 0x8EE DUP2 PUSH2 0x8D4 JUMP JUMPDEST DUP3 MSTORE POP POP JUMP JUMPDEST PUSH0 PUSH1 0x20 DUP3 ADD SWAP1 POP PUSH2 0x907 PUSH0 DUP4 ADD DUP5 PUSH2 0x8E5 JUMP JUMPDEST SWAP3 SWAP2 POP POP JUMP JUMPDEST PUSH0 DUP2 SWAP1 POP SWAP2 SWAP1 POP JUMP JUMPDEST PUSH2 0x91F DUP2 PUSH2 0x90D JUMP JUMPDEST DUP3 MSTORE POP POP JUMP JUMPDEST PUSH0 PUSH1 0x20 DUP3 ADD SWAP1 POP PUSH2 0x938 PUSH0 DUP4 ADD DUP5 PUSH2 0x916 JUMP JUMPDEST SWAP3 SWAP2 POP POP JUMP JUMPDEST PUSH0 DUP3 DUP3 MSTORE PUSH1 0x20 DUP3 ADD SWAP1 POP SWAP3 SWAP2 POP POP JUMP JUMPDEST PUSH32 0x6530323000000000000000000000000000000000000000000000000000000000 PUSH0 DUP3 ADD MSTORE POP JUMP JUMPDEST PUSH0 PUSH2 0x982 PUSH1 0x4 DUP4 PUSH2 0x93E JUMP JUMPDEST SWAP2 POP PUSH2 0x98D DUP3 PUSH2 0x94E JUMP JUMPDEST PUSH1 0x20 DUP3 ADD SWAP1 POP SWAP2 SWAP1 POP JUMP JUMPDEST PUSH0 PUSH1 0x20 DUP3 ADD SWAP1 POP DUP2 DUP2 SUB PUSH0 DUP4 ADD MSTORE PUSH2 0x9AF DUP2 PUSH2 0x976 JUMP JUMPDEST SWAP1 POP SWAP2 SWAP1 POP JUMP JUMPDEST PUSH32 0x6530323100000000000000000000000000000000000000000000000000000000 PUSH0 DUP3 ADD MSTORE POP JUMP JUMPDEST PUSH0 PUSH2 0x9EA PUSH1 0x4 DUP4 PUSH2 0x93E JUMP JUMPDEST SWAP2 POP PUSH2 0x9F5 DUP3 PUSH2 0x9B6 JUMP JUMPDEST PUSH1 0x20 DUP3 ADD SWAP1 POP SWAP2 SWAP1 POP JUMP JUMPDEST PUSH0 PUSH1 0x20 DUP3 ADD SWAP1 POP DUP2 DUP2 SUB PUSH0 DUP4 ADD MSTORE PUSH2 0xA17 DUP2 PUSH2 0x9DE JUMP JUMPDEST SWAP1 POP SWAP2 SWAP1 POP JUMP JUMPDEST PUSH32 0x6530323400000000000000000000000000000000000000000000000000000000 PUSH0 DUP3 ADD MSTORE POP JUMP JUMPDEST PUSH0 PUSH2 0xA52 PUSH1 0x4 DUP4 PUSH2 0x93E JUMP JUMPDEST SWAP2 POP PUSH2 0xA5D DUP3 PUSH2 0xA1E JUMP JUMPDEST PUSH1 0x20 DUP3 ADD SWAP1 POP SWAP2 SWAP1 POP JUMP JUMPDEST PUSH0 PUSH1 0x20 DUP3 ADD SWAP1 POP DUP2 DUP2 SUB PUSH0 DUP4 ADD MSTORE PUSH2 0xA7F DUP2 PUSH2 0xA46 JUMP JUMPDEST SWAP1 POP SWAP2 SWAP1 POP JUMP JUMPDEST PUSH32 0x6530313300000000000000000000000000000000000000000000000000000000 PUSH0 DUP3 ADD MSTORE POP JUMP JUMPDEST PUSH0 PUSH2 0xABA PUSH1 0x4 DUP4 PUSH2 0x93E JUMP JUMPDEST SWAP2 POP PUSH2 0xAC5 DUP3 PUSH2 0xA86 JUMP JUMPDEST PUSH1 0x20 DUP3 ADD SWAP1 POP SWAP2 SWAP1 POP JUMP JUMPDEST PUSH0 PUSH1 0x20 DUP3 ADD SWAP1 POP DUP2 DUP2 SUB PUSH0 DUP4 ADD MSTORE PUSH2 0xAE7 DUP2 PUSH2 0xAAE JUMP JUMPDEST SWAP1 POP SWAP2 SWAP1 POP JUMP JUMPDEST PUSH32 0x6530323200000000000000000000000000000000000000000000000000000000 PUSH0 DUP3 ADD MSTORE POP JUMP JUMPDEST PUSH0 PUSH2 0xB22 PUSH1 0x4 DUP4 PUSH2 0x93E JUMP JUMPDEST SWAP2 POP PUSH2 0xB2D DUP3 PUSH2 0xAEE JUMP JUMPDEST PUSH1 0x20 DUP3 ADD SWAP1 POP SWAP2 SWAP1 POP JUMP JUMPDEST PUSH0 PUSH1 0x20 DUP3 ADD SWAP1 POP DUP2 DUP2 SUB PUSH0 DUP4 ADD MSTORE PUSH2 0xB4F DUP2 PUSH2 0xB16 JUMP JUMPDEST SWAP1 POP SWAP2 SWAP1 POP JUMP JUMPDEST PUSH32 0x4E487B7100000000000000000000000000000000000000000000000000000000 PUSH0 MSTORE PUSH1 0x12 PUSH1 0x4 MSTORE PUSH1 0x24 PUSH0 REVERT JUMPDEST PUSH32 0x4E487B7100000000000000000000000000000000000000000000000000000000 PUSH0 MSTORE PUSH1 0x11 PUSH1 0x4 MSTORE PUSH1 0x24 PUSH0 REVERT JUMPDEST PUSH0 PUSH2 0xBBA DUP3 PUSH2 0x90D JUMP JUMPDEST SWAP2 POP PUSH2 0xBC5 DUP4 PUSH2 0x90D JUMP JUMPDEST SWAP3 POP DUP3 PUSH2 0xBD5 JUMPI PUSH2 0xBD4 PUSH2 0xB56 JUMP JUMPDEST JUMPDEST DUP3 DUP3 DIV SWAP1 POP SWAP3 SWAP2 POP POP JUMP JUMPDEST PUSH0 PUSH2 0xBEA DUP3 PUSH2 0x90D JUMP JUMPDEST SWAP2 POP PUSH2 0xBF5 DUP4 PUSH2 0x90D JUMP JUMPDEST SWAP3 POP DUP3 DUP3 SUB SWAP1 POP DUP2 DUP2 GT ISZERO PUSH2 0xC0D JUMPI PUSH2 0xC0C PUSH2 0xB83 JUMP JUMPDEST JUMPDEST SWAP3 SWAP2 POP POP JUMP JUMPDEST PUSH0 PUSH1 0x40 DUP3 ADD SWAP1 POP PUSH2 0xC26 PUSH0 DUP4 ADD DUP6 PUSH2 0x916 JUMP JUMPDEST PUSH2 0xC33 PUSH1 0x20 DUP4 ADD DUP5 PUSH2 0x916 JUMP JUMPDEST SWAP4 SWAP3 POP POP POP JUMP INVALID LOG2 PUSH5 0x6970667358 0x22 SLT KECCAK256 0xDE PUSH19 0xE778750668E0A390481E36029C4202120E18E8 STATICCALL 0xEA 0xB5 PUSH15 0xD8323251C1D66664736F6C63430008 EQ STOP CALLER "
				},
				"gasEstimates": {
					"creation": {
						"codeDepositCost": "636800",
						"executionCost": "infinite",
						"totalCost": "infinite"
					},
					"external": {
						"buyer()": "infinite",
						"confirmFulfillment()": "infinite",
						"confirmProductUsed()": "infinite",
						"contractPrice()": "infinite",
						"contractState()": "2573",
						"escrowStatus()": "2584",
						"market()": "infinite",
						"receiver()": "infinite",
						"seller()": "infinite"
					},
					"internal": {
						"distributeFunds()": "infinite"
					}
				},
				"methodIdentifiers": {
					"buyer()": "7150d8ae",
					"confirmFulfillment()": "d2c9ea03",
					"confirmProductUsed()": "4fbc4f60",
					"contractPrice()": "97e9a0bf",
					"contractState()": "85209ee0",
					"escrowStatus()": "18609960",
					"market()": "80f55605",
					"receiver()": "f7260d3e",
					"seller()": "08551a53"
				}
			},
			"storageLayout": {
				"storage": [
					{
						"astId": 20,
						"contract": "Escrow.sol:NaegiftEscrow",
						"label": "contractState",
						"offset": 0,
						"slot": "0",
						"type": "t_enum(ContractStateChoices)17"
					}
				],
				"types": {
					"t_enum(ContractStateChoices)17": {
						"encoding": "inplace",
						"label": "enum NaegiftEscrow.ContractStateChoices",
						"numberOfBytes": "1"
					}
				}
			},
			"userdoc": {
				"kind": "user",
				"methods": {},
				"version": 1
			}
		}
	}
}