{
	"frontend/src/contracts/Escrow.sol": {
		"NaegiftEscrow": {
			"abi": [
				{
					"anonymous": false,
					"inputs": [
						{
							"indexed": false,
							"internalType": "string",
							"name": "uuid",
							"type": "string"
						}
					],
					"name": "EscrowCreated",
					"type": "event"
				},
				{
					"anonymous": false,
					"inputs": [
						{
							"indexed": false,
							"internalType": "string",
							"name": "uuid",
							"type": "string"
						},
						{
							"indexed": true,
							"internalType": "address",
							"name": "market",
							"type": "address"
						}
					],
					"name": "FulfillmentConfirmed",
					"type": "event"
				},
				{
					"anonymous": false,
					"inputs": [
						{
							"indexed": false,
							"internalType": "string",
							"name": "uuid",
							"type": "string"
						},
						{
							"indexed": true,
							"internalType": "address",
							"name": "market",
							"type": "address"
						},
						{
							"indexed": false,
							"internalType": "uint256",
							"name": "marketShare",
							"type": "uint256"
						},
						{
							"indexed": true,
							"internalType": "address",
							"name": "seller",
							"type": "address"
						},
						{
							"indexed": false,
							"internalType": "uint256",
							"name": "sellerShare",
							"type": "uint256"
						}
					],
					"name": "FundsDistributed",
					"type": "event"
				},
				{
					"anonymous": false,
					"inputs": [
						{
							"indexed": false,
							"internalType": "string",
							"name": "uuid",
							"type": "string"
						},
						{
							"indexed": true,
							"internalType": "address",
							"name": "receiver",
							"type": "address"
						}
					],
					"name": "ProductUsedConfirmed",
					"type": "event"
				},
				{
					"inputs": [
						{
							"internalType": "string",
							"name": "uuid",
							"type": "string"
						}
					],
					"name": "confirmFulfillment",
					"outputs": [],
					"stateMutability": "nonpayable",
					"type": "function"
				},
				{
					"inputs": [
						{
							"internalType": "string",
							"name": "uuid",
							"type": "string"
						}
					],
					"name": "confirmProductUsed",
					"outputs": [],
					"stateMutability": "nonpayable",
					"type": "function"
				},
				{
					"inputs": [
						{
							"internalType": "string",
							"name": "uuid",
							"type": "string"
						},
						{
							"internalType": "address",
							"name": "_buyer",
							"type": "address"
						},
						{
							"internalType": "address",
							"name": "_seller",
							"type": "address"
						},
						{
							"internalType": "address",
							"name": "_receiver",
							"type": "address"
						},
						{
							"internalType": "address",
							"name": "_market",
							"type": "address"
						},
						{
							"internalType": "uint256",
							"name": "_contractPrice",
							"type": "uint256"
						}
					],
					"name": "createEscrow",
					"outputs": [],
					"stateMutability": "payable",
					"type": "function"
				},
				{
					"inputs": [
						{
							"internalType": "string",
							"name": "uuid",
							"type": "string"
						}
					],
					"name": "escrowStatus",
					"outputs": [
						{
							"internalType": "enum NaegiftEscrow.ContractStateChoices",
							"name": "",
							"type": "uint8"
						}
					],
					"stateMutability": "view",
					"type": "function"
				},
				{
					"inputs": [
						{
							"internalType": "string",
							"name": "",
							"type": "string"
						}
					],
					"name": "escrows",
					"outputs": [
						{
							"internalType": "address",
							"name": "buyer",
							"type": "address"
						},
						{
							"internalType": "address",
							"name": "seller",
							"type": "address"
						},
						{
							"internalType": "address",
							"name": "receiver",
							"type": "address"
						},
						{
							"internalType": "address",
							"name": "market",
							"type": "address"
						},
						{
							"internalType": "uint256",
							"name": "contractPrice",
							"type": "uint256"
						},
						{
							"internalType": "enum NaegiftEscrow.ContractStateChoices",
							"name": "state",
							"type": "uint8"
						}
					],
					"stateMutability": "view",
					"type": "function"
				},
				{
					"stateMutability": "payable",
					"type": "receive"
				}
			],
			"devdoc": {
				"kind": "dev",
				"methods": {},
				"version": 1
			},
			"evm": {
				"assembly": "    /* \"frontend/src/contracts/Escrow.sol\":61:2889  contract NaegiftEscrow {... */\n  mstore(0x40, 0x80)\n  callvalue\n  dup1\n  iszero\n  tag_1\n  jumpi\n  0x00\n  dup1\n  revert\ntag_1:\n  pop\n  dataSize(sub_0)\n  dup1\n  dataOffset(sub_0)\n  0x00\n  codecopy\n  0x00\n  return\nstop\n\nsub_0: assembly {\n        /* \"frontend/src/contracts/Escrow.sol\":61:2889  contract NaegiftEscrow {... */\n      mstore(0x40, 0x80)\n      jumpi(tag_1, lt(calldatasize, 0x04))\n      shr(0xe0, calldataload(0x00))\n      dup1\n      0x5cc9f864\n      eq\n      tag_3\n      jumpi\n      dup1\n      0x5ddde39b\n      eq\n      tag_4\n      jumpi\n      dup1\n      0x6ad09452\n      eq\n      tag_5\n      jumpi\n      dup1\n      0x928dbc87\n      eq\n      tag_6\n      jumpi\n      dup1\n      0xaa950fda\n      eq\n      tag_7\n      jumpi\n      jump(tag_2)\n    tag_1:\n      jumpi(tag_2, calldatasize)\n      stop\n    tag_2:\n      0x00\n      dup1\n      revert\n        /* \"frontend/src/contracts/Escrow.sol\":392:436  mapping(string => EscrowData) public escrows */\n    tag_3:\n      callvalue\n      dup1\n      iszero\n      tag_10\n      jumpi\n      0x00\n      dup1\n      revert\n    tag_10:\n      pop\n      tag_11\n      0x04\n      dup1\n      calldatasize\n      sub\n      dup2\n      add\n      swap1\n      tag_12\n      swap2\n      swap1\n      tag_13\n      jump\t// in\n    tag_12:\n      tag_14\n      jump\t// in\n    tag_11:\n      mload(0x40)\n      tag_15\n      swap7\n      swap6\n      swap5\n      swap4\n      swap3\n      swap2\n      swap1\n      tag_16\n      jump\t// in\n    tag_15:\n      mload(0x40)\n      dup1\n      swap2\n      sub\n      swap1\n      return\n        /* \"frontend/src/contracts/Escrow.sol\":760:1464  function createEscrow(... */\n    tag_4:\n      tag_17\n      0x04\n      dup1\n      calldatasize\n      sub\n      dup2\n      add\n      swap1\n      tag_18\n      swap2\n      swap1\n      tag_19\n      jump\t// in\n    tag_18:\n      tag_20\n      jump\t// in\n    tag_17:\n      stop\n        /* \"frontend/src/contracts/Escrow.sol\":2718:2849  function escrowStatus(string memory uuid) external view returns(ContractStateChoices) {... */\n    tag_5:\n      callvalue\n      dup1\n      iszero\n      tag_21\n      jumpi\n      0x00\n      dup1\n      revert\n    tag_21:\n      pop\n      tag_22\n      0x04\n      dup1\n      calldatasize\n      sub\n      dup2\n      add\n      swap1\n      tag_23\n      swap2\n      swap1\n      tag_13\n      jump\t// in\n    tag_23:\n      tag_24\n      jump\t// in\n    tag_22:\n      mload(0x40)\n      tag_25\n      swap2\n      swap1\n      tag_26\n      jump\t// in\n    tag_25:\n      mload(0x40)\n      dup1\n      swap2\n      sub\n      swap1\n      return\n        /* \"frontend/src/contracts/Escrow.sol\":1814:2180  function confirmProductUsed(string memory uuid) external {... */\n    tag_6:\n      callvalue\n      dup1\n      iszero\n      tag_27\n      jumpi\n      0x00\n      dup1\n      revert\n    tag_27:\n      pop\n      tag_28\n      0x04\n      dup1\n      calldatasize\n      sub\n      dup2\n      add\n      swap1\n      tag_29\n      swap2\n      swap1\n      tag_13\n      jump\t// in\n    tag_29:\n      tag_30\n      jump\t// in\n    tag_28:\n      stop\n        /* \"frontend/src/contracts/Escrow.sol\":1472:1806  function confirmFulfillment(string memory uuid) external {... */\n    tag_7:\n      callvalue\n      dup1\n      iszero\n      tag_31\n      jumpi\n      0x00\n      dup1\n      revert\n    tag_31:\n      pop\n      tag_32\n      0x04\n      dup1\n      calldatasize\n      sub\n      dup2\n      add\n      swap1\n      tag_33\n      swap2\n      swap1\n      tag_13\n      jump\t// in\n    tag_33:\n      tag_34\n      jump\t// in\n    tag_32:\n      stop\n        /* \"frontend/src/contracts/Escrow.sol\":392:436  mapping(string => EscrowData) public escrows */\n    tag_14:\n      0x00\n      dup2\n      dup1\n      mload\n      0x20\n      dup2\n      add\n      dup3\n      add\n      dup1\n      mload\n      dup5\n      dup3\n      mstore\n      0x20\n      dup4\n      add\n      0x20\n      dup6\n      add\n      keccak256\n      dup2\n      dup4\n      mstore\n      dup1\n      swap6\n      pop\n      pop\n      pop\n      pop\n      pop\n      pop\n      0x00\n      swap2\n      pop\n      swap1\n      pop\n      dup1\n      0x00\n      add\n      0x00\n      swap1\n      sload\n      swap1\n      0x0100\n      exp\n      swap1\n      div\n      0xffffffffffffffffffffffffffffffffffffffff\n      and\n      swap1\n      dup1\n      0x01\n      add\n      0x00\n      swap1\n      sload\n      swap1\n      0x0100\n      exp\n      swap1\n      div\n      0xffffffffffffffffffffffffffffffffffffffff\n      and\n      swap1\n      dup1\n      0x02\n      add\n      0x00\n      swap1\n      sload\n      swap1\n      0x0100\n      exp\n      swap1\n      div\n      0xffffffffffffffffffffffffffffffffffffffff\n      and\n      swap1\n      dup1\n      0x03\n      add\n      0x00\n      swap1\n      sload\n      swap1\n      0x0100\n      exp\n      swap1\n      div\n      0xffffffffffffffffffffffffffffffffffffffff\n      and\n      swap1\n      dup1\n      0x04\n      add\n      sload\n      swap1\n      dup1\n      0x05\n      add\n      0x00\n      swap1\n      sload\n      swap1\n      0x0100\n      exp\n      swap1\n      div\n      0xff\n      and\n      swap1\n      pop\n      dup7\n      jump\t// out\n        /* \"frontend/src/contracts/Escrow.sol\":760:1464  function createEscrow(... */\n    tag_20:\n        /* \"frontend/src/contracts/Escrow.sol\":1003:1017  _contractPrice */\n      dup1\n        /* \"frontend/src/contracts/Escrow.sol\":990:999  msg.value */\n      callvalue\n        /* \"frontend/src/contracts/Escrow.sol\":990:1017  msg.value >= _contractPrice */\n      lt\n      iszero\n        /* \"frontend/src/contracts/Escrow.sol\":982:1026  require(msg.value >= _contractPrice, \"e002\") */\n      tag_36\n      jumpi\n      mload(0x40)\n      0x08c379a000000000000000000000000000000000000000000000000000000000\n      dup2\n      mstore\n      0x04\n      add\n      tag_37\n      swap1\n      tag_38\n      jump\t// in\n    tag_37:\n      mload(0x40)\n      dup1\n      swap2\n      sub\n      swap1\n      revert\n    tag_36:\n        /* \"frontend/src/contracts/Escrow.sol\":1059:1065  _buyer */\n      dup5\n        /* \"frontend/src/contracts/Escrow.sol\":1045:1065  msg.sender == _buyer */\n      0xffffffffffffffffffffffffffffffffffffffff\n      and\n        /* \"frontend/src/contracts/Escrow.sol\":1045:1055  msg.sender */\n      caller\n        /* \"frontend/src/contracts/Escrow.sol\":1045:1065  msg.sender == _buyer */\n      0xffffffffffffffffffffffffffffffffffffffff\n      and\n      eq\n        /* \"frontend/src/contracts/Escrow.sol\":1037:1074  require(msg.sender == _buyer, \"e003\") */\n      tag_39\n      jumpi\n      mload(0x40)\n      0x08c379a000000000000000000000000000000000000000000000000000000000\n      dup2\n      mstore\n      0x04\n      add\n      tag_40\n      swap1\n      tag_41\n      jump\t// in\n    tag_40:\n      mload(0x40)\n      dup1\n      swap2\n      sub\n      swap1\n      revert\n    tag_39:\n        /* \"frontend/src/contracts/Escrow.sol\":1124:1125  0 */\n      0x00\n        /* \"frontend/src/contracts/Escrow.sol\":1093:1126  escrows[uuid].buyer == address(0) */\n      0xffffffffffffffffffffffffffffffffffffffff\n      and\n        /* \"frontend/src/contracts/Escrow.sol\":1093:1100  escrows */\n      0x00\n        /* \"frontend/src/contracts/Escrow.sol\":1101:1105  uuid */\n      dup8\n        /* \"frontend/src/contracts/Escrow.sol\":1093:1106  escrows[uuid] */\n      mload(0x40)\n      tag_42\n      swap2\n      swap1\n      tag_43\n      jump\t// in\n    tag_42:\n      swap1\n      dup2\n      mstore\n      0x20\n      add\n      mload(0x40)\n      dup1\n      swap2\n      sub\n      swap1\n      keccak256\n        /* \"frontend/src/contracts/Escrow.sol\":1093:1112  escrows[uuid].buyer */\n      0x00\n      add\n      0x00\n      swap1\n      sload\n      swap1\n      0x0100\n      exp\n      swap1\n      div\n      0xffffffffffffffffffffffffffffffffffffffff\n      and\n        /* \"frontend/src/contracts/Escrow.sol\":1093:1126  escrows[uuid].buyer == address(0) */\n      0xffffffffffffffffffffffffffffffffffffffff\n      and\n      eq\n        /* \"frontend/src/contracts/Escrow.sol\":1085:1152  require(escrows[uuid].buyer == address(0), \"Escrow already exists\") */\n      tag_44\n      jumpi\n      mload(0x40)\n      0x08c379a000000000000000000000000000000000000000000000000000000000\n      dup2\n      mstore\n      0x04\n      add\n      tag_45\n      swap1\n      tag_46\n      jump\t// in\n    tag_45:\n      mload(0x40)\n      dup1\n      swap2\n      sub\n      swap1\n      revert\n    tag_44:\n        /* \"frontend/src/contracts/Escrow.sol\":1181:1419  EscrowData({... */\n      mload(0x40)\n      dup1\n      0xc0\n      add\n      0x40\n      mstore\n      dup1\n        /* \"frontend/src/contracts/Escrow.sol\":1214:1220  _buyer */\n      dup7\n        /* \"frontend/src/contracts/Escrow.sol\":1181:1419  EscrowData({... */\n      0xffffffffffffffffffffffffffffffffffffffff\n      and\n      dup2\n      mstore\n      0x20\n      add\n        /* \"frontend/src/contracts/Escrow.sol\":1243:1250  _seller */\n      dup6\n        /* \"frontend/src/contracts/Escrow.sol\":1181:1419  EscrowData({... */\n      0xffffffffffffffffffffffffffffffffffffffff\n      and\n      dup2\n      mstore\n      0x20\n      add\n        /* \"frontend/src/contracts/Escrow.sol\":1275:1284  _receiver */\n      dup5\n        /* \"frontend/src/contracts/Escrow.sol\":1181:1419  EscrowData({... */\n      0xffffffffffffffffffffffffffffffffffffffff\n      and\n      dup2\n      mstore\n      0x20\n      add\n        /* \"frontend/src/contracts/Escrow.sol\":1307:1314  _market */\n      dup4\n        /* \"frontend/src/contracts/Escrow.sol\":1181:1419  EscrowData({... */\n      0xffffffffffffffffffffffffffffffffffffffff\n      and\n      dup2\n      mstore\n      0x20\n      add\n        /* \"frontend/src/contracts/Escrow.sol\":1344:1358  _contractPrice */\n      dup3\n        /* \"frontend/src/contracts/Escrow.sol\":1181:1419  EscrowData({... */\n      dup2\n      mstore\n      0x20\n      add\n        /* \"frontend/src/contracts/Escrow.sol\":1380:1407  ContractStateChoices.ACTIVE */\n      0x00\n        /* \"frontend/src/contracts/Escrow.sol\":1181:1419  EscrowData({... */\n      0x02\n      dup2\n      gt\n      iszero\n      tag_47\n      jumpi\n      tag_48\n      tag_49\n      jump\t// in\n    tag_48:\n    tag_47:\n      dup2\n      mstore\n      pop\n        /* \"frontend/src/contracts/Escrow.sol\":1165:1172  escrows */\n      0x00\n        /* \"frontend/src/contracts/Escrow.sol\":1173:1177  uuid */\n      dup8\n        /* \"frontend/src/contracts/Escrow.sol\":1165:1178  escrows[uuid] */\n      mload(0x40)\n      tag_50\n      swap2\n      swap1\n      tag_43\n      jump\t// in\n    tag_50:\n      swap1\n      dup2\n      mstore\n      0x20\n      add\n      mload(0x40)\n      dup1\n      swap2\n      sub\n      swap1\n      keccak256\n        /* \"frontend/src/contracts/Escrow.sol\":1165:1419  escrows[uuid] = EscrowData({... */\n      0x00\n      dup3\n      add\n      mload\n      dup2\n      0x00\n      add\n      exp(0x0100, 0x00)\n      dup2\n      sload\n      dup2\n      0xffffffffffffffffffffffffffffffffffffffff\n      mul\n      not\n      and\n      swap1\n      dup4\n      0xffffffffffffffffffffffffffffffffffffffff\n      and\n      mul\n      or\n      swap1\n      sstore\n      pop\n      0x20\n      dup3\n      add\n      mload\n      dup2\n      0x01\n      add\n      exp(0x0100, 0x00)\n      dup2\n      sload\n      dup2\n      0xffffffffffffffffffffffffffffffffffffffff\n      mul\n      not\n      and\n      swap1\n      dup4\n      0xffffffffffffffffffffffffffffffffffffffff\n      and\n      mul\n      or\n      swap1\n      sstore\n      pop\n      0x40\n      dup3\n      add\n      mload\n      dup2\n      0x02\n      add\n      exp(0x0100, 0x00)\n      dup2\n      sload\n      dup2\n      0xffffffffffffffffffffffffffffffffffffffff\n      mul\n      not\n      and\n      swap1\n      dup4\n      0xffffffffffffffffffffffffffffffffffffffff\n      and\n      mul\n      or\n      swap1\n      sstore\n      pop\n      0x60\n      dup3\n      add\n      mload\n      dup2\n      0x03\n      add\n      exp(0x0100, 0x00)\n      dup2\n      sload\n      dup2\n      0xffffffffffffffffffffffffffffffffffffffff\n      mul\n      not\n      and\n      swap1\n      dup4\n      0xffffffffffffffffffffffffffffffffffffffff\n      and\n      mul\n      or\n      swap1\n      sstore\n      pop\n      0x80\n      dup3\n      add\n      mload\n      dup2\n      0x04\n      add\n      sstore\n      0xa0\n      dup3\n      add\n      mload\n      dup2\n      0x05\n      add\n      exp(0x0100, 0x00)\n      dup2\n      sload\n      dup2\n      0xff\n      mul\n      not\n      and\n      swap1\n      dup4\n      0x02\n      dup2\n      gt\n      iszero\n      tag_51\n      jumpi\n      tag_52\n      tag_49\n      jump\t// in\n    tag_52:\n    tag_51:\n      mul\n      or\n      swap1\n      sstore\n      pop\n      swap1\n      pop\n      pop\n        /* \"frontend/src/contracts/Escrow.sol\":1437:1456  EscrowCreated(uuid) */\n      0x8bb98c86fca17d1296e36d0d27879826f874ae77e12c0223f7dec6de6d4c0be5\n        /* \"frontend/src/contracts/Escrow.sol\":1451:1455  uuid */\n      dup7\n        /* \"frontend/src/contracts/Escrow.sol\":1437:1456  EscrowCreated(uuid) */\n      mload(0x40)\n      tag_53\n      swap2\n      swap1\n      tag_54\n      jump\t// in\n    tag_53:\n      mload(0x40)\n      dup1\n      swap2\n      sub\n      swap1\n      log1\n        /* \"frontend/src/contracts/Escrow.sol\":760:1464  function createEscrow(... */\n      pop\n      pop\n      pop\n      pop\n      pop\n      pop\n      jump\t// out\n        /* \"frontend/src/contracts/Escrow.sol\":2718:2849  function escrowStatus(string memory uuid) external view returns(ContractStateChoices) {... */\n    tag_24:\n        /* \"frontend/src/contracts/Escrow.sol\":2782:2802  ContractStateChoices */\n      0x00\n        /* \"frontend/src/contracts/Escrow.sol\":2822:2829  escrows */\n      dup1\n        /* \"frontend/src/contracts/Escrow.sol\":2830:2834  uuid */\n      dup3\n        /* \"frontend/src/contracts/Escrow.sol\":2822:2835  escrows[uuid] */\n      mload(0x40)\n      tag_56\n      swap2\n      swap1\n      tag_43\n      jump\t// in\n    tag_56:\n      swap1\n      dup2\n      mstore\n      0x20\n      add\n      mload(0x40)\n      dup1\n      swap2\n      sub\n      swap1\n      keccak256\n        /* \"frontend/src/contracts/Escrow.sol\":2822:2841  escrows[uuid].state */\n      0x05\n      add\n      0x00\n      swap1\n      sload\n      swap1\n      0x0100\n      exp\n      swap1\n      div\n      0xff\n      and\n        /* \"frontend/src/contracts/Escrow.sol\":2815:2841  return escrows[uuid].state */\n      swap1\n      pop\n        /* \"frontend/src/contracts/Escrow.sol\":2718:2849  function escrowStatus(string memory uuid) external view returns(ContractStateChoices) {... */\n      swap2\n      swap1\n      pop\n      jump\t// out\n        /* \"frontend/src/contracts/Escrow.sol\":1814:2180  function confirmProductUsed(string memory uuid) external {... */\n    tag_30:\n        /* \"frontend/src/contracts/Escrow.sol\":1904:1911  escrows */\n      0x00\n        /* \"frontend/src/contracts/Escrow.sol\":1912:1916  uuid */\n      dup2\n        /* \"frontend/src/contracts/Escrow.sol\":1904:1917  escrows[uuid] */\n      mload(0x40)\n      tag_58\n      swap2\n      swap1\n      tag_43\n      jump\t// in\n    tag_58:\n      swap1\n      dup2\n      mstore\n      0x20\n      add\n      mload(0x40)\n      dup1\n      swap2\n      sub\n      swap1\n      keccak256\n        /* \"frontend/src/contracts/Escrow.sol\":1904:1924  escrows[uuid].market */\n      0x03\n      add\n      0x00\n      swap1\n      sload\n      swap1\n      0x0100\n      exp\n      swap1\n      div\n      0xffffffffffffffffffffffffffffffffffffffff\n      and\n        /* \"frontend/src/contracts/Escrow.sol\":1890:1924  msg.sender == escrows[uuid].market */\n      0xffffffffffffffffffffffffffffffffffffffff\n      and\n        /* \"frontend/src/contracts/Escrow.sol\":1890:1900  msg.sender */\n      caller\n        /* \"frontend/src/contracts/Escrow.sol\":1890:1924  msg.sender == escrows[uuid].market */\n      0xffffffffffffffffffffffffffffffffffffffff\n      and\n      eq\n        /* \"frontend/src/contracts/Escrow.sol\":1882:1933  require(msg.sender == escrows[uuid].market, \"e020\") */\n      tag_59\n      jumpi\n      mload(0x40)\n      0x08c379a000000000000000000000000000000000000000000000000000000000\n      dup2\n      mstore\n      0x04\n      add\n      tag_60\n      swap1\n      tag_61\n      jump\t// in\n    tag_60:\n      mload(0x40)\n      dup1\n      swap2\n      sub\n      swap1\n      revert\n    tag_59:\n        /* \"frontend/src/contracts/Escrow.sol\":1975:2005  ContractStateChoices.FULFILLED */\n      0x01\n        /* \"frontend/src/contracts/Escrow.sol\":1952:2005  escrows[uuid].state == ContractStateChoices.FULFILLED */\n      0x02\n      dup2\n      gt\n      iszero\n      tag_62\n      jumpi\n      tag_63\n      tag_49\n      jump\t// in\n    tag_63:\n    tag_62:\n        /* \"frontend/src/contracts/Escrow.sol\":1952:1959  escrows */\n      0x00\n        /* \"frontend/src/contracts/Escrow.sol\":1960:1964  uuid */\n      dup3\n        /* \"frontend/src/contracts/Escrow.sol\":1952:1965  escrows[uuid] */\n      mload(0x40)\n      tag_64\n      swap2\n      swap1\n      tag_43\n      jump\t// in\n    tag_64:\n      swap1\n      dup2\n      mstore\n      0x20\n      add\n      mload(0x40)\n      dup1\n      swap2\n      sub\n      swap1\n      keccak256\n        /* \"frontend/src/contracts/Escrow.sol\":1952:1971  escrows[uuid].state */\n      0x05\n      add\n      0x00\n      swap1\n      sload\n      swap1\n      0x0100\n      exp\n      swap1\n      div\n      0xff\n      and\n        /* \"frontend/src/contracts/Escrow.sol\":1952:2005  escrows[uuid].state == ContractStateChoices.FULFILLED */\n      0x02\n      dup2\n      gt\n      iszero\n      tag_65\n      jumpi\n      tag_66\n      tag_49\n      jump\t// in\n    tag_66:\n    tag_65:\n      eq\n        /* \"frontend/src/contracts/Escrow.sol\":1944:2014  require(escrows[uuid].state == ContractStateChoices.FULFILLED, \"e021\") */\n      tag_67\n      jumpi\n      mload(0x40)\n      0x08c379a000000000000000000000000000000000000000000000000000000000\n      dup2\n      mstore\n      0x04\n      add\n      tag_68\n      swap1\n      tag_69\n      jump\t// in\n    tag_68:\n      mload(0x40)\n      dup1\n      swap2\n      sub\n      swap1\n      revert\n    tag_67:\n        /* \"frontend/src/contracts/Escrow.sol\":2047:2076  ContractStateChoices.EXECUTED */\n      0x02\n        /* \"frontend/src/contracts/Escrow.sol\":2025:2032  escrows */\n      0x00\n        /* \"frontend/src/contracts/Escrow.sol\":2033:2037  uuid */\n      dup3\n        /* \"frontend/src/contracts/Escrow.sol\":2025:2038  escrows[uuid] */\n      mload(0x40)\n      tag_70\n      swap2\n      swap1\n      tag_43\n      jump\t// in\n    tag_70:\n      swap1\n      dup2\n      mstore\n      0x20\n      add\n      mload(0x40)\n      dup1\n      swap2\n      sub\n      swap1\n      keccak256\n        /* \"frontend/src/contracts/Escrow.sol\":2025:2044  escrows[uuid].state */\n      0x05\n      add\n      0x00\n        /* \"frontend/src/contracts/Escrow.sol\":2025:2076  escrows[uuid].state = ContractStateChoices.EXECUTED */\n      0x0100\n      exp\n      dup2\n      sload\n      dup2\n      0xff\n      mul\n      not\n      and\n      swap1\n      dup4\n      0x02\n      dup2\n      gt\n      iszero\n      tag_71\n      jumpi\n      tag_72\n      tag_49\n      jump\t// in\n    tag_72:\n    tag_71:\n      mul\n      or\n      swap1\n      sstore\n      pop\n        /* \"frontend/src/contracts/Escrow.sol\":2119:2126  escrows */\n      0x00\n        /* \"frontend/src/contracts/Escrow.sol\":2127:2131  uuid */\n      dup2\n        /* \"frontend/src/contracts/Escrow.sol\":2119:2132  escrows[uuid] */\n      mload(0x40)\n      tag_73\n      swap2\n      swap1\n      tag_43\n      jump\t// in\n    tag_73:\n      swap1\n      dup2\n      mstore\n      0x20\n      add\n      mload(0x40)\n      dup1\n      swap2\n      sub\n      swap1\n      keccak256\n        /* \"frontend/src/contracts/Escrow.sol\":2119:2139  escrows[uuid].market */\n      0x03\n      add\n      0x00\n      swap1\n      sload\n      swap1\n      0x0100\n      exp\n      swap1\n      div\n      0xffffffffffffffffffffffffffffffffffffffff\n      and\n        /* \"frontend/src/contracts/Escrow.sol\":2092:2140  ProductUsedConfirmed(uuid, escrows[uuid].market) */\n      0xffffffffffffffffffffffffffffffffffffffff\n      and\n      0xb4d5032b4809916079d3598ce54492b098275524f242225bdddd2fd64e09e372\n        /* \"frontend/src/contracts/Escrow.sol\":2113:2117  uuid */\n      dup3\n        /* \"frontend/src/contracts/Escrow.sol\":2092:2140  ProductUsedConfirmed(uuid, escrows[uuid].market) */\n      mload(0x40)\n      tag_74\n      swap2\n      swap1\n      tag_54\n      jump\t// in\n    tag_74:\n      mload(0x40)\n      dup1\n      swap2\n      sub\n      swap1\n      log2\n        /* \"frontend/src/contracts/Escrow.sol\":2151:2172  distributeFunds(uuid) */\n      tag_75\n        /* \"frontend/src/contracts/Escrow.sol\":2167:2171  uuid */\n      dup2\n        /* \"frontend/src/contracts/Escrow.sol\":2151:2166  distributeFunds */\n      tag_76\n        /* \"frontend/src/contracts/Escrow.sol\":2151:2172  distributeFunds(uuid) */\n      jump\t// in\n    tag_75:\n        /* \"frontend/src/contracts/Escrow.sol\":1814:2180  function confirmProductUsed(string memory uuid) external {... */\n      pop\n      jump\t// out\n        /* \"frontend/src/contracts/Escrow.sol\":1472:1806  function confirmFulfillment(string memory uuid) external {... */\n    tag_34:\n        /* \"frontend/src/contracts/Escrow.sol\":1562:1569  escrows */\n      0x00\n        /* \"frontend/src/contracts/Escrow.sol\":1570:1574  uuid */\n      dup2\n        /* \"frontend/src/contracts/Escrow.sol\":1562:1575  escrows[uuid] */\n      mload(0x40)\n      tag_78\n      swap2\n      swap1\n      tag_43\n      jump\t// in\n    tag_78:\n      swap1\n      dup2\n      mstore\n      0x20\n      add\n      mload(0x40)\n      dup1\n      swap2\n      sub\n      swap1\n      keccak256\n        /* \"frontend/src/contracts/Escrow.sol\":1562:1582  escrows[uuid].market */\n      0x03\n      add\n      0x00\n      swap1\n      sload\n      swap1\n      0x0100\n      exp\n      swap1\n      div\n      0xffffffffffffffffffffffffffffffffffffffff\n      and\n        /* \"frontend/src/contracts/Escrow.sol\":1548:1582  msg.sender == escrows[uuid].market */\n      0xffffffffffffffffffffffffffffffffffffffff\n      and\n        /* \"frontend/src/contracts/Escrow.sol\":1548:1558  msg.sender */\n      caller\n        /* \"frontend/src/contracts/Escrow.sol\":1548:1582  msg.sender == escrows[uuid].market */\n      0xffffffffffffffffffffffffffffffffffffffff\n      and\n      eq\n        /* \"frontend/src/contracts/Escrow.sol\":1540:1591  require(msg.sender == escrows[uuid].market, \"e024\") */\n      tag_79\n      jumpi\n      mload(0x40)\n      0x08c379a000000000000000000000000000000000000000000000000000000000\n      dup2\n      mstore\n      0x04\n      add\n      tag_80\n      swap1\n      tag_81\n      jump\t// in\n    tag_80:\n      mload(0x40)\n      dup1\n      swap2\n      sub\n      swap1\n      revert\n    tag_79:\n        /* \"frontend/src/contracts/Escrow.sol\":1633:1660  ContractStateChoices.ACTIVE */\n      0x00\n        /* \"frontend/src/contracts/Escrow.sol\":1610:1660  escrows[uuid].state == ContractStateChoices.ACTIVE */\n      0x02\n      dup2\n      gt\n      iszero\n      tag_82\n      jumpi\n      tag_83\n      tag_49\n      jump\t// in\n    tag_83:\n    tag_82:\n        /* \"frontend/src/contracts/Escrow.sol\":1610:1617  escrows */\n      0x00\n        /* \"frontend/src/contracts/Escrow.sol\":1618:1622  uuid */\n      dup3\n        /* \"frontend/src/contracts/Escrow.sol\":1610:1623  escrows[uuid] */\n      mload(0x40)\n      tag_84\n      swap2\n      swap1\n      tag_43\n      jump\t// in\n    tag_84:\n      swap1\n      dup2\n      mstore\n      0x20\n      add\n      mload(0x40)\n      dup1\n      swap2\n      sub\n      swap1\n      keccak256\n        /* \"frontend/src/contracts/Escrow.sol\":1610:1629  escrows[uuid].state */\n      0x05\n      add\n      0x00\n      swap1\n      sload\n      swap1\n      0x0100\n      exp\n      swap1\n      div\n      0xff\n      and\n        /* \"frontend/src/contracts/Escrow.sol\":1610:1660  escrows[uuid].state == ContractStateChoices.ACTIVE */\n      0x02\n      dup2\n      gt\n      iszero\n      tag_85\n      jumpi\n      tag_86\n      tag_49\n      jump\t// in\n    tag_86:\n    tag_85:\n      eq\n        /* \"frontend/src/contracts/Escrow.sol\":1602:1669  require(escrows[uuid].state == ContractStateChoices.ACTIVE, \"e013\") */\n      tag_87\n      jumpi\n      mload(0x40)\n      0x08c379a000000000000000000000000000000000000000000000000000000000\n      dup2\n      mstore\n      0x04\n      add\n      tag_88\n      swap1\n      tag_89\n      jump\t// in\n    tag_88:\n      mload(0x40)\n      dup1\n      swap2\n      sub\n      swap1\n      revert\n    tag_87:\n        /* \"frontend/src/contracts/Escrow.sol\":1702:1732  ContractStateChoices.FULFILLED */\n      0x01\n        /* \"frontend/src/contracts/Escrow.sol\":1680:1687  escrows */\n      0x00\n        /* \"frontend/src/contracts/Escrow.sol\":1688:1692  uuid */\n      dup3\n        /* \"frontend/src/contracts/Escrow.sol\":1680:1693  escrows[uuid] */\n      mload(0x40)\n      tag_90\n      swap2\n      swap1\n      tag_43\n      jump\t// in\n    tag_90:\n      swap1\n      dup2\n      mstore\n      0x20\n      add\n      mload(0x40)\n      dup1\n      swap2\n      sub\n      swap1\n      keccak256\n        /* \"frontend/src/contracts/Escrow.sol\":1680:1699  escrows[uuid].state */\n      0x05\n      add\n      0x00\n        /* \"frontend/src/contracts/Escrow.sol\":1680:1732  escrows[uuid].state = ContractStateChoices.FULFILLED */\n      0x0100\n      exp\n      dup2\n      sload\n      dup2\n      0xff\n      mul\n      not\n      and\n      swap1\n      dup4\n      0x02\n      dup2\n      gt\n      iszero\n      tag_91\n      jumpi\n      tag_92\n      tag_49\n      jump\t// in\n    tag_92:\n    tag_91:\n      mul\n      or\n      swap1\n      sstore\n      pop\n        /* \"frontend/src/contracts/Escrow.sol\":1775:1782  escrows */\n      0x00\n        /* \"frontend/src/contracts/Escrow.sol\":1783:1787  uuid */\n      dup2\n        /* \"frontend/src/contracts/Escrow.sol\":1775:1788  escrows[uuid] */\n      mload(0x40)\n      tag_93\n      swap2\n      swap1\n      tag_43\n      jump\t// in\n    tag_93:\n      swap1\n      dup2\n      mstore\n      0x20\n      add\n      mload(0x40)\n      dup1\n      swap2\n      sub\n      swap1\n      keccak256\n        /* \"frontend/src/contracts/Escrow.sol\":1775:1797  escrows[uuid].receiver */\n      0x02\n      add\n      0x00\n      swap1\n      sload\n      swap1\n      0x0100\n      exp\n      swap1\n      div\n      0xffffffffffffffffffffffffffffffffffffffff\n      and\n        /* \"frontend/src/contracts/Escrow.sol\":1748:1798  FulfillmentConfirmed(uuid, escrows[uuid].receiver) */\n      0xffffffffffffffffffffffffffffffffffffffff\n      and\n      0x0aea8e6e8c89ab3245147625734c071eeedaebe6eea64786e83d672cae6af440\n        /* \"frontend/src/contracts/Escrow.sol\":1769:1773  uuid */\n      dup3\n        /* \"frontend/src/contracts/Escrow.sol\":1748:1798  FulfillmentConfirmed(uuid, escrows[uuid].receiver) */\n      mload(0x40)\n      tag_94\n      swap2\n      swap1\n      tag_54\n      jump\t// in\n    tag_94:\n      mload(0x40)\n      dup1\n      swap2\n      sub\n      swap1\n      log2\n        /* \"frontend/src/contracts/Escrow.sol\":1472:1806  function confirmFulfillment(string memory uuid) external {... */\n      pop\n      jump\t// out\n        /* \"frontend/src/contracts/Escrow.sol\":2188:2710  function distributeFunds(string memory uuid) private {... */\n    tag_76:\n        /* \"frontend/src/contracts/Escrow.sol\":2283:2312  ContractStateChoices.EXECUTED */\n      0x02\n        /* \"frontend/src/contracts/Escrow.sol\":2260:2312  escrows[uuid].state == ContractStateChoices.EXECUTED */\n      dup1\n      dup2\n      gt\n      iszero\n      tag_96\n      jumpi\n      tag_97\n      tag_49\n      jump\t// in\n    tag_97:\n    tag_96:\n        /* \"frontend/src/contracts/Escrow.sol\":2260:2267  escrows */\n      0x00\n        /* \"frontend/src/contracts/Escrow.sol\":2268:2272  uuid */\n      dup3\n        /* \"frontend/src/contracts/Escrow.sol\":2260:2273  escrows[uuid] */\n      mload(0x40)\n      tag_98\n      swap2\n      swap1\n      tag_43\n      jump\t// in\n    tag_98:\n      swap1\n      dup2\n      mstore\n      0x20\n      add\n      mload(0x40)\n      dup1\n      swap2\n      sub\n      swap1\n      keccak256\n        /* \"frontend/src/contracts/Escrow.sol\":2260:2279  escrows[uuid].state */\n      0x05\n      add\n      0x00\n      swap1\n      sload\n      swap1\n      0x0100\n      exp\n      swap1\n      div\n      0xff\n      and\n        /* \"frontend/src/contracts/Escrow.sol\":2260:2312  escrows[uuid].state == ContractStateChoices.EXECUTED */\n      0x02\n      dup2\n      gt\n      iszero\n      tag_99\n      jumpi\n      tag_100\n      tag_49\n      jump\t// in\n    tag_100:\n    tag_99:\n      eq\n        /* \"frontend/src/contracts/Escrow.sol\":2252:2321  require(escrows[uuid].state == ContractStateChoices.EXECUTED, \"e022\") */\n      tag_101\n      jumpi\n      mload(0x40)\n      0x08c379a000000000000000000000000000000000000000000000000000000000\n      dup2\n      mstore\n      0x04\n      add\n      tag_102\n      swap1\n      tag_103\n      jump\t// in\n    tag_102:\n      mload(0x40)\n      dup1\n      swap2\n      sub\n      swap1\n      revert\n    tag_101:\n        /* \"frontend/src/contracts/Escrow.sol\":2332:2357  EscrowData storage escrow */\n      0x00\n        /* \"frontend/src/contracts/Escrow.sol\":2360:2367  escrows */\n      dup1\n        /* \"frontend/src/contracts/Escrow.sol\":2368:2372  uuid */\n      dup3\n        /* \"frontend/src/contracts/Escrow.sol\":2360:2373  escrows[uuid] */\n      mload(0x40)\n      tag_104\n      swap2\n      swap1\n      tag_43\n      jump\t// in\n    tag_104:\n      swap1\n      dup2\n      mstore\n      0x20\n      add\n      mload(0x40)\n      dup1\n      swap2\n      sub\n      swap1\n      keccak256\n        /* \"frontend/src/contracts/Escrow.sol\":2332:2373  EscrowData storage escrow = escrows[uuid] */\n      swap1\n      pop\n        /* \"frontend/src/contracts/Escrow.sol\":2384:2403  uint256 marketShare */\n      0x00\n        /* \"frontend/src/contracts/Escrow.sol\":2429:2431  10 */\n      0x0a\n        /* \"frontend/src/contracts/Escrow.sol\":2406:2412  escrow */\n      dup3\n        /* \"frontend/src/contracts/Escrow.sol\":2406:2426  escrow.contractPrice */\n      0x04\n      add\n      sload\n        /* \"frontend/src/contracts/Escrow.sol\":2406:2431  escrow.contractPrice / 10 */\n      tag_105\n      swap2\n      swap1\n      tag_106\n      jump\t// in\n    tag_105:\n        /* \"frontend/src/contracts/Escrow.sol\":2384:2431  uint256 marketShare = escrow.contractPrice / 10 */\n      swap1\n      pop\n        /* \"frontend/src/contracts/Escrow.sol\":2442:2461  uint256 sellerShare */\n      0x00\n        /* \"frontend/src/contracts/Escrow.sol\":2487:2498  marketShare */\n      dup2\n        /* \"frontend/src/contracts/Escrow.sol\":2464:2470  escrow */\n      dup4\n        /* \"frontend/src/contracts/Escrow.sol\":2464:2484  escrow.contractPrice */\n      0x04\n      add\n      sload\n        /* \"frontend/src/contracts/Escrow.sol\":2464:2498  escrow.contractPrice - marketShare */\n      tag_107\n      swap2\n      swap1\n      tag_108\n      jump\t// in\n    tag_107:\n        /* \"frontend/src/contracts/Escrow.sol\":2442:2498  uint256 sellerShare = escrow.contractPrice - marketShare */\n      swap1\n      pop\n        /* \"frontend/src/contracts/Escrow.sol\":2517:2523  escrow */\n      dup3\n        /* \"frontend/src/contracts/Escrow.sol\":2517:2530  escrow.market */\n      0x03\n      add\n      0x00\n      swap1\n      sload\n      swap1\n      0x0100\n      exp\n      swap1\n      div\n      0xffffffffffffffffffffffffffffffffffffffff\n      and\n        /* \"frontend/src/contracts/Escrow.sol\":2509:2540  payable(escrow.market).transfer */\n      0xffffffffffffffffffffffffffffffffffffffff\n      and\n        /* \"frontend/src/contracts/Escrow.sol\":2509:2553  payable(escrow.market).transfer(marketShare) */\n      0x08fc\n        /* \"frontend/src/contracts/Escrow.sol\":2541:2552  marketShare */\n      dup4\n        /* \"frontend/src/contracts/Escrow.sol\":2509:2553  payable(escrow.market).transfer(marketShare) */\n      swap1\n      dup2\n      iszero\n      mul\n      swap1\n      mload(0x40)\n      0x00\n      mload(0x40)\n      dup1\n      dup4\n      sub\n      dup2\n      dup6\n      dup9\n      dup9\n      call\n      swap4\n      pop\n      pop\n      pop\n      pop\n      iszero\n      dup1\n      iszero\n      tag_110\n      jumpi\n      returndatasize\n      0x00\n      dup1\n      returndatacopy\n      revert(0x00, returndatasize)\n    tag_110:\n      pop\n        /* \"frontend/src/contracts/Escrow.sol\":2572:2578  escrow */\n      dup3\n        /* \"frontend/src/contracts/Escrow.sol\":2572:2585  escrow.seller */\n      0x01\n      add\n      0x00\n      swap1\n      sload\n      swap1\n      0x0100\n      exp\n      swap1\n      div\n      0xffffffffffffffffffffffffffffffffffffffff\n      and\n        /* \"frontend/src/contracts/Escrow.sol\":2564:2595  payable(escrow.seller).transfer */\n      0xffffffffffffffffffffffffffffffffffffffff\n      and\n        /* \"frontend/src/contracts/Escrow.sol\":2564:2608  payable(escrow.seller).transfer(sellerShare) */\n      0x08fc\n        /* \"frontend/src/contracts/Escrow.sol\":2596:2607  sellerShare */\n      dup3\n        /* \"frontend/src/contracts/Escrow.sol\":2564:2608  payable(escrow.seller).transfer(sellerShare) */\n      swap1\n      dup2\n      iszero\n      mul\n      swap1\n      mload(0x40)\n      0x00\n      mload(0x40)\n      dup1\n      dup4\n      sub\n      dup2\n      dup6\n      dup9\n      dup9\n      call\n      swap4\n      pop\n      pop\n      pop\n      pop\n      iszero\n      dup1\n      iszero\n      tag_112\n      jumpi\n      returndatasize\n      0x00\n      dup1\n      returndatacopy\n      revert(0x00, returndatasize)\n    tag_112:\n      pop\n        /* \"frontend/src/contracts/Escrow.sol\":2675:2681  escrow */\n      dup3\n        /* \"frontend/src/contracts/Escrow.sol\":2675:2688  escrow.seller */\n      0x01\n      add\n      0x00\n      swap1\n      sload\n      swap1\n      0x0100\n      exp\n      swap1\n      div\n      0xffffffffffffffffffffffffffffffffffffffff\n      and\n        /* \"frontend/src/contracts/Escrow.sol\":2624:2702  FundsDistributed(uuid, escrow.market, marketShare, escrow.seller, sellerShare) */\n      0xffffffffffffffffffffffffffffffffffffffff\n      and\n        /* \"frontend/src/contracts/Escrow.sol\":2647:2653  escrow */\n      dup4\n        /* \"frontend/src/contracts/Escrow.sol\":2647:2660  escrow.market */\n      0x03\n      add\n      0x00\n      swap1\n      sload\n      swap1\n      0x0100\n      exp\n      swap1\n      div\n      0xffffffffffffffffffffffffffffffffffffffff\n      and\n        /* \"frontend/src/contracts/Escrow.sol\":2624:2702  FundsDistributed(uuid, escrow.market, marketShare, escrow.seller, sellerShare) */\n      0xffffffffffffffffffffffffffffffffffffffff\n      and\n      0x3e5a95c072b7c6fa3c73432c8c663074bcf5d61c2a4b29225d5e17e99ddf46fd\n        /* \"frontend/src/contracts/Escrow.sol\":2641:2645  uuid */\n      dup7\n        /* \"frontend/src/contracts/Escrow.sol\":2662:2673  marketShare */\n      dup6\n        /* \"frontend/src/contracts/Escrow.sol\":2690:2701  sellerShare */\n      dup6\n        /* \"frontend/src/contracts/Escrow.sol\":2624:2702  FundsDistributed(uuid, escrow.market, marketShare, escrow.seller, sellerShare) */\n      mload(0x40)\n      tag_113\n      swap4\n      swap3\n      swap2\n      swap1\n      tag_114\n      jump\t// in\n    tag_113:\n      mload(0x40)\n      dup1\n      swap2\n      sub\n      swap1\n      log3\n        /* \"frontend/src/contracts/Escrow.sol\":2241:2710  {... */\n      pop\n      pop\n      pop\n        /* \"frontend/src/contracts/Escrow.sol\":2188:2710  function distributeFunds(string memory uuid) private {... */\n      pop\n      jump\t// out\n        /* \"#utility.yul\":7:82   */\n    tag_115:\n        /* \"#utility.yul\":40:46   */\n      0x00\n        /* \"#utility.yul\":73:75   */\n      0x40\n        /* \"#utility.yul\":67:76   */\n      mload\n        /* \"#utility.yul\":57:76   */\n      swap1\n      pop\n        /* \"#utility.yul\":7:82   */\n      swap1\n      jump\t// out\n        /* \"#utility.yul\":88:205   */\n    tag_116:\n        /* \"#utility.yul\":197:198   */\n      0x00\n        /* \"#utility.yul\":194:195   */\n      dup1\n        /* \"#utility.yul\":187:199   */\n      revert\n        /* \"#utility.yul\":211:328   */\n    tag_117:\n        /* \"#utility.yul\":320:321   */\n      0x00\n        /* \"#utility.yul\":317:318   */\n      dup1\n        /* \"#utility.yul\":310:322   */\n      revert\n        /* \"#utility.yul\":334:451   */\n    tag_118:\n        /* \"#utility.yul\":443:444   */\n      0x00\n        /* \"#utility.yul\":440:441   */\n      dup1\n        /* \"#utility.yul\":433:445   */\n      revert\n        /* \"#utility.yul\":457:574   */\n    tag_119:\n        /* \"#utility.yul\":566:567   */\n      0x00\n        /* \"#utility.yul\":563:564   */\n      dup1\n        /* \"#utility.yul\":556:568   */\n      revert\n        /* \"#utility.yul\":580:682   */\n    tag_120:\n        /* \"#utility.yul\":621:627   */\n      0x00\n        /* \"#utility.yul\":672:674   */\n      0x1f\n        /* \"#utility.yul\":668:675   */\n      not\n        /* \"#utility.yul\":663:665   */\n      0x1f\n        /* \"#utility.yul\":656:661   */\n      dup4\n        /* \"#utility.yul\":652:666   */\n      add\n        /* \"#utility.yul\":648:676   */\n      and\n        /* \"#utility.yul\":638:676   */\n      swap1\n      pop\n        /* \"#utility.yul\":580:682   */\n      swap2\n      swap1\n      pop\n      jump\t// out\n        /* \"#utility.yul\":688:868   */\n    tag_121:\n        /* \"#utility.yul\":736:813   */\n      0x4e487b7100000000000000000000000000000000000000000000000000000000\n        /* \"#utility.yul\":733:734   */\n      0x00\n        /* \"#utility.yul\":726:814   */\n      mstore\n        /* \"#utility.yul\":833:837   */\n      0x41\n        /* \"#utility.yul\":830:831   */\n      0x04\n        /* \"#utility.yul\":823:838   */\n      mstore\n        /* \"#utility.yul\":857:861   */\n      0x24\n        /* \"#utility.yul\":854:855   */\n      0x00\n        /* \"#utility.yul\":847:862   */\n      revert\n        /* \"#utility.yul\":874:1155   */\n    tag_122:\n        /* \"#utility.yul\":957:984   */\n      tag_174\n        /* \"#utility.yul\":979:983   */\n      dup3\n        /* \"#utility.yul\":957:984   */\n      tag_120\n      jump\t// in\n    tag_174:\n        /* \"#utility.yul\":949:955   */\n      dup2\n        /* \"#utility.yul\":945:985   */\n      add\n        /* \"#utility.yul\":1087:1093   */\n      dup2\n        /* \"#utility.yul\":1075:1085   */\n      dup2\n        /* \"#utility.yul\":1072:1094   */\n      lt\n        /* \"#utility.yul\":1051:1069   */\n      0xffffffffffffffff\n        /* \"#utility.yul\":1039:1049   */\n      dup3\n        /* \"#utility.yul\":1036:1070   */\n      gt\n        /* \"#utility.yul\":1033:1095   */\n      or\n        /* \"#utility.yul\":1030:1118   */\n      iszero\n      tag_175\n      jumpi\n        /* \"#utility.yul\":1098:1116   */\n      tag_176\n      tag_121\n      jump\t// in\n    tag_176:\n        /* \"#utility.yul\":1030:1118   */\n    tag_175:\n        /* \"#utility.yul\":1138:1148   */\n      dup1\n        /* \"#utility.yul\":1134:1136   */\n      0x40\n        /* \"#utility.yul\":1127:1149   */\n      mstore\n        /* \"#utility.yul\":917:1155   */\n      pop\n        /* \"#utility.yul\":874:1155   */\n      pop\n      pop\n      jump\t// out\n        /* \"#utility.yul\":1161:1290   */\n    tag_123:\n        /* \"#utility.yul\":1195:1201   */\n      0x00\n        /* \"#utility.yul\":1222:1242   */\n      tag_178\n      tag_115\n      jump\t// in\n    tag_178:\n        /* \"#utility.yul\":1212:1242   */\n      swap1\n      pop\n        /* \"#utility.yul\":1251:1284   */\n      tag_179\n        /* \"#utility.yul\":1279:1283   */\n      dup3\n        /* \"#utility.yul\":1271:1277   */\n      dup3\n        /* \"#utility.yul\":1251:1284   */\n      tag_122\n      jump\t// in\n    tag_179:\n        /* \"#utility.yul\":1161:1290   */\n      swap2\n      swap1\n      pop\n      jump\t// out\n        /* \"#utility.yul\":1296:1604   */\n    tag_124:\n        /* \"#utility.yul\":1358:1362   */\n      0x00\n        /* \"#utility.yul\":1448:1466   */\n      0xffffffffffffffff\n        /* \"#utility.yul\":1440:1446   */\n      dup3\n        /* \"#utility.yul\":1437:1467   */\n      gt\n        /* \"#utility.yul\":1434:1490   */\n      iszero\n      tag_181\n      jumpi\n        /* \"#utility.yul\":1470:1488   */\n      tag_182\n      tag_121\n      jump\t// in\n    tag_182:\n        /* \"#utility.yul\":1434:1490   */\n    tag_181:\n        /* \"#utility.yul\":1508:1537   */\n      tag_183\n        /* \"#utility.yul\":1530:1536   */\n      dup3\n        /* \"#utility.yul\":1508:1537   */\n      tag_120\n      jump\t// in\n    tag_183:\n        /* \"#utility.yul\":1500:1537   */\n      swap1\n      pop\n        /* \"#utility.yul\":1592:1596   */\n      0x20\n        /* \"#utility.yul\":1586:1590   */\n      dup2\n        /* \"#utility.yul\":1582:1597   */\n      add\n        /* \"#utility.yul\":1574:1597   */\n      swap1\n      pop\n        /* \"#utility.yul\":1296:1604   */\n      swap2\n      swap1\n      pop\n      jump\t// out\n        /* \"#utility.yul\":1610:1756   */\n    tag_125:\n        /* \"#utility.yul\":1707:1713   */\n      dup3\n        /* \"#utility.yul\":1702:1705   */\n      dup2\n        /* \"#utility.yul\":1697:1700   */\n      dup4\n        /* \"#utility.yul\":1684:1714   */\n      calldatacopy\n        /* \"#utility.yul\":1748:1749   */\n      0x00\n        /* \"#utility.yul\":1739:1745   */\n      dup4\n        /* \"#utility.yul\":1734:1737   */\n      dup4\n        /* \"#utility.yul\":1730:1746   */\n      add\n        /* \"#utility.yul\":1723:1750   */\n      mstore\n        /* \"#utility.yul\":1610:1756   */\n      pop\n      pop\n      pop\n      jump\t// out\n        /* \"#utility.yul\":1762:2187   */\n    tag_126:\n        /* \"#utility.yul\":1840:1845   */\n      0x00\n        /* \"#utility.yul\":1865:1931   */\n      tag_186\n        /* \"#utility.yul\":1881:1930   */\n      tag_187\n        /* \"#utility.yul\":1923:1929   */\n      dup5\n        /* \"#utility.yul\":1881:1930   */\n      tag_124\n      jump\t// in\n    tag_187:\n        /* \"#utility.yul\":1865:1931   */\n      tag_123\n      jump\t// in\n    tag_186:\n        /* \"#utility.yul\":1856:1931   */\n      swap1\n      pop\n        /* \"#utility.yul\":1954:1960   */\n      dup3\n        /* \"#utility.yul\":1947:1952   */\n      dup2\n        /* \"#utility.yul\":1940:1961   */\n      mstore\n        /* \"#utility.yul\":1992:1996   */\n      0x20\n        /* \"#utility.yul\":1985:1990   */\n      dup2\n        /* \"#utility.yul\":1981:1997   */\n      add\n        /* \"#utility.yul\":2030:2033   */\n      dup5\n        /* \"#utility.yul\":2021:2027   */\n      dup5\n        /* \"#utility.yul\":2016:2019   */\n      dup5\n        /* \"#utility.yul\":2012:2028   */\n      add\n        /* \"#utility.yul\":2009:2034   */\n      gt\n        /* \"#utility.yul\":2006:2118   */\n      iszero\n      tag_188\n      jumpi\n        /* \"#utility.yul\":2037:2116   */\n      tag_189\n      tag_119\n      jump\t// in\n    tag_189:\n        /* \"#utility.yul\":2006:2118   */\n    tag_188:\n        /* \"#utility.yul\":2127:2181   */\n      tag_190\n        /* \"#utility.yul\":2174:2180   */\n      dup5\n        /* \"#utility.yul\":2169:2172   */\n      dup3\n        /* \"#utility.yul\":2164:2167   */\n      dup6\n        /* \"#utility.yul\":2127:2181   */\n      tag_125\n      jump\t// in\n    tag_190:\n        /* \"#utility.yul\":1846:2187   */\n      pop\n        /* \"#utility.yul\":1762:2187   */\n      swap4\n      swap3\n      pop\n      pop\n      pop\n      jump\t// out\n        /* \"#utility.yul\":2207:2547   */\n    tag_127:\n        /* \"#utility.yul\":2263:2268   */\n      0x00\n        /* \"#utility.yul\":2312:2315   */\n      dup3\n        /* \"#utility.yul\":2305:2309   */\n      0x1f\n        /* \"#utility.yul\":2297:2303   */\n      dup4\n        /* \"#utility.yul\":2293:2310   */\n      add\n        /* \"#utility.yul\":2289:2316   */\n      slt\n        /* \"#utility.yul\":2279:2401   */\n      tag_192\n      jumpi\n        /* \"#utility.yul\":2320:2399   */\n      tag_193\n      tag_118\n      jump\t// in\n    tag_193:\n        /* \"#utility.yul\":2279:2401   */\n    tag_192:\n        /* \"#utility.yul\":2437:2443   */\n      dup2\n        /* \"#utility.yul\":2424:2444   */\n      calldataload\n        /* \"#utility.yul\":2462:2541   */\n      tag_194\n        /* \"#utility.yul\":2537:2540   */\n      dup5\n        /* \"#utility.yul\":2529:2535   */\n      dup3\n        /* \"#utility.yul\":2522:2526   */\n      0x20\n        /* \"#utility.yul\":2514:2520   */\n      dup7\n        /* \"#utility.yul\":2510:2527   */\n      add\n        /* \"#utility.yul\":2462:2541   */\n      tag_126\n      jump\t// in\n    tag_194:\n        /* \"#utility.yul\":2453:2541   */\n      swap2\n      pop\n        /* \"#utility.yul\":2269:2547   */\n      pop\n        /* \"#utility.yul\":2207:2547   */\n      swap3\n      swap2\n      pop\n      pop\n      jump\t// out\n        /* \"#utility.yul\":2553:3062   */\n    tag_13:\n        /* \"#utility.yul\":2622:2628   */\n      0x00\n        /* \"#utility.yul\":2671:2673   */\n      0x20\n        /* \"#utility.yul\":2659:2668   */\n      dup3\n        /* \"#utility.yul\":2650:2657   */\n      dup5\n        /* \"#utility.yul\":2646:2669   */\n      sub\n        /* \"#utility.yul\":2642:2674   */\n      slt\n        /* \"#utility.yul\":2639:2758   */\n      iszero\n      tag_196\n      jumpi\n        /* \"#utility.yul\":2677:2756   */\n      tag_197\n      tag_116\n      jump\t// in\n    tag_197:\n        /* \"#utility.yul\":2639:2758   */\n    tag_196:\n        /* \"#utility.yul\":2825:2826   */\n      0x00\n        /* \"#utility.yul\":2814:2823   */\n      dup3\n        /* \"#utility.yul\":2810:2827   */\n      add\n        /* \"#utility.yul\":2797:2828   */\n      calldataload\n        /* \"#utility.yul\":2855:2873   */\n      0xffffffffffffffff\n        /* \"#utility.yul\":2847:2853   */\n      dup2\n        /* \"#utility.yul\":2844:2874   */\n      gt\n        /* \"#utility.yul\":2841:2958   */\n      iszero\n      tag_198\n      jumpi\n        /* \"#utility.yul\":2877:2956   */\n      tag_199\n      tag_117\n      jump\t// in\n    tag_199:\n        /* \"#utility.yul\":2841:2958   */\n    tag_198:\n        /* \"#utility.yul\":2982:3045   */\n      tag_200\n        /* \"#utility.yul\":3037:3044   */\n      dup5\n        /* \"#utility.yul\":3028:3034   */\n      dup3\n        /* \"#utility.yul\":3017:3026   */\n      dup6\n        /* \"#utility.yul\":3013:3035   */\n      add\n        /* \"#utility.yul\":2982:3045   */\n      tag_127\n      jump\t// in\n    tag_200:\n        /* \"#utility.yul\":2972:3045   */\n      swap2\n      pop\n        /* \"#utility.yul\":2768:3055   */\n      pop\n        /* \"#utility.yul\":2553:3062   */\n      swap3\n      swap2\n      pop\n      pop\n      jump\t// out\n        /* \"#utility.yul\":3068:3194   */\n    tag_128:\n        /* \"#utility.yul\":3105:3112   */\n      0x00\n        /* \"#utility.yul\":3145:3187   */\n      0xffffffffffffffffffffffffffffffffffffffff\n        /* \"#utility.yul\":3138:3143   */\n      dup3\n        /* \"#utility.yul\":3134:3188   */\n      and\n        /* \"#utility.yul\":3123:3188   */\n      swap1\n      pop\n        /* \"#utility.yul\":3068:3194   */\n      swap2\n      swap1\n      pop\n      jump\t// out\n        /* \"#utility.yul\":3200:3296   */\n    tag_129:\n        /* \"#utility.yul\":3237:3244   */\n      0x00\n        /* \"#utility.yul\":3266:3290   */\n      tag_203\n        /* \"#utility.yul\":3284:3289   */\n      dup3\n        /* \"#utility.yul\":3266:3290   */\n      tag_128\n      jump\t// in\n    tag_203:\n        /* \"#utility.yul\":3255:3290   */\n      swap1\n      pop\n        /* \"#utility.yul\":3200:3296   */\n      swap2\n      swap1\n      pop\n      jump\t// out\n        /* \"#utility.yul\":3302:3420   */\n    tag_130:\n        /* \"#utility.yul\":3389:3413   */\n      tag_205\n        /* \"#utility.yul\":3407:3412   */\n      dup2\n        /* \"#utility.yul\":3389:3413   */\n      tag_129\n      jump\t// in\n    tag_205:\n        /* \"#utility.yul\":3384:3387   */\n      dup3\n        /* \"#utility.yul\":3377:3414   */\n      mstore\n        /* \"#utility.yul\":3302:3420   */\n      pop\n      pop\n      jump\t// out\n        /* \"#utility.yul\":3426:3503   */\n    tag_131:\n        /* \"#utility.yul\":3463:3470   */\n      0x00\n        /* \"#utility.yul\":3492:3497   */\n      dup2\n        /* \"#utility.yul\":3481:3497   */\n      swap1\n      pop\n        /* \"#utility.yul\":3426:3503   */\n      swap2\n      swap1\n      pop\n      jump\t// out\n        /* \"#utility.yul\":3509:3627   */\n    tag_132:\n        /* \"#utility.yul\":3596:3620   */\n      tag_208\n        /* \"#utility.yul\":3614:3619   */\n      dup2\n        /* \"#utility.yul\":3596:3620   */\n      tag_131\n      jump\t// in\n    tag_208:\n        /* \"#utility.yul\":3591:3594   */\n      dup3\n        /* \"#utility.yul\":3584:3621   */\n      mstore\n        /* \"#utility.yul\":3509:3627   */\n      pop\n      pop\n      jump\t// out\n        /* \"#utility.yul\":3633:3813   */\n    tag_49:\n        /* \"#utility.yul\":3681:3758   */\n      0x4e487b7100000000000000000000000000000000000000000000000000000000\n        /* \"#utility.yul\":3678:3679   */\n      0x00\n        /* \"#utility.yul\":3671:3759   */\n      mstore\n        /* \"#utility.yul\":3778:3782   */\n      0x21\n        /* \"#utility.yul\":3775:3776   */\n      0x04\n        /* \"#utility.yul\":3768:3783   */\n      mstore\n        /* \"#utility.yul\":3802:3806   */\n      0x24\n        /* \"#utility.yul\":3799:3800   */\n      0x00\n        /* \"#utility.yul\":3792:3807   */\n      revert\n        /* \"#utility.yul\":3819:3946   */\n    tag_133:\n        /* \"#utility.yul\":3914:3915   */\n      0x03\n        /* \"#utility.yul\":3907:3912   */\n      dup2\n        /* \"#utility.yul\":3904:3916   */\n      lt\n        /* \"#utility.yul\":3894:3940   */\n      tag_211\n      jumpi\n        /* \"#utility.yul\":3920:3938   */\n      tag_212\n      tag_49\n      jump\t// in\n    tag_212:\n        /* \"#utility.yul\":3894:3940   */\n    tag_211:\n        /* \"#utility.yul\":3819:3946   */\n      pop\n      jump\t// out\n        /* \"#utility.yul\":3952:4107   */\n    tag_134:\n        /* \"#utility.yul\":4011:4018   */\n      0x00\n        /* \"#utility.yul\":4040:4045   */\n      dup2\n        /* \"#utility.yul\":4029:4045   */\n      swap1\n      pop\n        /* \"#utility.yul\":4046:4101   */\n      tag_214\n        /* \"#utility.yul\":4095:4100   */\n      dup3\n        /* \"#utility.yul\":4046:4101   */\n      tag_133\n      jump\t// in\n    tag_214:\n        /* \"#utility.yul\":3952:4107   */\n      swap2\n      swap1\n      pop\n      jump\t// out\n        /* \"#utility.yul\":4113:4268   */\n    tag_135:\n        /* \"#utility.yul\":4183:4192   */\n      0x00\n        /* \"#utility.yul\":4216:4262   */\n      tag_216\n        /* \"#utility.yul\":4256:4261   */\n      dup3\n        /* \"#utility.yul\":4216:4262   */\n      tag_134\n      jump\t// in\n    tag_216:\n        /* \"#utility.yul\":4203:4262   */\n      swap1\n      pop\n        /* \"#utility.yul\":4113:4268   */\n      swap2\n      swap1\n      pop\n      jump\t// out\n        /* \"#utility.yul\":4274:4445   */\n    tag_136:\n        /* \"#utility.yul\":4381:4438   */\n      tag_218\n        /* \"#utility.yul\":4432:4437   */\n      dup2\n        /* \"#utility.yul\":4381:4438   */\n      tag_135\n      jump\t// in\n    tag_218:\n        /* \"#utility.yul\":4376:4379   */\n      dup3\n        /* \"#utility.yul\":4369:4439   */\n      mstore\n        /* \"#utility.yul\":4274:4445   */\n      pop\n      pop\n      jump\t// out\n        /* \"#utility.yul\":4451:5266   */\n    tag_16:\n        /* \"#utility.yul\":4704:4708   */\n      0x00\n        /* \"#utility.yul\":4742:4745   */\n      0xc0\n        /* \"#utility.yul\":4731:4740   */\n      dup3\n        /* \"#utility.yul\":4727:4746   */\n      add\n        /* \"#utility.yul\":4719:4746   */\n      swap1\n      pop\n        /* \"#utility.yul\":4756:4827   */\n      tag_220\n        /* \"#utility.yul\":4824:4825   */\n      0x00\n        /* \"#utility.yul\":4813:4822   */\n      dup4\n        /* \"#utility.yul\":4809:4826   */\n      add\n        /* \"#utility.yul\":4800:4806   */\n      dup10\n        /* \"#utility.yul\":4756:4827   */\n      tag_130\n      jump\t// in\n    tag_220:\n        /* \"#utility.yul\":4837:4909   */\n      tag_221\n        /* \"#utility.yul\":4905:4907   */\n      0x20\n        /* \"#utility.yul\":4894:4903   */\n      dup4\n        /* \"#utility.yul\":4890:4908   */\n      add\n        /* \"#utility.yul\":4881:4887   */\n      dup9\n        /* \"#utility.yul\":4837:4909   */\n      tag_130\n      jump\t// in\n    tag_221:\n        /* \"#utility.yul\":4919:4991   */\n      tag_222\n        /* \"#utility.yul\":4987:4989   */\n      0x40\n        /* \"#utility.yul\":4976:4985   */\n      dup4\n        /* \"#utility.yul\":4972:4990   */\n      add\n        /* \"#utility.yul\":4963:4969   */\n      dup8\n        /* \"#utility.yul\":4919:4991   */\n      tag_130\n      jump\t// in\n    tag_222:\n        /* \"#utility.yul\":5001:5073   */\n      tag_223\n        /* \"#utility.yul\":5069:5071   */\n      0x60\n        /* \"#utility.yul\":5058:5067   */\n      dup4\n        /* \"#utility.yul\":5054:5072   */\n      add\n        /* \"#utility.yul\":5045:5051   */\n      dup7\n        /* \"#utility.yul\":5001:5073   */\n      tag_130\n      jump\t// in\n    tag_223:\n        /* \"#utility.yul\":5083:5156   */\n      tag_224\n        /* \"#utility.yul\":5151:5154   */\n      0x80\n        /* \"#utility.yul\":5140:5149   */\n      dup4\n        /* \"#utility.yul\":5136:5155   */\n      add\n        /* \"#utility.yul\":5127:5133   */\n      dup6\n        /* \"#utility.yul\":5083:5156   */\n      tag_132\n      jump\t// in\n    tag_224:\n        /* \"#utility.yul\":5166:5259   */\n      tag_225\n        /* \"#utility.yul\":5254:5257   */\n      0xa0\n        /* \"#utility.yul\":5243:5252   */\n      dup4\n        /* \"#utility.yul\":5239:5258   */\n      add\n        /* \"#utility.yul\":5230:5236   */\n      dup5\n        /* \"#utility.yul\":5166:5259   */\n      tag_136\n      jump\t// in\n    tag_225:\n        /* \"#utility.yul\":4451:5266   */\n      swap8\n      swap7\n      pop\n      pop\n      pop\n      pop\n      pop\n      pop\n      pop\n      jump\t// out\n        /* \"#utility.yul\":5272:5394   */\n    tag_137:\n        /* \"#utility.yul\":5345:5369   */\n      tag_227\n        /* \"#utility.yul\":5363:5368   */\n      dup2\n        /* \"#utility.yul\":5345:5369   */\n      tag_129\n      jump\t// in\n    tag_227:\n        /* \"#utility.yul\":5338:5343   */\n      dup2\n        /* \"#utility.yul\":5335:5370   */\n      eq\n        /* \"#utility.yul\":5325:5388   */\n      tag_228\n      jumpi\n        /* \"#utility.yul\":5384:5385   */\n      0x00\n        /* \"#utility.yul\":5381:5382   */\n      dup1\n        /* \"#utility.yul\":5374:5386   */\n      revert\n        /* \"#utility.yul\":5325:5388   */\n    tag_228:\n        /* \"#utility.yul\":5272:5394   */\n      pop\n      jump\t// out\n        /* \"#utility.yul\":5400:5539   */\n    tag_138:\n        /* \"#utility.yul\":5446:5451   */\n      0x00\n        /* \"#utility.yul\":5484:5490   */\n      dup2\n        /* \"#utility.yul\":5471:5491   */\n      calldataload\n        /* \"#utility.yul\":5462:5491   */\n      swap1\n      pop\n        /* \"#utility.yul\":5500:5533   */\n      tag_230\n        /* \"#utility.yul\":5527:5532   */\n      dup2\n        /* \"#utility.yul\":5500:5533   */\n      tag_137\n      jump\t// in\n    tag_230:\n        /* \"#utility.yul\":5400:5539   */\n      swap3\n      swap2\n      pop\n      pop\n      jump\t// out\n        /* \"#utility.yul\":5545:5667   */\n    tag_139:\n        /* \"#utility.yul\":5618:5642   */\n      tag_232\n        /* \"#utility.yul\":5636:5641   */\n      dup2\n        /* \"#utility.yul\":5618:5642   */\n      tag_131\n      jump\t// in\n    tag_232:\n        /* \"#utility.yul\":5611:5616   */\n      dup2\n        /* \"#utility.yul\":5608:5643   */\n      eq\n        /* \"#utility.yul\":5598:5661   */\n      tag_233\n      jumpi\n        /* \"#utility.yul\":5657:5658   */\n      0x00\n        /* \"#utility.yul\":5654:5655   */\n      dup1\n        /* \"#utility.yul\":5647:5659   */\n      revert\n        /* \"#utility.yul\":5598:5661   */\n    tag_233:\n        /* \"#utility.yul\":5545:5667   */\n      pop\n      jump\t// out\n        /* \"#utility.yul\":5673:5812   */\n    tag_140:\n        /* \"#utility.yul\":5719:5724   */\n      0x00\n        /* \"#utility.yul\":5757:5763   */\n      dup2\n        /* \"#utility.yul\":5744:5764   */\n      calldataload\n        /* \"#utility.yul\":5735:5764   */\n      swap1\n      pop\n        /* \"#utility.yul\":5773:5806   */\n      tag_235\n        /* \"#utility.yul\":5800:5805   */\n      dup2\n        /* \"#utility.yul\":5773:5806   */\n      tag_139\n      jump\t// in\n    tag_235:\n        /* \"#utility.yul\":5673:5812   */\n      swap3\n      swap2\n      pop\n      pop\n      jump\t// out\n        /* \"#utility.yul\":5818:7055   */\n    tag_19:\n        /* \"#utility.yul\":5932:5938   */\n      0x00\n        /* \"#utility.yul\":5940:5946   */\n      dup1\n        /* \"#utility.yul\":5948:5954   */\n      0x00\n        /* \"#utility.yul\":5956:5962   */\n      dup1\n        /* \"#utility.yul\":5964:5970   */\n      0x00\n        /* \"#utility.yul\":5972:5978   */\n      dup1\n        /* \"#utility.yul\":6021:6024   */\n      0xc0\n        /* \"#utility.yul\":6009:6018   */\n      dup8\n        /* \"#utility.yul\":6000:6007   */\n      dup10\n        /* \"#utility.yul\":5996:6019   */\n      sub\n        /* \"#utility.yul\":5992:6025   */\n      slt\n        /* \"#utility.yul\":5989:6109   */\n      iszero\n      tag_237\n      jumpi\n        /* \"#utility.yul\":6028:6107   */\n      tag_238\n      tag_116\n      jump\t// in\n    tag_238:\n        /* \"#utility.yul\":5989:6109   */\n    tag_237:\n        /* \"#utility.yul\":6176:6177   */\n      0x00\n        /* \"#utility.yul\":6165:6174   */\n      dup8\n        /* \"#utility.yul\":6161:6178   */\n      add\n        /* \"#utility.yul\":6148:6179   */\n      calldataload\n        /* \"#utility.yul\":6206:6224   */\n      0xffffffffffffffff\n        /* \"#utility.yul\":6198:6204   */\n      dup2\n        /* \"#utility.yul\":6195:6225   */\n      gt\n        /* \"#utility.yul\":6192:6309   */\n      iszero\n      tag_239\n      jumpi\n        /* \"#utility.yul\":6228:6307   */\n      tag_240\n      tag_117\n      jump\t// in\n    tag_240:\n        /* \"#utility.yul\":6192:6309   */\n    tag_239:\n        /* \"#utility.yul\":6333:6396   */\n      tag_241\n        /* \"#utility.yul\":6388:6395   */\n      dup10\n        /* \"#utility.yul\":6379:6385   */\n      dup3\n        /* \"#utility.yul\":6368:6377   */\n      dup11\n        /* \"#utility.yul\":6364:6386   */\n      add\n        /* \"#utility.yul\":6333:6396   */\n      tag_127\n      jump\t// in\n    tag_241:\n        /* \"#utility.yul\":6323:6396   */\n      swap7\n      pop\n        /* \"#utility.yul\":6119:6406   */\n      pop\n        /* \"#utility.yul\":6445:6447   */\n      0x20\n        /* \"#utility.yul\":6471:6524   */\n      tag_242\n        /* \"#utility.yul\":6516:6523   */\n      dup10\n        /* \"#utility.yul\":6507:6513   */\n      dup3\n        /* \"#utility.yul\":6496:6505   */\n      dup11\n        /* \"#utility.yul\":6492:6514   */\n      add\n        /* \"#utility.yul\":6471:6524   */\n      tag_138\n      jump\t// in\n    tag_242:\n        /* \"#utility.yul\":6461:6524   */\n      swap6\n      pop\n        /* \"#utility.yul\":6416:6534   */\n      pop\n        /* \"#utility.yul\":6573:6575   */\n      0x40\n        /* \"#utility.yul\":6599:6652   */\n      tag_243\n        /* \"#utility.yul\":6644:6651   */\n      dup10\n        /* \"#utility.yul\":6635:6641   */\n      dup3\n        /* \"#utility.yul\":6624:6633   */\n      dup11\n        /* \"#utility.yul\":6620:6642   */\n      add\n        /* \"#utility.yul\":6599:6652   */\n      tag_138\n      jump\t// in\n    tag_243:\n        /* \"#utility.yul\":6589:6652   */\n      swap5\n      pop\n        /* \"#utility.yul\":6544:6662   */\n      pop\n        /* \"#utility.yul\":6701:6703   */\n      0x60\n        /* \"#utility.yul\":6727:6780   */\n      tag_244\n        /* \"#utility.yul\":6772:6779   */\n      dup10\n        /* \"#utility.yul\":6763:6769   */\n      dup3\n        /* \"#utility.yul\":6752:6761   */\n      dup11\n        /* \"#utility.yul\":6748:6770   */\n      add\n        /* \"#utility.yul\":6727:6780   */\n      tag_138\n      jump\t// in\n    tag_244:\n        /* \"#utility.yul\":6717:6780   */\n      swap4\n      pop\n        /* \"#utility.yul\":6672:6790   */\n      pop\n        /* \"#utility.yul\":6829:6832   */\n      0x80\n        /* \"#utility.yul\":6856:6909   */\n      tag_245\n        /* \"#utility.yul\":6901:6908   */\n      dup10\n        /* \"#utility.yul\":6892:6898   */\n      dup3\n        /* \"#utility.yul\":6881:6890   */\n      dup11\n        /* \"#utility.yul\":6877:6899   */\n      add\n        /* \"#utility.yul\":6856:6909   */\n      tag_138\n      jump\t// in\n    tag_245:\n        /* \"#utility.yul\":6846:6909   */\n      swap3\n      pop\n        /* \"#utility.yul\":6800:6919   */\n      pop\n        /* \"#utility.yul\":6958:6961   */\n      0xa0\n        /* \"#utility.yul\":6985:7038   */\n      tag_246\n        /* \"#utility.yul\":7030:7037   */\n      dup10\n        /* \"#utility.yul\":7021:7027   */\n      dup3\n        /* \"#utility.yul\":7010:7019   */\n      dup11\n        /* \"#utility.yul\":7006:7028   */\n      add\n        /* \"#utility.yul\":6985:7038   */\n      tag_140\n      jump\t// in\n    tag_246:\n        /* \"#utility.yul\":6975:7038   */\n      swap2\n      pop\n        /* \"#utility.yul\":6929:7048   */\n      pop\n        /* \"#utility.yul\":5818:7055   */\n      swap3\n      swap6\n      pop\n      swap3\n      swap6\n      pop\n      swap3\n      swap6\n      jump\t// out\n        /* \"#utility.yul\":7061:7323   */\n    tag_26:\n        /* \"#utility.yul\":7174:7178   */\n      0x00\n        /* \"#utility.yul\":7212:7214   */\n      0x20\n        /* \"#utility.yul\":7201:7210   */\n      dup3\n        /* \"#utility.yul\":7197:7215   */\n      add\n        /* \"#utility.yul\":7189:7215   */\n      swap1\n      pop\n        /* \"#utility.yul\":7225:7316   */\n      tag_248\n        /* \"#utility.yul\":7313:7314   */\n      0x00\n        /* \"#utility.yul\":7302:7311   */\n      dup4\n        /* \"#utility.yul\":7298:7315   */\n      add\n        /* \"#utility.yul\":7289:7295   */\n      dup5\n        /* \"#utility.yul\":7225:7316   */\n      tag_136\n      jump\t// in\n    tag_248:\n        /* \"#utility.yul\":7061:7323   */\n      swap3\n      swap2\n      pop\n      pop\n      jump\t// out\n        /* \"#utility.yul\":7329:7498   */\n    tag_141:\n        /* \"#utility.yul\":7413:7424   */\n      0x00\n        /* \"#utility.yul\":7447:7453   */\n      dup3\n        /* \"#utility.yul\":7442:7445   */\n      dup3\n        /* \"#utility.yul\":7435:7454   */\n      mstore\n        /* \"#utility.yul\":7487:7491   */\n      0x20\n        /* \"#utility.yul\":7482:7485   */\n      dup3\n        /* \"#utility.yul\":7478:7492   */\n      add\n        /* \"#utility.yul\":7463:7492   */\n      swap1\n      pop\n        /* \"#utility.yul\":7329:7498   */\n      swap3\n      swap2\n      pop\n      pop\n      jump\t// out\n        /* \"#utility.yul\":7504:7658   */\n    tag_142:\n        /* \"#utility.yul\":7644:7650   */\n      0x6530303200000000000000000000000000000000000000000000000000000000\n        /* \"#utility.yul\":7640:7641   */\n      0x00\n        /* \"#utility.yul\":7632:7638   */\n      dup3\n        /* \"#utility.yul\":7628:7642   */\n      add\n        /* \"#utility.yul\":7621:7651   */\n      mstore\n        /* \"#utility.yul\":7504:7658   */\n      pop\n      jump\t// out\n        /* \"#utility.yul\":7664:8029   */\n    tag_143:\n        /* \"#utility.yul\":7806:7809   */\n      0x00\n        /* \"#utility.yul\":7827:7893   */\n      tag_252\n        /* \"#utility.yul\":7891:7892   */\n      0x04\n        /* \"#utility.yul\":7886:7889   */\n      dup4\n        /* \"#utility.yul\":7827:7893   */\n      tag_141\n      jump\t// in\n    tag_252:\n        /* \"#utility.yul\":7820:7893   */\n      swap2\n      pop\n        /* \"#utility.yul\":7902:7995   */\n      tag_253\n        /* \"#utility.yul\":7991:7994   */\n      dup3\n        /* \"#utility.yul\":7902:7995   */\n      tag_142\n      jump\t// in\n    tag_253:\n        /* \"#utility.yul\":8020:8022   */\n      0x20\n        /* \"#utility.yul\":8015:8018   */\n      dup3\n        /* \"#utility.yul\":8011:8023   */\n      add\n        /* \"#utility.yul\":8004:8023   */\n      swap1\n      pop\n        /* \"#utility.yul\":7664:8029   */\n      swap2\n      swap1\n      pop\n      jump\t// out\n        /* \"#utility.yul\":8035:8454   */\n    tag_38:\n        /* \"#utility.yul\":8201:8205   */\n      0x00\n        /* \"#utility.yul\":8239:8241   */\n      0x20\n        /* \"#utility.yul\":8228:8237   */\n      dup3\n        /* \"#utility.yul\":8224:8242   */\n      add\n        /* \"#utility.yul\":8216:8242   */\n      swap1\n      pop\n        /* \"#utility.yul\":8288:8297   */\n      dup2\n        /* \"#utility.yul\":8282:8286   */\n      dup2\n        /* \"#utility.yul\":8278:8298   */\n      sub\n        /* \"#utility.yul\":8274:8275   */\n      0x00\n        /* \"#utility.yul\":8263:8272   */\n      dup4\n        /* \"#utility.yul\":8259:8276   */\n      add\n        /* \"#utility.yul\":8252:8299   */\n      mstore\n        /* \"#utility.yul\":8316:8447   */\n      tag_255\n        /* \"#utility.yul\":8442:8446   */\n      dup2\n        /* \"#utility.yul\":8316:8447   */\n      tag_143\n      jump\t// in\n    tag_255:\n        /* \"#utility.yul\":8308:8447   */\n      swap1\n      pop\n        /* \"#utility.yul\":8035:8454   */\n      swap2\n      swap1\n      pop\n      jump\t// out\n        /* \"#utility.yul\":8460:8614   */\n    tag_144:\n        /* \"#utility.yul\":8600:8606   */\n      0x6530303300000000000000000000000000000000000000000000000000000000\n        /* \"#utility.yul\":8596:8597   */\n      0x00\n        /* \"#utility.yul\":8588:8594   */\n      dup3\n        /* \"#utility.yul\":8584:8598   */\n      add\n        /* \"#utility.yul\":8577:8607   */\n      mstore\n        /* \"#utility.yul\":8460:8614   */\n      pop\n      jump\t// out\n        /* \"#utility.yul\":8620:8985   */\n    tag_145:\n        /* \"#utility.yul\":8762:8765   */\n      0x00\n        /* \"#utility.yul\":8783:8849   */\n      tag_258\n        /* \"#utility.yul\":8847:8848   */\n      0x04\n        /* \"#utility.yul\":8842:8845   */\n      dup4\n        /* \"#utility.yul\":8783:8849   */\n      tag_141\n      jump\t// in\n    tag_258:\n        /* \"#utility.yul\":8776:8849   */\n      swap2\n      pop\n        /* \"#utility.yul\":8858:8951   */\n      tag_259\n        /* \"#utility.yul\":8947:8950   */\n      dup3\n        /* \"#utility.yul\":8858:8951   */\n      tag_144\n      jump\t// in\n    tag_259:\n        /* \"#utility.yul\":8976:8978   */\n      0x20\n        /* \"#utility.yul\":8971:8974   */\n      dup3\n        /* \"#utility.yul\":8967:8979   */\n      add\n        /* \"#utility.yul\":8960:8979   */\n      swap1\n      pop\n        /* \"#utility.yul\":8620:8985   */\n      swap2\n      swap1\n      pop\n      jump\t// out\n        /* \"#utility.yul\":8991:9410   */\n    tag_41:\n        /* \"#utility.yul\":9157:9161   */\n      0x00\n        /* \"#utility.yul\":9195:9197   */\n      0x20\n        /* \"#utility.yul\":9184:9193   */\n      dup3\n        /* \"#utility.yul\":9180:9198   */\n      add\n        /* \"#utility.yul\":9172:9198   */\n      swap1\n      pop\n        /* \"#utility.yul\":9244:9253   */\n      dup2\n        /* \"#utility.yul\":9238:9242   */\n      dup2\n        /* \"#utility.yul\":9234:9254   */\n      sub\n        /* \"#utility.yul\":9230:9231   */\n      0x00\n        /* \"#utility.yul\":9219:9228   */\n      dup4\n        /* \"#utility.yul\":9215:9232   */\n      add\n        /* \"#utility.yul\":9208:9255   */\n      mstore\n        /* \"#utility.yul\":9272:9403   */\n      tag_261\n        /* \"#utility.yul\":9398:9402   */\n      dup2\n        /* \"#utility.yul\":9272:9403   */\n      tag_145\n      jump\t// in\n    tag_261:\n        /* \"#utility.yul\":9264:9403   */\n      swap1\n      pop\n        /* \"#utility.yul\":8991:9410   */\n      swap2\n      swap1\n      pop\n      jump\t// out\n        /* \"#utility.yul\":9416:9515   */\n    tag_146:\n        /* \"#utility.yul\":9468:9474   */\n      0x00\n        /* \"#utility.yul\":9502:9507   */\n      dup2\n        /* \"#utility.yul\":9496:9508   */\n      mload\n        /* \"#utility.yul\":9486:9508   */\n      swap1\n      pop\n        /* \"#utility.yul\":9416:9515   */\n      swap2\n      swap1\n      pop\n      jump\t// out\n        /* \"#utility.yul\":9521:9669   */\n    tag_147:\n        /* \"#utility.yul\":9623:9634   */\n      0x00\n        /* \"#utility.yul\":9660:9663   */\n      dup2\n        /* \"#utility.yul\":9645:9663   */\n      swap1\n      pop\n        /* \"#utility.yul\":9521:9669   */\n      swap3\n      swap2\n      pop\n      pop\n      jump\t// out\n        /* \"#utility.yul\":9675:9921   */\n    tag_148:\n        /* \"#utility.yul\":9756:9757   */\n      0x00\n        /* \"#utility.yul\":9766:9879   */\n    tag_265:\n        /* \"#utility.yul\":9780:9786   */\n      dup4\n        /* \"#utility.yul\":9777:9778   */\n      dup2\n        /* \"#utility.yul\":9774:9787   */\n      lt\n        /* \"#utility.yul\":9766:9879   */\n      iszero\n      tag_267\n      jumpi\n        /* \"#utility.yul\":9865:9866   */\n      dup1\n        /* \"#utility.yul\":9860:9863   */\n      dup3\n        /* \"#utility.yul\":9856:9867   */\n      add\n        /* \"#utility.yul\":9850:9868   */\n      mload\n        /* \"#utility.yul\":9846:9847   */\n      dup2\n        /* \"#utility.yul\":9841:9844   */\n      dup5\n        /* \"#utility.yul\":9837:9848   */\n      add\n        /* \"#utility.yul\":9830:9869   */\n      mstore\n        /* \"#utility.yul\":9802:9804   */\n      0x20\n        /* \"#utility.yul\":9799:9800   */\n      dup2\n        /* \"#utility.yul\":9795:9805   */\n      add\n        /* \"#utility.yul\":9790:9805   */\n      swap1\n      pop\n        /* \"#utility.yul\":9766:9879   */\n      jump(tag_265)\n    tag_267:\n        /* \"#utility.yul\":9913:9914   */\n      0x00\n        /* \"#utility.yul\":9904:9910   */\n      dup5\n        /* \"#utility.yul\":9899:9902   */\n      dup5\n        /* \"#utility.yul\":9895:9911   */\n      add\n        /* \"#utility.yul\":9888:9915   */\n      mstore\n        /* \"#utility.yul\":9737:9921   */\n      pop\n        /* \"#utility.yul\":9675:9921   */\n      pop\n      pop\n      pop\n      jump\t// out\n        /* \"#utility.yul\":9927:10317   */\n    tag_149:\n        /* \"#utility.yul\":10033:10036   */\n      0x00\n        /* \"#utility.yul\":10061:10100   */\n      tag_269\n        /* \"#utility.yul\":10094:10099   */\n      dup3\n        /* \"#utility.yul\":10061:10100   */\n      tag_146\n      jump\t// in\n    tag_269:\n        /* \"#utility.yul\":10116:10205   */\n      tag_270\n        /* \"#utility.yul\":10198:10204   */\n      dup2\n        /* \"#utility.yul\":10193:10196   */\n      dup6\n        /* \"#utility.yul\":10116:10205   */\n      tag_147\n      jump\t// in\n    tag_270:\n        /* \"#utility.yul\":10109:10205   */\n      swap4\n      pop\n        /* \"#utility.yul\":10214:10279   */\n      tag_271\n        /* \"#utility.yul\":10272:10278   */\n      dup2\n        /* \"#utility.yul\":10267:10270   */\n      dup6\n        /* \"#utility.yul\":10260:10264   */\n      0x20\n        /* \"#utility.yul\":10253:10258   */\n      dup7\n        /* \"#utility.yul\":10249:10265   */\n      add\n        /* \"#utility.yul\":10214:10279   */\n      tag_148\n      jump\t// in\n    tag_271:\n        /* \"#utility.yul\":10304:10310   */\n      dup1\n        /* \"#utility.yul\":10299:10302   */\n      dup5\n        /* \"#utility.yul\":10295:10311   */\n      add\n        /* \"#utility.yul\":10288:10311   */\n      swap2\n      pop\n        /* \"#utility.yul\":10037:10317   */\n      pop\n        /* \"#utility.yul\":9927:10317   */\n      swap3\n      swap2\n      pop\n      pop\n      jump\t// out\n        /* \"#utility.yul\":10323:10598   */\n    tag_43:\n        /* \"#utility.yul\":10455:10458   */\n      0x00\n        /* \"#utility.yul\":10477:10572   */\n      tag_273\n        /* \"#utility.yul\":10568:10571   */\n      dup3\n        /* \"#utility.yul\":10559:10565   */\n      dup5\n        /* \"#utility.yul\":10477:10572   */\n      tag_149\n      jump\t// in\n    tag_273:\n        /* \"#utility.yul\":10470:10572   */\n      swap2\n      pop\n        /* \"#utility.yul\":10589:10592   */\n      dup2\n        /* \"#utility.yul\":10582:10592   */\n      swap1\n      pop\n        /* \"#utility.yul\":10323:10598   */\n      swap3\n      swap2\n      pop\n      pop\n      jump\t// out\n        /* \"#utility.yul\":10604:10775   */\n    tag_150:\n        /* \"#utility.yul\":10744:10767   */\n      0x457363726f7720616c7265616479206578697374730000000000000000000000\n        /* \"#utility.yul\":10740:10741   */\n      0x00\n        /* \"#utility.yul\":10732:10738   */\n      dup3\n        /* \"#utility.yul\":10728:10742   */\n      add\n        /* \"#utility.yul\":10721:10768   */\n      mstore\n        /* \"#utility.yul\":10604:10775   */\n      pop\n      jump\t// out\n        /* \"#utility.yul\":10781:11147   */\n    tag_151:\n        /* \"#utility.yul\":10923:10926   */\n      0x00\n        /* \"#utility.yul\":10944:11011   */\n      tag_276\n        /* \"#utility.yul\":11008:11010   */\n      0x15\n        /* \"#utility.yul\":11003:11006   */\n      dup4\n        /* \"#utility.yul\":10944:11011   */\n      tag_141\n      jump\t// in\n    tag_276:\n        /* \"#utility.yul\":10937:11011   */\n      swap2\n      pop\n        /* \"#utility.yul\":11020:11113   */\n      tag_277\n        /* \"#utility.yul\":11109:11112   */\n      dup3\n        /* \"#utility.yul\":11020:11113   */\n      tag_150\n      jump\t// in\n    tag_277:\n        /* \"#utility.yul\":11138:11140   */\n      0x20\n        /* \"#utility.yul\":11133:11136   */\n      dup3\n        /* \"#utility.yul\":11129:11141   */\n      add\n        /* \"#utility.yul\":11122:11141   */\n      swap1\n      pop\n        /* \"#utility.yul\":10781:11147   */\n      swap2\n      swap1\n      pop\n      jump\t// out\n        /* \"#utility.yul\":11153:11572   */\n    tag_46:\n        /* \"#utility.yul\":11319:11323   */\n      0x00\n        /* \"#utility.yul\":11357:11359   */\n      0x20\n        /* \"#utility.yul\":11346:11355   */\n      dup3\n        /* \"#utility.yul\":11342:11360   */\n      add\n        /* \"#utility.yul\":11334:11360   */\n      swap1\n      pop\n        /* \"#utility.yul\":11406:11415   */\n      dup2\n        /* \"#utility.yul\":11400:11404   */\n      dup2\n        /* \"#utility.yul\":11396:11416   */\n      sub\n        /* \"#utility.yul\":11392:11393   */\n      0x00\n        /* \"#utility.yul\":11381:11390   */\n      dup4\n        /* \"#utility.yul\":11377:11394   */\n      add\n        /* \"#utility.yul\":11370:11417   */\n      mstore\n        /* \"#utility.yul\":11434:11565   */\n      tag_279\n        /* \"#utility.yul\":11560:11564   */\n      dup2\n        /* \"#utility.yul\":11434:11565   */\n      tag_151\n      jump\t// in\n    tag_279:\n        /* \"#utility.yul\":11426:11565   */\n      swap1\n      pop\n        /* \"#utility.yul\":11153:11572   */\n      swap2\n      swap1\n      pop\n      jump\t// out\n        /* \"#utility.yul\":11578:11955   */\n    tag_152:\n        /* \"#utility.yul\":11666:11669   */\n      0x00\n        /* \"#utility.yul\":11694:11733   */\n      tag_281\n        /* \"#utility.yul\":11727:11732   */\n      dup3\n        /* \"#utility.yul\":11694:11733   */\n      tag_146\n      jump\t// in\n    tag_281:\n        /* \"#utility.yul\":11749:11820   */\n      tag_282\n        /* \"#utility.yul\":11813:11819   */\n      dup2\n        /* \"#utility.yul\":11808:11811   */\n      dup6\n        /* \"#utility.yul\":11749:11820   */\n      tag_141\n      jump\t// in\n    tag_282:\n        /* \"#utility.yul\":11742:11820   */\n      swap4\n      pop\n        /* \"#utility.yul\":11829:11894   */\n      tag_283\n        /* \"#utility.yul\":11887:11893   */\n      dup2\n        /* \"#utility.yul\":11882:11885   */\n      dup6\n        /* \"#utility.yul\":11875:11879   */\n      0x20\n        /* \"#utility.yul\":11868:11873   */\n      dup7\n        /* \"#utility.yul\":11864:11880   */\n      add\n        /* \"#utility.yul\":11829:11894   */\n      tag_148\n      jump\t// in\n    tag_283:\n        /* \"#utility.yul\":11919:11948   */\n      tag_284\n        /* \"#utility.yul\":11941:11947   */\n      dup2\n        /* \"#utility.yul\":11919:11948   */\n      tag_120\n      jump\t// in\n    tag_284:\n        /* \"#utility.yul\":11914:11917   */\n      dup5\n        /* \"#utility.yul\":11910:11949   */\n      add\n        /* \"#utility.yul\":11903:11949   */\n      swap2\n      pop\n        /* \"#utility.yul\":11670:11955   */\n      pop\n        /* \"#utility.yul\":11578:11955   */\n      swap3\n      swap2\n      pop\n      pop\n      jump\t// out\n        /* \"#utility.yul\":11961:12274   */\n    tag_54:\n        /* \"#utility.yul\":12074:12078   */\n      0x00\n        /* \"#utility.yul\":12112:12114   */\n      0x20\n        /* \"#utility.yul\":12101:12110   */\n      dup3\n        /* \"#utility.yul\":12097:12115   */\n      add\n        /* \"#utility.yul\":12089:12115   */\n      swap1\n      pop\n        /* \"#utility.yul\":12161:12170   */\n      dup2\n        /* \"#utility.yul\":12155:12159   */\n      dup2\n        /* \"#utility.yul\":12151:12171   */\n      sub\n        /* \"#utility.yul\":12147:12148   */\n      0x00\n        /* \"#utility.yul\":12136:12145   */\n      dup4\n        /* \"#utility.yul\":12132:12149   */\n      add\n        /* \"#utility.yul\":12125:12172   */\n      mstore\n        /* \"#utility.yul\":12189:12267   */\n      tag_286\n        /* \"#utility.yul\":12262:12266   */\n      dup2\n        /* \"#utility.yul\":12253:12259   */\n      dup5\n        /* \"#utility.yul\":12189:12267   */\n      tag_152\n      jump\t// in\n    tag_286:\n        /* \"#utility.yul\":12181:12267   */\n      swap1\n      pop\n        /* \"#utility.yul\":11961:12274   */\n      swap3\n      swap2\n      pop\n      pop\n      jump\t// out\n        /* \"#utility.yul\":12280:12434   */\n    tag_153:\n        /* \"#utility.yul\":12420:12426   */\n      0x6530323000000000000000000000000000000000000000000000000000000000\n        /* \"#utility.yul\":12416:12417   */\n      0x00\n        /* \"#utility.yul\":12408:12414   */\n      dup3\n        /* \"#utility.yul\":12404:12418   */\n      add\n        /* \"#utility.yul\":12397:12427   */\n      mstore\n        /* \"#utility.yul\":12280:12434   */\n      pop\n      jump\t// out\n        /* \"#utility.yul\":12440:12805   */\n    tag_154:\n        /* \"#utility.yul\":12582:12585   */\n      0x00\n        /* \"#utility.yul\":12603:12669   */\n      tag_289\n        /* \"#utility.yul\":12667:12668   */\n      0x04\n        /* \"#utility.yul\":12662:12665   */\n      dup4\n        /* \"#utility.yul\":12603:12669   */\n      tag_141\n      jump\t// in\n    tag_289:\n        /* \"#utility.yul\":12596:12669   */\n      swap2\n      pop\n        /* \"#utility.yul\":12678:12771   */\n      tag_290\n        /* \"#utility.yul\":12767:12770   */\n      dup3\n        /* \"#utility.yul\":12678:12771   */\n      tag_153\n      jump\t// in\n    tag_290:\n        /* \"#utility.yul\":12796:12798   */\n      0x20\n        /* \"#utility.yul\":12791:12794   */\n      dup3\n        /* \"#utility.yul\":12787:12799   */\n      add\n        /* \"#utility.yul\":12780:12799   */\n      swap1\n      pop\n        /* \"#utility.yul\":12440:12805   */\n      swap2\n      swap1\n      pop\n      jump\t// out\n        /* \"#utility.yul\":12811:13230   */\n    tag_61:\n        /* \"#utility.yul\":12977:12981   */\n      0x00\n        /* \"#utility.yul\":13015:13017   */\n      0x20\n        /* \"#utility.yul\":13004:13013   */\n      dup3\n        /* \"#utility.yul\":13000:13018   */\n      add\n        /* \"#utility.yul\":12992:13018   */\n      swap1\n      pop\n        /* \"#utility.yul\":13064:13073   */\n      dup2\n        /* \"#utility.yul\":13058:13062   */\n      dup2\n        /* \"#utility.yul\":13054:13074   */\n      sub\n        /* \"#utility.yul\":13050:13051   */\n      0x00\n        /* \"#utility.yul\":13039:13048   */\n      dup4\n        /* \"#utility.yul\":13035:13052   */\n      add\n        /* \"#utility.yul\":13028:13075   */\n      mstore\n        /* \"#utility.yul\":13092:13223   */\n      tag_292\n        /* \"#utility.yul\":13218:13222   */\n      dup2\n        /* \"#utility.yul\":13092:13223   */\n      tag_154\n      jump\t// in\n    tag_292:\n        /* \"#utility.yul\":13084:13223   */\n      swap1\n      pop\n        /* \"#utility.yul\":12811:13230   */\n      swap2\n      swap1\n      pop\n      jump\t// out\n        /* \"#utility.yul\":13236:13390   */\n    tag_155:\n        /* \"#utility.yul\":13376:13382   */\n      0x6530323100000000000000000000000000000000000000000000000000000000\n        /* \"#utility.yul\":13372:13373   */\n      0x00\n        /* \"#utility.yul\":13364:13370   */\n      dup3\n        /* \"#utility.yul\":13360:13374   */\n      add\n        /* \"#utility.yul\":13353:13383   */\n      mstore\n        /* \"#utility.yul\":13236:13390   */\n      pop\n      jump\t// out\n        /* \"#utility.yul\":13396:13761   */\n    tag_156:\n        /* \"#utility.yul\":13538:13541   */\n      0x00\n        /* \"#utility.yul\":13559:13625   */\n      tag_295\n        /* \"#utility.yul\":13623:13624   */\n      0x04\n        /* \"#utility.yul\":13618:13621   */\n      dup4\n        /* \"#utility.yul\":13559:13625   */\n      tag_141\n      jump\t// in\n    tag_295:\n        /* \"#utility.yul\":13552:13625   */\n      swap2\n      pop\n        /* \"#utility.yul\":13634:13727   */\n      tag_296\n        /* \"#utility.yul\":13723:13726   */\n      dup3\n        /* \"#utility.yul\":13634:13727   */\n      tag_155\n      jump\t// in\n    tag_296:\n        /* \"#utility.yul\":13752:13754   */\n      0x20\n        /* \"#utility.yul\":13747:13750   */\n      dup3\n        /* \"#utility.yul\":13743:13755   */\n      add\n        /* \"#utility.yul\":13736:13755   */\n      swap1\n      pop\n        /* \"#utility.yul\":13396:13761   */\n      swap2\n      swap1\n      pop\n      jump\t// out\n        /* \"#utility.yul\":13767:14186   */\n    tag_69:\n        /* \"#utility.yul\":13933:13937   */\n      0x00\n        /* \"#utility.yul\":13971:13973   */\n      0x20\n        /* \"#utility.yul\":13960:13969   */\n      dup3\n        /* \"#utility.yul\":13956:13974   */\n      add\n        /* \"#utility.yul\":13948:13974   */\n      swap1\n      pop\n        /* \"#utility.yul\":14020:14029   */\n      dup2\n        /* \"#utility.yul\":14014:14018   */\n      dup2\n        /* \"#utility.yul\":14010:14030   */\n      sub\n        /* \"#utility.yul\":14006:14007   */\n      0x00\n        /* \"#utility.yul\":13995:14004   */\n      dup4\n        /* \"#utility.yul\":13991:14008   */\n      add\n        /* \"#utility.yul\":13984:14031   */\n      mstore\n        /* \"#utility.yul\":14048:14179   */\n      tag_298\n        /* \"#utility.yul\":14174:14178   */\n      dup2\n        /* \"#utility.yul\":14048:14179   */\n      tag_156\n      jump\t// in\n    tag_298:\n        /* \"#utility.yul\":14040:14179   */\n      swap1\n      pop\n        /* \"#utility.yul\":13767:14186   */\n      swap2\n      swap1\n      pop\n      jump\t// out\n        /* \"#utility.yul\":14192:14346   */\n    tag_157:\n        /* \"#utility.yul\":14332:14338   */\n      0x6530323400000000000000000000000000000000000000000000000000000000\n        /* \"#utility.yul\":14328:14329   */\n      0x00\n        /* \"#utility.yul\":14320:14326   */\n      dup3\n        /* \"#utility.yul\":14316:14330   */\n      add\n        /* \"#utility.yul\":14309:14339   */\n      mstore\n        /* \"#utility.yul\":14192:14346   */\n      pop\n      jump\t// out\n        /* \"#utility.yul\":14352:14717   */\n    tag_158:\n        /* \"#utility.yul\":14494:14497   */\n      0x00\n        /* \"#utility.yul\":14515:14581   */\n      tag_301\n        /* \"#utility.yul\":14579:14580   */\n      0x04\n        /* \"#utility.yul\":14574:14577   */\n      dup4\n        /* \"#utility.yul\":14515:14581   */\n      tag_141\n      jump\t// in\n    tag_301:\n        /* \"#utility.yul\":14508:14581   */\n      swap2\n      pop\n        /* \"#utility.yul\":14590:14683   */\n      tag_302\n        /* \"#utility.yul\":14679:14682   */\n      dup3\n        /* \"#utility.yul\":14590:14683   */\n      tag_157\n      jump\t// in\n    tag_302:\n        /* \"#utility.yul\":14708:14710   */\n      0x20\n        /* \"#utility.yul\":14703:14706   */\n      dup3\n        /* \"#utility.yul\":14699:14711   */\n      add\n        /* \"#utility.yul\":14692:14711   */\n      swap1\n      pop\n        /* \"#utility.yul\":14352:14717   */\n      swap2\n      swap1\n      pop\n      jump\t// out\n        /* \"#utility.yul\":14723:15142   */\n    tag_81:\n        /* \"#utility.yul\":14889:14893   */\n      0x00\n        /* \"#utility.yul\":14927:14929   */\n      0x20\n        /* \"#utility.yul\":14916:14925   */\n      dup3\n        /* \"#utility.yul\":14912:14930   */\n      add\n        /* \"#utility.yul\":14904:14930   */\n      swap1\n      pop\n        /* \"#utility.yul\":14976:14985   */\n      dup2\n        /* \"#utility.yul\":14970:14974   */\n      dup2\n        /* \"#utility.yul\":14966:14986   */\n      sub\n        /* \"#utility.yul\":14962:14963   */\n      0x00\n        /* \"#utility.yul\":14951:14960   */\n      dup4\n        /* \"#utility.yul\":14947:14964   */\n      add\n        /* \"#utility.yul\":14940:14987   */\n      mstore\n        /* \"#utility.yul\":15004:15135   */\n      tag_304\n        /* \"#utility.yul\":15130:15134   */\n      dup2\n        /* \"#utility.yul\":15004:15135   */\n      tag_158\n      jump\t// in\n    tag_304:\n        /* \"#utility.yul\":14996:15135   */\n      swap1\n      pop\n        /* \"#utility.yul\":14723:15142   */\n      swap2\n      swap1\n      pop\n      jump\t// out\n        /* \"#utility.yul\":15148:15302   */\n    tag_159:\n        /* \"#utility.yul\":15288:15294   */\n      0x6530313300000000000000000000000000000000000000000000000000000000\n        /* \"#utility.yul\":15284:15285   */\n      0x00\n        /* \"#utility.yul\":15276:15282   */\n      dup3\n        /* \"#utility.yul\":15272:15286   */\n      add\n        /* \"#utility.yul\":15265:15295   */\n      mstore\n        /* \"#utility.yul\":15148:15302   */\n      pop\n      jump\t// out\n        /* \"#utility.yul\":15308:15673   */\n    tag_160:\n        /* \"#utility.yul\":15450:15453   */\n      0x00\n        /* \"#utility.yul\":15471:15537   */\n      tag_307\n        /* \"#utility.yul\":15535:15536   */\n      0x04\n        /* \"#utility.yul\":15530:15533   */\n      dup4\n        /* \"#utility.yul\":15471:15537   */\n      tag_141\n      jump\t// in\n    tag_307:\n        /* \"#utility.yul\":15464:15537   */\n      swap2\n      pop\n        /* \"#utility.yul\":15546:15639   */\n      tag_308\n        /* \"#utility.yul\":15635:15638   */\n      dup3\n        /* \"#utility.yul\":15546:15639   */\n      tag_159\n      jump\t// in\n    tag_308:\n        /* \"#utility.yul\":15664:15666   */\n      0x20\n        /* \"#utility.yul\":15659:15662   */\n      dup3\n        /* \"#utility.yul\":15655:15667   */\n      add\n        /* \"#utility.yul\":15648:15667   */\n      swap1\n      pop\n        /* \"#utility.yul\":15308:15673   */\n      swap2\n      swap1\n      pop\n      jump\t// out\n        /* \"#utility.yul\":15679:16098   */\n    tag_89:\n        /* \"#utility.yul\":15845:15849   */\n      0x00\n        /* \"#utility.yul\":15883:15885   */\n      0x20\n        /* \"#utility.yul\":15872:15881   */\n      dup3\n        /* \"#utility.yul\":15868:15886   */\n      add\n        /* \"#utility.yul\":15860:15886   */\n      swap1\n      pop\n        /* \"#utility.yul\":15932:15941   */\n      dup2\n        /* \"#utility.yul\":15926:15930   */\n      dup2\n        /* \"#utility.yul\":15922:15942   */\n      sub\n        /* \"#utility.yul\":15918:15919   */\n      0x00\n        /* \"#utility.yul\":15907:15916   */\n      dup4\n        /* \"#utility.yul\":15903:15920   */\n      add\n        /* \"#utility.yul\":15896:15943   */\n      mstore\n        /* \"#utility.yul\":15960:16091   */\n      tag_310\n        /* \"#utility.yul\":16086:16090   */\n      dup2\n        /* \"#utility.yul\":15960:16091   */\n      tag_160\n      jump\t// in\n    tag_310:\n        /* \"#utility.yul\":15952:16091   */\n      swap1\n      pop\n        /* \"#utility.yul\":15679:16098   */\n      swap2\n      swap1\n      pop\n      jump\t// out\n        /* \"#utility.yul\":16104:16258   */\n    tag_161:\n        /* \"#utility.yul\":16244:16250   */\n      0x6530323200000000000000000000000000000000000000000000000000000000\n        /* \"#utility.yul\":16240:16241   */\n      0x00\n        /* \"#utility.yul\":16232:16238   */\n      dup3\n        /* \"#utility.yul\":16228:16242   */\n      add\n        /* \"#utility.yul\":16221:16251   */\n      mstore\n        /* \"#utility.yul\":16104:16258   */\n      pop\n      jump\t// out\n        /* \"#utility.yul\":16264:16629   */\n    tag_162:\n        /* \"#utility.yul\":16406:16409   */\n      0x00\n        /* \"#utility.yul\":16427:16493   */\n      tag_313\n        /* \"#utility.yul\":16491:16492   */\n      0x04\n        /* \"#utility.yul\":16486:16489   */\n      dup4\n        /* \"#utility.yul\":16427:16493   */\n      tag_141\n      jump\t// in\n    tag_313:\n        /* \"#utility.yul\":16420:16493   */\n      swap2\n      pop\n        /* \"#utility.yul\":16502:16595   */\n      tag_314\n        /* \"#utility.yul\":16591:16594   */\n      dup3\n        /* \"#utility.yul\":16502:16595   */\n      tag_161\n      jump\t// in\n    tag_314:\n        /* \"#utility.yul\":16620:16622   */\n      0x20\n        /* \"#utility.yul\":16615:16618   */\n      dup3\n        /* \"#utility.yul\":16611:16623   */\n      add\n        /* \"#utility.yul\":16604:16623   */\n      swap1\n      pop\n        /* \"#utility.yul\":16264:16629   */\n      swap2\n      swap1\n      pop\n      jump\t// out\n        /* \"#utility.yul\":16635:17054   */\n    tag_103:\n        /* \"#utility.yul\":16801:16805   */\n      0x00\n        /* \"#utility.yul\":16839:16841   */\n      0x20\n        /* \"#utility.yul\":16828:16837   */\n      dup3\n        /* \"#utility.yul\":16824:16842   */\n      add\n        /* \"#utility.yul\":16816:16842   */\n      swap1\n      pop\n        /* \"#utility.yul\":16888:16897   */\n      dup2\n        /* \"#utility.yul\":16882:16886   */\n      dup2\n        /* \"#utility.yul\":16878:16898   */\n      sub\n        /* \"#utility.yul\":16874:16875   */\n      0x00\n        /* \"#utility.yul\":16863:16872   */\n      dup4\n        /* \"#utility.yul\":16859:16876   */\n      add\n        /* \"#utility.yul\":16852:16899   */\n      mstore\n        /* \"#utility.yul\":16916:17047   */\n      tag_316\n        /* \"#utility.yul\":17042:17046   */\n      dup2\n        /* \"#utility.yul\":16916:17047   */\n      tag_162\n      jump\t// in\n    tag_316:\n        /* \"#utility.yul\":16908:17047   */\n      swap1\n      pop\n        /* \"#utility.yul\":16635:17054   */\n      swap2\n      swap1\n      pop\n      jump\t// out\n        /* \"#utility.yul\":17060:17240   */\n    tag_163:\n        /* \"#utility.yul\":17108:17185   */\n      0x4e487b7100000000000000000000000000000000000000000000000000000000\n        /* \"#utility.yul\":17105:17106   */\n      0x00\n        /* \"#utility.yul\":17098:17186   */\n      mstore\n        /* \"#utility.yul\":17205:17209   */\n      0x12\n        /* \"#utility.yul\":17202:17203   */\n      0x04\n        /* \"#utility.yul\":17195:17210   */\n      mstore\n        /* \"#utility.yul\":17229:17233   */\n      0x24\n        /* \"#utility.yul\":17226:17227   */\n      0x00\n        /* \"#utility.yul\":17219:17234   */\n      revert\n        /* \"#utility.yul\":17246:17426   */\n    tag_164:\n        /* \"#utility.yul\":17294:17371   */\n      0x4e487b7100000000000000000000000000000000000000000000000000000000\n        /* \"#utility.yul\":17291:17292   */\n      0x00\n        /* \"#utility.yul\":17284:17372   */\n      mstore\n        /* \"#utility.yul\":17391:17395   */\n      0x11\n        /* \"#utility.yul\":17388:17389   */\n      0x04\n        /* \"#utility.yul\":17381:17396   */\n      mstore\n        /* \"#utility.yul\":17415:17419   */\n      0x24\n        /* \"#utility.yul\":17412:17413   */\n      0x00\n        /* \"#utility.yul\":17405:17420   */\n      revert\n        /* \"#utility.yul\":17432:17617   */\n    tag_106:\n        /* \"#utility.yul\":17472:17473   */\n      0x00\n        /* \"#utility.yul\":17489:17509   */\n      tag_320\n        /* \"#utility.yul\":17507:17508   */\n      dup3\n        /* \"#utility.yul\":17489:17509   */\n      tag_131\n      jump\t// in\n    tag_320:\n        /* \"#utility.yul\":17484:17509   */\n      swap2\n      pop\n        /* \"#utility.yul\":17523:17543   */\n      tag_321\n        /* \"#utility.yul\":17541:17542   */\n      dup4\n        /* \"#utility.yul\":17523:17543   */\n      tag_131\n      jump\t// in\n    tag_321:\n        /* \"#utility.yul\":17518:17543   */\n      swap3\n      pop\n        /* \"#utility.yul\":17562:17563   */\n      dup3\n        /* \"#utility.yul\":17552:17587   */\n      tag_322\n      jumpi\n        /* \"#utility.yul\":17567:17585   */\n      tag_323\n      tag_163\n      jump\t// in\n    tag_323:\n        /* \"#utility.yul\":17552:17587   */\n    tag_322:\n        /* \"#utility.yul\":17609:17610   */\n      dup3\n        /* \"#utility.yul\":17606:17607   */\n      dup3\n        /* \"#utility.yul\":17602:17611   */\n      div\n        /* \"#utility.yul\":17597:17611   */\n      swap1\n      pop\n        /* \"#utility.yul\":17432:17617   */\n      swap3\n      swap2\n      pop\n      pop\n      jump\t// out\n        /* \"#utility.yul\":17623:17817   */\n    tag_108:\n        /* \"#utility.yul\":17663:17667   */\n      0x00\n        /* \"#utility.yul\":17683:17703   */\n      tag_325\n        /* \"#utility.yul\":17701:17702   */\n      dup3\n        /* \"#utility.yul\":17683:17703   */\n      tag_131\n      jump\t// in\n    tag_325:\n        /* \"#utility.yul\":17678:17703   */\n      swap2\n      pop\n        /* \"#utility.yul\":17717:17737   */\n      tag_326\n        /* \"#utility.yul\":17735:17736   */\n      dup4\n        /* \"#utility.yul\":17717:17737   */\n      tag_131\n      jump\t// in\n    tag_326:\n        /* \"#utility.yul\":17712:17737   */\n      swap3\n      pop\n        /* \"#utility.yul\":17761:17762   */\n      dup3\n        /* \"#utility.yul\":17758:17759   */\n      dup3\n        /* \"#utility.yul\":17754:17763   */\n      sub\n        /* \"#utility.yul\":17746:17763   */\n      swap1\n      pop\n        /* \"#utility.yul\":17785:17786   */\n      dup2\n        /* \"#utility.yul\":17779:17783   */\n      dup2\n        /* \"#utility.yul\":17776:17787   */\n      gt\n        /* \"#utility.yul\":17773:17810   */\n      iszero\n      tag_327\n      jumpi\n        /* \"#utility.yul\":17790:17808   */\n      tag_328\n      tag_164\n      jump\t// in\n    tag_328:\n        /* \"#utility.yul\":17773:17810   */\n    tag_327:\n        /* \"#utility.yul\":17623:17817   */\n      swap3\n      swap2\n      pop\n      pop\n      jump\t// out\n        /* \"#utility.yul\":17823:18356   */\n    tag_114:\n        /* \"#utility.yul\":17992:17996   */\n      0x00\n        /* \"#utility.yul\":18030:18032   */\n      0x60\n        /* \"#utility.yul\":18019:18028   */\n      dup3\n        /* \"#utility.yul\":18015:18033   */\n      add\n        /* \"#utility.yul\":18007:18033   */\n      swap1\n      pop\n        /* \"#utility.yul\":18079:18088   */\n      dup2\n        /* \"#utility.yul\":18073:18077   */\n      dup2\n        /* \"#utility.yul\":18069:18089   */\n      sub\n        /* \"#utility.yul\":18065:18066   */\n      0x00\n        /* \"#utility.yul\":18054:18063   */\n      dup4\n        /* \"#utility.yul\":18050:18067   */\n      add\n        /* \"#utility.yul\":18043:18090   */\n      mstore\n        /* \"#utility.yul\":18107:18185   */\n      tag_330\n        /* \"#utility.yul\":18180:18184   */\n      dup2\n        /* \"#utility.yul\":18171:18177   */\n      dup7\n        /* \"#utility.yul\":18107:18185   */\n      tag_152\n      jump\t// in\n    tag_330:\n        /* \"#utility.yul\":18099:18185   */\n      swap1\n      pop\n        /* \"#utility.yul\":18195:18267   */\n      tag_331\n        /* \"#utility.yul\":18263:18265   */\n      0x20\n        /* \"#utility.yul\":18252:18261   */\n      dup4\n        /* \"#utility.yul\":18248:18266   */\n      add\n        /* \"#utility.yul\":18239:18245   */\n      dup6\n        /* \"#utility.yul\":18195:18267   */\n      tag_132\n      jump\t// in\n    tag_331:\n        /* \"#utility.yul\":18277:18349   */\n      tag_332\n        /* \"#utility.yul\":18345:18347   */\n      0x40\n        /* \"#utility.yul\":18334:18343   */\n      dup4\n        /* \"#utility.yul\":18330:18348   */\n      add\n        /* \"#utility.yul\":18321:18327   */\n      dup5\n        /* \"#utility.yul\":18277:18349   */\n      tag_132\n      jump\t// in\n    tag_332:\n        /* \"#utility.yul\":17823:18356   */\n      swap5\n      swap4\n      pop\n      pop\n      pop\n      pop\n      jump\t// out\n\n    auxdata: 0xa26469706673582212202ceb096de80f9c1ce97047ea267869f1545cbe3ea14564335f4692edb90501b664736f6c63430008140033\n}\n",
				"bytecode": {
					"linkReferences": {},
					"object": "608060405234801561000f575f80fd5b506115ab8061001d5f395ff3fe60806040526004361061004d575f3560e01c80635cc9f864146100585780635ddde39b146100995780636ad09452146100b5578063928dbc87146100f1578063aa950fda1461011957610054565b3661005457005b5f80fd5b348015610063575f80fd5b5061007e60048036038101906100799190610dd0565b610141565b60405161009096959493929190610ee1565b60405180910390f35b6100b360048036038101906100ae9190610f94565b610218565b005b3480156100c0575f80fd5b506100db60048036038101906100d69190610dd0565b6105ba565b6040516100e89190611039565b60405180910390f35b3480156100fc575f80fd5b5061011760048036038101906101129190610dd0565b6105ef565b005b348015610124575f80fd5b5061013f600480360381019061013a9190610dd0565b610810565b005b5f818051602081018201805184825260208301602085012081835280955050505050505f91509050805f015f9054906101000a900473ffffffffffffffffffffffffffffffffffffffff1690806001015f9054906101000a900473ffffffffffffffffffffffffffffffffffffffff1690806002015f9054906101000a900473ffffffffffffffffffffffffffffffffffffffff1690806003015f9054906101000a900473ffffffffffffffffffffffffffffffffffffffff1690806004015490806005015f9054906101000a900460ff16905086565b8034101561025b576040517f08c379a0000000000000000000000000000000000000000000000000000000008152600401610252906110ac565b60405180910390fd5b8473ffffffffffffffffffffffffffffffffffffffff163373ffffffffffffffffffffffffffffffffffffffff16146102c9576040517f08c379a00000000000000000000000000000000000000000000000000000000081526004016102c090611114565b60405180910390fd5b5f73ffffffffffffffffffffffffffffffffffffffff165f876040516102ef919061119e565b90815260200160405180910390205f015f9054906101000a900473ffffffffffffffffffffffffffffffffffffffff1673ffffffffffffffffffffffffffffffffffffffff1614610375576040517f08c379a000000000000000000000000000000000000000000000000000000000815260040161036c906111fe565b60405180910390fd5b6040518060c001604052808673ffffffffffffffffffffffffffffffffffffffff1681526020018573ffffffffffffffffffffffffffffffffffffffff1681526020018473ffffffffffffffffffffffffffffffffffffffff1681526020018373ffffffffffffffffffffffffffffffffffffffff1681526020018281526020015f600281111561040957610408610e6e565b5b8152505f8760405161041b919061119e565b90815260200160405180910390205f820151815f015f6101000a81548173ffffffffffffffffffffffffffffffffffffffff021916908373ffffffffffffffffffffffffffffffffffffffff1602179055506020820151816001015f6101000a81548173ffffffffffffffffffffffffffffffffffffffff021916908373ffffffffffffffffffffffffffffffffffffffff1602179055506040820151816002015f6101000a81548173ffffffffffffffffffffffffffffffffffffffff021916908373ffffffffffffffffffffffffffffffffffffffff1602179055506060820151816003015f6101000a81548173ffffffffffffffffffffffffffffffffffffffff021916908373ffffffffffffffffffffffffffffffffffffffff1602179055506080820151816004015560a0820151816005015f6101000a81548160ff0219169083600281111561057357610572610e6e565b5b02179055509050507f8bb98c86fca17d1296e36d0d27879826f874ae77e12c0223f7dec6de6d4c0be5866040516105aa9190611254565b60405180910390a1505050505050565b5f80826040516105ca919061119e565b90815260200160405180910390206005015f9054906101000a900460ff169050919050565b5f816040516105fe919061119e565b90815260200160405180910390206003015f9054906101000a900473ffffffffffffffffffffffffffffffffffffffff1673ffffffffffffffffffffffffffffffffffffffff163373ffffffffffffffffffffffffffffffffffffffff161461069c576040517f08c379a0000000000000000000000000000000000000000000000000000000008152600401610693906112be565b60405180910390fd5b600160028111156106b0576106af610e6e565b5b5f826040516106bf919061119e565b90815260200160405180910390206005015f9054906101000a900460ff1660028111156106ef576106ee610e6e565b5b1461072f576040517f08c379a000000000000000000000000000000000000000000000000000000000815260040161072690611326565b60405180910390fd5b60025f82604051610740919061119e565b90815260200160405180910390206005015f6101000a81548160ff0219169083600281111561077257610771610e6e565b5b02179055505f81604051610786919061119e565b90815260200160405180910390206003015f9054906101000a900473ffffffffffffffffffffffffffffffffffffffff1673ffffffffffffffffffffffffffffffffffffffff167fb4d5032b4809916079d3598ce54492b098275524f242225bdddd2fd64e09e372826040516107fc9190611254565b60405180910390a261080d81610a27565b50565b5f8160405161081f919061119e565b90815260200160405180910390206003015f9054906101000a900473ffffffffffffffffffffffffffffffffffffffff1673ffffffffffffffffffffffffffffffffffffffff163373ffffffffffffffffffffffffffffffffffffffff16146108bd576040517f08c379a00000000000000000000000000000000000000000000000000000000081526004016108b49061138e565b60405180910390fd5b5f60028111156108d0576108cf610e6e565b5b5f826040516108df919061119e565b90815260200160405180910390206005015f9054906101000a900460ff16600281111561090f5761090e610e6e565b5b1461094f576040517f08c379a0000000000000000000000000000000000000000000000000000000008152600401610946906113f6565b60405180910390fd5b60015f82604051610960919061119e565b90815260200160405180910390206005015f6101000a81548160ff0219169083600281111561099257610991610e6e565b5b02179055505f816040516109a6919061119e565b90815260200160405180910390206002015f9054906101000a900473ffffffffffffffffffffffffffffffffffffffff1673ffffffffffffffffffffffffffffffffffffffff167f0aea8e6e8c89ab3245147625734c071eeedaebe6eea64786e83d672cae6af44082604051610a1c9190611254565b60405180910390a250565b600280811115610a3a57610a39610e6e565b5b5f82604051610a49919061119e565b90815260200160405180910390206005015f9054906101000a900460ff166002811115610a7957610a78610e6e565b5b14610ab9576040517f08c379a0000000000000000000000000000000000000000000000000000000008152600401610ab09061145e565b60405180910390fd5b5f8082604051610ac9919061119e565b908152602001604051809103902090505f600a8260040154610aeb91906114d6565b90505f818360040154610afe9190611506565b9050826003015f9054906101000a900473ffffffffffffffffffffffffffffffffffffffff1673ffffffffffffffffffffffffffffffffffffffff166108fc8390811502906040515f60405180830381858888f19350505050158015610b66573d5f803e3d5ffd5b50826001015f9054906101000a900473ffffffffffffffffffffffffffffffffffffffff1673ffffffffffffffffffffffffffffffffffffffff166108fc8290811502906040515f60405180830381858888f19350505050158015610bcd573d5f803e3d5ffd5b50826001015f9054906101000a900473ffffffffffffffffffffffffffffffffffffffff1673ffffffffffffffffffffffffffffffffffffffff16836003015f9054906101000a900473ffffffffffffffffffffffffffffffffffffffff1673ffffffffffffffffffffffffffffffffffffffff167f3e5a95c072b7c6fa3c73432c8c663074bcf5d61c2a4b29225d5e17e99ddf46fd868585604051610c7593929190611539565b60405180910390a350505050565b5f604051905090565b5f80fd5b5f80fd5b5f80fd5b5f80fd5b5f601f19601f8301169050919050565b7f4e487b71000000000000000000000000000000000000000000000000000000005f52604160045260245ffd5b610ce282610c9c565b810181811067ffffffffffffffff82111715610d0157610d00610cac565b5b80604052505050565b5f610d13610c83565b9050610d1f8282610cd9565b919050565b5f67ffffffffffffffff821115610d3e57610d3d610cac565b5b610d4782610c9c565b9050602081019050919050565b828183375f83830152505050565b5f610d74610d6f84610d24565b610d0a565b905082815260208101848484011115610d9057610d8f610c98565b5b610d9b848285610d54565b509392505050565b5f82601f830112610db757610db6610c94565b5b8135610dc7848260208601610d62565b91505092915050565b5f60208284031215610de557610de4610c8c565b5b5f82013567ffffffffffffffff811115610e0257610e01610c90565b5b610e0e84828501610da3565b91505092915050565b5f73ffffffffffffffffffffffffffffffffffffffff82169050919050565b5f610e4082610e17565b9050919050565b610e5081610e36565b82525050565b5f819050919050565b610e6881610e56565b82525050565b7f4e487b71000000000000000000000000000000000000000000000000000000005f52602160045260245ffd5b60038110610eac57610eab610e6e565b5b50565b5f819050610ebc82610e9b565b919050565b5f610ecb82610eaf565b9050919050565b610edb81610ec1565b82525050565b5f60c082019050610ef45f830189610e47565b610f016020830188610e47565b610f0e6040830187610e47565b610f1b6060830186610e47565b610f286080830185610e5f565b610f3560a0830184610ed2565b979650505050505050565b610f4981610e36565b8114610f53575f80fd5b50565b5f81359050610f6481610f40565b92915050565b610f7381610e56565b8114610f7d575f80fd5b50565b5f81359050610f8e81610f6a565b92915050565b5f805f805f8060c08789031215610fae57610fad610c8c565b5b5f87013567ffffffffffffffff811115610fcb57610fca610c90565b5b610fd789828a01610da3565b9650506020610fe889828a01610f56565b9550506040610ff989828a01610f56565b945050606061100a89828a01610f56565b935050608061101b89828a01610f56565b92505060a061102c89828a01610f80565b9150509295509295509295565b5f60208201905061104c5f830184610ed2565b92915050565b5f82825260208201905092915050565b7f65303032000000000000000000000000000000000000000000000000000000005f82015250565b5f611096600483611052565b91506110a182611062565b602082019050919050565b5f6020820190508181035f8301526110c38161108a565b9050919050565b7f65303033000000000000000000000000000000000000000000000000000000005f82015250565b5f6110fe600483611052565b9150611109826110ca565b602082019050919050565b5f6020820190508181035f83015261112b816110f2565b9050919050565b5f81519050919050565b5f81905092915050565b5f5b83811015611163578082015181840152602081019050611148565b5f8484015250505050565b5f61117882611132565b611182818561113c565b9350611192818560208601611146565b80840191505092915050565b5f6111a9828461116e565b915081905092915050565b7f457363726f7720616c72656164792065786973747300000000000000000000005f82015250565b5f6111e8601583611052565b91506111f3826111b4565b602082019050919050565b5f6020820190508181035f830152611215816111dc565b9050919050565b5f61122682611132565b6112308185611052565b9350611240818560208601611146565b61124981610c9c565b840191505092915050565b5f6020820190508181035f83015261126c818461121c565b905092915050565b7f65303230000000000000000000000000000000000000000000000000000000005f82015250565b5f6112a8600483611052565b91506112b382611274565b602082019050919050565b5f6020820190508181035f8301526112d58161129c565b9050919050565b7f65303231000000000000000000000000000000000000000000000000000000005f82015250565b5f611310600483611052565b915061131b826112dc565b602082019050919050565b5f6020820190508181035f83015261133d81611304565b9050919050565b7f65303234000000000000000000000000000000000000000000000000000000005f82015250565b5f611378600483611052565b915061138382611344565b602082019050919050565b5f6020820190508181035f8301526113a58161136c565b9050919050565b7f65303133000000000000000000000000000000000000000000000000000000005f82015250565b5f6113e0600483611052565b91506113eb826113ac565b602082019050919050565b5f6020820190508181035f83015261140d816113d4565b9050919050565b7f65303232000000000000000000000000000000000000000000000000000000005f82015250565b5f611448600483611052565b915061145382611414565b602082019050919050565b5f6020820190508181035f8301526114758161143c565b9050919050565b7f4e487b71000000000000000000000000000000000000000000000000000000005f52601260045260245ffd5b7f4e487b71000000000000000000000000000000000000000000000000000000005f52601160045260245ffd5b5f6114e082610e56565b91506114eb83610e56565b9250826114fb576114fa61147c565b5b828204905092915050565b5f61151082610e56565b915061151b83610e56565b9250828203905081811115611533576115326114a9565b5b92915050565b5f6060820190508181035f830152611551818661121c565b90506115606020830185610e5f565b61156d6040830184610e5f565b94935050505056fea26469706673582212202ceb096de80f9c1ce97047ea267869f1545cbe3ea14564335f4692edb90501b664736f6c63430008140033",
					"opcodes": "PUSH1 0x80 PUSH1 0x40 MSTORE CALLVALUE DUP1 ISZERO PUSH2 0xF JUMPI PUSH0 DUP1 REVERT JUMPDEST POP PUSH2 0x15AB DUP1 PUSH2 0x1D PUSH0 CODECOPY PUSH0 RETURN INVALID PUSH1 0x80 PUSH1 0x40 MSTORE PUSH1 0x4 CALLDATASIZE LT PUSH2 0x4D JUMPI PUSH0 CALLDATALOAD PUSH1 0xE0 SHR DUP1 PUSH4 0x5CC9F864 EQ PUSH2 0x58 JUMPI DUP1 PUSH4 0x5DDDE39B EQ PUSH2 0x99 JUMPI DUP1 PUSH4 0x6AD09452 EQ PUSH2 0xB5 JUMPI DUP1 PUSH4 0x928DBC87 EQ PUSH2 0xF1 JUMPI DUP1 PUSH4 0xAA950FDA EQ PUSH2 0x119 JUMPI PUSH2 0x54 JUMP JUMPDEST CALLDATASIZE PUSH2 0x54 JUMPI STOP JUMPDEST PUSH0 DUP1 REVERT JUMPDEST CALLVALUE DUP1 ISZERO PUSH2 0x63 JUMPI PUSH0 DUP1 REVERT JUMPDEST POP PUSH2 0x7E PUSH1 0x4 DUP1 CALLDATASIZE SUB DUP2 ADD SWAP1 PUSH2 0x79 SWAP2 SWAP1 PUSH2 0xDD0 JUMP JUMPDEST PUSH2 0x141 JUMP JUMPDEST PUSH1 0x40 MLOAD PUSH2 0x90 SWAP7 SWAP6 SWAP5 SWAP4 SWAP3 SWAP2 SWAP1 PUSH2 0xEE1 JUMP JUMPDEST PUSH1 0x40 MLOAD DUP1 SWAP2 SUB SWAP1 RETURN JUMPDEST PUSH2 0xB3 PUSH1 0x4 DUP1 CALLDATASIZE SUB DUP2 ADD SWAP1 PUSH2 0xAE SWAP2 SWAP1 PUSH2 0xF94 JUMP JUMPDEST PUSH2 0x218 JUMP JUMPDEST STOP JUMPDEST CALLVALUE DUP1 ISZERO PUSH2 0xC0 JUMPI PUSH0 DUP1 REVERT JUMPDEST POP PUSH2 0xDB PUSH1 0x4 DUP1 CALLDATASIZE SUB DUP2 ADD SWAP1 PUSH2 0xD6 SWAP2 SWAP1 PUSH2 0xDD0 JUMP JUMPDEST PUSH2 0x5BA JUMP JUMPDEST PUSH1 0x40 MLOAD PUSH2 0xE8 SWAP2 SWAP1 PUSH2 0x1039 JUMP JUMPDEST PUSH1 0x40 MLOAD DUP1 SWAP2 SUB SWAP1 RETURN JUMPDEST CALLVALUE DUP1 ISZERO PUSH2 0xFC JUMPI PUSH0 DUP1 REVERT JUMPDEST POP PUSH2 0x117 PUSH1 0x4 DUP1 CALLDATASIZE SUB DUP2 ADD SWAP1 PUSH2 0x112 SWAP2 SWAP1 PUSH2 0xDD0 JUMP JUMPDEST PUSH2 0x5EF JUMP JUMPDEST STOP JUMPDEST CALLVALUE DUP1 ISZERO PUSH2 0x124 JUMPI PUSH0 DUP1 REVERT JUMPDEST POP PUSH2 0x13F PUSH1 0x4 DUP1 CALLDATASIZE SUB DUP2 ADD SWAP1 PUSH2 0x13A SWAP2 SWAP1 PUSH2 0xDD0 JUMP JUMPDEST PUSH2 0x810 JUMP JUMPDEST STOP JUMPDEST PUSH0 DUP2 DUP1 MLOAD PUSH1 0x20 DUP2 ADD DUP3 ADD DUP1 MLOAD DUP5 DUP3 MSTORE PUSH1 0x20 DUP4 ADD PUSH1 0x20 DUP6 ADD KECCAK256 DUP2 DUP4 MSTORE DUP1 SWAP6 POP POP POP POP POP POP PUSH0 SWAP2 POP SWAP1 POP DUP1 PUSH0 ADD PUSH0 SWAP1 SLOAD SWAP1 PUSH2 0x100 EXP SWAP1 DIV PUSH20 0xFFFFFFFFFFFFFFFFFFFFFFFFFFFFFFFFFFFFFFFF AND SWAP1 DUP1 PUSH1 0x1 ADD PUSH0 SWAP1 SLOAD SWAP1 PUSH2 0x100 EXP SWAP1 DIV PUSH20 0xFFFFFFFFFFFFFFFFFFFFFFFFFFFFFFFFFFFFFFFF AND SWAP1 DUP1 PUSH1 0x2 ADD PUSH0 SWAP1 SLOAD SWAP1 PUSH2 0x100 EXP SWAP1 DIV PUSH20 0xFFFFFFFFFFFFFFFFFFFFFFFFFFFFFFFFFFFFFFFF AND SWAP1 DUP1 PUSH1 0x3 ADD PUSH0 SWAP1 SLOAD SWAP1 PUSH2 0x100 EXP SWAP1 DIV PUSH20 0xFFFFFFFFFFFFFFFFFFFFFFFFFFFFFFFFFFFFFFFF AND SWAP1 DUP1 PUSH1 0x4 ADD SLOAD SWAP1 DUP1 PUSH1 0x5 ADD PUSH0 SWAP1 SLOAD SWAP1 PUSH2 0x100 EXP SWAP1 DIV PUSH1 0xFF AND SWAP1 POP DUP7 JUMP JUMPDEST DUP1 CALLVALUE LT ISZERO PUSH2 0x25B JUMPI PUSH1 0x40 MLOAD PUSH32 0x8C379A000000000000000000000000000000000000000000000000000000000 DUP2 MSTORE PUSH1 0x4 ADD PUSH2 0x252 SWAP1 PUSH2 0x10AC JUMP JUMPDEST PUSH1 0x40 MLOAD DUP1 SWAP2 SUB SWAP1 REVERT JUMPDEST DUP5 PUSH20 0xFFFFFFFFFFFFFFFFFFFFFFFFFFFFFFFFFFFFFFFF AND CALLER PUSH20 0xFFFFFFFFFFFFFFFFFFFFFFFFFFFFFFFFFFFFFFFF AND EQ PUSH2 0x2C9 JUMPI PUSH1 0x40 MLOAD PUSH32 0x8C379A000000000000000000000000000000000000000000000000000000000 DUP2 MSTORE PUSH1 0x4 ADD PUSH2 0x2C0 SWAP1 PUSH2 0x1114 JUMP JUMPDEST PUSH1 0x40 MLOAD DUP1 SWAP2 SUB SWAP1 REVERT JUMPDEST PUSH0 PUSH20 0xFFFFFFFFFFFFFFFFFFFFFFFFFFFFFFFFFFFFFFFF AND PUSH0 DUP8 PUSH1 0x40 MLOAD PUSH2 0x2EF SWAP2 SWAP1 PUSH2 0x119E JUMP JUMPDEST SWAP1 DUP2 MSTORE PUSH1 0x20 ADD PUSH1 0x40 MLOAD DUP1 SWAP2 SUB SWAP1 KECCAK256 PUSH0 ADD PUSH0 SWAP1 SLOAD SWAP1 PUSH2 0x100 EXP SWAP1 DIV PUSH20 0xFFFFFFFFFFFFFFFFFFFFFFFFFFFFFFFFFFFFFFFF AND PUSH20 0xFFFFFFFFFFFFFFFFFFFFFFFFFFFFFFFFFFFFFFFF AND EQ PUSH2 0x375 JUMPI PUSH1 0x40 MLOAD PUSH32 0x8C379A000000000000000000000000000000000000000000000000000000000 DUP2 MSTORE PUSH1 0x4 ADD PUSH2 0x36C SWAP1 PUSH2 0x11FE JUMP JUMPDEST PUSH1 0x40 MLOAD DUP1 SWAP2 SUB SWAP1 REVERT JUMPDEST PUSH1 0x40 MLOAD DUP1 PUSH1 0xC0 ADD PUSH1 0x40 MSTORE DUP1 DUP7 PUSH20 0xFFFFFFFFFFFFFFFFFFFFFFFFFFFFFFFFFFFFFFFF AND DUP2 MSTORE PUSH1 0x20 ADD DUP6 PUSH20 0xFFFFFFFFFFFFFFFFFFFFFFFFFFFFFFFFFFFFFFFF AND DUP2 MSTORE PUSH1 0x20 ADD DUP5 PUSH20 0xFFFFFFFFFFFFFFFFFFFFFFFFFFFFFFFFFFFFFFFF AND DUP2 MSTORE PUSH1 0x20 ADD DUP4 PUSH20 0xFFFFFFFFFFFFFFFFFFFFFFFFFFFFFFFFFFFFFFFF AND DUP2 MSTORE PUSH1 0x20 ADD DUP3 DUP2 MSTORE PUSH1 0x20 ADD PUSH0 PUSH1 0x2 DUP2 GT ISZERO PUSH2 0x409 JUMPI PUSH2 0x408 PUSH2 0xE6E JUMP JUMPDEST JUMPDEST DUP2 MSTORE POP PUSH0 DUP8 PUSH1 0x40 MLOAD PUSH2 0x41B SWAP2 SWAP1 PUSH2 0x119E JUMP JUMPDEST SWAP1 DUP2 MSTORE PUSH1 0x20 ADD PUSH1 0x40 MLOAD DUP1 SWAP2 SUB SWAP1 KECCAK256 PUSH0 DUP3 ADD MLOAD DUP2 PUSH0 ADD PUSH0 PUSH2 0x100 EXP DUP2 SLOAD DUP2 PUSH20 0xFFFFFFFFFFFFFFFFFFFFFFFFFFFFFFFFFFFFFFFF MUL NOT AND SWAP1 DUP4 PUSH20 0xFFFFFFFFFFFFFFFFFFFFFFFFFFFFFFFFFFFFFFFF AND MUL OR SWAP1 SSTORE POP PUSH1 0x20 DUP3 ADD MLOAD DUP2 PUSH1 0x1 ADD PUSH0 PUSH2 0x100 EXP DUP2 SLOAD DUP2 PUSH20 0xFFFFFFFFFFFFFFFFFFFFFFFFFFFFFFFFFFFFFFFF MUL NOT AND SWAP1 DUP4 PUSH20 0xFFFFFFFFFFFFFFFFFFFFFFFFFFFFFFFFFFFFFFFF AND MUL OR SWAP1 SSTORE POP PUSH1 0x40 DUP3 ADD MLOAD DUP2 PUSH1 0x2 ADD PUSH0 PUSH2 0x100 EXP DUP2 SLOAD DUP2 PUSH20 0xFFFFFFFFFFFFFFFFFFFFFFFFFFFFFFFFFFFFFFFF MUL NOT AND SWAP1 DUP4 PUSH20 0xFFFFFFFFFFFFFFFFFFFFFFFFFFFFFFFFFFFFFFFF AND MUL OR SWAP1 SSTORE POP PUSH1 0x60 DUP3 ADD MLOAD DUP2 PUSH1 0x3 ADD PUSH0 PUSH2 0x100 EXP DUP2 SLOAD DUP2 PUSH20 0xFFFFFFFFFFFFFFFFFFFFFFFFFFFFFFFFFFFFFFFF MUL NOT AND SWAP1 DUP4 PUSH20 0xFFFFFFFFFFFFFFFFFFFFFFFFFFFFFFFFFFFFFFFF AND MUL OR SWAP1 SSTORE POP PUSH1 0x80 DUP3 ADD MLOAD DUP2 PUSH1 0x4 ADD SSTORE PUSH1 0xA0 DUP3 ADD MLOAD DUP2 PUSH1 0x5 ADD PUSH0 PUSH2 0x100 EXP DUP2 SLOAD DUP2 PUSH1 0xFF MUL NOT AND SWAP1 DUP4 PUSH1 0x2 DUP2 GT ISZERO PUSH2 0x573 JUMPI PUSH2 0x572 PUSH2 0xE6E JUMP JUMPDEST JUMPDEST MUL OR SWAP1 SSTORE POP SWAP1 POP POP PUSH32 0x8BB98C86FCA17D1296E36D0D27879826F874AE77E12C0223F7DEC6DE6D4C0BE5 DUP7 PUSH1 0x40 MLOAD PUSH2 0x5AA SWAP2 SWAP1 PUSH2 0x1254 JUMP JUMPDEST PUSH1 0x40 MLOAD DUP1 SWAP2 SUB SWAP1 LOG1 POP POP POP POP POP POP JUMP JUMPDEST PUSH0 DUP1 DUP3 PUSH1 0x40 MLOAD PUSH2 0x5CA SWAP2 SWAP1 PUSH2 0x119E JUMP JUMPDEST SWAP1 DUP2 MSTORE PUSH1 0x20 ADD PUSH1 0x40 MLOAD DUP1 SWAP2 SUB SWAP1 KECCAK256 PUSH1 0x5 ADD PUSH0 SWAP1 SLOAD SWAP1 PUSH2 0x100 EXP SWAP1 DIV PUSH1 0xFF AND SWAP1 POP SWAP2 SWAP1 POP JUMP JUMPDEST PUSH0 DUP2 PUSH1 0x40 MLOAD PUSH2 0x5FE SWAP2 SWAP1 PUSH2 0x119E JUMP JUMPDEST SWAP1 DUP2 MSTORE PUSH1 0x20 ADD PUSH1 0x40 MLOAD DUP1 SWAP2 SUB SWAP1 KECCAK256 PUSH1 0x3 ADD PUSH0 SWAP1 SLOAD SWAP1 PUSH2 0x100 EXP SWAP1 DIV PUSH20 0xFFFFFFFFFFFFFFFFFFFFFFFFFFFFFFFFFFFFFFFF AND PUSH20 0xFFFFFFFFFFFFFFFFFFFFFFFFFFFFFFFFFFFFFFFF AND CALLER PUSH20 0xFFFFFFFFFFFFFFFFFFFFFFFFFFFFFFFFFFFFFFFF AND EQ PUSH2 0x69C JUMPI PUSH1 0x40 MLOAD PUSH32 0x8C379A000000000000000000000000000000000000000000000000000000000 DUP2 MSTORE PUSH1 0x4 ADD PUSH2 0x693 SWAP1 PUSH2 0x12BE JUMP JUMPDEST PUSH1 0x40 MLOAD DUP1 SWAP2 SUB SWAP1 REVERT JUMPDEST PUSH1 0x1 PUSH1 0x2 DUP2 GT ISZERO PUSH2 0x6B0 JUMPI PUSH2 0x6AF PUSH2 0xE6E JUMP JUMPDEST JUMPDEST PUSH0 DUP3 PUSH1 0x40 MLOAD PUSH2 0x6BF SWAP2 SWAP1 PUSH2 0x119E JUMP JUMPDEST SWAP1 DUP2 MSTORE PUSH1 0x20 ADD PUSH1 0x40 MLOAD DUP1 SWAP2 SUB SWAP1 KECCAK256 PUSH1 0x5 ADD PUSH0 SWAP1 SLOAD SWAP1 PUSH2 0x100 EXP SWAP1 DIV PUSH1 0xFF AND PUSH1 0x2 DUP2 GT ISZERO PUSH2 0x6EF JUMPI PUSH2 0x6EE PUSH2 0xE6E JUMP JUMPDEST JUMPDEST EQ PUSH2 0x72F JUMPI PUSH1 0x40 MLOAD PUSH32 0x8C379A000000000000000000000000000000000000000000000000000000000 DUP2 MSTORE PUSH1 0x4 ADD PUSH2 0x726 SWAP1 PUSH2 0x1326 JUMP JUMPDEST PUSH1 0x40 MLOAD DUP1 SWAP2 SUB SWAP1 REVERT JUMPDEST PUSH1 0x2 PUSH0 DUP3 PUSH1 0x40 MLOAD PUSH2 0x740 SWAP2 SWAP1 PUSH2 0x119E JUMP JUMPDEST SWAP1 DUP2 MSTORE PUSH1 0x20 ADD PUSH1 0x40 MLOAD DUP1 SWAP2 SUB SWAP1 KECCAK256 PUSH1 0x5 ADD PUSH0 PUSH2 0x100 EXP DUP2 SLOAD DUP2 PUSH1 0xFF MUL NOT AND SWAP1 DUP4 PUSH1 0x2 DUP2 GT ISZERO PUSH2 0x772 JUMPI PUSH2 0x771 PUSH2 0xE6E JUMP JUMPDEST JUMPDEST MUL OR SWAP1 SSTORE POP PUSH0 DUP2 PUSH1 0x40 MLOAD PUSH2 0x786 SWAP2 SWAP1 PUSH2 0x119E JUMP JUMPDEST SWAP1 DUP2 MSTORE PUSH1 0x20 ADD PUSH1 0x40 MLOAD DUP1 SWAP2 SUB SWAP1 KECCAK256 PUSH1 0x3 ADD PUSH0 SWAP1 SLOAD SWAP1 PUSH2 0x100 EXP SWAP1 DIV PUSH20 0xFFFFFFFFFFFFFFFFFFFFFFFFFFFFFFFFFFFFFFFF AND PUSH20 0xFFFFFFFFFFFFFFFFFFFFFFFFFFFFFFFFFFFFFFFF AND PUSH32 0xB4D5032B4809916079D3598CE54492B098275524F242225BDDDD2FD64E09E372 DUP3 PUSH1 0x40 MLOAD PUSH2 0x7FC SWAP2 SWAP1 PUSH2 0x1254 JUMP JUMPDEST PUSH1 0x40 MLOAD DUP1 SWAP2 SUB SWAP1 LOG2 PUSH2 0x80D DUP2 PUSH2 0xA27 JUMP JUMPDEST POP JUMP JUMPDEST PUSH0 DUP2 PUSH1 0x40 MLOAD PUSH2 0x81F SWAP2 SWAP1 PUSH2 0x119E JUMP JUMPDEST SWAP1 DUP2 MSTORE PUSH1 0x20 ADD PUSH1 0x40 MLOAD DUP1 SWAP2 SUB SWAP1 KECCAK256 PUSH1 0x3 ADD PUSH0 SWAP1 SLOAD SWAP1 PUSH2 0x100 EXP SWAP1 DIV PUSH20 0xFFFFFFFFFFFFFFFFFFFFFFFFFFFFFFFFFFFFFFFF AND PUSH20 0xFFFFFFFFFFFFFFFFFFFFFFFFFFFFFFFFFFFFFFFF AND CALLER PUSH20 0xFFFFFFFFFFFFFFFFFFFFFFFFFFFFFFFFFFFFFFFF AND EQ PUSH2 0x8BD JUMPI PUSH1 0x40 MLOAD PUSH32 0x8C379A000000000000000000000000000000000000000000000000000000000 DUP2 MSTORE PUSH1 0x4 ADD PUSH2 0x8B4 SWAP1 PUSH2 0x138E JUMP JUMPDEST PUSH1 0x40 MLOAD DUP1 SWAP2 SUB SWAP1 REVERT JUMPDEST PUSH0 PUSH1 0x2 DUP2 GT ISZERO PUSH2 0x8D0 JUMPI PUSH2 0x8CF PUSH2 0xE6E JUMP JUMPDEST JUMPDEST PUSH0 DUP3 PUSH1 0x40 MLOAD PUSH2 0x8DF SWAP2 SWAP1 PUSH2 0x119E JUMP JUMPDEST SWAP1 DUP2 MSTORE PUSH1 0x20 ADD PUSH1 0x40 MLOAD DUP1 SWAP2 SUB SWAP1 KECCAK256 PUSH1 0x5 ADD PUSH0 SWAP1 SLOAD SWAP1 PUSH2 0x100 EXP SWAP1 DIV PUSH1 0xFF AND PUSH1 0x2 DUP2 GT ISZERO PUSH2 0x90F JUMPI PUSH2 0x90E PUSH2 0xE6E JUMP JUMPDEST JUMPDEST EQ PUSH2 0x94F JUMPI PUSH1 0x40 MLOAD PUSH32 0x8C379A000000000000000000000000000000000000000000000000000000000 DUP2 MSTORE PUSH1 0x4 ADD PUSH2 0x946 SWAP1 PUSH2 0x13F6 JUMP JUMPDEST PUSH1 0x40 MLOAD DUP1 SWAP2 SUB SWAP1 REVERT JUMPDEST PUSH1 0x1 PUSH0 DUP3 PUSH1 0x40 MLOAD PUSH2 0x960 SWAP2 SWAP1 PUSH2 0x119E JUMP JUMPDEST SWAP1 DUP2 MSTORE PUSH1 0x20 ADD PUSH1 0x40 MLOAD DUP1 SWAP2 SUB SWAP1 KECCAK256 PUSH1 0x5 ADD PUSH0 PUSH2 0x100 EXP DUP2 SLOAD DUP2 PUSH1 0xFF MUL NOT AND SWAP1 DUP4 PUSH1 0x2 DUP2 GT ISZERO PUSH2 0x992 JUMPI PUSH2 0x991 PUSH2 0xE6E JUMP JUMPDEST JUMPDEST MUL OR SWAP1 SSTORE POP PUSH0 DUP2 PUSH1 0x40 MLOAD PUSH2 0x9A6 SWAP2 SWAP1 PUSH2 0x119E JUMP JUMPDEST SWAP1 DUP2 MSTORE PUSH1 0x20 ADD PUSH1 0x40 MLOAD DUP1 SWAP2 SUB SWAP1 KECCAK256 PUSH1 0x2 ADD PUSH0 SWAP1 SLOAD SWAP1 PUSH2 0x100 EXP SWAP1 DIV PUSH20 0xFFFFFFFFFFFFFFFFFFFFFFFFFFFFFFFFFFFFFFFF AND PUSH20 0xFFFFFFFFFFFFFFFFFFFFFFFFFFFFFFFFFFFFFFFF AND PUSH32 0xAEA8E6E8C89AB3245147625734C071EEEDAEBE6EEA64786E83D672CAE6AF440 DUP3 PUSH1 0x40 MLOAD PUSH2 0xA1C SWAP2 SWAP1 PUSH2 0x1254 JUMP JUMPDEST PUSH1 0x40 MLOAD DUP1 SWAP2 SUB SWAP1 LOG2 POP JUMP JUMPDEST PUSH1 0x2 DUP1 DUP2 GT ISZERO PUSH2 0xA3A JUMPI PUSH2 0xA39 PUSH2 0xE6E JUMP JUMPDEST JUMPDEST PUSH0 DUP3 PUSH1 0x40 MLOAD PUSH2 0xA49 SWAP2 SWAP1 PUSH2 0x119E JUMP JUMPDEST SWAP1 DUP2 MSTORE PUSH1 0x20 ADD PUSH1 0x40 MLOAD DUP1 SWAP2 SUB SWAP1 KECCAK256 PUSH1 0x5 ADD PUSH0 SWAP1 SLOAD SWAP1 PUSH2 0x100 EXP SWAP1 DIV PUSH1 0xFF AND PUSH1 0x2 DUP2 GT ISZERO PUSH2 0xA79 JUMPI PUSH2 0xA78 PUSH2 0xE6E JUMP JUMPDEST JUMPDEST EQ PUSH2 0xAB9 JUMPI PUSH1 0x40 MLOAD PUSH32 0x8C379A000000000000000000000000000000000000000000000000000000000 DUP2 MSTORE PUSH1 0x4 ADD PUSH2 0xAB0 SWAP1 PUSH2 0x145E JUMP JUMPDEST PUSH1 0x40 MLOAD DUP1 SWAP2 SUB SWAP1 REVERT JUMPDEST PUSH0 DUP1 DUP3 PUSH1 0x40 MLOAD PUSH2 0xAC9 SWAP2 SWAP1 PUSH2 0x119E JUMP JUMPDEST SWAP1 DUP2 MSTORE PUSH1 0x20 ADD PUSH1 0x40 MLOAD DUP1 SWAP2 SUB SWAP1 KECCAK256 SWAP1 POP PUSH0 PUSH1 0xA DUP3 PUSH1 0x4 ADD SLOAD PUSH2 0xAEB SWAP2 SWAP1 PUSH2 0x14D6 JUMP JUMPDEST SWAP1 POP PUSH0 DUP2 DUP4 PUSH1 0x4 ADD SLOAD PUSH2 0xAFE SWAP2 SWAP1 PUSH2 0x1506 JUMP JUMPDEST SWAP1 POP DUP3 PUSH1 0x3 ADD PUSH0 SWAP1 SLOAD SWAP1 PUSH2 0x100 EXP SWAP1 DIV PUSH20 0xFFFFFFFFFFFFFFFFFFFFFFFFFFFFFFFFFFFFFFFF AND PUSH20 0xFFFFFFFFFFFFFFFFFFFFFFFFFFFFFFFFFFFFFFFF AND PUSH2 0x8FC DUP4 SWAP1 DUP2 ISZERO MUL SWAP1 PUSH1 0x40 MLOAD PUSH0 PUSH1 0x40 MLOAD DUP1 DUP4 SUB DUP2 DUP6 DUP9 DUP9 CALL SWAP4 POP POP POP POP ISZERO DUP1 ISZERO PUSH2 0xB66 JUMPI RETURNDATASIZE PUSH0 DUP1 RETURNDATACOPY RETURNDATASIZE PUSH0 REVERT JUMPDEST POP DUP3 PUSH1 0x1 ADD PUSH0 SWAP1 SLOAD SWAP1 PUSH2 0x100 EXP SWAP1 DIV PUSH20 0xFFFFFFFFFFFFFFFFFFFFFFFFFFFFFFFFFFFFFFFF AND PUSH20 0xFFFFFFFFFFFFFFFFFFFFFFFFFFFFFFFFFFFFFFFF AND PUSH2 0x8FC DUP3 SWAP1 DUP2 ISZERO MUL SWAP1 PUSH1 0x40 MLOAD PUSH0 PUSH1 0x40 MLOAD DUP1 DUP4 SUB DUP2 DUP6 DUP9 DUP9 CALL SWAP4 POP POP POP POP ISZERO DUP1 ISZERO PUSH2 0xBCD JUMPI RETURNDATASIZE PUSH0 DUP1 RETURNDATACOPY RETURNDATASIZE PUSH0 REVERT JUMPDEST POP DUP3 PUSH1 0x1 ADD PUSH0 SWAP1 SLOAD SWAP1 PUSH2 0x100 EXP SWAP1 DIV PUSH20 0xFFFFFFFFFFFFFFFFFFFFFFFFFFFFFFFFFFFFFFFF AND PUSH20 0xFFFFFFFFFFFFFFFFFFFFFFFFFFFFFFFFFFFFFFFF AND DUP4 PUSH1 0x3 ADD PUSH0 SWAP1 SLOAD SWAP1 PUSH2 0x100 EXP SWAP1 DIV PUSH20 0xFFFFFFFFFFFFFFFFFFFFFFFFFFFFFFFFFFFFFFFF AND PUSH20 0xFFFFFFFFFFFFFFFFFFFFFFFFFFFFFFFFFFFFFFFF AND PUSH32 0x3E5A95C072B7C6FA3C73432C8C663074BCF5D61C2A4B29225D5E17E99DDF46FD DUP7 DUP6 DUP6 PUSH1 0x40 MLOAD PUSH2 0xC75 SWAP4 SWAP3 SWAP2 SWAP1 PUSH2 0x1539 JUMP JUMPDEST PUSH1 0x40 MLOAD DUP1 SWAP2 SUB SWAP1 LOG3 POP POP POP POP JUMP JUMPDEST PUSH0 PUSH1 0x40 MLOAD SWAP1 POP SWAP1 JUMP JUMPDEST PUSH0 DUP1 REVERT JUMPDEST PUSH0 DUP1 REVERT JUMPDEST PUSH0 DUP1 REVERT JUMPDEST PUSH0 DUP1 REVERT JUMPDEST PUSH0 PUSH1 0x1F NOT PUSH1 0x1F DUP4 ADD AND SWAP1 POP SWAP2 SWAP1 POP JUMP JUMPDEST PUSH32 0x4E487B7100000000000000000000000000000000000000000000000000000000 PUSH0 MSTORE PUSH1 0x41 PUSH1 0x4 MSTORE PUSH1 0x24 PUSH0 REVERT JUMPDEST PUSH2 0xCE2 DUP3 PUSH2 0xC9C JUMP JUMPDEST DUP2 ADD DUP2 DUP2 LT PUSH8 0xFFFFFFFFFFFFFFFF DUP3 GT OR ISZERO PUSH2 0xD01 JUMPI PUSH2 0xD00 PUSH2 0xCAC JUMP JUMPDEST JUMPDEST DUP1 PUSH1 0x40 MSTORE POP POP POP JUMP JUMPDEST PUSH0 PUSH2 0xD13 PUSH2 0xC83 JUMP JUMPDEST SWAP1 POP PUSH2 0xD1F DUP3 DUP3 PUSH2 0xCD9 JUMP JUMPDEST SWAP2 SWAP1 POP JUMP JUMPDEST PUSH0 PUSH8 0xFFFFFFFFFFFFFFFF DUP3 GT ISZERO PUSH2 0xD3E JUMPI PUSH2 0xD3D PUSH2 0xCAC JUMP JUMPDEST JUMPDEST PUSH2 0xD47 DUP3 PUSH2 0xC9C JUMP JUMPDEST SWAP1 POP PUSH1 0x20 DUP2 ADD SWAP1 POP SWAP2 SWAP1 POP JUMP JUMPDEST DUP3 DUP2 DUP4 CALLDATACOPY PUSH0 DUP4 DUP4 ADD MSTORE POP POP POP JUMP JUMPDEST PUSH0 PUSH2 0xD74 PUSH2 0xD6F DUP5 PUSH2 0xD24 JUMP JUMPDEST PUSH2 0xD0A JUMP JUMPDEST SWAP1 POP DUP3 DUP2 MSTORE PUSH1 0x20 DUP2 ADD DUP5 DUP5 DUP5 ADD GT ISZERO PUSH2 0xD90 JUMPI PUSH2 0xD8F PUSH2 0xC98 JUMP JUMPDEST JUMPDEST PUSH2 0xD9B DUP5 DUP3 DUP6 PUSH2 0xD54 JUMP JUMPDEST POP SWAP4 SWAP3 POP POP POP JUMP JUMPDEST PUSH0 DUP3 PUSH1 0x1F DUP4 ADD SLT PUSH2 0xDB7 JUMPI PUSH2 0xDB6 PUSH2 0xC94 JUMP JUMPDEST JUMPDEST DUP2 CALLDATALOAD PUSH2 0xDC7 DUP5 DUP3 PUSH1 0x20 DUP7 ADD PUSH2 0xD62 JUMP JUMPDEST SWAP2 POP POP SWAP3 SWAP2 POP POP JUMP JUMPDEST PUSH0 PUSH1 0x20 DUP3 DUP5 SUB SLT ISZERO PUSH2 0xDE5 JUMPI PUSH2 0xDE4 PUSH2 0xC8C JUMP JUMPDEST JUMPDEST PUSH0 DUP3 ADD CALLDATALOAD PUSH8 0xFFFFFFFFFFFFFFFF DUP2 GT ISZERO PUSH2 0xE02 JUMPI PUSH2 0xE01 PUSH2 0xC90 JUMP JUMPDEST JUMPDEST PUSH2 0xE0E DUP5 DUP3 DUP6 ADD PUSH2 0xDA3 JUMP JUMPDEST SWAP2 POP POP SWAP3 SWAP2 POP POP JUMP JUMPDEST PUSH0 PUSH20 0xFFFFFFFFFFFFFFFFFFFFFFFFFFFFFFFFFFFFFFFF DUP3 AND SWAP1 POP SWAP2 SWAP1 POP JUMP JUMPDEST PUSH0 PUSH2 0xE40 DUP3 PUSH2 0xE17 JUMP JUMPDEST SWAP1 POP SWAP2 SWAP1 POP JUMP JUMPDEST PUSH2 0xE50 DUP2 PUSH2 0xE36 JUMP JUMPDEST DUP3 MSTORE POP POP JUMP JUMPDEST PUSH0 DUP2 SWAP1 POP SWAP2 SWAP1 POP JUMP JUMPDEST PUSH2 0xE68 DUP2 PUSH2 0xE56 JUMP JUMPDEST DUP3 MSTORE POP POP JUMP JUMPDEST PUSH32 0x4E487B7100000000000000000000000000000000000000000000000000000000 PUSH0 MSTORE PUSH1 0x21 PUSH1 0x4 MSTORE PUSH1 0x24 PUSH0 REVERT JUMPDEST PUSH1 0x3 DUP2 LT PUSH2 0xEAC JUMPI PUSH2 0xEAB PUSH2 0xE6E JUMP JUMPDEST JUMPDEST POP JUMP JUMPDEST PUSH0 DUP2 SWAP1 POP PUSH2 0xEBC DUP3 PUSH2 0xE9B JUMP JUMPDEST SWAP2 SWAP1 POP JUMP JUMPDEST PUSH0 PUSH2 0xECB DUP3 PUSH2 0xEAF JUMP JUMPDEST SWAP1 POP SWAP2 SWAP1 POP JUMP JUMPDEST PUSH2 0xEDB DUP2 PUSH2 0xEC1 JUMP JUMPDEST DUP3 MSTORE POP POP JUMP JUMPDEST PUSH0 PUSH1 0xC0 DUP3 ADD SWAP1 POP PUSH2 0xEF4 PUSH0 DUP4 ADD DUP10 PUSH2 0xE47 JUMP JUMPDEST PUSH2 0xF01 PUSH1 0x20 DUP4 ADD DUP9 PUSH2 0xE47 JUMP JUMPDEST PUSH2 0xF0E PUSH1 0x40 DUP4 ADD DUP8 PUSH2 0xE47 JUMP JUMPDEST PUSH2 0xF1B PUSH1 0x60 DUP4 ADD DUP7 PUSH2 0xE47 JUMP JUMPDEST PUSH2 0xF28 PUSH1 0x80 DUP4 ADD DUP6 PUSH2 0xE5F JUMP JUMPDEST PUSH2 0xF35 PUSH1 0xA0 DUP4 ADD DUP5 PUSH2 0xED2 JUMP JUMPDEST SWAP8 SWAP7 POP POP POP POP POP POP POP JUMP JUMPDEST PUSH2 0xF49 DUP2 PUSH2 0xE36 JUMP JUMPDEST DUP2 EQ PUSH2 0xF53 JUMPI PUSH0 DUP1 REVERT JUMPDEST POP JUMP JUMPDEST PUSH0 DUP2 CALLDATALOAD SWAP1 POP PUSH2 0xF64 DUP2 PUSH2 0xF40 JUMP JUMPDEST SWAP3 SWAP2 POP POP JUMP JUMPDEST PUSH2 0xF73 DUP2 PUSH2 0xE56 JUMP JUMPDEST DUP2 EQ PUSH2 0xF7D JUMPI PUSH0 DUP1 REVERT JUMPDEST POP JUMP JUMPDEST PUSH0 DUP2 CALLDATALOAD SWAP1 POP PUSH2 0xF8E DUP2 PUSH2 0xF6A JUMP JUMPDEST SWAP3 SWAP2 POP POP JUMP JUMPDEST PUSH0 DUP1 PUSH0 DUP1 PUSH0 DUP1 PUSH1 0xC0 DUP8 DUP10 SUB SLT ISZERO PUSH2 0xFAE JUMPI PUSH2 0xFAD PUSH2 0xC8C JUMP JUMPDEST JUMPDEST PUSH0 DUP8 ADD CALLDATALOAD PUSH8 0xFFFFFFFFFFFFFFFF DUP2 GT ISZERO PUSH2 0xFCB JUMPI PUSH2 0xFCA PUSH2 0xC90 JUMP JUMPDEST JUMPDEST PUSH2 0xFD7 DUP10 DUP3 DUP11 ADD PUSH2 0xDA3 JUMP JUMPDEST SWAP7 POP POP PUSH1 0x20 PUSH2 0xFE8 DUP10 DUP3 DUP11 ADD PUSH2 0xF56 JUMP JUMPDEST SWAP6 POP POP PUSH1 0x40 PUSH2 0xFF9 DUP10 DUP3 DUP11 ADD PUSH2 0xF56 JUMP JUMPDEST SWAP5 POP POP PUSH1 0x60 PUSH2 0x100A DUP10 DUP3 DUP11 ADD PUSH2 0xF56 JUMP JUMPDEST SWAP4 POP POP PUSH1 0x80 PUSH2 0x101B DUP10 DUP3 DUP11 ADD PUSH2 0xF56 JUMP JUMPDEST SWAP3 POP POP PUSH1 0xA0 PUSH2 0x102C DUP10 DUP3 DUP11 ADD PUSH2 0xF80 JUMP JUMPDEST SWAP2 POP POP SWAP3 SWAP6 POP SWAP3 SWAP6 POP SWAP3 SWAP6 JUMP JUMPDEST PUSH0 PUSH1 0x20 DUP3 ADD SWAP1 POP PUSH2 0x104C PUSH0 DUP4 ADD DUP5 PUSH2 0xED2 JUMP JUMPDEST SWAP3 SWAP2 POP POP JUMP JUMPDEST PUSH0 DUP3 DUP3 MSTORE PUSH1 0x20 DUP3 ADD SWAP1 POP SWAP3 SWAP2 POP POP JUMP JUMPDEST PUSH32 0x6530303200000000000000000000000000000000000000000000000000000000 PUSH0 DUP3 ADD MSTORE POP JUMP JUMPDEST PUSH0 PUSH2 0x1096 PUSH1 0x4 DUP4 PUSH2 0x1052 JUMP JUMPDEST SWAP2 POP PUSH2 0x10A1 DUP3 PUSH2 0x1062 JUMP JUMPDEST PUSH1 0x20 DUP3 ADD SWAP1 POP SWAP2 SWAP1 POP JUMP JUMPDEST PUSH0 PUSH1 0x20 DUP3 ADD SWAP1 POP DUP2 DUP2 SUB PUSH0 DUP4 ADD MSTORE PUSH2 0x10C3 DUP2 PUSH2 0x108A JUMP JUMPDEST SWAP1 POP SWAP2 SWAP1 POP JUMP JUMPDEST PUSH32 0x6530303300000000000000000000000000000000000000000000000000000000 PUSH0 DUP3 ADD MSTORE POP JUMP JUMPDEST PUSH0 PUSH2 0x10FE PUSH1 0x4 DUP4 PUSH2 0x1052 JUMP JUMPDEST SWAP2 POP PUSH2 0x1109 DUP3 PUSH2 0x10CA JUMP JUMPDEST PUSH1 0x20 DUP3 ADD SWAP1 POP SWAP2 SWAP1 POP JUMP JUMPDEST PUSH0 PUSH1 0x20 DUP3 ADD SWAP1 POP DUP2 DUP2 SUB PUSH0 DUP4 ADD MSTORE PUSH2 0x112B DUP2 PUSH2 0x10F2 JUMP JUMPDEST SWAP1 POP SWAP2 SWAP1 POP JUMP JUMPDEST PUSH0 DUP2 MLOAD SWAP1 POP SWAP2 SWAP1 POP JUMP JUMPDEST PUSH0 DUP2 SWAP1 POP SWAP3 SWAP2 POP POP JUMP JUMPDEST PUSH0 JUMPDEST DUP4 DUP2 LT ISZERO PUSH2 0x1163 JUMPI DUP1 DUP3 ADD MLOAD DUP2 DUP5 ADD MSTORE PUSH1 0x20 DUP2 ADD SWAP1 POP PUSH2 0x1148 JUMP JUMPDEST PUSH0 DUP5 DUP5 ADD MSTORE POP POP POP POP JUMP JUMPDEST PUSH0 PUSH2 0x1178 DUP3 PUSH2 0x1132 JUMP JUMPDEST PUSH2 0x1182 DUP2 DUP6 PUSH2 0x113C JUMP JUMPDEST SWAP4 POP PUSH2 0x1192 DUP2 DUP6 PUSH1 0x20 DUP7 ADD PUSH2 0x1146 JUMP JUMPDEST DUP1 DUP5 ADD SWAP2 POP POP SWAP3 SWAP2 POP POP JUMP JUMPDEST PUSH0 PUSH2 0x11A9 DUP3 DUP5 PUSH2 0x116E JUMP JUMPDEST SWAP2 POP DUP2 SWAP1 POP SWAP3 SWAP2 POP POP JUMP JUMPDEST PUSH32 0x457363726F7720616C7265616479206578697374730000000000000000000000 PUSH0 DUP3 ADD MSTORE POP JUMP JUMPDEST PUSH0 PUSH2 0x11E8 PUSH1 0x15 DUP4 PUSH2 0x1052 JUMP JUMPDEST SWAP2 POP PUSH2 0x11F3 DUP3 PUSH2 0x11B4 JUMP JUMPDEST PUSH1 0x20 DUP3 ADD SWAP1 POP SWAP2 SWAP1 POP JUMP JUMPDEST PUSH0 PUSH1 0x20 DUP3 ADD SWAP1 POP DUP2 DUP2 SUB PUSH0 DUP4 ADD MSTORE PUSH2 0x1215 DUP2 PUSH2 0x11DC JUMP JUMPDEST SWAP1 POP SWAP2 SWAP1 POP JUMP JUMPDEST PUSH0 PUSH2 0x1226 DUP3 PUSH2 0x1132 JUMP JUMPDEST PUSH2 0x1230 DUP2 DUP6 PUSH2 0x1052 JUMP JUMPDEST SWAP4 POP PUSH2 0x1240 DUP2 DUP6 PUSH1 0x20 DUP7 ADD PUSH2 0x1146 JUMP JUMPDEST PUSH2 0x1249 DUP2 PUSH2 0xC9C JUMP JUMPDEST DUP5 ADD SWAP2 POP POP SWAP3 SWAP2 POP POP JUMP JUMPDEST PUSH0 PUSH1 0x20 DUP3 ADD SWAP1 POP DUP2 DUP2 SUB PUSH0 DUP4 ADD MSTORE PUSH2 0x126C DUP2 DUP5 PUSH2 0x121C JUMP JUMPDEST SWAP1 POP SWAP3 SWAP2 POP POP JUMP JUMPDEST PUSH32 0x6530323000000000000000000000000000000000000000000000000000000000 PUSH0 DUP3 ADD MSTORE POP JUMP JUMPDEST PUSH0 PUSH2 0x12A8 PUSH1 0x4 DUP4 PUSH2 0x1052 JUMP JUMPDEST SWAP2 POP PUSH2 0x12B3 DUP3 PUSH2 0x1274 JUMP JUMPDEST PUSH1 0x20 DUP3 ADD SWAP1 POP SWAP2 SWAP1 POP JUMP JUMPDEST PUSH0 PUSH1 0x20 DUP3 ADD SWAP1 POP DUP2 DUP2 SUB PUSH0 DUP4 ADD MSTORE PUSH2 0x12D5 DUP2 PUSH2 0x129C JUMP JUMPDEST SWAP1 POP SWAP2 SWAP1 POP JUMP JUMPDEST PUSH32 0x6530323100000000000000000000000000000000000000000000000000000000 PUSH0 DUP3 ADD MSTORE POP JUMP JUMPDEST PUSH0 PUSH2 0x1310 PUSH1 0x4 DUP4 PUSH2 0x1052 JUMP JUMPDEST SWAP2 POP PUSH2 0x131B DUP3 PUSH2 0x12DC JUMP JUMPDEST PUSH1 0x20 DUP3 ADD SWAP1 POP SWAP2 SWAP1 POP JUMP JUMPDEST PUSH0 PUSH1 0x20 DUP3 ADD SWAP1 POP DUP2 DUP2 SUB PUSH0 DUP4 ADD MSTORE PUSH2 0x133D DUP2 PUSH2 0x1304 JUMP JUMPDEST SWAP1 POP SWAP2 SWAP1 POP JUMP JUMPDEST PUSH32 0x6530323400000000000000000000000000000000000000000000000000000000 PUSH0 DUP3 ADD MSTORE POP JUMP JUMPDEST PUSH0 PUSH2 0x1378 PUSH1 0x4 DUP4 PUSH2 0x1052 JUMP JUMPDEST SWAP2 POP PUSH2 0x1383 DUP3 PUSH2 0x1344 JUMP JUMPDEST PUSH1 0x20 DUP3 ADD SWAP1 POP SWAP2 SWAP1 POP JUMP JUMPDEST PUSH0 PUSH1 0x20 DUP3 ADD SWAP1 POP DUP2 DUP2 SUB PUSH0 DUP4 ADD MSTORE PUSH2 0x13A5 DUP2 PUSH2 0x136C JUMP JUMPDEST SWAP1 POP SWAP2 SWAP1 POP JUMP JUMPDEST PUSH32 0x6530313300000000000000000000000000000000000000000000000000000000 PUSH0 DUP3 ADD MSTORE POP JUMP JUMPDEST PUSH0 PUSH2 0x13E0 PUSH1 0x4 DUP4 PUSH2 0x1052 JUMP JUMPDEST SWAP2 POP PUSH2 0x13EB DUP3 PUSH2 0x13AC JUMP JUMPDEST PUSH1 0x20 DUP3 ADD SWAP1 POP SWAP2 SWAP1 POP JUMP JUMPDEST PUSH0 PUSH1 0x20 DUP3 ADD SWAP1 POP DUP2 DUP2 SUB PUSH0 DUP4 ADD MSTORE PUSH2 0x140D DUP2 PUSH2 0x13D4 JUMP JUMPDEST SWAP1 POP SWAP2 SWAP1 POP JUMP JUMPDEST PUSH32 0x6530323200000000000000000000000000000000000000000000000000000000 PUSH0 DUP3 ADD MSTORE POP JUMP JUMPDEST PUSH0 PUSH2 0x1448 PUSH1 0x4 DUP4 PUSH2 0x1052 JUMP JUMPDEST SWAP2 POP PUSH2 0x1453 DUP3 PUSH2 0x1414 JUMP JUMPDEST PUSH1 0x20 DUP3 ADD SWAP1 POP SWAP2 SWAP1 POP JUMP JUMPDEST PUSH0 PUSH1 0x20 DUP3 ADD SWAP1 POP DUP2 DUP2 SUB PUSH0 DUP4 ADD MSTORE PUSH2 0x1475 DUP2 PUSH2 0x143C JUMP JUMPDEST SWAP1 POP SWAP2 SWAP1 POP JUMP JUMPDEST PUSH32 0x4E487B7100000000000000000000000000000000000000000000000000000000 PUSH0 MSTORE PUSH1 0x12 PUSH1 0x4 MSTORE PUSH1 0x24 PUSH0 REVERT JUMPDEST PUSH32 0x4E487B7100000000000000000000000000000000000000000000000000000000 PUSH0 MSTORE PUSH1 0x11 PUSH1 0x4 MSTORE PUSH1 0x24 PUSH0 REVERT JUMPDEST PUSH0 PUSH2 0x14E0 DUP3 PUSH2 0xE56 JUMP JUMPDEST SWAP2 POP PUSH2 0x14EB DUP4 PUSH2 0xE56 JUMP JUMPDEST SWAP3 POP DUP3 PUSH2 0x14FB JUMPI PUSH2 0x14FA PUSH2 0x147C JUMP JUMPDEST JUMPDEST DUP3 DUP3 DIV SWAP1 POP SWAP3 SWAP2 POP POP JUMP JUMPDEST PUSH0 PUSH2 0x1510 DUP3 PUSH2 0xE56 JUMP JUMPDEST SWAP2 POP PUSH2 0x151B DUP4 PUSH2 0xE56 JUMP JUMPDEST SWAP3 POP DUP3 DUP3 SUB SWAP1 POP DUP2 DUP2 GT ISZERO PUSH2 0x1533 JUMPI PUSH2 0x1532 PUSH2 0x14A9 JUMP JUMPDEST JUMPDEST SWAP3 SWAP2 POP POP JUMP JUMPDEST PUSH0 PUSH1 0x60 DUP3 ADD SWAP1 POP DUP2 DUP2 SUB PUSH0 DUP4 ADD MSTORE PUSH2 0x1551 DUP2 DUP7 PUSH2 0x121C JUMP JUMPDEST SWAP1 POP PUSH2 0x1560 PUSH1 0x20 DUP4 ADD DUP6 PUSH2 0xE5F JUMP JUMPDEST PUSH2 0x156D PUSH1 0x40 DUP4 ADD DUP5 PUSH2 0xE5F JUMP JUMPDEST SWAP5 SWAP4 POP POP POP POP JUMP INVALID LOG2 PUSH5 0x6970667358 0x22 SLT KECCAK256 0x2C 0xEB MULMOD PUSH14 0xE80F9C1CE97047EA267869F1545C 0xBE RETURNDATACOPY LOG1 GASLIMIT PUSH5 0x335F4692ED 0xB9 SDIV ADD 0xB6 PUSH5 0x736F6C6343 STOP ADDMOD EQ STOP CALLER "
				},
				"gasEstimates": {
					"creation": {
						"codeDepositCost": "1109400",
						"executionCost": "1152",
						"totalCost": "1110552"
					},
					"external": {
						"confirmFulfillment(string)": "infinite",
						"confirmProductUsed(string)": "infinite",
						"createEscrow(string,address,address,address,address,uint256)": "infinite",
						"escrowStatus(string)": "infinite",
						"escrows(string)": "infinite"
					},
					"internal": {
						"distributeFunds(string memory)": "infinite"
					}
				},
				"methodIdentifiers": {
					"confirmFulfillment(string)": "aa950fda",
					"confirmProductUsed(string)": "928dbc87",
					"createEscrow(string,address,address,address,address,uint256)": "5ddde39b",
					"escrowStatus(string)": "6ad09452",
					"escrows(string)": "5cc9f864"
				}
			},
			"storageLayout": {
				"storage": [
					{
						"astId": 24,
						"contract": "frontend/src/contracts/Escrow.sol:NaegiftEscrow",
						"label": "escrows",
						"offset": 0,
						"slot": "0",
						"type": "t_mapping(t_string_memory_ptr,t_struct(EscrowData)19_storage)"
					}
				],
				"types": {
					"t_address": {
						"encoding": "inplace",
						"label": "address",
						"numberOfBytes": "20"
					},
					"t_enum(ContractStateChoices)5": {
						"encoding": "inplace",
						"label": "enum NaegiftEscrow.ContractStateChoices",
						"numberOfBytes": "1"
					},
					"t_mapping(t_string_memory_ptr,t_struct(EscrowData)19_storage)": {
						"encoding": "mapping",
						"key": "t_string_memory_ptr",
						"label": "mapping(string => struct NaegiftEscrow.EscrowData)",
						"numberOfBytes": "32",
						"value": "t_struct(EscrowData)19_storage"
					},
					"t_string_memory_ptr": {
						"encoding": "bytes",
						"label": "string",
						"numberOfBytes": "32"
					},
					"t_struct(EscrowData)19_storage": {
						"encoding": "inplace",
						"label": "struct NaegiftEscrow.EscrowData",
						"members": [
							{
								"astId": 7,
								"contract": "frontend/src/contracts/Escrow.sol:NaegiftEscrow",
								"label": "buyer",
								"offset": 0,
								"slot": "0",
								"type": "t_address"
							},
							{
								"astId": 9,
								"contract": "frontend/src/contracts/Escrow.sol:NaegiftEscrow",
								"label": "seller",
								"offset": 0,
								"slot": "1",
								"type": "t_address"
							},
							{
								"astId": 11,
								"contract": "frontend/src/contracts/Escrow.sol:NaegiftEscrow",
								"label": "receiver",
								"offset": 0,
								"slot": "2",
								"type": "t_address"
							},
							{
								"astId": 13,
								"contract": "frontend/src/contracts/Escrow.sol:NaegiftEscrow",
								"label": "market",
								"offset": 0,
								"slot": "3",
								"type": "t_address"
							},
							{
								"astId": 15,
								"contract": "frontend/src/contracts/Escrow.sol:NaegiftEscrow",
								"label": "contractPrice",
								"offset": 0,
								"slot": "4",
								"type": "t_uint256"
							},
							{
								"astId": 18,
								"contract": "frontend/src/contracts/Escrow.sol:NaegiftEscrow",
								"label": "state",
								"offset": 0,
								"slot": "5",
								"type": "t_enum(ContractStateChoices)5"
							}
						],
						"numberOfBytes": "192"
					},
					"t_uint256": {
						"encoding": "inplace",
						"label": "uint256",
						"numberOfBytes": "32"
					}
				}
			},
			"userdoc": {
				"kind": "user",
				"methods": {},
				"version": 1
			}
		}
	}
}