{
	"frontend/src/contracts/naegift_escrow_factory.sol": {
		"NaegiftEscrowFactory": {
			"abi": [
				{
					"anonymous": false,
					"inputs": [
						{
							"indexed": false,
							"internalType": "address",
							"name": "escrowAddress",
							"type": "address"
						}
					],
					"name": "EscrowCreated",
					"type": "event"
				},
				{
					"inputs": [
						{
							"internalType": "address",
							"name": "_buyer",
							"type": "address"
						},
						{
							"internalType": "address",
							"name": "_seller",
							"type": "address"
						},
						{
							"internalType": "address",
							"name": "_receiver",
							"type": "address"
						},
						{
							"internalType": "address",
							"name": "_market",
							"type": "address"
						},
						{
							"internalType": "uint256",
							"name": "_contractPrice",
							"type": "uint256"
						}
					],
					"name": "createEscrow",
					"outputs": [],
					"stateMutability": "nonpayable",
					"type": "function"
				},
				{
					"inputs": [
						{
							"internalType": "address",
							"name": "escrowAddress",
							"type": "address"
						}
					],
					"name": "existEscrow",
					"outputs": [
						{
							"internalType": "bool",
							"name": "",
							"type": "bool"
						}
					],
					"stateMutability": "view",
					"type": "function"
				}
			],
			"devdoc": {
				"kind": "dev",
				"methods": {},
				"version": 1
			},
			"evm": {
				"assembly": "    /* \"frontend/src/contracts/naegift_escrow_factory.sol\":96:809  contract NaegiftEscrowFactory {... */\n  mstore(0x40, 0x80)\n  callvalue\n  dup1\n  iszero\n  tag_1\n  jumpi\n  0x00\n  dup1\n  revert\ntag_1:\n  pop\n  dataSize(sub_0)\n  dup1\n  dataOffset(sub_0)\n  0x00\n  codecopy\n  0x00\n  return\nstop\n\nsub_0: assembly {\n        /* \"frontend/src/contracts/naegift_escrow_factory.sol\":96:809  contract NaegiftEscrowFactory {... */\n      mstore(0x40, 0x80)\n      callvalue\n      dup1\n      iszero\n      tag_1\n      jumpi\n      0x00\n      dup1\n      revert\n    tag_1:\n      pop\n      jumpi(tag_2, lt(calldatasize, 0x04))\n      shr(0xe0, calldataload(0x00))\n      dup1\n      0x7d1b4753\n      eq\n      tag_3\n      jumpi\n      dup1\n      0x99214453\n      eq\n      tag_4\n      jumpi\n    tag_2:\n      0x00\n      dup1\n      revert\n        /* \"frontend/src/contracts/naegift_escrow_factory.sol\":686:806  function existEscrow(address escrowAddress) public view returns(bool){... */\n    tag_3:\n      tag_5\n      0x04\n      dup1\n      calldatasize\n      sub\n      dup2\n      add\n      swap1\n      tag_6\n      swap2\n      swap1\n      tag_7\n      jump\t// in\n    tag_6:\n      tag_8\n      jump\t// in\n    tag_5:\n      mload(0x40)\n      tag_9\n      swap2\n      swap1\n      tag_10\n      jump\t// in\n    tag_9:\n      mload(0x40)\n      dup1\n      swap2\n      sub\n      swap1\n      return\n        /* \"frontend/src/contracts/naegift_escrow_factory.sol\":236:678  function createEscrow(... */\n    tag_4:\n      tag_11\n      0x04\n      dup1\n      calldatasize\n      sub\n      dup2\n      add\n      swap1\n      tag_12\n      swap2\n      swap1\n      tag_13\n      jump\t// in\n    tag_12:\n      tag_14\n      jump\t// in\n    tag_11:\n      stop\n        /* \"frontend/src/contracts/naegift_escrow_factory.sol\":686:806  function existEscrow(address escrowAddress) public view returns(bool){... */\n    tag_8:\n        /* \"frontend/src/contracts/naegift_escrow_factory.sol\":750:754  bool */\n      0x00\n        /* \"frontend/src/contracts/naegift_escrow_factory.sol\":773:783  escrowList */\n      dup1\n        /* \"frontend/src/contracts/naegift_escrow_factory.sol\":773:798  escrowList[escrowAddress] */\n      0x00\n        /* \"frontend/src/contracts/naegift_escrow_factory.sol\":784:797  escrowAddress */\n      dup4\n        /* \"frontend/src/contracts/naegift_escrow_factory.sol\":773:798  escrowList[escrowAddress] */\n      0xffffffffffffffffffffffffffffffffffffffff\n      and\n      0xffffffffffffffffffffffffffffffffffffffff\n      and\n      dup2\n      mstore\n      0x20\n      add\n      swap1\n      dup2\n      mstore\n      0x20\n      add\n      0x00\n      keccak256\n      0x00\n      swap1\n      sload\n      swap1\n      0x0100\n      exp\n      swap1\n      div\n      0xff\n      and\n        /* \"frontend/src/contracts/naegift_escrow_factory.sol\":766:798  return escrowList[escrowAddress] */\n      swap1\n      pop\n        /* \"frontend/src/contracts/naegift_escrow_factory.sol\":686:806  function existEscrow(address escrowAddress) public view returns(bool){... */\n      swap2\n      swap1\n      pop\n      jump\t// out\n        /* \"frontend/src/contracts/naegift_escrow_factory.sol\":236:678  function createEscrow(... */\n    tag_14:\n        /* \"frontend/src/contracts/naegift_escrow_factory.sol\":419:436  address newEscrow */\n      0x00\n        /* \"frontend/src/contracts/naegift_escrow_factory.sol\":480:486  _buyer */\n      dup6\n        /* \"frontend/src/contracts/naegift_escrow_factory.sol\":502:509  _seller */\n      dup6\n        /* \"frontend/src/contracts/naegift_escrow_factory.sol\":525:534  _receiver */\n      dup6\n        /* \"frontend/src/contracts/naegift_escrow_factory.sol\":550:557  _market */\n      dup6\n        /* \"frontend/src/contracts/naegift_escrow_factory.sol\":573:587  _contractPrice */\n      dup6\n        /* \"frontend/src/contracts/naegift_escrow_factory.sol\":447:588  new naegift_escrow(... */\n      mload(0x40)\n      tag_17\n      swap1\n      tag_18\n      jump\t// in\n    tag_17:\n      tag_19\n      swap6\n      swap5\n      swap4\n      swap3\n      swap2\n      swap1\n      tag_20\n      jump\t// in\n    tag_19:\n      mload(0x40)\n      dup1\n      swap2\n      sub\n      swap1\n      0x00\n      create\n      dup1\n      iszero\n      dup1\n      iszero\n      tag_21\n      jumpi\n      returndatasize\n      0x00\n      dup1\n      returndatacopy\n      revert(0x00, returndatasize)\n    tag_21:\n      pop\n        /* \"frontend/src/contracts/naegift_escrow_factory.sol\":419:589  address newEscrow = address(new naegift_escrow(... */\n      swap1\n      pop\n        /* \"frontend/src/contracts/naegift_escrow_factory.sol\":624:628  true */\n      0x01\n        /* \"frontend/src/contracts/naegift_escrow_factory.sol\":600:610  escrowList */\n      0x00\n        /* \"frontend/src/contracts/naegift_escrow_factory.sol\":600:621  escrowList[newEscrow] */\n      dup1\n        /* \"frontend/src/contracts/naegift_escrow_factory.sol\":611:620  newEscrow */\n      dup4\n        /* \"frontend/src/contracts/naegift_escrow_factory.sol\":600:621  escrowList[newEscrow] */\n      0xffffffffffffffffffffffffffffffffffffffff\n      and\n      0xffffffffffffffffffffffffffffffffffffffff\n      and\n      dup2\n      mstore\n      0x20\n      add\n      swap1\n      dup2\n      mstore\n      0x20\n      add\n      0x00\n      keccak256\n      0x00\n        /* \"frontend/src/contracts/naegift_escrow_factory.sol\":600:628  escrowList[newEscrow] = true */\n      0x0100\n      exp\n      dup2\n      sload\n      dup2\n      0xff\n      mul\n      not\n      and\n      swap1\n      dup4\n      iszero\n      iszero\n      mul\n      or\n      swap1\n      sstore\n      pop\n        /* \"frontend/src/contracts/naegift_escrow_factory.sol\":646:670  EscrowCreated(newEscrow) */\n      0xdc172423e65e4eb718110c42ad3b66ac4b0a613e4d07bfb55f2477f2d1bf34eb\n        /* \"frontend/src/contracts/naegift_escrow_factory.sol\":660:669  newEscrow */\n      dup2\n        /* \"frontend/src/contracts/naegift_escrow_factory.sol\":646:670  EscrowCreated(newEscrow) */\n      mload(0x40)\n      tag_22\n      swap2\n      swap1\n      tag_23\n      jump\t// in\n    tag_22:\n      mload(0x40)\n      dup1\n      swap2\n      sub\n      swap1\n      log1\n        /* \"frontend/src/contracts/naegift_escrow_factory.sol\":408:678  {... */\n      pop\n        /* \"frontend/src/contracts/naegift_escrow_factory.sol\":236:678  function createEscrow(... */\n      pop\n      pop\n      pop\n      pop\n      pop\n      jump\t// out\n    tag_18:\n      dataSize(sub_0)\n      dup1\n      dataOffset(sub_0)\n      dup4\n      codecopy\n      add\n      swap1\n      jump\t// out\n        /* \"#utility.yul\":88:205   */\n    tag_25:\n        /* \"#utility.yul\":197:198   */\n      0x00\n        /* \"#utility.yul\":194:195   */\n      dup1\n        /* \"#utility.yul\":187:199   */\n      revert\n        /* \"#utility.yul\":334:460   */\n    tag_27:\n        /* \"#utility.yul\":371:378   */\n      0x00\n        /* \"#utility.yul\":411:453   */\n      0xffffffffffffffffffffffffffffffffffffffff\n        /* \"#utility.yul\":404:409   */\n      dup3\n        /* \"#utility.yul\":400:454   */\n      and\n        /* \"#utility.yul\":389:454   */\n      swap1\n      pop\n        /* \"#utility.yul\":334:460   */\n      swap2\n      swap1\n      pop\n      jump\t// out\n        /* \"#utility.yul\":466:562   */\n    tag_28:\n        /* \"#utility.yul\":503:510   */\n      0x00\n        /* \"#utility.yul\":532:556   */\n      tag_44\n        /* \"#utility.yul\":550:555   */\n      dup3\n        /* \"#utility.yul\":532:556   */\n      tag_27\n      jump\t// in\n    tag_44:\n        /* \"#utility.yul\":521:556   */\n      swap1\n      pop\n        /* \"#utility.yul\":466:562   */\n      swap2\n      swap1\n      pop\n      jump\t// out\n        /* \"#utility.yul\":568:690   */\n    tag_29:\n        /* \"#utility.yul\":641:665   */\n      tag_46\n        /* \"#utility.yul\":659:664   */\n      dup2\n        /* \"#utility.yul\":641:665   */\n      tag_28\n      jump\t// in\n    tag_46:\n        /* \"#utility.yul\":634:639   */\n      dup2\n        /* \"#utility.yul\":631:666   */\n      eq\n        /* \"#utility.yul\":621:684   */\n      tag_47\n      jumpi\n        /* \"#utility.yul\":680:681   */\n      0x00\n        /* \"#utility.yul\":677:678   */\n      dup1\n        /* \"#utility.yul\":670:682   */\n      revert\n        /* \"#utility.yul\":621:684   */\n    tag_47:\n        /* \"#utility.yul\":568:690   */\n      pop\n      jump\t// out\n        /* \"#utility.yul\":696:835   */\n    tag_30:\n        /* \"#utility.yul\":742:747   */\n      0x00\n        /* \"#utility.yul\":780:786   */\n      dup2\n        /* \"#utility.yul\":767:787   */\n      calldataload\n        /* \"#utility.yul\":758:787   */\n      swap1\n      pop\n        /* \"#utility.yul\":796:829   */\n      tag_49\n        /* \"#utility.yul\":823:828   */\n      dup2\n        /* \"#utility.yul\":796:829   */\n      tag_29\n      jump\t// in\n    tag_49:\n        /* \"#utility.yul\":696:835   */\n      swap3\n      swap2\n      pop\n      pop\n      jump\t// out\n        /* \"#utility.yul\":841:1170   */\n    tag_7:\n        /* \"#utility.yul\":900:906   */\n      0x00\n        /* \"#utility.yul\":949:951   */\n      0x20\n        /* \"#utility.yul\":937:946   */\n      dup3\n        /* \"#utility.yul\":928:935   */\n      dup5\n        /* \"#utility.yul\":924:947   */\n      sub\n        /* \"#utility.yul\":920:952   */\n      slt\n        /* \"#utility.yul\":917:1036   */\n      iszero\n      tag_51\n      jumpi\n        /* \"#utility.yul\":955:1034   */\n      tag_52\n      tag_25\n      jump\t// in\n    tag_52:\n        /* \"#utility.yul\":917:1036   */\n    tag_51:\n        /* \"#utility.yul\":1075:1076   */\n      0x00\n        /* \"#utility.yul\":1100:1153   */\n      tag_53\n        /* \"#utility.yul\":1145:1152   */\n      dup5\n        /* \"#utility.yul\":1136:1142   */\n      dup3\n        /* \"#utility.yul\":1125:1134   */\n      dup6\n        /* \"#utility.yul\":1121:1143   */\n      add\n        /* \"#utility.yul\":1100:1153   */\n      tag_30\n      jump\t// in\n    tag_53:\n        /* \"#utility.yul\":1090:1153   */\n      swap2\n      pop\n        /* \"#utility.yul\":1046:1163   */\n      pop\n        /* \"#utility.yul\":841:1170   */\n      swap3\n      swap2\n      pop\n      pop\n      jump\t// out\n        /* \"#utility.yul\":1176:1266   */\n    tag_31:\n        /* \"#utility.yul\":1210:1217   */\n      0x00\n        /* \"#utility.yul\":1253:1258   */\n      dup2\n        /* \"#utility.yul\":1246:1259   */\n      iszero\n        /* \"#utility.yul\":1239:1260   */\n      iszero\n        /* \"#utility.yul\":1228:1260   */\n      swap1\n      pop\n        /* \"#utility.yul\":1176:1266   */\n      swap2\n      swap1\n      pop\n      jump\t// out\n        /* \"#utility.yul\":1272:1381   */\n    tag_32:\n        /* \"#utility.yul\":1353:1374   */\n      tag_56\n        /* \"#utility.yul\":1368:1373   */\n      dup2\n        /* \"#utility.yul\":1353:1374   */\n      tag_31\n      jump\t// in\n    tag_56:\n        /* \"#utility.yul\":1348:1351   */\n      dup3\n        /* \"#utility.yul\":1341:1375   */\n      mstore\n        /* \"#utility.yul\":1272:1381   */\n      pop\n      pop\n      jump\t// out\n        /* \"#utility.yul\":1387:1597   */\n    tag_10:\n        /* \"#utility.yul\":1474:1478   */\n      0x00\n        /* \"#utility.yul\":1512:1514   */\n      0x20\n        /* \"#utility.yul\":1501:1510   */\n      dup3\n        /* \"#utility.yul\":1497:1515   */\n      add\n        /* \"#utility.yul\":1489:1515   */\n      swap1\n      pop\n        /* \"#utility.yul\":1525:1590   */\n      tag_58\n        /* \"#utility.yul\":1587:1588   */\n      0x00\n        /* \"#utility.yul\":1576:1585   */\n      dup4\n        /* \"#utility.yul\":1572:1589   */\n      add\n        /* \"#utility.yul\":1563:1569   */\n      dup5\n        /* \"#utility.yul\":1525:1590   */\n      tag_32\n      jump\t// in\n    tag_58:\n        /* \"#utility.yul\":1387:1597   */\n      swap3\n      swap2\n      pop\n      pop\n      jump\t// out\n        /* \"#utility.yul\":1603:1680   */\n    tag_33:\n        /* \"#utility.yul\":1640:1647   */\n      0x00\n        /* \"#utility.yul\":1669:1674   */\n      dup2\n        /* \"#utility.yul\":1658:1674   */\n      swap1\n      pop\n        /* \"#utility.yul\":1603:1680   */\n      swap2\n      swap1\n      pop\n      jump\t// out\n        /* \"#utility.yul\":1686:1808   */\n    tag_34:\n        /* \"#utility.yul\":1759:1783   */\n      tag_61\n        /* \"#utility.yul\":1777:1782   */\n      dup2\n        /* \"#utility.yul\":1759:1783   */\n      tag_33\n      jump\t// in\n    tag_61:\n        /* \"#utility.yul\":1752:1757   */\n      dup2\n        /* \"#utility.yul\":1749:1784   */\n      eq\n        /* \"#utility.yul\":1739:1802   */\n      tag_62\n      jumpi\n        /* \"#utility.yul\":1798:1799   */\n      0x00\n        /* \"#utility.yul\":1795:1796   */\n      dup1\n        /* \"#utility.yul\":1788:1800   */\n      revert\n        /* \"#utility.yul\":1739:1802   */\n    tag_62:\n        /* \"#utility.yul\":1686:1808   */\n      pop\n      jump\t// out\n        /* \"#utility.yul\":1814:1953   */\n    tag_35:\n        /* \"#utility.yul\":1860:1865   */\n      0x00\n        /* \"#utility.yul\":1898:1904   */\n      dup2\n        /* \"#utility.yul\":1885:1905   */\n      calldataload\n        /* \"#utility.yul\":1876:1905   */\n      swap1\n      pop\n        /* \"#utility.yul\":1914:1947   */\n      tag_64\n        /* \"#utility.yul\":1941:1946   */\n      dup2\n        /* \"#utility.yul\":1914:1947   */\n      tag_34\n      jump\t// in\n    tag_64:\n        /* \"#utility.yul\":1814:1953   */\n      swap3\n      swap2\n      pop\n      pop\n      jump\t// out\n        /* \"#utility.yul\":1959:2870   */\n    tag_13:\n        /* \"#utility.yul\":2054:2060   */\n      0x00\n        /* \"#utility.yul\":2062:2068   */\n      dup1\n        /* \"#utility.yul\":2070:2076   */\n      0x00\n        /* \"#utility.yul\":2078:2084   */\n      dup1\n        /* \"#utility.yul\":2086:2092   */\n      0x00\n        /* \"#utility.yul\":2135:2138   */\n      0xa0\n        /* \"#utility.yul\":2123:2132   */\n      dup7\n        /* \"#utility.yul\":2114:2121   */\n      dup9\n        /* \"#utility.yul\":2110:2133   */\n      sub\n        /* \"#utility.yul\":2106:2139   */\n      slt\n        /* \"#utility.yul\":2103:2223   */\n      iszero\n      tag_66\n      jumpi\n        /* \"#utility.yul\":2142:2221   */\n      tag_67\n      tag_25\n      jump\t// in\n    tag_67:\n        /* \"#utility.yul\":2103:2223   */\n    tag_66:\n        /* \"#utility.yul\":2262:2263   */\n      0x00\n        /* \"#utility.yul\":2287:2340   */\n      tag_68\n        /* \"#utility.yul\":2332:2339   */\n      dup9\n        /* \"#utility.yul\":2323:2329   */\n      dup3\n        /* \"#utility.yul\":2312:2321   */\n      dup10\n        /* \"#utility.yul\":2308:2330   */\n      add\n        /* \"#utility.yul\":2287:2340   */\n      tag_30\n      jump\t// in\n    tag_68:\n        /* \"#utility.yul\":2277:2340   */\n      swap6\n      pop\n        /* \"#utility.yul\":2233:2350   */\n      pop\n        /* \"#utility.yul\":2389:2391   */\n      0x20\n        /* \"#utility.yul\":2415:2468   */\n      tag_69\n        /* \"#utility.yul\":2460:2467   */\n      dup9\n        /* \"#utility.yul\":2451:2457   */\n      dup3\n        /* \"#utility.yul\":2440:2449   */\n      dup10\n        /* \"#utility.yul\":2436:2458   */\n      add\n        /* \"#utility.yul\":2415:2468   */\n      tag_30\n      jump\t// in\n    tag_69:\n        /* \"#utility.yul\":2405:2468   */\n      swap5\n      pop\n        /* \"#utility.yul\":2360:2478   */\n      pop\n        /* \"#utility.yul\":2517:2519   */\n      0x40\n        /* \"#utility.yul\":2543:2596   */\n      tag_70\n        /* \"#utility.yul\":2588:2595   */\n      dup9\n        /* \"#utility.yul\":2579:2585   */\n      dup3\n        /* \"#utility.yul\":2568:2577   */\n      dup10\n        /* \"#utility.yul\":2564:2586   */\n      add\n        /* \"#utility.yul\":2543:2596   */\n      tag_30\n      jump\t// in\n    tag_70:\n        /* \"#utility.yul\":2533:2596   */\n      swap4\n      pop\n        /* \"#utility.yul\":2488:2606   */\n      pop\n        /* \"#utility.yul\":2645:2647   */\n      0x60\n        /* \"#utility.yul\":2671:2724   */\n      tag_71\n        /* \"#utility.yul\":2716:2723   */\n      dup9\n        /* \"#utility.yul\":2707:2713   */\n      dup3\n        /* \"#utility.yul\":2696:2705   */\n      dup10\n        /* \"#utility.yul\":2692:2714   */\n      add\n        /* \"#utility.yul\":2671:2724   */\n      tag_30\n      jump\t// in\n    tag_71:\n        /* \"#utility.yul\":2661:2724   */\n      swap3\n      pop\n        /* \"#utility.yul\":2616:2734   */\n      pop\n        /* \"#utility.yul\":2773:2776   */\n      0x80\n        /* \"#utility.yul\":2800:2853   */\n      tag_72\n        /* \"#utility.yul\":2845:2852   */\n      dup9\n        /* \"#utility.yul\":2836:2842   */\n      dup3\n        /* \"#utility.yul\":2825:2834   */\n      dup10\n        /* \"#utility.yul\":2821:2843   */\n      add\n        /* \"#utility.yul\":2800:2853   */\n      tag_35\n      jump\t// in\n    tag_72:\n        /* \"#utility.yul\":2790:2853   */\n      swap2\n      pop\n        /* \"#utility.yul\":2744:2863   */\n      pop\n        /* \"#utility.yul\":1959:2870   */\n      swap3\n      swap6\n      pop\n      swap3\n      swap6\n      swap1\n      swap4\n      pop\n      jump\t// out\n        /* \"#utility.yul\":2876:2994   */\n    tag_36:\n        /* \"#utility.yul\":2963:2987   */\n      tag_74\n        /* \"#utility.yul\":2981:2986   */\n      dup2\n        /* \"#utility.yul\":2963:2987   */\n      tag_28\n      jump\t// in\n    tag_74:\n        /* \"#utility.yul\":2958:2961   */\n      dup3\n        /* \"#utility.yul\":2951:2988   */\n      mstore\n        /* \"#utility.yul\":2876:2994   */\n      pop\n      pop\n      jump\t// out\n        /* \"#utility.yul\":3000:3118   */\n    tag_37:\n        /* \"#utility.yul\":3087:3111   */\n      tag_76\n        /* \"#utility.yul\":3105:3110   */\n      dup2\n        /* \"#utility.yul\":3087:3111   */\n      tag_33\n      jump\t// in\n    tag_76:\n        /* \"#utility.yul\":3082:3085   */\n      dup3\n        /* \"#utility.yul\":3075:3112   */\n      mstore\n        /* \"#utility.yul\":3000:3118   */\n      pop\n      pop\n      jump\t// out\n        /* \"#utility.yul\":3124:3788   */\n    tag_20:\n        /* \"#utility.yul\":3329:3333   */\n      0x00\n        /* \"#utility.yul\":3367:3370   */\n      0xa0\n        /* \"#utility.yul\":3356:3365   */\n      dup3\n        /* \"#utility.yul\":3352:3371   */\n      add\n        /* \"#utility.yul\":3344:3371   */\n      swap1\n      pop\n        /* \"#utility.yul\":3381:3452   */\n      tag_78\n        /* \"#utility.yul\":3449:3450   */\n      0x00\n        /* \"#utility.yul\":3438:3447   */\n      dup4\n        /* \"#utility.yul\":3434:3451   */\n      add\n        /* \"#utility.yul\":3425:3431   */\n      dup9\n        /* \"#utility.yul\":3381:3452   */\n      tag_36\n      jump\t// in\n    tag_78:\n        /* \"#utility.yul\":3462:3534   */\n      tag_79\n        /* \"#utility.yul\":3530:3532   */\n      0x20\n        /* \"#utility.yul\":3519:3528   */\n      dup4\n        /* \"#utility.yul\":3515:3533   */\n      add\n        /* \"#utility.yul\":3506:3512   */\n      dup8\n        /* \"#utility.yul\":3462:3534   */\n      tag_36\n      jump\t// in\n    tag_79:\n        /* \"#utility.yul\":3544:3616   */\n      tag_80\n        /* \"#utility.yul\":3612:3614   */\n      0x40\n        /* \"#utility.yul\":3601:3610   */\n      dup4\n        /* \"#utility.yul\":3597:3615   */\n      add\n        /* \"#utility.yul\":3588:3594   */\n      dup7\n        /* \"#utility.yul\":3544:3616   */\n      tag_36\n      jump\t// in\n    tag_80:\n        /* \"#utility.yul\":3626:3698   */\n      tag_81\n        /* \"#utility.yul\":3694:3696   */\n      0x60\n        /* \"#utility.yul\":3683:3692   */\n      dup4\n        /* \"#utility.yul\":3679:3697   */\n      add\n        /* \"#utility.yul\":3670:3676   */\n      dup6\n        /* \"#utility.yul\":3626:3698   */\n      tag_36\n      jump\t// in\n    tag_81:\n        /* \"#utility.yul\":3708:3781   */\n      tag_82\n        /* \"#utility.yul\":3776:3779   */\n      0x80\n        /* \"#utility.yul\":3765:3774   */\n      dup4\n        /* \"#utility.yul\":3761:3780   */\n      add\n        /* \"#utility.yul\":3752:3758   */\n      dup5\n        /* \"#utility.yul\":3708:3781   */\n      tag_37\n      jump\t// in\n    tag_82:\n        /* \"#utility.yul\":3124:3788   */\n      swap7\n      swap6\n      pop\n      pop\n      pop\n      pop\n      pop\n      pop\n      jump\t// out\n        /* \"#utility.yul\":3794:4016   */\n    tag_23:\n        /* \"#utility.yul\":3887:3891   */\n      0x00\n        /* \"#utility.yul\":3925:3927   */\n      0x20\n        /* \"#utility.yul\":3914:3923   */\n      dup3\n        /* \"#utility.yul\":3910:3928   */\n      add\n        /* \"#utility.yul\":3902:3928   */\n      swap1\n      pop\n        /* \"#utility.yul\":3938:4009   */\n      tag_84\n        /* \"#utility.yul\":4006:4007   */\n      0x00\n        /* \"#utility.yul\":3995:4004   */\n      dup4\n        /* \"#utility.yul\":3991:4008   */\n      add\n        /* \"#utility.yul\":3982:3988   */\n      dup5\n        /* \"#utility.yul\":3938:4009   */\n      tag_36\n      jump\t// in\n    tag_84:\n        /* \"#utility.yul\":3794:4016   */\n      swap3\n      swap2\n      pop\n      pop\n      jump\t// out\n    stop\n\n    sub_0: assembly {\n            /* \"frontend/src/contracts/naegift_escrow.sol\":60:3064  contract naegift_escrow {... */\n          mstore(0x40, 0x0120)\n            /* \"frontend/src/contracts/naegift_escrow.sol\":476:1199  constructor(... */\n          mload(0x40)\n          sub(codesize, bytecodeSize)\n          dup1\n          bytecodeSize\n          dup4\n          codecopy\n          dup2\n          dup2\n          add\n          0x40\n          mstore\n          dup2\n          add\n          swap1\n          tag_1\n          swap2\n          swap1\n          tag_2\n          jump\t// in\n        tag_1:\n            /* \"frontend/src/contracts/naegift_escrow.sol\":670:677  _seller */\n          dup4\n            /* \"frontend/src/contracts/naegift_escrow.sol\":660:677  _buyer != _seller */\n          0xffffffffffffffffffffffffffffffffffffffff\n          and\n            /* \"frontend/src/contracts/naegift_escrow.sol\":660:666  _buyer */\n          dup6\n            /* \"frontend/src/contracts/naegift_escrow.sol\":660:677  _buyer != _seller */\n          0xffffffffffffffffffffffffffffffffffffffff\n          and\n          eq\n          iszero\n            /* \"frontend/src/contracts/naegift_escrow.sol\":660:709  _buyer != _seller &&  ... */\n          dup1\n          iszero\n          tag_5\n          jumpi\n          pop\n            /* \"frontend/src/contracts/naegift_escrow.sol\":702:709  _market */\n          dup2\n            /* \"frontend/src/contracts/naegift_escrow.sol\":692:709  _buyer != _market */\n          0xffffffffffffffffffffffffffffffffffffffff\n          and\n            /* \"frontend/src/contracts/naegift_escrow.sol\":692:698  _buyer */\n          dup6\n            /* \"frontend/src/contracts/naegift_escrow.sol\":692:709  _buyer != _market */\n          0xffffffffffffffffffffffffffffffffffffffff\n          and\n          eq\n          iszero\n            /* \"frontend/src/contracts/naegift_escrow.sol\":660:709  _buyer != _seller &&  ... */\n        tag_5:\n            /* \"frontend/src/contracts/naegift_escrow.sol\":660:743  _buyer != _seller &&  ... */\n          dup1\n          iszero\n          tag_6\n          jumpi\n          pop\n            /* \"frontend/src/contracts/naegift_escrow.sol\":734:743  _receiver */\n          dup3\n            /* \"frontend/src/contracts/naegift_escrow.sol\":723:743  _seller != _receiver */\n          0xffffffffffffffffffffffffffffffffffffffff\n          and\n            /* \"frontend/src/contracts/naegift_escrow.sol\":723:730  _seller */\n          dup5\n            /* \"frontend/src/contracts/naegift_escrow.sol\":723:743  _seller != _receiver */\n          0xffffffffffffffffffffffffffffffffffffffff\n          and\n          eq\n          iszero\n            /* \"frontend/src/contracts/naegift_escrow.sol\":660:743  _buyer != _seller &&  ... */\n        tag_6:\n            /* \"frontend/src/contracts/naegift_escrow.sol\":660:775  _buyer != _seller &&  ... */\n          dup1\n          iszero\n          tag_7\n          jumpi\n          pop\n            /* \"frontend/src/contracts/naegift_escrow.sol\":768:775  _market */\n          dup2\n            /* \"frontend/src/contracts/naegift_escrow.sol\":757:775  _seller != _market */\n          0xffffffffffffffffffffffffffffffffffffffff\n          and\n            /* \"frontend/src/contracts/naegift_escrow.sol\":757:764  _seller */\n          dup5\n            /* \"frontend/src/contracts/naegift_escrow.sol\":757:775  _seller != _market */\n          0xffffffffffffffffffffffffffffffffffffffff\n          and\n          eq\n          iszero\n            /* \"frontend/src/contracts/naegift_escrow.sol\":660:775  _buyer != _seller &&  ... */\n        tag_7:\n            /* \"frontend/src/contracts/naegift_escrow.sol\":660:809  _buyer != _seller &&  ... */\n          dup1\n          iszero\n          tag_8\n          jumpi\n          pop\n            /* \"frontend/src/contracts/naegift_escrow.sol\":802:809  _market */\n          dup2\n            /* \"frontend/src/contracts/naegift_escrow.sol\":789:809  _receiver != _market */\n          0xffffffffffffffffffffffffffffffffffffffff\n          and\n            /* \"frontend/src/contracts/naegift_escrow.sol\":789:798  _receiver */\n          dup4\n            /* \"frontend/src/contracts/naegift_escrow.sol\":789:809  _receiver != _market */\n          0xffffffffffffffffffffffffffffffffffffffff\n          and\n          eq\n          iszero\n            /* \"frontend/src/contracts/naegift_escrow.sol\":660:809  _buyer != _seller &&  ... */\n        tag_8:\n            /* \"frontend/src/contracts/naegift_escrow.sol\":652:818  require(_buyer != _seller &&  ... */\n          tag_9\n          jumpi\n          mload(0x40)\n          0x08c379a000000000000000000000000000000000000000000000000000000000\n          dup2\n          mstore\n          0x04\n          add\n          tag_10\n          swap1\n          tag_11\n          jump\t// in\n        tag_10:\n          mload(0x40)\n          dup1\n          swap2\n          sub\n          swap1\n          revert\n        tag_9:\n            /* \"frontend/src/contracts/naegift_escrow.sol\":851:857  _buyer */\n          dup5\n            /* \"frontend/src/contracts/naegift_escrow.sol\":837:857  msg.sender == _buyer */\n          0xffffffffffffffffffffffffffffffffffffffff\n          and\n            /* \"frontend/src/contracts/naegift_escrow.sol\":837:847  msg.sender */\n          caller\n            /* \"frontend/src/contracts/naegift_escrow.sol\":837:857  msg.sender == _buyer */\n          0xffffffffffffffffffffffffffffffffffffffff\n          and\n          eq\n            /* \"frontend/src/contracts/naegift_escrow.sol\":837:892  msg.sender == _buyer || ... */\n          dup1\n          tag_12\n          jumpi\n          pop\n            /* \"frontend/src/contracts/naegift_escrow.sol\":885:892  _seller */\n          dup4\n            /* \"frontend/src/contracts/naegift_escrow.sol\":871:892  msg.sender == _seller */\n          0xffffffffffffffffffffffffffffffffffffffff\n          and\n            /* \"frontend/src/contracts/naegift_escrow.sol\":871:881  msg.sender */\n          caller\n            /* \"frontend/src/contracts/naegift_escrow.sol\":871:892  msg.sender == _seller */\n          0xffffffffffffffffffffffffffffffffffffffff\n          and\n          eq\n            /* \"frontend/src/contracts/naegift_escrow.sol\":837:892  msg.sender == _buyer || ... */\n        tag_12:\n            /* \"frontend/src/contracts/naegift_escrow.sol\":837:929  msg.sender == _buyer || ... */\n          dup1\n          tag_13\n          jumpi\n          pop\n            /* \"frontend/src/contracts/naegift_escrow.sol\":920:929  _receiver */\n          dup3\n            /* \"frontend/src/contracts/naegift_escrow.sol\":906:929  msg.sender == _receiver */\n          0xffffffffffffffffffffffffffffffffffffffff\n          and\n            /* \"frontend/src/contracts/naegift_escrow.sol\":906:916  msg.sender */\n          caller\n            /* \"frontend/src/contracts/naegift_escrow.sol\":906:929  msg.sender == _receiver */\n          0xffffffffffffffffffffffffffffffffffffffff\n          and\n          eq\n            /* \"frontend/src/contracts/naegift_escrow.sol\":837:929  msg.sender == _buyer || ... */\n        tag_13:\n            /* \"frontend/src/contracts/naegift_escrow.sol\":829:938  require(msg.sender == _buyer || ... */\n          tag_14\n          jumpi\n          mload(0x40)\n          0x08c379a000000000000000000000000000000000000000000000000000000000\n          dup2\n          mstore\n          0x04\n          add\n          tag_15\n          swap1\n          tag_16\n          jump\t// in\n        tag_15:\n          mload(0x40)\n          dup1\n          swap2\n          sub\n          swap1\n          revert\n        tag_14:\n            /* \"frontend/src/contracts/naegift_escrow.sol\":974:975  0 */\n          0x00\n            /* \"frontend/src/contracts/naegift_escrow.sol\":957:971  _contractPrice */\n          dup2\n            /* \"frontend/src/contracts/naegift_escrow.sol\":957:975  _contractPrice > 0 */\n          gt\n            /* \"frontend/src/contracts/naegift_escrow.sol\":949:984  require(_contractPrice > 0, 'e006') */\n          tag_17\n          jumpi\n          mload(0x40)\n          0x08c379a000000000000000000000000000000000000000000000000000000000\n          dup2\n          mstore\n          0x04\n          add\n          tag_18\n          swap1\n          tag_19\n          jump\t// in\n        tag_18:\n          mload(0x40)\n          dup1\n          swap2\n          sub\n          swap1\n          revert\n        tag_17:\n            /* \"frontend/src/contracts/naegift_escrow.sol\":1011:1025  _contractPrice */\n          dup1\n            /* \"frontend/src/contracts/naegift_escrow.sol\":995:1025  contractPrice = _contractPrice */\n          0x0100\n          dup2\n          dup2\n          mstore\n          pop\n          pop\n            /* \"frontend/src/contracts/naegift_escrow.sol\":1044:1050  _buyer */\n          dup5\n            /* \"frontend/src/contracts/naegift_escrow.sol\":1036:1050  buyer = _buyer */\n          0xffffffffffffffffffffffffffffffffffffffff\n          and\n          0x80\n          dup2\n          0xffffffffffffffffffffffffffffffffffffffff\n          and\n          dup2\n          mstore\n          pop\n          pop\n            /* \"frontend/src/contracts/naegift_escrow.sol\":1070:1077  _seller */\n          dup4\n            /* \"frontend/src/contracts/naegift_escrow.sol\":1061:1077  seller = _seller */\n          0xffffffffffffffffffffffffffffffffffffffff\n          and\n          0xa0\n          dup2\n          0xffffffffffffffffffffffffffffffffffffffff\n          and\n          dup2\n          mstore\n          pop\n          pop\n            /* \"frontend/src/contracts/naegift_escrow.sol\":1099:1108  _receiver */\n          dup3\n            /* \"frontend/src/contracts/naegift_escrow.sol\":1088:1108  receiver = _receiver */\n          0xffffffffffffffffffffffffffffffffffffffff\n          and\n          0xc0\n          dup2\n          0xffffffffffffffffffffffffffffffffffffffff\n          and\n          dup2\n          mstore\n          pop\n          pop\n            /* \"frontend/src/contracts/naegift_escrow.sol\":1128:1135  _market */\n          dup2\n            /* \"frontend/src/contracts/naegift_escrow.sol\":1119:1135  market = _market */\n          0xffffffffffffffffffffffffffffffffffffffff\n          and\n          0xe0\n          dup2\n          0xffffffffffffffffffffffffffffffffffffffff\n          and\n          dup2\n          mstore\n          pop\n          pop\n            /* \"frontend/src/contracts/naegift_escrow.sol\":1162:1191  ContractStateChoices.DEPLOYED */\n          0x00\n            /* \"frontend/src/contracts/naegift_escrow.sol\":1146:1159  ContractState */\n          dup1\n          0x00\n            /* \"frontend/src/contracts/naegift_escrow.sol\":1146:1191  ContractState = ContractStateChoices.DEPLOYED */\n          0x0100\n          exp\n          dup2\n          sload\n          dup2\n          0xff\n          mul\n          not\n          and\n          swap1\n          dup4\n          0x04\n          dup2\n          gt\n          iszero\n          tag_20\n          jumpi\n          tag_21\n          tag_22\n          jump\t// in\n        tag_21:\n        tag_20:\n          mul\n          or\n          swap1\n          sstore\n          pop\n            /* \"frontend/src/contracts/naegift_escrow.sol\":476:1199  constructor(... */\n          pop\n          pop\n          pop\n          pop\n          pop\n            /* \"frontend/src/contracts/naegift_escrow.sol\":60:3064  contract naegift_escrow {... */\n          jump(tag_23)\n            /* \"#utility.yul\":88:205   */\n        tag_25:\n            /* \"#utility.yul\":197:198   */\n          0x00\n            /* \"#utility.yul\":194:195   */\n          dup1\n            /* \"#utility.yul\":187:199   */\n          revert\n            /* \"#utility.yul\":334:460   */\n        tag_27:\n            /* \"#utility.yul\":371:378   */\n          0x00\n            /* \"#utility.yul\":411:453   */\n          0xffffffffffffffffffffffffffffffffffffffff\n            /* \"#utility.yul\":404:409   */\n          dup3\n            /* \"#utility.yul\":400:454   */\n          and\n            /* \"#utility.yul\":389:454   */\n          swap1\n          pop\n            /* \"#utility.yul\":334:460   */\n          swap2\n          swap1\n          pop\n          jump\t// out\n            /* \"#utility.yul\":466:562   */\n        tag_28:\n            /* \"#utility.yul\":503:510   */\n          0x00\n            /* \"#utility.yul\":532:556   */\n          tag_47\n            /* \"#utility.yul\":550:555   */\n          dup3\n            /* \"#utility.yul\":532:556   */\n          tag_27\n          jump\t// in\n        tag_47:\n            /* \"#utility.yul\":521:556   */\n          swap1\n          pop\n            /* \"#utility.yul\":466:562   */\n          swap2\n          swap1\n          pop\n          jump\t// out\n            /* \"#utility.yul\":568:690   */\n        tag_29:\n            /* \"#utility.yul\":641:665   */\n          tag_49\n            /* \"#utility.yul\":659:664   */\n          dup2\n            /* \"#utility.yul\":641:665   */\n          tag_28\n          jump\t// in\n        tag_49:\n            /* \"#utility.yul\":634:639   */\n          dup2\n            /* \"#utility.yul\":631:666   */\n          eq\n            /* \"#utility.yul\":621:684   */\n          tag_50\n          jumpi\n            /* \"#utility.yul\":680:681   */\n          0x00\n            /* \"#utility.yul\":677:678   */\n          dup1\n            /* \"#utility.yul\":670:682   */\n          revert\n            /* \"#utility.yul\":621:684   */\n        tag_50:\n            /* \"#utility.yul\":568:690   */\n          pop\n          jump\t// out\n            /* \"#utility.yul\":696:839   */\n        tag_30:\n            /* \"#utility.yul\":753:758   */\n          0x00\n            /* \"#utility.yul\":784:790   */\n          dup2\n            /* \"#utility.yul\":778:791   */\n          mload\n            /* \"#utility.yul\":769:791   */\n          swap1\n          pop\n            /* \"#utility.yul\":800:833   */\n          tag_52\n            /* \"#utility.yul\":827:832   */\n          dup2\n            /* \"#utility.yul\":800:833   */\n          tag_29\n          jump\t// in\n        tag_52:\n            /* \"#utility.yul\":696:839   */\n          swap3\n          swap2\n          pop\n          pop\n          jump\t// out\n            /* \"#utility.yul\":845:922   */\n        tag_31:\n            /* \"#utility.yul\":882:889   */\n          0x00\n            /* \"#utility.yul\":911:916   */\n          dup2\n            /* \"#utility.yul\":900:916   */\n          swap1\n          pop\n            /* \"#utility.yul\":845:922   */\n          swap2\n          swap1\n          pop\n          jump\t// out\n            /* \"#utility.yul\":928:1050   */\n        tag_32:\n            /* \"#utility.yul\":1001:1025   */\n          tag_55\n            /* \"#utility.yul\":1019:1024   */\n          dup2\n            /* \"#utility.yul\":1001:1025   */\n          tag_31\n          jump\t// in\n        tag_55:\n            /* \"#utility.yul\":994:999   */\n          dup2\n            /* \"#utility.yul\":991:1026   */\n          eq\n            /* \"#utility.yul\":981:1044   */\n          tag_56\n          jumpi\n            /* \"#utility.yul\":1040:1041   */\n          0x00\n            /* \"#utility.yul\":1037:1038   */\n          dup1\n            /* \"#utility.yul\":1030:1042   */\n          revert\n            /* \"#utility.yul\":981:1044   */\n        tag_56:\n            /* \"#utility.yul\":928:1050   */\n          pop\n          jump\t// out\n            /* \"#utility.yul\":1056:1199   */\n        tag_33:\n            /* \"#utility.yul\":1113:1118   */\n          0x00\n            /* \"#utility.yul\":1144:1150   */\n          dup2\n            /* \"#utility.yul\":1138:1151   */\n          mload\n            /* \"#utility.yul\":1129:1151   */\n          swap1\n          pop\n            /* \"#utility.yul\":1160:1193   */\n          tag_58\n            /* \"#utility.yul\":1187:1192   */\n          dup2\n            /* \"#utility.yul\":1160:1193   */\n          tag_32\n          jump\t// in\n        tag_58:\n            /* \"#utility.yul\":1056:1199   */\n          swap3\n          swap2\n          pop\n          pop\n          jump\t// out\n            /* \"#utility.yul\":1205:2182   */\n        tag_2:\n            /* \"#utility.yul\":1311:1317   */\n          0x00\n            /* \"#utility.yul\":1319:1325   */\n          dup1\n            /* \"#utility.yul\":1327:1333   */\n          0x00\n            /* \"#utility.yul\":1335:1341   */\n          dup1\n            /* \"#utility.yul\":1343:1349   */\n          0x00\n            /* \"#utility.yul\":1392:1395   */\n          0xa0\n            /* \"#utility.yul\":1380:1389   */\n          dup7\n            /* \"#utility.yul\":1371:1378   */\n          dup9\n            /* \"#utility.yul\":1367:1390   */\n          sub\n            /* \"#utility.yul\":1363:1396   */\n          slt\n            /* \"#utility.yul\":1360:1480   */\n          iszero\n          tag_60\n          jumpi\n            /* \"#utility.yul\":1399:1478   */\n          tag_61\n          tag_25\n          jump\t// in\n        tag_61:\n            /* \"#utility.yul\":1360:1480   */\n        tag_60:\n            /* \"#utility.yul\":1519:1520   */\n          0x00\n            /* \"#utility.yul\":1544:1608   */\n          tag_62\n            /* \"#utility.yul\":1600:1607   */\n          dup9\n            /* \"#utility.yul\":1591:1597   */\n          dup3\n            /* \"#utility.yul\":1580:1589   */\n          dup10\n            /* \"#utility.yul\":1576:1598   */\n          add\n            /* \"#utility.yul\":1544:1608   */\n          tag_30\n          jump\t// in\n        tag_62:\n            /* \"#utility.yul\":1534:1608   */\n          swap6\n          pop\n            /* \"#utility.yul\":1490:1618   */\n          pop\n            /* \"#utility.yul\":1657:1659   */\n          0x20\n            /* \"#utility.yul\":1683:1747   */\n          tag_63\n            /* \"#utility.yul\":1739:1746   */\n          dup9\n            /* \"#utility.yul\":1730:1736   */\n          dup3\n            /* \"#utility.yul\":1719:1728   */\n          dup10\n            /* \"#utility.yul\":1715:1737   */\n          add\n            /* \"#utility.yul\":1683:1747   */\n          tag_30\n          jump\t// in\n        tag_63:\n            /* \"#utility.yul\":1673:1747   */\n          swap5\n          pop\n            /* \"#utility.yul\":1628:1757   */\n          pop\n            /* \"#utility.yul\":1796:1798   */\n          0x40\n            /* \"#utility.yul\":1822:1886   */\n          tag_64\n            /* \"#utility.yul\":1878:1885   */\n          dup9\n            /* \"#utility.yul\":1869:1875   */\n          dup3\n            /* \"#utility.yul\":1858:1867   */\n          dup10\n            /* \"#utility.yul\":1854:1876   */\n          add\n            /* \"#utility.yul\":1822:1886   */\n          tag_30\n          jump\t// in\n        tag_64:\n            /* \"#utility.yul\":1812:1886   */\n          swap4\n          pop\n            /* \"#utility.yul\":1767:1896   */\n          pop\n            /* \"#utility.yul\":1935:1937   */\n          0x60\n            /* \"#utility.yul\":1961:2025   */\n          tag_65\n            /* \"#utility.yul\":2017:2024   */\n          dup9\n            /* \"#utility.yul\":2008:2014   */\n          dup3\n            /* \"#utility.yul\":1997:2006   */\n          dup10\n            /* \"#utility.yul\":1993:2015   */\n          add\n            /* \"#utility.yul\":1961:2025   */\n          tag_30\n          jump\t// in\n        tag_65:\n            /* \"#utility.yul\":1951:2025   */\n          swap3\n          pop\n            /* \"#utility.yul\":1906:2035   */\n          pop\n            /* \"#utility.yul\":2074:2077   */\n          0x80\n            /* \"#utility.yul\":2101:2165   */\n          tag_66\n            /* \"#utility.yul\":2157:2164   */\n          dup9\n            /* \"#utility.yul\":2148:2154   */\n          dup3\n            /* \"#utility.yul\":2137:2146   */\n          dup10\n            /* \"#utility.yul\":2133:2155   */\n          add\n            /* \"#utility.yul\":2101:2165   */\n          tag_33\n          jump\t// in\n        tag_66:\n            /* \"#utility.yul\":2091:2165   */\n          swap2\n          pop\n            /* \"#utility.yul\":2045:2175   */\n          pop\n            /* \"#utility.yul\":1205:2182   */\n          swap3\n          swap6\n          pop\n          swap3\n          swap6\n          swap1\n          swap4\n          pop\n          jump\t// out\n            /* \"#utility.yul\":2188:2357   */\n        tag_34:\n            /* \"#utility.yul\":2272:2283   */\n          0x00\n            /* \"#utility.yul\":2306:2312   */\n          dup3\n            /* \"#utility.yul\":2301:2304   */\n          dup3\n            /* \"#utility.yul\":2294:2313   */\n          mstore\n            /* \"#utility.yul\":2346:2350   */\n          0x20\n            /* \"#utility.yul\":2341:2344   */\n          dup3\n            /* \"#utility.yul\":2337:2351   */\n          add\n            /* \"#utility.yul\":2322:2351   */\n          swap1\n          pop\n            /* \"#utility.yul\":2188:2357   */\n          swap3\n          swap2\n          pop\n          pop\n          jump\t// out\n            /* \"#utility.yul\":2363:2517   */\n        tag_35:\n            /* \"#utility.yul\":2503:2509   */\n          0x6530303100000000000000000000000000000000000000000000000000000000\n            /* \"#utility.yul\":2499:2500   */\n          0x00\n            /* \"#utility.yul\":2491:2497   */\n          dup3\n            /* \"#utility.yul\":2487:2501   */\n          add\n            /* \"#utility.yul\":2480:2510   */\n          mstore\n            /* \"#utility.yul\":2363:2517   */\n          pop\n          jump\t// out\n            /* \"#utility.yul\":2523:2888   */\n        tag_36:\n            /* \"#utility.yul\":2665:2668   */\n          0x00\n            /* \"#utility.yul\":2686:2752   */\n          tag_70\n            /* \"#utility.yul\":2750:2751   */\n          0x04\n            /* \"#utility.yul\":2745:2748   */\n          dup4\n            /* \"#utility.yul\":2686:2752   */\n          tag_34\n          jump\t// in\n        tag_70:\n            /* \"#utility.yul\":2679:2752   */\n          swap2\n          pop\n            /* \"#utility.yul\":2761:2854   */\n          tag_71\n            /* \"#utility.yul\":2850:2853   */\n          dup3\n            /* \"#utility.yul\":2761:2854   */\n          tag_35\n          jump\t// in\n        tag_71:\n            /* \"#utility.yul\":2879:2881   */\n          0x20\n            /* \"#utility.yul\":2874:2877   */\n          dup3\n            /* \"#utility.yul\":2870:2882   */\n          add\n            /* \"#utility.yul\":2863:2882   */\n          swap1\n          pop\n            /* \"#utility.yul\":2523:2888   */\n          swap2\n          swap1\n          pop\n          jump\t// out\n            /* \"#utility.yul\":2894:3313   */\n        tag_11:\n            /* \"#utility.yul\":3060:3064   */\n          0x00\n            /* \"#utility.yul\":3098:3100   */\n          0x20\n            /* \"#utility.yul\":3087:3096   */\n          dup3\n            /* \"#utility.yul\":3083:3101   */\n          add\n            /* \"#utility.yul\":3075:3101   */\n          swap1\n          pop\n            /* \"#utility.yul\":3147:3156   */\n          dup2\n            /* \"#utility.yul\":3141:3145   */\n          dup2\n            /* \"#utility.yul\":3137:3157   */\n          sub\n            /* \"#utility.yul\":3133:3134   */\n          0x00\n            /* \"#utility.yul\":3122:3131   */\n          dup4\n            /* \"#utility.yul\":3118:3135   */\n          add\n            /* \"#utility.yul\":3111:3158   */\n          mstore\n            /* \"#utility.yul\":3175:3306   */\n          tag_73\n            /* \"#utility.yul\":3301:3305   */\n          dup2\n            /* \"#utility.yul\":3175:3306   */\n          tag_36\n          jump\t// in\n        tag_73:\n            /* \"#utility.yul\":3167:3306   */\n          swap1\n          pop\n            /* \"#utility.yul\":2894:3313   */\n          swap2\n          swap1\n          pop\n          jump\t// out\n            /* \"#utility.yul\":3319:3473   */\n        tag_37:\n            /* \"#utility.yul\":3459:3465   */\n          0x6530303300000000000000000000000000000000000000000000000000000000\n            /* \"#utility.yul\":3455:3456   */\n          0x00\n            /* \"#utility.yul\":3447:3453   */\n          dup3\n            /* \"#utility.yul\":3443:3457   */\n          add\n            /* \"#utility.yul\":3436:3466   */\n          mstore\n            /* \"#utility.yul\":3319:3473   */\n          pop\n          jump\t// out\n            /* \"#utility.yul\":3479:3844   */\n        tag_38:\n            /* \"#utility.yul\":3621:3624   */\n          0x00\n            /* \"#utility.yul\":3642:3708   */\n          tag_76\n            /* \"#utility.yul\":3706:3707   */\n          0x04\n            /* \"#utility.yul\":3701:3704   */\n          dup4\n            /* \"#utility.yul\":3642:3708   */\n          tag_34\n          jump\t// in\n        tag_76:\n            /* \"#utility.yul\":3635:3708   */\n          swap2\n          pop\n            /* \"#utility.yul\":3717:3810   */\n          tag_77\n            /* \"#utility.yul\":3806:3809   */\n          dup3\n            /* \"#utility.yul\":3717:3810   */\n          tag_37\n          jump\t// in\n        tag_77:\n            /* \"#utility.yul\":3835:3837   */\n          0x20\n            /* \"#utility.yul\":3830:3833   */\n          dup3\n            /* \"#utility.yul\":3826:3838   */\n          add\n            /* \"#utility.yul\":3819:3838   */\n          swap1\n          pop\n            /* \"#utility.yul\":3479:3844   */\n          swap2\n          swap1\n          pop\n          jump\t// out\n            /* \"#utility.yul\":3850:4269   */\n        tag_16:\n            /* \"#utility.yul\":4016:4020   */\n          0x00\n            /* \"#utility.yul\":4054:4056   */\n          0x20\n            /* \"#utility.yul\":4043:4052   */\n          dup3\n            /* \"#utility.yul\":4039:4057   */\n          add\n            /* \"#utility.yul\":4031:4057   */\n          swap1\n          pop\n            /* \"#utility.yul\":4103:4112   */\n          dup2\n            /* \"#utility.yul\":4097:4101   */\n          dup2\n            /* \"#utility.yul\":4093:4113   */\n          sub\n            /* \"#utility.yul\":4089:4090   */\n          0x00\n            /* \"#utility.yul\":4078:4087   */\n          dup4\n            /* \"#utility.yul\":4074:4091   */\n          add\n            /* \"#utility.yul\":4067:4114   */\n          mstore\n            /* \"#utility.yul\":4131:4262   */\n          tag_79\n            /* \"#utility.yul\":4257:4261   */\n          dup2\n            /* \"#utility.yul\":4131:4262   */\n          tag_38\n          jump\t// in\n        tag_79:\n            /* \"#utility.yul\":4123:4262   */\n          swap1\n          pop\n            /* \"#utility.yul\":3850:4269   */\n          swap2\n          swap1\n          pop\n          jump\t// out\n            /* \"#utility.yul\":4275:4429   */\n        tag_39:\n            /* \"#utility.yul\":4415:4421   */\n          0x6530303600000000000000000000000000000000000000000000000000000000\n            /* \"#utility.yul\":4411:4412   */\n          0x00\n            /* \"#utility.yul\":4403:4409   */\n          dup3\n            /* \"#utility.yul\":4399:4413   */\n          add\n            /* \"#utility.yul\":4392:4422   */\n          mstore\n            /* \"#utility.yul\":4275:4429   */\n          pop\n          jump\t// out\n            /* \"#utility.yul\":4435:4800   */\n        tag_40:\n            /* \"#utility.yul\":4577:4580   */\n          0x00\n            /* \"#utility.yul\":4598:4664   */\n          tag_82\n            /* \"#utility.yul\":4662:4663   */\n          0x04\n            /* \"#utility.yul\":4657:4660   */\n          dup4\n            /* \"#utility.yul\":4598:4664   */\n          tag_34\n          jump\t// in\n        tag_82:\n            /* \"#utility.yul\":4591:4664   */\n          swap2\n          pop\n            /* \"#utility.yul\":4673:4766   */\n          tag_83\n            /* \"#utility.yul\":4762:4765   */\n          dup3\n            /* \"#utility.yul\":4673:4766   */\n          tag_39\n          jump\t// in\n        tag_83:\n            /* \"#utility.yul\":4791:4793   */\n          0x20\n            /* \"#utility.yul\":4786:4789   */\n          dup3\n            /* \"#utility.yul\":4782:4794   */\n          add\n            /* \"#utility.yul\":4775:4794   */\n          swap1\n          pop\n            /* \"#utility.yul\":4435:4800   */\n          swap2\n          swap1\n          pop\n          jump\t// out\n            /* \"#utility.yul\":4806:5225   */\n        tag_19:\n            /* \"#utility.yul\":4972:4976   */\n          0x00\n            /* \"#utility.yul\":5010:5012   */\n          0x20\n            /* \"#utility.yul\":4999:5008   */\n          dup3\n            /* \"#utility.yul\":4995:5013   */\n          add\n            /* \"#utility.yul\":4987:5013   */\n          swap1\n          pop\n            /* \"#utility.yul\":5059:5068   */\n          dup2\n            /* \"#utility.yul\":5053:5057   */\n          dup2\n            /* \"#utility.yul\":5049:5069   */\n          sub\n            /* \"#utility.yul\":5045:5046   */\n          0x00\n            /* \"#utility.yul\":5034:5043   */\n          dup4\n            /* \"#utility.yul\":5030:5047   */\n          add\n            /* \"#utility.yul\":5023:5070   */\n          mstore\n            /* \"#utility.yul\":5087:5218   */\n          tag_85\n            /* \"#utility.yul\":5213:5217   */\n          dup2\n            /* \"#utility.yul\":5087:5218   */\n          tag_40\n          jump\t// in\n        tag_85:\n            /* \"#utility.yul\":5079:5218   */\n          swap1\n          pop\n            /* \"#utility.yul\":4806:5225   */\n          swap2\n          swap1\n          pop\n          jump\t// out\n            /* \"#utility.yul\":5231:5411   */\n        tag_22:\n            /* \"#utility.yul\":5279:5356   */\n          0x4e487b7100000000000000000000000000000000000000000000000000000000\n            /* \"#utility.yul\":5276:5277   */\n          0x00\n            /* \"#utility.yul\":5269:5357   */\n          mstore\n            /* \"#utility.yul\":5376:5380   */\n          0x21\n            /* \"#utility.yul\":5373:5374   */\n          0x04\n            /* \"#utility.yul\":5366:5381   */\n          mstore\n            /* \"#utility.yul\":5400:5404   */\n          0x24\n            /* \"#utility.yul\":5397:5398   */\n          0x00\n            /* \"#utility.yul\":5390:5405   */\n          revert\n            /* \"frontend/src/contracts/naegift_escrow.sol\":60:3064  contract naegift_escrow {... */\n        tag_23:\n          mload(0x80)\n          mload(0xa0)\n          mload(0xc0)\n          mload(0xe0)\n          mload(0x0100)\n          codecopy(0x00, dataOffset(sub_0), dataSize(sub_0))\n          0x00\n          assignImmutable(\"0x742ccb3c5ad7b0e2030ad7fa03711e32b9f4236452343c6e16a6cf67d464d149\")\n          0x00\n          assignImmutable(\"0x63867b8d5e748cf93e24f7b381d92337d037805bfc271d6d67e0e86772662677\")\n          0x00\n          assignImmutable(\"0xf1ae7da53f98170be52cc9330214a82f7ba06ee306297b4e1fb86fb21c611aa6\")\n          0x00\n          assignImmutable(\"0x57014f1e5f1d53e43fa40624186159531d6372d1ab8f40ec7882845ca66de31d\")\n          0x00\n          assignImmutable(\"0x8fd0324b6a5df169e0aa0c7938ef0034d0e971a998f91b36eba211882d3617b1\")\n          return(0x00, dataSize(sub_0))\n        stop\n\n        sub_0: assembly {\n                /* \"frontend/src/contracts/naegift_escrow.sol\":60:3064  contract naegift_escrow {... */\n              mstore(0x40, 0x80)\n              jumpi(tag_1, lt(calldatasize, 0x04))\n              shr(0xe0, calldataload(0x00))\n              dup1\n              0x80f55605\n              gt\n              tag_12\n              jumpi\n              dup1\n              0x80f55605\n              eq\n              tag_7\n              jumpi\n              dup1\n              0x97e9a0bf\n              eq\n              tag_8\n              jumpi\n              dup1\n              0x9c1d9e3e\n              eq\n              tag_9\n              jumpi\n              dup1\n              0xd2c9ea03\n              eq\n              tag_10\n              jumpi\n              dup1\n              0xf7260d3e\n              eq\n              tag_11\n              jumpi\n              jump(tag_1)\n            tag_12:\n              dup1\n              0x08551a53\n              eq\n              tag_2\n              jumpi\n              dup1\n              0x18609960\n              eq\n              tag_3\n              jumpi\n              dup1\n              0x25b00885\n              eq\n              tag_4\n              jumpi\n              dup1\n              0x4fbc4f60\n              eq\n              tag_5\n              jumpi\n              dup1\n              0x7150d8ae\n              eq\n              tag_6\n              jumpi\n            tag_1:\n              0x00\n              dup1\n              revert\n                /* \"frontend/src/contracts/naegift_escrow.sol\":128:159  address public immutable seller */\n            tag_2:\n              callvalue\n              dup1\n              iszero\n              tag_13\n              jumpi\n              0x00\n              dup1\n              revert\n            tag_13:\n              pop\n              tag_14\n              tag_15\n              jump\t// in\n            tag_14:\n              mload(0x40)\n              tag_16\n              swap2\n              swap1\n              tag_17\n              jump\t// in\n            tag_16:\n              mload(0x40)\n              dup1\n              swap2\n              sub\n              swap1\n              return\n                /* \"frontend/src/contracts/naegift_escrow.sol\":2946:3053  function escrowStatus() external view returns(ContractStateChoices) {... */\n            tag_3:\n              callvalue\n              dup1\n              iszero\n              tag_18\n              jumpi\n              0x00\n              dup1\n              revert\n            tag_18:\n              pop\n              tag_19\n              tag_20\n              jump\t// in\n            tag_19:\n              mload(0x40)\n              tag_21\n              swap2\n              swap1\n              tag_22\n              jump\t// in\n            tag_21:\n              mload(0x40)\n              dup1\n              swap2\n              sub\n              swap1\n              return\n                /* \"frontend/src/contracts/naegift_escrow.sol\":1229:1521  function confirmDeposit() external payable {... */\n            tag_4:\n              tag_23\n              tag_24\n              jump\t// in\n            tag_23:\n              stop\n                /* \"frontend/src/contracts/naegift_escrow.sol\":1819:2081  function confirmProductUsed() external {... */\n            tag_5:\n              callvalue\n              dup1\n              iszero\n              tag_25\n              jumpi\n              0x00\n              dup1\n              revert\n            tag_25:\n              pop\n              tag_26\n              tag_27\n              jump\t// in\n            tag_26:\n              stop\n                /* \"frontend/src/contracts/naegift_escrow.sol\":91:121  address public immutable buyer */\n            tag_6:\n              callvalue\n              dup1\n              iszero\n              tag_28\n              jumpi\n              0x00\n              dup1\n              revert\n            tag_28:\n              pop\n              tag_29\n              tag_30\n              jump\t// in\n            tag_29:\n              mload(0x40)\n              tag_31\n              swap2\n              swap1\n              tag_17\n              jump\t// in\n            tag_31:\n              mload(0x40)\n              dup1\n              swap2\n              sub\n              swap1\n              return\n                /* \"frontend/src/contracts/naegift_escrow.sol\":206:237  address public immutable market */\n            tag_7:\n              callvalue\n              dup1\n              iszero\n              tag_32\n              jumpi\n              0x00\n              dup1\n              revert\n            tag_32:\n              pop\n              tag_33\n              tag_34\n              jump\t// in\n            tag_33:\n              mload(0x40)\n              tag_35\n              swap2\n              swap1\n              tag_17\n              jump\t// in\n            tag_35:\n              mload(0x40)\n              dup1\n              swap2\n              sub\n              swap1\n              return\n                /* \"frontend/src/contracts/naegift_escrow.sol\":244:282  uint256 public immutable contractPrice */\n            tag_8:\n              callvalue\n              dup1\n              iszero\n              tag_36\n              jumpi\n              0x00\n              dup1\n              revert\n            tag_36:\n              pop\n              tag_37\n              tag_38\n              jump\t// in\n            tag_37:\n              mload(0x40)\n              tag_39\n              swap2\n              swap1\n              tag_40\n              jump\t// in\n            tag_39:\n              mload(0x40)\n              dup1\n              swap2\n              sub\n              swap1\n              return\n                /* \"frontend/src/contracts/naegift_escrow.sol\":426:467  ContractStateChoices public ContractState */\n            tag_9:\n              callvalue\n              dup1\n              iszero\n              tag_41\n              jumpi\n              0x00\n              dup1\n              revert\n            tag_41:\n              pop\n              tag_42\n              tag_43\n              jump\t// in\n            tag_42:\n              mload(0x40)\n              tag_44\n              swap2\n              swap1\n              tag_22\n              jump\t// in\n            tag_44:\n              mload(0x40)\n              dup1\n              swap2\n              sub\n              swap1\n              return\n                /* \"frontend/src/contracts/naegift_escrow.sol\":1558:1782  function confirmFulfillment() external {... */\n            tag_10:\n              callvalue\n              dup1\n              iszero\n              tag_45\n              jumpi\n              0x00\n              dup1\n              revert\n            tag_45:\n              pop\n              tag_46\n              tag_47\n              jump\t// in\n            tag_46:\n              stop\n                /* \"frontend/src/contracts/naegift_escrow.sol\":166:199  address public immutable receiver */\n            tag_11:\n              callvalue\n              dup1\n              iszero\n              tag_48\n              jumpi\n              0x00\n              dup1\n              revert\n            tag_48:\n              pop\n              tag_49\n              tag_50\n              jump\t// in\n            tag_49:\n              mload(0x40)\n              tag_51\n              swap2\n              swap1\n              tag_17\n              jump\t// in\n            tag_51:\n              mload(0x40)\n              dup1\n              swap2\n              sub\n              swap1\n              return\n                /* \"frontend/src/contracts/naegift_escrow.sol\":128:159  address public immutable seller */\n            tag_15:\n              immutable(\"0x57014f1e5f1d53e43fa40624186159531d6372d1ab8f40ec7882845ca66de31d\")\n              dup2\n              jump\t// out\n                /* \"frontend/src/contracts/naegift_escrow.sol\":2946:3053  function escrowStatus() external view returns(ContractStateChoices) {... */\n            tag_20:\n                /* \"frontend/src/contracts/naegift_escrow.sol\":2992:3012  ContractStateChoices */\n              0x00\n                /* \"frontend/src/contracts/naegift_escrow.sol\":3032:3045  ContractState */\n              dup1\n              0x00\n              swap1\n              sload\n              swap1\n              0x0100\n              exp\n              swap1\n              div\n              0xff\n              and\n                /* \"frontend/src/contracts/naegift_escrow.sol\":3025:3045  return ContractState */\n              swap1\n              pop\n                /* \"frontend/src/contracts/naegift_escrow.sol\":2946:3053  function escrowStatus() external view returns(ContractStateChoices) {... */\n              swap1\n              jump\t// out\n                /* \"frontend/src/contracts/naegift_escrow.sol\":1229:1521  function confirmDeposit() external payable {... */\n            tag_24:\n                /* \"frontend/src/contracts/naegift_escrow.sol\":1305:1310  buyer */\n              immutable(\"0x8fd0324b6a5df169e0aa0c7938ef0034d0e971a998f91b36eba211882d3617b1\")\n                /* \"frontend/src/contracts/naegift_escrow.sol\":1291:1310  msg.sender == buyer */\n              0xffffffffffffffffffffffffffffffffffffffff\n              and\n                /* \"frontend/src/contracts/naegift_escrow.sol\":1291:1301  msg.sender */\n              caller\n                /* \"frontend/src/contracts/naegift_escrow.sol\":1291:1310  msg.sender == buyer */\n              0xffffffffffffffffffffffffffffffffffffffff\n              and\n              eq\n                /* \"frontend/src/contracts/naegift_escrow.sol\":1283:1319  require(msg.sender == buyer, \"e003\") */\n              tag_54\n              jumpi\n              mload(0x40)\n              0x08c379a000000000000000000000000000000000000000000000000000000000\n              dup2\n              mstore\n              0x04\n              add\n              tag_55\n              swap1\n              tag_56\n              jump\t// in\n            tag_55:\n              mload(0x40)\n              dup1\n              swap2\n              sub\n              swap1\n              revert\n            tag_54:\n                /* \"frontend/src/contracts/naegift_escrow.sol\":1355:1384  ContractStateChoices.DEPLOYED */\n              0x00\n                /* \"frontend/src/contracts/naegift_escrow.sol\":1338:1384  ContractState == ContractStateChoices.DEPLOYED */\n              0x04\n              dup2\n              gt\n              iszero\n              tag_57\n              jumpi\n              tag_58\n              tag_59\n              jump\t// in\n            tag_58:\n            tag_57:\n                /* \"frontend/src/contracts/naegift_escrow.sol\":1338:1351  ContractState */\n              0x00\n              dup1\n              sload\n              swap1\n              0x0100\n              exp\n              swap1\n              div\n              0xff\n              and\n                /* \"frontend/src/contracts/naegift_escrow.sol\":1338:1384  ContractState == ContractStateChoices.DEPLOYED */\n              0x04\n              dup2\n              gt\n              iszero\n              tag_60\n              jumpi\n              tag_61\n              tag_59\n              jump\t// in\n            tag_61:\n            tag_60:\n              eq\n                /* \"frontend/src/contracts/naegift_escrow.sol\":1330:1393  require(ContractState == ContractStateChoices.DEPLOYED, 'e013') */\n              tag_62\n              jumpi\n              mload(0x40)\n              0x08c379a000000000000000000000000000000000000000000000000000000000\n              dup2\n              mstore\n              0x04\n              add\n              tag_63\n              swap1\n              tag_64\n              jump\t// in\n            tag_63:\n              mload(0x40)\n              dup1\n              swap2\n              sub\n              swap1\n              revert\n            tag_62:\n                /* \"frontend/src/contracts/naegift_escrow.sol\":1437:1450  contractPrice */\n              immutable(\"0x742ccb3c5ad7b0e2030ad7fa03711e32b9f4236452343c6e16a6cf67d464d149\")\n                /* \"frontend/src/contracts/naegift_escrow.sol\":1412:1433  address(this).balance */\n              selfbalance\n                /* \"frontend/src/contracts/naegift_escrow.sol\":1412:1450  address(this).balance >= contractPrice */\n              lt\n              iszero\n                /* \"frontend/src/contracts/naegift_escrow.sol\":1404:1459  require(address(this).balance >= contractPrice, 'e002') */\n              tag_65\n              jumpi\n              mload(0x40)\n              0x08c379a000000000000000000000000000000000000000000000000000000000\n              dup2\n              mstore\n              0x04\n              add\n              tag_66\n              swap1\n              tag_67\n              jump\t// in\n            tag_66:\n              mload(0x40)\n              dup1\n              swap2\n              sub\n              swap1\n              revert\n            tag_65:\n                /* \"frontend/src/contracts/naegift_escrow.sol\":1486:1513  ContractStateChoices.ACTIVE */\n              0x01\n                /* \"frontend/src/contracts/naegift_escrow.sol\":1470:1483  ContractState */\n              0x00\n              dup1\n                /* \"frontend/src/contracts/naegift_escrow.sol\":1470:1513  ContractState = ContractStateChoices.ACTIVE */\n              0x0100\n              exp\n              dup2\n              sload\n              dup2\n              0xff\n              mul\n              not\n              and\n              swap1\n              dup4\n              0x04\n              dup2\n              gt\n              iszero\n              tag_68\n              jumpi\n              tag_69\n              tag_59\n              jump\t// in\n            tag_69:\n            tag_68:\n              mul\n              or\n              swap1\n              sstore\n              pop\n                /* \"frontend/src/contracts/naegift_escrow.sol\":1229:1521  function confirmDeposit() external payable {... */\n              jump\t// out\n                /* \"frontend/src/contracts/naegift_escrow.sol\":1819:2081  function confirmProductUsed() external {... */\n            tag_27:\n                /* \"frontend/src/contracts/naegift_escrow.sol\":1891:1899  receiver */\n              immutable(\"0xf1ae7da53f98170be52cc9330214a82f7ba06ee306297b4e1fb86fb21c611aa6\")\n                /* \"frontend/src/contracts/naegift_escrow.sol\":1877:1899  msg.sender == receiver */\n              0xffffffffffffffffffffffffffffffffffffffff\n              and\n                /* \"frontend/src/contracts/naegift_escrow.sol\":1877:1887  msg.sender */\n              caller\n                /* \"frontend/src/contracts/naegift_escrow.sol\":1877:1899  msg.sender == receiver */\n              0xffffffffffffffffffffffffffffffffffffffff\n              and\n              eq\n                /* \"frontend/src/contracts/naegift_escrow.sol\":1869:1908  require(msg.sender == receiver, 'e020') */\n              tag_71\n              jumpi\n              mload(0x40)\n              0x08c379a000000000000000000000000000000000000000000000000000000000\n              dup2\n              mstore\n              0x04\n              add\n              tag_72\n              swap1\n              tag_73\n              jump\t// in\n            tag_72:\n              mload(0x40)\n              dup1\n              swap2\n              sub\n              swap1\n              revert\n            tag_71:\n                /* \"frontend/src/contracts/naegift_escrow.sol\":1945:1975  ContractStateChoices.FULFILLED */\n              0x02\n                /* \"frontend/src/contracts/naegift_escrow.sol\":1928:1975  ContractState == ContractStateChoices.FULFILLED */\n              0x04\n              dup2\n              gt\n              iszero\n              tag_74\n              jumpi\n              tag_75\n              tag_59\n              jump\t// in\n            tag_75:\n            tag_74:\n                /* \"frontend/src/contracts/naegift_escrow.sol\":1928:1941  ContractState */\n              0x00\n              dup1\n              sload\n              swap1\n              0x0100\n              exp\n              swap1\n              div\n              0xff\n              and\n                /* \"frontend/src/contracts/naegift_escrow.sol\":1928:1975  ContractState == ContractStateChoices.FULFILLED */\n              0x04\n              dup2\n              gt\n              iszero\n              tag_76\n              jumpi\n              tag_77\n              tag_59\n              jump\t// in\n            tag_77:\n            tag_76:\n              eq\n                /* \"frontend/src/contracts/naegift_escrow.sol\":1920:1984  require(ContractState == ContractStateChoices.FULFILLED, 'e021') */\n              tag_78\n              jumpi\n              mload(0x40)\n              0x08c379a000000000000000000000000000000000000000000000000000000000\n              dup2\n              mstore\n              0x04\n              add\n              tag_79\n              swap1\n              tag_80\n              jump\t// in\n            tag_79:\n              mload(0x40)\n              dup1\n              swap2\n              sub\n              swap1\n              revert\n            tag_78:\n                /* \"frontend/src/contracts/naegift_escrow.sol\":2011:2044  ContractStateChoices.PRODUCT_USED */\n              0x03\n                /* \"frontend/src/contracts/naegift_escrow.sol\":1995:2008  ContractState */\n              0x00\n              dup1\n                /* \"frontend/src/contracts/naegift_escrow.sol\":1995:2044  ContractState = ContractStateChoices.PRODUCT_USED */\n              0x0100\n              exp\n              dup2\n              sload\n              dup2\n              0xff\n              mul\n              not\n              and\n              swap1\n              dup4\n              0x04\n              dup2\n              gt\n              iszero\n              tag_81\n              jumpi\n              tag_82\n              tag_59\n              jump\t// in\n            tag_82:\n            tag_81:\n              mul\n              or\n              swap1\n              sstore\n              pop\n                /* \"frontend/src/contracts/naegift_escrow.sol\":2055:2072  distributeFunds() */\n              tag_83\n                /* \"frontend/src/contracts/naegift_escrow.sol\":2055:2070  distributeFunds */\n              tag_84\n                /* \"frontend/src/contracts/naegift_escrow.sol\":2055:2072  distributeFunds() */\n              jump\t// in\n            tag_83:\n                /* \"frontend/src/contracts/naegift_escrow.sol\":1819:2081  function confirmProductUsed() external {... */\n              jump\t// out\n                /* \"frontend/src/contracts/naegift_escrow.sol\":91:121  address public immutable buyer */\n            tag_30:\n              immutable(\"0x8fd0324b6a5df169e0aa0c7938ef0034d0e971a998f91b36eba211882d3617b1\")\n              dup2\n              jump\t// out\n                /* \"frontend/src/contracts/naegift_escrow.sol\":206:237  address public immutable market */\n            tag_34:\n              immutable(\"0x63867b8d5e748cf93e24f7b381d92337d037805bfc271d6d67e0e86772662677\")\n              dup2\n              jump\t// out\n                /* \"frontend/src/contracts/naegift_escrow.sol\":244:282  uint256 public immutable contractPrice */\n            tag_38:\n              immutable(\"0x742ccb3c5ad7b0e2030ad7fa03711e32b9f4236452343c6e16a6cf67d464d149\")\n              dup2\n              jump\t// out\n                /* \"frontend/src/contracts/naegift_escrow.sol\":426:467  ContractStateChoices public ContractState */\n            tag_43:\n              0x00\n              dup1\n              sload\n              swap1\n              0x0100\n              exp\n              swap1\n              div\n              0xff\n              and\n              dup2\n              jump\t// out\n                /* \"frontend/src/contracts/naegift_escrow.sol\":1558:1782  function confirmFulfillment() external {... */\n            tag_47:\n                /* \"frontend/src/contracts/naegift_escrow.sol\":1630:1636  market */\n              immutable(\"0x63867b8d5e748cf93e24f7b381d92337d037805bfc271d6d67e0e86772662677\")\n                /* \"frontend/src/contracts/naegift_escrow.sol\":1616:1636  msg.sender == market */\n              0xffffffffffffffffffffffffffffffffffffffff\n              and\n                /* \"frontend/src/contracts/naegift_escrow.sol\":1616:1626  msg.sender */\n              caller\n                /* \"frontend/src/contracts/naegift_escrow.sol\":1616:1636  msg.sender == market */\n              0xffffffffffffffffffffffffffffffffffffffff\n              and\n              eq\n                /* \"frontend/src/contracts/naegift_escrow.sol\":1608:1645  require(msg.sender == market, 'e024') */\n              tag_86\n              jumpi\n              mload(0x40)\n              0x08c379a000000000000000000000000000000000000000000000000000000000\n              dup2\n              mstore\n              0x04\n              add\n              tag_87\n              swap1\n              tag_88\n              jump\t// in\n            tag_87:\n              mload(0x40)\n              dup1\n              swap2\n              sub\n              swap1\n              revert\n            tag_86:\n                /* \"frontend/src/contracts/naegift_escrow.sol\":1681:1708  ContractStateChoices.ACTIVE */\n              0x01\n                /* \"frontend/src/contracts/naegift_escrow.sol\":1664:1708  ContractState == ContractStateChoices.ACTIVE */\n              0x04\n              dup2\n              gt\n              iszero\n              tag_89\n              jumpi\n              tag_90\n              tag_59\n              jump\t// in\n            tag_90:\n            tag_89:\n                /* \"frontend/src/contracts/naegift_escrow.sol\":1664:1677  ContractState */\n              0x00\n              dup1\n              sload\n              swap1\n              0x0100\n              exp\n              swap1\n              div\n              0xff\n              and\n                /* \"frontend/src/contracts/naegift_escrow.sol\":1664:1708  ContractState == ContractStateChoices.ACTIVE */\n              0x04\n              dup2\n              gt\n              iszero\n              tag_91\n              jumpi\n              tag_92\n              tag_59\n              jump\t// in\n            tag_92:\n            tag_91:\n              eq\n                /* \"frontend/src/contracts/naegift_escrow.sol\":1656:1717  require(ContractState == ContractStateChoices.ACTIVE, 'e013') */\n              tag_93\n              jumpi\n              mload(0x40)\n              0x08c379a000000000000000000000000000000000000000000000000000000000\n              dup2\n              mstore\n              0x04\n              add\n              tag_94\n              swap1\n              tag_64\n              jump\t// in\n            tag_94:\n              mload(0x40)\n              dup1\n              swap2\n              sub\n              swap1\n              revert\n            tag_93:\n                /* \"frontend/src/contracts/naegift_escrow.sol\":1744:1774  ContractStateChoices.FULFILLED */\n              0x02\n                /* \"frontend/src/contracts/naegift_escrow.sol\":1728:1741  ContractState */\n              0x00\n              dup1\n                /* \"frontend/src/contracts/naegift_escrow.sol\":1728:1774  ContractState = ContractStateChoices.FULFILLED */\n              0x0100\n              exp\n              dup2\n              sload\n              dup2\n              0xff\n              mul\n              not\n              and\n              swap1\n              dup4\n              0x04\n              dup2\n              gt\n              iszero\n              tag_95\n              jumpi\n              tag_96\n              tag_59\n              jump\t// in\n            tag_96:\n            tag_95:\n              mul\n              or\n              swap1\n              sstore\n              pop\n                /* \"frontend/src/contracts/naegift_escrow.sol\":1558:1782  function confirmFulfillment() external {... */\n              jump\t// out\n                /* \"frontend/src/contracts/naegift_escrow.sol\":166:199  address public immutable receiver */\n            tag_50:\n              immutable(\"0xf1ae7da53f98170be52cc9330214a82f7ba06ee306297b4e1fb86fb21c611aa6\")\n              dup2\n              jump\t// out\n                /* \"frontend/src/contracts/naegift_escrow.sol\":2118:2504  function distributeFunds() private {... */\n            tag_84:\n                /* \"frontend/src/contracts/naegift_escrow.sol\":2189:2222  ContractStateChoices.PRODUCT_USED */\n              0x03\n                /* \"frontend/src/contracts/naegift_escrow.sol\":2172:2222  ContractState == ContractStateChoices.PRODUCT_USED */\n              0x04\n              dup2\n              gt\n              iszero\n              tag_98\n              jumpi\n              tag_99\n              tag_59\n              jump\t// in\n            tag_99:\n            tag_98:\n                /* \"frontend/src/contracts/naegift_escrow.sol\":2172:2185  ContractState */\n              0x00\n              dup1\n              sload\n              swap1\n              0x0100\n              exp\n              swap1\n              div\n              0xff\n              and\n                /* \"frontend/src/contracts/naegift_escrow.sol\":2172:2222  ContractState == ContractStateChoices.PRODUCT_USED */\n              0x04\n              dup2\n              gt\n              iszero\n              tag_100\n              jumpi\n              tag_101\n              tag_59\n              jump\t// in\n            tag_101:\n            tag_100:\n              eq\n                /* \"frontend/src/contracts/naegift_escrow.sol\":2164:2231  require(ContractState == ContractStateChoices.PRODUCT_USED, 'e022') */\n              tag_102\n              jumpi\n              mload(0x40)\n              0x08c379a000000000000000000000000000000000000000000000000000000000\n              dup2\n              mstore\n              0x04\n              add\n              tag_103\n              swap1\n              tag_104\n              jump\t// in\n            tag_103:\n              mload(0x40)\n              dup1\n              swap2\n              sub\n              swap1\n              revert\n            tag_102:\n                /* \"frontend/src/contracts/naegift_escrow.sol\":2242:2261  uint256 marketShare */\n              0x00\n                /* \"frontend/src/contracts/naegift_escrow.sol\":2280:2282  10 */\n              0x0a\n                /* \"frontend/src/contracts/naegift_escrow.sol\":2264:2277  contractPrice */\n              immutable(\"0x742ccb3c5ad7b0e2030ad7fa03711e32b9f4236452343c6e16a6cf67d464d149\")\n                /* \"frontend/src/contracts/naegift_escrow.sol\":2264:2282  contractPrice / 10 */\n              tag_105\n              swap2\n              swap1\n              tag_106\n              jump\t// in\n            tag_105:\n                /* \"frontend/src/contracts/naegift_escrow.sol\":2242:2282  uint256 marketShare = contractPrice / 10 */\n              swap1\n              pop\n                /* \"frontend/src/contracts/naegift_escrow.sol\":2294:2313  uint256 sellerShare */\n              0x00\n                /* \"frontend/src/contracts/naegift_escrow.sol\":2332:2343  marketShare */\n              dup2\n                /* \"frontend/src/contracts/naegift_escrow.sol\":2316:2329  contractPrice */\n              immutable(\"0x742ccb3c5ad7b0e2030ad7fa03711e32b9f4236452343c6e16a6cf67d464d149\")\n                /* \"frontend/src/contracts/naegift_escrow.sol\":2316:2343  contractPrice - marketShare */\n              tag_107\n              swap2\n              swap1\n              tag_108\n              jump\t// in\n            tag_107:\n                /* \"frontend/src/contracts/naegift_escrow.sol\":2294:2343  uint256 sellerShare = contractPrice - marketShare */\n              swap1\n              pop\n                /* \"frontend/src/contracts/naegift_escrow.sol\":2363:2369  market */\n              immutable(\"0x63867b8d5e748cf93e24f7b381d92337d037805bfc271d6d67e0e86772662677\")\n                /* \"frontend/src/contracts/naegift_escrow.sol\":2355:2379  payable(market).transfer */\n              0xffffffffffffffffffffffffffffffffffffffff\n              and\n                /* \"frontend/src/contracts/naegift_escrow.sol\":2355:2392  payable(market).transfer(marketShare) */\n              0x08fc\n                /* \"frontend/src/contracts/naegift_escrow.sol\":2380:2391  marketShare */\n              dup4\n                /* \"frontend/src/contracts/naegift_escrow.sol\":2355:2392  payable(market).transfer(marketShare) */\n              swap1\n              dup2\n              iszero\n              mul\n              swap1\n              mload(0x40)\n              0x00\n              mload(0x40)\n              dup1\n              dup4\n              sub\n              dup2\n              dup6\n              dup9\n              dup9\n              call\n              swap4\n              pop\n              pop\n              pop\n              pop\n              iszero\n              dup1\n              iszero\n              tag_110\n              jumpi\n              returndatasize\n              0x00\n              dup1\n              returndatacopy\n              revert(0x00, returndatasize)\n            tag_110:\n              pop\n                /* \"frontend/src/contracts/naegift_escrow.sol\":2411:2417  seller */\n              immutable(\"0x57014f1e5f1d53e43fa40624186159531d6372d1ab8f40ec7882845ca66de31d\")\n                /* \"frontend/src/contracts/naegift_escrow.sol\":2403:2427  payable(seller).transfer */\n              0xffffffffffffffffffffffffffffffffffffffff\n              and\n                /* \"frontend/src/contracts/naegift_escrow.sol\":2403:2440  payable(seller).transfer(sellerShare) */\n              0x08fc\n                /* \"frontend/src/contracts/naegift_escrow.sol\":2428:2439  sellerShare */\n              dup3\n                /* \"frontend/src/contracts/naegift_escrow.sol\":2403:2440  payable(seller).transfer(sellerShare) */\n              swap1\n              dup2\n              iszero\n              mul\n              swap1\n              mload(0x40)\n              0x00\n              mload(0x40)\n              dup1\n              dup4\n              sub\n              dup2\n              dup6\n              dup9\n              dup9\n              call\n              swap4\n              pop\n              pop\n              pop\n              pop\n              iszero\n              dup1\n              iszero\n              tag_112\n              jumpi\n              returndatasize\n              0x00\n              dup1\n              returndatacopy\n              revert(0x00, returndatasize)\n            tag_112:\n              pop\n                /* \"frontend/src/contracts/naegift_escrow.sol\":2467:2496  ContractStateChoices.EXECUTED */\n              0x04\n                /* \"frontend/src/contracts/naegift_escrow.sol\":2451:2464  ContractState */\n              0x00\n              dup1\n                /* \"frontend/src/contracts/naegift_escrow.sol\":2451:2496  ContractState = ContractStateChoices.EXECUTED */\n              0x0100\n              exp\n              dup2\n              sload\n              dup2\n              0xff\n              mul\n              not\n              and\n              swap1\n              dup4\n              0x04\n              dup2\n              gt\n              iszero\n              tag_113\n              jumpi\n              tag_114\n              tag_59\n              jump\t// in\n            tag_114:\n            tag_113:\n              mul\n              or\n              swap1\n              sstore\n              pop\n                /* \"frontend/src/contracts/naegift_escrow.sol\":2153:2504  {... */\n              pop\n              pop\n                /* \"frontend/src/contracts/naegift_escrow.sol\":2118:2504  function distributeFunds() private {... */\n              jump\t// out\n                /* \"#utility.yul\":7:133   */\n            tag_115:\n                /* \"#utility.yul\":44:51   */\n              0x00\n                /* \"#utility.yul\":84:126   */\n              0xffffffffffffffffffffffffffffffffffffffff\n                /* \"#utility.yul\":77:82   */\n              dup3\n                /* \"#utility.yul\":73:127   */\n              and\n                /* \"#utility.yul\":62:127   */\n              swap1\n              pop\n                /* \"#utility.yul\":7:133   */\n              swap2\n              swap1\n              pop\n              jump\t// out\n                /* \"#utility.yul\":139:235   */\n            tag_116:\n                /* \"#utility.yul\":176:183   */\n              0x00\n                /* \"#utility.yul\":205:229   */\n              tag_144\n                /* \"#utility.yul\":223:228   */\n              dup3\n                /* \"#utility.yul\":205:229   */\n              tag_115\n              jump\t// in\n            tag_144:\n                /* \"#utility.yul\":194:229   */\n              swap1\n              pop\n                /* \"#utility.yul\":139:235   */\n              swap2\n              swap1\n              pop\n              jump\t// out\n                /* \"#utility.yul\":241:359   */\n            tag_117:\n                /* \"#utility.yul\":328:352   */\n              tag_146\n                /* \"#utility.yul\":346:351   */\n              dup2\n                /* \"#utility.yul\":328:352   */\n              tag_116\n              jump\t// in\n            tag_146:\n                /* \"#utility.yul\":323:326   */\n              dup3\n                /* \"#utility.yul\":316:353   */\n              mstore\n                /* \"#utility.yul\":241:359   */\n              pop\n              pop\n              jump\t// out\n                /* \"#utility.yul\":365:587   */\n            tag_17:\n                /* \"#utility.yul\":458:462   */\n              0x00\n                /* \"#utility.yul\":496:498   */\n              0x20\n                /* \"#utility.yul\":485:494   */\n              dup3\n                /* \"#utility.yul\":481:499   */\n              add\n                /* \"#utility.yul\":473:499   */\n              swap1\n              pop\n                /* \"#utility.yul\":509:580   */\n              tag_148\n                /* \"#utility.yul\":577:578   */\n              0x00\n                /* \"#utility.yul\":566:575   */\n              dup4\n                /* \"#utility.yul\":562:579   */\n              add\n                /* \"#utility.yul\":553:559   */\n              dup5\n                /* \"#utility.yul\":509:580   */\n              tag_117\n              jump\t// in\n            tag_148:\n                /* \"#utility.yul\":365:587   */\n              swap3\n              swap2\n              pop\n              pop\n              jump\t// out\n                /* \"#utility.yul\":593:773   */\n            tag_59:\n                /* \"#utility.yul\":641:718   */\n              0x4e487b7100000000000000000000000000000000000000000000000000000000\n                /* \"#utility.yul\":638:639   */\n              0x00\n                /* \"#utility.yul\":631:719   */\n              mstore\n                /* \"#utility.yul\":738:742   */\n              0x21\n                /* \"#utility.yul\":735:736   */\n              0x04\n                /* \"#utility.yul\":728:743   */\n              mstore\n                /* \"#utility.yul\":762:766   */\n              0x24\n                /* \"#utility.yul\":759:760   */\n              0x00\n                /* \"#utility.yul\":752:767   */\n              revert\n                /* \"#utility.yul\":779:907   */\n            tag_118:\n                /* \"#utility.yul\":875:876   */\n              0x05\n                /* \"#utility.yul\":868:873   */\n              dup2\n                /* \"#utility.yul\":865:877   */\n              lt\n                /* \"#utility.yul\":855:901   */\n              tag_151\n              jumpi\n                /* \"#utility.yul\":881:899   */\n              tag_152\n              tag_59\n              jump\t// in\n            tag_152:\n                /* \"#utility.yul\":855:901   */\n            tag_151:\n                /* \"#utility.yul\":779:907   */\n              pop\n              jump\t// out\n                /* \"#utility.yul\":913:1070   */\n            tag_119:\n                /* \"#utility.yul\":973:980   */\n              0x00\n                /* \"#utility.yul\":1002:1007   */\n              dup2\n                /* \"#utility.yul\":991:1007   */\n              swap1\n              pop\n                /* \"#utility.yul\":1008:1064   */\n              tag_154\n                /* \"#utility.yul\":1058:1063   */\n              dup3\n                /* \"#utility.yul\":1008:1064   */\n              tag_118\n              jump\t// in\n            tag_154:\n                /* \"#utility.yul\":913:1070   */\n              swap2\n              swap1\n              pop\n              jump\t// out\n                /* \"#utility.yul\":1076:1233   */\n            tag_120:\n                /* \"#utility.yul\":1147:1156   */\n              0x00\n                /* \"#utility.yul\":1180:1227   */\n              tag_156\n                /* \"#utility.yul\":1221:1226   */\n              dup3\n                /* \"#utility.yul\":1180:1227   */\n              tag_119\n              jump\t// in\n            tag_156:\n                /* \"#utility.yul\":1167:1227   */\n              swap1\n              pop\n                /* \"#utility.yul\":1076:1233   */\n              swap2\n              swap1\n              pop\n              jump\t// out\n                /* \"#utility.yul\":1239:1412   */\n            tag_121:\n                /* \"#utility.yul\":1347:1405   */\n              tag_158\n                /* \"#utility.yul\":1399:1404   */\n              dup2\n                /* \"#utility.yul\":1347:1405   */\n              tag_120\n              jump\t// in\n            tag_158:\n                /* \"#utility.yul\":1342:1345   */\n              dup3\n                /* \"#utility.yul\":1335:1406   */\n              mstore\n                /* \"#utility.yul\":1239:1412   */\n              pop\n              pop\n              jump\t// out\n                /* \"#utility.yul\":1418:1682   */\n            tag_22:\n                /* \"#utility.yul\":1532:1536   */\n              0x00\n                /* \"#utility.yul\":1570:1572   */\n              0x20\n                /* \"#utility.yul\":1559:1568   */\n              dup3\n                /* \"#utility.yul\":1555:1573   */\n              add\n                /* \"#utility.yul\":1547:1573   */\n              swap1\n              pop\n                /* \"#utility.yul\":1583:1675   */\n              tag_160\n                /* \"#utility.yul\":1672:1673   */\n              0x00\n                /* \"#utility.yul\":1661:1670   */\n              dup4\n                /* \"#utility.yul\":1657:1674   */\n              add\n                /* \"#utility.yul\":1648:1654   */\n              dup5\n                /* \"#utility.yul\":1583:1675   */\n              tag_121\n              jump\t// in\n            tag_160:\n                /* \"#utility.yul\":1418:1682   */\n              swap3\n              swap2\n              pop\n              pop\n              jump\t// out\n                /* \"#utility.yul\":1688:1765   */\n            tag_122:\n                /* \"#utility.yul\":1725:1732   */\n              0x00\n                /* \"#utility.yul\":1754:1759   */\n              dup2\n                /* \"#utility.yul\":1743:1759   */\n              swap1\n              pop\n                /* \"#utility.yul\":1688:1765   */\n              swap2\n              swap1\n              pop\n              jump\t// out\n                /* \"#utility.yul\":1771:1889   */\n            tag_123:\n                /* \"#utility.yul\":1858:1882   */\n              tag_163\n                /* \"#utility.yul\":1876:1881   */\n              dup2\n                /* \"#utility.yul\":1858:1882   */\n              tag_122\n              jump\t// in\n            tag_163:\n                /* \"#utility.yul\":1853:1856   */\n              dup3\n                /* \"#utility.yul\":1846:1883   */\n              mstore\n                /* \"#utility.yul\":1771:1889   */\n              pop\n              pop\n              jump\t// out\n                /* \"#utility.yul\":1895:2117   */\n            tag_40:\n                /* \"#utility.yul\":1988:1992   */\n              0x00\n                /* \"#utility.yul\":2026:2028   */\n              0x20\n                /* \"#utility.yul\":2015:2024   */\n              dup3\n                /* \"#utility.yul\":2011:2029   */\n              add\n                /* \"#utility.yul\":2003:2029   */\n              swap1\n              pop\n                /* \"#utility.yul\":2039:2110   */\n              tag_165\n                /* \"#utility.yul\":2107:2108   */\n              0x00\n                /* \"#utility.yul\":2096:2105   */\n              dup4\n                /* \"#utility.yul\":2092:2109   */\n              add\n                /* \"#utility.yul\":2083:2089   */\n              dup5\n                /* \"#utility.yul\":2039:2110   */\n              tag_123\n              jump\t// in\n            tag_165:\n                /* \"#utility.yul\":1895:2117   */\n              swap3\n              swap2\n              pop\n              pop\n              jump\t// out\n                /* \"#utility.yul\":2123:2292   */\n            tag_124:\n                /* \"#utility.yul\":2207:2218   */\n              0x00\n                /* \"#utility.yul\":2241:2247   */\n              dup3\n                /* \"#utility.yul\":2236:2239   */\n              dup3\n                /* \"#utility.yul\":2229:2248   */\n              mstore\n                /* \"#utility.yul\":2281:2285   */\n              0x20\n                /* \"#utility.yul\":2276:2279   */\n              dup3\n                /* \"#utility.yul\":2272:2286   */\n              add\n                /* \"#utility.yul\":2257:2286   */\n              swap1\n              pop\n                /* \"#utility.yul\":2123:2292   */\n              swap3\n              swap2\n              pop\n              pop\n              jump\t// out\n                /* \"#utility.yul\":2298:2452   */\n            tag_125:\n                /* \"#utility.yul\":2438:2444   */\n              0x6530303300000000000000000000000000000000000000000000000000000000\n                /* \"#utility.yul\":2434:2435   */\n              0x00\n                /* \"#utility.yul\":2426:2432   */\n              dup3\n                /* \"#utility.yul\":2422:2436   */\n              add\n                /* \"#utility.yul\":2415:2445   */\n              mstore\n                /* \"#utility.yul\":2298:2452   */\n              pop\n              jump\t// out\n                /* \"#utility.yul\":2458:2823   */\n            tag_126:\n                /* \"#utility.yul\":2600:2603   */\n              0x00\n                /* \"#utility.yul\":2621:2687   */\n              tag_169\n                /* \"#utility.yul\":2685:2686   */\n              0x04\n                /* \"#utility.yul\":2680:2683   */\n              dup4\n                /* \"#utility.yul\":2621:2687   */\n              tag_124\n              jump\t// in\n            tag_169:\n                /* \"#utility.yul\":2614:2687   */\n              swap2\n              pop\n                /* \"#utility.yul\":2696:2789   */\n              tag_170\n                /* \"#utility.yul\":2785:2788   */\n              dup3\n                /* \"#utility.yul\":2696:2789   */\n              tag_125\n              jump\t// in\n            tag_170:\n                /* \"#utility.yul\":2814:2816   */\n              0x20\n                /* \"#utility.yul\":2809:2812   */\n              dup3\n                /* \"#utility.yul\":2805:2817   */\n              add\n                /* \"#utility.yul\":2798:2817   */\n              swap1\n              pop\n                /* \"#utility.yul\":2458:2823   */\n              swap2\n              swap1\n              pop\n              jump\t// out\n                /* \"#utility.yul\":2829:3248   */\n            tag_56:\n                /* \"#utility.yul\":2995:2999   */\n              0x00\n                /* \"#utility.yul\":3033:3035   */\n              0x20\n                /* \"#utility.yul\":3022:3031   */\n              dup3\n                /* \"#utility.yul\":3018:3036   */\n              add\n                /* \"#utility.yul\":3010:3036   */\n              swap1\n              pop\n                /* \"#utility.yul\":3082:3091   */\n              dup2\n                /* \"#utility.yul\":3076:3080   */\n              dup2\n                /* \"#utility.yul\":3072:3092   */\n              sub\n                /* \"#utility.yul\":3068:3069   */\n              0x00\n                /* \"#utility.yul\":3057:3066   */\n              dup4\n                /* \"#utility.yul\":3053:3070   */\n              add\n                /* \"#utility.yul\":3046:3093   */\n              mstore\n                /* \"#utility.yul\":3110:3241   */\n              tag_172\n                /* \"#utility.yul\":3236:3240   */\n              dup2\n                /* \"#utility.yul\":3110:3241   */\n              tag_126\n              jump\t// in\n            tag_172:\n                /* \"#utility.yul\":3102:3241   */\n              swap1\n              pop\n                /* \"#utility.yul\":2829:3248   */\n              swap2\n              swap1\n              pop\n              jump\t// out\n                /* \"#utility.yul\":3254:3408   */\n            tag_127:\n                /* \"#utility.yul\":3394:3400   */\n              0x6530313300000000000000000000000000000000000000000000000000000000\n                /* \"#utility.yul\":3390:3391   */\n              0x00\n                /* \"#utility.yul\":3382:3388   */\n              dup3\n                /* \"#utility.yul\":3378:3392   */\n              add\n                /* \"#utility.yul\":3371:3401   */\n              mstore\n                /* \"#utility.yul\":3254:3408   */\n              pop\n              jump\t// out\n                /* \"#utility.yul\":3414:3779   */\n            tag_128:\n                /* \"#utility.yul\":3556:3559   */\n              0x00\n                /* \"#utility.yul\":3577:3643   */\n              tag_175\n                /* \"#utility.yul\":3641:3642   */\n              0x04\n                /* \"#utility.yul\":3636:3639   */\n              dup4\n                /* \"#utility.yul\":3577:3643   */\n              tag_124\n              jump\t// in\n            tag_175:\n                /* \"#utility.yul\":3570:3643   */\n              swap2\n              pop\n                /* \"#utility.yul\":3652:3745   */\n              tag_176\n                /* \"#utility.yul\":3741:3744   */\n              dup3\n                /* \"#utility.yul\":3652:3745   */\n              tag_127\n              jump\t// in\n            tag_176:\n                /* \"#utility.yul\":3770:3772   */\n              0x20\n                /* \"#utility.yul\":3765:3768   */\n              dup3\n                /* \"#utility.yul\":3761:3773   */\n              add\n                /* \"#utility.yul\":3754:3773   */\n              swap1\n              pop\n                /* \"#utility.yul\":3414:3779   */\n              swap2\n              swap1\n              pop\n              jump\t// out\n                /* \"#utility.yul\":3785:4204   */\n            tag_64:\n                /* \"#utility.yul\":3951:3955   */\n              0x00\n                /* \"#utility.yul\":3989:3991   */\n              0x20\n                /* \"#utility.yul\":3978:3987   */\n              dup3\n                /* \"#utility.yul\":3974:3992   */\n              add\n                /* \"#utility.yul\":3966:3992   */\n              swap1\n              pop\n                /* \"#utility.yul\":4038:4047   */\n              dup2\n                /* \"#utility.yul\":4032:4036   */\n              dup2\n                /* \"#utility.yul\":4028:4048   */\n              sub\n                /* \"#utility.yul\":4024:4025   */\n              0x00\n                /* \"#utility.yul\":4013:4022   */\n              dup4\n                /* \"#utility.yul\":4009:4026   */\n              add\n                /* \"#utility.yul\":4002:4049   */\n              mstore\n                /* \"#utility.yul\":4066:4197   */\n              tag_178\n                /* \"#utility.yul\":4192:4196   */\n              dup2\n                /* \"#utility.yul\":4066:4197   */\n              tag_128\n              jump\t// in\n            tag_178:\n                /* \"#utility.yul\":4058:4197   */\n              swap1\n              pop\n                /* \"#utility.yul\":3785:4204   */\n              swap2\n              swap1\n              pop\n              jump\t// out\n                /* \"#utility.yul\":4210:4364   */\n            tag_129:\n                /* \"#utility.yul\":4350:4356   */\n              0x6530303200000000000000000000000000000000000000000000000000000000\n                /* \"#utility.yul\":4346:4347   */\n              0x00\n                /* \"#utility.yul\":4338:4344   */\n              dup3\n                /* \"#utility.yul\":4334:4348   */\n              add\n                /* \"#utility.yul\":4327:4357   */\n              mstore\n                /* \"#utility.yul\":4210:4364   */\n              pop\n              jump\t// out\n                /* \"#utility.yul\":4370:4735   */\n            tag_130:\n                /* \"#utility.yul\":4512:4515   */\n              0x00\n                /* \"#utility.yul\":4533:4599   */\n              tag_181\n                /* \"#utility.yul\":4597:4598   */\n              0x04\n                /* \"#utility.yul\":4592:4595   */\n              dup4\n                /* \"#utility.yul\":4533:4599   */\n              tag_124\n              jump\t// in\n            tag_181:\n                /* \"#utility.yul\":4526:4599   */\n              swap2\n              pop\n                /* \"#utility.yul\":4608:4701   */\n              tag_182\n                /* \"#utility.yul\":4697:4700   */\n              dup3\n                /* \"#utility.yul\":4608:4701   */\n              tag_129\n              jump\t// in\n            tag_182:\n                /* \"#utility.yul\":4726:4728   */\n              0x20\n                /* \"#utility.yul\":4721:4724   */\n              dup3\n                /* \"#utility.yul\":4717:4729   */\n              add\n                /* \"#utility.yul\":4710:4729   */\n              swap1\n              pop\n                /* \"#utility.yul\":4370:4735   */\n              swap2\n              swap1\n              pop\n              jump\t// out\n                /* \"#utility.yul\":4741:5160   */\n            tag_67:\n                /* \"#utility.yul\":4907:4911   */\n              0x00\n                /* \"#utility.yul\":4945:4947   */\n              0x20\n                /* \"#utility.yul\":4934:4943   */\n              dup3\n                /* \"#utility.yul\":4930:4948   */\n              add\n                /* \"#utility.yul\":4922:4948   */\n              swap1\n              pop\n                /* \"#utility.yul\":4994:5003   */\n              dup2\n                /* \"#utility.yul\":4988:4992   */\n              dup2\n                /* \"#utility.yul\":4984:5004   */\n              sub\n                /* \"#utility.yul\":4980:4981   */\n              0x00\n                /* \"#utility.yul\":4969:4978   */\n              dup4\n                /* \"#utility.yul\":4965:4982   */\n              add\n                /* \"#utility.yul\":4958:5005   */\n              mstore\n                /* \"#utility.yul\":5022:5153   */\n              tag_184\n                /* \"#utility.yul\":5148:5152   */\n              dup2\n                /* \"#utility.yul\":5022:5153   */\n              tag_130\n              jump\t// in\n            tag_184:\n                /* \"#utility.yul\":5014:5153   */\n              swap1\n              pop\n                /* \"#utility.yul\":4741:5160   */\n              swap2\n              swap1\n              pop\n              jump\t// out\n                /* \"#utility.yul\":5166:5320   */\n            tag_131:\n                /* \"#utility.yul\":5306:5312   */\n              0x6530323000000000000000000000000000000000000000000000000000000000\n                /* \"#utility.yul\":5302:5303   */\n              0x00\n                /* \"#utility.yul\":5294:5300   */\n              dup3\n                /* \"#utility.yul\":5290:5304   */\n              add\n                /* \"#utility.yul\":5283:5313   */\n              mstore\n                /* \"#utility.yul\":5166:5320   */\n              pop\n              jump\t// out\n                /* \"#utility.yul\":5326:5691   */\n            tag_132:\n                /* \"#utility.yul\":5468:5471   */\n              0x00\n                /* \"#utility.yul\":5489:5555   */\n              tag_187\n                /* \"#utility.yul\":5553:5554   */\n              0x04\n                /* \"#utility.yul\":5548:5551   */\n              dup4\n                /* \"#utility.yul\":5489:5555   */\n              tag_124\n              jump\t// in\n            tag_187:\n                /* \"#utility.yul\":5482:5555   */\n              swap2\n              pop\n                /* \"#utility.yul\":5564:5657   */\n              tag_188\n                /* \"#utility.yul\":5653:5656   */\n              dup3\n                /* \"#utility.yul\":5564:5657   */\n              tag_131\n              jump\t// in\n            tag_188:\n                /* \"#utility.yul\":5682:5684   */\n              0x20\n                /* \"#utility.yul\":5677:5680   */\n              dup3\n                /* \"#utility.yul\":5673:5685   */\n              add\n                /* \"#utility.yul\":5666:5685   */\n              swap1\n              pop\n                /* \"#utility.yul\":5326:5691   */\n              swap2\n              swap1\n              pop\n              jump\t// out\n                /* \"#utility.yul\":5697:6116   */\n            tag_73:\n                /* \"#utility.yul\":5863:5867   */\n              0x00\n                /* \"#utility.yul\":5901:5903   */\n              0x20\n                /* \"#utility.yul\":5890:5899   */\n              dup3\n                /* \"#utility.yul\":5886:5904   */\n              add\n                /* \"#utility.yul\":5878:5904   */\n              swap1\n              pop\n                /* \"#utility.yul\":5950:5959   */\n              dup2\n                /* \"#utility.yul\":5944:5948   */\n              dup2\n                /* \"#utility.yul\":5940:5960   */\n              sub\n                /* \"#utility.yul\":5936:5937   */\n              0x00\n                /* \"#utility.yul\":5925:5934   */\n              dup4\n                /* \"#utility.yul\":5921:5938   */\n              add\n                /* \"#utility.yul\":5914:5961   */\n              mstore\n                /* \"#utility.yul\":5978:6109   */\n              tag_190\n                /* \"#utility.yul\":6104:6108   */\n              dup2\n                /* \"#utility.yul\":5978:6109   */\n              tag_132\n              jump\t// in\n            tag_190:\n                /* \"#utility.yul\":5970:6109   */\n              swap1\n              pop\n                /* \"#utility.yul\":5697:6116   */\n              swap2\n              swap1\n              pop\n              jump\t// out\n                /* \"#utility.yul\":6122:6276   */\n            tag_133:\n                /* \"#utility.yul\":6262:6268   */\n              0x6530323100000000000000000000000000000000000000000000000000000000\n                /* \"#utility.yul\":6258:6259   */\n              0x00\n                /* \"#utility.yul\":6250:6256   */\n              dup3\n                /* \"#utility.yul\":6246:6260   */\n              add\n                /* \"#utility.yul\":6239:6269   */\n              mstore\n                /* \"#utility.yul\":6122:6276   */\n              pop\n              jump\t// out\n                /* \"#utility.yul\":6282:6647   */\n            tag_134:\n                /* \"#utility.yul\":6424:6427   */\n              0x00\n                /* \"#utility.yul\":6445:6511   */\n              tag_193\n                /* \"#utility.yul\":6509:6510   */\n              0x04\n                /* \"#utility.yul\":6504:6507   */\n              dup4\n                /* \"#utility.yul\":6445:6511   */\n              tag_124\n              jump\t// in\n            tag_193:\n                /* \"#utility.yul\":6438:6511   */\n              swap2\n              pop\n                /* \"#utility.yul\":6520:6613   */\n              tag_194\n                /* \"#utility.yul\":6609:6612   */\n              dup3\n                /* \"#utility.yul\":6520:6613   */\n              tag_133\n              jump\t// in\n            tag_194:\n                /* \"#utility.yul\":6638:6640   */\n              0x20\n                /* \"#utility.yul\":6633:6636   */\n              dup3\n                /* \"#utility.yul\":6629:6641   */\n              add\n                /* \"#utility.yul\":6622:6641   */\n              swap1\n              pop\n                /* \"#utility.yul\":6282:6647   */\n              swap2\n              swap1\n              pop\n              jump\t// out\n                /* \"#utility.yul\":6653:7072   */\n            tag_80:\n                /* \"#utility.yul\":6819:6823   */\n              0x00\n                /* \"#utility.yul\":6857:6859   */\n              0x20\n                /* \"#utility.yul\":6846:6855   */\n              dup3\n                /* \"#utility.yul\":6842:6860   */\n              add\n                /* \"#utility.yul\":6834:6860   */\n              swap1\n              pop\n                /* \"#utility.yul\":6906:6915   */\n              dup2\n                /* \"#utility.yul\":6900:6904   */\n              dup2\n                /* \"#utility.yul\":6896:6916   */\n              sub\n                /* \"#utility.yul\":6892:6893   */\n              0x00\n                /* \"#utility.yul\":6881:6890   */\n              dup4\n                /* \"#utility.yul\":6877:6894   */\n              add\n                /* \"#utility.yul\":6870:6917   */\n              mstore\n                /* \"#utility.yul\":6934:7065   */\n              tag_196\n                /* \"#utility.yul\":7060:7064   */\n              dup2\n                /* \"#utility.yul\":6934:7065   */\n              tag_134\n              jump\t// in\n            tag_196:\n                /* \"#utility.yul\":6926:7065   */\n              swap1\n              pop\n                /* \"#utility.yul\":6653:7072   */\n              swap2\n              swap1\n              pop\n              jump\t// out\n                /* \"#utility.yul\":7078:7232   */\n            tag_135:\n                /* \"#utility.yul\":7218:7224   */\n              0x6530323400000000000000000000000000000000000000000000000000000000\n                /* \"#utility.yul\":7214:7215   */\n              0x00\n                /* \"#utility.yul\":7206:7212   */\n              dup3\n                /* \"#utility.yul\":7202:7216   */\n              add\n                /* \"#utility.yul\":7195:7225   */\n              mstore\n                /* \"#utility.yul\":7078:7232   */\n              pop\n              jump\t// out\n                /* \"#utility.yul\":7238:7603   */\n            tag_136:\n                /* \"#utility.yul\":7380:7383   */\n              0x00\n                /* \"#utility.yul\":7401:7467   */\n              tag_199\n                /* \"#utility.yul\":7465:7466   */\n              0x04\n                /* \"#utility.yul\":7460:7463   */\n              dup4\n                /* \"#utility.yul\":7401:7467   */\n              tag_124\n              jump\t// in\n            tag_199:\n                /* \"#utility.yul\":7394:7467   */\n              swap2\n              pop\n                /* \"#utility.yul\":7476:7569   */\n              tag_200\n                /* \"#utility.yul\":7565:7568   */\n              dup3\n                /* \"#utility.yul\":7476:7569   */\n              tag_135\n              jump\t// in\n            tag_200:\n                /* \"#utility.yul\":7594:7596   */\n              0x20\n                /* \"#utility.yul\":7589:7592   */\n              dup3\n                /* \"#utility.yul\":7585:7597   */\n              add\n                /* \"#utility.yul\":7578:7597   */\n              swap1\n              pop\n                /* \"#utility.yul\":7238:7603   */\n              swap2\n              swap1\n              pop\n              jump\t// out\n                /* \"#utility.yul\":7609:8028   */\n            tag_88:\n                /* \"#utility.yul\":7775:7779   */\n              0x00\n                /* \"#utility.yul\":7813:7815   */\n              0x20\n                /* \"#utility.yul\":7802:7811   */\n              dup3\n                /* \"#utility.yul\":7798:7816   */\n              add\n                /* \"#utility.yul\":7790:7816   */\n              swap1\n              pop\n                /* \"#utility.yul\":7862:7871   */\n              dup2\n                /* \"#utility.yul\":7856:7860   */\n              dup2\n                /* \"#utility.yul\":7852:7872   */\n              sub\n                /* \"#utility.yul\":7848:7849   */\n              0x00\n                /* \"#utility.yul\":7837:7846   */\n              dup4\n                /* \"#utility.yul\":7833:7850   */\n              add\n                /* \"#utility.yul\":7826:7873   */\n              mstore\n                /* \"#utility.yul\":7890:8021   */\n              tag_202\n                /* \"#utility.yul\":8016:8020   */\n              dup2\n                /* \"#utility.yul\":7890:8021   */\n              tag_136\n              jump\t// in\n            tag_202:\n                /* \"#utility.yul\":7882:8021   */\n              swap1\n              pop\n                /* \"#utility.yul\":7609:8028   */\n              swap2\n              swap1\n              pop\n              jump\t// out\n                /* \"#utility.yul\":8034:8188   */\n            tag_137:\n                /* \"#utility.yul\":8174:8180   */\n              0x6530323200000000000000000000000000000000000000000000000000000000\n                /* \"#utility.yul\":8170:8171   */\n              0x00\n                /* \"#utility.yul\":8162:8168   */\n              dup3\n                /* \"#utility.yul\":8158:8172   */\n              add\n                /* \"#utility.yul\":8151:8181   */\n              mstore\n                /* \"#utility.yul\":8034:8188   */\n              pop\n              jump\t// out\n                /* \"#utility.yul\":8194:8559   */\n            tag_138:\n                /* \"#utility.yul\":8336:8339   */\n              0x00\n                /* \"#utility.yul\":8357:8423   */\n              tag_205\n                /* \"#utility.yul\":8421:8422   */\n              0x04\n                /* \"#utility.yul\":8416:8419   */\n              dup4\n                /* \"#utility.yul\":8357:8423   */\n              tag_124\n              jump\t// in\n            tag_205:\n                /* \"#utility.yul\":8350:8423   */\n              swap2\n              pop\n                /* \"#utility.yul\":8432:8525   */\n              tag_206\n                /* \"#utility.yul\":8521:8524   */\n              dup3\n                /* \"#utility.yul\":8432:8525   */\n              tag_137\n              jump\t// in\n            tag_206:\n                /* \"#utility.yul\":8550:8552   */\n              0x20\n                /* \"#utility.yul\":8545:8548   */\n              dup3\n                /* \"#utility.yul\":8541:8553   */\n              add\n                /* \"#utility.yul\":8534:8553   */\n              swap1\n              pop\n                /* \"#utility.yul\":8194:8559   */\n              swap2\n              swap1\n              pop\n              jump\t// out\n                /* \"#utility.yul\":8565:8984   */\n            tag_104:\n                /* \"#utility.yul\":8731:8735   */\n              0x00\n                /* \"#utility.yul\":8769:8771   */\n              0x20\n                /* \"#utility.yul\":8758:8767   */\n              dup3\n                /* \"#utility.yul\":8754:8772   */\n              add\n                /* \"#utility.yul\":8746:8772   */\n              swap1\n              pop\n                /* \"#utility.yul\":8818:8827   */\n              dup2\n                /* \"#utility.yul\":8812:8816   */\n              dup2\n                /* \"#utility.yul\":8808:8828   */\n              sub\n                /* \"#utility.yul\":8804:8805   */\n              0x00\n                /* \"#utility.yul\":8793:8802   */\n              dup4\n                /* \"#utility.yul\":8789:8806   */\n              add\n                /* \"#utility.yul\":8782:8829   */\n              mstore\n                /* \"#utility.yul\":8846:8977   */\n              tag_208\n                /* \"#utility.yul\":8972:8976   */\n              dup2\n                /* \"#utility.yul\":8846:8977   */\n              tag_138\n              jump\t// in\n            tag_208:\n                /* \"#utility.yul\":8838:8977   */\n              swap1\n              pop\n                /* \"#utility.yul\":8565:8984   */\n              swap2\n              swap1\n              pop\n              jump\t// out\n                /* \"#utility.yul\":8990:9170   */\n            tag_139:\n                /* \"#utility.yul\":9038:9115   */\n              0x4e487b7100000000000000000000000000000000000000000000000000000000\n                /* \"#utility.yul\":9035:9036   */\n              0x00\n                /* \"#utility.yul\":9028:9116   */\n              mstore\n                /* \"#utility.yul\":9135:9139   */\n              0x12\n                /* \"#utility.yul\":9132:9133   */\n              0x04\n                /* \"#utility.yul\":9125:9140   */\n              mstore\n                /* \"#utility.yul\":9159:9163   */\n              0x24\n                /* \"#utility.yul\":9156:9157   */\n              0x00\n                /* \"#utility.yul\":9149:9164   */\n              revert\n                /* \"#utility.yul\":9176:9356   */\n            tag_140:\n                /* \"#utility.yul\":9224:9301   */\n              0x4e487b7100000000000000000000000000000000000000000000000000000000\n                /* \"#utility.yul\":9221:9222   */\n              0x00\n                /* \"#utility.yul\":9214:9302   */\n              mstore\n                /* \"#utility.yul\":9321:9325   */\n              0x11\n                /* \"#utility.yul\":9318:9319   */\n              0x04\n                /* \"#utility.yul\":9311:9326   */\n              mstore\n                /* \"#utility.yul\":9345:9349   */\n              0x24\n                /* \"#utility.yul\":9342:9343   */\n              0x00\n                /* \"#utility.yul\":9335:9350   */\n              revert\n                /* \"#utility.yul\":9362:9547   */\n            tag_106:\n                /* \"#utility.yul\":9402:9403   */\n              0x00\n                /* \"#utility.yul\":9419:9439   */\n              tag_212\n                /* \"#utility.yul\":9437:9438   */\n              dup3\n                /* \"#utility.yul\":9419:9439   */\n              tag_122\n              jump\t// in\n            tag_212:\n                /* \"#utility.yul\":9414:9439   */\n              swap2\n              pop\n                /* \"#utility.yul\":9453:9473   */\n              tag_213\n                /* \"#utility.yul\":9471:9472   */\n              dup4\n                /* \"#utility.yul\":9453:9473   */\n              tag_122\n              jump\t// in\n            tag_213:\n                /* \"#utility.yul\":9448:9473   */\n              swap3\n              pop\n                /* \"#utility.yul\":9492:9493   */\n              dup3\n                /* \"#utility.yul\":9482:9517   */\n              tag_214\n              jumpi\n                /* \"#utility.yul\":9497:9515   */\n              tag_215\n              tag_139\n              jump\t// in\n            tag_215:\n                /* \"#utility.yul\":9482:9517   */\n            tag_214:\n                /* \"#utility.yul\":9539:9540   */\n              dup3\n                /* \"#utility.yul\":9536:9537   */\n              dup3\n                /* \"#utility.yul\":9532:9541   */\n              div\n                /* \"#utility.yul\":9527:9541   */\n              swap1\n              pop\n                /* \"#utility.yul\":9362:9547   */\n              swap3\n              swap2\n              pop\n              pop\n              jump\t// out\n                /* \"#utility.yul\":9553:9744   */\n            tag_108:\n                /* \"#utility.yul\":9593:9597   */\n              0x00\n                /* \"#utility.yul\":9613:9633   */\n              tag_217\n                /* \"#utility.yul\":9631:9632   */\n              dup3\n                /* \"#utility.yul\":9613:9633   */\n              tag_122\n              jump\t// in\n            tag_217:\n                /* \"#utility.yul\":9608:9633   */\n              swap2\n              pop\n                /* \"#utility.yul\":9647:9667   */\n              tag_218\n                /* \"#utility.yul\":9665:9666   */\n              dup4\n                /* \"#utility.yul\":9647:9667   */\n              tag_122\n              jump\t// in\n            tag_218:\n                /* \"#utility.yul\":9642:9667   */\n              swap3\n              pop\n                /* \"#utility.yul\":9686:9687   */\n              dup3\n                /* \"#utility.yul\":9683:9684   */\n              dup3\n                /* \"#utility.yul\":9680:9688   */\n              lt\n                /* \"#utility.yul\":9677:9711   */\n              iszero\n              tag_219\n              jumpi\n                /* \"#utility.yul\":9691:9709   */\n              tag_220\n              tag_140\n              jump\t// in\n            tag_220:\n                /* \"#utility.yul\":9677:9711   */\n            tag_219:\n                /* \"#utility.yul\":9736:9737   */\n              dup3\n                /* \"#utility.yul\":9733:9734   */\n              dup3\n                /* \"#utility.yul\":9729:9738   */\n              sub\n                /* \"#utility.yul\":9721:9738   */\n              swap1\n              pop\n                /* \"#utility.yul\":9553:9744   */\n              swap3\n              swap2\n              pop\n              pop\n              jump\t// out\n\n            auxdata: 0xa2646970667358221220f0b7e6308e8b79a8aa2b5b7d7c6423975051305297674a818309be553a707e2364736f6c634300080d0033\n        }\n    }\n\n    auxdata: 0xa26469706673582212200f0970a79bd384190ecf9bc6b28a6300adf434a76581b910b2d50160f29db18f64736f6c634300080d0033\n}\n",
				"bytecode": {
					"linkReferences": {},
					"object": "608060405234801561001057600080fd5b506118f2806100206000396000f3fe60806040523480156200001157600080fd5b50600436106200003a5760003560e01c80637d1b4753146200003f578063992144531462000075575b600080fd5b6200005d60048036038101906200005791906200023f565b62000095565b6040516200006c91906200028e565b60405180910390f35b6200009360048036038101906200008d9190620002e6565b620000ea565b005b60008060008373ffffffffffffffffffffffffffffffffffffffff1673ffffffffffffffffffffffffffffffffffffffff16815260200190815260200160002060009054906101000a900460ff169050919050565b60008585858585604051620000ff90620001c7565b6200010f95949392919062000390565b604051809103906000f0801580156200012c573d6000803e3d6000fd5b50905060016000808373ffffffffffffffffffffffffffffffffffffffff1673ffffffffffffffffffffffffffffffffffffffff16815260200190815260200160002060006101000a81548160ff0219169083151502179055507fdc172423e65e4eb718110c42ad3b66ac4b0a613e4d07bfb55f2477f2d1bf34eb81604051620001b79190620003ed565b60405180910390a1505050505050565b6114b2806200040b83390190565b600080fd5b600073ffffffffffffffffffffffffffffffffffffffff82169050919050565b60006200020782620001da565b9050919050565b6200021981620001fa565b81146200022557600080fd5b50565b60008135905062000239816200020e565b92915050565b600060208284031215620002585762000257620001d5565b5b6000620002688482850162000228565b91505092915050565b60008115159050919050565b620002888162000271565b82525050565b6000602082019050620002a560008301846200027d565b92915050565b6000819050919050565b620002c081620002ab565b8114620002cc57600080fd5b50565b600081359050620002e081620002b5565b92915050565b600080600080600060a08688031215620003055762000304620001d5565b5b6000620003158882890162000228565b9550506020620003288882890162000228565b94505060406200033b8882890162000228565b93505060606200034e8882890162000228565b92505060806200036188828901620002cf565b9150509295509295909350565b6200037981620001fa565b82525050565b6200038a81620002ab565b82525050565b600060a082019050620003a760008301886200036e565b620003b660208301876200036e565b620003c560408301866200036e565b620003d460608301856200036e565b620003e360808301846200037f565b9695505050505050565b60006020820190506200040460008301846200036e565b9291505056fe610120604052604051620014b2380380620014b283398181016040528101906200002a91906200045b565b8373ffffffffffffffffffffffffffffffffffffffff168573ffffffffffffffffffffffffffffffffffffffff16141580156200009357508173ffffffffffffffffffffffffffffffffffffffff168573ffffffffffffffffffffffffffffffffffffffff1614155b8015620000cc57508273ffffffffffffffffffffffffffffffffffffffff168473ffffffffffffffffffffffffffffffffffffffff1614155b80156200010557508173ffffffffffffffffffffffffffffffffffffffff168473ffffffffffffffffffffffffffffffffffffffff1614155b80156200013e57508173ffffffffffffffffffffffffffffffffffffffff168373ffffffffffffffffffffffffffffffffffffffff1614155b62000180576040517f08c379a0000000000000000000000000000000000000000000000000000000008152600401620001779062000544565b60405180910390fd5b8473ffffffffffffffffffffffffffffffffffffffff163373ffffffffffffffffffffffffffffffffffffffff161480620001e657508373ffffffffffffffffffffffffffffffffffffffff163373ffffffffffffffffffffffffffffffffffffffff16145b806200021d57508273ffffffffffffffffffffffffffffffffffffffff163373ffffffffffffffffffffffffffffffffffffffff16145b6200025f576040517f08c379a00000000000000000000000000000000000000000000000000000000081526004016200025690620005b6565b60405180910390fd5b60008111620002a5576040517f08c379a00000000000000000000000000000000000000000000000000000000081526004016200029c9062000628565b60405180910390fd5b8061010081815250508473ffffffffffffffffffffffffffffffffffffffff1660808173ffffffffffffffffffffffffffffffffffffffff16815250508373ffffffffffffffffffffffffffffffffffffffff1660a08173ffffffffffffffffffffffffffffffffffffffff16815250508273ffffffffffffffffffffffffffffffffffffffff1660c08173ffffffffffffffffffffffffffffffffffffffff16815250508173ffffffffffffffffffffffffffffffffffffffff1660e08173ffffffffffffffffffffffffffffffffffffffff168152505060008060006101000a81548160ff02191690836004811115620003a657620003a56200064a565b5b0217905550505050505062000679565b600080fd5b600073ffffffffffffffffffffffffffffffffffffffff82169050919050565b6000620003e882620003bb565b9050919050565b620003fa81620003db565b81146200040657600080fd5b50565b6000815190506200041a81620003ef565b92915050565b6000819050919050565b620004358162000420565b81146200044157600080fd5b50565b60008151905062000455816200042a565b92915050565b600080600080600060a086880312156200047a5762000479620003b6565b5b60006200048a8882890162000409565b95505060206200049d8882890162000409565b9450506040620004b08882890162000409565b9350506060620004c38882890162000409565b9250506080620004d68882890162000444565b9150509295509295909350565b600082825260208201905092915050565b7f6530303100000000000000000000000000000000000000000000000000000000600082015250565b60006200052c600483620004e3565b91506200053982620004f4565b602082019050919050565b600060208201905081810360008301526200055f816200051d565b9050919050565b7f6530303300000000000000000000000000000000000000000000000000000000600082015250565b60006200059e600483620004e3565b9150620005ab8262000566565b602082019050919050565b60006020820190508181036000830152620005d1816200058f565b9050919050565b7f6530303600000000000000000000000000000000000000000000000000000000600082015250565b600062000610600483620004e3565b91506200061d82620005d8565b602082019050919050565b60006020820190508181036000830152620006438162000601565b9050919050565b7f4e487b7100000000000000000000000000000000000000000000000000000000600052602160045260246000fd5b60805160a05160c05160e05161010051610dbc620006f660003960008181610339015281816105460152818161074501526107750152600081816105220152818161057b01526107a20152600081816103c801526106a90152600081816101fd015261080901526000818161023701526104fe0152610dbc6000f3fe6080604052600436106100915760003560e01c806380f556051161005957806380f556051461013857806397e9a0bf146101635780639c1d9e3e1461018e578063d2c9ea03146101b9578063f7260d3e146101d057610091565b806308551a531461009657806318609960146100c157806325b00885146100ec5780634fbc4f60146100f65780637150d8ae1461010d575b600080fd5b3480156100a257600080fd5b506100ab6101fb565b6040516100b891906108dd565b60405180910390f35b3480156100cd57600080fd5b506100d661021f565b6040516100e3919061096f565b60405180910390f35b6100f4610235565b005b34801561010257600080fd5b5061010b6103c6565b005b34801561011957600080fd5b506101226104fc565b60405161012f91906108dd565b60405180910390f35b34801561014457600080fd5b5061014d610520565b60405161015a91906108dd565b60405180910390f35b34801561016f57600080fd5b50610178610544565b60405161018591906109a3565b60405180910390f35b34801561019a57600080fd5b506101a3610568565b6040516101b0919061096f565b60405180910390f35b3480156101c557600080fd5b506101ce610579565b005b3480156101dc57600080fd5b506101e56106a7565b6040516101f291906108dd565b60405180910390f35b7f000000000000000000000000000000000000000000000000000000000000000081565b60008060009054906101000a900460ff16905090565b7f000000000000000000000000000000000000000000000000000000000000000073ffffffffffffffffffffffffffffffffffffffff163373ffffffffffffffffffffffffffffffffffffffff16146102c3576040517f08c379a00000000000000000000000000000000000000000000000000000000081526004016102ba90610a1b565b60405180910390fd5b600060048111156102d7576102d66108f8565b5b60008054906101000a900460ff1660048111156102f7576102f66108f8565b5b14610337576040517f08c379a000000000000000000000000000000000000000000000000000000000815260040161032e90610a87565b60405180910390fd5b7f000000000000000000000000000000000000000000000000000000000000000047101561039a576040517f08c379a000000000000000000000000000000000000000000000000000000000815260040161039190610af3565b60405180910390fd5b60016000806101000a81548160ff021916908360048111156103bf576103be6108f8565b5b0217905550565b7f000000000000000000000000000000000000000000000000000000000000000073ffffffffffffffffffffffffffffffffffffffff163373ffffffffffffffffffffffffffffffffffffffff1614610454576040517f08c379a000000000000000000000000000000000000000000000000000000000815260040161044b90610b5f565b60405180910390fd5b60026004811115610468576104676108f8565b5b60008054906101000a900460ff166004811115610488576104876108f8565b5b146104c8576040517f08c379a00000000000000000000000000000000000000000000000000000000081526004016104bf90610bcb565b60405180910390fd5b60036000806101000a81548160ff021916908360048111156104ed576104ec6108f8565b5b02179055506104fa6106cb565b565b7f000000000000000000000000000000000000000000000000000000000000000081565b7f000000000000000000000000000000000000000000000000000000000000000081565b7f000000000000000000000000000000000000000000000000000000000000000081565b60008054906101000a900460ff1681565b7f000000000000000000000000000000000000000000000000000000000000000073ffffffffffffffffffffffffffffffffffffffff163373ffffffffffffffffffffffffffffffffffffffff1614610607576040517f08c379a00000000000000000000000000000000000000000000000000000000081526004016105fe90610c37565b60405180910390fd5b6001600481111561061b5761061a6108f8565b5b60008054906101000a900460ff16600481111561063b5761063a6108f8565b5b1461067b576040517f08c379a000000000000000000000000000000000000000000000000000000000815260040161067290610a87565b60405180910390fd5b60026000806101000a81548160ff021916908360048111156106a05761069f6108f8565b5b0217905550565b7f000000000000000000000000000000000000000000000000000000000000000081565b600360048111156106df576106de6108f8565b5b60008054906101000a900460ff1660048111156106ff576106fe6108f8565b5b1461073f576040517f08c379a000000000000000000000000000000000000000000000000000000000815260040161073690610ca3565b60405180910390fd5b6000600a7f000000000000000000000000000000000000000000000000000000000000000061076e9190610d21565b90506000817f000000000000000000000000000000000000000000000000000000000000000061079e9190610d52565b90507f000000000000000000000000000000000000000000000000000000000000000073ffffffffffffffffffffffffffffffffffffffff166108fc839081150290604051600060405180830381858888f19350505050158015610806573d6000803e3d6000fd5b507f000000000000000000000000000000000000000000000000000000000000000073ffffffffffffffffffffffffffffffffffffffff166108fc829081150290604051600060405180830381858888f1935050505015801561086d573d6000803e3d6000fd5b5060046000806101000a81548160ff02191690836004811115610893576108926108f8565b5b02179055505050565b600073ffffffffffffffffffffffffffffffffffffffff82169050919050565b60006108c78261089c565b9050919050565b6108d7816108bc565b82525050565b60006020820190506108f260008301846108ce565b92915050565b7f4e487b7100000000000000000000000000000000000000000000000000000000600052602160045260246000fd5b60058110610938576109376108f8565b5b50565b600081905061094982610927565b919050565b60006109598261093b565b9050919050565b6109698161094e565b82525050565b60006020820190506109846000830184610960565b92915050565b6000819050919050565b61099d8161098a565b82525050565b60006020820190506109b86000830184610994565b92915050565b600082825260208201905092915050565b7f6530303300000000000000000000000000000000000000000000000000000000600082015250565b6000610a056004836109be565b9150610a10826109cf565b602082019050919050565b60006020820190508181036000830152610a34816109f8565b9050919050565b7f6530313300000000000000000000000000000000000000000000000000000000600082015250565b6000610a716004836109be565b9150610a7c82610a3b565b602082019050919050565b60006020820190508181036000830152610aa081610a64565b9050919050565b7f6530303200000000000000000000000000000000000000000000000000000000600082015250565b6000610add6004836109be565b9150610ae882610aa7565b602082019050919050565b60006020820190508181036000830152610b0c81610ad0565b9050919050565b7f6530323000000000000000000000000000000000000000000000000000000000600082015250565b6000610b496004836109be565b9150610b5482610b13565b602082019050919050565b60006020820190508181036000830152610b7881610b3c565b9050919050565b7f6530323100000000000000000000000000000000000000000000000000000000600082015250565b6000610bb56004836109be565b9150610bc082610b7f565b602082019050919050565b60006020820190508181036000830152610be481610ba8565b9050919050565b7f6530323400000000000000000000000000000000000000000000000000000000600082015250565b6000610c216004836109be565b9150610c2c82610beb565b602082019050919050565b60006020820190508181036000830152610c5081610c14565b9050919050565b7f6530323200000000000000000000000000000000000000000000000000000000600082015250565b6000610c8d6004836109be565b9150610c9882610c57565b602082019050919050565b60006020820190508181036000830152610cbc81610c80565b9050919050565b7f4e487b7100000000000000000000000000000000000000000000000000000000600052601260045260246000fd5b7f4e487b7100000000000000000000000000000000000000000000000000000000600052601160045260246000fd5b6000610d2c8261098a565b9150610d378361098a565b925082610d4757610d46610cc3565b5b828204905092915050565b6000610d5d8261098a565b9150610d688361098a565b925082821015610d7b57610d7a610cf2565b5b82820390509291505056fea2646970667358221220f0b7e6308e8b79a8aa2b5b7d7c6423975051305297674a818309be553a707e2364736f6c634300080d0033a26469706673582212200f0970a79bd384190ecf9bc6b28a6300adf434a76581b910b2d50160f29db18f64736f6c634300080d0033",
					"opcodes": "PUSH1 0x80 PUSH1 0x40 MSTORE CALLVALUE DUP1 ISZERO PUSH2 0x10 JUMPI PUSH1 0x0 DUP1 REVERT JUMPDEST POP PUSH2 0x18F2 DUP1 PUSH2 0x20 PUSH1 0x0 CODECOPY PUSH1 0x0 RETURN INVALID PUSH1 0x80 PUSH1 0x40 MSTORE CALLVALUE DUP1 ISZERO PUSH3 0x11 JUMPI PUSH1 0x0 DUP1 REVERT JUMPDEST POP PUSH1 0x4 CALLDATASIZE LT PUSH3 0x3A JUMPI PUSH1 0x0 CALLDATALOAD PUSH1 0xE0 SHR DUP1 PUSH4 0x7D1B4753 EQ PUSH3 0x3F JUMPI DUP1 PUSH4 0x99214453 EQ PUSH3 0x75 JUMPI JUMPDEST PUSH1 0x0 DUP1 REVERT JUMPDEST PUSH3 0x5D PUSH1 0x4 DUP1 CALLDATASIZE SUB DUP2 ADD SWAP1 PUSH3 0x57 SWAP2 SWAP1 PUSH3 0x23F JUMP JUMPDEST PUSH3 0x95 JUMP JUMPDEST PUSH1 0x40 MLOAD PUSH3 0x6C SWAP2 SWAP1 PUSH3 0x28E JUMP JUMPDEST PUSH1 0x40 MLOAD DUP1 SWAP2 SUB SWAP1 RETURN JUMPDEST PUSH3 0x93 PUSH1 0x4 DUP1 CALLDATASIZE SUB DUP2 ADD SWAP1 PUSH3 0x8D SWAP2 SWAP1 PUSH3 0x2E6 JUMP JUMPDEST PUSH3 0xEA JUMP JUMPDEST STOP JUMPDEST PUSH1 0x0 DUP1 PUSH1 0x0 DUP4 PUSH20 0xFFFFFFFFFFFFFFFFFFFFFFFFFFFFFFFFFFFFFFFF AND PUSH20 0xFFFFFFFFFFFFFFFFFFFFFFFFFFFFFFFFFFFFFFFF AND DUP2 MSTORE PUSH1 0x20 ADD SWAP1 DUP2 MSTORE PUSH1 0x20 ADD PUSH1 0x0 KECCAK256 PUSH1 0x0 SWAP1 SLOAD SWAP1 PUSH2 0x100 EXP SWAP1 DIV PUSH1 0xFF AND SWAP1 POP SWAP2 SWAP1 POP JUMP JUMPDEST PUSH1 0x0 DUP6 DUP6 DUP6 DUP6 DUP6 PUSH1 0x40 MLOAD PUSH3 0xFF SWAP1 PUSH3 0x1C7 JUMP JUMPDEST PUSH3 0x10F SWAP6 SWAP5 SWAP4 SWAP3 SWAP2 SWAP1 PUSH3 0x390 JUMP JUMPDEST PUSH1 0x40 MLOAD DUP1 SWAP2 SUB SWAP1 PUSH1 0x0 CREATE DUP1 ISZERO DUP1 ISZERO PUSH3 0x12C JUMPI RETURNDATASIZE PUSH1 0x0 DUP1 RETURNDATACOPY RETURNDATASIZE PUSH1 0x0 REVERT JUMPDEST POP SWAP1 POP PUSH1 0x1 PUSH1 0x0 DUP1 DUP4 PUSH20 0xFFFFFFFFFFFFFFFFFFFFFFFFFFFFFFFFFFFFFFFF AND PUSH20 0xFFFFFFFFFFFFFFFFFFFFFFFFFFFFFFFFFFFFFFFF AND DUP2 MSTORE PUSH1 0x20 ADD SWAP1 DUP2 MSTORE PUSH1 0x20 ADD PUSH1 0x0 KECCAK256 PUSH1 0x0 PUSH2 0x100 EXP DUP2 SLOAD DUP2 PUSH1 0xFF MUL NOT AND SWAP1 DUP4 ISZERO ISZERO MUL OR SWAP1 SSTORE POP PUSH32 0xDC172423E65E4EB718110C42AD3B66AC4B0A613E4D07BFB55F2477F2D1BF34EB DUP2 PUSH1 0x40 MLOAD PUSH3 0x1B7 SWAP2 SWAP1 PUSH3 0x3ED JUMP JUMPDEST PUSH1 0x40 MLOAD DUP1 SWAP2 SUB SWAP1 LOG1 POP POP POP POP POP POP JUMP JUMPDEST PUSH2 0x14B2 DUP1 PUSH3 0x40B DUP4 CODECOPY ADD SWAP1 JUMP JUMPDEST PUSH1 0x0 DUP1 REVERT JUMPDEST PUSH1 0x0 PUSH20 0xFFFFFFFFFFFFFFFFFFFFFFFFFFFFFFFFFFFFFFFF DUP3 AND SWAP1 POP SWAP2 SWAP1 POP JUMP JUMPDEST PUSH1 0x0 PUSH3 0x207 DUP3 PUSH3 0x1DA JUMP JUMPDEST SWAP1 POP SWAP2 SWAP1 POP JUMP JUMPDEST PUSH3 0x219 DUP2 PUSH3 0x1FA JUMP JUMPDEST DUP2 EQ PUSH3 0x225 JUMPI PUSH1 0x0 DUP1 REVERT JUMPDEST POP JUMP JUMPDEST PUSH1 0x0 DUP2 CALLDATALOAD SWAP1 POP PUSH3 0x239 DUP2 PUSH3 0x20E JUMP JUMPDEST SWAP3 SWAP2 POP POP JUMP JUMPDEST PUSH1 0x0 PUSH1 0x20 DUP3 DUP5 SUB SLT ISZERO PUSH3 0x258 JUMPI PUSH3 0x257 PUSH3 0x1D5 JUMP JUMPDEST JUMPDEST PUSH1 0x0 PUSH3 0x268 DUP5 DUP3 DUP6 ADD PUSH3 0x228 JUMP JUMPDEST SWAP2 POP POP SWAP3 SWAP2 POP POP JUMP JUMPDEST PUSH1 0x0 DUP2 ISZERO ISZERO SWAP1 POP SWAP2 SWAP1 POP JUMP JUMPDEST PUSH3 0x288 DUP2 PUSH3 0x271 JUMP JUMPDEST DUP3 MSTORE POP POP JUMP JUMPDEST PUSH1 0x0 PUSH1 0x20 DUP3 ADD SWAP1 POP PUSH3 0x2A5 PUSH1 0x0 DUP4 ADD DUP5 PUSH3 0x27D JUMP JUMPDEST SWAP3 SWAP2 POP POP JUMP JUMPDEST PUSH1 0x0 DUP2 SWAP1 POP SWAP2 SWAP1 POP JUMP JUMPDEST PUSH3 0x2C0 DUP2 PUSH3 0x2AB JUMP JUMPDEST DUP2 EQ PUSH3 0x2CC JUMPI PUSH1 0x0 DUP1 REVERT JUMPDEST POP JUMP JUMPDEST PUSH1 0x0 DUP2 CALLDATALOAD SWAP1 POP PUSH3 0x2E0 DUP2 PUSH3 0x2B5 JUMP JUMPDEST SWAP3 SWAP2 POP POP JUMP JUMPDEST PUSH1 0x0 DUP1 PUSH1 0x0 DUP1 PUSH1 0x0 PUSH1 0xA0 DUP7 DUP9 SUB SLT ISZERO PUSH3 0x305 JUMPI PUSH3 0x304 PUSH3 0x1D5 JUMP JUMPDEST JUMPDEST PUSH1 0x0 PUSH3 0x315 DUP9 DUP3 DUP10 ADD PUSH3 0x228 JUMP JUMPDEST SWAP6 POP POP PUSH1 0x20 PUSH3 0x328 DUP9 DUP3 DUP10 ADD PUSH3 0x228 JUMP JUMPDEST SWAP5 POP POP PUSH1 0x40 PUSH3 0x33B DUP9 DUP3 DUP10 ADD PUSH3 0x228 JUMP JUMPDEST SWAP4 POP POP PUSH1 0x60 PUSH3 0x34E DUP9 DUP3 DUP10 ADD PUSH3 0x228 JUMP JUMPDEST SWAP3 POP POP PUSH1 0x80 PUSH3 0x361 DUP9 DUP3 DUP10 ADD PUSH3 0x2CF JUMP JUMPDEST SWAP2 POP POP SWAP3 SWAP6 POP SWAP3 SWAP6 SWAP1 SWAP4 POP JUMP JUMPDEST PUSH3 0x379 DUP2 PUSH3 0x1FA JUMP JUMPDEST DUP3 MSTORE POP POP JUMP JUMPDEST PUSH3 0x38A DUP2 PUSH3 0x2AB JUMP JUMPDEST DUP3 MSTORE POP POP JUMP JUMPDEST PUSH1 0x0 PUSH1 0xA0 DUP3 ADD SWAP1 POP PUSH3 0x3A7 PUSH1 0x0 DUP4 ADD DUP9 PUSH3 0x36E JUMP JUMPDEST PUSH3 0x3B6 PUSH1 0x20 DUP4 ADD DUP8 PUSH3 0x36E JUMP JUMPDEST PUSH3 0x3C5 PUSH1 0x40 DUP4 ADD DUP7 PUSH3 0x36E JUMP JUMPDEST PUSH3 0x3D4 PUSH1 0x60 DUP4 ADD DUP6 PUSH3 0x36E JUMP JUMPDEST PUSH3 0x3E3 PUSH1 0x80 DUP4 ADD DUP5 PUSH3 0x37F JUMP JUMPDEST SWAP7 SWAP6 POP POP POP POP POP POP JUMP JUMPDEST PUSH1 0x0 PUSH1 0x20 DUP3 ADD SWAP1 POP PUSH3 0x404 PUSH1 0x0 DUP4 ADD DUP5 PUSH3 0x36E JUMP JUMPDEST SWAP3 SWAP2 POP POP JUMP INVALID PUSH2 0x120 PUSH1 0x40 MSTORE PUSH1 0x40 MLOAD PUSH3 0x14B2 CODESIZE SUB DUP1 PUSH3 0x14B2 DUP4 CODECOPY DUP2 DUP2 ADD PUSH1 0x40 MSTORE DUP2 ADD SWAP1 PUSH3 0x2A SWAP2 SWAP1 PUSH3 0x45B JUMP JUMPDEST DUP4 PUSH20 0xFFFFFFFFFFFFFFFFFFFFFFFFFFFFFFFFFFFFFFFF AND DUP6 PUSH20 0xFFFFFFFFFFFFFFFFFFFFFFFFFFFFFFFFFFFFFFFF AND EQ ISZERO DUP1 ISZERO PUSH3 0x93 JUMPI POP DUP2 PUSH20 0xFFFFFFFFFFFFFFFFFFFFFFFFFFFFFFFFFFFFFFFF AND DUP6 PUSH20 0xFFFFFFFFFFFFFFFFFFFFFFFFFFFFFFFFFFFFFFFF AND EQ ISZERO JUMPDEST DUP1 ISZERO PUSH3 0xCC JUMPI POP DUP3 PUSH20 0xFFFFFFFFFFFFFFFFFFFFFFFFFFFFFFFFFFFFFFFF AND DUP5 PUSH20 0xFFFFFFFFFFFFFFFFFFFFFFFFFFFFFFFFFFFFFFFF AND EQ ISZERO JUMPDEST DUP1 ISZERO PUSH3 0x105 JUMPI POP DUP2 PUSH20 0xFFFFFFFFFFFFFFFFFFFFFFFFFFFFFFFFFFFFFFFF AND DUP5 PUSH20 0xFFFFFFFFFFFFFFFFFFFFFFFFFFFFFFFFFFFFFFFF AND EQ ISZERO JUMPDEST DUP1 ISZERO PUSH3 0x13E JUMPI POP DUP2 PUSH20 0xFFFFFFFFFFFFFFFFFFFFFFFFFFFFFFFFFFFFFFFF AND DUP4 PUSH20 0xFFFFFFFFFFFFFFFFFFFFFFFFFFFFFFFFFFFFFFFF AND EQ ISZERO JUMPDEST PUSH3 0x180 JUMPI PUSH1 0x40 MLOAD PUSH32 0x8C379A000000000000000000000000000000000000000000000000000000000 DUP2 MSTORE PUSH1 0x4 ADD PUSH3 0x177 SWAP1 PUSH3 0x544 JUMP JUMPDEST PUSH1 0x40 MLOAD DUP1 SWAP2 SUB SWAP1 REVERT JUMPDEST DUP5 PUSH20 0xFFFFFFFFFFFFFFFFFFFFFFFFFFFFFFFFFFFFFFFF AND CALLER PUSH20 0xFFFFFFFFFFFFFFFFFFFFFFFFFFFFFFFFFFFFFFFF AND EQ DUP1 PUSH3 0x1E6 JUMPI POP DUP4 PUSH20 0xFFFFFFFFFFFFFFFFFFFFFFFFFFFFFFFFFFFFFFFF AND CALLER PUSH20 0xFFFFFFFFFFFFFFFFFFFFFFFFFFFFFFFFFFFFFFFF AND EQ JUMPDEST DUP1 PUSH3 0x21D JUMPI POP DUP3 PUSH20 0xFFFFFFFFFFFFFFFFFFFFFFFFFFFFFFFFFFFFFFFF AND CALLER PUSH20 0xFFFFFFFFFFFFFFFFFFFFFFFFFFFFFFFFFFFFFFFF AND EQ JUMPDEST PUSH3 0x25F JUMPI PUSH1 0x40 MLOAD PUSH32 0x8C379A000000000000000000000000000000000000000000000000000000000 DUP2 MSTORE PUSH1 0x4 ADD PUSH3 0x256 SWAP1 PUSH3 0x5B6 JUMP JUMPDEST PUSH1 0x40 MLOAD DUP1 SWAP2 SUB SWAP1 REVERT JUMPDEST PUSH1 0x0 DUP2 GT PUSH3 0x2A5 JUMPI PUSH1 0x40 MLOAD PUSH32 0x8C379A000000000000000000000000000000000000000000000000000000000 DUP2 MSTORE PUSH1 0x4 ADD PUSH3 0x29C SWAP1 PUSH3 0x628 JUMP JUMPDEST PUSH1 0x40 MLOAD DUP1 SWAP2 SUB SWAP1 REVERT JUMPDEST DUP1 PUSH2 0x100 DUP2 DUP2 MSTORE POP POP DUP5 PUSH20 0xFFFFFFFFFFFFFFFFFFFFFFFFFFFFFFFFFFFFFFFF AND PUSH1 0x80 DUP2 PUSH20 0xFFFFFFFFFFFFFFFFFFFFFFFFFFFFFFFFFFFFFFFF AND DUP2 MSTORE POP POP DUP4 PUSH20 0xFFFFFFFFFFFFFFFFFFFFFFFFFFFFFFFFFFFFFFFF AND PUSH1 0xA0 DUP2 PUSH20 0xFFFFFFFFFFFFFFFFFFFFFFFFFFFFFFFFFFFFFFFF AND DUP2 MSTORE POP POP DUP3 PUSH20 0xFFFFFFFFFFFFFFFFFFFFFFFFFFFFFFFFFFFFFFFF AND PUSH1 0xC0 DUP2 PUSH20 0xFFFFFFFFFFFFFFFFFFFFFFFFFFFFFFFFFFFFFFFF AND DUP2 MSTORE POP POP DUP2 PUSH20 0xFFFFFFFFFFFFFFFFFFFFFFFFFFFFFFFFFFFFFFFF AND PUSH1 0xE0 DUP2 PUSH20 0xFFFFFFFFFFFFFFFFFFFFFFFFFFFFFFFFFFFFFFFF AND DUP2 MSTORE POP POP PUSH1 0x0 DUP1 PUSH1 0x0 PUSH2 0x100 EXP DUP2 SLOAD DUP2 PUSH1 0xFF MUL NOT AND SWAP1 DUP4 PUSH1 0x4 DUP2 GT ISZERO PUSH3 0x3A6 JUMPI PUSH3 0x3A5 PUSH3 0x64A JUMP JUMPDEST JUMPDEST MUL OR SWAP1 SSTORE POP POP POP POP POP POP PUSH3 0x679 JUMP JUMPDEST PUSH1 0x0 DUP1 REVERT JUMPDEST PUSH1 0x0 PUSH20 0xFFFFFFFFFFFFFFFFFFFFFFFFFFFFFFFFFFFFFFFF DUP3 AND SWAP1 POP SWAP2 SWAP1 POP JUMP JUMPDEST PUSH1 0x0 PUSH3 0x3E8 DUP3 PUSH3 0x3BB JUMP JUMPDEST SWAP1 POP SWAP2 SWAP1 POP JUMP JUMPDEST PUSH3 0x3FA DUP2 PUSH3 0x3DB JUMP JUMPDEST DUP2 EQ PUSH3 0x406 JUMPI PUSH1 0x0 DUP1 REVERT JUMPDEST POP JUMP JUMPDEST PUSH1 0x0 DUP2 MLOAD SWAP1 POP PUSH3 0x41A DUP2 PUSH3 0x3EF JUMP JUMPDEST SWAP3 SWAP2 POP POP JUMP JUMPDEST PUSH1 0x0 DUP2 SWAP1 POP SWAP2 SWAP1 POP JUMP JUMPDEST PUSH3 0x435 DUP2 PUSH3 0x420 JUMP JUMPDEST DUP2 EQ PUSH3 0x441 JUMPI PUSH1 0x0 DUP1 REVERT JUMPDEST POP JUMP JUMPDEST PUSH1 0x0 DUP2 MLOAD SWAP1 POP PUSH3 0x455 DUP2 PUSH3 0x42A JUMP JUMPDEST SWAP3 SWAP2 POP POP JUMP JUMPDEST PUSH1 0x0 DUP1 PUSH1 0x0 DUP1 PUSH1 0x0 PUSH1 0xA0 DUP7 DUP9 SUB SLT ISZERO PUSH3 0x47A JUMPI PUSH3 0x479 PUSH3 0x3B6 JUMP JUMPDEST JUMPDEST PUSH1 0x0 PUSH3 0x48A DUP9 DUP3 DUP10 ADD PUSH3 0x409 JUMP JUMPDEST SWAP6 POP POP PUSH1 0x20 PUSH3 0x49D DUP9 DUP3 DUP10 ADD PUSH3 0x409 JUMP JUMPDEST SWAP5 POP POP PUSH1 0x40 PUSH3 0x4B0 DUP9 DUP3 DUP10 ADD PUSH3 0x409 JUMP JUMPDEST SWAP4 POP POP PUSH1 0x60 PUSH3 0x4C3 DUP9 DUP3 DUP10 ADD PUSH3 0x409 JUMP JUMPDEST SWAP3 POP POP PUSH1 0x80 PUSH3 0x4D6 DUP9 DUP3 DUP10 ADD PUSH3 0x444 JUMP JUMPDEST SWAP2 POP POP SWAP3 SWAP6 POP SWAP3 SWAP6 SWAP1 SWAP4 POP JUMP JUMPDEST PUSH1 0x0 DUP3 DUP3 MSTORE PUSH1 0x20 DUP3 ADD SWAP1 POP SWAP3 SWAP2 POP POP JUMP JUMPDEST PUSH32 0x6530303100000000000000000000000000000000000000000000000000000000 PUSH1 0x0 DUP3 ADD MSTORE POP JUMP JUMPDEST PUSH1 0x0 PUSH3 0x52C PUSH1 0x4 DUP4 PUSH3 0x4E3 JUMP JUMPDEST SWAP2 POP PUSH3 0x539 DUP3 PUSH3 0x4F4 JUMP JUMPDEST PUSH1 0x20 DUP3 ADD SWAP1 POP SWAP2 SWAP1 POP JUMP JUMPDEST PUSH1 0x0 PUSH1 0x20 DUP3 ADD SWAP1 POP DUP2 DUP2 SUB PUSH1 0x0 DUP4 ADD MSTORE PUSH3 0x55F DUP2 PUSH3 0x51D JUMP JUMPDEST SWAP1 POP SWAP2 SWAP1 POP JUMP JUMPDEST PUSH32 0x6530303300000000000000000000000000000000000000000000000000000000 PUSH1 0x0 DUP3 ADD MSTORE POP JUMP JUMPDEST PUSH1 0x0 PUSH3 0x59E PUSH1 0x4 DUP4 PUSH3 0x4E3 JUMP JUMPDEST SWAP2 POP PUSH3 0x5AB DUP3 PUSH3 0x566 JUMP JUMPDEST PUSH1 0x20 DUP3 ADD SWAP1 POP SWAP2 SWAP1 POP JUMP JUMPDEST PUSH1 0x0 PUSH1 0x20 DUP3 ADD SWAP1 POP DUP2 DUP2 SUB PUSH1 0x0 DUP4 ADD MSTORE PUSH3 0x5D1 DUP2 PUSH3 0x58F JUMP JUMPDEST SWAP1 POP SWAP2 SWAP1 POP JUMP JUMPDEST PUSH32 0x6530303600000000000000000000000000000000000000000000000000000000 PUSH1 0x0 DUP3 ADD MSTORE POP JUMP JUMPDEST PUSH1 0x0 PUSH3 0x610 PUSH1 0x4 DUP4 PUSH3 0x4E3 JUMP JUMPDEST SWAP2 POP PUSH3 0x61D DUP3 PUSH3 0x5D8 JUMP JUMPDEST PUSH1 0x20 DUP3 ADD SWAP1 POP SWAP2 SWAP1 POP JUMP JUMPDEST PUSH1 0x0 PUSH1 0x20 DUP3 ADD SWAP1 POP DUP2 DUP2 SUB PUSH1 0x0 DUP4 ADD MSTORE PUSH3 0x643 DUP2 PUSH3 0x601 JUMP JUMPDEST SWAP1 POP SWAP2 SWAP1 POP JUMP JUMPDEST PUSH32 0x4E487B7100000000000000000000000000000000000000000000000000000000 PUSH1 0x0 MSTORE PUSH1 0x21 PUSH1 0x4 MSTORE PUSH1 0x24 PUSH1 0x0 REVERT JUMPDEST PUSH1 0x80 MLOAD PUSH1 0xA0 MLOAD PUSH1 0xC0 MLOAD PUSH1 0xE0 MLOAD PUSH2 0x100 MLOAD PUSH2 0xDBC PUSH3 0x6F6 PUSH1 0x0 CODECOPY PUSH1 0x0 DUP2 DUP2 PUSH2 0x339 ADD MSTORE DUP2 DUP2 PUSH2 0x546 ADD MSTORE DUP2 DUP2 PUSH2 0x745 ADD MSTORE PUSH2 0x775 ADD MSTORE PUSH1 0x0 DUP2 DUP2 PUSH2 0x522 ADD MSTORE DUP2 DUP2 PUSH2 0x57B ADD MSTORE PUSH2 0x7A2 ADD MSTORE PUSH1 0x0 DUP2 DUP2 PUSH2 0x3C8 ADD MSTORE PUSH2 0x6A9 ADD MSTORE PUSH1 0x0 DUP2 DUP2 PUSH2 0x1FD ADD MSTORE PUSH2 0x809 ADD MSTORE PUSH1 0x0 DUP2 DUP2 PUSH2 0x237 ADD MSTORE PUSH2 0x4FE ADD MSTORE PUSH2 0xDBC PUSH1 0x0 RETURN INVALID PUSH1 0x80 PUSH1 0x40 MSTORE PUSH1 0x4 CALLDATASIZE LT PUSH2 0x91 JUMPI PUSH1 0x0 CALLDATALOAD PUSH1 0xE0 SHR DUP1 PUSH4 0x80F55605 GT PUSH2 0x59 JUMPI DUP1 PUSH4 0x80F55605 EQ PUSH2 0x138 JUMPI DUP1 PUSH4 0x97E9A0BF EQ PUSH2 0x163 JUMPI DUP1 PUSH4 0x9C1D9E3E EQ PUSH2 0x18E JUMPI DUP1 PUSH4 0xD2C9EA03 EQ PUSH2 0x1B9 JUMPI DUP1 PUSH4 0xF7260D3E EQ PUSH2 0x1D0 JUMPI PUSH2 0x91 JUMP JUMPDEST DUP1 PUSH4 0x8551A53 EQ PUSH2 0x96 JUMPI DUP1 PUSH4 0x18609960 EQ PUSH2 0xC1 JUMPI DUP1 PUSH4 0x25B00885 EQ PUSH2 0xEC JUMPI DUP1 PUSH4 0x4FBC4F60 EQ PUSH2 0xF6 JUMPI DUP1 PUSH4 0x7150D8AE EQ PUSH2 0x10D JUMPI JUMPDEST PUSH1 0x0 DUP1 REVERT JUMPDEST CALLVALUE DUP1 ISZERO PUSH2 0xA2 JUMPI PUSH1 0x0 DUP1 REVERT JUMPDEST POP PUSH2 0xAB PUSH2 0x1FB JUMP JUMPDEST PUSH1 0x40 MLOAD PUSH2 0xB8 SWAP2 SWAP1 PUSH2 0x8DD JUMP JUMPDEST PUSH1 0x40 MLOAD DUP1 SWAP2 SUB SWAP1 RETURN JUMPDEST CALLVALUE DUP1 ISZERO PUSH2 0xCD JUMPI PUSH1 0x0 DUP1 REVERT JUMPDEST POP PUSH2 0xD6 PUSH2 0x21F JUMP JUMPDEST PUSH1 0x40 MLOAD PUSH2 0xE3 SWAP2 SWAP1 PUSH2 0x96F JUMP JUMPDEST PUSH1 0x40 MLOAD DUP1 SWAP2 SUB SWAP1 RETURN JUMPDEST PUSH2 0xF4 PUSH2 0x235 JUMP JUMPDEST STOP JUMPDEST CALLVALUE DUP1 ISZERO PUSH2 0x102 JUMPI PUSH1 0x0 DUP1 REVERT JUMPDEST POP PUSH2 0x10B PUSH2 0x3C6 JUMP JUMPDEST STOP JUMPDEST CALLVALUE DUP1 ISZERO PUSH2 0x119 JUMPI PUSH1 0x0 DUP1 REVERT JUMPDEST POP PUSH2 0x122 PUSH2 0x4FC JUMP JUMPDEST PUSH1 0x40 MLOAD PUSH2 0x12F SWAP2 SWAP1 PUSH2 0x8DD JUMP JUMPDEST PUSH1 0x40 MLOAD DUP1 SWAP2 SUB SWAP1 RETURN JUMPDEST CALLVALUE DUP1 ISZERO PUSH2 0x144 JUMPI PUSH1 0x0 DUP1 REVERT JUMPDEST POP PUSH2 0x14D PUSH2 0x520 JUMP JUMPDEST PUSH1 0x40 MLOAD PUSH2 0x15A SWAP2 SWAP1 PUSH2 0x8DD JUMP JUMPDEST PUSH1 0x40 MLOAD DUP1 SWAP2 SUB SWAP1 RETURN JUMPDEST CALLVALUE DUP1 ISZERO PUSH2 0x16F JUMPI PUSH1 0x0 DUP1 REVERT JUMPDEST POP PUSH2 0x178 PUSH2 0x544 JUMP JUMPDEST PUSH1 0x40 MLOAD PUSH2 0x185 SWAP2 SWAP1 PUSH2 0x9A3 JUMP JUMPDEST PUSH1 0x40 MLOAD DUP1 SWAP2 SUB SWAP1 RETURN JUMPDEST CALLVALUE DUP1 ISZERO PUSH2 0x19A JUMPI PUSH1 0x0 DUP1 REVERT JUMPDEST POP PUSH2 0x1A3 PUSH2 0x568 JUMP JUMPDEST PUSH1 0x40 MLOAD PUSH2 0x1B0 SWAP2 SWAP1 PUSH2 0x96F JUMP JUMPDEST PUSH1 0x40 MLOAD DUP1 SWAP2 SUB SWAP1 RETURN JUMPDEST CALLVALUE DUP1 ISZERO PUSH2 0x1C5 JUMPI PUSH1 0x0 DUP1 REVERT JUMPDEST POP PUSH2 0x1CE PUSH2 0x579 JUMP JUMPDEST STOP JUMPDEST CALLVALUE DUP1 ISZERO PUSH2 0x1DC JUMPI PUSH1 0x0 DUP1 REVERT JUMPDEST POP PUSH2 0x1E5 PUSH2 0x6A7 JUMP JUMPDEST PUSH1 0x40 MLOAD PUSH2 0x1F2 SWAP2 SWAP1 PUSH2 0x8DD JUMP JUMPDEST PUSH1 0x40 MLOAD DUP1 SWAP2 SUB SWAP1 RETURN JUMPDEST PUSH32 0x0 DUP2 JUMP JUMPDEST PUSH1 0x0 DUP1 PUSH1 0x0 SWAP1 SLOAD SWAP1 PUSH2 0x100 EXP SWAP1 DIV PUSH1 0xFF AND SWAP1 POP SWAP1 JUMP JUMPDEST PUSH32 0x0 PUSH20 0xFFFFFFFFFFFFFFFFFFFFFFFFFFFFFFFFFFFFFFFF AND CALLER PUSH20 0xFFFFFFFFFFFFFFFFFFFFFFFFFFFFFFFFFFFFFFFF AND EQ PUSH2 0x2C3 JUMPI PUSH1 0x40 MLOAD PUSH32 0x8C379A000000000000000000000000000000000000000000000000000000000 DUP2 MSTORE PUSH1 0x4 ADD PUSH2 0x2BA SWAP1 PUSH2 0xA1B JUMP JUMPDEST PUSH1 0x40 MLOAD DUP1 SWAP2 SUB SWAP1 REVERT JUMPDEST PUSH1 0x0 PUSH1 0x4 DUP2 GT ISZERO PUSH2 0x2D7 JUMPI PUSH2 0x2D6 PUSH2 0x8F8 JUMP JUMPDEST JUMPDEST PUSH1 0x0 DUP1 SLOAD SWAP1 PUSH2 0x100 EXP SWAP1 DIV PUSH1 0xFF AND PUSH1 0x4 DUP2 GT ISZERO PUSH2 0x2F7 JUMPI PUSH2 0x2F6 PUSH2 0x8F8 JUMP JUMPDEST JUMPDEST EQ PUSH2 0x337 JUMPI PUSH1 0x40 MLOAD PUSH32 0x8C379A000000000000000000000000000000000000000000000000000000000 DUP2 MSTORE PUSH1 0x4 ADD PUSH2 0x32E SWAP1 PUSH2 0xA87 JUMP JUMPDEST PUSH1 0x40 MLOAD DUP1 SWAP2 SUB SWAP1 REVERT JUMPDEST PUSH32 0x0 SELFBALANCE LT ISZERO PUSH2 0x39A JUMPI PUSH1 0x40 MLOAD PUSH32 0x8C379A000000000000000000000000000000000000000000000000000000000 DUP2 MSTORE PUSH1 0x4 ADD PUSH2 0x391 SWAP1 PUSH2 0xAF3 JUMP JUMPDEST PUSH1 0x40 MLOAD DUP1 SWAP2 SUB SWAP1 REVERT JUMPDEST PUSH1 0x1 PUSH1 0x0 DUP1 PUSH2 0x100 EXP DUP2 SLOAD DUP2 PUSH1 0xFF MUL NOT AND SWAP1 DUP4 PUSH1 0x4 DUP2 GT ISZERO PUSH2 0x3BF JUMPI PUSH2 0x3BE PUSH2 0x8F8 JUMP JUMPDEST JUMPDEST MUL OR SWAP1 SSTORE POP JUMP JUMPDEST PUSH32 0x0 PUSH20 0xFFFFFFFFFFFFFFFFFFFFFFFFFFFFFFFFFFFFFFFF AND CALLER PUSH20 0xFFFFFFFFFFFFFFFFFFFFFFFFFFFFFFFFFFFFFFFF AND EQ PUSH2 0x454 JUMPI PUSH1 0x40 MLOAD PUSH32 0x8C379A000000000000000000000000000000000000000000000000000000000 DUP2 MSTORE PUSH1 0x4 ADD PUSH2 0x44B SWAP1 PUSH2 0xB5F JUMP JUMPDEST PUSH1 0x40 MLOAD DUP1 SWAP2 SUB SWAP1 REVERT JUMPDEST PUSH1 0x2 PUSH1 0x4 DUP2 GT ISZERO PUSH2 0x468 JUMPI PUSH2 0x467 PUSH2 0x8F8 JUMP JUMPDEST JUMPDEST PUSH1 0x0 DUP1 SLOAD SWAP1 PUSH2 0x100 EXP SWAP1 DIV PUSH1 0xFF AND PUSH1 0x4 DUP2 GT ISZERO PUSH2 0x488 JUMPI PUSH2 0x487 PUSH2 0x8F8 JUMP JUMPDEST JUMPDEST EQ PUSH2 0x4C8 JUMPI PUSH1 0x40 MLOAD PUSH32 0x8C379A000000000000000000000000000000000000000000000000000000000 DUP2 MSTORE PUSH1 0x4 ADD PUSH2 0x4BF SWAP1 PUSH2 0xBCB JUMP JUMPDEST PUSH1 0x40 MLOAD DUP1 SWAP2 SUB SWAP1 REVERT JUMPDEST PUSH1 0x3 PUSH1 0x0 DUP1 PUSH2 0x100 EXP DUP2 SLOAD DUP2 PUSH1 0xFF MUL NOT AND SWAP1 DUP4 PUSH1 0x4 DUP2 GT ISZERO PUSH2 0x4ED JUMPI PUSH2 0x4EC PUSH2 0x8F8 JUMP JUMPDEST JUMPDEST MUL OR SWAP1 SSTORE POP PUSH2 0x4FA PUSH2 0x6CB JUMP JUMPDEST JUMP JUMPDEST PUSH32 0x0 DUP2 JUMP JUMPDEST PUSH32 0x0 DUP2 JUMP JUMPDEST PUSH32 0x0 DUP2 JUMP JUMPDEST PUSH1 0x0 DUP1 SLOAD SWAP1 PUSH2 0x100 EXP SWAP1 DIV PUSH1 0xFF AND DUP2 JUMP JUMPDEST PUSH32 0x0 PUSH20 0xFFFFFFFFFFFFFFFFFFFFFFFFFFFFFFFFFFFFFFFF AND CALLER PUSH20 0xFFFFFFFFFFFFFFFFFFFFFFFFFFFFFFFFFFFFFFFF AND EQ PUSH2 0x607 JUMPI PUSH1 0x40 MLOAD PUSH32 0x8C379A000000000000000000000000000000000000000000000000000000000 DUP2 MSTORE PUSH1 0x4 ADD PUSH2 0x5FE SWAP1 PUSH2 0xC37 JUMP JUMPDEST PUSH1 0x40 MLOAD DUP1 SWAP2 SUB SWAP1 REVERT JUMPDEST PUSH1 0x1 PUSH1 0x4 DUP2 GT ISZERO PUSH2 0x61B JUMPI PUSH2 0x61A PUSH2 0x8F8 JUMP JUMPDEST JUMPDEST PUSH1 0x0 DUP1 SLOAD SWAP1 PUSH2 0x100 EXP SWAP1 DIV PUSH1 0xFF AND PUSH1 0x4 DUP2 GT ISZERO PUSH2 0x63B JUMPI PUSH2 0x63A PUSH2 0x8F8 JUMP JUMPDEST JUMPDEST EQ PUSH2 0x67B JUMPI PUSH1 0x40 MLOAD PUSH32 0x8C379A000000000000000000000000000000000000000000000000000000000 DUP2 MSTORE PUSH1 0x4 ADD PUSH2 0x672 SWAP1 PUSH2 0xA87 JUMP JUMPDEST PUSH1 0x40 MLOAD DUP1 SWAP2 SUB SWAP1 REVERT JUMPDEST PUSH1 0x2 PUSH1 0x0 DUP1 PUSH2 0x100 EXP DUP2 SLOAD DUP2 PUSH1 0xFF MUL NOT AND SWAP1 DUP4 PUSH1 0x4 DUP2 GT ISZERO PUSH2 0x6A0 JUMPI PUSH2 0x69F PUSH2 0x8F8 JUMP JUMPDEST JUMPDEST MUL OR SWAP1 SSTORE POP JUMP JUMPDEST PUSH32 0x0 DUP2 JUMP JUMPDEST PUSH1 0x3 PUSH1 0x4 DUP2 GT ISZERO PUSH2 0x6DF JUMPI PUSH2 0x6DE PUSH2 0x8F8 JUMP JUMPDEST JUMPDEST PUSH1 0x0 DUP1 SLOAD SWAP1 PUSH2 0x100 EXP SWAP1 DIV PUSH1 0xFF AND PUSH1 0x4 DUP2 GT ISZERO PUSH2 0x6FF JUMPI PUSH2 0x6FE PUSH2 0x8F8 JUMP JUMPDEST JUMPDEST EQ PUSH2 0x73F JUMPI PUSH1 0x40 MLOAD PUSH32 0x8C379A000000000000000000000000000000000000000000000000000000000 DUP2 MSTORE PUSH1 0x4 ADD PUSH2 0x736 SWAP1 PUSH2 0xCA3 JUMP JUMPDEST PUSH1 0x40 MLOAD DUP1 SWAP2 SUB SWAP1 REVERT JUMPDEST PUSH1 0x0 PUSH1 0xA PUSH32 0x0 PUSH2 0x76E SWAP2 SWAP1 PUSH2 0xD21 JUMP JUMPDEST SWAP1 POP PUSH1 0x0 DUP2 PUSH32 0x0 PUSH2 0x79E SWAP2 SWAP1 PUSH2 0xD52 JUMP JUMPDEST SWAP1 POP PUSH32 0x0 PUSH20 0xFFFFFFFFFFFFFFFFFFFFFFFFFFFFFFFFFFFFFFFF AND PUSH2 0x8FC DUP4 SWAP1 DUP2 ISZERO MUL SWAP1 PUSH1 0x40 MLOAD PUSH1 0x0 PUSH1 0x40 MLOAD DUP1 DUP4 SUB DUP2 DUP6 DUP9 DUP9 CALL SWAP4 POP POP POP POP ISZERO DUP1 ISZERO PUSH2 0x806 JUMPI RETURNDATASIZE PUSH1 0x0 DUP1 RETURNDATACOPY RETURNDATASIZE PUSH1 0x0 REVERT JUMPDEST POP PUSH32 0x0 PUSH20 0xFFFFFFFFFFFFFFFFFFFFFFFFFFFFFFFFFFFFFFFF AND PUSH2 0x8FC DUP3 SWAP1 DUP2 ISZERO MUL SWAP1 PUSH1 0x40 MLOAD PUSH1 0x0 PUSH1 0x40 MLOAD DUP1 DUP4 SUB DUP2 DUP6 DUP9 DUP9 CALL SWAP4 POP POP POP POP ISZERO DUP1 ISZERO PUSH2 0x86D JUMPI RETURNDATASIZE PUSH1 0x0 DUP1 RETURNDATACOPY RETURNDATASIZE PUSH1 0x0 REVERT JUMPDEST POP PUSH1 0x4 PUSH1 0x0 DUP1 PUSH2 0x100 EXP DUP2 SLOAD DUP2 PUSH1 0xFF MUL NOT AND SWAP1 DUP4 PUSH1 0x4 DUP2 GT ISZERO PUSH2 0x893 JUMPI PUSH2 0x892 PUSH2 0x8F8 JUMP JUMPDEST JUMPDEST MUL OR SWAP1 SSTORE POP POP POP JUMP JUMPDEST PUSH1 0x0 PUSH20 0xFFFFFFFFFFFFFFFFFFFFFFFFFFFFFFFFFFFFFFFF DUP3 AND SWAP1 POP SWAP2 SWAP1 POP JUMP JUMPDEST PUSH1 0x0 PUSH2 0x8C7 DUP3 PUSH2 0x89C JUMP JUMPDEST SWAP1 POP SWAP2 SWAP1 POP JUMP JUMPDEST PUSH2 0x8D7 DUP2 PUSH2 0x8BC JUMP JUMPDEST DUP3 MSTORE POP POP JUMP JUMPDEST PUSH1 0x0 PUSH1 0x20 DUP3 ADD SWAP1 POP PUSH2 0x8F2 PUSH1 0x0 DUP4 ADD DUP5 PUSH2 0x8CE JUMP JUMPDEST SWAP3 SWAP2 POP POP JUMP JUMPDEST PUSH32 0x4E487B7100000000000000000000000000000000000000000000000000000000 PUSH1 0x0 MSTORE PUSH1 0x21 PUSH1 0x4 MSTORE PUSH1 0x24 PUSH1 0x0 REVERT JUMPDEST PUSH1 0x5 DUP2 LT PUSH2 0x938 JUMPI PUSH2 0x937 PUSH2 0x8F8 JUMP JUMPDEST JUMPDEST POP JUMP JUMPDEST PUSH1 0x0 DUP2 SWAP1 POP PUSH2 0x949 DUP3 PUSH2 0x927 JUMP JUMPDEST SWAP2 SWAP1 POP JUMP JUMPDEST PUSH1 0x0 PUSH2 0x959 DUP3 PUSH2 0x93B JUMP JUMPDEST SWAP1 POP SWAP2 SWAP1 POP JUMP JUMPDEST PUSH2 0x969 DUP2 PUSH2 0x94E JUMP JUMPDEST DUP3 MSTORE POP POP JUMP JUMPDEST PUSH1 0x0 PUSH1 0x20 DUP3 ADD SWAP1 POP PUSH2 0x984 PUSH1 0x0 DUP4 ADD DUP5 PUSH2 0x960 JUMP JUMPDEST SWAP3 SWAP2 POP POP JUMP JUMPDEST PUSH1 0x0 DUP2 SWAP1 POP SWAP2 SWAP1 POP JUMP JUMPDEST PUSH2 0x99D DUP2 PUSH2 0x98A JUMP JUMPDEST DUP3 MSTORE POP POP JUMP JUMPDEST PUSH1 0x0 PUSH1 0x20 DUP3 ADD SWAP1 POP PUSH2 0x9B8 PUSH1 0x0 DUP4 ADD DUP5 PUSH2 0x994 JUMP JUMPDEST SWAP3 SWAP2 POP POP JUMP JUMPDEST PUSH1 0x0 DUP3 DUP3 MSTORE PUSH1 0x20 DUP3 ADD SWAP1 POP SWAP3 SWAP2 POP POP JUMP JUMPDEST PUSH32 0x6530303300000000000000000000000000000000000000000000000000000000 PUSH1 0x0 DUP3 ADD MSTORE POP JUMP JUMPDEST PUSH1 0x0 PUSH2 0xA05 PUSH1 0x4 DUP4 PUSH2 0x9BE JUMP JUMPDEST SWAP2 POP PUSH2 0xA10 DUP3 PUSH2 0x9CF JUMP JUMPDEST PUSH1 0x20 DUP3 ADD SWAP1 POP SWAP2 SWAP1 POP JUMP JUMPDEST PUSH1 0x0 PUSH1 0x20 DUP3 ADD SWAP1 POP DUP2 DUP2 SUB PUSH1 0x0 DUP4 ADD MSTORE PUSH2 0xA34 DUP2 PUSH2 0x9F8 JUMP JUMPDEST SWAP1 POP SWAP2 SWAP1 POP JUMP JUMPDEST PUSH32 0x6530313300000000000000000000000000000000000000000000000000000000 PUSH1 0x0 DUP3 ADD MSTORE POP JUMP JUMPDEST PUSH1 0x0 PUSH2 0xA71 PUSH1 0x4 DUP4 PUSH2 0x9BE JUMP JUMPDEST SWAP2 POP PUSH2 0xA7C DUP3 PUSH2 0xA3B JUMP JUMPDEST PUSH1 0x20 DUP3 ADD SWAP1 POP SWAP2 SWAP1 POP JUMP JUMPDEST PUSH1 0x0 PUSH1 0x20 DUP3 ADD SWAP1 POP DUP2 DUP2 SUB PUSH1 0x0 DUP4 ADD MSTORE PUSH2 0xAA0 DUP2 PUSH2 0xA64 JUMP JUMPDEST SWAP1 POP SWAP2 SWAP1 POP JUMP JUMPDEST PUSH32 0x6530303200000000000000000000000000000000000000000000000000000000 PUSH1 0x0 DUP3 ADD MSTORE POP JUMP JUMPDEST PUSH1 0x0 PUSH2 0xADD PUSH1 0x4 DUP4 PUSH2 0x9BE JUMP JUMPDEST SWAP2 POP PUSH2 0xAE8 DUP3 PUSH2 0xAA7 JUMP JUMPDEST PUSH1 0x20 DUP3 ADD SWAP1 POP SWAP2 SWAP1 POP JUMP JUMPDEST PUSH1 0x0 PUSH1 0x20 DUP3 ADD SWAP1 POP DUP2 DUP2 SUB PUSH1 0x0 DUP4 ADD MSTORE PUSH2 0xB0C DUP2 PUSH2 0xAD0 JUMP JUMPDEST SWAP1 POP SWAP2 SWAP1 POP JUMP JUMPDEST PUSH32 0x6530323000000000000000000000000000000000000000000000000000000000 PUSH1 0x0 DUP3 ADD MSTORE POP JUMP JUMPDEST PUSH1 0x0 PUSH2 0xB49 PUSH1 0x4 DUP4 PUSH2 0x9BE JUMP JUMPDEST SWAP2 POP PUSH2 0xB54 DUP3 PUSH2 0xB13 JUMP JUMPDEST PUSH1 0x20 DUP3 ADD SWAP1 POP SWAP2 SWAP1 POP JUMP JUMPDEST PUSH1 0x0 PUSH1 0x20 DUP3 ADD SWAP1 POP DUP2 DUP2 SUB PUSH1 0x0 DUP4 ADD MSTORE PUSH2 0xB78 DUP2 PUSH2 0xB3C JUMP JUMPDEST SWAP1 POP SWAP2 SWAP1 POP JUMP JUMPDEST PUSH32 0x6530323100000000000000000000000000000000000000000000000000000000 PUSH1 0x0 DUP3 ADD MSTORE POP JUMP JUMPDEST PUSH1 0x0 PUSH2 0xBB5 PUSH1 0x4 DUP4 PUSH2 0x9BE JUMP JUMPDEST SWAP2 POP PUSH2 0xBC0 DUP3 PUSH2 0xB7F JUMP JUMPDEST PUSH1 0x20 DUP3 ADD SWAP1 POP SWAP2 SWAP1 POP JUMP JUMPDEST PUSH1 0x0 PUSH1 0x20 DUP3 ADD SWAP1 POP DUP2 DUP2 SUB PUSH1 0x0 DUP4 ADD MSTORE PUSH2 0xBE4 DUP2 PUSH2 0xBA8 JUMP JUMPDEST SWAP1 POP SWAP2 SWAP1 POP JUMP JUMPDEST PUSH32 0x6530323400000000000000000000000000000000000000000000000000000000 PUSH1 0x0 DUP3 ADD MSTORE POP JUMP JUMPDEST PUSH1 0x0 PUSH2 0xC21 PUSH1 0x4 DUP4 PUSH2 0x9BE JUMP JUMPDEST SWAP2 POP PUSH2 0xC2C DUP3 PUSH2 0xBEB JUMP JUMPDEST PUSH1 0x20 DUP3 ADD SWAP1 POP SWAP2 SWAP1 POP JUMP JUMPDEST PUSH1 0x0 PUSH1 0x20 DUP3 ADD SWAP1 POP DUP2 DUP2 SUB PUSH1 0x0 DUP4 ADD MSTORE PUSH2 0xC50 DUP2 PUSH2 0xC14 JUMP JUMPDEST SWAP1 POP SWAP2 SWAP1 POP JUMP JUMPDEST PUSH32 0x6530323200000000000000000000000000000000000000000000000000000000 PUSH1 0x0 DUP3 ADD MSTORE POP JUMP JUMPDEST PUSH1 0x0 PUSH2 0xC8D PUSH1 0x4 DUP4 PUSH2 0x9BE JUMP JUMPDEST SWAP2 POP PUSH2 0xC98 DUP3 PUSH2 0xC57 JUMP JUMPDEST PUSH1 0x20 DUP3 ADD SWAP1 POP SWAP2 SWAP1 POP JUMP JUMPDEST PUSH1 0x0 PUSH1 0x20 DUP3 ADD SWAP1 POP DUP2 DUP2 SUB PUSH1 0x0 DUP4 ADD MSTORE PUSH2 0xCBC DUP2 PUSH2 0xC80 JUMP JUMPDEST SWAP1 POP SWAP2 SWAP1 POP JUMP JUMPDEST PUSH32 0x4E487B7100000000000000000000000000000000000000000000000000000000 PUSH1 0x0 MSTORE PUSH1 0x12 PUSH1 0x4 MSTORE PUSH1 0x24 PUSH1 0x0 REVERT JUMPDEST PUSH32 0x4E487B7100000000000000000000000000000000000000000000000000000000 PUSH1 0x0 MSTORE PUSH1 0x11 PUSH1 0x4 MSTORE PUSH1 0x24 PUSH1 0x0 REVERT JUMPDEST PUSH1 0x0 PUSH2 0xD2C DUP3 PUSH2 0x98A JUMP JUMPDEST SWAP2 POP PUSH2 0xD37 DUP4 PUSH2 0x98A JUMP JUMPDEST SWAP3 POP DUP3 PUSH2 0xD47 JUMPI PUSH2 0xD46 PUSH2 0xCC3 JUMP JUMPDEST JUMPDEST DUP3 DUP3 DIV SWAP1 POP SWAP3 SWAP2 POP POP JUMP JUMPDEST PUSH1 0x0 PUSH2 0xD5D DUP3 PUSH2 0x98A JUMP JUMPDEST SWAP2 POP PUSH2 0xD68 DUP4 PUSH2 0x98A JUMP JUMPDEST SWAP3 POP DUP3 DUP3 LT ISZERO PUSH2 0xD7B JUMPI PUSH2 0xD7A PUSH2 0xCF2 JUMP JUMPDEST JUMPDEST DUP3 DUP3 SUB SWAP1 POP SWAP3 SWAP2 POP POP JUMP INVALID LOG2 PUSH5 0x6970667358 0x22 SLT KECCAK256 CREATE 0xB7 0xE6 ADDRESS DUP15 DUP12 PUSH26 0xA8AA2B5B7D7C6423975051305297674A818309BE553A707E2364 PUSH20 0x6F6C634300080D0033A26469706673582212200F MULMOD PUSH17 0xA79BD384190ECF9BC6B28A6300ADF434A7 PUSH6 0x81B910B2D501 PUSH1 0xF2 SWAP14 0xB1 DUP16 PUSH5 0x736F6C6343 STOP ADDMOD 0xD STOP CALLER "
				},
				"gasEstimates": {
					"creation": {
						"codeDepositCost": "1277200",
						"executionCost": "1329",
						"totalCost": "1278529"
					},
					"external": {
						"createEscrow(address,address,address,address,uint256)": "infinite",
						"existEscrow(address)": "2861"
					}
				},
				"methodIdentifiers": {
					"createEscrow(address,address,address,address,uint256)": "99214453",
					"existEscrow(address)": "7d1b4753"
				}
			},
			"storageLayout": {
				"storage": [
					{
						"astId": 327,
						"contract": "frontend/src/contracts/naegift_escrow_factory.sol:NaegiftEscrowFactory",
						"label": "escrowList",
						"offset": 0,
						"slot": "0",
						"type": "t_mapping(t_address,t_bool)"
					}
				],
				"types": {
					"t_address": {
						"encoding": "inplace",
						"label": "address",
						"numberOfBytes": "20"
					},
					"t_bool": {
						"encoding": "inplace",
						"label": "bool",
						"numberOfBytes": "1"
					},
					"t_mapping(t_address,t_bool)": {
						"encoding": "mapping",
						"key": "t_address",
						"label": "mapping(address => bool)",
						"numberOfBytes": "32",
						"value": "t_bool"
					}
				}
			},
			"userdoc": {
				"kind": "user",
				"methods": {},
				"version": 1
			}
		}
	}
}