{
	"frontend/src/contracts/naegift_escrow.sol": {
		"naegift_escrow": {
			"abi": [
				{
					"inputs": [
						{
							"internalType": "address",
							"name": "_buyer",
							"type": "address"
						},
						{
							"internalType": "address",
							"name": "_seller",
							"type": "address"
						},
						{
							"internalType": "address",
							"name": "_receiver",
							"type": "address"
						},
						{
							"internalType": "address",
							"name": "_market",
							"type": "address"
						},
						{
							"internalType": "uint256",
							"name": "_contractPrice",
							"type": "uint256"
						}
					],
					"stateMutability": "payable",
					"type": "constructor"
				},
				{
					"anonymous": false,
					"inputs": [
						{
							"indexed": true,
							"internalType": "address",
							"name": "buyer",
							"type": "address"
						},
						{
							"indexed": false,
							"internalType": "uint256",
							"name": "amount",
							"type": "uint256"
						}
					],
					"name": "DepositConfirmed",
					"type": "event"
				},
				{
					"anonymous": false,
					"inputs": [
						{
							"indexed": true,
							"internalType": "address",
							"name": "market",
							"type": "address"
						}
					],
					"name": "FulfillmentConfirmed",
					"type": "event"
				},
				{
					"anonymous": false,
					"inputs": [
						{
							"indexed": true,
							"internalType": "address",
							"name": "market",
							"type": "address"
						},
						{
							"indexed": false,
							"internalType": "uint256",
							"name": "marketShare",
							"type": "uint256"
						},
						{
							"indexed": true,
							"internalType": "address",
							"name": "seller",
							"type": "address"
						},
						{
							"indexed": false,
							"internalType": "uint256",
							"name": "sellerShare",
							"type": "uint256"
						}
					],
					"name": "FundsDistributed",
					"type": "event"
				},
				{
					"anonymous": false,
					"inputs": [
						{
							"indexed": true,
							"internalType": "address",
							"name": "receiver",
							"type": "address"
						}
					],
					"name": "ProductUsedConfirmed",
					"type": "event"
				},
				{
					"inputs": [],
					"name": "ContractState",
					"outputs": [
						{
							"internalType": "enum naegift_escrow.ContractStateChoices",
							"name": "",
							"type": "uint8"
						}
					],
					"stateMutability": "view",
					"type": "function"
				},
				{
					"inputs": [],
					"name": "buyer",
					"outputs": [
						{
							"internalType": "address",
							"name": "",
							"type": "address"
						}
					],
					"stateMutability": "view",
					"type": "function"
				},
				{
					"inputs": [],
					"name": "confirmFulfillment",
					"outputs": [],
					"stateMutability": "nonpayable",
					"type": "function"
				},
				{
					"inputs": [],
					"name": "confirmProductUsed",
					"outputs": [],
					"stateMutability": "nonpayable",
					"type": "function"
				},
				{
					"inputs": [],
					"name": "contractPrice",
					"outputs": [
						{
							"internalType": "uint256",
							"name": "",
							"type": "uint256"
						}
					],
					"stateMutability": "view",
					"type": "function"
				},
				{
					"inputs": [],
					"name": "escrowStatus",
					"outputs": [
						{
							"internalType": "enum naegift_escrow.ContractStateChoices",
							"name": "",
							"type": "uint8"
						}
					],
					"stateMutability": "view",
					"type": "function"
				},
				{
					"inputs": [],
					"name": "market",
					"outputs": [
						{
							"internalType": "address",
							"name": "",
							"type": "address"
						}
					],
					"stateMutability": "view",
					"type": "function"
				},
				{
					"inputs": [],
					"name": "receiver",
					"outputs": [
						{
							"internalType": "address",
							"name": "",
							"type": "address"
						}
					],
					"stateMutability": "view",
					"type": "function"
				},
				{
					"inputs": [],
					"name": "seller",
					"outputs": [
						{
							"internalType": "address",
							"name": "",
							"type": "address"
						}
					],
					"stateMutability": "view",
					"type": "function"
				},
				{
					"stateMutability": "payable",
					"type": "receive"
				}
			],
			"devdoc": {
				"kind": "dev",
				"methods": {},
				"version": 1
			},
			"evm": {
				"assembly": "    /* \"frontend/src/contracts/naegift_escrow.sol\":61:2680  contract naegift_escrow {... */\n  mstore(0x40, 0x0120)\n    /* \"frontend/src/contracts/naegift_escrow.sol\":782:1337  constructor(... */\n  mload(0x40)\n  sub(codesize, bytecodeSize)\n  dup1\n  bytecodeSize\n  dup4\n  codecopy\n  dup2\n  dup2\n  add\n  0x40\n  mstore\n  dup2\n  add\n  swap1\n  tag_1\n  swap2\n  swap1\n  tag_2\n  jump\t// in\ntag_1:\n    /* \"frontend/src/contracts/naegift_escrow.sol\":976:983  _seller */\n  dup4\n    /* \"frontend/src/contracts/naegift_escrow.sol\":966:983  _buyer != _seller */\n  0xffffffffffffffffffffffffffffffffffffffff\n  and\n    /* \"frontend/src/contracts/naegift_escrow.sol\":966:972  _buyer */\n  dup6\n    /* \"frontend/src/contracts/naegift_escrow.sol\":966:983  _buyer != _seller */\n  0xffffffffffffffffffffffffffffffffffffffff\n  and\n  eq\n  iszero\n    /* \"frontend/src/contracts/naegift_escrow.sol\":966:1015  _buyer != _seller &&  ... */\n  dup1\n  iszero\n  tag_5\n  jumpi\n  pop\n    /* \"frontend/src/contracts/naegift_escrow.sol\":1008:1015  _market */\n  dup2\n    /* \"frontend/src/contracts/naegift_escrow.sol\":998:1015  _buyer != _market */\n  0xffffffffffffffffffffffffffffffffffffffff\n  and\n    /* \"frontend/src/contracts/naegift_escrow.sol\":998:1004  _buyer */\n  dup6\n    /* \"frontend/src/contracts/naegift_escrow.sol\":998:1015  _buyer != _market */\n  0xffffffffffffffffffffffffffffffffffffffff\n  and\n  eq\n  iszero\n    /* \"frontend/src/contracts/naegift_escrow.sol\":966:1015  _buyer != _seller &&  ... */\ntag_5:\n    /* \"frontend/src/contracts/naegift_escrow.sol\":966:1049  _buyer != _seller &&  ... */\n  dup1\n  iszero\n  tag_6\n  jumpi\n  pop\n    /* \"frontend/src/contracts/naegift_escrow.sol\":1040:1049  _receiver */\n  dup3\n    /* \"frontend/src/contracts/naegift_escrow.sol\":1029:1049  _seller != _receiver */\n  0xffffffffffffffffffffffffffffffffffffffff\n  and\n    /* \"frontend/src/contracts/naegift_escrow.sol\":1029:1036  _seller */\n  dup5\n    /* \"frontend/src/contracts/naegift_escrow.sol\":1029:1049  _seller != _receiver */\n  0xffffffffffffffffffffffffffffffffffffffff\n  and\n  eq\n  iszero\n    /* \"frontend/src/contracts/naegift_escrow.sol\":966:1049  _buyer != _seller &&  ... */\ntag_6:\n    /* \"frontend/src/contracts/naegift_escrow.sol\":966:1081  _buyer != _seller &&  ... */\n  dup1\n  iszero\n  tag_7\n  jumpi\n  pop\n    /* \"frontend/src/contracts/naegift_escrow.sol\":1074:1081  _market */\n  dup2\n    /* \"frontend/src/contracts/naegift_escrow.sol\":1063:1081  _seller != _market */\n  0xffffffffffffffffffffffffffffffffffffffff\n  and\n    /* \"frontend/src/contracts/naegift_escrow.sol\":1063:1070  _seller */\n  dup5\n    /* \"frontend/src/contracts/naegift_escrow.sol\":1063:1081  _seller != _market */\n  0xffffffffffffffffffffffffffffffffffffffff\n  and\n  eq\n  iszero\n    /* \"frontend/src/contracts/naegift_escrow.sol\":966:1081  _buyer != _seller &&  ... */\ntag_7:\n    /* \"frontend/src/contracts/naegift_escrow.sol\":966:1115  _buyer != _seller &&  ... */\n  dup1\n  iszero\n  tag_8\n  jumpi\n  pop\n    /* \"frontend/src/contracts/naegift_escrow.sol\":1108:1115  _market */\n  dup2\n    /* \"frontend/src/contracts/naegift_escrow.sol\":1095:1115  _receiver != _market */\n  0xffffffffffffffffffffffffffffffffffffffff\n  and\n    /* \"frontend/src/contracts/naegift_escrow.sol\":1095:1104  _receiver */\n  dup4\n    /* \"frontend/src/contracts/naegift_escrow.sol\":1095:1115  _receiver != _market */\n  0xffffffffffffffffffffffffffffffffffffffff\n  and\n  eq\n  iszero\n    /* \"frontend/src/contracts/naegift_escrow.sol\":966:1115  _buyer != _seller &&  ... */\ntag_8:\n    /* \"frontend/src/contracts/naegift_escrow.sol\":958:1124  require(_buyer != _seller &&  ... */\n  tag_9\n  jumpi\n  mload(0x40)\n  0x08c379a000000000000000000000000000000000000000000000000000000000\n  dup2\n  mstore\n  0x04\n  add\n  tag_10\n  swap1\n  tag_11\n  jump\t// in\ntag_10:\n  mload(0x40)\n  dup1\n  swap2\n  sub\n  swap1\n  revert\ntag_9:\n    /* \"frontend/src/contracts/naegift_escrow.sol\":1143:1149  _buyer */\n  dup5\n    /* \"frontend/src/contracts/naegift_escrow.sol\":1135:1149  buyer = _buyer */\n  0xffffffffffffffffffffffffffffffffffffffff\n  and\n  0x80\n  dup2\n  0xffffffffffffffffffffffffffffffffffffffff\n  and\n  dup2\n  mstore\n  pop\n  pop\n    /* \"frontend/src/contracts/naegift_escrow.sol\":1169:1176  _seller */\n  dup4\n    /* \"frontend/src/contracts/naegift_escrow.sol\":1160:1176  seller = _seller */\n  0xffffffffffffffffffffffffffffffffffffffff\n  and\n  0xa0\n  dup2\n  0xffffffffffffffffffffffffffffffffffffffff\n  and\n  dup2\n  mstore\n  pop\n  pop\n    /* \"frontend/src/contracts/naegift_escrow.sol\":1198:1207  _receiver */\n  dup3\n    /* \"frontend/src/contracts/naegift_escrow.sol\":1187:1207  receiver = _receiver */\n  0xffffffffffffffffffffffffffffffffffffffff\n  and\n  0xc0\n  dup2\n  0xffffffffffffffffffffffffffffffffffffffff\n  and\n  dup2\n  mstore\n  pop\n  pop\n    /* \"frontend/src/contracts/naegift_escrow.sol\":1227:1234  _market */\n  dup2\n    /* \"frontend/src/contracts/naegift_escrow.sol\":1218:1234  market = _market */\n  0xffffffffffffffffffffffffffffffffffffffff\n  and\n  0xe0\n  dup2\n  0xffffffffffffffffffffffffffffffffffffffff\n  and\n  dup2\n  mstore\n  pop\n  pop\n    /* \"frontend/src/contracts/naegift_escrow.sol\":1261:1275  _contractPrice */\n  dup1\n    /* \"frontend/src/contracts/naegift_escrow.sol\":1245:1275  contractPrice = _contractPrice */\n  0x0100\n  dup2\n  dup2\n  mstore\n  pop\n  pop\n    /* \"frontend/src/contracts/naegift_escrow.sol\":1302:1329  ContractStateChoices.ACTIVE */\n  0x01\n    /* \"frontend/src/contracts/naegift_escrow.sol\":1286:1299  ContractState */\n  0x00\n  dup1\n    /* \"frontend/src/contracts/naegift_escrow.sol\":1286:1329  ContractState = ContractStateChoices.ACTIVE */\n  0x0100\n  exp\n  dup2\n  sload\n  dup2\n  0xff\n  mul\n  not\n  and\n  swap1\n  dup4\n  0x04\n  dup2\n  gt\n  iszero\n  tag_12\n  jumpi\n  tag_13\n  tag_14\n  jump\t// in\ntag_13:\ntag_12:\n  mul\n  or\n  swap1\n  sstore\n  pop\n    /* \"frontend/src/contracts/naegift_escrow.sol\":782:1337  constructor(... */\n  pop\n  pop\n  pop\n  pop\n  pop\n    /* \"frontend/src/contracts/naegift_escrow.sol\":61:2680  contract naegift_escrow {... */\n  jump(tag_15)\n    /* \"#utility.yul\":88:205   */\ntag_17:\n    /* \"#utility.yul\":197:198   */\n  0x00\n    /* \"#utility.yul\":194:195   */\n  dup1\n    /* \"#utility.yul\":187:199   */\n  revert\n    /* \"#utility.yul\":334:460   */\ntag_19:\n    /* \"#utility.yul\":371:378   */\n  0x00\n    /* \"#utility.yul\":411:453   */\n  0xffffffffffffffffffffffffffffffffffffffff\n    /* \"#utility.yul\":404:409   */\n  dup3\n    /* \"#utility.yul\":400:454   */\n  and\n    /* \"#utility.yul\":389:454   */\n  swap1\n  pop\n    /* \"#utility.yul\":334:460   */\n  swap2\n  swap1\n  pop\n  jump\t// out\n    /* \"#utility.yul\":466:562   */\ntag_20:\n    /* \"#utility.yul\":503:510   */\n  0x00\n    /* \"#utility.yul\":532:556   */\n  tag_35\n    /* \"#utility.yul\":550:555   */\n  dup3\n    /* \"#utility.yul\":532:556   */\n  tag_19\n  jump\t// in\ntag_35:\n    /* \"#utility.yul\":521:556   */\n  swap1\n  pop\n    /* \"#utility.yul\":466:562   */\n  swap2\n  swap1\n  pop\n  jump\t// out\n    /* \"#utility.yul\":568:690   */\ntag_21:\n    /* \"#utility.yul\":641:665   */\n  tag_37\n    /* \"#utility.yul\":659:664   */\n  dup2\n    /* \"#utility.yul\":641:665   */\n  tag_20\n  jump\t// in\ntag_37:\n    /* \"#utility.yul\":634:639   */\n  dup2\n    /* \"#utility.yul\":631:666   */\n  eq\n    /* \"#utility.yul\":621:684   */\n  tag_38\n  jumpi\n    /* \"#utility.yul\":680:681   */\n  0x00\n    /* \"#utility.yul\":677:678   */\n  dup1\n    /* \"#utility.yul\":670:682   */\n  revert\n    /* \"#utility.yul\":621:684   */\ntag_38:\n    /* \"#utility.yul\":568:690   */\n  pop\n  jump\t// out\n    /* \"#utility.yul\":696:839   */\ntag_22:\n    /* \"#utility.yul\":753:758   */\n  0x00\n    /* \"#utility.yul\":784:790   */\n  dup2\n    /* \"#utility.yul\":778:791   */\n  mload\n    /* \"#utility.yul\":769:791   */\n  swap1\n  pop\n    /* \"#utility.yul\":800:833   */\n  tag_40\n    /* \"#utility.yul\":827:832   */\n  dup2\n    /* \"#utility.yul\":800:833   */\n  tag_21\n  jump\t// in\ntag_40:\n    /* \"#utility.yul\":696:839   */\n  swap3\n  swap2\n  pop\n  pop\n  jump\t// out\n    /* \"#utility.yul\":845:922   */\ntag_23:\n    /* \"#utility.yul\":882:889   */\n  0x00\n    /* \"#utility.yul\":911:916   */\n  dup2\n    /* \"#utility.yul\":900:916   */\n  swap1\n  pop\n    /* \"#utility.yul\":845:922   */\n  swap2\n  swap1\n  pop\n  jump\t// out\n    /* \"#utility.yul\":928:1050   */\ntag_24:\n    /* \"#utility.yul\":1001:1025   */\n  tag_43\n    /* \"#utility.yul\":1019:1024   */\n  dup2\n    /* \"#utility.yul\":1001:1025   */\n  tag_23\n  jump\t// in\ntag_43:\n    /* \"#utility.yul\":994:999   */\n  dup2\n    /* \"#utility.yul\":991:1026   */\n  eq\n    /* \"#utility.yul\":981:1044   */\n  tag_44\n  jumpi\n    /* \"#utility.yul\":1040:1041   */\n  0x00\n    /* \"#utility.yul\":1037:1038   */\n  dup1\n    /* \"#utility.yul\":1030:1042   */\n  revert\n    /* \"#utility.yul\":981:1044   */\ntag_44:\n    /* \"#utility.yul\":928:1050   */\n  pop\n  jump\t// out\n    /* \"#utility.yul\":1056:1199   */\ntag_25:\n    /* \"#utility.yul\":1113:1118   */\n  0x00\n    /* \"#utility.yul\":1144:1150   */\n  dup2\n    /* \"#utility.yul\":1138:1151   */\n  mload\n    /* \"#utility.yul\":1129:1151   */\n  swap1\n  pop\n    /* \"#utility.yul\":1160:1193   */\n  tag_46\n    /* \"#utility.yul\":1187:1192   */\n  dup2\n    /* \"#utility.yul\":1160:1193   */\n  tag_24\n  jump\t// in\ntag_46:\n    /* \"#utility.yul\":1056:1199   */\n  swap3\n  swap2\n  pop\n  pop\n  jump\t// out\n    /* \"#utility.yul\":1205:2182   */\ntag_2:\n    /* \"#utility.yul\":1311:1317   */\n  0x00\n    /* \"#utility.yul\":1319:1325   */\n  dup1\n    /* \"#utility.yul\":1327:1333   */\n  0x00\n    /* \"#utility.yul\":1335:1341   */\n  dup1\n    /* \"#utility.yul\":1343:1349   */\n  0x00\n    /* \"#utility.yul\":1392:1395   */\n  0xa0\n    /* \"#utility.yul\":1380:1389   */\n  dup7\n    /* \"#utility.yul\":1371:1378   */\n  dup9\n    /* \"#utility.yul\":1367:1390   */\n  sub\n    /* \"#utility.yul\":1363:1396   */\n  slt\n    /* \"#utility.yul\":1360:1480   */\n  iszero\n  tag_48\n  jumpi\n    /* \"#utility.yul\":1399:1478   */\n  tag_49\n  tag_17\n  jump\t// in\ntag_49:\n    /* \"#utility.yul\":1360:1480   */\ntag_48:\n    /* \"#utility.yul\":1519:1520   */\n  0x00\n    /* \"#utility.yul\":1544:1608   */\n  tag_50\n    /* \"#utility.yul\":1600:1607   */\n  dup9\n    /* \"#utility.yul\":1591:1597   */\n  dup3\n    /* \"#utility.yul\":1580:1589   */\n  dup10\n    /* \"#utility.yul\":1576:1598   */\n  add\n    /* \"#utility.yul\":1544:1608   */\n  tag_22\n  jump\t// in\ntag_50:\n    /* \"#utility.yul\":1534:1608   */\n  swap6\n  pop\n    /* \"#utility.yul\":1490:1618   */\n  pop\n    /* \"#utility.yul\":1657:1659   */\n  0x20\n    /* \"#utility.yul\":1683:1747   */\n  tag_51\n    /* \"#utility.yul\":1739:1746   */\n  dup9\n    /* \"#utility.yul\":1730:1736   */\n  dup3\n    /* \"#utility.yul\":1719:1728   */\n  dup10\n    /* \"#utility.yul\":1715:1737   */\n  add\n    /* \"#utility.yul\":1683:1747   */\n  tag_22\n  jump\t// in\ntag_51:\n    /* \"#utility.yul\":1673:1747   */\n  swap5\n  pop\n    /* \"#utility.yul\":1628:1757   */\n  pop\n    /* \"#utility.yul\":1796:1798   */\n  0x40\n    /* \"#utility.yul\":1822:1886   */\n  tag_52\n    /* \"#utility.yul\":1878:1885   */\n  dup9\n    /* \"#utility.yul\":1869:1875   */\n  dup3\n    /* \"#utility.yul\":1858:1867   */\n  dup10\n    /* \"#utility.yul\":1854:1876   */\n  add\n    /* \"#utility.yul\":1822:1886   */\n  tag_22\n  jump\t// in\ntag_52:\n    /* \"#utility.yul\":1812:1886   */\n  swap4\n  pop\n    /* \"#utility.yul\":1767:1896   */\n  pop\n    /* \"#utility.yul\":1935:1937   */\n  0x60\n    /* \"#utility.yul\":1961:2025   */\n  tag_53\n    /* \"#utility.yul\":2017:2024   */\n  dup9\n    /* \"#utility.yul\":2008:2014   */\n  dup3\n    /* \"#utility.yul\":1997:2006   */\n  dup10\n    /* \"#utility.yul\":1993:2015   */\n  add\n    /* \"#utility.yul\":1961:2025   */\n  tag_22\n  jump\t// in\ntag_53:\n    /* \"#utility.yul\":1951:2025   */\n  swap3\n  pop\n    /* \"#utility.yul\":1906:2035   */\n  pop\n    /* \"#utility.yul\":2074:2077   */\n  0x80\n    /* \"#utility.yul\":2101:2165   */\n  tag_54\n    /* \"#utility.yul\":2157:2164   */\n  dup9\n    /* \"#utility.yul\":2148:2154   */\n  dup3\n    /* \"#utility.yul\":2137:2146   */\n  dup10\n    /* \"#utility.yul\":2133:2155   */\n  add\n    /* \"#utility.yul\":2101:2165   */\n  tag_25\n  jump\t// in\ntag_54:\n    /* \"#utility.yul\":2091:2165   */\n  swap2\n  pop\n    /* \"#utility.yul\":2045:2175   */\n  pop\n    /* \"#utility.yul\":1205:2182   */\n  swap3\n  swap6\n  pop\n  swap3\n  swap6\n  swap1\n  swap4\n  pop\n  jump\t// out\n    /* \"#utility.yul\":2188:2357   */\ntag_26:\n    /* \"#utility.yul\":2272:2283   */\n  0x00\n    /* \"#utility.yul\":2306:2312   */\n  dup3\n    /* \"#utility.yul\":2301:2304   */\n  dup3\n    /* \"#utility.yul\":2294:2313   */\n  mstore\n    /* \"#utility.yul\":2346:2350   */\n  0x20\n    /* \"#utility.yul\":2341:2344   */\n  dup3\n    /* \"#utility.yul\":2337:2351   */\n  add\n    /* \"#utility.yul\":2322:2351   */\n  swap1\n  pop\n    /* \"#utility.yul\":2188:2357   */\n  swap3\n  swap2\n  pop\n  pop\n  jump\t// out\n    /* \"#utility.yul\":2363:2517   */\ntag_27:\n    /* \"#utility.yul\":2503:2509   */\n  0x6530303100000000000000000000000000000000000000000000000000000000\n    /* \"#utility.yul\":2499:2500   */\n  0x00\n    /* \"#utility.yul\":2491:2497   */\n  dup3\n    /* \"#utility.yul\":2487:2501   */\n  add\n    /* \"#utility.yul\":2480:2510   */\n  mstore\n    /* \"#utility.yul\":2363:2517   */\n  pop\n  jump\t// out\n    /* \"#utility.yul\":2523:2888   */\ntag_28:\n    /* \"#utility.yul\":2665:2668   */\n  0x00\n    /* \"#utility.yul\":2686:2752   */\n  tag_58\n    /* \"#utility.yul\":2750:2751   */\n  0x04\n    /* \"#utility.yul\":2745:2748   */\n  dup4\n    /* \"#utility.yul\":2686:2752   */\n  tag_26\n  jump\t// in\ntag_58:\n    /* \"#utility.yul\":2679:2752   */\n  swap2\n  pop\n    /* \"#utility.yul\":2761:2854   */\n  tag_59\n    /* \"#utility.yul\":2850:2853   */\n  dup3\n    /* \"#utility.yul\":2761:2854   */\n  tag_27\n  jump\t// in\ntag_59:\n    /* \"#utility.yul\":2879:2881   */\n  0x20\n    /* \"#utility.yul\":2874:2877   */\n  dup3\n    /* \"#utility.yul\":2870:2882   */\n  add\n    /* \"#utility.yul\":2863:2882   */\n  swap1\n  pop\n    /* \"#utility.yul\":2523:2888   */\n  swap2\n  swap1\n  pop\n  jump\t// out\n    /* \"#utility.yul\":2894:3313   */\ntag_11:\n    /* \"#utility.yul\":3060:3064   */\n  0x00\n    /* \"#utility.yul\":3098:3100   */\n  0x20\n    /* \"#utility.yul\":3087:3096   */\n  dup3\n    /* \"#utility.yul\":3083:3101   */\n  add\n    /* \"#utility.yul\":3075:3101   */\n  swap1\n  pop\n    /* \"#utility.yul\":3147:3156   */\n  dup2\n    /* \"#utility.yul\":3141:3145   */\n  dup2\n    /* \"#utility.yul\":3137:3157   */\n  sub\n    /* \"#utility.yul\":3133:3134   */\n  0x00\n    /* \"#utility.yul\":3122:3131   */\n  dup4\n    /* \"#utility.yul\":3118:3135   */\n  add\n    /* \"#utility.yul\":3111:3158   */\n  mstore\n    /* \"#utility.yul\":3175:3306   */\n  tag_61\n    /* \"#utility.yul\":3301:3305   */\n  dup2\n    /* \"#utility.yul\":3175:3306   */\n  tag_28\n  jump\t// in\ntag_61:\n    /* \"#utility.yul\":3167:3306   */\n  swap1\n  pop\n    /* \"#utility.yul\":2894:3313   */\n  swap2\n  swap1\n  pop\n  jump\t// out\n    /* \"#utility.yul\":3319:3499   */\ntag_14:\n    /* \"#utility.yul\":3367:3444   */\n  0x4e487b7100000000000000000000000000000000000000000000000000000000\n    /* \"#utility.yul\":3364:3365   */\n  0x00\n    /* \"#utility.yul\":3357:3445   */\n  mstore\n    /* \"#utility.yul\":3464:3468   */\n  0x21\n    /* \"#utility.yul\":3461:3462   */\n  0x04\n    /* \"#utility.yul\":3454:3469   */\n  mstore\n    /* \"#utility.yul\":3488:3492   */\n  0x24\n    /* \"#utility.yul\":3485:3486   */\n  0x00\n    /* \"#utility.yul\":3478:3493   */\n  revert\n    /* \"frontend/src/contracts/naegift_escrow.sol\":61:2680  contract naegift_escrow {... */\ntag_15:\n  mload(0x80)\n  mload(0xa0)\n  mload(0xc0)\n  mload(0xe0)\n  mload(0x0100)\n  codecopy(0x00, dataOffset(sub_0), dataSize(sub_0))\n  0x00\n  assignImmutable(\"0x742ccb3c5ad7b0e2030ad7fa03711e32b9f4236452343c6e16a6cf67d464d149\")\n  0x00\n  assignImmutable(\"0x63867b8d5e748cf93e24f7b381d92337d037805bfc271d6d67e0e86772662677\")\n  0x00\n  assignImmutable(\"0xf1ae7da53f98170be52cc9330214a82f7ba06ee306297b4e1fb86fb21c611aa6\")\n  0x00\n  assignImmutable(\"0x57014f1e5f1d53e43fa40624186159531d6372d1ab8f40ec7882845ca66de31d\")\n  0x00\n  assignImmutable(\"0x8fd0324b6a5df169e0aa0c7938ef0034d0e971a998f91b36eba211882d3617b1\")\n  return(0x00, dataSize(sub_0))\nstop\n\nsub_0: assembly {\n        /* \"frontend/src/contracts/naegift_escrow.sol\":61:2680  contract naegift_escrow {... */\n      mstore(0x40, 0x80)\n      jumpi(tag_1, lt(calldatasize, 0x04))\n      shr(0xe0, calldataload(0x00))\n      dup1\n      0x80f55605\n      gt\n      tag_12\n      jumpi\n      dup1\n      0x80f55605\n      eq\n      tag_7\n      jumpi\n      dup1\n      0x97e9a0bf\n      eq\n      tag_8\n      jumpi\n      dup1\n      0x9c1d9e3e\n      eq\n      tag_9\n      jumpi\n      dup1\n      0xd2c9ea03\n      eq\n      tag_10\n      jumpi\n      dup1\n      0xf7260d3e\n      eq\n      tag_11\n      jumpi\n      jump(tag_2)\n    tag_12:\n      dup1\n      0x08551a53\n      eq\n      tag_3\n      jumpi\n      dup1\n      0x18609960\n      eq\n      tag_4\n      jumpi\n      dup1\n      0x4fbc4f60\n      eq\n      tag_5\n      jumpi\n      dup1\n      0x7150d8ae\n      eq\n      tag_6\n      jumpi\n      jump(tag_2)\n    tag_1:\n      jumpi(tag_2, calldatasize)\n      stop\n    tag_2:\n      0x00\n      dup1\n      revert\n        /* \"frontend/src/contracts/naegift_escrow.sol\":129:160  address public immutable seller */\n    tag_3:\n      callvalue\n      dup1\n      iszero\n      tag_15\n      jumpi\n      0x00\n      dup1\n      revert\n    tag_15:\n      pop\n      tag_16\n      tag_17\n      jump\t// in\n    tag_16:\n      mload(0x40)\n      tag_18\n      swap2\n      swap1\n      tag_19\n      jump\t// in\n    tag_18:\n      mload(0x40)\n      dup1\n      swap2\n      sub\n      swap1\n      return\n        /* \"frontend/src/contracts/naegift_escrow.sol\":2533:2640  function escrowStatus() external view returns(ContractStateChoices) {... */\n    tag_4:\n      callvalue\n      dup1\n      iszero\n      tag_20\n      jumpi\n      0x00\n      dup1\n      revert\n    tag_20:\n      pop\n      tag_21\n      tag_22\n      jump\t// in\n    tag_21:\n      mload(0x40)\n      tag_23\n      swap2\n      swap1\n      tag_24\n      jump\t// in\n    tag_23:\n      mload(0x40)\n      dup1\n      swap2\n      sub\n      swap1\n      return\n        /* \"frontend/src/contracts/naegift_escrow.sol\":1683:1993  function confirmProductUsed() external {... */\n    tag_5:\n      callvalue\n      dup1\n      iszero\n      tag_25\n      jumpi\n      0x00\n      dup1\n      revert\n    tag_25:\n      pop\n      tag_26\n      tag_27\n      jump\t// in\n    tag_26:\n      stop\n        /* \"frontend/src/contracts/naegift_escrow.sol\":92:122  address public immutable buyer */\n    tag_6:\n      callvalue\n      dup1\n      iszero\n      tag_28\n      jumpi\n      0x00\n      dup1\n      revert\n    tag_28:\n      pop\n      tag_29\n      tag_30\n      jump\t// in\n    tag_29:\n      mload(0x40)\n      tag_31\n      swap2\n      swap1\n      tag_19\n      jump\t// in\n    tag_31:\n      mload(0x40)\n      dup1\n      swap2\n      sub\n      swap1\n      return\n        /* \"frontend/src/contracts/naegift_escrow.sol\":207:238  address public immutable market */\n    tag_7:\n      callvalue\n      dup1\n      iszero\n      tag_32\n      jumpi\n      0x00\n      dup1\n      revert\n    tag_32:\n      pop\n      tag_33\n      tag_34\n      jump\t// in\n    tag_33:\n      mload(0x40)\n      tag_35\n      swap2\n      swap1\n      tag_19\n      jump\t// in\n    tag_35:\n      mload(0x40)\n      dup1\n      swap2\n      sub\n      swap1\n      return\n        /* \"frontend/src/contracts/naegift_escrow.sol\":245:283  uint256 public immutable contractPrice */\n    tag_8:\n      callvalue\n      dup1\n      iszero\n      tag_36\n      jumpi\n      0x00\n      dup1\n      revert\n    tag_36:\n      pop\n      tag_37\n      tag_38\n      jump\t// in\n    tag_37:\n      mload(0x40)\n      tag_39\n      swap2\n      swap1\n      tag_40\n      jump\t// in\n    tag_39:\n      mload(0x40)\n      dup1\n      swap2\n      sub\n      swap1\n      return\n        /* \"frontend/src/contracts/naegift_escrow.sol\":427:468  ContractStateChoices public ContractState */\n    tag_9:\n      callvalue\n      dup1\n      iszero\n      tag_41\n      jumpi\n      0x00\n      dup1\n      revert\n    tag_41:\n      pop\n      tag_42\n      tag_43\n      jump\t// in\n    tag_42:\n      mload(0x40)\n      tag_44\n      swap2\n      swap1\n      tag_24\n      jump\t// in\n    tag_44:\n      mload(0x40)\n      dup1\n      swap2\n      sub\n      swap1\n      return\n        /* \"frontend/src/contracts/naegift_escrow.sol\":1374:1646  function confirmFulfillment() external {... */\n    tag_10:\n      callvalue\n      dup1\n      iszero\n      tag_45\n      jumpi\n      0x00\n      dup1\n      revert\n    tag_45:\n      pop\n      tag_46\n      tag_47\n      jump\t// in\n    tag_46:\n      stop\n        /* \"frontend/src/contracts/naegift_escrow.sol\":167:200  address public immutable receiver */\n    tag_11:\n      callvalue\n      dup1\n      iszero\n      tag_48\n      jumpi\n      0x00\n      dup1\n      revert\n    tag_48:\n      pop\n      tag_49\n      tag_50\n      jump\t// in\n    tag_49:\n      mload(0x40)\n      tag_51\n      swap2\n      swap1\n      tag_19\n      jump\t// in\n    tag_51:\n      mload(0x40)\n      dup1\n      swap2\n      sub\n      swap1\n      return\n        /* \"frontend/src/contracts/naegift_escrow.sol\":129:160  address public immutable seller */\n    tag_17:\n      immutable(\"0x57014f1e5f1d53e43fa40624186159531d6372d1ab8f40ec7882845ca66de31d\")\n      dup2\n      jump\t// out\n        /* \"frontend/src/contracts/naegift_escrow.sol\":2533:2640  function escrowStatus() external view returns(ContractStateChoices) {... */\n    tag_22:\n        /* \"frontend/src/contracts/naegift_escrow.sol\":2579:2599  ContractStateChoices */\n      0x00\n        /* \"frontend/src/contracts/naegift_escrow.sol\":2619:2632  ContractState */\n      dup1\n      0x00\n      swap1\n      sload\n      swap1\n      0x0100\n      exp\n      swap1\n      div\n      0xff\n      and\n        /* \"frontend/src/contracts/naegift_escrow.sol\":2612:2632  return ContractState */\n      swap1\n      pop\n        /* \"frontend/src/contracts/naegift_escrow.sol\":2533:2640  function escrowStatus() external view returns(ContractStateChoices) {... */\n      swap1\n      jump\t// out\n        /* \"frontend/src/contracts/naegift_escrow.sol\":1683:1993  function confirmProductUsed() external {... */\n    tag_27:\n        /* \"frontend/src/contracts/naegift_escrow.sol\":1755:1763  receiver */\n      immutable(\"0xf1ae7da53f98170be52cc9330214a82f7ba06ee306297b4e1fb86fb21c611aa6\")\n        /* \"frontend/src/contracts/naegift_escrow.sol\":1741:1763  msg.sender == receiver */\n      0xffffffffffffffffffffffffffffffffffffffff\n      and\n        /* \"frontend/src/contracts/naegift_escrow.sol\":1741:1751  msg.sender */\n      caller\n        /* \"frontend/src/contracts/naegift_escrow.sol\":1741:1763  msg.sender == receiver */\n      0xffffffffffffffffffffffffffffffffffffffff\n      and\n      eq\n        /* \"frontend/src/contracts/naegift_escrow.sol\":1733:1772  require(msg.sender == receiver, 'e020') */\n      tag_54\n      jumpi\n      mload(0x40)\n      0x08c379a000000000000000000000000000000000000000000000000000000000\n      dup2\n      mstore\n      0x04\n      add\n      tag_55\n      swap1\n      tag_56\n      jump\t// in\n    tag_55:\n      mload(0x40)\n      dup1\n      swap2\n      sub\n      swap1\n      revert\n    tag_54:\n        /* \"frontend/src/contracts/naegift_escrow.sol\":1809:1839  ContractStateChoices.FULFILLED */\n      0x02\n        /* \"frontend/src/contracts/naegift_escrow.sol\":1792:1839  ContractState == ContractStateChoices.FULFILLED */\n      0x04\n      dup2\n      gt\n      iszero\n      tag_57\n      jumpi\n      tag_58\n      tag_59\n      jump\t// in\n    tag_58:\n    tag_57:\n        /* \"frontend/src/contracts/naegift_escrow.sol\":1792:1805  ContractState */\n      0x00\n      dup1\n      sload\n      swap1\n      0x0100\n      exp\n      swap1\n      div\n      0xff\n      and\n        /* \"frontend/src/contracts/naegift_escrow.sol\":1792:1839  ContractState == ContractStateChoices.FULFILLED */\n      0x04\n      dup2\n      gt\n      iszero\n      tag_60\n      jumpi\n      tag_61\n      tag_59\n      jump\t// in\n    tag_61:\n    tag_60:\n      eq\n        /* \"frontend/src/contracts/naegift_escrow.sol\":1784:1848  require(ContractState == ContractStateChoices.FULFILLED, 'e021') */\n      tag_62\n      jumpi\n      mload(0x40)\n      0x08c379a000000000000000000000000000000000000000000000000000000000\n      dup2\n      mstore\n      0x04\n      add\n      tag_63\n      swap1\n      tag_64\n      jump\t// in\n    tag_63:\n      mload(0x40)\n      dup1\n      swap2\n      sub\n      swap1\n      revert\n    tag_62:\n        /* \"frontend/src/contracts/naegift_escrow.sol\":1875:1908  ContractStateChoices.PRODUCT_USED */\n      0x03\n        /* \"frontend/src/contracts/naegift_escrow.sol\":1859:1872  ContractState */\n      0x00\n      dup1\n        /* \"frontend/src/contracts/naegift_escrow.sol\":1859:1908  ContractState = ContractStateChoices.PRODUCT_USED */\n      0x0100\n      exp\n      dup2\n      sload\n      dup2\n      0xff\n      mul\n      not\n      and\n      swap1\n      dup4\n      0x04\n      dup2\n      gt\n      iszero\n      tag_65\n      jumpi\n      tag_66\n      tag_59\n      jump\t// in\n    tag_66:\n    tag_65:\n      mul\n      or\n      swap1\n      sstore\n      pop\n        /* \"frontend/src/contracts/naegift_escrow.sol\":1945:1955  msg.sender */\n      caller\n        /* \"frontend/src/contracts/naegift_escrow.sol\":1924:1956  ProductUsedConfirmed(msg.sender) */\n      0xffffffffffffffffffffffffffffffffffffffff\n      and\n      0x1ddd2177a0a6dd96c0353f0a0c2c45fcd1564f1c3ff3501c966e56f299b66e40\n      mload(0x40)\n      mload(0x40)\n      dup1\n      swap2\n      sub\n      swap1\n      log2\n        /* \"frontend/src/contracts/naegift_escrow.sol\":1967:1984  distributeFunds() */\n      tag_67\n        /* \"frontend/src/contracts/naegift_escrow.sol\":1967:1982  distributeFunds */\n      tag_68\n        /* \"frontend/src/contracts/naegift_escrow.sol\":1967:1984  distributeFunds() */\n      jump\t// in\n    tag_67:\n        /* \"frontend/src/contracts/naegift_escrow.sol\":1683:1993  function confirmProductUsed() external {... */\n      jump\t// out\n        /* \"frontend/src/contracts/naegift_escrow.sol\":92:122  address public immutable buyer */\n    tag_30:\n      immutable(\"0x8fd0324b6a5df169e0aa0c7938ef0034d0e971a998f91b36eba211882d3617b1\")\n      dup2\n      jump\t// out\n        /* \"frontend/src/contracts/naegift_escrow.sol\":207:238  address public immutable market */\n    tag_34:\n      immutable(\"0x63867b8d5e748cf93e24f7b381d92337d037805bfc271d6d67e0e86772662677\")\n      dup2\n      jump\t// out\n        /* \"frontend/src/contracts/naegift_escrow.sol\":245:283  uint256 public immutable contractPrice */\n    tag_38:\n      immutable(\"0x742ccb3c5ad7b0e2030ad7fa03711e32b9f4236452343c6e16a6cf67d464d149\")\n      dup2\n      jump\t// out\n        /* \"frontend/src/contracts/naegift_escrow.sol\":427:468  ContractStateChoices public ContractState */\n    tag_43:\n      0x00\n      dup1\n      sload\n      swap1\n      0x0100\n      exp\n      swap1\n      div\n      0xff\n      and\n      dup2\n      jump\t// out\n        /* \"frontend/src/contracts/naegift_escrow.sol\":1374:1646  function confirmFulfillment() external {... */\n    tag_47:\n        /* \"frontend/src/contracts/naegift_escrow.sol\":1446:1452  market */\n      immutable(\"0x63867b8d5e748cf93e24f7b381d92337d037805bfc271d6d67e0e86772662677\")\n        /* \"frontend/src/contracts/naegift_escrow.sol\":1432:1452  msg.sender == market */\n      0xffffffffffffffffffffffffffffffffffffffff\n      and\n        /* \"frontend/src/contracts/naegift_escrow.sol\":1432:1442  msg.sender */\n      caller\n        /* \"frontend/src/contracts/naegift_escrow.sol\":1432:1452  msg.sender == market */\n      0xffffffffffffffffffffffffffffffffffffffff\n      and\n      eq\n        /* \"frontend/src/contracts/naegift_escrow.sol\":1424:1461  require(msg.sender == market, 'e024') */\n      tag_70\n      jumpi\n      mload(0x40)\n      0x08c379a000000000000000000000000000000000000000000000000000000000\n      dup2\n      mstore\n      0x04\n      add\n      tag_71\n      swap1\n      tag_72\n      jump\t// in\n    tag_71:\n      mload(0x40)\n      dup1\n      swap2\n      sub\n      swap1\n      revert\n    tag_70:\n        /* \"frontend/src/contracts/naegift_escrow.sol\":1497:1524  ContractStateChoices.ACTIVE */\n      0x01\n        /* \"frontend/src/contracts/naegift_escrow.sol\":1480:1524  ContractState == ContractStateChoices.ACTIVE */\n      0x04\n      dup2\n      gt\n      iszero\n      tag_73\n      jumpi\n      tag_74\n      tag_59\n      jump\t// in\n    tag_74:\n    tag_73:\n        /* \"frontend/src/contracts/naegift_escrow.sol\":1480:1493  ContractState */\n      0x00\n      dup1\n      sload\n      swap1\n      0x0100\n      exp\n      swap1\n      div\n      0xff\n      and\n        /* \"frontend/src/contracts/naegift_escrow.sol\":1480:1524  ContractState == ContractStateChoices.ACTIVE */\n      0x04\n      dup2\n      gt\n      iszero\n      tag_75\n      jumpi\n      tag_76\n      tag_59\n      jump\t// in\n    tag_76:\n    tag_75:\n      eq\n        /* \"frontend/src/contracts/naegift_escrow.sol\":1472:1533  require(ContractState == ContractStateChoices.ACTIVE, 'e013') */\n      tag_77\n      jumpi\n      mload(0x40)\n      0x08c379a000000000000000000000000000000000000000000000000000000000\n      dup2\n      mstore\n      0x04\n      add\n      tag_78\n      swap1\n      tag_79\n      jump\t// in\n    tag_78:\n      mload(0x40)\n      dup1\n      swap2\n      sub\n      swap1\n      revert\n    tag_77:\n        /* \"frontend/src/contracts/naegift_escrow.sol\":1560:1590  ContractStateChoices.FULFILLED */\n      0x02\n        /* \"frontend/src/contracts/naegift_escrow.sol\":1544:1557  ContractState */\n      0x00\n      dup1\n        /* \"frontend/src/contracts/naegift_escrow.sol\":1544:1590  ContractState = ContractStateChoices.FULFILLED */\n      0x0100\n      exp\n      dup2\n      sload\n      dup2\n      0xff\n      mul\n      not\n      and\n      swap1\n      dup4\n      0x04\n      dup2\n      gt\n      iszero\n      tag_80\n      jumpi\n      tag_81\n      tag_59\n      jump\t// in\n    tag_81:\n    tag_80:\n      mul\n      or\n      swap1\n      sstore\n      pop\n        /* \"frontend/src/contracts/naegift_escrow.sol\":1627:1637  msg.sender */\n      caller\n        /* \"frontend/src/contracts/naegift_escrow.sol\":1606:1638  FulfillmentConfirmed(msg.sender) */\n      0xffffffffffffffffffffffffffffffffffffffff\n      and\n      0x2b4d886262cf2de6c7d4426877b49a269f028810e47e65e9debbf5cd75b99f8b\n      mload(0x40)\n      mload(0x40)\n      dup1\n      swap2\n      sub\n      swap1\n      log2\n        /* \"frontend/src/contracts/naegift_escrow.sol\":1374:1646  function confirmFulfillment() external {... */\n      jump\t// out\n        /* \"frontend/src/contracts/naegift_escrow.sol\":167:200  address public immutable receiver */\n    tag_50:\n      immutable(\"0xf1ae7da53f98170be52cc9330214a82f7ba06ee306297b4e1fb86fb21c611aa6\")\n      dup2\n      jump\t// out\n        /* \"frontend/src/contracts/naegift_escrow.sol\":2030:2490  function distributeFunds() private {... */\n    tag_68:\n        /* \"frontend/src/contracts/naegift_escrow.sol\":2101:2134  ContractStateChoices.PRODUCT_USED */\n      0x03\n        /* \"frontend/src/contracts/naegift_escrow.sol\":2084:2134  ContractState == ContractStateChoices.PRODUCT_USED */\n      0x04\n      dup2\n      gt\n      iszero\n      tag_83\n      jumpi\n      tag_84\n      tag_59\n      jump\t// in\n    tag_84:\n    tag_83:\n        /* \"frontend/src/contracts/naegift_escrow.sol\":2084:2097  ContractState */\n      0x00\n      dup1\n      sload\n      swap1\n      0x0100\n      exp\n      swap1\n      div\n      0xff\n      and\n        /* \"frontend/src/contracts/naegift_escrow.sol\":2084:2134  ContractState == ContractStateChoices.PRODUCT_USED */\n      0x04\n      dup2\n      gt\n      iszero\n      tag_85\n      jumpi\n      tag_86\n      tag_59\n      jump\t// in\n    tag_86:\n    tag_85:\n      eq\n        /* \"frontend/src/contracts/naegift_escrow.sol\":2076:2143  require(ContractState == ContractStateChoices.PRODUCT_USED, 'e022') */\n      tag_87\n      jumpi\n      mload(0x40)\n      0x08c379a000000000000000000000000000000000000000000000000000000000\n      dup2\n      mstore\n      0x04\n      add\n      tag_88\n      swap1\n      tag_89\n      jump\t// in\n    tag_88:\n      mload(0x40)\n      dup1\n      swap2\n      sub\n      swap1\n      revert\n    tag_87:\n        /* \"frontend/src/contracts/naegift_escrow.sol\":2154:2173  uint256 marketShare */\n      0x00\n        /* \"frontend/src/contracts/naegift_escrow.sol\":2192:2194  10 */\n      0x0a\n        /* \"frontend/src/contracts/naegift_escrow.sol\":2176:2189  contractPrice */\n      immutable(\"0x742ccb3c5ad7b0e2030ad7fa03711e32b9f4236452343c6e16a6cf67d464d149\")\n        /* \"frontend/src/contracts/naegift_escrow.sol\":2176:2194  contractPrice / 10 */\n      tag_90\n      swap2\n      swap1\n      tag_91\n      jump\t// in\n    tag_90:\n        /* \"frontend/src/contracts/naegift_escrow.sol\":2154:2194  uint256 marketShare = contractPrice / 10 */\n      swap1\n      pop\n        /* \"frontend/src/contracts/naegift_escrow.sol\":2206:2225  uint256 sellerShare */\n      0x00\n        /* \"frontend/src/contracts/naegift_escrow.sol\":2244:2255  marketShare */\n      dup2\n        /* \"frontend/src/contracts/naegift_escrow.sol\":2228:2241  contractPrice */\n      immutable(\"0x742ccb3c5ad7b0e2030ad7fa03711e32b9f4236452343c6e16a6cf67d464d149\")\n        /* \"frontend/src/contracts/naegift_escrow.sol\":2228:2255  contractPrice - marketShare */\n      tag_92\n      swap2\n      swap1\n      tag_93\n      jump\t// in\n    tag_92:\n        /* \"frontend/src/contracts/naegift_escrow.sol\":2206:2255  uint256 sellerShare = contractPrice - marketShare */\n      swap1\n      pop\n        /* \"frontend/src/contracts/naegift_escrow.sol\":2275:2281  market */\n      immutable(\"0x63867b8d5e748cf93e24f7b381d92337d037805bfc271d6d67e0e86772662677\")\n        /* \"frontend/src/contracts/naegift_escrow.sol\":2267:2291  payable(market).transfer */\n      0xffffffffffffffffffffffffffffffffffffffff\n      and\n        /* \"frontend/src/contracts/naegift_escrow.sol\":2267:2304  payable(market).transfer(marketShare) */\n      0x08fc\n        /* \"frontend/src/contracts/naegift_escrow.sol\":2292:2303  marketShare */\n      dup4\n        /* \"frontend/src/contracts/naegift_escrow.sol\":2267:2304  payable(market).transfer(marketShare) */\n      swap1\n      dup2\n      iszero\n      mul\n      swap1\n      mload(0x40)\n      0x00\n      mload(0x40)\n      dup1\n      dup4\n      sub\n      dup2\n      dup6\n      dup9\n      dup9\n      call\n      swap4\n      pop\n      pop\n      pop\n      pop\n      iszero\n      dup1\n      iszero\n      tag_95\n      jumpi\n      returndatasize\n      0x00\n      dup1\n      returndatacopy\n      revert(0x00, returndatasize)\n    tag_95:\n      pop\n        /* \"frontend/src/contracts/naegift_escrow.sol\":2323:2329  seller */\n      immutable(\"0x57014f1e5f1d53e43fa40624186159531d6372d1ab8f40ec7882845ca66de31d\")\n        /* \"frontend/src/contracts/naegift_escrow.sol\":2315:2339  payable(seller).transfer */\n      0xffffffffffffffffffffffffffffffffffffffff\n      and\n        /* \"frontend/src/contracts/naegift_escrow.sol\":2315:2352  payable(seller).transfer(sellerShare) */\n      0x08fc\n        /* \"frontend/src/contracts/naegift_escrow.sol\":2340:2351  sellerShare */\n      dup3\n        /* \"frontend/src/contracts/naegift_escrow.sol\":2315:2352  payable(seller).transfer(sellerShare) */\n      swap1\n      dup2\n      iszero\n      mul\n      swap1\n      mload(0x40)\n      0x00\n      mload(0x40)\n      dup1\n      dup4\n      sub\n      dup2\n      dup6\n      dup9\n      dup9\n      call\n      swap4\n      pop\n      pop\n      pop\n      pop\n      iszero\n      dup1\n      iszero\n      tag_97\n      jumpi\n      returndatasize\n      0x00\n      dup1\n      returndatacopy\n      revert(0x00, returndatasize)\n    tag_97:\n      pop\n        /* \"frontend/src/contracts/naegift_escrow.sol\":2406:2412  seller */\n      immutable(\"0x57014f1e5f1d53e43fa40624186159531d6372d1ab8f40ec7882845ca66de31d\")\n        /* \"frontend/src/contracts/naegift_escrow.sol\":2368:2426  FundsDistributed(market, marketShare, seller, sellerShare) */\n      0xffffffffffffffffffffffffffffffffffffffff\n      and\n        /* \"frontend/src/contracts/naegift_escrow.sol\":2385:2391  market */\n      immutable(\"0x63867b8d5e748cf93e24f7b381d92337d037805bfc271d6d67e0e86772662677\")\n        /* \"frontend/src/contracts/naegift_escrow.sol\":2368:2426  FundsDistributed(market, marketShare, seller, sellerShare) */\n      0xffffffffffffffffffffffffffffffffffffffff\n      and\n      0xcc2c3f002c6146160e9eb8ade8202f88f3d01aa0fbbc98e7582f7280af10651f\n        /* \"frontend/src/contracts/naegift_escrow.sol\":2393:2404  marketShare */\n      dup5\n        /* \"frontend/src/contracts/naegift_escrow.sol\":2414:2425  sellerShare */\n      dup5\n        /* \"frontend/src/contracts/naegift_escrow.sol\":2368:2426  FundsDistributed(market, marketShare, seller, sellerShare) */\n      mload(0x40)\n      tag_98\n      swap3\n      swap2\n      swap1\n      tag_99\n      jump\t// in\n    tag_98:\n      mload(0x40)\n      dup1\n      swap2\n      sub\n      swap1\n      log3\n        /* \"frontend/src/contracts/naegift_escrow.sol\":2453:2482  ContractStateChoices.EXECUTED */\n      0x04\n        /* \"frontend/src/contracts/naegift_escrow.sol\":2437:2450  ContractState */\n      0x00\n      dup1\n        /* \"frontend/src/contracts/naegift_escrow.sol\":2437:2482  ContractState = ContractStateChoices.EXECUTED */\n      0x0100\n      exp\n      dup2\n      sload\n      dup2\n      0xff\n      mul\n      not\n      and\n      swap1\n      dup4\n      0x04\n      dup2\n      gt\n      iszero\n      tag_100\n      jumpi\n      tag_101\n      tag_59\n      jump\t// in\n    tag_101:\n    tag_100:\n      mul\n      or\n      swap1\n      sstore\n      pop\n        /* \"frontend/src/contracts/naegift_escrow.sol\":2065:2490  {... */\n      pop\n      pop\n        /* \"frontend/src/contracts/naegift_escrow.sol\":2030:2490  function distributeFunds() private {... */\n      jump\t// out\n        /* \"#utility.yul\":7:133   */\n    tag_102:\n        /* \"#utility.yul\":44:51   */\n      0x00\n        /* \"#utility.yul\":84:126   */\n      0xffffffffffffffffffffffffffffffffffffffff\n        /* \"#utility.yul\":77:82   */\n      dup3\n        /* \"#utility.yul\":73:127   */\n      and\n        /* \"#utility.yul\":62:127   */\n      swap1\n      pop\n        /* \"#utility.yul\":7:133   */\n      swap2\n      swap1\n      pop\n      jump\t// out\n        /* \"#utility.yul\":139:235   */\n    tag_103:\n        /* \"#utility.yul\":176:183   */\n      0x00\n        /* \"#utility.yul\":205:229   */\n      tag_127\n        /* \"#utility.yul\":223:228   */\n      dup3\n        /* \"#utility.yul\":205:229   */\n      tag_102\n      jump\t// in\n    tag_127:\n        /* \"#utility.yul\":194:229   */\n      swap1\n      pop\n        /* \"#utility.yul\":139:235   */\n      swap2\n      swap1\n      pop\n      jump\t// out\n        /* \"#utility.yul\":241:359   */\n    tag_104:\n        /* \"#utility.yul\":328:352   */\n      tag_129\n        /* \"#utility.yul\":346:351   */\n      dup2\n        /* \"#utility.yul\":328:352   */\n      tag_103\n      jump\t// in\n    tag_129:\n        /* \"#utility.yul\":323:326   */\n      dup3\n        /* \"#utility.yul\":316:353   */\n      mstore\n        /* \"#utility.yul\":241:359   */\n      pop\n      pop\n      jump\t// out\n        /* \"#utility.yul\":365:587   */\n    tag_19:\n        /* \"#utility.yul\":458:462   */\n      0x00\n        /* \"#utility.yul\":496:498   */\n      0x20\n        /* \"#utility.yul\":485:494   */\n      dup3\n        /* \"#utility.yul\":481:499   */\n      add\n        /* \"#utility.yul\":473:499   */\n      swap1\n      pop\n        /* \"#utility.yul\":509:580   */\n      tag_131\n        /* \"#utility.yul\":577:578   */\n      0x00\n        /* \"#utility.yul\":566:575   */\n      dup4\n        /* \"#utility.yul\":562:579   */\n      add\n        /* \"#utility.yul\":553:559   */\n      dup5\n        /* \"#utility.yul\":509:580   */\n      tag_104\n      jump\t// in\n    tag_131:\n        /* \"#utility.yul\":365:587   */\n      swap3\n      swap2\n      pop\n      pop\n      jump\t// out\n        /* \"#utility.yul\":593:773   */\n    tag_59:\n        /* \"#utility.yul\":641:718   */\n      0x4e487b7100000000000000000000000000000000000000000000000000000000\n        /* \"#utility.yul\":638:639   */\n      0x00\n        /* \"#utility.yul\":631:719   */\n      mstore\n        /* \"#utility.yul\":738:742   */\n      0x21\n        /* \"#utility.yul\":735:736   */\n      0x04\n        /* \"#utility.yul\":728:743   */\n      mstore\n        /* \"#utility.yul\":762:766   */\n      0x24\n        /* \"#utility.yul\":759:760   */\n      0x00\n        /* \"#utility.yul\":752:767   */\n      revert\n        /* \"#utility.yul\":779:907   */\n    tag_105:\n        /* \"#utility.yul\":875:876   */\n      0x05\n        /* \"#utility.yul\":868:873   */\n      dup2\n        /* \"#utility.yul\":865:877   */\n      lt\n        /* \"#utility.yul\":855:901   */\n      tag_134\n      jumpi\n        /* \"#utility.yul\":881:899   */\n      tag_135\n      tag_59\n      jump\t// in\n    tag_135:\n        /* \"#utility.yul\":855:901   */\n    tag_134:\n        /* \"#utility.yul\":779:907   */\n      pop\n      jump\t// out\n        /* \"#utility.yul\":913:1070   */\n    tag_106:\n        /* \"#utility.yul\":973:980   */\n      0x00\n        /* \"#utility.yul\":1002:1007   */\n      dup2\n        /* \"#utility.yul\":991:1007   */\n      swap1\n      pop\n        /* \"#utility.yul\":1008:1064   */\n      tag_137\n        /* \"#utility.yul\":1058:1063   */\n      dup3\n        /* \"#utility.yul\":1008:1064   */\n      tag_105\n      jump\t// in\n    tag_137:\n        /* \"#utility.yul\":913:1070   */\n      swap2\n      swap1\n      pop\n      jump\t// out\n        /* \"#utility.yul\":1076:1233   */\n    tag_107:\n        /* \"#utility.yul\":1147:1156   */\n      0x00\n        /* \"#utility.yul\":1180:1227   */\n      tag_139\n        /* \"#utility.yul\":1221:1226   */\n      dup3\n        /* \"#utility.yul\":1180:1227   */\n      tag_106\n      jump\t// in\n    tag_139:\n        /* \"#utility.yul\":1167:1227   */\n      swap1\n      pop\n        /* \"#utility.yul\":1076:1233   */\n      swap2\n      swap1\n      pop\n      jump\t// out\n        /* \"#utility.yul\":1239:1412   */\n    tag_108:\n        /* \"#utility.yul\":1347:1405   */\n      tag_141\n        /* \"#utility.yul\":1399:1404   */\n      dup2\n        /* \"#utility.yul\":1347:1405   */\n      tag_107\n      jump\t// in\n    tag_141:\n        /* \"#utility.yul\":1342:1345   */\n      dup3\n        /* \"#utility.yul\":1335:1406   */\n      mstore\n        /* \"#utility.yul\":1239:1412   */\n      pop\n      pop\n      jump\t// out\n        /* \"#utility.yul\":1418:1682   */\n    tag_24:\n        /* \"#utility.yul\":1532:1536   */\n      0x00\n        /* \"#utility.yul\":1570:1572   */\n      0x20\n        /* \"#utility.yul\":1559:1568   */\n      dup3\n        /* \"#utility.yul\":1555:1573   */\n      add\n        /* \"#utility.yul\":1547:1573   */\n      swap1\n      pop\n        /* \"#utility.yul\":1583:1675   */\n      tag_143\n        /* \"#utility.yul\":1672:1673   */\n      0x00\n        /* \"#utility.yul\":1661:1670   */\n      dup4\n        /* \"#utility.yul\":1657:1674   */\n      add\n        /* \"#utility.yul\":1648:1654   */\n      dup5\n        /* \"#utility.yul\":1583:1675   */\n      tag_108\n      jump\t// in\n    tag_143:\n        /* \"#utility.yul\":1418:1682   */\n      swap3\n      swap2\n      pop\n      pop\n      jump\t// out\n        /* \"#utility.yul\":1688:1765   */\n    tag_109:\n        /* \"#utility.yul\":1725:1732   */\n      0x00\n        /* \"#utility.yul\":1754:1759   */\n      dup2\n        /* \"#utility.yul\":1743:1759   */\n      swap1\n      pop\n        /* \"#utility.yul\":1688:1765   */\n      swap2\n      swap1\n      pop\n      jump\t// out\n        /* \"#utility.yul\":1771:1889   */\n    tag_110:\n        /* \"#utility.yul\":1858:1882   */\n      tag_146\n        /* \"#utility.yul\":1876:1881   */\n      dup2\n        /* \"#utility.yul\":1858:1882   */\n      tag_109\n      jump\t// in\n    tag_146:\n        /* \"#utility.yul\":1853:1856   */\n      dup3\n        /* \"#utility.yul\":1846:1883   */\n      mstore\n        /* \"#utility.yul\":1771:1889   */\n      pop\n      pop\n      jump\t// out\n        /* \"#utility.yul\":1895:2117   */\n    tag_40:\n        /* \"#utility.yul\":1988:1992   */\n      0x00\n        /* \"#utility.yul\":2026:2028   */\n      0x20\n        /* \"#utility.yul\":2015:2024   */\n      dup3\n        /* \"#utility.yul\":2011:2029   */\n      add\n        /* \"#utility.yul\":2003:2029   */\n      swap1\n      pop\n        /* \"#utility.yul\":2039:2110   */\n      tag_148\n        /* \"#utility.yul\":2107:2108   */\n      0x00\n        /* \"#utility.yul\":2096:2105   */\n      dup4\n        /* \"#utility.yul\":2092:2109   */\n      add\n        /* \"#utility.yul\":2083:2089   */\n      dup5\n        /* \"#utility.yul\":2039:2110   */\n      tag_110\n      jump\t// in\n    tag_148:\n        /* \"#utility.yul\":1895:2117   */\n      swap3\n      swap2\n      pop\n      pop\n      jump\t// out\n        /* \"#utility.yul\":2123:2292   */\n    tag_111:\n        /* \"#utility.yul\":2207:2218   */\n      0x00\n        /* \"#utility.yul\":2241:2247   */\n      dup3\n        /* \"#utility.yul\":2236:2239   */\n      dup3\n        /* \"#utility.yul\":2229:2248   */\n      mstore\n        /* \"#utility.yul\":2281:2285   */\n      0x20\n        /* \"#utility.yul\":2276:2279   */\n      dup3\n        /* \"#utility.yul\":2272:2286   */\n      add\n        /* \"#utility.yul\":2257:2286   */\n      swap1\n      pop\n        /* \"#utility.yul\":2123:2292   */\n      swap3\n      swap2\n      pop\n      pop\n      jump\t// out\n        /* \"#utility.yul\":2298:2452   */\n    tag_112:\n        /* \"#utility.yul\":2438:2444   */\n      0x6530323000000000000000000000000000000000000000000000000000000000\n        /* \"#utility.yul\":2434:2435   */\n      0x00\n        /* \"#utility.yul\":2426:2432   */\n      dup3\n        /* \"#utility.yul\":2422:2436   */\n      add\n        /* \"#utility.yul\":2415:2445   */\n      mstore\n        /* \"#utility.yul\":2298:2452   */\n      pop\n      jump\t// out\n        /* \"#utility.yul\":2458:2823   */\n    tag_113:\n        /* \"#utility.yul\":2600:2603   */\n      0x00\n        /* \"#utility.yul\":2621:2687   */\n      tag_152\n        /* \"#utility.yul\":2685:2686   */\n      0x04\n        /* \"#utility.yul\":2680:2683   */\n      dup4\n        /* \"#utility.yul\":2621:2687   */\n      tag_111\n      jump\t// in\n    tag_152:\n        /* \"#utility.yul\":2614:2687   */\n      swap2\n      pop\n        /* \"#utility.yul\":2696:2789   */\n      tag_153\n        /* \"#utility.yul\":2785:2788   */\n      dup3\n        /* \"#utility.yul\":2696:2789   */\n      tag_112\n      jump\t// in\n    tag_153:\n        /* \"#utility.yul\":2814:2816   */\n      0x20\n        /* \"#utility.yul\":2809:2812   */\n      dup3\n        /* \"#utility.yul\":2805:2817   */\n      add\n        /* \"#utility.yul\":2798:2817   */\n      swap1\n      pop\n        /* \"#utility.yul\":2458:2823   */\n      swap2\n      swap1\n      pop\n      jump\t// out\n        /* \"#utility.yul\":2829:3248   */\n    tag_56:\n        /* \"#utility.yul\":2995:2999   */\n      0x00\n        /* \"#utility.yul\":3033:3035   */\n      0x20\n        /* \"#utility.yul\":3022:3031   */\n      dup3\n        /* \"#utility.yul\":3018:3036   */\n      add\n        /* \"#utility.yul\":3010:3036   */\n      swap1\n      pop\n        /* \"#utility.yul\":3082:3091   */\n      dup2\n        /* \"#utility.yul\":3076:3080   */\n      dup2\n        /* \"#utility.yul\":3072:3092   */\n      sub\n        /* \"#utility.yul\":3068:3069   */\n      0x00\n        /* \"#utility.yul\":3057:3066   */\n      dup4\n        /* \"#utility.yul\":3053:3070   */\n      add\n        /* \"#utility.yul\":3046:3093   */\n      mstore\n        /* \"#utility.yul\":3110:3241   */\n      tag_155\n        /* \"#utility.yul\":3236:3240   */\n      dup2\n        /* \"#utility.yul\":3110:3241   */\n      tag_113\n      jump\t// in\n    tag_155:\n        /* \"#utility.yul\":3102:3241   */\n      swap1\n      pop\n        /* \"#utility.yul\":2829:3248   */\n      swap2\n      swap1\n      pop\n      jump\t// out\n        /* \"#utility.yul\":3254:3408   */\n    tag_114:\n        /* \"#utility.yul\":3394:3400   */\n      0x6530323100000000000000000000000000000000000000000000000000000000\n        /* \"#utility.yul\":3390:3391   */\n      0x00\n        /* \"#utility.yul\":3382:3388   */\n      dup3\n        /* \"#utility.yul\":3378:3392   */\n      add\n        /* \"#utility.yul\":3371:3401   */\n      mstore\n        /* \"#utility.yul\":3254:3408   */\n      pop\n      jump\t// out\n        /* \"#utility.yul\":3414:3779   */\n    tag_115:\n        /* \"#utility.yul\":3556:3559   */\n      0x00\n        /* \"#utility.yul\":3577:3643   */\n      tag_158\n        /* \"#utility.yul\":3641:3642   */\n      0x04\n        /* \"#utility.yul\":3636:3639   */\n      dup4\n        /* \"#utility.yul\":3577:3643   */\n      tag_111\n      jump\t// in\n    tag_158:\n        /* \"#utility.yul\":3570:3643   */\n      swap2\n      pop\n        /* \"#utility.yul\":3652:3745   */\n      tag_159\n        /* \"#utility.yul\":3741:3744   */\n      dup3\n        /* \"#utility.yul\":3652:3745   */\n      tag_114\n      jump\t// in\n    tag_159:\n        /* \"#utility.yul\":3770:3772   */\n      0x20\n        /* \"#utility.yul\":3765:3768   */\n      dup3\n        /* \"#utility.yul\":3761:3773   */\n      add\n        /* \"#utility.yul\":3754:3773   */\n      swap1\n      pop\n        /* \"#utility.yul\":3414:3779   */\n      swap2\n      swap1\n      pop\n      jump\t// out\n        /* \"#utility.yul\":3785:4204   */\n    tag_64:\n        /* \"#utility.yul\":3951:3955   */\n      0x00\n        /* \"#utility.yul\":3989:3991   */\n      0x20\n        /* \"#utility.yul\":3978:3987   */\n      dup3\n        /* \"#utility.yul\":3974:3992   */\n      add\n        /* \"#utility.yul\":3966:3992   */\n      swap1\n      pop\n        /* \"#utility.yul\":4038:4047   */\n      dup2\n        /* \"#utility.yul\":4032:4036   */\n      dup2\n        /* \"#utility.yul\":4028:4048   */\n      sub\n        /* \"#utility.yul\":4024:4025   */\n      0x00\n        /* \"#utility.yul\":4013:4022   */\n      dup4\n        /* \"#utility.yul\":4009:4026   */\n      add\n        /* \"#utility.yul\":4002:4049   */\n      mstore\n        /* \"#utility.yul\":4066:4197   */\n      tag_161\n        /* \"#utility.yul\":4192:4196   */\n      dup2\n        /* \"#utility.yul\":4066:4197   */\n      tag_115\n      jump\t// in\n    tag_161:\n        /* \"#utility.yul\":4058:4197   */\n      swap1\n      pop\n        /* \"#utility.yul\":3785:4204   */\n      swap2\n      swap1\n      pop\n      jump\t// out\n        /* \"#utility.yul\":4210:4364   */\n    tag_116:\n        /* \"#utility.yul\":4350:4356   */\n      0x6530323400000000000000000000000000000000000000000000000000000000\n        /* \"#utility.yul\":4346:4347   */\n      0x00\n        /* \"#utility.yul\":4338:4344   */\n      dup3\n        /* \"#utility.yul\":4334:4348   */\n      add\n        /* \"#utility.yul\":4327:4357   */\n      mstore\n        /* \"#utility.yul\":4210:4364   */\n      pop\n      jump\t// out\n        /* \"#utility.yul\":4370:4735   */\n    tag_117:\n        /* \"#utility.yul\":4512:4515   */\n      0x00\n        /* \"#utility.yul\":4533:4599   */\n      tag_164\n        /* \"#utility.yul\":4597:4598   */\n      0x04\n        /* \"#utility.yul\":4592:4595   */\n      dup4\n        /* \"#utility.yul\":4533:4599   */\n      tag_111\n      jump\t// in\n    tag_164:\n        /* \"#utility.yul\":4526:4599   */\n      swap2\n      pop\n        /* \"#utility.yul\":4608:4701   */\n      tag_165\n        /* \"#utility.yul\":4697:4700   */\n      dup3\n        /* \"#utility.yul\":4608:4701   */\n      tag_116\n      jump\t// in\n    tag_165:\n        /* \"#utility.yul\":4726:4728   */\n      0x20\n        /* \"#utility.yul\":4721:4724   */\n      dup3\n        /* \"#utility.yul\":4717:4729   */\n      add\n        /* \"#utility.yul\":4710:4729   */\n      swap1\n      pop\n        /* \"#utility.yul\":4370:4735   */\n      swap2\n      swap1\n      pop\n      jump\t// out\n        /* \"#utility.yul\":4741:5160   */\n    tag_72:\n        /* \"#utility.yul\":4907:4911   */\n      0x00\n        /* \"#utility.yul\":4945:4947   */\n      0x20\n        /* \"#utility.yul\":4934:4943   */\n      dup3\n        /* \"#utility.yul\":4930:4948   */\n      add\n        /* \"#utility.yul\":4922:4948   */\n      swap1\n      pop\n        /* \"#utility.yul\":4994:5003   */\n      dup2\n        /* \"#utility.yul\":4988:4992   */\n      dup2\n        /* \"#utility.yul\":4984:5004   */\n      sub\n        /* \"#utility.yul\":4980:4981   */\n      0x00\n        /* \"#utility.yul\":4969:4978   */\n      dup4\n        /* \"#utility.yul\":4965:4982   */\n      add\n        /* \"#utility.yul\":4958:5005   */\n      mstore\n        /* \"#utility.yul\":5022:5153   */\n      tag_167\n        /* \"#utility.yul\":5148:5152   */\n      dup2\n        /* \"#utility.yul\":5022:5153   */\n      tag_117\n      jump\t// in\n    tag_167:\n        /* \"#utility.yul\":5014:5153   */\n      swap1\n      pop\n        /* \"#utility.yul\":4741:5160   */\n      swap2\n      swap1\n      pop\n      jump\t// out\n        /* \"#utility.yul\":5166:5320   */\n    tag_118:\n        /* \"#utility.yul\":5306:5312   */\n      0x6530313300000000000000000000000000000000000000000000000000000000\n        /* \"#utility.yul\":5302:5303   */\n      0x00\n        /* \"#utility.yul\":5294:5300   */\n      dup3\n        /* \"#utility.yul\":5290:5304   */\n      add\n        /* \"#utility.yul\":5283:5313   */\n      mstore\n        /* \"#utility.yul\":5166:5320   */\n      pop\n      jump\t// out\n        /* \"#utility.yul\":5326:5691   */\n    tag_119:\n        /* \"#utility.yul\":5468:5471   */\n      0x00\n        /* \"#utility.yul\":5489:5555   */\n      tag_170\n        /* \"#utility.yul\":5553:5554   */\n      0x04\n        /* \"#utility.yul\":5548:5551   */\n      dup4\n        /* \"#utility.yul\":5489:5555   */\n      tag_111\n      jump\t// in\n    tag_170:\n        /* \"#utility.yul\":5482:5555   */\n      swap2\n      pop\n        /* \"#utility.yul\":5564:5657   */\n      tag_171\n        /* \"#utility.yul\":5653:5656   */\n      dup3\n        /* \"#utility.yul\":5564:5657   */\n      tag_118\n      jump\t// in\n    tag_171:\n        /* \"#utility.yul\":5682:5684   */\n      0x20\n        /* \"#utility.yul\":5677:5680   */\n      dup3\n        /* \"#utility.yul\":5673:5685   */\n      add\n        /* \"#utility.yul\":5666:5685   */\n      swap1\n      pop\n        /* \"#utility.yul\":5326:5691   */\n      swap2\n      swap1\n      pop\n      jump\t// out\n        /* \"#utility.yul\":5697:6116   */\n    tag_79:\n        /* \"#utility.yul\":5863:5867   */\n      0x00\n        /* \"#utility.yul\":5901:5903   */\n      0x20\n        /* \"#utility.yul\":5890:5899   */\n      dup3\n        /* \"#utility.yul\":5886:5904   */\n      add\n        /* \"#utility.yul\":5878:5904   */\n      swap1\n      pop\n        /* \"#utility.yul\":5950:5959   */\n      dup2\n        /* \"#utility.yul\":5944:5948   */\n      dup2\n        /* \"#utility.yul\":5940:5960   */\n      sub\n        /* \"#utility.yul\":5936:5937   */\n      0x00\n        /* \"#utility.yul\":5925:5934   */\n      dup4\n        /* \"#utility.yul\":5921:5938   */\n      add\n        /* \"#utility.yul\":5914:5961   */\n      mstore\n        /* \"#utility.yul\":5978:6109   */\n      tag_173\n        /* \"#utility.yul\":6104:6108   */\n      dup2\n        /* \"#utility.yul\":5978:6109   */\n      tag_119\n      jump\t// in\n    tag_173:\n        /* \"#utility.yul\":5970:6109   */\n      swap1\n      pop\n        /* \"#utility.yul\":5697:6116   */\n      swap2\n      swap1\n      pop\n      jump\t// out\n        /* \"#utility.yul\":6122:6276   */\n    tag_120:\n        /* \"#utility.yul\":6262:6268   */\n      0x6530323200000000000000000000000000000000000000000000000000000000\n        /* \"#utility.yul\":6258:6259   */\n      0x00\n        /* \"#utility.yul\":6250:6256   */\n      dup3\n        /* \"#utility.yul\":6246:6260   */\n      add\n        /* \"#utility.yul\":6239:6269   */\n      mstore\n        /* \"#utility.yul\":6122:6276   */\n      pop\n      jump\t// out\n        /* \"#utility.yul\":6282:6647   */\n    tag_121:\n        /* \"#utility.yul\":6424:6427   */\n      0x00\n        /* \"#utility.yul\":6445:6511   */\n      tag_176\n        /* \"#utility.yul\":6509:6510   */\n      0x04\n        /* \"#utility.yul\":6504:6507   */\n      dup4\n        /* \"#utility.yul\":6445:6511   */\n      tag_111\n      jump\t// in\n    tag_176:\n        /* \"#utility.yul\":6438:6511   */\n      swap2\n      pop\n        /* \"#utility.yul\":6520:6613   */\n      tag_177\n        /* \"#utility.yul\":6609:6612   */\n      dup3\n        /* \"#utility.yul\":6520:6613   */\n      tag_120\n      jump\t// in\n    tag_177:\n        /* \"#utility.yul\":6638:6640   */\n      0x20\n        /* \"#utility.yul\":6633:6636   */\n      dup3\n        /* \"#utility.yul\":6629:6641   */\n      add\n        /* \"#utility.yul\":6622:6641   */\n      swap1\n      pop\n        /* \"#utility.yul\":6282:6647   */\n      swap2\n      swap1\n      pop\n      jump\t// out\n        /* \"#utility.yul\":6653:7072   */\n    tag_89:\n        /* \"#utility.yul\":6819:6823   */\n      0x00\n        /* \"#utility.yul\":6857:6859   */\n      0x20\n        /* \"#utility.yul\":6846:6855   */\n      dup3\n        /* \"#utility.yul\":6842:6860   */\n      add\n        /* \"#utility.yul\":6834:6860   */\n      swap1\n      pop\n        /* \"#utility.yul\":6906:6915   */\n      dup2\n        /* \"#utility.yul\":6900:6904   */\n      dup2\n        /* \"#utility.yul\":6896:6916   */\n      sub\n        /* \"#utility.yul\":6892:6893   */\n      0x00\n        /* \"#utility.yul\":6881:6890   */\n      dup4\n        /* \"#utility.yul\":6877:6894   */\n      add\n        /* \"#utility.yul\":6870:6917   */\n      mstore\n        /* \"#utility.yul\":6934:7065   */\n      tag_179\n        /* \"#utility.yul\":7060:7064   */\n      dup2\n        /* \"#utility.yul\":6934:7065   */\n      tag_121\n      jump\t// in\n    tag_179:\n        /* \"#utility.yul\":6926:7065   */\n      swap1\n      pop\n        /* \"#utility.yul\":6653:7072   */\n      swap2\n      swap1\n      pop\n      jump\t// out\n        /* \"#utility.yul\":7078:7258   */\n    tag_122:\n        /* \"#utility.yul\":7126:7203   */\n      0x4e487b7100000000000000000000000000000000000000000000000000000000\n        /* \"#utility.yul\":7123:7124   */\n      0x00\n        /* \"#utility.yul\":7116:7204   */\n      mstore\n        /* \"#utility.yul\":7223:7227   */\n      0x12\n        /* \"#utility.yul\":7220:7221   */\n      0x04\n        /* \"#utility.yul\":7213:7228   */\n      mstore\n        /* \"#utility.yul\":7247:7251   */\n      0x24\n        /* \"#utility.yul\":7244:7245   */\n      0x00\n        /* \"#utility.yul\":7237:7252   */\n      revert\n        /* \"#utility.yul\":7264:7444   */\n    tag_123:\n        /* \"#utility.yul\":7312:7389   */\n      0x4e487b7100000000000000000000000000000000000000000000000000000000\n        /* \"#utility.yul\":7309:7310   */\n      0x00\n        /* \"#utility.yul\":7302:7390   */\n      mstore\n        /* \"#utility.yul\":7409:7413   */\n      0x11\n        /* \"#utility.yul\":7406:7407   */\n      0x04\n        /* \"#utility.yul\":7399:7414   */\n      mstore\n        /* \"#utility.yul\":7433:7437   */\n      0x24\n        /* \"#utility.yul\":7430:7431   */\n      0x00\n        /* \"#utility.yul\":7423:7438   */\n      revert\n        /* \"#utility.yul\":7450:7635   */\n    tag_91:\n        /* \"#utility.yul\":7490:7491   */\n      0x00\n        /* \"#utility.yul\":7507:7527   */\n      tag_183\n        /* \"#utility.yul\":7525:7526   */\n      dup3\n        /* \"#utility.yul\":7507:7527   */\n      tag_109\n      jump\t// in\n    tag_183:\n        /* \"#utility.yul\":7502:7527   */\n      swap2\n      pop\n        /* \"#utility.yul\":7541:7561   */\n      tag_184\n        /* \"#utility.yul\":7559:7560   */\n      dup4\n        /* \"#utility.yul\":7541:7561   */\n      tag_109\n      jump\t// in\n    tag_184:\n        /* \"#utility.yul\":7536:7561   */\n      swap3\n      pop\n        /* \"#utility.yul\":7580:7581   */\n      dup3\n        /* \"#utility.yul\":7570:7605   */\n      tag_185\n      jumpi\n        /* \"#utility.yul\":7585:7603   */\n      tag_186\n      tag_122\n      jump\t// in\n    tag_186:\n        /* \"#utility.yul\":7570:7605   */\n    tag_185:\n        /* \"#utility.yul\":7627:7628   */\n      dup3\n        /* \"#utility.yul\":7624:7625   */\n      dup3\n        /* \"#utility.yul\":7620:7629   */\n      div\n        /* \"#utility.yul\":7615:7629   */\n      swap1\n      pop\n        /* \"#utility.yul\":7450:7635   */\n      swap3\n      swap2\n      pop\n      pop\n      jump\t// out\n        /* \"#utility.yul\":7641:7835   */\n    tag_93:\n        /* \"#utility.yul\":7681:7685   */\n      0x00\n        /* \"#utility.yul\":7701:7721   */\n      tag_188\n        /* \"#utility.yul\":7719:7720   */\n      dup3\n        /* \"#utility.yul\":7701:7721   */\n      tag_109\n      jump\t// in\n    tag_188:\n        /* \"#utility.yul\":7696:7721   */\n      swap2\n      pop\n        /* \"#utility.yul\":7735:7755   */\n      tag_189\n        /* \"#utility.yul\":7753:7754   */\n      dup4\n        /* \"#utility.yul\":7735:7755   */\n      tag_109\n      jump\t// in\n    tag_189:\n        /* \"#utility.yul\":7730:7755   */\n      swap3\n      pop\n        /* \"#utility.yul\":7779:7780   */\n      dup3\n        /* \"#utility.yul\":7776:7777   */\n      dup3\n        /* \"#utility.yul\":7772:7781   */\n      sub\n        /* \"#utility.yul\":7764:7781   */\n      swap1\n      pop\n        /* \"#utility.yul\":7803:7804   */\n      dup2\n        /* \"#utility.yul\":7797:7801   */\n      dup2\n        /* \"#utility.yul\":7794:7805   */\n      gt\n        /* \"#utility.yul\":7791:7828   */\n      iszero\n      tag_190\n      jumpi\n        /* \"#utility.yul\":7808:7826   */\n      tag_191\n      tag_123\n      jump\t// in\n    tag_191:\n        /* \"#utility.yul\":7791:7828   */\n    tag_190:\n        /* \"#utility.yul\":7641:7835   */\n      swap3\n      swap2\n      pop\n      pop\n      jump\t// out\n        /* \"#utility.yul\":7841:8173   */\n    tag_99:\n        /* \"#utility.yul\":7962:7966   */\n      0x00\n        /* \"#utility.yul\":8000:8002   */\n      0x40\n        /* \"#utility.yul\":7989:7998   */\n      dup3\n        /* \"#utility.yul\":7985:8003   */\n      add\n        /* \"#utility.yul\":7977:8003   */\n      swap1\n      pop\n        /* \"#utility.yul\":8013:8084   */\n      tag_193\n        /* \"#utility.yul\":8081:8082   */\n      0x00\n        /* \"#utility.yul\":8070:8079   */\n      dup4\n        /* \"#utility.yul\":8066:8083   */\n      add\n        /* \"#utility.yul\":8057:8063   */\n      dup6\n        /* \"#utility.yul\":8013:8084   */\n      tag_110\n      jump\t// in\n    tag_193:\n        /* \"#utility.yul\":8094:8166   */\n      tag_194\n        /* \"#utility.yul\":8162:8164   */\n      0x20\n        /* \"#utility.yul\":8151:8160   */\n      dup4\n        /* \"#utility.yul\":8147:8165   */\n      add\n        /* \"#utility.yul\":8138:8144   */\n      dup5\n        /* \"#utility.yul\":8094:8166   */\n      tag_110\n      jump\t// in\n    tag_194:\n        /* \"#utility.yul\":7841:8173   */\n      swap4\n      swap3\n      pop\n      pop\n      pop\n      jump\t// out\n\n    auxdata: 0xa26469706673582212206bbb9a215ac316b822617af17de46332945727ef2c6319364de7c6a7f97c8f7b64736f6c63430008140033\n}\n",
				"bytecode": {
					"linkReferences": {},
					"object": "6101206040526040516200112b3803806200112b83398181016040528101906200002a91906200032d565b8373ffffffffffffffffffffffffffffffffffffffff168573ffffffffffffffffffffffffffffffffffffffff16141580156200009357508173ffffffffffffffffffffffffffffffffffffffff168573ffffffffffffffffffffffffffffffffffffffff1614155b8015620000cc57508273ffffffffffffffffffffffffffffffffffffffff168473ffffffffffffffffffffffffffffffffffffffff1614155b80156200010557508173ffffffffffffffffffffffffffffffffffffffff168473ffffffffffffffffffffffffffffffffffffffff1614155b80156200013e57508173ffffffffffffffffffffffffffffffffffffffff168373ffffffffffffffffffffffffffffffffffffffff1614155b62000180576040517f08c379a000000000000000000000000000000000000000000000000000000000815260040162000177906200040f565b60405180910390fd5b8473ffffffffffffffffffffffffffffffffffffffff1660808173ffffffffffffffffffffffffffffffffffffffff16815250508373ffffffffffffffffffffffffffffffffffffffff1660a08173ffffffffffffffffffffffffffffffffffffffff16815250508273ffffffffffffffffffffffffffffffffffffffff1660c08173ffffffffffffffffffffffffffffffffffffffff16815250508173ffffffffffffffffffffffffffffffffffffffff1660e08173ffffffffffffffffffffffffffffffffffffffff168152505080610100818152505060015f806101000a81548160ff0219169083600481111562000280576200027f6200042f565b5b021790555050505050506200045c565b5f80fd5b5f73ffffffffffffffffffffffffffffffffffffffff82169050919050565b5f620002bf8262000294565b9050919050565b620002d181620002b3565b8114620002dc575f80fd5b50565b5f81519050620002ef81620002c6565b92915050565b5f819050919050565b6200030981620002f5565b811462000314575f80fd5b50565b5f815190506200032781620002fe565b92915050565b5f805f805f60a0868803121562000349576200034862000290565b5b5f6200035888828901620002df565b95505060206200036b88828901620002df565b94505060406200037e88828901620002df565b93505060606200039188828901620002df565b9250506080620003a48882890162000317565b9150509295509295909350565b5f82825260208201905092915050565b7f65303031000000000000000000000000000000000000000000000000000000005f82015250565b5f620003f7600483620003b1565b91506200040482620003c1565b602082019050919050565b5f6020820190508181035f8301526200042881620003e9565b9050919050565b7f4e487b71000000000000000000000000000000000000000000000000000000005f52602160045260245ffd5b60805160a05160c05160e05161010051610c59620004d25f395f81816103df0152818161061c015261064b01525f81816103bb0152818161041301528181610678015261077701525f8181610220015261058201525f81816101e8015281816106dc015261074001525f6103970152610c595ff3fe608060405260043610610089575f3560e01c806380f556051161005857806380f556051461012857806397e9a0bf146101525780639c1d9e3e1461017c578063d2c9ea03146101a6578063f7260d3e146101bc57610090565b806308551a531461009457806318609960146100be5780634fbc4f60146100e85780637150d8ae146100fe57610090565b3661009057005b5f80fd5b34801561009f575f80fd5b506100a86101e6565b6040516100b59190610851565b60405180910390f35b3480156100c9575f80fd5b506100d261020a565b6040516100df91906108dd565b60405180910390f35b3480156100f3575f80fd5b506100fc61021e565b005b348015610109575f80fd5b50610112610395565b60405161011f9190610851565b60405180910390f35b348015610133575f80fd5b5061013c6103b9565b6040516101499190610851565b60405180910390f35b34801561015d575f80fd5b506101666103dd565b604051610173919061090e565b60405180910390f35b348015610187575f80fd5b50610190610401565b60405161019d91906108dd565b60405180910390f35b3480156101b1575f80fd5b506101ba610411565b005b3480156101c7575f80fd5b506101d0610580565b6040516101dd9190610851565b60405180910390f35b7f000000000000000000000000000000000000000000000000000000000000000081565b5f805f9054906101000a900460ff16905090565b7f000000000000000000000000000000000000000000000000000000000000000073ffffffffffffffffffffffffffffffffffffffff163373ffffffffffffffffffffffffffffffffffffffff16146102ac576040517f08c379a00000000000000000000000000000000000000000000000000000000081526004016102a390610981565b60405180910390fd5b600260048111156102c0576102bf61086a565b5b5f8054906101000a900460ff1660048111156102df576102de61086a565b5b1461031f576040517f08c379a0000000000000000000000000000000000000000000000000000000008152600401610316906109e9565b60405180910390fd5b60035f806101000a81548160ff021916908360048111156103435761034261086a565b5b02179055503373ffffffffffffffffffffffffffffffffffffffff167f1ddd2177a0a6dd96c0353f0a0c2c45fcd1564f1c3ff3501c966e56f299b66e4060405160405180910390a26103936105a4565b565b7f000000000000000000000000000000000000000000000000000000000000000081565b7f000000000000000000000000000000000000000000000000000000000000000081565b7f000000000000000000000000000000000000000000000000000000000000000081565b5f8054906101000a900460ff1681565b7f000000000000000000000000000000000000000000000000000000000000000073ffffffffffffffffffffffffffffffffffffffff163373ffffffffffffffffffffffffffffffffffffffff161461049f576040517f08c379a000000000000000000000000000000000000000000000000000000000815260040161049690610a51565b60405180910390fd5b600160048111156104b3576104b261086a565b5b5f8054906101000a900460ff1660048111156104d2576104d161086a565b5b14610512576040517f08c379a000000000000000000000000000000000000000000000000000000000815260040161050990610ab9565b60405180910390fd5b60025f806101000a81548160ff021916908360048111156105365761053561086a565b5b02179055503373ffffffffffffffffffffffffffffffffffffffff167f2b4d886262cf2de6c7d4426877b49a269f028810e47e65e9debbf5cd75b99f8b60405160405180910390a2565b7f000000000000000000000000000000000000000000000000000000000000000081565b600360048111156105b8576105b761086a565b5b5f8054906101000a900460ff1660048111156105d7576105d661086a565b5b14610617576040517f08c379a000000000000000000000000000000000000000000000000000000000815260040161060e90610b21565b60405180910390fd5b5f600a7f00000000000000000000000000000000000000000000000000000000000000006106459190610b99565b90505f817f00000000000000000000000000000000000000000000000000000000000000006106749190610bc9565b90507f000000000000000000000000000000000000000000000000000000000000000073ffffffffffffffffffffffffffffffffffffffff166108fc8390811502906040515f60405180830381858888f193505050501580156106d9573d5f803e3d5ffd5b507f000000000000000000000000000000000000000000000000000000000000000073ffffffffffffffffffffffffffffffffffffffff166108fc8290811502906040515f60405180830381858888f1935050505015801561073d573d5f803e3d5ffd5b507f000000000000000000000000000000000000000000000000000000000000000073ffffffffffffffffffffffffffffffffffffffff167f000000000000000000000000000000000000000000000000000000000000000073ffffffffffffffffffffffffffffffffffffffff167fcc2c3f002c6146160e9eb8ade8202f88f3d01aa0fbbc98e7582f7280af10651f84846040516107dd929190610bfc565b60405180910390a360045f806101000a81548160ff021916908360048111156108095761080861086a565b5b02179055505050565b5f73ffffffffffffffffffffffffffffffffffffffff82169050919050565b5f61083b82610812565b9050919050565b61084b81610831565b82525050565b5f6020820190506108645f830184610842565b92915050565b7f4e487b71000000000000000000000000000000000000000000000000000000005f52602160045260245ffd5b600581106108a8576108a761086a565b5b50565b5f8190506108b882610897565b919050565b5f6108c7826108ab565b9050919050565b6108d7816108bd565b82525050565b5f6020820190506108f05f8301846108ce565b92915050565b5f819050919050565b610908816108f6565b82525050565b5f6020820190506109215f8301846108ff565b92915050565b5f82825260208201905092915050565b7f65303230000000000000000000000000000000000000000000000000000000005f82015250565b5f61096b600483610927565b915061097682610937565b602082019050919050565b5f6020820190508181035f8301526109988161095f565b9050919050565b7f65303231000000000000000000000000000000000000000000000000000000005f82015250565b5f6109d3600483610927565b91506109de8261099f565b602082019050919050565b5f6020820190508181035f830152610a00816109c7565b9050919050565b7f65303234000000000000000000000000000000000000000000000000000000005f82015250565b5f610a3b600483610927565b9150610a4682610a07565b602082019050919050565b5f6020820190508181035f830152610a6881610a2f565b9050919050565b7f65303133000000000000000000000000000000000000000000000000000000005f82015250565b5f610aa3600483610927565b9150610aae82610a6f565b602082019050919050565b5f6020820190508181035f830152610ad081610a97565b9050919050565b7f65303232000000000000000000000000000000000000000000000000000000005f82015250565b5f610b0b600483610927565b9150610b1682610ad7565b602082019050919050565b5f6020820190508181035f830152610b3881610aff565b9050919050565b7f4e487b71000000000000000000000000000000000000000000000000000000005f52601260045260245ffd5b7f4e487b71000000000000000000000000000000000000000000000000000000005f52601160045260245ffd5b5f610ba3826108f6565b9150610bae836108f6565b925082610bbe57610bbd610b3f565b5b828204905092915050565b5f610bd3826108f6565b9150610bde836108f6565b9250828203905081811115610bf657610bf5610b6c565b5b92915050565b5f604082019050610c0f5f8301856108ff565b610c1c60208301846108ff565b939250505056fea26469706673582212206bbb9a215ac316b822617af17de46332945727ef2c6319364de7c6a7f97c8f7b64736f6c63430008140033",
					"opcodes": "PUSH2 0x120 PUSH1 0x40 MSTORE PUSH1 0x40 MLOAD PUSH3 0x112B CODESIZE SUB DUP1 PUSH3 0x112B DUP4 CODECOPY DUP2 DUP2 ADD PUSH1 0x40 MSTORE DUP2 ADD SWAP1 PUSH3 0x2A SWAP2 SWAP1 PUSH3 0x32D JUMP JUMPDEST DUP4 PUSH20 0xFFFFFFFFFFFFFFFFFFFFFFFFFFFFFFFFFFFFFFFF AND DUP6 PUSH20 0xFFFFFFFFFFFFFFFFFFFFFFFFFFFFFFFFFFFFFFFF AND EQ ISZERO DUP1 ISZERO PUSH3 0x93 JUMPI POP DUP2 PUSH20 0xFFFFFFFFFFFFFFFFFFFFFFFFFFFFFFFFFFFFFFFF AND DUP6 PUSH20 0xFFFFFFFFFFFFFFFFFFFFFFFFFFFFFFFFFFFFFFFF AND EQ ISZERO JUMPDEST DUP1 ISZERO PUSH3 0xCC JUMPI POP DUP3 PUSH20 0xFFFFFFFFFFFFFFFFFFFFFFFFFFFFFFFFFFFFFFFF AND DUP5 PUSH20 0xFFFFFFFFFFFFFFFFFFFFFFFFFFFFFFFFFFFFFFFF AND EQ ISZERO JUMPDEST DUP1 ISZERO PUSH3 0x105 JUMPI POP DUP2 PUSH20 0xFFFFFFFFFFFFFFFFFFFFFFFFFFFFFFFFFFFFFFFF AND DUP5 PUSH20 0xFFFFFFFFFFFFFFFFFFFFFFFFFFFFFFFFFFFFFFFF AND EQ ISZERO JUMPDEST DUP1 ISZERO PUSH3 0x13E JUMPI POP DUP2 PUSH20 0xFFFFFFFFFFFFFFFFFFFFFFFFFFFFFFFFFFFFFFFF AND DUP4 PUSH20 0xFFFFFFFFFFFFFFFFFFFFFFFFFFFFFFFFFFFFFFFF AND EQ ISZERO JUMPDEST PUSH3 0x180 JUMPI PUSH1 0x40 MLOAD PUSH32 0x8C379A000000000000000000000000000000000000000000000000000000000 DUP2 MSTORE PUSH1 0x4 ADD PUSH3 0x177 SWAP1 PUSH3 0x40F JUMP JUMPDEST PUSH1 0x40 MLOAD DUP1 SWAP2 SUB SWAP1 REVERT JUMPDEST DUP5 PUSH20 0xFFFFFFFFFFFFFFFFFFFFFFFFFFFFFFFFFFFFFFFF AND PUSH1 0x80 DUP2 PUSH20 0xFFFFFFFFFFFFFFFFFFFFFFFFFFFFFFFFFFFFFFFF AND DUP2 MSTORE POP POP DUP4 PUSH20 0xFFFFFFFFFFFFFFFFFFFFFFFFFFFFFFFFFFFFFFFF AND PUSH1 0xA0 DUP2 PUSH20 0xFFFFFFFFFFFFFFFFFFFFFFFFFFFFFFFFFFFFFFFF AND DUP2 MSTORE POP POP DUP3 PUSH20 0xFFFFFFFFFFFFFFFFFFFFFFFFFFFFFFFFFFFFFFFF AND PUSH1 0xC0 DUP2 PUSH20 0xFFFFFFFFFFFFFFFFFFFFFFFFFFFFFFFFFFFFFFFF AND DUP2 MSTORE POP POP DUP2 PUSH20 0xFFFFFFFFFFFFFFFFFFFFFFFFFFFFFFFFFFFFFFFF AND PUSH1 0xE0 DUP2 PUSH20 0xFFFFFFFFFFFFFFFFFFFFFFFFFFFFFFFFFFFFFFFF AND DUP2 MSTORE POP POP DUP1 PUSH2 0x100 DUP2 DUP2 MSTORE POP POP PUSH1 0x1 PUSH0 DUP1 PUSH2 0x100 EXP DUP2 SLOAD DUP2 PUSH1 0xFF MUL NOT AND SWAP1 DUP4 PUSH1 0x4 DUP2 GT ISZERO PUSH3 0x280 JUMPI PUSH3 0x27F PUSH3 0x42F JUMP JUMPDEST JUMPDEST MUL OR SWAP1 SSTORE POP POP POP POP POP POP PUSH3 0x45C JUMP JUMPDEST PUSH0 DUP1 REVERT JUMPDEST PUSH0 PUSH20 0xFFFFFFFFFFFFFFFFFFFFFFFFFFFFFFFFFFFFFFFF DUP3 AND SWAP1 POP SWAP2 SWAP1 POP JUMP JUMPDEST PUSH0 PUSH3 0x2BF DUP3 PUSH3 0x294 JUMP JUMPDEST SWAP1 POP SWAP2 SWAP1 POP JUMP JUMPDEST PUSH3 0x2D1 DUP2 PUSH3 0x2B3 JUMP JUMPDEST DUP2 EQ PUSH3 0x2DC JUMPI PUSH0 DUP1 REVERT JUMPDEST POP JUMP JUMPDEST PUSH0 DUP2 MLOAD SWAP1 POP PUSH3 0x2EF DUP2 PUSH3 0x2C6 JUMP JUMPDEST SWAP3 SWAP2 POP POP JUMP JUMPDEST PUSH0 DUP2 SWAP1 POP SWAP2 SWAP1 POP JUMP JUMPDEST PUSH3 0x309 DUP2 PUSH3 0x2F5 JUMP JUMPDEST DUP2 EQ PUSH3 0x314 JUMPI PUSH0 DUP1 REVERT JUMPDEST POP JUMP JUMPDEST PUSH0 DUP2 MLOAD SWAP1 POP PUSH3 0x327 DUP2 PUSH3 0x2FE JUMP JUMPDEST SWAP3 SWAP2 POP POP JUMP JUMPDEST PUSH0 DUP1 PUSH0 DUP1 PUSH0 PUSH1 0xA0 DUP7 DUP9 SUB SLT ISZERO PUSH3 0x349 JUMPI PUSH3 0x348 PUSH3 0x290 JUMP JUMPDEST JUMPDEST PUSH0 PUSH3 0x358 DUP9 DUP3 DUP10 ADD PUSH3 0x2DF JUMP JUMPDEST SWAP6 POP POP PUSH1 0x20 PUSH3 0x36B DUP9 DUP3 DUP10 ADD PUSH3 0x2DF JUMP JUMPDEST SWAP5 POP POP PUSH1 0x40 PUSH3 0x37E DUP9 DUP3 DUP10 ADD PUSH3 0x2DF JUMP JUMPDEST SWAP4 POP POP PUSH1 0x60 PUSH3 0x391 DUP9 DUP3 DUP10 ADD PUSH3 0x2DF JUMP JUMPDEST SWAP3 POP POP PUSH1 0x80 PUSH3 0x3A4 DUP9 DUP3 DUP10 ADD PUSH3 0x317 JUMP JUMPDEST SWAP2 POP POP SWAP3 SWAP6 POP SWAP3 SWAP6 SWAP1 SWAP4 POP JUMP JUMPDEST PUSH0 DUP3 DUP3 MSTORE PUSH1 0x20 DUP3 ADD SWAP1 POP SWAP3 SWAP2 POP POP JUMP JUMPDEST PUSH32 0x6530303100000000000000000000000000000000000000000000000000000000 PUSH0 DUP3 ADD MSTORE POP JUMP JUMPDEST PUSH0 PUSH3 0x3F7 PUSH1 0x4 DUP4 PUSH3 0x3B1 JUMP JUMPDEST SWAP2 POP PUSH3 0x404 DUP3 PUSH3 0x3C1 JUMP JUMPDEST PUSH1 0x20 DUP3 ADD SWAP1 POP SWAP2 SWAP1 POP JUMP JUMPDEST PUSH0 PUSH1 0x20 DUP3 ADD SWAP1 POP DUP2 DUP2 SUB PUSH0 DUP4 ADD MSTORE PUSH3 0x428 DUP2 PUSH3 0x3E9 JUMP JUMPDEST SWAP1 POP SWAP2 SWAP1 POP JUMP JUMPDEST PUSH32 0x4E487B7100000000000000000000000000000000000000000000000000000000 PUSH0 MSTORE PUSH1 0x21 PUSH1 0x4 MSTORE PUSH1 0x24 PUSH0 REVERT JUMPDEST PUSH1 0x80 MLOAD PUSH1 0xA0 MLOAD PUSH1 0xC0 MLOAD PUSH1 0xE0 MLOAD PUSH2 0x100 MLOAD PUSH2 0xC59 PUSH3 0x4D2 PUSH0 CODECOPY PUSH0 DUP2 DUP2 PUSH2 0x3DF ADD MSTORE DUP2 DUP2 PUSH2 0x61C ADD MSTORE PUSH2 0x64B ADD MSTORE PUSH0 DUP2 DUP2 PUSH2 0x3BB ADD MSTORE DUP2 DUP2 PUSH2 0x413 ADD MSTORE DUP2 DUP2 PUSH2 0x678 ADD MSTORE PUSH2 0x777 ADD MSTORE PUSH0 DUP2 DUP2 PUSH2 0x220 ADD MSTORE PUSH2 0x582 ADD MSTORE PUSH0 DUP2 DUP2 PUSH2 0x1E8 ADD MSTORE DUP2 DUP2 PUSH2 0x6DC ADD MSTORE PUSH2 0x740 ADD MSTORE PUSH0 PUSH2 0x397 ADD MSTORE PUSH2 0xC59 PUSH0 RETURN INVALID PUSH1 0x80 PUSH1 0x40 MSTORE PUSH1 0x4 CALLDATASIZE LT PUSH2 0x89 JUMPI PUSH0 CALLDATALOAD PUSH1 0xE0 SHR DUP1 PUSH4 0x80F55605 GT PUSH2 0x58 JUMPI DUP1 PUSH4 0x80F55605 EQ PUSH2 0x128 JUMPI DUP1 PUSH4 0x97E9A0BF EQ PUSH2 0x152 JUMPI DUP1 PUSH4 0x9C1D9E3E EQ PUSH2 0x17C JUMPI DUP1 PUSH4 0xD2C9EA03 EQ PUSH2 0x1A6 JUMPI DUP1 PUSH4 0xF7260D3E EQ PUSH2 0x1BC JUMPI PUSH2 0x90 JUMP JUMPDEST DUP1 PUSH4 0x8551A53 EQ PUSH2 0x94 JUMPI DUP1 PUSH4 0x18609960 EQ PUSH2 0xBE JUMPI DUP1 PUSH4 0x4FBC4F60 EQ PUSH2 0xE8 JUMPI DUP1 PUSH4 0x7150D8AE EQ PUSH2 0xFE JUMPI PUSH2 0x90 JUMP JUMPDEST CALLDATASIZE PUSH2 0x90 JUMPI STOP JUMPDEST PUSH0 DUP1 REVERT JUMPDEST CALLVALUE DUP1 ISZERO PUSH2 0x9F JUMPI PUSH0 DUP1 REVERT JUMPDEST POP PUSH2 0xA8 PUSH2 0x1E6 JUMP JUMPDEST PUSH1 0x40 MLOAD PUSH2 0xB5 SWAP2 SWAP1 PUSH2 0x851 JUMP JUMPDEST PUSH1 0x40 MLOAD DUP1 SWAP2 SUB SWAP1 RETURN JUMPDEST CALLVALUE DUP1 ISZERO PUSH2 0xC9 JUMPI PUSH0 DUP1 REVERT JUMPDEST POP PUSH2 0xD2 PUSH2 0x20A JUMP JUMPDEST PUSH1 0x40 MLOAD PUSH2 0xDF SWAP2 SWAP1 PUSH2 0x8DD JUMP JUMPDEST PUSH1 0x40 MLOAD DUP1 SWAP2 SUB SWAP1 RETURN JUMPDEST CALLVALUE DUP1 ISZERO PUSH2 0xF3 JUMPI PUSH0 DUP1 REVERT JUMPDEST POP PUSH2 0xFC PUSH2 0x21E JUMP JUMPDEST STOP JUMPDEST CALLVALUE DUP1 ISZERO PUSH2 0x109 JUMPI PUSH0 DUP1 REVERT JUMPDEST POP PUSH2 0x112 PUSH2 0x395 JUMP JUMPDEST PUSH1 0x40 MLOAD PUSH2 0x11F SWAP2 SWAP1 PUSH2 0x851 JUMP JUMPDEST PUSH1 0x40 MLOAD DUP1 SWAP2 SUB SWAP1 RETURN JUMPDEST CALLVALUE DUP1 ISZERO PUSH2 0x133 JUMPI PUSH0 DUP1 REVERT JUMPDEST POP PUSH2 0x13C PUSH2 0x3B9 JUMP JUMPDEST PUSH1 0x40 MLOAD PUSH2 0x149 SWAP2 SWAP1 PUSH2 0x851 JUMP JUMPDEST PUSH1 0x40 MLOAD DUP1 SWAP2 SUB SWAP1 RETURN JUMPDEST CALLVALUE DUP1 ISZERO PUSH2 0x15D JUMPI PUSH0 DUP1 REVERT JUMPDEST POP PUSH2 0x166 PUSH2 0x3DD JUMP JUMPDEST PUSH1 0x40 MLOAD PUSH2 0x173 SWAP2 SWAP1 PUSH2 0x90E JUMP JUMPDEST PUSH1 0x40 MLOAD DUP1 SWAP2 SUB SWAP1 RETURN JUMPDEST CALLVALUE DUP1 ISZERO PUSH2 0x187 JUMPI PUSH0 DUP1 REVERT JUMPDEST POP PUSH2 0x190 PUSH2 0x401 JUMP JUMPDEST PUSH1 0x40 MLOAD PUSH2 0x19D SWAP2 SWAP1 PUSH2 0x8DD JUMP JUMPDEST PUSH1 0x40 MLOAD DUP1 SWAP2 SUB SWAP1 RETURN JUMPDEST CALLVALUE DUP1 ISZERO PUSH2 0x1B1 JUMPI PUSH0 DUP1 REVERT JUMPDEST POP PUSH2 0x1BA PUSH2 0x411 JUMP JUMPDEST STOP JUMPDEST CALLVALUE DUP1 ISZERO PUSH2 0x1C7 JUMPI PUSH0 DUP1 REVERT JUMPDEST POP PUSH2 0x1D0 PUSH2 0x580 JUMP JUMPDEST PUSH1 0x40 MLOAD PUSH2 0x1DD SWAP2 SWAP1 PUSH2 0x851 JUMP JUMPDEST PUSH1 0x40 MLOAD DUP1 SWAP2 SUB SWAP1 RETURN JUMPDEST PUSH32 0x0 DUP2 JUMP JUMPDEST PUSH0 DUP1 PUSH0 SWAP1 SLOAD SWAP1 PUSH2 0x100 EXP SWAP1 DIV PUSH1 0xFF AND SWAP1 POP SWAP1 JUMP JUMPDEST PUSH32 0x0 PUSH20 0xFFFFFFFFFFFFFFFFFFFFFFFFFFFFFFFFFFFFFFFF AND CALLER PUSH20 0xFFFFFFFFFFFFFFFFFFFFFFFFFFFFFFFFFFFFFFFF AND EQ PUSH2 0x2AC JUMPI PUSH1 0x40 MLOAD PUSH32 0x8C379A000000000000000000000000000000000000000000000000000000000 DUP2 MSTORE PUSH1 0x4 ADD PUSH2 0x2A3 SWAP1 PUSH2 0x981 JUMP JUMPDEST PUSH1 0x40 MLOAD DUP1 SWAP2 SUB SWAP1 REVERT JUMPDEST PUSH1 0x2 PUSH1 0x4 DUP2 GT ISZERO PUSH2 0x2C0 JUMPI PUSH2 0x2BF PUSH2 0x86A JUMP JUMPDEST JUMPDEST PUSH0 DUP1 SLOAD SWAP1 PUSH2 0x100 EXP SWAP1 DIV PUSH1 0xFF AND PUSH1 0x4 DUP2 GT ISZERO PUSH2 0x2DF JUMPI PUSH2 0x2DE PUSH2 0x86A JUMP JUMPDEST JUMPDEST EQ PUSH2 0x31F JUMPI PUSH1 0x40 MLOAD PUSH32 0x8C379A000000000000000000000000000000000000000000000000000000000 DUP2 MSTORE PUSH1 0x4 ADD PUSH2 0x316 SWAP1 PUSH2 0x9E9 JUMP JUMPDEST PUSH1 0x40 MLOAD DUP1 SWAP2 SUB SWAP1 REVERT JUMPDEST PUSH1 0x3 PUSH0 DUP1 PUSH2 0x100 EXP DUP2 SLOAD DUP2 PUSH1 0xFF MUL NOT AND SWAP1 DUP4 PUSH1 0x4 DUP2 GT ISZERO PUSH2 0x343 JUMPI PUSH2 0x342 PUSH2 0x86A JUMP JUMPDEST JUMPDEST MUL OR SWAP1 SSTORE POP CALLER PUSH20 0xFFFFFFFFFFFFFFFFFFFFFFFFFFFFFFFFFFFFFFFF AND PUSH32 0x1DDD2177A0A6DD96C0353F0A0C2C45FCD1564F1C3FF3501C966E56F299B66E40 PUSH1 0x40 MLOAD PUSH1 0x40 MLOAD DUP1 SWAP2 SUB SWAP1 LOG2 PUSH2 0x393 PUSH2 0x5A4 JUMP JUMPDEST JUMP JUMPDEST PUSH32 0x0 DUP2 JUMP JUMPDEST PUSH32 0x0 DUP2 JUMP JUMPDEST PUSH32 0x0 DUP2 JUMP JUMPDEST PUSH0 DUP1 SLOAD SWAP1 PUSH2 0x100 EXP SWAP1 DIV PUSH1 0xFF AND DUP2 JUMP JUMPDEST PUSH32 0x0 PUSH20 0xFFFFFFFFFFFFFFFFFFFFFFFFFFFFFFFFFFFFFFFF AND CALLER PUSH20 0xFFFFFFFFFFFFFFFFFFFFFFFFFFFFFFFFFFFFFFFF AND EQ PUSH2 0x49F JUMPI PUSH1 0x40 MLOAD PUSH32 0x8C379A000000000000000000000000000000000000000000000000000000000 DUP2 MSTORE PUSH1 0x4 ADD PUSH2 0x496 SWAP1 PUSH2 0xA51 JUMP JUMPDEST PUSH1 0x40 MLOAD DUP1 SWAP2 SUB SWAP1 REVERT JUMPDEST PUSH1 0x1 PUSH1 0x4 DUP2 GT ISZERO PUSH2 0x4B3 JUMPI PUSH2 0x4B2 PUSH2 0x86A JUMP JUMPDEST JUMPDEST PUSH0 DUP1 SLOAD SWAP1 PUSH2 0x100 EXP SWAP1 DIV PUSH1 0xFF AND PUSH1 0x4 DUP2 GT ISZERO PUSH2 0x4D2 JUMPI PUSH2 0x4D1 PUSH2 0x86A JUMP JUMPDEST JUMPDEST EQ PUSH2 0x512 JUMPI PUSH1 0x40 MLOAD PUSH32 0x8C379A000000000000000000000000000000000000000000000000000000000 DUP2 MSTORE PUSH1 0x4 ADD PUSH2 0x509 SWAP1 PUSH2 0xAB9 JUMP JUMPDEST PUSH1 0x40 MLOAD DUP1 SWAP2 SUB SWAP1 REVERT JUMPDEST PUSH1 0x2 PUSH0 DUP1 PUSH2 0x100 EXP DUP2 SLOAD DUP2 PUSH1 0xFF MUL NOT AND SWAP1 DUP4 PUSH1 0x4 DUP2 GT ISZERO PUSH2 0x536 JUMPI PUSH2 0x535 PUSH2 0x86A JUMP JUMPDEST JUMPDEST MUL OR SWAP1 SSTORE POP CALLER PUSH20 0xFFFFFFFFFFFFFFFFFFFFFFFFFFFFFFFFFFFFFFFF AND PUSH32 0x2B4D886262CF2DE6C7D4426877B49A269F028810E47E65E9DEBBF5CD75B99F8B PUSH1 0x40 MLOAD PUSH1 0x40 MLOAD DUP1 SWAP2 SUB SWAP1 LOG2 JUMP JUMPDEST PUSH32 0x0 DUP2 JUMP JUMPDEST PUSH1 0x3 PUSH1 0x4 DUP2 GT ISZERO PUSH2 0x5B8 JUMPI PUSH2 0x5B7 PUSH2 0x86A JUMP JUMPDEST JUMPDEST PUSH0 DUP1 SLOAD SWAP1 PUSH2 0x100 EXP SWAP1 DIV PUSH1 0xFF AND PUSH1 0x4 DUP2 GT ISZERO PUSH2 0x5D7 JUMPI PUSH2 0x5D6 PUSH2 0x86A JUMP JUMPDEST JUMPDEST EQ PUSH2 0x617 JUMPI PUSH1 0x40 MLOAD PUSH32 0x8C379A000000000000000000000000000000000000000000000000000000000 DUP2 MSTORE PUSH1 0x4 ADD PUSH2 0x60E SWAP1 PUSH2 0xB21 JUMP JUMPDEST PUSH1 0x40 MLOAD DUP1 SWAP2 SUB SWAP1 REVERT JUMPDEST PUSH0 PUSH1 0xA PUSH32 0x0 PUSH2 0x645 SWAP2 SWAP1 PUSH2 0xB99 JUMP JUMPDEST SWAP1 POP PUSH0 DUP2 PUSH32 0x0 PUSH2 0x674 SWAP2 SWAP1 PUSH2 0xBC9 JUMP JUMPDEST SWAP1 POP PUSH32 0x0 PUSH20 0xFFFFFFFFFFFFFFFFFFFFFFFFFFFFFFFFFFFFFFFF AND PUSH2 0x8FC DUP4 SWAP1 DUP2 ISZERO MUL SWAP1 PUSH1 0x40 MLOAD PUSH0 PUSH1 0x40 MLOAD DUP1 DUP4 SUB DUP2 DUP6 DUP9 DUP9 CALL SWAP4 POP POP POP POP ISZERO DUP1 ISZERO PUSH2 0x6D9 JUMPI RETURNDATASIZE PUSH0 DUP1 RETURNDATACOPY RETURNDATASIZE PUSH0 REVERT JUMPDEST POP PUSH32 0x0 PUSH20 0xFFFFFFFFFFFFFFFFFFFFFFFFFFFFFFFFFFFFFFFF AND PUSH2 0x8FC DUP3 SWAP1 DUP2 ISZERO MUL SWAP1 PUSH1 0x40 MLOAD PUSH0 PUSH1 0x40 MLOAD DUP1 DUP4 SUB DUP2 DUP6 DUP9 DUP9 CALL SWAP4 POP POP POP POP ISZERO DUP1 ISZERO PUSH2 0x73D JUMPI RETURNDATASIZE PUSH0 DUP1 RETURNDATACOPY RETURNDATASIZE PUSH0 REVERT JUMPDEST POP PUSH32 0x0 PUSH20 0xFFFFFFFFFFFFFFFFFFFFFFFFFFFFFFFFFFFFFFFF AND PUSH32 0x0 PUSH20 0xFFFFFFFFFFFFFFFFFFFFFFFFFFFFFFFFFFFFFFFF AND PUSH32 0xCC2C3F002C6146160E9EB8ADE8202F88F3D01AA0FBBC98E7582F7280AF10651F DUP5 DUP5 PUSH1 0x40 MLOAD PUSH2 0x7DD SWAP3 SWAP2 SWAP1 PUSH2 0xBFC JUMP JUMPDEST PUSH1 0x40 MLOAD DUP1 SWAP2 SUB SWAP1 LOG3 PUSH1 0x4 PUSH0 DUP1 PUSH2 0x100 EXP DUP2 SLOAD DUP2 PUSH1 0xFF MUL NOT AND SWAP1 DUP4 PUSH1 0x4 DUP2 GT ISZERO PUSH2 0x809 JUMPI PUSH2 0x808 PUSH2 0x86A JUMP JUMPDEST JUMPDEST MUL OR SWAP1 SSTORE POP POP POP JUMP JUMPDEST PUSH0 PUSH20 0xFFFFFFFFFFFFFFFFFFFFFFFFFFFFFFFFFFFFFFFF DUP3 AND SWAP1 POP SWAP2 SWAP1 POP JUMP JUMPDEST PUSH0 PUSH2 0x83B DUP3 PUSH2 0x812 JUMP JUMPDEST SWAP1 POP SWAP2 SWAP1 POP JUMP JUMPDEST PUSH2 0x84B DUP2 PUSH2 0x831 JUMP JUMPDEST DUP3 MSTORE POP POP JUMP JUMPDEST PUSH0 PUSH1 0x20 DUP3 ADD SWAP1 POP PUSH2 0x864 PUSH0 DUP4 ADD DUP5 PUSH2 0x842 JUMP JUMPDEST SWAP3 SWAP2 POP POP JUMP JUMPDEST PUSH32 0x4E487B7100000000000000000000000000000000000000000000000000000000 PUSH0 MSTORE PUSH1 0x21 PUSH1 0x4 MSTORE PUSH1 0x24 PUSH0 REVERT JUMPDEST PUSH1 0x5 DUP2 LT PUSH2 0x8A8 JUMPI PUSH2 0x8A7 PUSH2 0x86A JUMP JUMPDEST JUMPDEST POP JUMP JUMPDEST PUSH0 DUP2 SWAP1 POP PUSH2 0x8B8 DUP3 PUSH2 0x897 JUMP JUMPDEST SWAP2 SWAP1 POP JUMP JUMPDEST PUSH0 PUSH2 0x8C7 DUP3 PUSH2 0x8AB JUMP JUMPDEST SWAP1 POP SWAP2 SWAP1 POP JUMP JUMPDEST PUSH2 0x8D7 DUP2 PUSH2 0x8BD JUMP JUMPDEST DUP3 MSTORE POP POP JUMP JUMPDEST PUSH0 PUSH1 0x20 DUP3 ADD SWAP1 POP PUSH2 0x8F0 PUSH0 DUP4 ADD DUP5 PUSH2 0x8CE JUMP JUMPDEST SWAP3 SWAP2 POP POP JUMP JUMPDEST PUSH0 DUP2 SWAP1 POP SWAP2 SWAP1 POP JUMP JUMPDEST PUSH2 0x908 DUP2 PUSH2 0x8F6 JUMP JUMPDEST DUP3 MSTORE POP POP JUMP JUMPDEST PUSH0 PUSH1 0x20 DUP3 ADD SWAP1 POP PUSH2 0x921 PUSH0 DUP4 ADD DUP5 PUSH2 0x8FF JUMP JUMPDEST SWAP3 SWAP2 POP POP JUMP JUMPDEST PUSH0 DUP3 DUP3 MSTORE PUSH1 0x20 DUP3 ADD SWAP1 POP SWAP3 SWAP2 POP POP JUMP JUMPDEST PUSH32 0x6530323000000000000000000000000000000000000000000000000000000000 PUSH0 DUP3 ADD MSTORE POP JUMP JUMPDEST PUSH0 PUSH2 0x96B PUSH1 0x4 DUP4 PUSH2 0x927 JUMP JUMPDEST SWAP2 POP PUSH2 0x976 DUP3 PUSH2 0x937 JUMP JUMPDEST PUSH1 0x20 DUP3 ADD SWAP1 POP SWAP2 SWAP1 POP JUMP JUMPDEST PUSH0 PUSH1 0x20 DUP3 ADD SWAP1 POP DUP2 DUP2 SUB PUSH0 DUP4 ADD MSTORE PUSH2 0x998 DUP2 PUSH2 0x95F JUMP JUMPDEST SWAP1 POP SWAP2 SWAP1 POP JUMP JUMPDEST PUSH32 0x6530323100000000000000000000000000000000000000000000000000000000 PUSH0 DUP3 ADD MSTORE POP JUMP JUMPDEST PUSH0 PUSH2 0x9D3 PUSH1 0x4 DUP4 PUSH2 0x927 JUMP JUMPDEST SWAP2 POP PUSH2 0x9DE DUP3 PUSH2 0x99F JUMP JUMPDEST PUSH1 0x20 DUP3 ADD SWAP1 POP SWAP2 SWAP1 POP JUMP JUMPDEST PUSH0 PUSH1 0x20 DUP3 ADD SWAP1 POP DUP2 DUP2 SUB PUSH0 DUP4 ADD MSTORE PUSH2 0xA00 DUP2 PUSH2 0x9C7 JUMP JUMPDEST SWAP1 POP SWAP2 SWAP1 POP JUMP JUMPDEST PUSH32 0x6530323400000000000000000000000000000000000000000000000000000000 PUSH0 DUP3 ADD MSTORE POP JUMP JUMPDEST PUSH0 PUSH2 0xA3B PUSH1 0x4 DUP4 PUSH2 0x927 JUMP JUMPDEST SWAP2 POP PUSH2 0xA46 DUP3 PUSH2 0xA07 JUMP JUMPDEST PUSH1 0x20 DUP3 ADD SWAP1 POP SWAP2 SWAP1 POP JUMP JUMPDEST PUSH0 PUSH1 0x20 DUP3 ADD SWAP1 POP DUP2 DUP2 SUB PUSH0 DUP4 ADD MSTORE PUSH2 0xA68 DUP2 PUSH2 0xA2F JUMP JUMPDEST SWAP1 POP SWAP2 SWAP1 POP JUMP JUMPDEST PUSH32 0x6530313300000000000000000000000000000000000000000000000000000000 PUSH0 DUP3 ADD MSTORE POP JUMP JUMPDEST PUSH0 PUSH2 0xAA3 PUSH1 0x4 DUP4 PUSH2 0x927 JUMP JUMPDEST SWAP2 POP PUSH2 0xAAE DUP3 PUSH2 0xA6F JUMP JUMPDEST PUSH1 0x20 DUP3 ADD SWAP1 POP SWAP2 SWAP1 POP JUMP JUMPDEST PUSH0 PUSH1 0x20 DUP3 ADD SWAP1 POP DUP2 DUP2 SUB PUSH0 DUP4 ADD MSTORE PUSH2 0xAD0 DUP2 PUSH2 0xA97 JUMP JUMPDEST SWAP1 POP SWAP2 SWAP1 POP JUMP JUMPDEST PUSH32 0x6530323200000000000000000000000000000000000000000000000000000000 PUSH0 DUP3 ADD MSTORE POP JUMP JUMPDEST PUSH0 PUSH2 0xB0B PUSH1 0x4 DUP4 PUSH2 0x927 JUMP JUMPDEST SWAP2 POP PUSH2 0xB16 DUP3 PUSH2 0xAD7 JUMP JUMPDEST PUSH1 0x20 DUP3 ADD SWAP1 POP SWAP2 SWAP1 POP JUMP JUMPDEST PUSH0 PUSH1 0x20 DUP3 ADD SWAP1 POP DUP2 DUP2 SUB PUSH0 DUP4 ADD MSTORE PUSH2 0xB38 DUP2 PUSH2 0xAFF JUMP JUMPDEST SWAP1 POP SWAP2 SWAP1 POP JUMP JUMPDEST PUSH32 0x4E487B7100000000000000000000000000000000000000000000000000000000 PUSH0 MSTORE PUSH1 0x12 PUSH1 0x4 MSTORE PUSH1 0x24 PUSH0 REVERT JUMPDEST PUSH32 0x4E487B7100000000000000000000000000000000000000000000000000000000 PUSH0 MSTORE PUSH1 0x11 PUSH1 0x4 MSTORE PUSH1 0x24 PUSH0 REVERT JUMPDEST PUSH0 PUSH2 0xBA3 DUP3 PUSH2 0x8F6 JUMP JUMPDEST SWAP2 POP PUSH2 0xBAE DUP4 PUSH2 0x8F6 JUMP JUMPDEST SWAP3 POP DUP3 PUSH2 0xBBE JUMPI PUSH2 0xBBD PUSH2 0xB3F JUMP JUMPDEST JUMPDEST DUP3 DUP3 DIV SWAP1 POP SWAP3 SWAP2 POP POP JUMP JUMPDEST PUSH0 PUSH2 0xBD3 DUP3 PUSH2 0x8F6 JUMP JUMPDEST SWAP2 POP PUSH2 0xBDE DUP4 PUSH2 0x8F6 JUMP JUMPDEST SWAP3 POP DUP3 DUP3 SUB SWAP1 POP DUP2 DUP2 GT ISZERO PUSH2 0xBF6 JUMPI PUSH2 0xBF5 PUSH2 0xB6C JUMP JUMPDEST JUMPDEST SWAP3 SWAP2 POP POP JUMP JUMPDEST PUSH0 PUSH1 0x40 DUP3 ADD SWAP1 POP PUSH2 0xC0F PUSH0 DUP4 ADD DUP6 PUSH2 0x8FF JUMP JUMPDEST PUSH2 0xC1C PUSH1 0x20 DUP4 ADD DUP5 PUSH2 0x8FF JUMP JUMPDEST SWAP4 SWAP3 POP POP POP JUMP INVALID LOG2 PUSH5 0x6970667358 0x22 SLT KECCAK256 PUSH12 0xBB9A215AC316B822617AF17D 0xE4 PUSH4 0x32945727 0xEF 0x2C PUSH4 0x19364DE7 0xC6 0xA7 0xF9 PUSH29 0x8F7B64736F6C6343000814003300000000000000000000000000000000 "
				},
				"gasEstimates": {
					"creation": {
						"codeDepositCost": "632200",
						"executionCost": "infinite",
						"totalCost": "infinite"
					},
					"external": {
						"ContractState()": "2595",
						"buyer()": "infinite",
						"confirmFulfillment()": "infinite",
						"confirmProductUsed()": "infinite",
						"contractPrice()": "infinite",
						"escrowStatus()": "2584",
						"market()": "infinite",
						"receiver()": "infinite",
						"seller()": "infinite"
					},
					"internal": {
						"distributeFunds()": "infinite"
					}
				},
				"methodIdentifiers": {
					"ContractState()": "9c1d9e3e",
					"buyer()": "7150d8ae",
					"confirmFulfillment()": "d2c9ea03",
					"confirmProductUsed()": "4fbc4f60",
					"contractPrice()": "97e9a0bf",
					"escrowStatus()": "18609960",
					"market()": "80f55605",
					"receiver()": "f7260d3e",
					"seller()": "08551a53"
				}
			},
			"storageLayout": {
				"storage": [
					{
						"astId": 89,
						"contract": "frontend/src/contracts/naegift_escrow.sol:naegift_escrow",
						"label": "ContractState",
						"offset": 0,
						"slot": "0",
						"type": "t_enum(ContractStateChoices)86"
					}
				],
				"types": {
					"t_enum(ContractStateChoices)86": {
						"encoding": "inplace",
						"label": "enum naegift_escrow.ContractStateChoices",
						"numberOfBytes": "1"
					}
				}
			},
			"userdoc": {
				"kind": "user",
				"methods": {},
				"version": 1
			}
		}
	}
}