{
	"frontend/src/contracts/MetaTransaction.sol": {
		"MetaTransaction": {
			"abi": [
				{
					"inputs": [],
					"stateMutability": "nonpayable",
					"type": "constructor"
				},
				{
					"anonymous": false,
					"inputs": [
						{
							"indexed": true,
							"internalType": "address",
							"name": "from",
							"type": "address"
						},
						{
							"indexed": false,
							"internalType": "string",
							"name": "_msg",
							"type": "string"
						}
					],
					"name": "Event01",
					"type": "event"
				},
				{
					"anonymous": false,
					"inputs": [
						{
							"indexed": true,
							"internalType": "bytes32",
							"name": "r",
							"type": "bytes32"
						},
						{
							"indexed": false,
							"internalType": "bytes32",
							"name": "s",
							"type": "bytes32"
						},
						{
							"indexed": false,
							"internalType": "uint8",
							"name": "v",
							"type": "uint8"
						}
					],
					"name": "Event02",
					"type": "event"
				},
				{
					"anonymous": false,
					"inputs": [
						{
							"indexed": true,
							"internalType": "address",
							"name": "account",
							"type": "address"
						}
					],
					"name": "Event03",
					"type": "event"
				},
				{
					"inputs": [],
					"name": "checkGas",
					"outputs": [
						{
							"internalType": "uint256",
							"name": "",
							"type": "uint256"
						}
					],
					"stateMutability": "view",
					"type": "function"
				},
				{
					"inputs": [],
					"name": "owner",
					"outputs": [
						{
							"internalType": "address",
							"name": "",
							"type": "address"
						}
					],
					"stateMutability": "view",
					"type": "function"
				},
				{
					"inputs": [
						{
							"internalType": "address[]",
							"name": "users",
							"type": "address[]"
						},
						{
							"internalType": "bytes[]",
							"name": "signatures",
							"type": "bytes[]"
						},
						{
							"internalType": "string[]",
							"name": "messages",
							"type": "string[]"
						}
					],
					"name": "processBatchTransactions",
					"outputs": [],
					"stateMutability": "payable",
					"type": "function"
				},
				{
					"inputs": [
						{
							"internalType": "address",
							"name": "user",
							"type": "address"
						},
						{
							"internalType": "string",
							"name": "_msg",
							"type": "string"
						},
						{
							"internalType": "bytes",
							"name": "signature",
							"type": "bytes"
						}
					],
					"name": "signTransaction",
					"outputs": [],
					"stateMutability": "nonpayable",
					"type": "function"
				},
				{
					"stateMutability": "payable",
					"type": "receive"
				}
			],
			"devdoc": {
				"kind": "dev",
				"methods": {},
				"version": 1
			},
			"evm": {
				"assembly": "    /* \"frontend/src/contracts/MetaTransaction.sol\":116:2183  contract MetaTransaction {... */\n  mstore(0x40, 0x80)\n    /* \"frontend/src/contracts/MetaTransaction.sol\":177:228  constructor() {... */\n  callvalue\n  dup1\n  iszero\n  tag_1\n  jumpi\n  0x00\n  dup1\n  revert\ntag_1:\n  pop\n    /* \"frontend/src/contracts/MetaTransaction.sol\":210:220  msg.sender */\n  caller\n    /* \"frontend/src/contracts/MetaTransaction.sol\":202:207  owner */\n  0x00\n  dup1\n    /* \"frontend/src/contracts/MetaTransaction.sol\":202:220  owner = msg.sender */\n  0x0100\n  exp\n  dup2\n  sload\n  dup2\n  0xffffffffffffffffffffffffffffffffffffffff\n  mul\n  not\n  and\n  swap1\n  dup4\n  0xffffffffffffffffffffffffffffffffffffffff\n  and\n  mul\n  or\n  swap1\n  sstore\n  pop\n    /* \"frontend/src/contracts/MetaTransaction.sol\":116:2183  contract MetaTransaction {... */\n  dataSize(sub_0)\n  dup1\n  dataOffset(sub_0)\n  0x00\n  codecopy\n  0x00\n  return\nstop\n\nsub_0: assembly {\n        /* \"frontend/src/contracts/MetaTransaction.sol\":116:2183  contract MetaTransaction {... */\n      mstore(0x40, 0x80)\n      jumpi(tag_1, lt(calldatasize, 0x04))\n      shr(0xe0, calldataload(0x00))\n      dup1\n      0x8da5cb5b\n      eq\n      tag_3\n      jumpi\n      dup1\n      0x95db67e4\n      eq\n      tag_4\n      jumpi\n      dup1\n      0x95e0e0c9\n      eq\n      tag_5\n      jumpi\n      dup1\n      0xeca7ed0a\n      eq\n      tag_6\n      jumpi\n      jump(tag_2)\n    tag_1:\n      jumpi(tag_2, calldatasize)\n      stop\n    tag_2:\n      0x00\n      dup1\n      revert\n        /* \"frontend/src/contracts/MetaTransaction.sol\":148:168  address public owner */\n    tag_3:\n      callvalue\n      dup1\n      iszero\n      tag_9\n      jumpi\n      0x00\n      dup1\n      revert\n    tag_9:\n      pop\n      tag_10\n      tag_11\n      jump\t// in\n    tag_10:\n      mload(0x40)\n      tag_12\n      swap2\n      swap1\n      tag_13\n      jump\t// in\n    tag_12:\n      mload(0x40)\n      dup1\n      swap2\n      sub\n      swap1\n      return\n        /* \"frontend/src/contracts/MetaTransaction.sol\":472:1001  function processBatchTransactions(address[] memory users, bytes[] memory signatures, string[] memory messages) public payable {... */\n    tag_4:\n      tag_14\n      0x04\n      dup1\n      calldatasize\n      sub\n      dup2\n      add\n      swap1\n      tag_15\n      swap2\n      swap1\n      tag_16\n      jump\t// in\n    tag_15:\n      tag_17\n      jump\t// in\n    tag_14:\n      stop\n        /* \"frontend/src/contracts/MetaTransaction.sol\":1009:1334  function signTransaction(... */\n    tag_5:\n      callvalue\n      dup1\n      iszero\n      tag_18\n      jumpi\n      0x00\n      dup1\n      revert\n    tag_18:\n      pop\n      tag_19\n      0x04\n      dup1\n      calldatasize\n      sub\n      dup2\n      add\n      swap1\n      tag_20\n      swap2\n      swap1\n      tag_21\n      jump\t// in\n    tag_20:\n      tag_22\n      jump\t// in\n    tag_19:\n      stop\n        /* \"frontend/src/contracts/MetaTransaction.sol\":342:427  function checkGas() public view returns (uint256) {... */\n    tag_6:\n      callvalue\n      dup1\n      iszero\n      tag_23\n      jumpi\n      0x00\n      dup1\n      revert\n    tag_23:\n      pop\n      tag_24\n      tag_25\n      jump\t// in\n    tag_24:\n      mload(0x40)\n      tag_26\n      swap2\n      swap1\n      tag_27\n      jump\t// in\n    tag_26:\n      mload(0x40)\n      dup1\n      swap2\n      sub\n      swap1\n      return\n        /* \"frontend/src/contracts/MetaTransaction.sol\":148:168  address public owner */\n    tag_11:\n      0x00\n      dup1\n      sload\n      swap1\n      0x0100\n      exp\n      swap1\n      div\n      0xffffffffffffffffffffffffffffffffffffffff\n      and\n      dup2\n      jump\t// out\n        /* \"frontend/src/contracts/MetaTransaction.sol\":472:1001  function processBatchTransactions(address[] memory users, bytes[] memory signatures, string[] memory messages) public payable {... */\n    tag_17:\n        /* \"frontend/src/contracts/MetaTransaction.sol\":633:638  owner */\n      0x00\n      dup1\n      sload\n      swap1\n      0x0100\n      exp\n      swap1\n      div\n      0xffffffffffffffffffffffffffffffffffffffff\n      and\n        /* \"frontend/src/contracts/MetaTransaction.sol\":619:638  msg.sender == owner */\n      0xffffffffffffffffffffffffffffffffffffffff\n      and\n        /* \"frontend/src/contracts/MetaTransaction.sol\":619:629  msg.sender */\n      caller\n        /* \"frontend/src/contracts/MetaTransaction.sol\":619:638  msg.sender == owner */\n      0xffffffffffffffffffffffffffffffffffffffff\n      and\n      eq\n        /* \"frontend/src/contracts/MetaTransaction.sol\":611:657  require(msg.sender == owner, \"Invalid caller\") */\n      tag_29\n      jumpi\n      mload(0x40)\n      0x08c379a000000000000000000000000000000000000000000000000000000000\n      dup2\n      mstore\n      0x04\n      add\n      tag_30\n      swap1\n      tag_31\n      jump\t// in\n    tag_30:\n      mload(0x40)\n      dup1\n      swap2\n      sub\n      swap1\n      revert\n    tag_29:\n        /* \"frontend/src/contracts/MetaTransaction.sol\":692:702  signatures */\n      dup2\n        /* \"frontend/src/contracts/MetaTransaction.sol\":692:709  signatures.length */\n      mload\n        /* \"frontend/src/contracts/MetaTransaction.sol\":676:681  users */\n      dup4\n        /* \"frontend/src/contracts/MetaTransaction.sol\":676:688  users.length */\n      mload\n        /* \"frontend/src/contracts/MetaTransaction.sol\":676:709  users.length == signatures.length */\n      eq\n        /* \"frontend/src/contracts/MetaTransaction.sol\":676:744  users.length == signatures.length && users.length == messages.length */\n      dup1\n      iszero\n      tag_32\n      jumpi\n      pop\n        /* \"frontend/src/contracts/MetaTransaction.sol\":729:737  messages */\n      dup1\n        /* \"frontend/src/contracts/MetaTransaction.sol\":729:744  messages.length */\n      mload\n        /* \"frontend/src/contracts/MetaTransaction.sol\":713:718  users */\n      dup4\n        /* \"frontend/src/contracts/MetaTransaction.sol\":713:725  users.length */\n      mload\n        /* \"frontend/src/contracts/MetaTransaction.sol\":713:744  users.length == messages.length */\n      eq\n        /* \"frontend/src/contracts/MetaTransaction.sol\":676:744  users.length == signatures.length && users.length == messages.length */\n    tag_32:\n        /* \"frontend/src/contracts/MetaTransaction.sol\":668:762  require(users.length == signatures.length && users.length == messages.length, \"Invalid input\") */\n      tag_33\n      jumpi\n      mload(0x40)\n      0x08c379a000000000000000000000000000000000000000000000000000000000\n      dup2\n      mstore\n      0x04\n      add\n      tag_34\n      swap1\n      tag_35\n      jump\t// in\n    tag_34:\n      mload(0x40)\n      dup1\n      swap2\n      sub\n      swap1\n      revert\n    tag_33:\n        /* \"frontend/src/contracts/MetaTransaction.sol\":797:799  50 */\n      0x32\n        /* \"frontend/src/contracts/MetaTransaction.sol\":781:786  users */\n      dup4\n        /* \"frontend/src/contracts/MetaTransaction.sol\":781:793  users.length */\n      mload\n        /* \"frontend/src/contracts/MetaTransaction.sol\":781:799  users.length <= 50 */\n      gt\n      iszero\n        /* \"frontend/src/contracts/MetaTransaction.sol\":773:824  require(users.length <= 50, \"Batch size too large\") */\n      tag_36\n      jumpi\n      mload(0x40)\n      0x08c379a000000000000000000000000000000000000000000000000000000000\n      dup2\n      mstore\n      0x04\n      add\n      tag_37\n      swap1\n      tag_38\n      jump\t// in\n    tag_37:\n      mload(0x40)\n      dup1\n      swap2\n      sub\n      swap1\n      revert\n    tag_36:\n        /* \"frontend/src/contracts/MetaTransaction.sol\":842:848  uint i */\n      0x00\n        /* \"frontend/src/contracts/MetaTransaction.sol\":837:994  for (uint i = 0; i < users.length; i++) {... */\n    tag_39:\n        /* \"frontend/src/contracts/MetaTransaction.sol\":858:863  users */\n      dup4\n        /* \"frontend/src/contracts/MetaTransaction.sol\":858:870  users.length */\n      mload\n        /* \"frontend/src/contracts/MetaTransaction.sol\":854:855  i */\n      dup2\n        /* \"frontend/src/contracts/MetaTransaction.sol\":854:870  i < users.length */\n      lt\n        /* \"frontend/src/contracts/MetaTransaction.sol\":837:994  for (uint i = 0; i < users.length; i++) {... */\n      iszero\n      tag_40\n      jumpi\n        /* \"frontend/src/contracts/MetaTransaction.sol\":892:945  signTransaction(users[i], messages[i], signatures[i]) */\n      tag_42\n        /* \"frontend/src/contracts/MetaTransaction.sol\":908:913  users */\n      dup5\n        /* \"frontend/src/contracts/MetaTransaction.sol\":914:915  i */\n      dup3\n        /* \"frontend/src/contracts/MetaTransaction.sol\":908:916  users[i] */\n      dup2\n      mload\n      dup2\n      lt\n      tag_43\n      jumpi\n      tag_44\n      tag_45\n      jump\t// in\n    tag_44:\n    tag_43:\n      0x20\n      mul\n      0x20\n      add\n      add\n      mload\n        /* \"frontend/src/contracts/MetaTransaction.sol\":918:926  messages */\n      dup4\n        /* \"frontend/src/contracts/MetaTransaction.sol\":927:928  i */\n      dup4\n        /* \"frontend/src/contracts/MetaTransaction.sol\":918:929  messages[i] */\n      dup2\n      mload\n      dup2\n      lt\n      tag_46\n      jumpi\n      tag_47\n      tag_45\n      jump\t// in\n    tag_47:\n    tag_46:\n      0x20\n      mul\n      0x20\n      add\n      add\n      mload\n        /* \"frontend/src/contracts/MetaTransaction.sol\":931:941  signatures */\n      dup6\n        /* \"frontend/src/contracts/MetaTransaction.sol\":942:943  i */\n      dup5\n        /* \"frontend/src/contracts/MetaTransaction.sol\":931:944  signatures[i] */\n      dup2\n      mload\n      dup2\n      lt\n      tag_48\n      jumpi\n      tag_49\n      tag_45\n      jump\t// in\n    tag_49:\n    tag_48:\n      0x20\n      mul\n      0x20\n      add\n      add\n      mload\n        /* \"frontend/src/contracts/MetaTransaction.sol\":892:907  signTransaction */\n      tag_22\n        /* \"frontend/src/contracts/MetaTransaction.sol\":892:945  signTransaction(users[i], messages[i], signatures[i]) */\n      jump\t// in\n    tag_42:\n        /* \"frontend/src/contracts/MetaTransaction.sol\":973:978  users */\n      dup4\n        /* \"frontend/src/contracts/MetaTransaction.sol\":979:980  i */\n      dup2\n        /* \"frontend/src/contracts/MetaTransaction.sol\":973:981  users[i] */\n      dup2\n      mload\n      dup2\n      lt\n      tag_50\n      jumpi\n      tag_51\n      tag_45\n      jump\t// in\n    tag_51:\n    tag_50:\n      0x20\n      mul\n      0x20\n      add\n      add\n      mload\n        /* \"frontend/src/contracts/MetaTransaction.sol\":965:982  Event03(users[i]) */\n      0xffffffffffffffffffffffffffffffffffffffff\n      and\n      0x78f048a4a5986309c511acbfc093d06c834685823625e9d42e6a75da34fbd0a4\n      mload(0x40)\n      mload(0x40)\n      dup1\n      swap2\n      sub\n      swap1\n      log2\n        /* \"frontend/src/contracts/MetaTransaction.sol\":872:875  i++ */\n      dup1\n      dup1\n      tag_52\n      swap1\n      tag_53\n      jump\t// in\n    tag_52:\n      swap2\n      pop\n      pop\n        /* \"frontend/src/contracts/MetaTransaction.sol\":837:994  for (uint i = 0; i < users.length; i++) {... */\n      jump(tag_39)\n    tag_40:\n      pop\n        /* \"frontend/src/contracts/MetaTransaction.sol\":472:1001  function processBatchTransactions(address[] memory users, bytes[] memory signatures, string[] memory messages) public payable {... */\n      pop\n      pop\n      pop\n      jump\t// out\n        /* \"frontend/src/contracts/MetaTransaction.sol\":1009:1334  function signTransaction(... */\n    tag_22:\n        /* \"frontend/src/contracts/MetaTransaction.sol\":1144:1159  bytes32 ethSign */\n      0x00\n        /* \"frontend/src/contracts/MetaTransaction.sol\":1162:1185  getEthSignMsgHash(_msg) */\n      tag_55\n        /* \"frontend/src/contracts/MetaTransaction.sol\":1180:1184  _msg */\n      dup4\n        /* \"frontend/src/contracts/MetaTransaction.sol\":1162:1179  getEthSignMsgHash */\n      tag_56\n        /* \"frontend/src/contracts/MetaTransaction.sol\":1162:1185  getEthSignMsgHash(_msg) */\n      jump\t// in\n    tag_55:\n        /* \"frontend/src/contracts/MetaTransaction.sol\":1144:1185  bytes32 ethSign = getEthSignMsgHash(_msg) */\n      swap1\n      pop\n        /* \"frontend/src/contracts/MetaTransaction.sol\":1197:1206  bytes32 r */\n      0x00\n        /* \"frontend/src/contracts/MetaTransaction.sol\":1208:1217  bytes32 s */\n      dup1\n        /* \"frontend/src/contracts/MetaTransaction.sol\":1219:1226  uint8 v */\n      0x00\n        /* \"frontend/src/contracts/MetaTransaction.sol\":1230:1250  splitSign(signature) */\n      tag_57\n        /* \"frontend/src/contracts/MetaTransaction.sol\":1240:1249  signature */\n      dup6\n        /* \"frontend/src/contracts/MetaTransaction.sol\":1230:1239  splitSign */\n      tag_58\n        /* \"frontend/src/contracts/MetaTransaction.sol\":1230:1250  splitSign(signature) */\n      jump\t// in\n    tag_57:\n        /* \"frontend/src/contracts/MetaTransaction.sol\":1196:1250  (bytes32 r, bytes32 s, uint8 v) = splitSign(signature) */\n      swap3\n      pop\n      swap3\n      pop\n      swap3\n      pop\n        /* \"frontend/src/contracts/MetaTransaction.sol\":1277:1304  ecrecover(ethSign, v, r, s) */\n      0x01\n        /* \"frontend/src/contracts/MetaTransaction.sol\":1287:1294  ethSign */\n      dup5\n        /* \"frontend/src/contracts/MetaTransaction.sol\":1296:1297  v */\n      dup3\n        /* \"frontend/src/contracts/MetaTransaction.sol\":1299:1300  r */\n      dup6\n        /* \"frontend/src/contracts/MetaTransaction.sol\":1302:1303  s */\n      dup6\n        /* \"frontend/src/contracts/MetaTransaction.sol\":1277:1304  ecrecover(ethSign, v, r, s) */\n      mload(0x40)\n      0x00\n      dup2\n      mstore\n      0x20\n      add\n      0x40\n      mstore\n      mload(0x40)\n      tag_59\n      swap5\n      swap4\n      swap3\n      swap2\n      swap1\n      tag_60\n      jump\t// in\n    tag_59:\n      0x20\n      mload(0x40)\n      0x20\n      dup2\n      sub\n      swap1\n      dup1\n      dup5\n      sub\n      swap1\n      dup6\n      gas\n      staticcall\n      iszero\n      dup1\n      iszero\n      tag_62\n      jumpi\n      returndatasize\n      0x00\n      dup1\n      returndatacopy\n      revert(0x00, returndatasize)\n    tag_62:\n      pop\n      pop\n      pop\n      mload(sub(mload(0x40), 0x20))\n        /* \"frontend/src/contracts/MetaTransaction.sol\":1269:1304  user == ecrecover(ethSign, v, r, s) */\n      0xffffffffffffffffffffffffffffffffffffffff\n      and\n        /* \"frontend/src/contracts/MetaTransaction.sol\":1269:1273  user */\n      dup8\n        /* \"frontend/src/contracts/MetaTransaction.sol\":1269:1304  user == ecrecover(ethSign, v, r, s) */\n      0xffffffffffffffffffffffffffffffffffffffff\n      and\n      eq\n        /* \"frontend/src/contracts/MetaTransaction.sol\":1261:1326  require(user == ecrecover(ethSign, v, r, s), \"Invalid signature\") */\n      tag_63\n      jumpi\n      mload(0x40)\n      0x08c379a000000000000000000000000000000000000000000000000000000000\n      dup2\n      mstore\n      0x04\n      add\n      tag_64\n      swap1\n      tag_65\n      jump\t// in\n    tag_64:\n      mload(0x40)\n      dup1\n      swap2\n      sub\n      swap1\n      revert\n    tag_63:\n        /* \"frontend/src/contracts/MetaTransaction.sol\":1133:1334  {... */\n      pop\n      pop\n      pop\n      pop\n        /* \"frontend/src/contracts/MetaTransaction.sol\":1009:1334  function signTransaction(... */\n      pop\n      pop\n      pop\n      jump\t// out\n        /* \"frontend/src/contracts/MetaTransaction.sol\":342:427  function checkGas() public view returns (uint256) {... */\n    tag_25:\n        /* \"frontend/src/contracts/MetaTransaction.sol\":383:390  uint256 */\n      0x00\n        /* \"frontend/src/contracts/MetaTransaction.sol\":410:419  gasleft() */\n      gas\n        /* \"frontend/src/contracts/MetaTransaction.sol\":403:419  return gasleft() */\n      swap1\n      pop\n        /* \"frontend/src/contracts/MetaTransaction.sol\":342:427  function checkGas() public view returns (uint256) {... */\n      swap1\n      jump\t// out\n        /* \"frontend/src/contracts/MetaTransaction.sol\":1342:1592  function getEthSignMsgHash(string memory _msg) internal pure returns (bytes32) {... */\n    tag_56:\n        /* \"frontend/src/contracts/MetaTransaction.sol\":1412:1419  bytes32 */\n      0x00\n        /* \"frontend/src/contracts/MetaTransaction.sol\":1432:1449  uint256 msgLength */\n      dup1\n        /* \"frontend/src/contracts/MetaTransaction.sol\":1458:1462  _msg */\n      dup3\n        /* \"frontend/src/contracts/MetaTransaction.sol\":1452:1470  bytes(_msg).length */\n      mload\n        /* \"frontend/src/contracts/MetaTransaction.sol\":1432:1470  uint256 msgLength = bytes(_msg).length */\n      swap1\n      pop\n        /* \"frontend/src/contracts/MetaTransaction.sol\":1549:1576  Strings.toString(msgLength) */\n      tag_68\n        /* \"frontend/src/contracts/MetaTransaction.sol\":1566:1575  msgLength */\n      dup2\n        /* \"frontend/src/contracts/MetaTransaction.sol\":1549:1565  Strings.toString */\n      tag_69\n        /* \"frontend/src/contracts/MetaTransaction.sol\":1549:1576  Strings.toString(msgLength) */\n      jump\t// in\n    tag_68:\n        /* \"frontend/src/contracts/MetaTransaction.sol\":1578:1582  _msg */\n      dup4\n        /* \"frontend/src/contracts/MetaTransaction.sol\":1498:1583  abi.encodePacked(\"\\x19Ethereum Signed Message:\\n\", Strings.toString(msgLength), _msg) */\n      add(0x20, mload(0x40))\n      tag_70\n      swap3\n      swap2\n      swap1\n      tag_71\n      jump\t// in\n    tag_70:\n      mload(0x40)\n      0x20\n      dup2\n      dup4\n      sub\n      sub\n      dup2\n      mstore\n      swap1\n      0x40\n      mstore\n        /* \"frontend/src/contracts/MetaTransaction.sol\":1488:1584  keccak256(abi.encodePacked(\"\\x19Ethereum Signed Message:\\n\", Strings.toString(msgLength), _msg)) */\n      dup1\n      mload\n      swap1\n      0x20\n      add\n      keccak256\n        /* \"frontend/src/contracts/MetaTransaction.sol\":1481:1584  return keccak256(abi.encodePacked(\"\\x19Ethereum Signed Message:\\n\", Strings.toString(msgLength), _msg)) */\n      swap2\n      pop\n      pop\n        /* \"frontend/src/contracts/MetaTransaction.sol\":1342:1592  function getEthSignMsgHash(string memory _msg) internal pure returns (bytes32) {... */\n      swap2\n      swap1\n      pop\n      jump\t// out\n        /* \"frontend/src/contracts/MetaTransaction.sol\":1600:2019  function splitSign(bytes memory sign) internal pure returns (bytes32 r, bytes32 s, uint8 v) {... */\n    tag_58:\n        /* \"frontend/src/contracts/MetaTransaction.sol\":1661:1670  bytes32 r */\n      0x00\n        /* \"frontend/src/contracts/MetaTransaction.sol\":1672:1681  bytes32 s */\n      dup1\n        /* \"frontend/src/contracts/MetaTransaction.sol\":1683:1690  uint8 v */\n      0x00\n        /* \"frontend/src/contracts/MetaTransaction.sol\":1726:1728  65 */\n      0x41\n        /* \"frontend/src/contracts/MetaTransaction.sol\":1711:1715  sign */\n      dup5\n        /* \"frontend/src/contracts/MetaTransaction.sol\":1711:1722  sign.length */\n      mload\n        /* \"frontend/src/contracts/MetaTransaction.sol\":1711:1728  sign.length == 65 */\n      eq\n        /* \"frontend/src/contracts/MetaTransaction.sol\":1703:1757  require(sign.length == 65, \"Invalid signature length\") */\n      tag_73\n      jumpi\n      mload(0x40)\n      0x08c379a000000000000000000000000000000000000000000000000000000000\n      dup2\n      mstore\n      0x04\n      add\n      tag_74\n      swap1\n      tag_75\n      jump\t// in\n    tag_74:\n      mload(0x40)\n      dup1\n      swap2\n      sub\n      swap1\n      revert\n    tag_73:\n        /* \"frontend/src/contracts/MetaTransaction.sol\":1813:1815  32 */\n      0x20\n        /* \"frontend/src/contracts/MetaTransaction.sol\":1807:1811  sign */\n      dup5\n        /* \"frontend/src/contracts/MetaTransaction.sol\":1803:1816  add(sign, 32) */\n      add\n        /* \"frontend/src/contracts/MetaTransaction.sol\":1797:1817  mload(add(sign, 32)) */\n      mload\n        /* \"frontend/src/contracts/MetaTransaction.sol\":1792:1817  r := mload(add(sign, 32)) */\n      swap3\n      pop\n        /* \"frontend/src/contracts/MetaTransaction.sol\":1852:1854  64 */\n      0x40\n        /* \"frontend/src/contracts/MetaTransaction.sol\":1846:1850  sign */\n      dup5\n        /* \"frontend/src/contracts/MetaTransaction.sol\":1842:1855  add(sign, 64) */\n      add\n        /* \"frontend/src/contracts/MetaTransaction.sol\":1836:1856  mload(add(sign, 64)) */\n      mload\n        /* \"frontend/src/contracts/MetaTransaction.sol\":1831:1856  s := mload(add(sign, 64)) */\n      swap2\n      pop\n        /* \"frontend/src/contracts/MetaTransaction.sol\":1899:1901  96 */\n      0x60\n        /* \"frontend/src/contracts/MetaTransaction.sol\":1893:1897  sign */\n      dup5\n        /* \"frontend/src/contracts/MetaTransaction.sol\":1889:1902  add(sign, 96) */\n      add\n        /* \"frontend/src/contracts/MetaTransaction.sol\":1883:1903  mload(add(sign, 96)) */\n      mload\n        /* \"frontend/src/contracts/MetaTransaction.sol\":1880:1881  0 */\n      0x00\n        /* \"frontend/src/contracts/MetaTransaction.sol\":1875:1904  byte(0, mload(add(sign, 96))) */\n      byte\n        /* \"frontend/src/contracts/MetaTransaction.sol\":1870:1904  v := byte(0, mload(add(sign, 96))) */\n      swap1\n      pop\n        /* \"frontend/src/contracts/MetaTransaction.sol\":1933:1935  27 */\n      0x1b\n        /* \"frontend/src/contracts/MetaTransaction.sol\":1929:1930  v */\n      dup2\n        /* \"frontend/src/contracts/MetaTransaction.sol\":1929:1935  v < 27 */\n      0xff\n      and\n      lt\n        /* \"frontend/src/contracts/MetaTransaction.sol\":1925:1944  if (v < 27) v += 27 */\n      iszero\n      tag_76\n      jumpi\n        /* \"frontend/src/contracts/MetaTransaction.sol\":1942:1944  27 */\n      0x1b\n        /* \"frontend/src/contracts/MetaTransaction.sol\":1937:1944  v += 27 */\n      dup2\n      tag_77\n      swap2\n      swap1\n      tag_78\n      jump\t// in\n    tag_77:\n      swap1\n      pop\n        /* \"frontend/src/contracts/MetaTransaction.sol\":1925:1944  if (v < 27) v += 27 */\n    tag_76:\n        /* \"frontend/src/contracts/MetaTransaction.sol\":1968:1970  27 */\n      0x1b\n        /* \"frontend/src/contracts/MetaTransaction.sol\":1963:1964  v */\n      dup2\n        /* \"frontend/src/contracts/MetaTransaction.sol\":1963:1970  v == 27 */\n      0xff\n      and\n      eq\n        /* \"frontend/src/contracts/MetaTransaction.sol\":1963:1981  v == 27 || v == 28 */\n      dup1\n      tag_79\n      jumpi\n      pop\n        /* \"frontend/src/contracts/MetaTransaction.sol\":1979:1981  28 */\n      0x1c\n        /* \"frontend/src/contracts/MetaTransaction.sol\":1974:1975  v */\n      dup2\n        /* \"frontend/src/contracts/MetaTransaction.sol\":1974:1981  v == 28 */\n      0xff\n      and\n      eq\n        /* \"frontend/src/contracts/MetaTransaction.sol\":1963:1981  v == 27 || v == 28 */\n    tag_79:\n        /* \"frontend/src/contracts/MetaTransaction.sol\":1955:2011  require(v == 27 || v == 28, \"Invalid signature version\") */\n      tag_80\n      jumpi\n      mload(0x40)\n      0x08c379a000000000000000000000000000000000000000000000000000000000\n      dup2\n      mstore\n      0x04\n      add\n      tag_81\n      swap1\n      tag_82\n      jump\t// in\n    tag_81:\n      mload(0x40)\n      dup1\n      swap2\n      sub\n      swap1\n      revert\n    tag_80:\n        /* \"frontend/src/contracts/MetaTransaction.sol\":1600:2019  function splitSign(bytes memory sign) internal pure returns (bytes32 r, bytes32 s, uint8 v) {... */\n      swap2\n      swap4\n      swap1\n      swap3\n      pop\n      jump\t// out\n        /* \"@openzeppelin/contracts/utils/Strings.sol\":637:1335  function toString(uint256 value) internal pure returns (string memory) {... */\n    tag_69:\n        /* \"@openzeppelin/contracts/utils/Strings.sol\":693:706  string memory */\n      0x60\n        /* \"@openzeppelin/contracts/utils/Strings.sol\":742:756  uint256 length */\n      0x00\n        /* \"@openzeppelin/contracts/utils/Strings.sol\":779:780  1 */\n      0x01\n        /* \"@openzeppelin/contracts/utils/Strings.sol\":759:776  Math.log10(value) */\n      tag_84\n        /* \"@openzeppelin/contracts/utils/Strings.sol\":770:775  value */\n      dup5\n        /* \"@openzeppelin/contracts/utils/Strings.sol\":759:769  Math.log10 */\n      tag_85\n        /* \"@openzeppelin/contracts/utils/Strings.sol\":759:776  Math.log10(value) */\n      jump\t// in\n    tag_84:\n        /* \"@openzeppelin/contracts/utils/Strings.sol\":759:780  Math.log10(value) + 1 */\n      add\n        /* \"@openzeppelin/contracts/utils/Strings.sol\":742:780  uint256 length = Math.log10(value) + 1 */\n      swap1\n      pop\n        /* \"@openzeppelin/contracts/utils/Strings.sol\":794:814  string memory buffer */\n      0x00\n        /* \"@openzeppelin/contracts/utils/Strings.sol\":828:834  length */\n      dup2\n        /* \"@openzeppelin/contracts/utils/Strings.sol\":817:835  new string(length) */\n      0xffffffffffffffff\n      dup2\n      gt\n      iszero\n      tag_86\n      jumpi\n      tag_87\n      tag_88\n      jump\t// in\n    tag_87:\n    tag_86:\n      mload(0x40)\n      swap1\n      dup1\n      dup3\n      mstore\n      dup1\n      0x1f\n      add\n      not(0x1f)\n      and\n      0x20\n      add\n      dup3\n      add\n      0x40\n      mstore\n      dup1\n      iszero\n      tag_89\n      jumpi\n      dup2\n      0x20\n      add\n      0x01\n      dup3\n      mul\n      dup1\n      calldatasize\n      dup4\n      calldatacopy\n      dup1\n      dup3\n      add\n      swap2\n      pop\n      pop\n      swap1\n      pop\n    tag_89:\n      pop\n        /* \"@openzeppelin/contracts/utils/Strings.sol\":794:835  string memory buffer = new string(length) */\n      swap1\n      pop\n        /* \"@openzeppelin/contracts/utils/Strings.sol\":849:860  uint256 ptr */\n      0x00\n        /* \"@openzeppelin/contracts/utils/Strings.sol\":975:981  length */\n      dup3\n        /* \"@openzeppelin/contracts/utils/Strings.sol\":971:973  32 */\n      0x20\n        /* \"@openzeppelin/contracts/utils/Strings.sol\":967:982  add(32, length) */\n      add\n        /* \"@openzeppelin/contracts/utils/Strings.sol\":959:965  buffer */\n      dup3\n        /* \"@openzeppelin/contracts/utils/Strings.sol\":955:983  add(buffer, add(32, length)) */\n      add\n        /* \"@openzeppelin/contracts/utils/Strings.sol\":948:983  ptr := add(buffer, add(32, length)) */\n      swap1\n      pop\n        /* \"@openzeppelin/contracts/utils/Strings.sol\":1010:1292  while (true) {... */\n    tag_90:\n        /* \"@openzeppelin/contracts/utils/Strings.sol\":1017:1021  true */\n      0x01\n        /* \"@openzeppelin/contracts/utils/Strings.sol\":1010:1292  while (true) {... */\n      iszero\n      tag_91\n      jumpi\n        /* \"@openzeppelin/contracts/utils/Strings.sol\":1041:1046  ptr-- */\n      dup1\n      dup1\n      0x01\n      swap1\n      sub\n      swap2\n      pop\n      pop\n        /* \"@openzeppelin/contracts/utils/Strings.sol\":1180:1190  HEX_DIGITS */\n      0x3031323334353637383961626364656600000000000000000000000000000000\n        /* \"@openzeppelin/contracts/utils/Strings.sol\":1175:1177  10 */\n      0x0a\n        /* \"@openzeppelin/contracts/utils/Strings.sol\":1168:1173  value */\n      dup7\n        /* \"@openzeppelin/contracts/utils/Strings.sol\":1164:1178  mod(value, 10) */\n      mod\n        /* \"@openzeppelin/contracts/utils/Strings.sol\":1159:1191  byte(mod(value, 10), HEX_DIGITS) */\n      byte\n        /* \"@openzeppelin/contracts/utils/Strings.sol\":1154:1157  ptr */\n      dup2\n        /* \"@openzeppelin/contracts/utils/Strings.sol\":1146:1192  mstore8(ptr, byte(mod(value, 10), HEX_DIGITS)) */\n      mstore8\n        /* \"@openzeppelin/contracts/utils/Strings.sol\":1236:1238  10 */\n      0x0a\n        /* \"@openzeppelin/contracts/utils/Strings.sol\":1227:1238  value /= 10 */\n      dup6\n      dup2\n      tag_92\n      jumpi\n      tag_93\n      tag_94\n      jump\t// in\n    tag_93:\n    tag_92:\n      div\n      swap5\n      pop\n        /* \"@openzeppelin/contracts/utils/Strings.sol\":1269:1270  0 */\n      0x00\n        /* \"@openzeppelin/contracts/utils/Strings.sol\":1260:1265  value */\n      dup6\n        /* \"@openzeppelin/contracts/utils/Strings.sol\":1260:1270  value == 0 */\n      sub\n        /* \"@openzeppelin/contracts/utils/Strings.sol\":1010:1292  while (true) {... */\n      tag_90\n        /* \"@openzeppelin/contracts/utils/Strings.sol\":1256:1277  if (value == 0) break */\n      jumpi\n        /* \"@openzeppelin/contracts/utils/Strings.sol\":1010:1292  while (true) {... */\n    tag_91:\n        /* \"@openzeppelin/contracts/utils/Strings.sol\":1312:1318  buffer */\n      dup2\n        /* \"@openzeppelin/contracts/utils/Strings.sol\":1305:1318  return buffer */\n      swap4\n      pop\n      pop\n      pop\n      pop\n        /* \"@openzeppelin/contracts/utils/Strings.sol\":637:1335  function toString(uint256 value) internal pure returns (string memory) {... */\n      swap2\n      swap1\n      pop\n      jump\t// out\n        /* \"@openzeppelin/contracts/utils/math/Math.sol\":12214:13130  function log10(uint256 value) internal pure returns (uint256) {... */\n    tag_85:\n        /* \"@openzeppelin/contracts/utils/math/Math.sol\":12267:12274  uint256 */\n      0x00\n        /* \"@openzeppelin/contracts/utils/math/Math.sol\":12286:12300  uint256 result */\n      dup1\n        /* \"@openzeppelin/contracts/utils/math/Math.sol\":12303:12304  0 */\n      0x00\n        /* \"@openzeppelin/contracts/utils/math/Math.sol\":12286:12304  uint256 result = 0 */\n      swap1\n      pop\n        /* \"@openzeppelin/contracts/utils/math/Math.sol\":12351:12359  10 ** 64 */\n      0x184f03e93ff9f4daa797ed6e38ed64bf6a1f010000000000000000\n        /* \"@openzeppelin/contracts/utils/math/Math.sol\":12342:12347  value */\n      dup4\n        /* \"@openzeppelin/contracts/utils/math/Math.sol\":12342:12359  value >= 10 ** 64 */\n      lt\n        /* \"@openzeppelin/contracts/utils/math/Math.sol\":12338:12441  if (value >= 10 ** 64) {... */\n      tag_97\n      jumpi\n        /* \"@openzeppelin/contracts/utils/math/Math.sol\":12388:12396  10 ** 64 */\n      0x184f03e93ff9f4daa797ed6e38ed64bf6a1f010000000000000000\n        /* \"@openzeppelin/contracts/utils/math/Math.sol\":12379:12396  value /= 10 ** 64 */\n      dup4\n      dup2\n      tag_98\n      jumpi\n      tag_99\n      tag_94\n      jump\t// in\n    tag_99:\n    tag_98:\n      div\n      swap3\n      pop\n        /* \"@openzeppelin/contracts/utils/math/Math.sol\":12424:12426  64 */\n      0x40\n        /* \"@openzeppelin/contracts/utils/math/Math.sol\":12414:12426  result += 64 */\n      dup2\n      add\n      swap1\n      pop\n        /* \"@openzeppelin/contracts/utils/math/Math.sol\":12338:12441  if (value >= 10 ** 64) {... */\n    tag_97:\n        /* \"@openzeppelin/contracts/utils/math/Math.sol\":12467:12475  10 ** 32 */\n      0x04ee2d6d415b85acef8100000000\n        /* \"@openzeppelin/contracts/utils/math/Math.sol\":12458:12463  value */\n      dup4\n        /* \"@openzeppelin/contracts/utils/math/Math.sol\":12458:12475  value >= 10 ** 32 */\n      lt\n        /* \"@openzeppelin/contracts/utils/math/Math.sol\":12454:12557  if (value >= 10 ** 32) {... */\n      tag_100\n      jumpi\n        /* \"@openzeppelin/contracts/utils/math/Math.sol\":12504:12512  10 ** 32 */\n      0x04ee2d6d415b85acef8100000000\n        /* \"@openzeppelin/contracts/utils/math/Math.sol\":12495:12512  value /= 10 ** 32 */\n      dup4\n      dup2\n      tag_101\n      jumpi\n      tag_102\n      tag_94\n      jump\t// in\n    tag_102:\n    tag_101:\n      div\n      swap3\n      pop\n        /* \"@openzeppelin/contracts/utils/math/Math.sol\":12540:12542  32 */\n      0x20\n        /* \"@openzeppelin/contracts/utils/math/Math.sol\":12530:12542  result += 32 */\n      dup2\n      add\n      swap1\n      pop\n        /* \"@openzeppelin/contracts/utils/math/Math.sol\":12454:12557  if (value >= 10 ** 32) {... */\n    tag_100:\n        /* \"@openzeppelin/contracts/utils/math/Math.sol\":12583:12591  10 ** 16 */\n      0x2386f26fc10000\n        /* \"@openzeppelin/contracts/utils/math/Math.sol\":12574:12579  value */\n      dup4\n        /* \"@openzeppelin/contracts/utils/math/Math.sol\":12574:12591  value >= 10 ** 16 */\n      lt\n        /* \"@openzeppelin/contracts/utils/math/Math.sol\":12570:12673  if (value >= 10 ** 16) {... */\n      tag_103\n      jumpi\n        /* \"@openzeppelin/contracts/utils/math/Math.sol\":12620:12628  10 ** 16 */\n      0x2386f26fc10000\n        /* \"@openzeppelin/contracts/utils/math/Math.sol\":12611:12628  value /= 10 ** 16 */\n      dup4\n      dup2\n      tag_104\n      jumpi\n      tag_105\n      tag_94\n      jump\t// in\n    tag_105:\n    tag_104:\n      div\n      swap3\n      pop\n        /* \"@openzeppelin/contracts/utils/math/Math.sol\":12656:12658  16 */\n      0x10\n        /* \"@openzeppelin/contracts/utils/math/Math.sol\":12646:12658  result += 16 */\n      dup2\n      add\n      swap1\n      pop\n        /* \"@openzeppelin/contracts/utils/math/Math.sol\":12570:12673  if (value >= 10 ** 16) {... */\n    tag_103:\n        /* \"@openzeppelin/contracts/utils/math/Math.sol\":12699:12706  10 ** 8 */\n      0x05f5e100\n        /* \"@openzeppelin/contracts/utils/math/Math.sol\":12690:12695  value */\n      dup4\n        /* \"@openzeppelin/contracts/utils/math/Math.sol\":12690:12706  value >= 10 ** 8 */\n      lt\n        /* \"@openzeppelin/contracts/utils/math/Math.sol\":12686:12786  if (value >= 10 ** 8) {... */\n      tag_106\n      jumpi\n        /* \"@openzeppelin/contracts/utils/math/Math.sol\":12735:12742  10 ** 8 */\n      0x05f5e100\n        /* \"@openzeppelin/contracts/utils/math/Math.sol\":12726:12742  value /= 10 ** 8 */\n      dup4\n      dup2\n      tag_107\n      jumpi\n      tag_108\n      tag_94\n      jump\t// in\n    tag_108:\n    tag_107:\n      div\n      swap3\n      pop\n        /* \"@openzeppelin/contracts/utils/math/Math.sol\":12770:12771  8 */\n      0x08\n        /* \"@openzeppelin/contracts/utils/math/Math.sol\":12760:12771  result += 8 */\n      dup2\n      add\n      swap1\n      pop\n        /* \"@openzeppelin/contracts/utils/math/Math.sol\":12686:12786  if (value >= 10 ** 8) {... */\n    tag_106:\n        /* \"@openzeppelin/contracts/utils/math/Math.sol\":12812:12819  10 ** 4 */\n      0x2710\n        /* \"@openzeppelin/contracts/utils/math/Math.sol\":12803:12808  value */\n      dup4\n        /* \"@openzeppelin/contracts/utils/math/Math.sol\":12803:12819  value >= 10 ** 4 */\n      lt\n        /* \"@openzeppelin/contracts/utils/math/Math.sol\":12799:12899  if (value >= 10 ** 4) {... */\n      tag_109\n      jumpi\n        /* \"@openzeppelin/contracts/utils/math/Math.sol\":12848:12855  10 ** 4 */\n      0x2710\n        /* \"@openzeppelin/contracts/utils/math/Math.sol\":12839:12855  value /= 10 ** 4 */\n      dup4\n      dup2\n      tag_110\n      jumpi\n      tag_111\n      tag_94\n      jump\t// in\n    tag_111:\n    tag_110:\n      div\n      swap3\n      pop\n        /* \"@openzeppelin/contracts/utils/math/Math.sol\":12883:12884  4 */\n      0x04\n        /* \"@openzeppelin/contracts/utils/math/Math.sol\":12873:12884  result += 4 */\n      dup2\n      add\n      swap1\n      pop\n        /* \"@openzeppelin/contracts/utils/math/Math.sol\":12799:12899  if (value >= 10 ** 4) {... */\n    tag_109:\n        /* \"@openzeppelin/contracts/utils/math/Math.sol\":12925:12932  10 ** 2 */\n      0x64\n        /* \"@openzeppelin/contracts/utils/math/Math.sol\":12916:12921  value */\n      dup4\n        /* \"@openzeppelin/contracts/utils/math/Math.sol\":12916:12932  value >= 10 ** 2 */\n      lt\n        /* \"@openzeppelin/contracts/utils/math/Math.sol\":12912:13012  if (value >= 10 ** 2) {... */\n      tag_112\n      jumpi\n        /* \"@openzeppelin/contracts/utils/math/Math.sol\":12961:12968  10 ** 2 */\n      0x64\n        /* \"@openzeppelin/contracts/utils/math/Math.sol\":12952:12968  value /= 10 ** 2 */\n      dup4\n      dup2\n      tag_113\n      jumpi\n      tag_114\n      tag_94\n      jump\t// in\n    tag_114:\n    tag_113:\n      div\n      swap3\n      pop\n        /* \"@openzeppelin/contracts/utils/math/Math.sol\":12996:12997  2 */\n      0x02\n        /* \"@openzeppelin/contracts/utils/math/Math.sol\":12986:12997  result += 2 */\n      dup2\n      add\n      swap1\n      pop\n        /* \"@openzeppelin/contracts/utils/math/Math.sol\":12912:13012  if (value >= 10 ** 2) {... */\n    tag_112:\n        /* \"@openzeppelin/contracts/utils/math/Math.sol\":13038:13045  10 ** 1 */\n      0x0a\n        /* \"@openzeppelin/contracts/utils/math/Math.sol\":13029:13034  value */\n      dup4\n        /* \"@openzeppelin/contracts/utils/math/Math.sol\":13029:13045  value >= 10 ** 1 */\n      lt\n        /* \"@openzeppelin/contracts/utils/math/Math.sol\":13025:13091  if (value >= 10 ** 1) {... */\n      tag_115\n      jumpi\n        /* \"@openzeppelin/contracts/utils/math/Math.sol\":13075:13076  1 */\n      0x01\n        /* \"@openzeppelin/contracts/utils/math/Math.sol\":13065:13076  result += 1 */\n      dup2\n      add\n      swap1\n      pop\n        /* \"@openzeppelin/contracts/utils/math/Math.sol\":13025:13091  if (value >= 10 ** 1) {... */\n    tag_115:\n        /* \"@openzeppelin/contracts/utils/math/Math.sol\":13117:13123  result */\n      dup1\n        /* \"@openzeppelin/contracts/utils/math/Math.sol\":13110:13123  return result */\n      swap2\n      pop\n      pop\n        /* \"@openzeppelin/contracts/utils/math/Math.sol\":12214:13130  function log10(uint256 value) internal pure returns (uint256) {... */\n      swap2\n      swap1\n      pop\n      jump\t// out\n        /* \"#utility.yul\":7:133   */\n    tag_116:\n        /* \"#utility.yul\":44:51   */\n      0x00\n        /* \"#utility.yul\":84:126   */\n      0xffffffffffffffffffffffffffffffffffffffff\n        /* \"#utility.yul\":77:82   */\n      dup3\n        /* \"#utility.yul\":73:127   */\n      and\n        /* \"#utility.yul\":62:127   */\n      swap1\n      pop\n        /* \"#utility.yul\":7:133   */\n      swap2\n      swap1\n      pop\n      jump\t// out\n        /* \"#utility.yul\":139:235   */\n    tag_117:\n        /* \"#utility.yul\":176:183   */\n      0x00\n        /* \"#utility.yul\":205:229   */\n      tag_175\n        /* \"#utility.yul\":223:228   */\n      dup3\n        /* \"#utility.yul\":205:229   */\n      tag_116\n      jump\t// in\n    tag_175:\n        /* \"#utility.yul\":194:229   */\n      swap1\n      pop\n        /* \"#utility.yul\":139:235   */\n      swap2\n      swap1\n      pop\n      jump\t// out\n        /* \"#utility.yul\":241:359   */\n    tag_118:\n        /* \"#utility.yul\":328:352   */\n      tag_177\n        /* \"#utility.yul\":346:351   */\n      dup2\n        /* \"#utility.yul\":328:352   */\n      tag_117\n      jump\t// in\n    tag_177:\n        /* \"#utility.yul\":323:326   */\n      dup3\n        /* \"#utility.yul\":316:353   */\n      mstore\n        /* \"#utility.yul\":241:359   */\n      pop\n      pop\n      jump\t// out\n        /* \"#utility.yul\":365:587   */\n    tag_13:\n        /* \"#utility.yul\":458:462   */\n      0x00\n        /* \"#utility.yul\":496:498   */\n      0x20\n        /* \"#utility.yul\":485:494   */\n      dup3\n        /* \"#utility.yul\":481:499   */\n      add\n        /* \"#utility.yul\":473:499   */\n      swap1\n      pop\n        /* \"#utility.yul\":509:580   */\n      tag_179\n        /* \"#utility.yul\":577:578   */\n      0x00\n        /* \"#utility.yul\":566:575   */\n      dup4\n        /* \"#utility.yul\":562:579   */\n      add\n        /* \"#utility.yul\":553:559   */\n      dup5\n        /* \"#utility.yul\":509:580   */\n      tag_118\n      jump\t// in\n    tag_179:\n        /* \"#utility.yul\":365:587   */\n      swap3\n      swap2\n      pop\n      pop\n      jump\t// out\n        /* \"#utility.yul\":593:668   */\n    tag_119:\n        /* \"#utility.yul\":626:632   */\n      0x00\n        /* \"#utility.yul\":659:661   */\n      0x40\n        /* \"#utility.yul\":653:662   */\n      mload\n        /* \"#utility.yul\":643:662   */\n      swap1\n      pop\n        /* \"#utility.yul\":593:668   */\n      swap1\n      jump\t// out\n        /* \"#utility.yul\":674:791   */\n    tag_120:\n        /* \"#utility.yul\":783:784   */\n      0x00\n        /* \"#utility.yul\":780:781   */\n      dup1\n        /* \"#utility.yul\":773:785   */\n      revert\n        /* \"#utility.yul\":797:914   */\n    tag_121:\n        /* \"#utility.yul\":906:907   */\n      0x00\n        /* \"#utility.yul\":903:904   */\n      dup1\n        /* \"#utility.yul\":896:908   */\n      revert\n        /* \"#utility.yul\":920:1037   */\n    tag_122:\n        /* \"#utility.yul\":1029:1030   */\n      0x00\n        /* \"#utility.yul\":1026:1027   */\n      dup1\n        /* \"#utility.yul\":1019:1031   */\n      revert\n        /* \"#utility.yul\":1043:1145   */\n    tag_123:\n        /* \"#utility.yul\":1084:1090   */\n      0x00\n        /* \"#utility.yul\":1135:1137   */\n      0x1f\n        /* \"#utility.yul\":1131:1138   */\n      not\n        /* \"#utility.yul\":1126:1128   */\n      0x1f\n        /* \"#utility.yul\":1119:1124   */\n      dup4\n        /* \"#utility.yul\":1115:1129   */\n      add\n        /* \"#utility.yul\":1111:1139   */\n      and\n        /* \"#utility.yul\":1101:1139   */\n      swap1\n      pop\n        /* \"#utility.yul\":1043:1145   */\n      swap2\n      swap1\n      pop\n      jump\t// out\n        /* \"#utility.yul\":1151:1331   */\n    tag_88:\n        /* \"#utility.yul\":1199:1276   */\n      0x4e487b7100000000000000000000000000000000000000000000000000000000\n        /* \"#utility.yul\":1196:1197   */\n      0x00\n        /* \"#utility.yul\":1189:1277   */\n      mstore\n        /* \"#utility.yul\":1296:1300   */\n      0x41\n        /* \"#utility.yul\":1293:1294   */\n      0x04\n        /* \"#utility.yul\":1286:1301   */\n      mstore\n        /* \"#utility.yul\":1320:1324   */\n      0x24\n        /* \"#utility.yul\":1317:1318   */\n      0x00\n        /* \"#utility.yul\":1310:1325   */\n      revert\n        /* \"#utility.yul\":1337:1618   */\n    tag_124:\n        /* \"#utility.yul\":1420:1447   */\n      tag_187\n        /* \"#utility.yul\":1442:1446   */\n      dup3\n        /* \"#utility.yul\":1420:1447   */\n      tag_123\n      jump\t// in\n    tag_187:\n        /* \"#utility.yul\":1412:1418   */\n      dup2\n        /* \"#utility.yul\":1408:1448   */\n      add\n        /* \"#utility.yul\":1550:1556   */\n      dup2\n        /* \"#utility.yul\":1538:1548   */\n      dup2\n        /* \"#utility.yul\":1535:1557   */\n      lt\n        /* \"#utility.yul\":1514:1532   */\n      0xffffffffffffffff\n        /* \"#utility.yul\":1502:1512   */\n      dup3\n        /* \"#utility.yul\":1499:1533   */\n      gt\n        /* \"#utility.yul\":1496:1558   */\n      or\n        /* \"#utility.yul\":1493:1581   */\n      iszero\n      tag_188\n      jumpi\n        /* \"#utility.yul\":1561:1579   */\n      tag_189\n      tag_88\n      jump\t// in\n    tag_189:\n        /* \"#utility.yul\":1493:1581   */\n    tag_188:\n        /* \"#utility.yul\":1601:1611   */\n      dup1\n        /* \"#utility.yul\":1597:1599   */\n      0x40\n        /* \"#utility.yul\":1590:1612   */\n      mstore\n        /* \"#utility.yul\":1380:1618   */\n      pop\n        /* \"#utility.yul\":1337:1618   */\n      pop\n      pop\n      jump\t// out\n        /* \"#utility.yul\":1624:1753   */\n    tag_125:\n        /* \"#utility.yul\":1658:1664   */\n      0x00\n        /* \"#utility.yul\":1685:1705   */\n      tag_191\n      tag_119\n      jump\t// in\n    tag_191:\n        /* \"#utility.yul\":1675:1705   */\n      swap1\n      pop\n        /* \"#utility.yul\":1714:1747   */\n      tag_192\n        /* \"#utility.yul\":1742:1746   */\n      dup3\n        /* \"#utility.yul\":1734:1740   */\n      dup3\n        /* \"#utility.yul\":1714:1747   */\n      tag_124\n      jump\t// in\n    tag_192:\n        /* \"#utility.yul\":1624:1753   */\n      swap2\n      swap1\n      pop\n      jump\t// out\n        /* \"#utility.yul\":1759:2070   */\n    tag_126:\n        /* \"#utility.yul\":1836:1840   */\n      0x00\n        /* \"#utility.yul\":1926:1944   */\n      0xffffffffffffffff\n        /* \"#utility.yul\":1918:1924   */\n      dup3\n        /* \"#utility.yul\":1915:1945   */\n      gt\n        /* \"#utility.yul\":1912:1968   */\n      iszero\n      tag_194\n      jumpi\n        /* \"#utility.yul\":1948:1966   */\n      tag_195\n      tag_88\n      jump\t// in\n    tag_195:\n        /* \"#utility.yul\":1912:1968   */\n    tag_194:\n        /* \"#utility.yul\":1998:2002   */\n      0x20\n        /* \"#utility.yul\":1990:1996   */\n      dup3\n        /* \"#utility.yul\":1986:2003   */\n      mul\n        /* \"#utility.yul\":1978:2003   */\n      swap1\n      pop\n        /* \"#utility.yul\":2058:2062   */\n      0x20\n        /* \"#utility.yul\":2052:2056   */\n      dup2\n        /* \"#utility.yul\":2048:2063   */\n      add\n        /* \"#utility.yul\":2040:2063   */\n      swap1\n      pop\n        /* \"#utility.yul\":1759:2070   */\n      swap2\n      swap1\n      pop\n      jump\t// out\n        /* \"#utility.yul\":2076:2193   */\n    tag_127:\n        /* \"#utility.yul\":2185:2186   */\n      0x00\n        /* \"#utility.yul\":2182:2183   */\n      dup1\n        /* \"#utility.yul\":2175:2187   */\n      revert\n        /* \"#utility.yul\":2199:2321   */\n    tag_128:\n        /* \"#utility.yul\":2272:2296   */\n      tag_198\n        /* \"#utility.yul\":2290:2295   */\n      dup2\n        /* \"#utility.yul\":2272:2296   */\n      tag_117\n      jump\t// in\n    tag_198:\n        /* \"#utility.yul\":2265:2270   */\n      dup2\n        /* \"#utility.yul\":2262:2297   */\n      eq\n        /* \"#utility.yul\":2252:2315   */\n      tag_199\n      jumpi\n        /* \"#utility.yul\":2311:2312   */\n      0x00\n        /* \"#utility.yul\":2308:2309   */\n      dup1\n        /* \"#utility.yul\":2301:2313   */\n      revert\n        /* \"#utility.yul\":2252:2315   */\n    tag_199:\n        /* \"#utility.yul\":2199:2321   */\n      pop\n      jump\t// out\n        /* \"#utility.yul\":2327:2466   */\n    tag_129:\n        /* \"#utility.yul\":2373:2378   */\n      0x00\n        /* \"#utility.yul\":2411:2417   */\n      dup2\n        /* \"#utility.yul\":2398:2418   */\n      calldataload\n        /* \"#utility.yul\":2389:2418   */\n      swap1\n      pop\n        /* \"#utility.yul\":2427:2460   */\n      tag_201\n        /* \"#utility.yul\":2454:2459   */\n      dup2\n        /* \"#utility.yul\":2427:2460   */\n      tag_128\n      jump\t// in\n    tag_201:\n        /* \"#utility.yul\":2327:2466   */\n      swap3\n      swap2\n      pop\n      pop\n      jump\t// out\n        /* \"#utility.yul\":2489:3199   */\n    tag_130:\n        /* \"#utility.yul\":2585:2590   */\n      0x00\n        /* \"#utility.yul\":2610:2691   */\n      tag_203\n        /* \"#utility.yul\":2626:2690   */\n      tag_204\n        /* \"#utility.yul\":2683:2689   */\n      dup5\n        /* \"#utility.yul\":2626:2690   */\n      tag_126\n      jump\t// in\n    tag_204:\n        /* \"#utility.yul\":2610:2691   */\n      tag_125\n      jump\t// in\n    tag_203:\n        /* \"#utility.yul\":2601:2691   */\n      swap1\n      pop\n        /* \"#utility.yul\":2711:2716   */\n      dup1\n        /* \"#utility.yul\":2740:2746   */\n      dup4\n        /* \"#utility.yul\":2733:2738   */\n      dup3\n        /* \"#utility.yul\":2726:2747   */\n      mstore\n        /* \"#utility.yul\":2774:2778   */\n      0x20\n        /* \"#utility.yul\":2767:2772   */\n      dup3\n        /* \"#utility.yul\":2763:2779   */\n      add\n        /* \"#utility.yul\":2756:2779   */\n      swap1\n      pop\n        /* \"#utility.yul\":2827:2831   */\n      0x20\n        /* \"#utility.yul\":2819:2825   */\n      dup5\n        /* \"#utility.yul\":2815:2832   */\n      mul\n        /* \"#utility.yul\":2807:2813   */\n      dup4\n        /* \"#utility.yul\":2803:2833   */\n      add\n        /* \"#utility.yul\":2856:2859   */\n      dup6\n        /* \"#utility.yul\":2848:2854   */\n      dup2\n        /* \"#utility.yul\":2845:2860   */\n      gt\n        /* \"#utility.yul\":2842:2964   */\n      iszero\n      tag_205\n      jumpi\n        /* \"#utility.yul\":2875:2954   */\n      tag_206\n      tag_127\n      jump\t// in\n    tag_206:\n        /* \"#utility.yul\":2842:2964   */\n    tag_205:\n        /* \"#utility.yul\":2990:2996   */\n      dup4\n        /* \"#utility.yul\":2973:3193   */\n    tag_207:\n        /* \"#utility.yul\":3007:3013   */\n      dup2\n        /* \"#utility.yul\":3002:3005   */\n      dup2\n        /* \"#utility.yul\":2999:3014   */\n      lt\n        /* \"#utility.yul\":2973:3193   */\n      iszero\n      tag_209\n      jumpi\n        /* \"#utility.yul\":3082:3085   */\n      dup1\n        /* \"#utility.yul\":3111:3148   */\n      tag_210\n        /* \"#utility.yul\":3144:3147   */\n      dup9\n        /* \"#utility.yul\":3132:3142   */\n      dup3\n        /* \"#utility.yul\":3111:3148   */\n      tag_129\n      jump\t// in\n    tag_210:\n        /* \"#utility.yul\":3106:3109   */\n      dup5\n        /* \"#utility.yul\":3099:3149   */\n      mstore\n        /* \"#utility.yul\":3178:3182   */\n      0x20\n        /* \"#utility.yul\":3173:3176   */\n      dup5\n        /* \"#utility.yul\":3169:3183   */\n      add\n        /* \"#utility.yul\":3162:3183   */\n      swap4\n      pop\n        /* \"#utility.yul\":3049:3193   */\n      pop\n        /* \"#utility.yul\":3033:3037   */\n      0x20\n        /* \"#utility.yul\":3028:3031   */\n      dup2\n        /* \"#utility.yul\":3024:3038   */\n      add\n        /* \"#utility.yul\":3017:3038   */\n      swap1\n      pop\n        /* \"#utility.yul\":2973:3193   */\n      jump(tag_207)\n    tag_209:\n        /* \"#utility.yul\":2977:2998   */\n      pop\n        /* \"#utility.yul\":2591:3199   */\n      pop\n      pop\n        /* \"#utility.yul\":2489:3199   */\n      swap4\n      swap3\n      pop\n      pop\n      pop\n      jump\t// out\n        /* \"#utility.yul\":3222:3592   */\n    tag_131:\n        /* \"#utility.yul\":3293:3298   */\n      0x00\n        /* \"#utility.yul\":3342:3345   */\n      dup3\n        /* \"#utility.yul\":3335:3339   */\n      0x1f\n        /* \"#utility.yul\":3327:3333   */\n      dup4\n        /* \"#utility.yul\":3323:3340   */\n      add\n        /* \"#utility.yul\":3319:3346   */\n      slt\n        /* \"#utility.yul\":3309:3431   */\n      tag_212\n      jumpi\n        /* \"#utility.yul\":3350:3429   */\n      tag_213\n      tag_122\n      jump\t// in\n    tag_213:\n        /* \"#utility.yul\":3309:3431   */\n    tag_212:\n        /* \"#utility.yul\":3467:3473   */\n      dup2\n        /* \"#utility.yul\":3454:3474   */\n      calldataload\n        /* \"#utility.yul\":3492:3586   */\n      tag_214\n        /* \"#utility.yul\":3582:3585   */\n      dup5\n        /* \"#utility.yul\":3574:3580   */\n      dup3\n        /* \"#utility.yul\":3567:3571   */\n      0x20\n        /* \"#utility.yul\":3559:3565   */\n      dup7\n        /* \"#utility.yul\":3555:3572   */\n      add\n        /* \"#utility.yul\":3492:3586   */\n      tag_130\n      jump\t// in\n    tag_214:\n        /* \"#utility.yul\":3483:3586   */\n      swap2\n      pop\n        /* \"#utility.yul\":3299:3592   */\n      pop\n        /* \"#utility.yul\":3222:3592   */\n      swap3\n      swap2\n      pop\n      pop\n      jump\t// out\n        /* \"#utility.yul\":3598:3918   */\n    tag_132:\n        /* \"#utility.yul\":3684:3688   */\n      0x00\n        /* \"#utility.yul\":3774:3792   */\n      0xffffffffffffffff\n        /* \"#utility.yul\":3766:3772   */\n      dup3\n        /* \"#utility.yul\":3763:3793   */\n      gt\n        /* \"#utility.yul\":3760:3816   */\n      iszero\n      tag_216\n      jumpi\n        /* \"#utility.yul\":3796:3814   */\n      tag_217\n      tag_88\n      jump\t// in\n    tag_217:\n        /* \"#utility.yul\":3760:3816   */\n    tag_216:\n        /* \"#utility.yul\":3846:3850   */\n      0x20\n        /* \"#utility.yul\":3838:3844   */\n      dup3\n        /* \"#utility.yul\":3834:3851   */\n      mul\n        /* \"#utility.yul\":3826:3851   */\n      swap1\n      pop\n        /* \"#utility.yul\":3906:3910   */\n      0x20\n        /* \"#utility.yul\":3900:3904   */\n      dup2\n        /* \"#utility.yul\":3896:3911   */\n      add\n        /* \"#utility.yul\":3888:3911   */\n      swap1\n      pop\n        /* \"#utility.yul\":3598:3918   */\n      swap2\n      swap1\n      pop\n      jump\t// out\n        /* \"#utility.yul\":3924:4041   */\n    tag_133:\n        /* \"#utility.yul\":4033:4034   */\n      0x00\n        /* \"#utility.yul\":4030:4031   */\n      dup1\n        /* \"#utility.yul\":4023:4035   */\n      revert\n        /* \"#utility.yul\":4047:4354   */\n    tag_134:\n        /* \"#utility.yul\":4108:4112   */\n      0x00\n        /* \"#utility.yul\":4198:4216   */\n      0xffffffffffffffff\n        /* \"#utility.yul\":4190:4196   */\n      dup3\n        /* \"#utility.yul\":4187:4217   */\n      gt\n        /* \"#utility.yul\":4184:4240   */\n      iszero\n      tag_220\n      jumpi\n        /* \"#utility.yul\":4220:4238   */\n      tag_221\n      tag_88\n      jump\t// in\n    tag_221:\n        /* \"#utility.yul\":4184:4240   */\n    tag_220:\n        /* \"#utility.yul\":4258:4287   */\n      tag_222\n        /* \"#utility.yul\":4280:4286   */\n      dup3\n        /* \"#utility.yul\":4258:4287   */\n      tag_123\n      jump\t// in\n    tag_222:\n        /* \"#utility.yul\":4250:4287   */\n      swap1\n      pop\n        /* \"#utility.yul\":4342:4346   */\n      0x20\n        /* \"#utility.yul\":4336:4340   */\n      dup2\n        /* \"#utility.yul\":4332:4347   */\n      add\n        /* \"#utility.yul\":4324:4347   */\n      swap1\n      pop\n        /* \"#utility.yul\":4047:4354   */\n      swap2\n      swap1\n      pop\n      jump\t// out\n        /* \"#utility.yul\":4360:4506   */\n    tag_135:\n        /* \"#utility.yul\":4457:4463   */\n      dup3\n        /* \"#utility.yul\":4452:4455   */\n      dup2\n        /* \"#utility.yul\":4447:4450   */\n      dup4\n        /* \"#utility.yul\":4434:4464   */\n      calldatacopy\n        /* \"#utility.yul\":4498:4499   */\n      0x00\n        /* \"#utility.yul\":4489:4495   */\n      dup4\n        /* \"#utility.yul\":4484:4487   */\n      dup4\n        /* \"#utility.yul\":4480:4496   */\n      add\n        /* \"#utility.yul\":4473:4500   */\n      mstore\n        /* \"#utility.yul\":4360:4506   */\n      pop\n      pop\n      pop\n      jump\t// out\n        /* \"#utility.yul\":4512:4935   */\n    tag_136:\n        /* \"#utility.yul\":4589:4594   */\n      0x00\n        /* \"#utility.yul\":4614:4679   */\n      tag_225\n        /* \"#utility.yul\":4630:4678   */\n      tag_226\n        /* \"#utility.yul\":4671:4677   */\n      dup5\n        /* \"#utility.yul\":4630:4678   */\n      tag_134\n      jump\t// in\n    tag_226:\n        /* \"#utility.yul\":4614:4679   */\n      tag_125\n      jump\t// in\n    tag_225:\n        /* \"#utility.yul\":4605:4679   */\n      swap1\n      pop\n        /* \"#utility.yul\":4702:4708   */\n      dup3\n        /* \"#utility.yul\":4695:4700   */\n      dup2\n        /* \"#utility.yul\":4688:4709   */\n      mstore\n        /* \"#utility.yul\":4740:4744   */\n      0x20\n        /* \"#utility.yul\":4733:4738   */\n      dup2\n        /* \"#utility.yul\":4729:4745   */\n      add\n        /* \"#utility.yul\":4778:4781   */\n      dup5\n        /* \"#utility.yul\":4769:4775   */\n      dup5\n        /* \"#utility.yul\":4764:4767   */\n      dup5\n        /* \"#utility.yul\":4760:4776   */\n      add\n        /* \"#utility.yul\":4757:4782   */\n      gt\n        /* \"#utility.yul\":4754:4866   */\n      iszero\n      tag_227\n      jumpi\n        /* \"#utility.yul\":4785:4864   */\n      tag_228\n      tag_133\n      jump\t// in\n    tag_228:\n        /* \"#utility.yul\":4754:4866   */\n    tag_227:\n        /* \"#utility.yul\":4875:4929   */\n      tag_229\n        /* \"#utility.yul\":4922:4928   */\n      dup5\n        /* \"#utility.yul\":4917:4920   */\n      dup3\n        /* \"#utility.yul\":4912:4915   */\n      dup6\n        /* \"#utility.yul\":4875:4929   */\n      tag_135\n      jump\t// in\n    tag_229:\n        /* \"#utility.yul\":4595:4935   */\n      pop\n        /* \"#utility.yul\":4512:4935   */\n      swap4\n      swap3\n      pop\n      pop\n      pop\n      jump\t// out\n        /* \"#utility.yul\":4954:5292   */\n    tag_137:\n        /* \"#utility.yul\":5009:5014   */\n      0x00\n        /* \"#utility.yul\":5058:5061   */\n      dup3\n        /* \"#utility.yul\":5051:5055   */\n      0x1f\n        /* \"#utility.yul\":5043:5049   */\n      dup4\n        /* \"#utility.yul\":5039:5056   */\n      add\n        /* \"#utility.yul\":5035:5062   */\n      slt\n        /* \"#utility.yul\":5025:5147   */\n      tag_231\n      jumpi\n        /* \"#utility.yul\":5066:5145   */\n      tag_232\n      tag_122\n      jump\t// in\n    tag_232:\n        /* \"#utility.yul\":5025:5147   */\n    tag_231:\n        /* \"#utility.yul\":5183:5189   */\n      dup2\n        /* \"#utility.yul\":5170:5190   */\n      calldataload\n        /* \"#utility.yul\":5208:5286   */\n      tag_233\n        /* \"#utility.yul\":5282:5285   */\n      dup5\n        /* \"#utility.yul\":5274:5280   */\n      dup3\n        /* \"#utility.yul\":5267:5271   */\n      0x20\n        /* \"#utility.yul\":5259:5265   */\n      dup7\n        /* \"#utility.yul\":5255:5272   */\n      add\n        /* \"#utility.yul\":5208:5286   */\n      tag_136\n      jump\t// in\n    tag_233:\n        /* \"#utility.yul\":5199:5286   */\n      swap2\n      pop\n        /* \"#utility.yul\":5015:5292   */\n      pop\n        /* \"#utility.yul\":4954:5292   */\n      swap3\n      swap2\n      pop\n      pop\n      jump\t// out\n        /* \"#utility.yul\":5313:6255   */\n    tag_138:\n        /* \"#utility.yul\":5418:5423   */\n      0x00\n        /* \"#utility.yul\":5443:5533   */\n      tag_235\n        /* \"#utility.yul\":5459:5532   */\n      tag_236\n        /* \"#utility.yul\":5525:5531   */\n      dup5\n        /* \"#utility.yul\":5459:5532   */\n      tag_132\n      jump\t// in\n    tag_236:\n        /* \"#utility.yul\":5443:5533   */\n      tag_125\n      jump\t// in\n    tag_235:\n        /* \"#utility.yul\":5434:5533   */\n      swap1\n      pop\n        /* \"#utility.yul\":5553:5558   */\n      dup1\n        /* \"#utility.yul\":5582:5588   */\n      dup4\n        /* \"#utility.yul\":5575:5580   */\n      dup3\n        /* \"#utility.yul\":5568:5589   */\n      mstore\n        /* \"#utility.yul\":5616:5620   */\n      0x20\n        /* \"#utility.yul\":5609:5614   */\n      dup3\n        /* \"#utility.yul\":5605:5621   */\n      add\n        /* \"#utility.yul\":5598:5621   */\n      swap1\n      pop\n        /* \"#utility.yul\":5669:5673   */\n      0x20\n        /* \"#utility.yul\":5661:5667   */\n      dup5\n        /* \"#utility.yul\":5657:5674   */\n      mul\n        /* \"#utility.yul\":5649:5655   */\n      dup4\n        /* \"#utility.yul\":5645:5675   */\n      add\n        /* \"#utility.yul\":5698:5701   */\n      dup6\n        /* \"#utility.yul\":5690:5696   */\n      dup2\n        /* \"#utility.yul\":5687:5702   */\n      gt\n        /* \"#utility.yul\":5684:5806   */\n      iszero\n      tag_237\n      jumpi\n        /* \"#utility.yul\":5717:5796   */\n      tag_238\n      tag_127\n      jump\t// in\n    tag_238:\n        /* \"#utility.yul\":5684:5806   */\n    tag_237:\n        /* \"#utility.yul\":5832:5838   */\n      dup4\n        /* \"#utility.yul\":5815:6249   */\n    tag_239:\n        /* \"#utility.yul\":5849:5855   */\n      dup2\n        /* \"#utility.yul\":5844:5847   */\n      dup2\n        /* \"#utility.yul\":5841:5856   */\n      lt\n        /* \"#utility.yul\":5815:6249   */\n      iszero\n      tag_241\n      jumpi\n        /* \"#utility.yul\":5938:5941   */\n      dup1\n        /* \"#utility.yul\":5925:5942   */\n      calldataload\n        /* \"#utility.yul\":5974:5992   */\n      0xffffffffffffffff\n        /* \"#utility.yul\":5961:5972   */\n      dup2\n        /* \"#utility.yul\":5958:5993   */\n      gt\n        /* \"#utility.yul\":5955:6077   */\n      iszero\n      tag_242\n      jumpi\n        /* \"#utility.yul\":5996:6075   */\n      tag_243\n      tag_122\n      jump\t// in\n    tag_243:\n        /* \"#utility.yul\":5955:6077   */\n    tag_242:\n        /* \"#utility.yul\":6120:6131   */\n      dup1\n        /* \"#utility.yul\":6112:6118   */\n      dup7\n        /* \"#utility.yul\":6108:6132   */\n      add\n        /* \"#utility.yul\":6158:6204   */\n      tag_244\n        /* \"#utility.yul\":6200:6203   */\n      dup10\n        /* \"#utility.yul\":6188:6198   */\n      dup3\n        /* \"#utility.yul\":6158:6204   */\n      tag_137\n      jump\t// in\n    tag_244:\n        /* \"#utility.yul\":6153:6156   */\n      dup6\n        /* \"#utility.yul\":6146:6205   */\n      mstore\n        /* \"#utility.yul\":6234:6238   */\n      0x20\n        /* \"#utility.yul\":6229:6232   */\n      dup6\n        /* \"#utility.yul\":6225:6239   */\n      add\n        /* \"#utility.yul\":6218:6239   */\n      swap5\n      pop\n        /* \"#utility.yul\":5891:6249   */\n      pop\n      pop\n        /* \"#utility.yul\":5875:5879   */\n      0x20\n        /* \"#utility.yul\":5870:5873   */\n      dup2\n        /* \"#utility.yul\":5866:5880   */\n      add\n        /* \"#utility.yul\":5859:5880   */\n      swap1\n      pop\n        /* \"#utility.yul\":5815:6249   */\n      jump(tag_239)\n    tag_241:\n        /* \"#utility.yul\":5819:5840   */\n      pop\n        /* \"#utility.yul\":5424:6255   */\n      pop\n      pop\n        /* \"#utility.yul\":5313:6255   */\n      swap4\n      swap3\n      pop\n      pop\n      pop\n      jump\t// out\n        /* \"#utility.yul\":6276:6664   */\n    tag_139:\n        /* \"#utility.yul\":6356:6361   */\n      0x00\n        /* \"#utility.yul\":6405:6408   */\n      dup3\n        /* \"#utility.yul\":6398:6402   */\n      0x1f\n        /* \"#utility.yul\":6390:6396   */\n      dup4\n        /* \"#utility.yul\":6386:6403   */\n      add\n        /* \"#utility.yul\":6382:6409   */\n      slt\n        /* \"#utility.yul\":6372:6494   */\n      tag_246\n      jumpi\n        /* \"#utility.yul\":6413:6492   */\n      tag_247\n      tag_122\n      jump\t// in\n    tag_247:\n        /* \"#utility.yul\":6372:6494   */\n    tag_246:\n        /* \"#utility.yul\":6530:6536   */\n      dup2\n        /* \"#utility.yul\":6517:6537   */\n      calldataload\n        /* \"#utility.yul\":6555:6658   */\n      tag_248\n        /* \"#utility.yul\":6654:6657   */\n      dup5\n        /* \"#utility.yul\":6646:6652   */\n      dup3\n        /* \"#utility.yul\":6639:6643   */\n      0x20\n        /* \"#utility.yul\":6631:6637   */\n      dup7\n        /* \"#utility.yul\":6627:6644   */\n      add\n        /* \"#utility.yul\":6555:6658   */\n      tag_138\n      jump\t// in\n    tag_248:\n        /* \"#utility.yul\":6546:6658   */\n      swap2\n      pop\n        /* \"#utility.yul\":6362:6664   */\n      pop\n        /* \"#utility.yul\":6276:6664   */\n      swap3\n      swap2\n      pop\n      pop\n      jump\t// out\n        /* \"#utility.yul\":6670:6991   */\n    tag_140:\n        /* \"#utility.yul\":6757:6761   */\n      0x00\n        /* \"#utility.yul\":6847:6865   */\n      0xffffffffffffffff\n        /* \"#utility.yul\":6839:6845   */\n      dup3\n        /* \"#utility.yul\":6836:6866   */\n      gt\n        /* \"#utility.yul\":6833:6889   */\n      iszero\n      tag_250\n      jumpi\n        /* \"#utility.yul\":6869:6887   */\n      tag_251\n      tag_88\n      jump\t// in\n    tag_251:\n        /* \"#utility.yul\":6833:6889   */\n    tag_250:\n        /* \"#utility.yul\":6919:6923   */\n      0x20\n        /* \"#utility.yul\":6911:6917   */\n      dup3\n        /* \"#utility.yul\":6907:6924   */\n      mul\n        /* \"#utility.yul\":6899:6924   */\n      swap1\n      pop\n        /* \"#utility.yul\":6979:6983   */\n      0x20\n        /* \"#utility.yul\":6973:6977   */\n      dup2\n        /* \"#utility.yul\":6969:6984   */\n      add\n        /* \"#utility.yul\":6961:6984   */\n      swap1\n      pop\n        /* \"#utility.yul\":6670:6991   */\n      swap2\n      swap1\n      pop\n      jump\t// out\n        /* \"#utility.yul\":6997:7305   */\n    tag_141:\n        /* \"#utility.yul\":7059:7063   */\n      0x00\n        /* \"#utility.yul\":7149:7167   */\n      0xffffffffffffffff\n        /* \"#utility.yul\":7141:7147   */\n      dup3\n        /* \"#utility.yul\":7138:7168   */\n      gt\n        /* \"#utility.yul\":7135:7191   */\n      iszero\n      tag_253\n      jumpi\n        /* \"#utility.yul\":7171:7189   */\n      tag_254\n      tag_88\n      jump\t// in\n    tag_254:\n        /* \"#utility.yul\":7135:7191   */\n    tag_253:\n        /* \"#utility.yul\":7209:7238   */\n      tag_255\n        /* \"#utility.yul\":7231:7237   */\n      dup3\n        /* \"#utility.yul\":7209:7238   */\n      tag_123\n      jump\t// in\n    tag_255:\n        /* \"#utility.yul\":7201:7238   */\n      swap1\n      pop\n        /* \"#utility.yul\":7293:7297   */\n      0x20\n        /* \"#utility.yul\":7287:7291   */\n      dup2\n        /* \"#utility.yul\":7283:7298   */\n      add\n        /* \"#utility.yul\":7275:7298   */\n      swap1\n      pop\n        /* \"#utility.yul\":6997:7305   */\n      swap2\n      swap1\n      pop\n      jump\t// out\n        /* \"#utility.yul\":7311:7736   */\n    tag_142:\n        /* \"#utility.yul\":7389:7394   */\n      0x00\n        /* \"#utility.yul\":7414:7480   */\n      tag_257\n        /* \"#utility.yul\":7430:7479   */\n      tag_258\n        /* \"#utility.yul\":7472:7478   */\n      dup5\n        /* \"#utility.yul\":7430:7479   */\n      tag_141\n      jump\t// in\n    tag_258:\n        /* \"#utility.yul\":7414:7480   */\n      tag_125\n      jump\t// in\n    tag_257:\n        /* \"#utility.yul\":7405:7480   */\n      swap1\n      pop\n        /* \"#utility.yul\":7503:7509   */\n      dup3\n        /* \"#utility.yul\":7496:7501   */\n      dup2\n        /* \"#utility.yul\":7489:7510   */\n      mstore\n        /* \"#utility.yul\":7541:7545   */\n      0x20\n        /* \"#utility.yul\":7534:7539   */\n      dup2\n        /* \"#utility.yul\":7530:7546   */\n      add\n        /* \"#utility.yul\":7579:7582   */\n      dup5\n        /* \"#utility.yul\":7570:7576   */\n      dup5\n        /* \"#utility.yul\":7565:7568   */\n      dup5\n        /* \"#utility.yul\":7561:7577   */\n      add\n        /* \"#utility.yul\":7558:7583   */\n      gt\n        /* \"#utility.yul\":7555:7667   */\n      iszero\n      tag_259\n      jumpi\n        /* \"#utility.yul\":7586:7665   */\n      tag_260\n      tag_133\n      jump\t// in\n    tag_260:\n        /* \"#utility.yul\":7555:7667   */\n    tag_259:\n        /* \"#utility.yul\":7676:7730   */\n      tag_261\n        /* \"#utility.yul\":7723:7729   */\n      dup5\n        /* \"#utility.yul\":7718:7721   */\n      dup3\n        /* \"#utility.yul\":7713:7716   */\n      dup6\n        /* \"#utility.yul\":7676:7730   */\n      tag_135\n      jump\t// in\n    tag_261:\n        /* \"#utility.yul\":7395:7736   */\n      pop\n        /* \"#utility.yul\":7311:7736   */\n      swap4\n      swap3\n      pop\n      pop\n      pop\n      jump\t// out\n        /* \"#utility.yul\":7756:8096   */\n    tag_143:\n        /* \"#utility.yul\":7812:7817   */\n      0x00\n        /* \"#utility.yul\":7861:7864   */\n      dup3\n        /* \"#utility.yul\":7854:7858   */\n      0x1f\n        /* \"#utility.yul\":7846:7852   */\n      dup4\n        /* \"#utility.yul\":7842:7859   */\n      add\n        /* \"#utility.yul\":7838:7865   */\n      slt\n        /* \"#utility.yul\":7828:7950   */\n      tag_263\n      jumpi\n        /* \"#utility.yul\":7869:7948   */\n      tag_264\n      tag_122\n      jump\t// in\n    tag_264:\n        /* \"#utility.yul\":7828:7950   */\n    tag_263:\n        /* \"#utility.yul\":7986:7992   */\n      dup2\n        /* \"#utility.yul\":7973:7993   */\n      calldataload\n        /* \"#utility.yul\":8011:8090   */\n      tag_265\n        /* \"#utility.yul\":8086:8089   */\n      dup5\n        /* \"#utility.yul\":8078:8084   */\n      dup3\n        /* \"#utility.yul\":8071:8075   */\n      0x20\n        /* \"#utility.yul\":8063:8069   */\n      dup7\n        /* \"#utility.yul\":8059:8076   */\n      add\n        /* \"#utility.yul\":8011:8090   */\n      tag_142\n      jump\t// in\n    tag_265:\n        /* \"#utility.yul\":8002:8090   */\n      swap2\n      pop\n        /* \"#utility.yul\":7818:8096   */\n      pop\n        /* \"#utility.yul\":7756:8096   */\n      swap3\n      swap2\n      pop\n      pop\n      jump\t// out\n        /* \"#utility.yul\":8118:9063   */\n    tag_144:\n        /* \"#utility.yul\":8224:8229   */\n      0x00\n        /* \"#utility.yul\":8249:8340   */\n      tag_267\n        /* \"#utility.yul\":8265:8339   */\n      tag_268\n        /* \"#utility.yul\":8332:8338   */\n      dup5\n        /* \"#utility.yul\":8265:8339   */\n      tag_140\n      jump\t// in\n    tag_268:\n        /* \"#utility.yul\":8249:8340   */\n      tag_125\n      jump\t// in\n    tag_267:\n        /* \"#utility.yul\":8240:8340   */\n      swap1\n      pop\n        /* \"#utility.yul\":8360:8365   */\n      dup1\n        /* \"#utility.yul\":8389:8395   */\n      dup4\n        /* \"#utility.yul\":8382:8387   */\n      dup3\n        /* \"#utility.yul\":8375:8396   */\n      mstore\n        /* \"#utility.yul\":8423:8427   */\n      0x20\n        /* \"#utility.yul\":8416:8421   */\n      dup3\n        /* \"#utility.yul\":8412:8428   */\n      add\n        /* \"#utility.yul\":8405:8428   */\n      swap1\n      pop\n        /* \"#utility.yul\":8476:8480   */\n      0x20\n        /* \"#utility.yul\":8468:8474   */\n      dup5\n        /* \"#utility.yul\":8464:8481   */\n      mul\n        /* \"#utility.yul\":8456:8462   */\n      dup4\n        /* \"#utility.yul\":8452:8482   */\n      add\n        /* \"#utility.yul\":8505:8508   */\n      dup6\n        /* \"#utility.yul\":8497:8503   */\n      dup2\n        /* \"#utility.yul\":8494:8509   */\n      gt\n        /* \"#utility.yul\":8491:8613   */\n      iszero\n      tag_269\n      jumpi\n        /* \"#utility.yul\":8524:8603   */\n      tag_270\n      tag_127\n      jump\t// in\n    tag_270:\n        /* \"#utility.yul\":8491:8613   */\n    tag_269:\n        /* \"#utility.yul\":8639:8645   */\n      dup4\n        /* \"#utility.yul\":8622:9057   */\n    tag_271:\n        /* \"#utility.yul\":8656:8662   */\n      dup2\n        /* \"#utility.yul\":8651:8654   */\n      dup2\n        /* \"#utility.yul\":8648:8663   */\n      lt\n        /* \"#utility.yul\":8622:9057   */\n      iszero\n      tag_273\n      jumpi\n        /* \"#utility.yul\":8745:8748   */\n      dup1\n        /* \"#utility.yul\":8732:8749   */\n      calldataload\n        /* \"#utility.yul\":8781:8799   */\n      0xffffffffffffffff\n        /* \"#utility.yul\":8768:8779   */\n      dup2\n        /* \"#utility.yul\":8765:8800   */\n      gt\n        /* \"#utility.yul\":8762:8884   */\n      iszero\n      tag_274\n      jumpi\n        /* \"#utility.yul\":8803:8882   */\n      tag_275\n      tag_122\n      jump\t// in\n    tag_275:\n        /* \"#utility.yul\":8762:8884   */\n    tag_274:\n        /* \"#utility.yul\":8927:8938   */\n      dup1\n        /* \"#utility.yul\":8919:8925   */\n      dup7\n        /* \"#utility.yul\":8915:8939   */\n      add\n        /* \"#utility.yul\":8965:9012   */\n      tag_276\n        /* \"#utility.yul\":9008:9011   */\n      dup10\n        /* \"#utility.yul\":8996:9006   */\n      dup3\n        /* \"#utility.yul\":8965:9012   */\n      tag_143\n      jump\t// in\n    tag_276:\n        /* \"#utility.yul\":8960:8963   */\n      dup6\n        /* \"#utility.yul\":8953:9013   */\n      mstore\n        /* \"#utility.yul\":9042:9046   */\n      0x20\n        /* \"#utility.yul\":9037:9040   */\n      dup6\n        /* \"#utility.yul\":9033:9047   */\n      add\n        /* \"#utility.yul\":9026:9047   */\n      swap5\n      pop\n        /* \"#utility.yul\":8698:9057   */\n      pop\n      pop\n        /* \"#utility.yul\":8682:8686   */\n      0x20\n        /* \"#utility.yul\":8677:8680   */\n      dup2\n        /* \"#utility.yul\":8673:8687   */\n      add\n        /* \"#utility.yul\":8666:8687   */\n      swap1\n      pop\n        /* \"#utility.yul\":8622:9057   */\n      jump(tag_271)\n    tag_273:\n        /* \"#utility.yul\":8626:8647   */\n      pop\n        /* \"#utility.yul\":8230:9063   */\n      pop\n      pop\n        /* \"#utility.yul\":8118:9063   */\n      swap4\n      swap3\n      pop\n      pop\n      pop\n      jump\t// out\n        /* \"#utility.yul\":9085:9475   */\n    tag_145:\n        /* \"#utility.yul\":9166:9171   */\n      0x00\n        /* \"#utility.yul\":9215:9218   */\n      dup3\n        /* \"#utility.yul\":9208:9212   */\n      0x1f\n        /* \"#utility.yul\":9200:9206   */\n      dup4\n        /* \"#utility.yul\":9196:9213   */\n      add\n        /* \"#utility.yul\":9192:9219   */\n      slt\n        /* \"#utility.yul\":9182:9304   */\n      tag_278\n      jumpi\n        /* \"#utility.yul\":9223:9302   */\n      tag_279\n      tag_122\n      jump\t// in\n    tag_279:\n        /* \"#utility.yul\":9182:9304   */\n    tag_278:\n        /* \"#utility.yul\":9340:9346   */\n      dup2\n        /* \"#utility.yul\":9327:9347   */\n      calldataload\n        /* \"#utility.yul\":9365:9469   */\n      tag_280\n        /* \"#utility.yul\":9465:9468   */\n      dup5\n        /* \"#utility.yul\":9457:9463   */\n      dup3\n        /* \"#utility.yul\":9450:9454   */\n      0x20\n        /* \"#utility.yul\":9442:9448   */\n      dup7\n        /* \"#utility.yul\":9438:9455   */\n      add\n        /* \"#utility.yul\":9365:9469   */\n      tag_144\n      jump\t// in\n    tag_280:\n        /* \"#utility.yul\":9356:9469   */\n      swap2\n      pop\n        /* \"#utility.yul\":9172:9475   */\n      pop\n        /* \"#utility.yul\":9085:9475   */\n      swap3\n      swap2\n      pop\n      pop\n      jump\t// out\n        /* \"#utility.yul\":9481:10768   */\n    tag_16:\n        /* \"#utility.yul\":9652:9658   */\n      0x00\n        /* \"#utility.yul\":9660:9666   */\n      dup1\n        /* \"#utility.yul\":9668:9674   */\n      0x00\n        /* \"#utility.yul\":9717:9719   */\n      0x60\n        /* \"#utility.yul\":9705:9714   */\n      dup5\n        /* \"#utility.yul\":9696:9703   */\n      dup7\n        /* \"#utility.yul\":9692:9715   */\n      sub\n        /* \"#utility.yul\":9688:9720   */\n      slt\n        /* \"#utility.yul\":9685:9804   */\n      iszero\n      tag_282\n      jumpi\n        /* \"#utility.yul\":9723:9802   */\n      tag_283\n      tag_120\n      jump\t// in\n    tag_283:\n        /* \"#utility.yul\":9685:9804   */\n    tag_282:\n        /* \"#utility.yul\":9871:9872   */\n      0x00\n        /* \"#utility.yul\":9860:9869   */\n      dup5\n        /* \"#utility.yul\":9856:9873   */\n      add\n        /* \"#utility.yul\":9843:9874   */\n      calldataload\n        /* \"#utility.yul\":9901:9919   */\n      0xffffffffffffffff\n        /* \"#utility.yul\":9893:9899   */\n      dup2\n        /* \"#utility.yul\":9890:9920   */\n      gt\n        /* \"#utility.yul\":9887:10004   */\n      iszero\n      tag_284\n      jumpi\n        /* \"#utility.yul\":9923:10002   */\n      tag_285\n      tag_121\n      jump\t// in\n    tag_285:\n        /* \"#utility.yul\":9887:10004   */\n    tag_284:\n        /* \"#utility.yul\":10028:10106   */\n      tag_286\n        /* \"#utility.yul\":10098:10105   */\n      dup7\n        /* \"#utility.yul\":10089:10095   */\n      dup3\n        /* \"#utility.yul\":10078:10087   */\n      dup8\n        /* \"#utility.yul\":10074:10096   */\n      add\n        /* \"#utility.yul\":10028:10106   */\n      tag_131\n      jump\t// in\n    tag_286:\n        /* \"#utility.yul\":10018:10106   */\n      swap4\n      pop\n        /* \"#utility.yul\":9814:10116   */\n      pop\n        /* \"#utility.yul\":10183:10185   */\n      0x20\n        /* \"#utility.yul\":10172:10181   */\n      dup5\n        /* \"#utility.yul\":10168:10186   */\n      add\n        /* \"#utility.yul\":10155:10187   */\n      calldataload\n        /* \"#utility.yul\":10214:10232   */\n      0xffffffffffffffff\n        /* \"#utility.yul\":10206:10212   */\n      dup2\n        /* \"#utility.yul\":10203:10233   */\n      gt\n        /* \"#utility.yul\":10200:10317   */\n      iszero\n      tag_287\n      jumpi\n        /* \"#utility.yul\":10236:10315   */\n      tag_288\n      tag_121\n      jump\t// in\n    tag_288:\n        /* \"#utility.yul\":10200:10317   */\n    tag_287:\n        /* \"#utility.yul\":10341:10428   */\n      tag_289\n        /* \"#utility.yul\":10420:10427   */\n      dup7\n        /* \"#utility.yul\":10411:10417   */\n      dup3\n        /* \"#utility.yul\":10400:10409   */\n      dup8\n        /* \"#utility.yul\":10396:10418   */\n      add\n        /* \"#utility.yul\":10341:10428   */\n      tag_139\n      jump\t// in\n    tag_289:\n        /* \"#utility.yul\":10331:10428   */\n      swap3\n      pop\n        /* \"#utility.yul\":10126:10438   */\n      pop\n        /* \"#utility.yul\":10505:10507   */\n      0x40\n        /* \"#utility.yul\":10494:10503   */\n      dup5\n        /* \"#utility.yul\":10490:10508   */\n      add\n        /* \"#utility.yul\":10477:10509   */\n      calldataload\n        /* \"#utility.yul\":10536:10554   */\n      0xffffffffffffffff\n        /* \"#utility.yul\":10528:10534   */\n      dup2\n        /* \"#utility.yul\":10525:10555   */\n      gt\n        /* \"#utility.yul\":10522:10639   */\n      iszero\n      tag_290\n      jumpi\n        /* \"#utility.yul\":10558:10637   */\n      tag_291\n      tag_121\n      jump\t// in\n    tag_291:\n        /* \"#utility.yul\":10522:10639   */\n    tag_290:\n        /* \"#utility.yul\":10663:10751   */\n      tag_292\n        /* \"#utility.yul\":10743:10750   */\n      dup7\n        /* \"#utility.yul\":10734:10740   */\n      dup3\n        /* \"#utility.yul\":10723:10732   */\n      dup8\n        /* \"#utility.yul\":10719:10741   */\n      add\n        /* \"#utility.yul\":10663:10751   */\n      tag_145\n      jump\t// in\n    tag_292:\n        /* \"#utility.yul\":10653:10751   */\n      swap2\n      pop\n        /* \"#utility.yul\":10448:10761   */\n      pop\n        /* \"#utility.yul\":9481:10768   */\n      swap3\n      pop\n      swap3\n      pop\n      swap3\n      jump\t// out\n        /* \"#utility.yul\":10774:11751   */\n    tag_21:\n        /* \"#utility.yul\":10870:10876   */\n      0x00\n        /* \"#utility.yul\":10878:10884   */\n      dup1\n        /* \"#utility.yul\":10886:10892   */\n      0x00\n        /* \"#utility.yul\":10935:10937   */\n      0x60\n        /* \"#utility.yul\":10923:10932   */\n      dup5\n        /* \"#utility.yul\":10914:10921   */\n      dup7\n        /* \"#utility.yul\":10910:10933   */\n      sub\n        /* \"#utility.yul\":10906:10938   */\n      slt\n        /* \"#utility.yul\":10903:11022   */\n      iszero\n      tag_294\n      jumpi\n        /* \"#utility.yul\":10941:11020   */\n      tag_295\n      tag_120\n      jump\t// in\n    tag_295:\n        /* \"#utility.yul\":10903:11022   */\n    tag_294:\n        /* \"#utility.yul\":11061:11062   */\n      0x00\n        /* \"#utility.yul\":11086:11139   */\n      tag_296\n        /* \"#utility.yul\":11131:11138   */\n      dup7\n        /* \"#utility.yul\":11122:11128   */\n      dup3\n        /* \"#utility.yul\":11111:11120   */\n      dup8\n        /* \"#utility.yul\":11107:11129   */\n      add\n        /* \"#utility.yul\":11086:11139   */\n      tag_129\n      jump\t// in\n    tag_296:\n        /* \"#utility.yul\":11076:11139   */\n      swap4\n      pop\n        /* \"#utility.yul\":11032:11149   */\n      pop\n        /* \"#utility.yul\":11216:11218   */\n      0x20\n        /* \"#utility.yul\":11205:11214   */\n      dup5\n        /* \"#utility.yul\":11201:11219   */\n      add\n        /* \"#utility.yul\":11188:11220   */\n      calldataload\n        /* \"#utility.yul\":11247:11265   */\n      0xffffffffffffffff\n        /* \"#utility.yul\":11239:11245   */\n      dup2\n        /* \"#utility.yul\":11236:11266   */\n      gt\n        /* \"#utility.yul\":11233:11350   */\n      iszero\n      tag_297\n      jumpi\n        /* \"#utility.yul\":11269:11348   */\n      tag_298\n      tag_121\n      jump\t// in\n    tag_298:\n        /* \"#utility.yul\":11233:11350   */\n    tag_297:\n        /* \"#utility.yul\":11374:11437   */\n      tag_299\n        /* \"#utility.yul\":11429:11436   */\n      dup7\n        /* \"#utility.yul\":11420:11426   */\n      dup3\n        /* \"#utility.yul\":11409:11418   */\n      dup8\n        /* \"#utility.yul\":11405:11427   */\n      add\n        /* \"#utility.yul\":11374:11437   */\n      tag_143\n      jump\t// in\n    tag_299:\n        /* \"#utility.yul\":11364:11437   */\n      swap3\n      pop\n        /* \"#utility.yul\":11159:11447   */\n      pop\n        /* \"#utility.yul\":11514:11516   */\n      0x40\n        /* \"#utility.yul\":11503:11512   */\n      dup5\n        /* \"#utility.yul\":11499:11517   */\n      add\n        /* \"#utility.yul\":11486:11518   */\n      calldataload\n        /* \"#utility.yul\":11545:11563   */\n      0xffffffffffffffff\n        /* \"#utility.yul\":11537:11543   */\n      dup2\n        /* \"#utility.yul\":11534:11564   */\n      gt\n        /* \"#utility.yul\":11531:11648   */\n      iszero\n      tag_300\n      jumpi\n        /* \"#utility.yul\":11567:11646   */\n      tag_301\n      tag_121\n      jump\t// in\n    tag_301:\n        /* \"#utility.yul\":11531:11648   */\n    tag_300:\n        /* \"#utility.yul\":11672:11734   */\n      tag_302\n        /* \"#utility.yul\":11726:11733   */\n      dup7\n        /* \"#utility.yul\":11717:11723   */\n      dup3\n        /* \"#utility.yul\":11706:11715   */\n      dup8\n        /* \"#utility.yul\":11702:11724   */\n      add\n        /* \"#utility.yul\":11672:11734   */\n      tag_137\n      jump\t// in\n    tag_302:\n        /* \"#utility.yul\":11662:11734   */\n      swap2\n      pop\n        /* \"#utility.yul\":11457:11744   */\n      pop\n        /* \"#utility.yul\":10774:11751   */\n      swap3\n      pop\n      swap3\n      pop\n      swap3\n      jump\t// out\n        /* \"#utility.yul\":11757:11834   */\n    tag_146:\n        /* \"#utility.yul\":11794:11801   */\n      0x00\n        /* \"#utility.yul\":11823:11828   */\n      dup2\n        /* \"#utility.yul\":11812:11828   */\n      swap1\n      pop\n        /* \"#utility.yul\":11757:11834   */\n      swap2\n      swap1\n      pop\n      jump\t// out\n        /* \"#utility.yul\":11840:11958   */\n    tag_147:\n        /* \"#utility.yul\":11927:11951   */\n      tag_305\n        /* \"#utility.yul\":11945:11950   */\n      dup2\n        /* \"#utility.yul\":11927:11951   */\n      tag_146\n      jump\t// in\n    tag_305:\n        /* \"#utility.yul\":11922:11925   */\n      dup3\n        /* \"#utility.yul\":11915:11952   */\n      mstore\n        /* \"#utility.yul\":11840:11958   */\n      pop\n      pop\n      jump\t// out\n        /* \"#utility.yul\":11964:12186   */\n    tag_27:\n        /* \"#utility.yul\":12057:12061   */\n      0x00\n        /* \"#utility.yul\":12095:12097   */\n      0x20\n        /* \"#utility.yul\":12084:12093   */\n      dup3\n        /* \"#utility.yul\":12080:12098   */\n      add\n        /* \"#utility.yul\":12072:12098   */\n      swap1\n      pop\n        /* \"#utility.yul\":12108:12179   */\n      tag_307\n        /* \"#utility.yul\":12176:12177   */\n      0x00\n        /* \"#utility.yul\":12165:12174   */\n      dup4\n        /* \"#utility.yul\":12161:12178   */\n      add\n        /* \"#utility.yul\":12152:12158   */\n      dup5\n        /* \"#utility.yul\":12108:12179   */\n      tag_147\n      jump\t// in\n    tag_307:\n        /* \"#utility.yul\":11964:12186   */\n      swap3\n      swap2\n      pop\n      pop\n      jump\t// out\n        /* \"#utility.yul\":12192:12361   */\n    tag_148:\n        /* \"#utility.yul\":12276:12287   */\n      0x00\n        /* \"#utility.yul\":12310:12316   */\n      dup3\n        /* \"#utility.yul\":12305:12308   */\n      dup3\n        /* \"#utility.yul\":12298:12317   */\n      mstore\n        /* \"#utility.yul\":12350:12354   */\n      0x20\n        /* \"#utility.yul\":12345:12348   */\n      dup3\n        /* \"#utility.yul\":12341:12355   */\n      add\n        /* \"#utility.yul\":12326:12355   */\n      swap1\n      pop\n        /* \"#utility.yul\":12192:12361   */\n      swap3\n      swap2\n      pop\n      pop\n      jump\t// out\n        /* \"#utility.yul\":12367:12531   */\n    tag_149:\n        /* \"#utility.yul\":12507:12523   */\n      0x496e76616c69642063616c6c6572000000000000000000000000000000000000\n        /* \"#utility.yul\":12503:12504   */\n      0x00\n        /* \"#utility.yul\":12495:12501   */\n      dup3\n        /* \"#utility.yul\":12491:12505   */\n      add\n        /* \"#utility.yul\":12484:12524   */\n      mstore\n        /* \"#utility.yul\":12367:12531   */\n      pop\n      jump\t// out\n        /* \"#utility.yul\":12537:12903   */\n    tag_150:\n        /* \"#utility.yul\":12679:12682   */\n      0x00\n        /* \"#utility.yul\":12700:12767   */\n      tag_311\n        /* \"#utility.yul\":12764:12766   */\n      0x0e\n        /* \"#utility.yul\":12759:12762   */\n      dup4\n        /* \"#utility.yul\":12700:12767   */\n      tag_148\n      jump\t// in\n    tag_311:\n        /* \"#utility.yul\":12693:12767   */\n      swap2\n      pop\n        /* \"#utility.yul\":12776:12869   */\n      tag_312\n        /* \"#utility.yul\":12865:12868   */\n      dup3\n        /* \"#utility.yul\":12776:12869   */\n      tag_149\n      jump\t// in\n    tag_312:\n        /* \"#utility.yul\":12894:12896   */\n      0x20\n        /* \"#utility.yul\":12889:12892   */\n      dup3\n        /* \"#utility.yul\":12885:12897   */\n      add\n        /* \"#utility.yul\":12878:12897   */\n      swap1\n      pop\n        /* \"#utility.yul\":12537:12903   */\n      swap2\n      swap1\n      pop\n      jump\t// out\n        /* \"#utility.yul\":12909:13328   */\n    tag_31:\n        /* \"#utility.yul\":13075:13079   */\n      0x00\n        /* \"#utility.yul\":13113:13115   */\n      0x20\n        /* \"#utility.yul\":13102:13111   */\n      dup3\n        /* \"#utility.yul\":13098:13116   */\n      add\n        /* \"#utility.yul\":13090:13116   */\n      swap1\n      pop\n        /* \"#utility.yul\":13162:13171   */\n      dup2\n        /* \"#utility.yul\":13156:13160   */\n      dup2\n        /* \"#utility.yul\":13152:13172   */\n      sub\n        /* \"#utility.yul\":13148:13149   */\n      0x00\n        /* \"#utility.yul\":13137:13146   */\n      dup4\n        /* \"#utility.yul\":13133:13150   */\n      add\n        /* \"#utility.yul\":13126:13173   */\n      mstore\n        /* \"#utility.yul\":13190:13321   */\n      tag_314\n        /* \"#utility.yul\":13316:13320   */\n      dup2\n        /* \"#utility.yul\":13190:13321   */\n      tag_150\n      jump\t// in\n    tag_314:\n        /* \"#utility.yul\":13182:13321   */\n      swap1\n      pop\n        /* \"#utility.yul\":12909:13328   */\n      swap2\n      swap1\n      pop\n      jump\t// out\n        /* \"#utility.yul\":13334:13497   */\n    tag_151:\n        /* \"#utility.yul\":13474:13489   */\n      0x496e76616c696420696e70757400000000000000000000000000000000000000\n        /* \"#utility.yul\":13470:13471   */\n      0x00\n        /* \"#utility.yul\":13462:13468   */\n      dup3\n        /* \"#utility.yul\":13458:13472   */\n      add\n        /* \"#utility.yul\":13451:13490   */\n      mstore\n        /* \"#utility.yul\":13334:13497   */\n      pop\n      jump\t// out\n        /* \"#utility.yul\":13503:13869   */\n    tag_152:\n        /* \"#utility.yul\":13645:13648   */\n      0x00\n        /* \"#utility.yul\":13666:13733   */\n      tag_317\n        /* \"#utility.yul\":13730:13732   */\n      0x0d\n        /* \"#utility.yul\":13725:13728   */\n      dup4\n        /* \"#utility.yul\":13666:13733   */\n      tag_148\n      jump\t// in\n    tag_317:\n        /* \"#utility.yul\":13659:13733   */\n      swap2\n      pop\n        /* \"#utility.yul\":13742:13835   */\n      tag_318\n        /* \"#utility.yul\":13831:13834   */\n      dup3\n        /* \"#utility.yul\":13742:13835   */\n      tag_151\n      jump\t// in\n    tag_318:\n        /* \"#utility.yul\":13860:13862   */\n      0x20\n        /* \"#utility.yul\":13855:13858   */\n      dup3\n        /* \"#utility.yul\":13851:13863   */\n      add\n        /* \"#utility.yul\":13844:13863   */\n      swap1\n      pop\n        /* \"#utility.yul\":13503:13869   */\n      swap2\n      swap1\n      pop\n      jump\t// out\n        /* \"#utility.yul\":13875:14294   */\n    tag_35:\n        /* \"#utility.yul\":14041:14045   */\n      0x00\n        /* \"#utility.yul\":14079:14081   */\n      0x20\n        /* \"#utility.yul\":14068:14077   */\n      dup3\n        /* \"#utility.yul\":14064:14082   */\n      add\n        /* \"#utility.yul\":14056:14082   */\n      swap1\n      pop\n        /* \"#utility.yul\":14128:14137   */\n      dup2\n        /* \"#utility.yul\":14122:14126   */\n      dup2\n        /* \"#utility.yul\":14118:14138   */\n      sub\n        /* \"#utility.yul\":14114:14115   */\n      0x00\n        /* \"#utility.yul\":14103:14112   */\n      dup4\n        /* \"#utility.yul\":14099:14116   */\n      add\n        /* \"#utility.yul\":14092:14139   */\n      mstore\n        /* \"#utility.yul\":14156:14287   */\n      tag_320\n        /* \"#utility.yul\":14282:14286   */\n      dup2\n        /* \"#utility.yul\":14156:14287   */\n      tag_152\n      jump\t// in\n    tag_320:\n        /* \"#utility.yul\":14148:14287   */\n      swap1\n      pop\n        /* \"#utility.yul\":13875:14294   */\n      swap2\n      swap1\n      pop\n      jump\t// out\n        /* \"#utility.yul\":14300:14470   */\n    tag_153:\n        /* \"#utility.yul\":14440:14462   */\n      0x42617463682073697a6520746f6f206c61726765000000000000000000000000\n        /* \"#utility.yul\":14436:14437   */\n      0x00\n        /* \"#utility.yul\":14428:14434   */\n      dup3\n        /* \"#utility.yul\":14424:14438   */\n      add\n        /* \"#utility.yul\":14417:14463   */\n      mstore\n        /* \"#utility.yul\":14300:14470   */\n      pop\n      jump\t// out\n        /* \"#utility.yul\":14476:14842   */\n    tag_154:\n        /* \"#utility.yul\":14618:14621   */\n      0x00\n        /* \"#utility.yul\":14639:14706   */\n      tag_323\n        /* \"#utility.yul\":14703:14705   */\n      0x14\n        /* \"#utility.yul\":14698:14701   */\n      dup4\n        /* \"#utility.yul\":14639:14706   */\n      tag_148\n      jump\t// in\n    tag_323:\n        /* \"#utility.yul\":14632:14706   */\n      swap2\n      pop\n        /* \"#utility.yul\":14715:14808   */\n      tag_324\n        /* \"#utility.yul\":14804:14807   */\n      dup3\n        /* \"#utility.yul\":14715:14808   */\n      tag_153\n      jump\t// in\n    tag_324:\n        /* \"#utility.yul\":14833:14835   */\n      0x20\n        /* \"#utility.yul\":14828:14831   */\n      dup3\n        /* \"#utility.yul\":14824:14836   */\n      add\n        /* \"#utility.yul\":14817:14836   */\n      swap1\n      pop\n        /* \"#utility.yul\":14476:14842   */\n      swap2\n      swap1\n      pop\n      jump\t// out\n        /* \"#utility.yul\":14848:15267   */\n    tag_38:\n        /* \"#utility.yul\":15014:15018   */\n      0x00\n        /* \"#utility.yul\":15052:15054   */\n      0x20\n        /* \"#utility.yul\":15041:15050   */\n      dup3\n        /* \"#utility.yul\":15037:15055   */\n      add\n        /* \"#utility.yul\":15029:15055   */\n      swap1\n      pop\n        /* \"#utility.yul\":15101:15110   */\n      dup2\n        /* \"#utility.yul\":15095:15099   */\n      dup2\n        /* \"#utility.yul\":15091:15111   */\n      sub\n        /* \"#utility.yul\":15087:15088   */\n      0x00\n        /* \"#utility.yul\":15076:15085   */\n      dup4\n        /* \"#utility.yul\":15072:15089   */\n      add\n        /* \"#utility.yul\":15065:15112   */\n      mstore\n        /* \"#utility.yul\":15129:15260   */\n      tag_326\n        /* \"#utility.yul\":15255:15259   */\n      dup2\n        /* \"#utility.yul\":15129:15260   */\n      tag_154\n      jump\t// in\n    tag_326:\n        /* \"#utility.yul\":15121:15260   */\n      swap1\n      pop\n        /* \"#utility.yul\":14848:15267   */\n      swap2\n      swap1\n      pop\n      jump\t// out\n        /* \"#utility.yul\":15273:15453   */\n    tag_45:\n        /* \"#utility.yul\":15321:15398   */\n      0x4e487b7100000000000000000000000000000000000000000000000000000000\n        /* \"#utility.yul\":15318:15319   */\n      0x00\n        /* \"#utility.yul\":15311:15399   */\n      mstore\n        /* \"#utility.yul\":15418:15422   */\n      0x32\n        /* \"#utility.yul\":15415:15416   */\n      0x04\n        /* \"#utility.yul\":15408:15423   */\n      mstore\n        /* \"#utility.yul\":15442:15446   */\n      0x24\n        /* \"#utility.yul\":15439:15440   */\n      0x00\n        /* \"#utility.yul\":15432:15447   */\n      revert\n        /* \"#utility.yul\":15459:15639   */\n    tag_155:\n        /* \"#utility.yul\":15507:15584   */\n      0x4e487b7100000000000000000000000000000000000000000000000000000000\n        /* \"#utility.yul\":15504:15505   */\n      0x00\n        /* \"#utility.yul\":15497:15585   */\n      mstore\n        /* \"#utility.yul\":15604:15608   */\n      0x11\n        /* \"#utility.yul\":15601:15602   */\n      0x04\n        /* \"#utility.yul\":15594:15609   */\n      mstore\n        /* \"#utility.yul\":15628:15632   */\n      0x24\n        /* \"#utility.yul\":15625:15626   */\n      0x00\n        /* \"#utility.yul\":15618:15633   */\n      revert\n        /* \"#utility.yul\":15645:15878   */\n    tag_53:\n        /* \"#utility.yul\":15684:15687   */\n      0x00\n        /* \"#utility.yul\":15707:15731   */\n      tag_330\n        /* \"#utility.yul\":15725:15730   */\n      dup3\n        /* \"#utility.yul\":15707:15731   */\n      tag_146\n      jump\t// in\n    tag_330:\n        /* \"#utility.yul\":15698:15731   */\n      swap2\n      pop\n        /* \"#utility.yul\":15753:15819   */\n      0xffffffffffffffffffffffffffffffffffffffffffffffffffffffffffffffff\n        /* \"#utility.yul\":15746:15751   */\n      dup3\n        /* \"#utility.yul\":15743:15820   */\n      sub\n        /* \"#utility.yul\":15740:15843   */\n      tag_331\n      jumpi\n        /* \"#utility.yul\":15823:15841   */\n      tag_332\n      tag_155\n      jump\t// in\n    tag_332:\n        /* \"#utility.yul\":15740:15843   */\n    tag_331:\n        /* \"#utility.yul\":15870:15871   */\n      0x01\n        /* \"#utility.yul\":15863:15868   */\n      dup3\n        /* \"#utility.yul\":15859:15872   */\n      add\n        /* \"#utility.yul\":15852:15872   */\n      swap1\n      pop\n        /* \"#utility.yul\":15645:15878   */\n      swap2\n      swap1\n      pop\n      jump\t// out\n        /* \"#utility.yul\":15884:15961   */\n    tag_156:\n        /* \"#utility.yul\":15921:15928   */\n      0x00\n        /* \"#utility.yul\":15950:15955   */\n      dup2\n        /* \"#utility.yul\":15939:15955   */\n      swap1\n      pop\n        /* \"#utility.yul\":15884:15961   */\n      swap2\n      swap1\n      pop\n      jump\t// out\n        /* \"#utility.yul\":15967:16085   */\n    tag_157:\n        /* \"#utility.yul\":16054:16078   */\n      tag_335\n        /* \"#utility.yul\":16072:16077   */\n      dup2\n        /* \"#utility.yul\":16054:16078   */\n      tag_156\n      jump\t// in\n    tag_335:\n        /* \"#utility.yul\":16049:16052   */\n      dup3\n        /* \"#utility.yul\":16042:16079   */\n      mstore\n        /* \"#utility.yul\":15967:16085   */\n      pop\n      pop\n      jump\t// out\n        /* \"#utility.yul\":16091:16177   */\n    tag_158:\n        /* \"#utility.yul\":16126:16133   */\n      0x00\n        /* \"#utility.yul\":16166:16170   */\n      0xff\n        /* \"#utility.yul\":16159:16164   */\n      dup3\n        /* \"#utility.yul\":16155:16171   */\n      and\n        /* \"#utility.yul\":16144:16171   */\n      swap1\n      pop\n        /* \"#utility.yul\":16091:16177   */\n      swap2\n      swap1\n      pop\n      jump\t// out\n        /* \"#utility.yul\":16183:16295   */\n    tag_159:\n        /* \"#utility.yul\":16266:16288   */\n      tag_338\n        /* \"#utility.yul\":16282:16287   */\n      dup2\n        /* \"#utility.yul\":16266:16288   */\n      tag_158\n      jump\t// in\n    tag_338:\n        /* \"#utility.yul\":16261:16264   */\n      dup3\n        /* \"#utility.yul\":16254:16289   */\n      mstore\n        /* \"#utility.yul\":16183:16295   */\n      pop\n      pop\n      jump\t// out\n        /* \"#utility.yul\":16301:16846   */\n    tag_60:\n        /* \"#utility.yul\":16474:16478   */\n      0x00\n        /* \"#utility.yul\":16512:16515   */\n      0x80\n        /* \"#utility.yul\":16501:16510   */\n      dup3\n        /* \"#utility.yul\":16497:16516   */\n      add\n        /* \"#utility.yul\":16489:16516   */\n      swap1\n      pop\n        /* \"#utility.yul\":16526:16597   */\n      tag_340\n        /* \"#utility.yul\":16594:16595   */\n      0x00\n        /* \"#utility.yul\":16583:16592   */\n      dup4\n        /* \"#utility.yul\":16579:16596   */\n      add\n        /* \"#utility.yul\":16570:16576   */\n      dup8\n        /* \"#utility.yul\":16526:16597   */\n      tag_157\n      jump\t// in\n    tag_340:\n        /* \"#utility.yul\":16607:16675   */\n      tag_341\n        /* \"#utility.yul\":16671:16673   */\n      0x20\n        /* \"#utility.yul\":16660:16669   */\n      dup4\n        /* \"#utility.yul\":16656:16674   */\n      add\n        /* \"#utility.yul\":16647:16653   */\n      dup7\n        /* \"#utility.yul\":16607:16675   */\n      tag_159\n      jump\t// in\n    tag_341:\n        /* \"#utility.yul\":16685:16757   */\n      tag_342\n        /* \"#utility.yul\":16753:16755   */\n      0x40\n        /* \"#utility.yul\":16742:16751   */\n      dup4\n        /* \"#utility.yul\":16738:16756   */\n      add\n        /* \"#utility.yul\":16729:16735   */\n      dup6\n        /* \"#utility.yul\":16685:16757   */\n      tag_157\n      jump\t// in\n    tag_342:\n        /* \"#utility.yul\":16767:16839   */\n      tag_343\n        /* \"#utility.yul\":16835:16837   */\n      0x60\n        /* \"#utility.yul\":16824:16833   */\n      dup4\n        /* \"#utility.yul\":16820:16838   */\n      add\n        /* \"#utility.yul\":16811:16817   */\n      dup5\n        /* \"#utility.yul\":16767:16839   */\n      tag_157\n      jump\t// in\n    tag_343:\n        /* \"#utility.yul\":16301:16846   */\n      swap6\n      swap5\n      pop\n      pop\n      pop\n      pop\n      pop\n      jump\t// out\n        /* \"#utility.yul\":16852:17019   */\n    tag_160:\n        /* \"#utility.yul\":16992:17011   */\n      0x496e76616c6964207369676e6174757265000000000000000000000000000000\n        /* \"#utility.yul\":16988:16989   */\n      0x00\n        /* \"#utility.yul\":16980:16986   */\n      dup3\n        /* \"#utility.yul\":16976:16990   */\n      add\n        /* \"#utility.yul\":16969:17012   */\n      mstore\n        /* \"#utility.yul\":16852:17019   */\n      pop\n      jump\t// out\n        /* \"#utility.yul\":17025:17391   */\n    tag_161:\n        /* \"#utility.yul\":17167:17170   */\n      0x00\n        /* \"#utility.yul\":17188:17255   */\n      tag_346\n        /* \"#utility.yul\":17252:17254   */\n      0x11\n        /* \"#utility.yul\":17247:17250   */\n      dup4\n        /* \"#utility.yul\":17188:17255   */\n      tag_148\n      jump\t// in\n    tag_346:\n        /* \"#utility.yul\":17181:17255   */\n      swap2\n      pop\n        /* \"#utility.yul\":17264:17357   */\n      tag_347\n        /* \"#utility.yul\":17353:17356   */\n      dup3\n        /* \"#utility.yul\":17264:17357   */\n      tag_160\n      jump\t// in\n    tag_347:\n        /* \"#utility.yul\":17382:17384   */\n      0x20\n        /* \"#utility.yul\":17377:17380   */\n      dup3\n        /* \"#utility.yul\":17373:17385   */\n      add\n        /* \"#utility.yul\":17366:17385   */\n      swap1\n      pop\n        /* \"#utility.yul\":17025:17391   */\n      swap2\n      swap1\n      pop\n      jump\t// out\n        /* \"#utility.yul\":17397:17816   */\n    tag_65:\n        /* \"#utility.yul\":17563:17567   */\n      0x00\n        /* \"#utility.yul\":17601:17603   */\n      0x20\n        /* \"#utility.yul\":17590:17599   */\n      dup3\n        /* \"#utility.yul\":17586:17604   */\n      add\n        /* \"#utility.yul\":17578:17604   */\n      swap1\n      pop\n        /* \"#utility.yul\":17650:17659   */\n      dup2\n        /* \"#utility.yul\":17644:17648   */\n      dup2\n        /* \"#utility.yul\":17640:17660   */\n      sub\n        /* \"#utility.yul\":17636:17637   */\n      0x00\n        /* \"#utility.yul\":17625:17634   */\n      dup4\n        /* \"#utility.yul\":17621:17638   */\n      add\n        /* \"#utility.yul\":17614:17661   */\n      mstore\n        /* \"#utility.yul\":17678:17809   */\n      tag_349\n        /* \"#utility.yul\":17804:17808   */\n      dup2\n        /* \"#utility.yul\":17678:17809   */\n      tag_161\n      jump\t// in\n    tag_349:\n        /* \"#utility.yul\":17670:17809   */\n      swap1\n      pop\n        /* \"#utility.yul\":17397:17816   */\n      swap2\n      swap1\n      pop\n      jump\t// out\n        /* \"#utility.yul\":17822:17970   */\n    tag_162:\n        /* \"#utility.yul\":17924:17935   */\n      0x00\n        /* \"#utility.yul\":17961:17964   */\n      dup2\n        /* \"#utility.yul\":17946:17964   */\n      swap1\n      pop\n        /* \"#utility.yul\":17822:17970   */\n      swap3\n      swap2\n      pop\n      pop\n      jump\t// out\n        /* \"#utility.yul\":17976:18190   */\n    tag_163:\n        /* \"#utility.yul\":18116:18182   */\n      0x19457468657265756d205369676e6564204d6573736167653a0a000000000000\n        /* \"#utility.yul\":18112:18113   */\n      0x00\n        /* \"#utility.yul\":18104:18110   */\n      dup3\n        /* \"#utility.yul\":18100:18114   */\n      add\n        /* \"#utility.yul\":18093:18183   */\n      mstore\n        /* \"#utility.yul\":17976:18190   */\n      pop\n      jump\t// out\n        /* \"#utility.yul\":18196:18598   */\n    tag_164:\n        /* \"#utility.yul\":18356:18359   */\n      0x00\n        /* \"#utility.yul\":18377:18462   */\n      tag_353\n        /* \"#utility.yul\":18459:18461   */\n      0x1a\n        /* \"#utility.yul\":18454:18457   */\n      dup4\n        /* \"#utility.yul\":18377:18462   */\n      tag_162\n      jump\t// in\n    tag_353:\n        /* \"#utility.yul\":18370:18462   */\n      swap2\n      pop\n        /* \"#utility.yul\":18471:18564   */\n      tag_354\n        /* \"#utility.yul\":18560:18563   */\n      dup3\n        /* \"#utility.yul\":18471:18564   */\n      tag_163\n      jump\t// in\n    tag_354:\n        /* \"#utility.yul\":18589:18591   */\n      0x1a\n        /* \"#utility.yul\":18584:18587   */\n      dup3\n        /* \"#utility.yul\":18580:18592   */\n      add\n        /* \"#utility.yul\":18573:18592   */\n      swap1\n      pop\n        /* \"#utility.yul\":18196:18598   */\n      swap2\n      swap1\n      pop\n      jump\t// out\n        /* \"#utility.yul\":18604:18703   */\n    tag_165:\n        /* \"#utility.yul\":18656:18662   */\n      0x00\n        /* \"#utility.yul\":18690:18695   */\n      dup2\n        /* \"#utility.yul\":18684:18696   */\n      mload\n        /* \"#utility.yul\":18674:18696   */\n      swap1\n      pop\n        /* \"#utility.yul\":18604:18703   */\n      swap2\n      swap1\n      pop\n      jump\t// out\n        /* \"#utility.yul\":18709:18955   */\n    tag_166:\n        /* \"#utility.yul\":18790:18791   */\n      0x00\n        /* \"#utility.yul\":18800:18913   */\n    tag_357:\n        /* \"#utility.yul\":18814:18820   */\n      dup4\n        /* \"#utility.yul\":18811:18812   */\n      dup2\n        /* \"#utility.yul\":18808:18821   */\n      lt\n        /* \"#utility.yul\":18800:18913   */\n      iszero\n      tag_359\n      jumpi\n        /* \"#utility.yul\":18899:18900   */\n      dup1\n        /* \"#utility.yul\":18894:18897   */\n      dup3\n        /* \"#utility.yul\":18890:18901   */\n      add\n        /* \"#utility.yul\":18884:18902   */\n      mload\n        /* \"#utility.yul\":18880:18881   */\n      dup2\n        /* \"#utility.yul\":18875:18878   */\n      dup5\n        /* \"#utility.yul\":18871:18882   */\n      add\n        /* \"#utility.yul\":18864:18903   */\n      mstore\n        /* \"#utility.yul\":18836:18838   */\n      0x20\n        /* \"#utility.yul\":18833:18834   */\n      dup2\n        /* \"#utility.yul\":18829:18839   */\n      add\n        /* \"#utility.yul\":18824:18839   */\n      swap1\n      pop\n        /* \"#utility.yul\":18800:18913   */\n      jump(tag_357)\n    tag_359:\n        /* \"#utility.yul\":18947:18948   */\n      0x00\n        /* \"#utility.yul\":18938:18944   */\n      dup5\n        /* \"#utility.yul\":18933:18936   */\n      dup5\n        /* \"#utility.yul\":18929:18945   */\n      add\n        /* \"#utility.yul\":18922:18949   */\n      mstore\n        /* \"#utility.yul\":18771:18955   */\n      pop\n        /* \"#utility.yul\":18709:18955   */\n      pop\n      pop\n      pop\n      jump\t// out\n        /* \"#utility.yul\":18961:19351   */\n    tag_167:\n        /* \"#utility.yul\":19067:19070   */\n      0x00\n        /* \"#utility.yul\":19095:19134   */\n      tag_361\n        /* \"#utility.yul\":19128:19133   */\n      dup3\n        /* \"#utility.yul\":19095:19134   */\n      tag_165\n      jump\t// in\n    tag_361:\n        /* \"#utility.yul\":19150:19239   */\n      tag_362\n        /* \"#utility.yul\":19232:19238   */\n      dup2\n        /* \"#utility.yul\":19227:19230   */\n      dup6\n        /* \"#utility.yul\":19150:19239   */\n      tag_162\n      jump\t// in\n    tag_362:\n        /* \"#utility.yul\":19143:19239   */\n      swap4\n      pop\n        /* \"#utility.yul\":19248:19313   */\n      tag_363\n        /* \"#utility.yul\":19306:19312   */\n      dup2\n        /* \"#utility.yul\":19301:19304   */\n      dup6\n        /* \"#utility.yul\":19294:19298   */\n      0x20\n        /* \"#utility.yul\":19287:19292   */\n      dup7\n        /* \"#utility.yul\":19283:19299   */\n      add\n        /* \"#utility.yul\":19248:19313   */\n      tag_166\n      jump\t// in\n    tag_363:\n        /* \"#utility.yul\":19338:19344   */\n      dup1\n        /* \"#utility.yul\":19333:19336   */\n      dup5\n        /* \"#utility.yul\":19329:19345   */\n      add\n        /* \"#utility.yul\":19322:19345   */\n      swap2\n      pop\n        /* \"#utility.yul\":19071:19351   */\n      pop\n        /* \"#utility.yul\":18961:19351   */\n      swap3\n      swap2\n      pop\n      pop\n      jump\t// out\n        /* \"#utility.yul\":19357:20058   */\n    tag_71:\n        /* \"#utility.yul\":19638:19641   */\n      0x00\n        /* \"#utility.yul\":19660:19808   */\n      tag_365\n        /* \"#utility.yul\":19804:19807   */\n      dup3\n        /* \"#utility.yul\":19660:19808   */\n      tag_164\n      jump\t// in\n    tag_365:\n        /* \"#utility.yul\":19653:19808   */\n      swap2\n      pop\n        /* \"#utility.yul\":19825:19920   */\n      tag_366\n        /* \"#utility.yul\":19916:19919   */\n      dup3\n        /* \"#utility.yul\":19907:19913   */\n      dup6\n        /* \"#utility.yul\":19825:19920   */\n      tag_167\n      jump\t// in\n    tag_366:\n        /* \"#utility.yul\":19818:19920   */\n      swap2\n      pop\n        /* \"#utility.yul\":19937:20032   */\n      tag_367\n        /* \"#utility.yul\":20028:20031   */\n      dup3\n        /* \"#utility.yul\":20019:20025   */\n      dup5\n        /* \"#utility.yul\":19937:20032   */\n      tag_167\n      jump\t// in\n    tag_367:\n        /* \"#utility.yul\":19930:20032   */\n      swap2\n      pop\n        /* \"#utility.yul\":20049:20052   */\n      dup2\n        /* \"#utility.yul\":20042:20052   */\n      swap1\n      pop\n        /* \"#utility.yul\":19357:20058   */\n      swap4\n      swap3\n      pop\n      pop\n      pop\n      jump\t// out\n        /* \"#utility.yul\":20064:20238   */\n    tag_168:\n        /* \"#utility.yul\":20204:20230   */\n      0x496e76616c6964207369676e6174757265206c656e6774680000000000000000\n        /* \"#utility.yul\":20200:20201   */\n      0x00\n        /* \"#utility.yul\":20192:20198   */\n      dup3\n        /* \"#utility.yul\":20188:20202   */\n      add\n        /* \"#utility.yul\":20181:20231   */\n      mstore\n        /* \"#utility.yul\":20064:20238   */\n      pop\n      jump\t// out\n        /* \"#utility.yul\":20244:20610   */\n    tag_169:\n        /* \"#utility.yul\":20386:20389   */\n      0x00\n        /* \"#utility.yul\":20407:20474   */\n      tag_370\n        /* \"#utility.yul\":20471:20473   */\n      0x18\n        /* \"#utility.yul\":20466:20469   */\n      dup4\n        /* \"#utility.yul\":20407:20474   */\n      tag_148\n      jump\t// in\n    tag_370:\n        /* \"#utility.yul\":20400:20474   */\n      swap2\n      pop\n        /* \"#utility.yul\":20483:20576   */\n      tag_371\n        /* \"#utility.yul\":20572:20575   */\n      dup3\n        /* \"#utility.yul\":20483:20576   */\n      tag_168\n      jump\t// in\n    tag_371:\n        /* \"#utility.yul\":20601:20603   */\n      0x20\n        /* \"#utility.yul\":20596:20599   */\n      dup3\n        /* \"#utility.yul\":20592:20604   */\n      add\n        /* \"#utility.yul\":20585:20604   */\n      swap1\n      pop\n        /* \"#utility.yul\":20244:20610   */\n      swap2\n      swap1\n      pop\n      jump\t// out\n        /* \"#utility.yul\":20616:21035   */\n    tag_75:\n        /* \"#utility.yul\":20782:20786   */\n      0x00\n        /* \"#utility.yul\":20820:20822   */\n      0x20\n        /* \"#utility.yul\":20809:20818   */\n      dup3\n        /* \"#utility.yul\":20805:20823   */\n      add\n        /* \"#utility.yul\":20797:20823   */\n      swap1\n      pop\n        /* \"#utility.yul\":20869:20878   */\n      dup2\n        /* \"#utility.yul\":20863:20867   */\n      dup2\n        /* \"#utility.yul\":20859:20879   */\n      sub\n        /* \"#utility.yul\":20855:20856   */\n      0x00\n        /* \"#utility.yul\":20844:20853   */\n      dup4\n        /* \"#utility.yul\":20840:20857   */\n      add\n        /* \"#utility.yul\":20833:20880   */\n      mstore\n        /* \"#utility.yul\":20897:21028   */\n      tag_373\n        /* \"#utility.yul\":21023:21027   */\n      dup2\n        /* \"#utility.yul\":20897:21028   */\n      tag_169\n      jump\t// in\n    tag_373:\n        /* \"#utility.yul\":20889:21028   */\n      swap1\n      pop\n        /* \"#utility.yul\":20616:21035   */\n      swap2\n      swap1\n      pop\n      jump\t// out\n        /* \"#utility.yul\":21041:21229   */\n    tag_78:\n        /* \"#utility.yul\":21079:21082   */\n      0x00\n        /* \"#utility.yul\":21098:21116   */\n      tag_375\n        /* \"#utility.yul\":21114:21115   */\n      dup3\n        /* \"#utility.yul\":21098:21116   */\n      tag_158\n      jump\t// in\n    tag_375:\n        /* \"#utility.yul\":21093:21116   */\n      swap2\n      pop\n        /* \"#utility.yul\":21130:21148   */\n      tag_376\n        /* \"#utility.yul\":21146:21147   */\n      dup4\n        /* \"#utility.yul\":21130:21148   */\n      tag_158\n      jump\t// in\n    tag_376:\n        /* \"#utility.yul\":21125:21148   */\n      swap3\n      pop\n        /* \"#utility.yul\":21171:21172   */\n      dup3\n        /* \"#utility.yul\":21168:21169   */\n      dup3\n        /* \"#utility.yul\":21164:21173   */\n      add\n        /* \"#utility.yul\":21157:21173   */\n      swap1\n      pop\n        /* \"#utility.yul\":21194:21198   */\n      0xff\n        /* \"#utility.yul\":21189:21192   */\n      dup2\n        /* \"#utility.yul\":21186:21199   */\n      gt\n        /* \"#utility.yul\":21183:21222   */\n      iszero\n      tag_377\n      jumpi\n        /* \"#utility.yul\":21202:21220   */\n      tag_378\n      tag_155\n      jump\t// in\n    tag_378:\n        /* \"#utility.yul\":21183:21222   */\n    tag_377:\n        /* \"#utility.yul\":21041:21229   */\n      swap3\n      swap2\n      pop\n      pop\n      jump\t// out\n        /* \"#utility.yul\":21235:21410   */\n    tag_170:\n        /* \"#utility.yul\":21375:21402   */\n      0x496e76616c6964207369676e61747572652076657273696f6e00000000000000\n        /* \"#utility.yul\":21371:21372   */\n      0x00\n        /* \"#utility.yul\":21363:21369   */\n      dup3\n        /* \"#utility.yul\":21359:21373   */\n      add\n        /* \"#utility.yul\":21352:21403   */\n      mstore\n        /* \"#utility.yul\":21235:21410   */\n      pop\n      jump\t// out\n        /* \"#utility.yul\":21416:21782   */\n    tag_171:\n        /* \"#utility.yul\":21558:21561   */\n      0x00\n        /* \"#utility.yul\":21579:21646   */\n      tag_381\n        /* \"#utility.yul\":21643:21645   */\n      0x19\n        /* \"#utility.yul\":21638:21641   */\n      dup4\n        /* \"#utility.yul\":21579:21646   */\n      tag_148\n      jump\t// in\n    tag_381:\n        /* \"#utility.yul\":21572:21646   */\n      swap2\n      pop\n        /* \"#utility.yul\":21655:21748   */\n      tag_382\n        /* \"#utility.yul\":21744:21747   */\n      dup3\n        /* \"#utility.yul\":21655:21748   */\n      tag_170\n      jump\t// in\n    tag_382:\n        /* \"#utility.yul\":21773:21775   */\n      0x20\n        /* \"#utility.yul\":21768:21771   */\n      dup3\n        /* \"#utility.yul\":21764:21776   */\n      add\n        /* \"#utility.yul\":21757:21776   */\n      swap1\n      pop\n        /* \"#utility.yul\":21416:21782   */\n      swap2\n      swap1\n      pop\n      jump\t// out\n        /* \"#utility.yul\":21788:22207   */\n    tag_82:\n        /* \"#utility.yul\":21954:21958   */\n      0x00\n        /* \"#utility.yul\":21992:21994   */\n      0x20\n        /* \"#utility.yul\":21981:21990   */\n      dup3\n        /* \"#utility.yul\":21977:21995   */\n      add\n        /* \"#utility.yul\":21969:21995   */\n      swap1\n      pop\n        /* \"#utility.yul\":22041:22050   */\n      dup2\n        /* \"#utility.yul\":22035:22039   */\n      dup2\n        /* \"#utility.yul\":22031:22051   */\n      sub\n        /* \"#utility.yul\":22027:22028   */\n      0x00\n        /* \"#utility.yul\":22016:22025   */\n      dup4\n        /* \"#utility.yul\":22012:22029   */\n      add\n        /* \"#utility.yul\":22005:22052   */\n      mstore\n        /* \"#utility.yul\":22069:22200   */\n      tag_384\n        /* \"#utility.yul\":22195:22199   */\n      dup2\n        /* \"#utility.yul\":22069:22200   */\n      tag_171\n      jump\t// in\n    tag_384:\n        /* \"#utility.yul\":22061:22200   */\n      swap1\n      pop\n        /* \"#utility.yul\":21788:22207   */\n      swap2\n      swap1\n      pop\n      jump\t// out\n        /* \"#utility.yul\":22213:22393   */\n    tag_94:\n        /* \"#utility.yul\":22261:22338   */\n      0x4e487b7100000000000000000000000000000000000000000000000000000000\n        /* \"#utility.yul\":22258:22259   */\n      0x00\n        /* \"#utility.yul\":22251:22339   */\n      mstore\n        /* \"#utility.yul\":22358:22362   */\n      0x12\n        /* \"#utility.yul\":22355:22356   */\n      0x04\n        /* \"#utility.yul\":22348:22363   */\n      mstore\n        /* \"#utility.yul\":22382:22386   */\n      0x24\n        /* \"#utility.yul\":22379:22380   */\n      0x00\n        /* \"#utility.yul\":22372:22387   */\n      revert\n\n    auxdata: 0xa264697066735822122034b0a6348cd71fe727edcf00b065364e9a77666c65c1287e2a03087e1209998a64736f6c63430008140033\n}\n",
				"bytecode": {
					"linkReferences": {},
					"object": "608060405234801561000f575f80fd5b50335f806101000a81548173ffffffffffffffffffffffffffffffffffffffff021916908373ffffffffffffffffffffffffffffffffffffffff1602179055506112778061005c5f395ff3fe608060405260043610610042575f3560e01c80638da5cb5b1461004d57806395db67e41461007757806395e0e0c914610093578063eca7ed0a146100bb57610049565b3661004957005b5f80fd5b348015610058575f80fd5b506100616100e5565b60405161006e919061075a565b60405180910390f35b610091600480360381019061008c9190610c08565b610108565b005b34801561009e575f80fd5b506100b960048036038101906100b49190610cac565b610305565b005b3480156100c6575f80fd5b506100cf6103e5565b6040516100dc9190610d4c565b60405180910390f35b5f8054906101000a900473ffffffffffffffffffffffffffffffffffffffff1681565b5f8054906101000a900473ffffffffffffffffffffffffffffffffffffffff1673ffffffffffffffffffffffffffffffffffffffff163373ffffffffffffffffffffffffffffffffffffffff1614610195576040517f08c379a000000000000000000000000000000000000000000000000000000000815260040161018c90610dbf565b60405180910390fd5b815183511480156101a7575080518351145b6101e6576040517f08c379a00000000000000000000000000000000000000000000000000000000081526004016101dd90610e27565b60405180910390fd5b60328351111561022b576040517f08c379a000000000000000000000000000000000000000000000000000000000815260040161022290610e8f565b60405180910390fd5b5f5b83518110156102ff5761028f84828151811061024c5761024b610ead565b5b602002602001015183838151811061026757610266610ead565b5b602002602001015185848151811061028257610281610ead565b5b6020026020010151610305565b8381815181106102a2576102a1610ead565b5b602002602001015173ffffffffffffffffffffffffffffffffffffffff167f78f048a4a5986309c511acbfc093d06c834685823625e9d42e6a75da34fbd0a460405160405180910390a280806102f790610f07565b91505061022d565b50505050565b5f61030f836103ec565b90505f805f61031d8561042b565b9250925092506001848285856040515f81526020016040526040516103459493929190610f81565b6020604051602081039080840390855afa158015610365573d5f803e3d5ffd5b5050506020604051035173ffffffffffffffffffffffffffffffffffffffff168773ffffffffffffffffffffffffffffffffffffffff16146103dc576040517f08c379a00000000000000000000000000000000000000000000000000000000081526004016103d39061100e565b60405180910390fd5b50505050505050565b5f5a905090565b5f80825190506103fb81610500565b8360405160200161040d9291906110e2565b60405160208183030381529060405280519060200120915050919050565b5f805f6041845114610472576040517f08c379a00000000000000000000000000000000000000000000000000000000081526004016104699061115a565b60405180910390fd5b602084015192506040840151915060608401515f1a9050601b8160ff1610156104a557601b816104a29190611178565b90505b601b8160ff1614806104ba5750601c8160ff16145b6104f9576040517f08c379a00000000000000000000000000000000000000000000000000000000081526004016104f0906111f6565b60405180910390fd5b9193909250565b60605f600161050e846105ca565b0190505f8167ffffffffffffffff81111561052c5761052b610798565b5b6040519080825280601f01601f19166020018201604052801561055e5781602001600182028036833780820191505090505b5090505f82602001820190505b6001156105bf578080600190039150507f3031323334353637383961626364656600000000000000000000000000000000600a86061a8153600a85816105b4576105b3611214565b5b0494505f850361056b575b819350505050919050565b5f805f90507a184f03e93ff9f4daa797ed6e38ed64bf6a1f0100000000000000008310610626577a184f03e93ff9f4daa797ed6e38ed64bf6a1f010000000000000000838161061c5761061b611214565b5b0492506040810190505b6d04ee2d6d415b85acef81000000008310610663576d04ee2d6d415b85acef8100000000838161065957610658611214565b5b0492506020810190505b662386f26fc10000831061069257662386f26fc10000838161068857610687611214565b5b0492506010810190505b6305f5e10083106106bb576305f5e10083816106b1576106b0611214565b5b0492506008810190505b61271083106106e05761271083816106d6576106d5611214565b5b0492506004810190505b6064831061070357606483816106f9576106f8611214565b5b0492506002810190505b600a8310610712576001810190505b80915050919050565b5f73ffffffffffffffffffffffffffffffffffffffff82169050919050565b5f6107448261071b565b9050919050565b6107548161073a565b82525050565b5f60208201905061076d5f83018461074b565b92915050565b5f604051905090565b5f80fd5b5f80fd5b5f80fd5b5f601f19601f8301169050919050565b7f4e487b71000000000000000000000000000000000000000000000000000000005f52604160045260245ffd5b6107ce82610788565b810181811067ffffffffffffffff821117156107ed576107ec610798565b5b80604052505050565b5f6107ff610773565b905061080b82826107c5565b919050565b5f67ffffffffffffffff82111561082a57610829610798565b5b602082029050602081019050919050565b5f80fd5b6108488161073a565b8114610852575f80fd5b50565b5f813590506108638161083f565b92915050565b5f61087b61087684610810565b6107f6565b9050808382526020820190506020840283018581111561089e5761089d61083b565b5b835b818110156108c757806108b38882610855565b8452602084019350506020810190506108a0565b5050509392505050565b5f82601f8301126108e5576108e4610784565b5b81356108f5848260208601610869565b91505092915050565b5f67ffffffffffffffff82111561091857610917610798565b5b602082029050602081019050919050565b5f80fd5b5f67ffffffffffffffff82111561094757610946610798565b5b61095082610788565b9050602081019050919050565b828183375f83830152505050565b5f61097d6109788461092d565b6107f6565b90508281526020810184848401111561099957610998610929565b5b6109a484828561095d565b509392505050565b5f82601f8301126109c0576109bf610784565b5b81356109d084826020860161096b565b91505092915050565b5f6109eb6109e6846108fe565b6107f6565b90508083825260208201905060208402830185811115610a0e57610a0d61083b565b5b835b81811015610a5557803567ffffffffffffffff811115610a3357610a32610784565b5b808601610a4089826109ac565b85526020850194505050602081019050610a10565b5050509392505050565b5f82601f830112610a7357610a72610784565b5b8135610a838482602086016109d9565b91505092915050565b5f67ffffffffffffffff821115610aa657610aa5610798565b5b602082029050602081019050919050565b5f67ffffffffffffffff821115610ad157610ad0610798565b5b610ada82610788565b9050602081019050919050565b5f610af9610af484610ab7565b6107f6565b905082815260208101848484011115610b1557610b14610929565b5b610b2084828561095d565b509392505050565b5f82601f830112610b3c57610b3b610784565b5b8135610b4c848260208601610ae7565b91505092915050565b5f610b67610b6284610a8c565b6107f6565b90508083825260208201905060208402830185811115610b8a57610b8961083b565b5b835b81811015610bd157803567ffffffffffffffff811115610baf57610bae610784565b5b808601610bbc8982610b28565b85526020850194505050602081019050610b8c565b5050509392505050565b5f82601f830112610bef57610bee610784565b5b8135610bff848260208601610b55565b91505092915050565b5f805f60608486031215610c1f57610c1e61077c565b5b5f84013567ffffffffffffffff811115610c3c57610c3b610780565b5b610c48868287016108d1565b935050602084013567ffffffffffffffff811115610c6957610c68610780565b5b610c7586828701610a5f565b925050604084013567ffffffffffffffff811115610c9657610c95610780565b5b610ca286828701610bdb565b9150509250925092565b5f805f60608486031215610cc357610cc261077c565b5b5f610cd086828701610855565b935050602084013567ffffffffffffffff811115610cf157610cf0610780565b5b610cfd86828701610b28565b925050604084013567ffffffffffffffff811115610d1e57610d1d610780565b5b610d2a868287016109ac565b9150509250925092565b5f819050919050565b610d4681610d34565b82525050565b5f602082019050610d5f5f830184610d3d565b92915050565b5f82825260208201905092915050565b7f496e76616c69642063616c6c65720000000000000000000000000000000000005f82015250565b5f610da9600e83610d65565b9150610db482610d75565b602082019050919050565b5f6020820190508181035f830152610dd681610d9d565b9050919050565b7f496e76616c696420696e707574000000000000000000000000000000000000005f82015250565b5f610e11600d83610d65565b9150610e1c82610ddd565b602082019050919050565b5f6020820190508181035f830152610e3e81610e05565b9050919050565b7f42617463682073697a6520746f6f206c617267650000000000000000000000005f82015250565b5f610e79601483610d65565b9150610e8482610e45565b602082019050919050565b5f6020820190508181035f830152610ea681610e6d565b9050919050565b7f4e487b71000000000000000000000000000000000000000000000000000000005f52603260045260245ffd5b7f4e487b71000000000000000000000000000000000000000000000000000000005f52601160045260245ffd5b5f610f1182610d34565b91507fffffffffffffffffffffffffffffffffffffffffffffffffffffffffffffffff8203610f4357610f42610eda565b5b600182019050919050565b5f819050919050565b610f6081610f4e565b82525050565b5f60ff82169050919050565b610f7b81610f66565b82525050565b5f608082019050610f945f830187610f57565b610fa16020830186610f72565b610fae6040830185610f57565b610fbb6060830184610f57565b95945050505050565b7f496e76616c6964207369676e61747572650000000000000000000000000000005f82015250565b5f610ff8601183610d65565b915061100382610fc4565b602082019050919050565b5f6020820190508181035f83015261102581610fec565b9050919050565b5f81905092915050565b7f19457468657265756d205369676e6564204d6573736167653a0a0000000000005f82015250565b5f61106a601a8361102c565b915061107582611036565b601a82019050919050565b5f81519050919050565b5f5b838110156110a757808201518184015260208101905061108c565b5f8484015250505050565b5f6110bc82611080565b6110c6818561102c565b93506110d681856020860161108a565b80840191505092915050565b5f6110ec8261105e565b91506110f882856110b2565b915061110482846110b2565b91508190509392505050565b7f496e76616c6964207369676e6174757265206c656e67746800000000000000005f82015250565b5f611144601883610d65565b915061114f82611110565b602082019050919050565b5f6020820190508181035f83015261117181611138565b9050919050565b5f61118282610f66565b915061118d83610f66565b9250828201905060ff8111156111a6576111a5610eda565b5b92915050565b7f496e76616c6964207369676e61747572652076657273696f6e000000000000005f82015250565b5f6111e0601983610d65565b91506111eb826111ac565b602082019050919050565b5f6020820190508181035f83015261120d816111d4565b9050919050565b7f4e487b71000000000000000000000000000000000000000000000000000000005f52601260045260245ffdfea264697066735822122034b0a6348cd71fe727edcf00b065364e9a77666c65c1287e2a03087e1209998a64736f6c63430008140033",
					"opcodes": "PUSH1 0x80 PUSH1 0x40 MSTORE CALLVALUE DUP1 ISZERO PUSH2 0xF JUMPI PUSH0 DUP1 REVERT JUMPDEST POP CALLER PUSH0 DUP1 PUSH2 0x100 EXP DUP2 SLOAD DUP2 PUSH20 0xFFFFFFFFFFFFFFFFFFFFFFFFFFFFFFFFFFFFFFFF MUL NOT AND SWAP1 DUP4 PUSH20 0xFFFFFFFFFFFFFFFFFFFFFFFFFFFFFFFFFFFFFFFF AND MUL OR SWAP1 SSTORE POP PUSH2 0x1277 DUP1 PUSH2 0x5C PUSH0 CODECOPY PUSH0 RETURN INVALID PUSH1 0x80 PUSH1 0x40 MSTORE PUSH1 0x4 CALLDATASIZE LT PUSH2 0x42 JUMPI PUSH0 CALLDATALOAD PUSH1 0xE0 SHR DUP1 PUSH4 0x8DA5CB5B EQ PUSH2 0x4D JUMPI DUP1 PUSH4 0x95DB67E4 EQ PUSH2 0x77 JUMPI DUP1 PUSH4 0x95E0E0C9 EQ PUSH2 0x93 JUMPI DUP1 PUSH4 0xECA7ED0A EQ PUSH2 0xBB JUMPI PUSH2 0x49 JUMP JUMPDEST CALLDATASIZE PUSH2 0x49 JUMPI STOP JUMPDEST PUSH0 DUP1 REVERT JUMPDEST CALLVALUE DUP1 ISZERO PUSH2 0x58 JUMPI PUSH0 DUP1 REVERT JUMPDEST POP PUSH2 0x61 PUSH2 0xE5 JUMP JUMPDEST PUSH1 0x40 MLOAD PUSH2 0x6E SWAP2 SWAP1 PUSH2 0x75A JUMP JUMPDEST PUSH1 0x40 MLOAD DUP1 SWAP2 SUB SWAP1 RETURN JUMPDEST PUSH2 0x91 PUSH1 0x4 DUP1 CALLDATASIZE SUB DUP2 ADD SWAP1 PUSH2 0x8C SWAP2 SWAP1 PUSH2 0xC08 JUMP JUMPDEST PUSH2 0x108 JUMP JUMPDEST STOP JUMPDEST CALLVALUE DUP1 ISZERO PUSH2 0x9E JUMPI PUSH0 DUP1 REVERT JUMPDEST POP PUSH2 0xB9 PUSH1 0x4 DUP1 CALLDATASIZE SUB DUP2 ADD SWAP1 PUSH2 0xB4 SWAP2 SWAP1 PUSH2 0xCAC JUMP JUMPDEST PUSH2 0x305 JUMP JUMPDEST STOP JUMPDEST CALLVALUE DUP1 ISZERO PUSH2 0xC6 JUMPI PUSH0 DUP1 REVERT JUMPDEST POP PUSH2 0xCF PUSH2 0x3E5 JUMP JUMPDEST PUSH1 0x40 MLOAD PUSH2 0xDC SWAP2 SWAP1 PUSH2 0xD4C JUMP JUMPDEST PUSH1 0x40 MLOAD DUP1 SWAP2 SUB SWAP1 RETURN JUMPDEST PUSH0 DUP1 SLOAD SWAP1 PUSH2 0x100 EXP SWAP1 DIV PUSH20 0xFFFFFFFFFFFFFFFFFFFFFFFFFFFFFFFFFFFFFFFF AND DUP2 JUMP JUMPDEST PUSH0 DUP1 SLOAD SWAP1 PUSH2 0x100 EXP SWAP1 DIV PUSH20 0xFFFFFFFFFFFFFFFFFFFFFFFFFFFFFFFFFFFFFFFF AND PUSH20 0xFFFFFFFFFFFFFFFFFFFFFFFFFFFFFFFFFFFFFFFF AND CALLER PUSH20 0xFFFFFFFFFFFFFFFFFFFFFFFFFFFFFFFFFFFFFFFF AND EQ PUSH2 0x195 JUMPI PUSH1 0x40 MLOAD PUSH32 0x8C379A000000000000000000000000000000000000000000000000000000000 DUP2 MSTORE PUSH1 0x4 ADD PUSH2 0x18C SWAP1 PUSH2 0xDBF JUMP JUMPDEST PUSH1 0x40 MLOAD DUP1 SWAP2 SUB SWAP1 REVERT JUMPDEST DUP2 MLOAD DUP4 MLOAD EQ DUP1 ISZERO PUSH2 0x1A7 JUMPI POP DUP1 MLOAD DUP4 MLOAD EQ JUMPDEST PUSH2 0x1E6 JUMPI PUSH1 0x40 MLOAD PUSH32 0x8C379A000000000000000000000000000000000000000000000000000000000 DUP2 MSTORE PUSH1 0x4 ADD PUSH2 0x1DD SWAP1 PUSH2 0xE27 JUMP JUMPDEST PUSH1 0x40 MLOAD DUP1 SWAP2 SUB SWAP1 REVERT JUMPDEST PUSH1 0x32 DUP4 MLOAD GT ISZERO PUSH2 0x22B JUMPI PUSH1 0x40 MLOAD PUSH32 0x8C379A000000000000000000000000000000000000000000000000000000000 DUP2 MSTORE PUSH1 0x4 ADD PUSH2 0x222 SWAP1 PUSH2 0xE8F JUMP JUMPDEST PUSH1 0x40 MLOAD DUP1 SWAP2 SUB SWAP1 REVERT JUMPDEST PUSH0 JUMPDEST DUP4 MLOAD DUP2 LT ISZERO PUSH2 0x2FF JUMPI PUSH2 0x28F DUP5 DUP3 DUP2 MLOAD DUP2 LT PUSH2 0x24C JUMPI PUSH2 0x24B PUSH2 0xEAD JUMP JUMPDEST JUMPDEST PUSH1 0x20 MUL PUSH1 0x20 ADD ADD MLOAD DUP4 DUP4 DUP2 MLOAD DUP2 LT PUSH2 0x267 JUMPI PUSH2 0x266 PUSH2 0xEAD JUMP JUMPDEST JUMPDEST PUSH1 0x20 MUL PUSH1 0x20 ADD ADD MLOAD DUP6 DUP5 DUP2 MLOAD DUP2 LT PUSH2 0x282 JUMPI PUSH2 0x281 PUSH2 0xEAD JUMP JUMPDEST JUMPDEST PUSH1 0x20 MUL PUSH1 0x20 ADD ADD MLOAD PUSH2 0x305 JUMP JUMPDEST DUP4 DUP2 DUP2 MLOAD DUP2 LT PUSH2 0x2A2 JUMPI PUSH2 0x2A1 PUSH2 0xEAD JUMP JUMPDEST JUMPDEST PUSH1 0x20 MUL PUSH1 0x20 ADD ADD MLOAD PUSH20 0xFFFFFFFFFFFFFFFFFFFFFFFFFFFFFFFFFFFFFFFF AND PUSH32 0x78F048A4A5986309C511ACBFC093D06C834685823625E9D42E6A75DA34FBD0A4 PUSH1 0x40 MLOAD PUSH1 0x40 MLOAD DUP1 SWAP2 SUB SWAP1 LOG2 DUP1 DUP1 PUSH2 0x2F7 SWAP1 PUSH2 0xF07 JUMP JUMPDEST SWAP2 POP POP PUSH2 0x22D JUMP JUMPDEST POP POP POP POP JUMP JUMPDEST PUSH0 PUSH2 0x30F DUP4 PUSH2 0x3EC JUMP JUMPDEST SWAP1 POP PUSH0 DUP1 PUSH0 PUSH2 0x31D DUP6 PUSH2 0x42B JUMP JUMPDEST SWAP3 POP SWAP3 POP SWAP3 POP PUSH1 0x1 DUP5 DUP3 DUP6 DUP6 PUSH1 0x40 MLOAD PUSH0 DUP2 MSTORE PUSH1 0x20 ADD PUSH1 0x40 MSTORE PUSH1 0x40 MLOAD PUSH2 0x345 SWAP5 SWAP4 SWAP3 SWAP2 SWAP1 PUSH2 0xF81 JUMP JUMPDEST PUSH1 0x20 PUSH1 0x40 MLOAD PUSH1 0x20 DUP2 SUB SWAP1 DUP1 DUP5 SUB SWAP1 DUP6 GAS STATICCALL ISZERO DUP1 ISZERO PUSH2 0x365 JUMPI RETURNDATASIZE PUSH0 DUP1 RETURNDATACOPY RETURNDATASIZE PUSH0 REVERT JUMPDEST POP POP POP PUSH1 0x20 PUSH1 0x40 MLOAD SUB MLOAD PUSH20 0xFFFFFFFFFFFFFFFFFFFFFFFFFFFFFFFFFFFFFFFF AND DUP8 PUSH20 0xFFFFFFFFFFFFFFFFFFFFFFFFFFFFFFFFFFFFFFFF AND EQ PUSH2 0x3DC JUMPI PUSH1 0x40 MLOAD PUSH32 0x8C379A000000000000000000000000000000000000000000000000000000000 DUP2 MSTORE PUSH1 0x4 ADD PUSH2 0x3D3 SWAP1 PUSH2 0x100E JUMP JUMPDEST PUSH1 0x40 MLOAD DUP1 SWAP2 SUB SWAP1 REVERT JUMPDEST POP POP POP POP POP POP POP JUMP JUMPDEST PUSH0 GAS SWAP1 POP SWAP1 JUMP JUMPDEST PUSH0 DUP1 DUP3 MLOAD SWAP1 POP PUSH2 0x3FB DUP2 PUSH2 0x500 JUMP JUMPDEST DUP4 PUSH1 0x40 MLOAD PUSH1 0x20 ADD PUSH2 0x40D SWAP3 SWAP2 SWAP1 PUSH2 0x10E2 JUMP JUMPDEST PUSH1 0x40 MLOAD PUSH1 0x20 DUP2 DUP4 SUB SUB DUP2 MSTORE SWAP1 PUSH1 0x40 MSTORE DUP1 MLOAD SWAP1 PUSH1 0x20 ADD KECCAK256 SWAP2 POP POP SWAP2 SWAP1 POP JUMP JUMPDEST PUSH0 DUP1 PUSH0 PUSH1 0x41 DUP5 MLOAD EQ PUSH2 0x472 JUMPI PUSH1 0x40 MLOAD PUSH32 0x8C379A000000000000000000000000000000000000000000000000000000000 DUP2 MSTORE PUSH1 0x4 ADD PUSH2 0x469 SWAP1 PUSH2 0x115A JUMP JUMPDEST PUSH1 0x40 MLOAD DUP1 SWAP2 SUB SWAP1 REVERT JUMPDEST PUSH1 0x20 DUP5 ADD MLOAD SWAP3 POP PUSH1 0x40 DUP5 ADD MLOAD SWAP2 POP PUSH1 0x60 DUP5 ADD MLOAD PUSH0 BYTE SWAP1 POP PUSH1 0x1B DUP2 PUSH1 0xFF AND LT ISZERO PUSH2 0x4A5 JUMPI PUSH1 0x1B DUP2 PUSH2 0x4A2 SWAP2 SWAP1 PUSH2 0x1178 JUMP JUMPDEST SWAP1 POP JUMPDEST PUSH1 0x1B DUP2 PUSH1 0xFF AND EQ DUP1 PUSH2 0x4BA JUMPI POP PUSH1 0x1C DUP2 PUSH1 0xFF AND EQ JUMPDEST PUSH2 0x4F9 JUMPI PUSH1 0x40 MLOAD PUSH32 0x8C379A000000000000000000000000000000000000000000000000000000000 DUP2 MSTORE PUSH1 0x4 ADD PUSH2 0x4F0 SWAP1 PUSH2 0x11F6 JUMP JUMPDEST PUSH1 0x40 MLOAD DUP1 SWAP2 SUB SWAP1 REVERT JUMPDEST SWAP2 SWAP4 SWAP1 SWAP3 POP JUMP JUMPDEST PUSH1 0x60 PUSH0 PUSH1 0x1 PUSH2 0x50E DUP5 PUSH2 0x5CA JUMP JUMPDEST ADD SWAP1 POP PUSH0 DUP2 PUSH8 0xFFFFFFFFFFFFFFFF DUP2 GT ISZERO PUSH2 0x52C JUMPI PUSH2 0x52B PUSH2 0x798 JUMP JUMPDEST JUMPDEST PUSH1 0x40 MLOAD SWAP1 DUP1 DUP3 MSTORE DUP1 PUSH1 0x1F ADD PUSH1 0x1F NOT AND PUSH1 0x20 ADD DUP3 ADD PUSH1 0x40 MSTORE DUP1 ISZERO PUSH2 0x55E JUMPI DUP2 PUSH1 0x20 ADD PUSH1 0x1 DUP3 MUL DUP1 CALLDATASIZE DUP4 CALLDATACOPY DUP1 DUP3 ADD SWAP2 POP POP SWAP1 POP JUMPDEST POP SWAP1 POP PUSH0 DUP3 PUSH1 0x20 ADD DUP3 ADD SWAP1 POP JUMPDEST PUSH1 0x1 ISZERO PUSH2 0x5BF JUMPI DUP1 DUP1 PUSH1 0x1 SWAP1 SUB SWAP2 POP POP PUSH32 0x3031323334353637383961626364656600000000000000000000000000000000 PUSH1 0xA DUP7 MOD BYTE DUP2 MSTORE8 PUSH1 0xA DUP6 DUP2 PUSH2 0x5B4 JUMPI PUSH2 0x5B3 PUSH2 0x1214 JUMP JUMPDEST JUMPDEST DIV SWAP5 POP PUSH0 DUP6 SUB PUSH2 0x56B JUMPI JUMPDEST DUP2 SWAP4 POP POP POP POP SWAP2 SWAP1 POP JUMP JUMPDEST PUSH0 DUP1 PUSH0 SWAP1 POP PUSH27 0x184F03E93FF9F4DAA797ED6E38ED64BF6A1F010000000000000000 DUP4 LT PUSH2 0x626 JUMPI PUSH27 0x184F03E93FF9F4DAA797ED6E38ED64BF6A1F010000000000000000 DUP4 DUP2 PUSH2 0x61C JUMPI PUSH2 0x61B PUSH2 0x1214 JUMP JUMPDEST JUMPDEST DIV SWAP3 POP PUSH1 0x40 DUP2 ADD SWAP1 POP JUMPDEST PUSH14 0x4EE2D6D415B85ACEF8100000000 DUP4 LT PUSH2 0x663 JUMPI PUSH14 0x4EE2D6D415B85ACEF8100000000 DUP4 DUP2 PUSH2 0x659 JUMPI PUSH2 0x658 PUSH2 0x1214 JUMP JUMPDEST JUMPDEST DIV SWAP3 POP PUSH1 0x20 DUP2 ADD SWAP1 POP JUMPDEST PUSH7 0x2386F26FC10000 DUP4 LT PUSH2 0x692 JUMPI PUSH7 0x2386F26FC10000 DUP4 DUP2 PUSH2 0x688 JUMPI PUSH2 0x687 PUSH2 0x1214 JUMP JUMPDEST JUMPDEST DIV SWAP3 POP PUSH1 0x10 DUP2 ADD SWAP1 POP JUMPDEST PUSH4 0x5F5E100 DUP4 LT PUSH2 0x6BB JUMPI PUSH4 0x5F5E100 DUP4 DUP2 PUSH2 0x6B1 JUMPI PUSH2 0x6B0 PUSH2 0x1214 JUMP JUMPDEST JUMPDEST DIV SWAP3 POP PUSH1 0x8 DUP2 ADD SWAP1 POP JUMPDEST PUSH2 0x2710 DUP4 LT PUSH2 0x6E0 JUMPI PUSH2 0x2710 DUP4 DUP2 PUSH2 0x6D6 JUMPI PUSH2 0x6D5 PUSH2 0x1214 JUMP JUMPDEST JUMPDEST DIV SWAP3 POP PUSH1 0x4 DUP2 ADD SWAP1 POP JUMPDEST PUSH1 0x64 DUP4 LT PUSH2 0x703 JUMPI PUSH1 0x64 DUP4 DUP2 PUSH2 0x6F9 JUMPI PUSH2 0x6F8 PUSH2 0x1214 JUMP JUMPDEST JUMPDEST DIV SWAP3 POP PUSH1 0x2 DUP2 ADD SWAP1 POP JUMPDEST PUSH1 0xA DUP4 LT PUSH2 0x712 JUMPI PUSH1 0x1 DUP2 ADD SWAP1 POP JUMPDEST DUP1 SWAP2 POP POP SWAP2 SWAP1 POP JUMP JUMPDEST PUSH0 PUSH20 0xFFFFFFFFFFFFFFFFFFFFFFFFFFFFFFFFFFFFFFFF DUP3 AND SWAP1 POP SWAP2 SWAP1 POP JUMP JUMPDEST PUSH0 PUSH2 0x744 DUP3 PUSH2 0x71B JUMP JUMPDEST SWAP1 POP SWAP2 SWAP1 POP JUMP JUMPDEST PUSH2 0x754 DUP2 PUSH2 0x73A JUMP JUMPDEST DUP3 MSTORE POP POP JUMP JUMPDEST PUSH0 PUSH1 0x20 DUP3 ADD SWAP1 POP PUSH2 0x76D PUSH0 DUP4 ADD DUP5 PUSH2 0x74B JUMP JUMPDEST SWAP3 SWAP2 POP POP JUMP JUMPDEST PUSH0 PUSH1 0x40 MLOAD SWAP1 POP SWAP1 JUMP JUMPDEST PUSH0 DUP1 REVERT JUMPDEST PUSH0 DUP1 REVERT JUMPDEST PUSH0 DUP1 REVERT JUMPDEST PUSH0 PUSH1 0x1F NOT PUSH1 0x1F DUP4 ADD AND SWAP1 POP SWAP2 SWAP1 POP JUMP JUMPDEST PUSH32 0x4E487B7100000000000000000000000000000000000000000000000000000000 PUSH0 MSTORE PUSH1 0x41 PUSH1 0x4 MSTORE PUSH1 0x24 PUSH0 REVERT JUMPDEST PUSH2 0x7CE DUP3 PUSH2 0x788 JUMP JUMPDEST DUP2 ADD DUP2 DUP2 LT PUSH8 0xFFFFFFFFFFFFFFFF DUP3 GT OR ISZERO PUSH2 0x7ED JUMPI PUSH2 0x7EC PUSH2 0x798 JUMP JUMPDEST JUMPDEST DUP1 PUSH1 0x40 MSTORE POP POP POP JUMP JUMPDEST PUSH0 PUSH2 0x7FF PUSH2 0x773 JUMP JUMPDEST SWAP1 POP PUSH2 0x80B DUP3 DUP3 PUSH2 0x7C5 JUMP JUMPDEST SWAP2 SWAP1 POP JUMP JUMPDEST PUSH0 PUSH8 0xFFFFFFFFFFFFFFFF DUP3 GT ISZERO PUSH2 0x82A JUMPI PUSH2 0x829 PUSH2 0x798 JUMP JUMPDEST JUMPDEST PUSH1 0x20 DUP3 MUL SWAP1 POP PUSH1 0x20 DUP2 ADD SWAP1 POP SWAP2 SWAP1 POP JUMP JUMPDEST PUSH0 DUP1 REVERT JUMPDEST PUSH2 0x848 DUP2 PUSH2 0x73A JUMP JUMPDEST DUP2 EQ PUSH2 0x852 JUMPI PUSH0 DUP1 REVERT JUMPDEST POP JUMP JUMPDEST PUSH0 DUP2 CALLDATALOAD SWAP1 POP PUSH2 0x863 DUP2 PUSH2 0x83F JUMP JUMPDEST SWAP3 SWAP2 POP POP JUMP JUMPDEST PUSH0 PUSH2 0x87B PUSH2 0x876 DUP5 PUSH2 0x810 JUMP JUMPDEST PUSH2 0x7F6 JUMP JUMPDEST SWAP1 POP DUP1 DUP4 DUP3 MSTORE PUSH1 0x20 DUP3 ADD SWAP1 POP PUSH1 0x20 DUP5 MUL DUP4 ADD DUP6 DUP2 GT ISZERO PUSH2 0x89E JUMPI PUSH2 0x89D PUSH2 0x83B JUMP JUMPDEST JUMPDEST DUP4 JUMPDEST DUP2 DUP2 LT ISZERO PUSH2 0x8C7 JUMPI DUP1 PUSH2 0x8B3 DUP9 DUP3 PUSH2 0x855 JUMP JUMPDEST DUP5 MSTORE PUSH1 0x20 DUP5 ADD SWAP4 POP POP PUSH1 0x20 DUP2 ADD SWAP1 POP PUSH2 0x8A0 JUMP JUMPDEST POP POP POP SWAP4 SWAP3 POP POP POP JUMP JUMPDEST PUSH0 DUP3 PUSH1 0x1F DUP4 ADD SLT PUSH2 0x8E5 JUMPI PUSH2 0x8E4 PUSH2 0x784 JUMP JUMPDEST JUMPDEST DUP2 CALLDATALOAD PUSH2 0x8F5 DUP5 DUP3 PUSH1 0x20 DUP7 ADD PUSH2 0x869 JUMP JUMPDEST SWAP2 POP POP SWAP3 SWAP2 POP POP JUMP JUMPDEST PUSH0 PUSH8 0xFFFFFFFFFFFFFFFF DUP3 GT ISZERO PUSH2 0x918 JUMPI PUSH2 0x917 PUSH2 0x798 JUMP JUMPDEST JUMPDEST PUSH1 0x20 DUP3 MUL SWAP1 POP PUSH1 0x20 DUP2 ADD SWAP1 POP SWAP2 SWAP1 POP JUMP JUMPDEST PUSH0 DUP1 REVERT JUMPDEST PUSH0 PUSH8 0xFFFFFFFFFFFFFFFF DUP3 GT ISZERO PUSH2 0x947 JUMPI PUSH2 0x946 PUSH2 0x798 JUMP JUMPDEST JUMPDEST PUSH2 0x950 DUP3 PUSH2 0x788 JUMP JUMPDEST SWAP1 POP PUSH1 0x20 DUP2 ADD SWAP1 POP SWAP2 SWAP1 POP JUMP JUMPDEST DUP3 DUP2 DUP4 CALLDATACOPY PUSH0 DUP4 DUP4 ADD MSTORE POP POP POP JUMP JUMPDEST PUSH0 PUSH2 0x97D PUSH2 0x978 DUP5 PUSH2 0x92D JUMP JUMPDEST PUSH2 0x7F6 JUMP JUMPDEST SWAP1 POP DUP3 DUP2 MSTORE PUSH1 0x20 DUP2 ADD DUP5 DUP5 DUP5 ADD GT ISZERO PUSH2 0x999 JUMPI PUSH2 0x998 PUSH2 0x929 JUMP JUMPDEST JUMPDEST PUSH2 0x9A4 DUP5 DUP3 DUP6 PUSH2 0x95D JUMP JUMPDEST POP SWAP4 SWAP3 POP POP POP JUMP JUMPDEST PUSH0 DUP3 PUSH1 0x1F DUP4 ADD SLT PUSH2 0x9C0 JUMPI PUSH2 0x9BF PUSH2 0x784 JUMP JUMPDEST JUMPDEST DUP2 CALLDATALOAD PUSH2 0x9D0 DUP5 DUP3 PUSH1 0x20 DUP7 ADD PUSH2 0x96B JUMP JUMPDEST SWAP2 POP POP SWAP3 SWAP2 POP POP JUMP JUMPDEST PUSH0 PUSH2 0x9EB PUSH2 0x9E6 DUP5 PUSH2 0x8FE JUMP JUMPDEST PUSH2 0x7F6 JUMP JUMPDEST SWAP1 POP DUP1 DUP4 DUP3 MSTORE PUSH1 0x20 DUP3 ADD SWAP1 POP PUSH1 0x20 DUP5 MUL DUP4 ADD DUP6 DUP2 GT ISZERO PUSH2 0xA0E JUMPI PUSH2 0xA0D PUSH2 0x83B JUMP JUMPDEST JUMPDEST DUP4 JUMPDEST DUP2 DUP2 LT ISZERO PUSH2 0xA55 JUMPI DUP1 CALLDATALOAD PUSH8 0xFFFFFFFFFFFFFFFF DUP2 GT ISZERO PUSH2 0xA33 JUMPI PUSH2 0xA32 PUSH2 0x784 JUMP JUMPDEST JUMPDEST DUP1 DUP7 ADD PUSH2 0xA40 DUP10 DUP3 PUSH2 0x9AC JUMP JUMPDEST DUP6 MSTORE PUSH1 0x20 DUP6 ADD SWAP5 POP POP POP PUSH1 0x20 DUP2 ADD SWAP1 POP PUSH2 0xA10 JUMP JUMPDEST POP POP POP SWAP4 SWAP3 POP POP POP JUMP JUMPDEST PUSH0 DUP3 PUSH1 0x1F DUP4 ADD SLT PUSH2 0xA73 JUMPI PUSH2 0xA72 PUSH2 0x784 JUMP JUMPDEST JUMPDEST DUP2 CALLDATALOAD PUSH2 0xA83 DUP5 DUP3 PUSH1 0x20 DUP7 ADD PUSH2 0x9D9 JUMP JUMPDEST SWAP2 POP POP SWAP3 SWAP2 POP POP JUMP JUMPDEST PUSH0 PUSH8 0xFFFFFFFFFFFFFFFF DUP3 GT ISZERO PUSH2 0xAA6 JUMPI PUSH2 0xAA5 PUSH2 0x798 JUMP JUMPDEST JUMPDEST PUSH1 0x20 DUP3 MUL SWAP1 POP PUSH1 0x20 DUP2 ADD SWAP1 POP SWAP2 SWAP1 POP JUMP JUMPDEST PUSH0 PUSH8 0xFFFFFFFFFFFFFFFF DUP3 GT ISZERO PUSH2 0xAD1 JUMPI PUSH2 0xAD0 PUSH2 0x798 JUMP JUMPDEST JUMPDEST PUSH2 0xADA DUP3 PUSH2 0x788 JUMP JUMPDEST SWAP1 POP PUSH1 0x20 DUP2 ADD SWAP1 POP SWAP2 SWAP1 POP JUMP JUMPDEST PUSH0 PUSH2 0xAF9 PUSH2 0xAF4 DUP5 PUSH2 0xAB7 JUMP JUMPDEST PUSH2 0x7F6 JUMP JUMPDEST SWAP1 POP DUP3 DUP2 MSTORE PUSH1 0x20 DUP2 ADD DUP5 DUP5 DUP5 ADD GT ISZERO PUSH2 0xB15 JUMPI PUSH2 0xB14 PUSH2 0x929 JUMP JUMPDEST JUMPDEST PUSH2 0xB20 DUP5 DUP3 DUP6 PUSH2 0x95D JUMP JUMPDEST POP SWAP4 SWAP3 POP POP POP JUMP JUMPDEST PUSH0 DUP3 PUSH1 0x1F DUP4 ADD SLT PUSH2 0xB3C JUMPI PUSH2 0xB3B PUSH2 0x784 JUMP JUMPDEST JUMPDEST DUP2 CALLDATALOAD PUSH2 0xB4C DUP5 DUP3 PUSH1 0x20 DUP7 ADD PUSH2 0xAE7 JUMP JUMPDEST SWAP2 POP POP SWAP3 SWAP2 POP POP JUMP JUMPDEST PUSH0 PUSH2 0xB67 PUSH2 0xB62 DUP5 PUSH2 0xA8C JUMP JUMPDEST PUSH2 0x7F6 JUMP JUMPDEST SWAP1 POP DUP1 DUP4 DUP3 MSTORE PUSH1 0x20 DUP3 ADD SWAP1 POP PUSH1 0x20 DUP5 MUL DUP4 ADD DUP6 DUP2 GT ISZERO PUSH2 0xB8A JUMPI PUSH2 0xB89 PUSH2 0x83B JUMP JUMPDEST JUMPDEST DUP4 JUMPDEST DUP2 DUP2 LT ISZERO PUSH2 0xBD1 JUMPI DUP1 CALLDATALOAD PUSH8 0xFFFFFFFFFFFFFFFF DUP2 GT ISZERO PUSH2 0xBAF JUMPI PUSH2 0xBAE PUSH2 0x784 JUMP JUMPDEST JUMPDEST DUP1 DUP7 ADD PUSH2 0xBBC DUP10 DUP3 PUSH2 0xB28 JUMP JUMPDEST DUP6 MSTORE PUSH1 0x20 DUP6 ADD SWAP5 POP POP POP PUSH1 0x20 DUP2 ADD SWAP1 POP PUSH2 0xB8C JUMP JUMPDEST POP POP POP SWAP4 SWAP3 POP POP POP JUMP JUMPDEST PUSH0 DUP3 PUSH1 0x1F DUP4 ADD SLT PUSH2 0xBEF JUMPI PUSH2 0xBEE PUSH2 0x784 JUMP JUMPDEST JUMPDEST DUP2 CALLDATALOAD PUSH2 0xBFF DUP5 DUP3 PUSH1 0x20 DUP7 ADD PUSH2 0xB55 JUMP JUMPDEST SWAP2 POP POP SWAP3 SWAP2 POP POP JUMP JUMPDEST PUSH0 DUP1 PUSH0 PUSH1 0x60 DUP5 DUP7 SUB SLT ISZERO PUSH2 0xC1F JUMPI PUSH2 0xC1E PUSH2 0x77C JUMP JUMPDEST JUMPDEST PUSH0 DUP5 ADD CALLDATALOAD PUSH8 0xFFFFFFFFFFFFFFFF DUP2 GT ISZERO PUSH2 0xC3C JUMPI PUSH2 0xC3B PUSH2 0x780 JUMP JUMPDEST JUMPDEST PUSH2 0xC48 DUP7 DUP3 DUP8 ADD PUSH2 0x8D1 JUMP JUMPDEST SWAP4 POP POP PUSH1 0x20 DUP5 ADD CALLDATALOAD PUSH8 0xFFFFFFFFFFFFFFFF DUP2 GT ISZERO PUSH2 0xC69 JUMPI PUSH2 0xC68 PUSH2 0x780 JUMP JUMPDEST JUMPDEST PUSH2 0xC75 DUP7 DUP3 DUP8 ADD PUSH2 0xA5F JUMP JUMPDEST SWAP3 POP POP PUSH1 0x40 DUP5 ADD CALLDATALOAD PUSH8 0xFFFFFFFFFFFFFFFF DUP2 GT ISZERO PUSH2 0xC96 JUMPI PUSH2 0xC95 PUSH2 0x780 JUMP JUMPDEST JUMPDEST PUSH2 0xCA2 DUP7 DUP3 DUP8 ADD PUSH2 0xBDB JUMP JUMPDEST SWAP2 POP POP SWAP3 POP SWAP3 POP SWAP3 JUMP JUMPDEST PUSH0 DUP1 PUSH0 PUSH1 0x60 DUP5 DUP7 SUB SLT ISZERO PUSH2 0xCC3 JUMPI PUSH2 0xCC2 PUSH2 0x77C JUMP JUMPDEST JUMPDEST PUSH0 PUSH2 0xCD0 DUP7 DUP3 DUP8 ADD PUSH2 0x855 JUMP JUMPDEST SWAP4 POP POP PUSH1 0x20 DUP5 ADD CALLDATALOAD PUSH8 0xFFFFFFFFFFFFFFFF DUP2 GT ISZERO PUSH2 0xCF1 JUMPI PUSH2 0xCF0 PUSH2 0x780 JUMP JUMPDEST JUMPDEST PUSH2 0xCFD DUP7 DUP3 DUP8 ADD PUSH2 0xB28 JUMP JUMPDEST SWAP3 POP POP PUSH1 0x40 DUP5 ADD CALLDATALOAD PUSH8 0xFFFFFFFFFFFFFFFF DUP2 GT ISZERO PUSH2 0xD1E JUMPI PUSH2 0xD1D PUSH2 0x780 JUMP JUMPDEST JUMPDEST PUSH2 0xD2A DUP7 DUP3 DUP8 ADD PUSH2 0x9AC JUMP JUMPDEST SWAP2 POP POP SWAP3 POP SWAP3 POP SWAP3 JUMP JUMPDEST PUSH0 DUP2 SWAP1 POP SWAP2 SWAP1 POP JUMP JUMPDEST PUSH2 0xD46 DUP2 PUSH2 0xD34 JUMP JUMPDEST DUP3 MSTORE POP POP JUMP JUMPDEST PUSH0 PUSH1 0x20 DUP3 ADD SWAP1 POP PUSH2 0xD5F PUSH0 DUP4 ADD DUP5 PUSH2 0xD3D JUMP JUMPDEST SWAP3 SWAP2 POP POP JUMP JUMPDEST PUSH0 DUP3 DUP3 MSTORE PUSH1 0x20 DUP3 ADD SWAP1 POP SWAP3 SWAP2 POP POP JUMP JUMPDEST PUSH32 0x496E76616C69642063616C6C6572000000000000000000000000000000000000 PUSH0 DUP3 ADD MSTORE POP JUMP JUMPDEST PUSH0 PUSH2 0xDA9 PUSH1 0xE DUP4 PUSH2 0xD65 JUMP JUMPDEST SWAP2 POP PUSH2 0xDB4 DUP3 PUSH2 0xD75 JUMP JUMPDEST PUSH1 0x20 DUP3 ADD SWAP1 POP SWAP2 SWAP1 POP JUMP JUMPDEST PUSH0 PUSH1 0x20 DUP3 ADD SWAP1 POP DUP2 DUP2 SUB PUSH0 DUP4 ADD MSTORE PUSH2 0xDD6 DUP2 PUSH2 0xD9D JUMP JUMPDEST SWAP1 POP SWAP2 SWAP1 POP JUMP JUMPDEST PUSH32 0x496E76616C696420696E70757400000000000000000000000000000000000000 PUSH0 DUP3 ADD MSTORE POP JUMP JUMPDEST PUSH0 PUSH2 0xE11 PUSH1 0xD DUP4 PUSH2 0xD65 JUMP JUMPDEST SWAP2 POP PUSH2 0xE1C DUP3 PUSH2 0xDDD JUMP JUMPDEST PUSH1 0x20 DUP3 ADD SWAP1 POP SWAP2 SWAP1 POP JUMP JUMPDEST PUSH0 PUSH1 0x20 DUP3 ADD SWAP1 POP DUP2 DUP2 SUB PUSH0 DUP4 ADD MSTORE PUSH2 0xE3E DUP2 PUSH2 0xE05 JUMP JUMPDEST SWAP1 POP SWAP2 SWAP1 POP JUMP JUMPDEST PUSH32 0x42617463682073697A6520746F6F206C61726765000000000000000000000000 PUSH0 DUP3 ADD MSTORE POP JUMP JUMPDEST PUSH0 PUSH2 0xE79 PUSH1 0x14 DUP4 PUSH2 0xD65 JUMP JUMPDEST SWAP2 POP PUSH2 0xE84 DUP3 PUSH2 0xE45 JUMP JUMPDEST PUSH1 0x20 DUP3 ADD SWAP1 POP SWAP2 SWAP1 POP JUMP JUMPDEST PUSH0 PUSH1 0x20 DUP3 ADD SWAP1 POP DUP2 DUP2 SUB PUSH0 DUP4 ADD MSTORE PUSH2 0xEA6 DUP2 PUSH2 0xE6D JUMP JUMPDEST SWAP1 POP SWAP2 SWAP1 POP JUMP JUMPDEST PUSH32 0x4E487B7100000000000000000000000000000000000000000000000000000000 PUSH0 MSTORE PUSH1 0x32 PUSH1 0x4 MSTORE PUSH1 0x24 PUSH0 REVERT JUMPDEST PUSH32 0x4E487B7100000000000000000000000000000000000000000000000000000000 PUSH0 MSTORE PUSH1 0x11 PUSH1 0x4 MSTORE PUSH1 0x24 PUSH0 REVERT JUMPDEST PUSH0 PUSH2 0xF11 DUP3 PUSH2 0xD34 JUMP JUMPDEST SWAP2 POP PUSH32 0xFFFFFFFFFFFFFFFFFFFFFFFFFFFFFFFFFFFFFFFFFFFFFFFFFFFFFFFFFFFFFFFF DUP3 SUB PUSH2 0xF43 JUMPI PUSH2 0xF42 PUSH2 0xEDA JUMP JUMPDEST JUMPDEST PUSH1 0x1 DUP3 ADD SWAP1 POP SWAP2 SWAP1 POP JUMP JUMPDEST PUSH0 DUP2 SWAP1 POP SWAP2 SWAP1 POP JUMP JUMPDEST PUSH2 0xF60 DUP2 PUSH2 0xF4E JUMP JUMPDEST DUP3 MSTORE POP POP JUMP JUMPDEST PUSH0 PUSH1 0xFF DUP3 AND SWAP1 POP SWAP2 SWAP1 POP JUMP JUMPDEST PUSH2 0xF7B DUP2 PUSH2 0xF66 JUMP JUMPDEST DUP3 MSTORE POP POP JUMP JUMPDEST PUSH0 PUSH1 0x80 DUP3 ADD SWAP1 POP PUSH2 0xF94 PUSH0 DUP4 ADD DUP8 PUSH2 0xF57 JUMP JUMPDEST PUSH2 0xFA1 PUSH1 0x20 DUP4 ADD DUP7 PUSH2 0xF72 JUMP JUMPDEST PUSH2 0xFAE PUSH1 0x40 DUP4 ADD DUP6 PUSH2 0xF57 JUMP JUMPDEST PUSH2 0xFBB PUSH1 0x60 DUP4 ADD DUP5 PUSH2 0xF57 JUMP JUMPDEST SWAP6 SWAP5 POP POP POP POP POP JUMP JUMPDEST PUSH32 0x496E76616C6964207369676E6174757265000000000000000000000000000000 PUSH0 DUP3 ADD MSTORE POP JUMP JUMPDEST PUSH0 PUSH2 0xFF8 PUSH1 0x11 DUP4 PUSH2 0xD65 JUMP JUMPDEST SWAP2 POP PUSH2 0x1003 DUP3 PUSH2 0xFC4 JUMP JUMPDEST PUSH1 0x20 DUP3 ADD SWAP1 POP SWAP2 SWAP1 POP JUMP JUMPDEST PUSH0 PUSH1 0x20 DUP3 ADD SWAP1 POP DUP2 DUP2 SUB PUSH0 DUP4 ADD MSTORE PUSH2 0x1025 DUP2 PUSH2 0xFEC JUMP JUMPDEST SWAP1 POP SWAP2 SWAP1 POP JUMP JUMPDEST PUSH0 DUP2 SWAP1 POP SWAP3 SWAP2 POP POP JUMP JUMPDEST PUSH32 0x19457468657265756D205369676E6564204D6573736167653A0A000000000000 PUSH0 DUP3 ADD MSTORE POP JUMP JUMPDEST PUSH0 PUSH2 0x106A PUSH1 0x1A DUP4 PUSH2 0x102C JUMP JUMPDEST SWAP2 POP PUSH2 0x1075 DUP3 PUSH2 0x1036 JUMP JUMPDEST PUSH1 0x1A DUP3 ADD SWAP1 POP SWAP2 SWAP1 POP JUMP JUMPDEST PUSH0 DUP2 MLOAD SWAP1 POP SWAP2 SWAP1 POP JUMP JUMPDEST PUSH0 JUMPDEST DUP4 DUP2 LT ISZERO PUSH2 0x10A7 JUMPI DUP1 DUP3 ADD MLOAD DUP2 DUP5 ADD MSTORE PUSH1 0x20 DUP2 ADD SWAP1 POP PUSH2 0x108C JUMP JUMPDEST PUSH0 DUP5 DUP5 ADD MSTORE POP POP POP POP JUMP JUMPDEST PUSH0 PUSH2 0x10BC DUP3 PUSH2 0x1080 JUMP JUMPDEST PUSH2 0x10C6 DUP2 DUP6 PUSH2 0x102C JUMP JUMPDEST SWAP4 POP PUSH2 0x10D6 DUP2 DUP6 PUSH1 0x20 DUP7 ADD PUSH2 0x108A JUMP JUMPDEST DUP1 DUP5 ADD SWAP2 POP POP SWAP3 SWAP2 POP POP JUMP JUMPDEST PUSH0 PUSH2 0x10EC DUP3 PUSH2 0x105E JUMP JUMPDEST SWAP2 POP PUSH2 0x10F8 DUP3 DUP6 PUSH2 0x10B2 JUMP JUMPDEST SWAP2 POP PUSH2 0x1104 DUP3 DUP5 PUSH2 0x10B2 JUMP JUMPDEST SWAP2 POP DUP2 SWAP1 POP SWAP4 SWAP3 POP POP POP JUMP JUMPDEST PUSH32 0x496E76616C6964207369676E6174757265206C656E6774680000000000000000 PUSH0 DUP3 ADD MSTORE POP JUMP JUMPDEST PUSH0 PUSH2 0x1144 PUSH1 0x18 DUP4 PUSH2 0xD65 JUMP JUMPDEST SWAP2 POP PUSH2 0x114F DUP3 PUSH2 0x1110 JUMP JUMPDEST PUSH1 0x20 DUP3 ADD SWAP1 POP SWAP2 SWAP1 POP JUMP JUMPDEST PUSH0 PUSH1 0x20 DUP3 ADD SWAP1 POP DUP2 DUP2 SUB PUSH0 DUP4 ADD MSTORE PUSH2 0x1171 DUP2 PUSH2 0x1138 JUMP JUMPDEST SWAP1 POP SWAP2 SWAP1 POP JUMP JUMPDEST PUSH0 PUSH2 0x1182 DUP3 PUSH2 0xF66 JUMP JUMPDEST SWAP2 POP PUSH2 0x118D DUP4 PUSH2 0xF66 JUMP JUMPDEST SWAP3 POP DUP3 DUP3 ADD SWAP1 POP PUSH1 0xFF DUP2 GT ISZERO PUSH2 0x11A6 JUMPI PUSH2 0x11A5 PUSH2 0xEDA JUMP JUMPDEST JUMPDEST SWAP3 SWAP2 POP POP JUMP JUMPDEST PUSH32 0x496E76616C6964207369676E61747572652076657273696F6E00000000000000 PUSH0 DUP3 ADD MSTORE POP JUMP JUMPDEST PUSH0 PUSH2 0x11E0 PUSH1 0x19 DUP4 PUSH2 0xD65 JUMP JUMPDEST SWAP2 POP PUSH2 0x11EB DUP3 PUSH2 0x11AC JUMP JUMPDEST PUSH1 0x20 DUP3 ADD SWAP1 POP SWAP2 SWAP1 POP JUMP JUMPDEST PUSH0 PUSH1 0x20 DUP3 ADD SWAP1 POP DUP2 DUP2 SUB PUSH0 DUP4 ADD MSTORE PUSH2 0x120D DUP2 PUSH2 0x11D4 JUMP JUMPDEST SWAP1 POP SWAP2 SWAP1 POP JUMP JUMPDEST PUSH32 0x4E487B7100000000000000000000000000000000000000000000000000000000 PUSH0 MSTORE PUSH1 0x12 PUSH1 0x4 MSTORE PUSH1 0x24 PUSH0 REVERT INVALID LOG2 PUSH5 0x6970667358 0x22 SLT KECCAK256 CALLVALUE 0xB0 0xA6 CALLVALUE DUP13 0xD7 0x1F 0xE7 0x27 0xED 0xCF STOP 0xB0 PUSH6 0x364E9A77666C PUSH6 0xC1287E2A0308 PUSH31 0x1209998A64736F6C6343000814003300000000000000000000000000000000 "
				},
				"gasEstimates": {
					"creation": {
						"codeDepositCost": "945400",
						"executionCost": "25244",
						"totalCost": "970644"
					},
					"external": {
						"checkGas()": "375",
						"owner()": "2483",
						"processBatchTransactions(address[],bytes[],string[])": "infinite",
						"signTransaction(address,string,bytes)": "infinite"
					},
					"internal": {
						"getEthSignMsgHash(string memory)": "infinite",
						"splitSign(bytes memory)": "infinite"
					}
				},
				"methodIdentifiers": {
					"checkGas()": "eca7ed0a",
					"owner()": "8da5cb5b",
					"processBatchTransactions(address[],bytes[],string[])": "95db67e4",
					"signTransaction(address,string,bytes)": "95e0e0c9"
				}
			},
			"storageLayout": {
				"storage": [
					{
						"astId": 1418,
						"contract": "frontend/src/contracts/MetaTransaction.sol:MetaTransaction",
						"label": "owner",
						"offset": 0,
						"slot": "0",
						"type": "t_address"
					}
				],
				"types": {
					"t_address": {
						"encoding": "inplace",
						"label": "address",
						"numberOfBytes": "20"
					}
				}
			},
			"userdoc": {
				"kind": "user",
				"methods": {},
				"version": 1
			}
		}
	}
}