{
	"data": {
		"bytecode": {
			"linkReferences": {},
			"object": "608060405234801561000f575f80fd5b503360015f6101000a81548173ffffffffffffffffffffffffffffffffffffffff021916908373ffffffffffffffffffffffffffffffffffffffff1602179055506114638061005d5f395ff3fe608060405260043610610058575f3560e01c80638da5cb5b14610063578063956236411461008d57806395db67e4146100b757806395e0e0c9146100d3578063eca7ed0a146100fb578063fae92612146101255761005f565b3661005f57005b5f80fd5b34801561006e575f80fd5b5061007761014d565b60405161008491906108b8565b60405180910390f35b348015610098575f80fd5b506100a1610172565b6040516100ae91906108f1565b60405180910390f35b6100d160048036038101906100cc9190610d9f565b610195565b005b3480156100de575f80fd5b506100f960048036038101906100f49190610e43565b610392565b005b348015610106575f80fd5b5061010f610472565b60405161011c9190610ee3565b60405180910390f35b348015610130575f80fd5b5061014b60048036038101906101469190610f26565b610479565b005b60015f9054906101000a900473ffffffffffffffffffffffffffffffffffffffff1681565b5f8054906101000a900473ffffffffffffffffffffffffffffffffffffffff1681565b5f8054906101000a900473ffffffffffffffffffffffffffffffffffffffff1673ffffffffffffffffffffffffffffffffffffffff163373ffffffffffffffffffffffffffffffffffffffff1614610222576040517f08c379a000000000000000000000000000000000000000000000000000000000815260040161021990610fab565b60405180910390fd5b81518351148015610234575080518351145b610273576040517f08c379a000000000000000000000000000000000000000000000000000000000815260040161026a90611013565b60405180910390fd5b6032835111156102b8576040517f08c379a00000000000000000000000000000000000000000000000000000000081526004016102af9061107b565b60405180910390fd5b5f5b835181101561038c5761031c8482815181106102d9576102d8611099565b5b60200260200101518383815181106102f4576102f3611099565b5b602002602001015185848151811061030f5761030e611099565b5b6020026020010151610392565b83818151811061032f5761032e611099565b5b602002602001015173ffffffffffffffffffffffffffffffffffffffff167f78f048a4a5986309c511acbfc093d06c834685823625e9d42e6a75da34fbd0a460405160405180910390a28080610384906110f3565b9150506102ba565b50505050565b5f61039c8361054a565b90505f805f6103aa85610589565b9250925092506001848285856040515f81526020016040526040516103d2949392919061116d565b6020604051602081039080840390855afa1580156103f2573d5f803e3d5ffd5b5050506020604051035173ffffffffffffffffffffffffffffffffffffffff168773ffffffffffffffffffffffffffffffffffffffff1614610469576040517f08c379a0000000000000000000000000000000000000000000000000000000008152600401610460906111fa565b60405180910390fd5b50505050505050565b5f5a905090565b60015f9054906101000a900473ffffffffffffffffffffffffffffffffffffffff1673ffffffffffffffffffffffffffffffffffffffff163373ffffffffffffffffffffffffffffffffffffffff1614610508576040517f08c379a00000000000000000000000000000000000000000000000000000000081526004016104ff90610fab565b60405180910390fd5b805f806101000a81548173ffffffffffffffffffffffffffffffffffffffff021916908373ffffffffffffffffffffffffffffffffffffffff16021790555050565b5f80825190506105598161065e565b8360405160200161056b9291906112ce565b60405160208183030381529060405280519060200120915050919050565b5f805f60418451146105d0576040517f08c379a00000000000000000000000000000000000000000000000000000000081526004016105c790611346565b60405180910390fd5b602084015192506040840151915060608401515f1a9050601b8160ff16101561060357601b816106009190611364565b90505b601b8160ff1614806106185750601c8160ff16145b610657576040517f08c379a000000000000000000000000000000000000000000000000000000000815260040161064e906113e2565b60405180910390fd5b9193909250565b60605f600161066c84610728565b0190505f8167ffffffffffffffff81111561068a5761068961092f565b5b6040519080825280601f01601f1916602001820160405280156106bc5781602001600182028036833780820191505090505b5090505f82602001820190505b60011561071d578080600190039150507f3031323334353637383961626364656600000000000000000000000000000000600a86061a8153600a858161071257610711611400565b5b0494505f85036106c9575b819350505050919050565b5f805f90507a184f03e93ff9f4daa797ed6e38ed64bf6a1f0100000000000000008310610784577a184f03e93ff9f4daa797ed6e38ed64bf6a1f010000000000000000838161077a57610779611400565b5b0492506040810190505b6d04ee2d6d415b85acef810000000083106107c1576d04ee2d6d415b85acef810000000083816107b7576107b6611400565b5b0492506020810190505b662386f26fc1000083106107f057662386f26fc1000083816107e6576107e5611400565b5b0492506010810190505b6305f5e1008310610819576305f5e100838161080f5761080e611400565b5b0492506008810190505b612710831061083e57612710838161083457610833611400565b5b0492506004810190505b60648310610861576064838161085757610856611400565b5b0492506002810190505b600a8310610870576001810190505b80915050919050565b5f73ffffffffffffffffffffffffffffffffffffffff82169050919050565b5f6108a282610879565b9050919050565b6108b281610898565b82525050565b5f6020820190506108cb5f8301846108a9565b92915050565b5f6108db82610879565b9050919050565b6108eb816108d1565b82525050565b5f6020820190506109045f8301846108e2565b92915050565b5f604051905090565b5f80fd5b5f80fd5b5f80fd5b5f601f19601f8301169050919050565b7f4e487b71000000000000000000000000000000000000000000000000000000005f52604160045260245ffd5b6109658261091f565b810181811067ffffffffffffffff821117156109845761098361092f565b5b80604052505050565b5f61099661090a565b90506109a2828261095c565b919050565b5f67ffffffffffffffff8211156109c1576109c061092f565b5b602082029050602081019050919050565b5f80fd5b6109df81610898565b81146109e9575f80fd5b50565b5f813590506109fa816109d6565b92915050565b5f610a12610a0d846109a7565b61098d565b90508083825260208201905060208402830185811115610a3557610a346109d2565b5b835b81811015610a5e5780610a4a88826109ec565b845260208401935050602081019050610a37565b5050509392505050565b5f82601f830112610a7c57610a7b61091b565b5b8135610a8c848260208601610a00565b91505092915050565b5f67ffffffffffffffff821115610aaf57610aae61092f565b5b602082029050602081019050919050565b5f80fd5b5f67ffffffffffffffff821115610ade57610add61092f565b5b610ae78261091f565b9050602081019050919050565b828183375f83830152505050565b5f610b14610b0f84610ac4565b61098d565b905082815260208101848484011115610b3057610b2f610ac0565b5b610b3b848285610af4565b509392505050565b5f82601f830112610b5757610b5661091b565b5b8135610b67848260208601610b02565b91505092915050565b5f610b82610b7d84610a95565b61098d565b90508083825260208201905060208402830185811115610ba557610ba46109d2565b5b835b81811015610bec57803567ffffffffffffffff811115610bca57610bc961091b565b5b808601610bd78982610b43565b85526020850194505050602081019050610ba7565b5050509392505050565b5f82601f830112610c0a57610c0961091b565b5b8135610c1a848260208601610b70565b91505092915050565b5f67ffffffffffffffff821115610c3d57610c3c61092f565b5b602082029050602081019050919050565b5f67ffffffffffffffff821115610c6857610c6761092f565b5b610c718261091f565b9050602081019050919050565b5f610c90610c8b84610c4e565b61098d565b905082815260208101848484011115610cac57610cab610ac0565b5b610cb7848285610af4565b509392505050565b5f82601f830112610cd357610cd261091b565b5b8135610ce3848260208601610c7e565b91505092915050565b5f610cfe610cf984610c23565b61098d565b90508083825260208201905060208402830185811115610d2157610d206109d2565b5b835b81811015610d6857803567ffffffffffffffff811115610d4657610d4561091b565b5b808601610d538982610cbf565b85526020850194505050602081019050610d23565b5050509392505050565b5f82601f830112610d8657610d8561091b565b5b8135610d96848260208601610cec565b91505092915050565b5f805f60608486031215610db657610db5610913565b5b5f84013567ffffffffffffffff811115610dd357610dd2610917565b5b610ddf86828701610a68565b935050602084013567ffffffffffffffff811115610e0057610dff610917565b5b610e0c86828701610bf6565b925050604084013567ffffffffffffffff811115610e2d57610e2c610917565b5b610e3986828701610d72565b9150509250925092565b5f805f60608486031215610e5a57610e59610913565b5b5f610e67868287016109ec565b935050602084013567ffffffffffffffff811115610e8857610e87610917565b5b610e9486828701610cbf565b925050604084013567ffffffffffffffff811115610eb557610eb4610917565b5b610ec186828701610b43565b9150509250925092565b5f819050919050565b610edd81610ecb565b82525050565b5f602082019050610ef65f830184610ed4565b92915050565b610f05816108d1565b8114610f0f575f80fd5b50565b5f81359050610f2081610efc565b92915050565b5f60208284031215610f3b57610f3a610913565b5b5f610f4884828501610f12565b91505092915050565b5f82825260208201905092915050565b7f496e76616c69642063616c6c65720000000000000000000000000000000000005f82015250565b5f610f95600e83610f51565b9150610fa082610f61565b602082019050919050565b5f6020820190508181035f830152610fc281610f89565b9050919050565b7f496e76616c696420696e707574000000000000000000000000000000000000005f82015250565b5f610ffd600d83610f51565b915061100882610fc9565b602082019050919050565b5f6020820190508181035f83015261102a81610ff1565b9050919050565b7f42617463682073697a6520746f6f206c617267650000000000000000000000005f82015250565b5f611065601483610f51565b915061107082611031565b602082019050919050565b5f6020820190508181035f83015261109281611059565b9050919050565b7f4e487b71000000000000000000000000000000000000000000000000000000005f52603260045260245ffd5b7f4e487b71000000000000000000000000000000000000000000000000000000005f52601160045260245ffd5b5f6110fd82610ecb565b91507fffffffffffffffffffffffffffffffffffffffffffffffffffffffffffffffff820361112f5761112e6110c6565b5b600182019050919050565b5f819050919050565b61114c8161113a565b82525050565b5f60ff82169050919050565b61116781611152565b82525050565b5f6080820190506111805f830187611143565b61118d602083018661115e565b61119a6040830185611143565b6111a76060830184611143565b95945050505050565b7f496e76616c6964207369676e61747572650000000000000000000000000000005f82015250565b5f6111e4601183610f51565b91506111ef826111b0565b602082019050919050565b5f6020820190508181035f830152611211816111d8565b9050919050565b5f81905092915050565b7f19457468657265756d205369676e6564204d6573736167653a0a0000000000005f82015250565b5f611256601a83611218565b915061126182611222565b601a82019050919050565b5f81519050919050565b5f5b83811015611293578082015181840152602081019050611278565b5f8484015250505050565b5f6112a88261126c565b6112b28185611218565b93506112c2818560208601611276565b80840191505092915050565b5f6112d88261124a565b91506112e4828561129e565b91506112f0828461129e565b91508190509392505050565b7f496e76616c6964207369676e6174757265206c656e67746800000000000000005f82015250565b5f611330601883610f51565b915061133b826112fc565b602082019050919050565b5f6020820190508181035f83015261135d81611324565b9050919050565b5f61136e82611152565b915061137983611152565b9250828201905060ff811115611392576113916110c6565b5b92915050565b7f496e76616c6964207369676e61747572652076657273696f6e000000000000005f82015250565b5f6113cc601983610f51565b91506113d782611398565b602082019050919050565b5f6020820190508181035f8301526113f9816113c0565b9050919050565b7f4e487b71000000000000000000000000000000000000000000000000000000005f52601260045260245ffdfea2646970667358221220674d93b8fc1e6dcdc4487ca028da3e95e0ee8bb95446f88e35c0dc3d03c3397f64736f6c63430008140033",
			"opcodes": "PUSH1 0x80 PUSH1 0x40 MSTORE CALLVALUE DUP1 ISZERO PUSH2 0xF JUMPI PUSH0 DUP1 REVERT JUMPDEST POP CALLER PUSH1 0x1 PUSH0 PUSH2 0x100 EXP DUP2 SLOAD DUP2 PUSH20 0xFFFFFFFFFFFFFFFFFFFFFFFFFFFFFFFFFFFFFFFF MUL NOT AND SWAP1 DUP4 PUSH20 0xFFFFFFFFFFFFFFFFFFFFFFFFFFFFFFFFFFFFFFFF AND MUL OR SWAP1 SSTORE POP PUSH2 0x1463 DUP1 PUSH2 0x5D PUSH0 CODECOPY PUSH0 RETURN INVALID PUSH1 0x80 PUSH1 0x40 MSTORE PUSH1 0x4 CALLDATASIZE LT PUSH2 0x58 JUMPI PUSH0 CALLDATALOAD PUSH1 0xE0 SHR DUP1 PUSH4 0x8DA5CB5B EQ PUSH2 0x63 JUMPI DUP1 PUSH4 0x95623641 EQ PUSH2 0x8D JUMPI DUP1 PUSH4 0x95DB67E4 EQ PUSH2 0xB7 JUMPI DUP1 PUSH4 0x95E0E0C9 EQ PUSH2 0xD3 JUMPI DUP1 PUSH4 0xECA7ED0A EQ PUSH2 0xFB JUMPI DUP1 PUSH4 0xFAE92612 EQ PUSH2 0x125 JUMPI PUSH2 0x5F JUMP JUMPDEST CALLDATASIZE PUSH2 0x5F JUMPI STOP JUMPDEST PUSH0 DUP1 REVERT JUMPDEST CALLVALUE DUP1 ISZERO PUSH2 0x6E JUMPI PUSH0 DUP1 REVERT JUMPDEST POP PUSH2 0x77 PUSH2 0x14D JUMP JUMPDEST PUSH1 0x40 MLOAD PUSH2 0x84 SWAP2 SWAP1 PUSH2 0x8B8 JUMP JUMPDEST PUSH1 0x40 MLOAD DUP1 SWAP2 SUB SWAP1 RETURN JUMPDEST CALLVALUE DUP1 ISZERO PUSH2 0x98 JUMPI PUSH0 DUP1 REVERT JUMPDEST POP PUSH2 0xA1 PUSH2 0x172 JUMP JUMPDEST PUSH1 0x40 MLOAD PUSH2 0xAE SWAP2 SWAP1 PUSH2 0x8F1 JUMP JUMPDEST PUSH1 0x40 MLOAD DUP1 SWAP2 SUB SWAP1 RETURN JUMPDEST PUSH2 0xD1 PUSH1 0x4 DUP1 CALLDATASIZE SUB DUP2 ADD SWAP1 PUSH2 0xCC SWAP2 SWAP1 PUSH2 0xD9F JUMP JUMPDEST PUSH2 0x195 JUMP JUMPDEST STOP JUMPDEST CALLVALUE DUP1 ISZERO PUSH2 0xDE JUMPI PUSH0 DUP1 REVERT JUMPDEST POP PUSH2 0xF9 PUSH1 0x4 DUP1 CALLDATASIZE SUB DUP2 ADD SWAP1 PUSH2 0xF4 SWAP2 SWAP1 PUSH2 0xE43 JUMP JUMPDEST PUSH2 0x392 JUMP JUMPDEST STOP JUMPDEST CALLVALUE DUP1 ISZERO PUSH2 0x106 JUMPI PUSH0 DUP1 REVERT JUMPDEST POP PUSH2 0x10F PUSH2 0x472 JUMP JUMPDEST PUSH1 0x40 MLOAD PUSH2 0x11C SWAP2 SWAP1 PUSH2 0xEE3 JUMP JUMPDEST PUSH1 0x40 MLOAD DUP1 SWAP2 SUB SWAP1 RETURN JUMPDEST CALLVALUE DUP1 ISZERO PUSH2 0x130 JUMPI PUSH0 DUP1 REVERT JUMPDEST POP PUSH2 0x14B PUSH1 0x4 DUP1 CALLDATASIZE SUB DUP2 ADD SWAP1 PUSH2 0x146 SWAP2 SWAP1 PUSH2 0xF26 JUMP JUMPDEST PUSH2 0x479 JUMP JUMPDEST STOP JUMPDEST PUSH1 0x1 PUSH0 SWAP1 SLOAD SWAP1 PUSH2 0x100 EXP SWAP1 DIV PUSH20 0xFFFFFFFFFFFFFFFFFFFFFFFFFFFFFFFFFFFFFFFF AND DUP2 JUMP JUMPDEST PUSH0 DUP1 SLOAD SWAP1 PUSH2 0x100 EXP SWAP1 DIV PUSH20 0xFFFFFFFFFFFFFFFFFFFFFFFFFFFFFFFFFFFFFFFF AND DUP2 JUMP JUMPDEST PUSH0 DUP1 SLOAD SWAP1 PUSH2 0x100 EXP SWAP1 DIV PUSH20 0xFFFFFFFFFFFFFFFFFFFFFFFFFFFFFFFFFFFFFFFF AND PUSH20 0xFFFFFFFFFFFFFFFFFFFFFFFFFFFFFFFFFFFFFFFF AND CALLER PUSH20 0xFFFFFFFFFFFFFFFFFFFFFFFFFFFFFFFFFFFFFFFF AND EQ PUSH2 0x222 JUMPI PUSH1 0x40 MLOAD PUSH32 0x8C379A000000000000000000000000000000000000000000000000000000000 DUP2 MSTORE PUSH1 0x4 ADD PUSH2 0x219 SWAP1 PUSH2 0xFAB JUMP JUMPDEST PUSH1 0x40 MLOAD DUP1 SWAP2 SUB SWAP1 REVERT JUMPDEST DUP2 MLOAD DUP4 MLOAD EQ DUP1 ISZERO PUSH2 0x234 JUMPI POP DUP1 MLOAD DUP4 MLOAD EQ JUMPDEST PUSH2 0x273 JUMPI PUSH1 0x40 MLOAD PUSH32 0x8C379A000000000000000000000000000000000000000000000000000000000 DUP2 MSTORE PUSH1 0x4 ADD PUSH2 0x26A SWAP1 PUSH2 0x1013 JUMP JUMPDEST PUSH1 0x40 MLOAD DUP1 SWAP2 SUB SWAP1 REVERT JUMPDEST PUSH1 0x32 DUP4 MLOAD GT ISZERO PUSH2 0x2B8 JUMPI PUSH1 0x40 MLOAD PUSH32 0x8C379A000000000000000000000000000000000000000000000000000000000 DUP2 MSTORE PUSH1 0x4 ADD PUSH2 0x2AF SWAP1 PUSH2 0x107B JUMP JUMPDEST PUSH1 0x40 MLOAD DUP1 SWAP2 SUB SWAP1 REVERT JUMPDEST PUSH0 JUMPDEST DUP4 MLOAD DUP2 LT ISZERO PUSH2 0x38C JUMPI PUSH2 0x31C DUP5 DUP3 DUP2 MLOAD DUP2 LT PUSH2 0x2D9 JUMPI PUSH2 0x2D8 PUSH2 0x1099 JUMP JUMPDEST JUMPDEST PUSH1 0x20 MUL PUSH1 0x20 ADD ADD MLOAD DUP4 DUP4 DUP2 MLOAD DUP2 LT PUSH2 0x2F4 JUMPI PUSH2 0x2F3 PUSH2 0x1099 JUMP JUMPDEST JUMPDEST PUSH1 0x20 MUL PUSH1 0x20 ADD ADD MLOAD DUP6 DUP5 DUP2 MLOAD DUP2 LT PUSH2 0x30F JUMPI PUSH2 0x30E PUSH2 0x1099 JUMP JUMPDEST JUMPDEST PUSH1 0x20 MUL PUSH1 0x20 ADD ADD MLOAD PUSH2 0x392 JUMP JUMPDEST DUP4 DUP2 DUP2 MLOAD DUP2 LT PUSH2 0x32F JUMPI PUSH2 0x32E PUSH2 0x1099 JUMP JUMPDEST JUMPDEST PUSH1 0x20 MUL PUSH1 0x20 ADD ADD MLOAD PUSH20 0xFFFFFFFFFFFFFFFFFFFFFFFFFFFFFFFFFFFFFFFF AND PUSH32 0x78F048A4A5986309C511ACBFC093D06C834685823625E9D42E6A75DA34FBD0A4 PUSH1 0x40 MLOAD PUSH1 0x40 MLOAD DUP1 SWAP2 SUB SWAP1 LOG2 DUP1 DUP1 PUSH2 0x384 SWAP1 PUSH2 0x10F3 JUMP JUMPDEST SWAP2 POP POP PUSH2 0x2BA JUMP JUMPDEST POP POP POP POP JUMP JUMPDEST PUSH0 PUSH2 0x39C DUP4 PUSH2 0x54A JUMP JUMPDEST SWAP1 POP PUSH0 DUP1 PUSH0 PUSH2 0x3AA DUP6 PUSH2 0x589 JUMP JUMPDEST SWAP3 POP SWAP3 POP SWAP3 POP PUSH1 0x1 DUP5 DUP3 DUP6 DUP6 PUSH1 0x40 MLOAD PUSH0 DUP2 MSTORE PUSH1 0x20 ADD PUSH1 0x40 MSTORE PUSH1 0x40 MLOAD PUSH2 0x3D2 SWAP5 SWAP4 SWAP3 SWAP2 SWAP1 PUSH2 0x116D JUMP JUMPDEST PUSH1 0x20 PUSH1 0x40 MLOAD PUSH1 0x20 DUP2 SUB SWAP1 DUP1 DUP5 SUB SWAP1 DUP6 GAS STATICCALL ISZERO DUP1 ISZERO PUSH2 0x3F2 JUMPI RETURNDATASIZE PUSH0 DUP1 RETURNDATACOPY RETURNDATASIZE PUSH0 REVERT JUMPDEST POP POP POP PUSH1 0x20 PUSH1 0x40 MLOAD SUB MLOAD PUSH20 0xFFFFFFFFFFFFFFFFFFFFFFFFFFFFFFFFFFFFFFFF AND DUP8 PUSH20 0xFFFFFFFFFFFFFFFFFFFFFFFFFFFFFFFFFFFFFFFF AND EQ PUSH2 0x469 JUMPI PUSH1 0x40 MLOAD PUSH32 0x8C379A000000000000000000000000000000000000000000000000000000000 DUP2 MSTORE PUSH1 0x4 ADD PUSH2 0x460 SWAP1 PUSH2 0x11FA JUMP JUMPDEST PUSH1 0x40 MLOAD DUP1 SWAP2 SUB SWAP1 REVERT JUMPDEST POP POP POP POP POP POP POP JUMP JUMPDEST PUSH0 GAS SWAP1 POP SWAP1 JUMP JUMPDEST PUSH1 0x1 PUSH0 SWAP1 SLOAD SWAP1 PUSH2 0x100 EXP SWAP1 DIV PUSH20 0xFFFFFFFFFFFFFFFFFFFFFFFFFFFFFFFFFFFFFFFF AND PUSH20 0xFFFFFFFFFFFFFFFFFFFFFFFFFFFFFFFFFFFFFFFF AND CALLER PUSH20 0xFFFFFFFFFFFFFFFFFFFFFFFFFFFFFFFFFFFFFFFF AND EQ PUSH2 0x508 JUMPI PUSH1 0x40 MLOAD PUSH32 0x8C379A000000000000000000000000000000000000000000000000000000000 DUP2 MSTORE PUSH1 0x4 ADD PUSH2 0x4FF SWAP1 PUSH2 0xFAB JUMP JUMPDEST PUSH1 0x40 MLOAD DUP1 SWAP2 SUB SWAP1 REVERT JUMPDEST DUP1 PUSH0 DUP1 PUSH2 0x100 EXP DUP2 SLOAD DUP2 PUSH20 0xFFFFFFFFFFFFFFFFFFFFFFFFFFFFFFFFFFFFFFFF MUL NOT AND SWAP1 DUP4 PUSH20 0xFFFFFFFFFFFFFFFFFFFFFFFFFFFFFFFFFFFFFFFF AND MUL OR SWAP1 SSTORE POP POP JUMP JUMPDEST PUSH0 DUP1 DUP3 MLOAD SWAP1 POP PUSH2 0x559 DUP2 PUSH2 0x65E JUMP JUMPDEST DUP4 PUSH1 0x40 MLOAD PUSH1 0x20 ADD PUSH2 0x56B SWAP3 SWAP2 SWAP1 PUSH2 0x12CE JUMP JUMPDEST PUSH1 0x40 MLOAD PUSH1 0x20 DUP2 DUP4 SUB SUB DUP2 MSTORE SWAP1 PUSH1 0x40 MSTORE DUP1 MLOAD SWAP1 PUSH1 0x20 ADD KECCAK256 SWAP2 POP POP SWAP2 SWAP1 POP JUMP JUMPDEST PUSH0 DUP1 PUSH0 PUSH1 0x41 DUP5 MLOAD EQ PUSH2 0x5D0 JUMPI PUSH1 0x40 MLOAD PUSH32 0x8C379A000000000000000000000000000000000000000000000000000000000 DUP2 MSTORE PUSH1 0x4 ADD PUSH2 0x5C7 SWAP1 PUSH2 0x1346 JUMP JUMPDEST PUSH1 0x40 MLOAD DUP1 SWAP2 SUB SWAP1 REVERT JUMPDEST PUSH1 0x20 DUP5 ADD MLOAD SWAP3 POP PUSH1 0x40 DUP5 ADD MLOAD SWAP2 POP PUSH1 0x60 DUP5 ADD MLOAD PUSH0 BYTE SWAP1 POP PUSH1 0x1B DUP2 PUSH1 0xFF AND LT ISZERO PUSH2 0x603 JUMPI PUSH1 0x1B DUP2 PUSH2 0x600 SWAP2 SWAP1 PUSH2 0x1364 JUMP JUMPDEST SWAP1 POP JUMPDEST PUSH1 0x1B DUP2 PUSH1 0xFF AND EQ DUP1 PUSH2 0x618 JUMPI POP PUSH1 0x1C DUP2 PUSH1 0xFF AND EQ JUMPDEST PUSH2 0x657 JUMPI PUSH1 0x40 MLOAD PUSH32 0x8C379A000000000000000000000000000000000000000000000000000000000 DUP2 MSTORE PUSH1 0x4 ADD PUSH2 0x64E SWAP1 PUSH2 0x13E2 JUMP JUMPDEST PUSH1 0x40 MLOAD DUP1 SWAP2 SUB SWAP1 REVERT JUMPDEST SWAP2 SWAP4 SWAP1 SWAP3 POP JUMP JUMPDEST PUSH1 0x60 PUSH0 PUSH1 0x1 PUSH2 0x66C DUP5 PUSH2 0x728 JUMP JUMPDEST ADD SWAP1 POP PUSH0 DUP2 PUSH8 0xFFFFFFFFFFFFFFFF DUP2 GT ISZERO PUSH2 0x68A JUMPI PUSH2 0x689 PUSH2 0x92F JUMP JUMPDEST JUMPDEST PUSH1 0x40 MLOAD SWAP1 DUP1 DUP3 MSTORE DUP1 PUSH1 0x1F ADD PUSH1 0x1F NOT AND PUSH1 0x20 ADD DUP3 ADD PUSH1 0x40 MSTORE DUP1 ISZERO PUSH2 0x6BC JUMPI DUP2 PUSH1 0x20 ADD PUSH1 0x1 DUP3 MUL DUP1 CALLDATASIZE DUP4 CALLDATACOPY DUP1 DUP3 ADD SWAP2 POP POP SWAP1 POP JUMPDEST POP SWAP1 POP PUSH0 DUP3 PUSH1 0x20 ADD DUP3 ADD SWAP1 POP JUMPDEST PUSH1 0x1 ISZERO PUSH2 0x71D JUMPI DUP1 DUP1 PUSH1 0x1 SWAP1 SUB SWAP2 POP POP PUSH32 0x3031323334353637383961626364656600000000000000000000000000000000 PUSH1 0xA DUP7 MOD BYTE DUP2 MSTORE8 PUSH1 0xA DUP6 DUP2 PUSH2 0x712 JUMPI PUSH2 0x711 PUSH2 0x1400 JUMP JUMPDEST JUMPDEST DIV SWAP5 POP PUSH0 DUP6 SUB PUSH2 0x6C9 JUMPI JUMPDEST DUP2 SWAP4 POP POP POP POP SWAP2 SWAP1 POP JUMP JUMPDEST PUSH0 DUP1 PUSH0 SWAP1 POP PUSH27 0x184F03E93FF9F4DAA797ED6E38ED64BF6A1F010000000000000000 DUP4 LT PUSH2 0x784 JUMPI PUSH27 0x184F03E93FF9F4DAA797ED6E38ED64BF6A1F010000000000000000 DUP4 DUP2 PUSH2 0x77A JUMPI PUSH2 0x779 PUSH2 0x1400 JUMP JUMPDEST JUMPDEST DIV SWAP3 POP PUSH1 0x40 DUP2 ADD SWAP1 POP JUMPDEST PUSH14 0x4EE2D6D415B85ACEF8100000000 DUP4 LT PUSH2 0x7C1 JUMPI PUSH14 0x4EE2D6D415B85ACEF8100000000 DUP4 DUP2 PUSH2 0x7B7 JUMPI PUSH2 0x7B6 PUSH2 0x1400 JUMP JUMPDEST JUMPDEST DIV SWAP3 POP PUSH1 0x20 DUP2 ADD SWAP1 POP JUMPDEST PUSH7 0x2386F26FC10000 DUP4 LT PUSH2 0x7F0 JUMPI PUSH7 0x2386F26FC10000 DUP4 DUP2 PUSH2 0x7E6 JUMPI PUSH2 0x7E5 PUSH2 0x1400 JUMP JUMPDEST JUMPDEST DIV SWAP3 POP PUSH1 0x10 DUP2 ADD SWAP1 POP JUMPDEST PUSH4 0x5F5E100 DUP4 LT PUSH2 0x819 JUMPI PUSH4 0x5F5E100 DUP4 DUP2 PUSH2 0x80F JUMPI PUSH2 0x80E PUSH2 0x1400 JUMP JUMPDEST JUMPDEST DIV SWAP3 POP PUSH1 0x8 DUP2 ADD SWAP1 POP JUMPDEST PUSH2 0x2710 DUP4 LT PUSH2 0x83E JUMPI PUSH2 0x2710 DUP4 DUP2 PUSH2 0x834 JUMPI PUSH2 0x833 PUSH2 0x1400 JUMP JUMPDEST JUMPDEST DIV SWAP3 POP PUSH1 0x4 DUP2 ADD SWAP1 POP JUMPDEST PUSH1 0x64 DUP4 LT PUSH2 0x861 JUMPI PUSH1 0x64 DUP4 DUP2 PUSH2 0x857 JUMPI PUSH2 0x856 PUSH2 0x1400 JUMP JUMPDEST JUMPDEST DIV SWAP3 POP PUSH1 0x2 DUP2 ADD SWAP1 POP JUMPDEST PUSH1 0xA DUP4 LT PUSH2 0x870 JUMPI PUSH1 0x1 DUP2 ADD SWAP1 POP JUMPDEST DUP1 SWAP2 POP POP SWAP2 SWAP1 POP JUMP JUMPDEST PUSH0 PUSH20 0xFFFFFFFFFFFFFFFFFFFFFFFFFFFFFFFFFFFFFFFF DUP3 AND SWAP1 POP SWAP2 SWAP1 POP JUMP JUMPDEST PUSH0 PUSH2 0x8A2 DUP3 PUSH2 0x879 JUMP JUMPDEST SWAP1 POP SWAP2 SWAP1 POP JUMP JUMPDEST PUSH2 0x8B2 DUP2 PUSH2 0x898 JUMP JUMPDEST DUP3 MSTORE POP POP JUMP JUMPDEST PUSH0 PUSH1 0x20 DUP3 ADD SWAP1 POP PUSH2 0x8CB PUSH0 DUP4 ADD DUP5 PUSH2 0x8A9 JUMP JUMPDEST SWAP3 SWAP2 POP POP JUMP JUMPDEST PUSH0 PUSH2 0x8DB DUP3 PUSH2 0x879 JUMP JUMPDEST SWAP1 POP SWAP2 SWAP1 POP JUMP JUMPDEST PUSH2 0x8EB DUP2 PUSH2 0x8D1 JUMP JUMPDEST DUP3 MSTORE POP POP JUMP JUMPDEST PUSH0 PUSH1 0x20 DUP3 ADD SWAP1 POP PUSH2 0x904 PUSH0 DUP4 ADD DUP5 PUSH2 0x8E2 JUMP JUMPDEST SWAP3 SWAP2 POP POP JUMP JUMPDEST PUSH0 PUSH1 0x40 MLOAD SWAP1 POP SWAP1 JUMP JUMPDEST PUSH0 DUP1 REVERT JUMPDEST PUSH0 DUP1 REVERT JUMPDEST PUSH0 DUP1 REVERT JUMPDEST PUSH0 PUSH1 0x1F NOT PUSH1 0x1F DUP4 ADD AND SWAP1 POP SWAP2 SWAP1 POP JUMP JUMPDEST PUSH32 0x4E487B7100000000000000000000000000000000000000000000000000000000 PUSH0 MSTORE PUSH1 0x41 PUSH1 0x4 MSTORE PUSH1 0x24 PUSH0 REVERT JUMPDEST PUSH2 0x965 DUP3 PUSH2 0x91F JUMP JUMPDEST DUP2 ADD DUP2 DUP2 LT PUSH8 0xFFFFFFFFFFFFFFFF DUP3 GT OR ISZERO PUSH2 0x984 JUMPI PUSH2 0x983 PUSH2 0x92F JUMP JUMPDEST JUMPDEST DUP1 PUSH1 0x40 MSTORE POP POP POP JUMP JUMPDEST PUSH0 PUSH2 0x996 PUSH2 0x90A JUMP JUMPDEST SWAP1 POP PUSH2 0x9A2 DUP3 DUP3 PUSH2 0x95C JUMP JUMPDEST SWAP2 SWAP1 POP JUMP JUMPDEST PUSH0 PUSH8 0xFFFFFFFFFFFFFFFF DUP3 GT ISZERO PUSH2 0x9C1 JUMPI PUSH2 0x9C0 PUSH2 0x92F JUMP JUMPDEST JUMPDEST PUSH1 0x20 DUP3 MUL SWAP1 POP PUSH1 0x20 DUP2 ADD SWAP1 POP SWAP2 SWAP1 POP JUMP JUMPDEST PUSH0 DUP1 REVERT JUMPDEST PUSH2 0x9DF DUP2 PUSH2 0x898 JUMP JUMPDEST DUP2 EQ PUSH2 0x9E9 JUMPI PUSH0 DUP1 REVERT JUMPDEST POP JUMP JUMPDEST PUSH0 DUP2 CALLDATALOAD SWAP1 POP PUSH2 0x9FA DUP2 PUSH2 0x9D6 JUMP JUMPDEST SWAP3 SWAP2 POP POP JUMP JUMPDEST PUSH0 PUSH2 0xA12 PUSH2 0xA0D DUP5 PUSH2 0x9A7 JUMP JUMPDEST PUSH2 0x98D JUMP JUMPDEST SWAP1 POP DUP1 DUP4 DUP3 MSTORE PUSH1 0x20 DUP3 ADD SWAP1 POP PUSH1 0x20 DUP5 MUL DUP4 ADD DUP6 DUP2 GT ISZERO PUSH2 0xA35 JUMPI PUSH2 0xA34 PUSH2 0x9D2 JUMP JUMPDEST JUMPDEST DUP4 JUMPDEST DUP2 DUP2 LT ISZERO PUSH2 0xA5E JUMPI DUP1 PUSH2 0xA4A DUP9 DUP3 PUSH2 0x9EC JUMP JUMPDEST DUP5 MSTORE PUSH1 0x20 DUP5 ADD SWAP4 POP POP PUSH1 0x20 DUP2 ADD SWAP1 POP PUSH2 0xA37 JUMP JUMPDEST POP POP POP SWAP4 SWAP3 POP POP POP JUMP JUMPDEST PUSH0 DUP3 PUSH1 0x1F DUP4 ADD SLT PUSH2 0xA7C JUMPI PUSH2 0xA7B PUSH2 0x91B JUMP JUMPDEST JUMPDEST DUP2 CALLDATALOAD PUSH2 0xA8C DUP5 DUP3 PUSH1 0x20 DUP7 ADD PUSH2 0xA00 JUMP JUMPDEST SWAP2 POP POP SWAP3 SWAP2 POP POP JUMP JUMPDEST PUSH0 PUSH8 0xFFFFFFFFFFFFFFFF DUP3 GT ISZERO PUSH2 0xAAF JUMPI PUSH2 0xAAE PUSH2 0x92F JUMP JUMPDEST JUMPDEST PUSH1 0x20 DUP3 MUL SWAP1 POP PUSH1 0x20 DUP2 ADD SWAP1 POP SWAP2 SWAP1 POP JUMP JUMPDEST PUSH0 DUP1 REVERT JUMPDEST PUSH0 PUSH8 0xFFFFFFFFFFFFFFFF DUP3 GT ISZERO PUSH2 0xADE JUMPI PUSH2 0xADD PUSH2 0x92F JUMP JUMPDEST JUMPDEST PUSH2 0xAE7 DUP3 PUSH2 0x91F JUMP JUMPDEST SWAP1 POP PUSH1 0x20 DUP2 ADD SWAP1 POP SWAP2 SWAP1 POP JUMP JUMPDEST DUP3 DUP2 DUP4 CALLDATACOPY PUSH0 DUP4 DUP4 ADD MSTORE POP POP POP JUMP JUMPDEST PUSH0 PUSH2 0xB14 PUSH2 0xB0F DUP5 PUSH2 0xAC4 JUMP JUMPDEST PUSH2 0x98D JUMP JUMPDEST SWAP1 POP DUP3 DUP2 MSTORE PUSH1 0x20 DUP2 ADD DUP5 DUP5 DUP5 ADD GT ISZERO PUSH2 0xB30 JUMPI PUSH2 0xB2F PUSH2 0xAC0 JUMP JUMPDEST JUMPDEST PUSH2 0xB3B DUP5 DUP3 DUP6 PUSH2 0xAF4 JUMP JUMPDEST POP SWAP4 SWAP3 POP POP POP JUMP JUMPDEST PUSH0 DUP3 PUSH1 0x1F DUP4 ADD SLT PUSH2 0xB57 JUMPI PUSH2 0xB56 PUSH2 0x91B JUMP JUMPDEST JUMPDEST DUP2 CALLDATALOAD PUSH2 0xB67 DUP5 DUP3 PUSH1 0x20 DUP7 ADD PUSH2 0xB02 JUMP JUMPDEST SWAP2 POP POP SWAP3 SWAP2 POP POP JUMP JUMPDEST PUSH0 PUSH2 0xB82 PUSH2 0xB7D DUP5 PUSH2 0xA95 JUMP JUMPDEST PUSH2 0x98D JUMP JUMPDEST SWAP1 POP DUP1 DUP4 DUP3 MSTORE PUSH1 0x20 DUP3 ADD SWAP1 POP PUSH1 0x20 DUP5 MUL DUP4 ADD DUP6 DUP2 GT ISZERO PUSH2 0xBA5 JUMPI PUSH2 0xBA4 PUSH2 0x9D2 JUMP JUMPDEST JUMPDEST DUP4 JUMPDEST DUP2 DUP2 LT ISZERO PUSH2 0xBEC JUMPI DUP1 CALLDATALOAD PUSH8 0xFFFFFFFFFFFFFFFF DUP2 GT ISZERO PUSH2 0xBCA JUMPI PUSH2 0xBC9 PUSH2 0x91B JUMP JUMPDEST JUMPDEST DUP1 DUP7 ADD PUSH2 0xBD7 DUP10 DUP3 PUSH2 0xB43 JUMP JUMPDEST DUP6 MSTORE PUSH1 0x20 DUP6 ADD SWAP5 POP POP POP PUSH1 0x20 DUP2 ADD SWAP1 POP PUSH2 0xBA7 JUMP JUMPDEST POP POP POP SWAP4 SWAP3 POP POP POP JUMP JUMPDEST PUSH0 DUP3 PUSH1 0x1F DUP4 ADD SLT PUSH2 0xC0A JUMPI PUSH2 0xC09 PUSH2 0x91B JUMP JUMPDEST JUMPDEST DUP2 CALLDATALOAD PUSH2 0xC1A DUP5 DUP3 PUSH1 0x20 DUP7 ADD PUSH2 0xB70 JUMP JUMPDEST SWAP2 POP POP SWAP3 SWAP2 POP POP JUMP JUMPDEST PUSH0 PUSH8 0xFFFFFFFFFFFFFFFF DUP3 GT ISZERO PUSH2 0xC3D JUMPI PUSH2 0xC3C PUSH2 0x92F JUMP JUMPDEST JUMPDEST PUSH1 0x20 DUP3 MUL SWAP1 POP PUSH1 0x20 DUP2 ADD SWAP1 POP SWAP2 SWAP1 POP JUMP JUMPDEST PUSH0 PUSH8 0xFFFFFFFFFFFFFFFF DUP3 GT ISZERO PUSH2 0xC68 JUMPI PUSH2 0xC67 PUSH2 0x92F JUMP JUMPDEST JUMPDEST PUSH2 0xC71 DUP3 PUSH2 0x91F JUMP JUMPDEST SWAP1 POP PUSH1 0x20 DUP2 ADD SWAP1 POP SWAP2 SWAP1 POP JUMP JUMPDEST PUSH0 PUSH2 0xC90 PUSH2 0xC8B DUP5 PUSH2 0xC4E JUMP JUMPDEST PUSH2 0x98D JUMP JUMPDEST SWAP1 POP DUP3 DUP2 MSTORE PUSH1 0x20 DUP2 ADD DUP5 DUP5 DUP5 ADD GT ISZERO PUSH2 0xCAC JUMPI PUSH2 0xCAB PUSH2 0xAC0 JUMP JUMPDEST JUMPDEST PUSH2 0xCB7 DUP5 DUP3 DUP6 PUSH2 0xAF4 JUMP JUMPDEST POP SWAP4 SWAP3 POP POP POP JUMP JUMPDEST PUSH0 DUP3 PUSH1 0x1F DUP4 ADD SLT PUSH2 0xCD3 JUMPI PUSH2 0xCD2 PUSH2 0x91B JUMP JUMPDEST JUMPDEST DUP2 CALLDATALOAD PUSH2 0xCE3 DUP5 DUP3 PUSH1 0x20 DUP7 ADD PUSH2 0xC7E JUMP JUMPDEST SWAP2 POP POP SWAP3 SWAP2 POP POP JUMP JUMPDEST PUSH0 PUSH2 0xCFE PUSH2 0xCF9 DUP5 PUSH2 0xC23 JUMP JUMPDEST PUSH2 0x98D JUMP JUMPDEST SWAP1 POP DUP1 DUP4 DUP3 MSTORE PUSH1 0x20 DUP3 ADD SWAP1 POP PUSH1 0x20 DUP5 MUL DUP4 ADD DUP6 DUP2 GT ISZERO PUSH2 0xD21 JUMPI PUSH2 0xD20 PUSH2 0x9D2 JUMP JUMPDEST JUMPDEST DUP4 JUMPDEST DUP2 DUP2 LT ISZERO PUSH2 0xD68 JUMPI DUP1 CALLDATALOAD PUSH8 0xFFFFFFFFFFFFFFFF DUP2 GT ISZERO PUSH2 0xD46 JUMPI PUSH2 0xD45 PUSH2 0x91B JUMP JUMPDEST JUMPDEST DUP1 DUP7 ADD PUSH2 0xD53 DUP10 DUP3 PUSH2 0xCBF JUMP JUMPDEST DUP6 MSTORE PUSH1 0x20 DUP6 ADD SWAP5 POP POP POP PUSH1 0x20 DUP2 ADD SWAP1 POP PUSH2 0xD23 JUMP JUMPDEST POP POP POP SWAP4 SWAP3 POP POP POP JUMP JUMPDEST PUSH0 DUP3 PUSH1 0x1F DUP4 ADD SLT PUSH2 0xD86 JUMPI PUSH2 0xD85 PUSH2 0x91B JUMP JUMPDEST JUMPDEST DUP2 CALLDATALOAD PUSH2 0xD96 DUP5 DUP3 PUSH1 0x20 DUP7 ADD PUSH2 0xCEC JUMP JUMPDEST SWAP2 POP POP SWAP3 SWAP2 POP POP JUMP JUMPDEST PUSH0 DUP1 PUSH0 PUSH1 0x60 DUP5 DUP7 SUB SLT ISZERO PUSH2 0xDB6 JUMPI PUSH2 0xDB5 PUSH2 0x913 JUMP JUMPDEST JUMPDEST PUSH0 DUP5 ADD CALLDATALOAD PUSH8 0xFFFFFFFFFFFFFFFF DUP2 GT ISZERO PUSH2 0xDD3 JUMPI PUSH2 0xDD2 PUSH2 0x917 JUMP JUMPDEST JUMPDEST PUSH2 0xDDF DUP7 DUP3 DUP8 ADD PUSH2 0xA68 JUMP JUMPDEST SWAP4 POP POP PUSH1 0x20 DUP5 ADD CALLDATALOAD PUSH8 0xFFFFFFFFFFFFFFFF DUP2 GT ISZERO PUSH2 0xE00 JUMPI PUSH2 0xDFF PUSH2 0x917 JUMP JUMPDEST JUMPDEST PUSH2 0xE0C DUP7 DUP3 DUP8 ADD PUSH2 0xBF6 JUMP JUMPDEST SWAP3 POP POP PUSH1 0x40 DUP5 ADD CALLDATALOAD PUSH8 0xFFFFFFFFFFFFFFFF DUP2 GT ISZERO PUSH2 0xE2D JUMPI PUSH2 0xE2C PUSH2 0x917 JUMP JUMPDEST JUMPDEST PUSH2 0xE39 DUP7 DUP3 DUP8 ADD PUSH2 0xD72 JUMP JUMPDEST SWAP2 POP POP SWAP3 POP SWAP3 POP SWAP3 JUMP JUMPDEST PUSH0 DUP1 PUSH0 PUSH1 0x60 DUP5 DUP7 SUB SLT ISZERO PUSH2 0xE5A JUMPI PUSH2 0xE59 PUSH2 0x913 JUMP JUMPDEST JUMPDEST PUSH0 PUSH2 0xE67 DUP7 DUP3 DUP8 ADD PUSH2 0x9EC JUMP JUMPDEST SWAP4 POP POP PUSH1 0x20 DUP5 ADD CALLDATALOAD PUSH8 0xFFFFFFFFFFFFFFFF DUP2 GT ISZERO PUSH2 0xE88 JUMPI PUSH2 0xE87 PUSH2 0x917 JUMP JUMPDEST JUMPDEST PUSH2 0xE94 DUP7 DUP3 DUP8 ADD PUSH2 0xCBF JUMP JUMPDEST SWAP3 POP POP PUSH1 0x40 DUP5 ADD CALLDATALOAD PUSH8 0xFFFFFFFFFFFFFFFF DUP2 GT ISZERO PUSH2 0xEB5 JUMPI PUSH2 0xEB4 PUSH2 0x917 JUMP JUMPDEST JUMPDEST PUSH2 0xEC1 DUP7 DUP3 DUP8 ADD PUSH2 0xB43 JUMP JUMPDEST SWAP2 POP POP SWAP3 POP SWAP3 POP SWAP3 JUMP JUMPDEST PUSH0 DUP2 SWAP1 POP SWAP2 SWAP1 POP JUMP JUMPDEST PUSH2 0xEDD DUP2 PUSH2 0xECB JUMP JUMPDEST DUP3 MSTORE POP POP JUMP JUMPDEST PUSH0 PUSH1 0x20 DUP3 ADD SWAP1 POP PUSH2 0xEF6 PUSH0 DUP4 ADD DUP5 PUSH2 0xED4 JUMP JUMPDEST SWAP3 SWAP2 POP POP JUMP JUMPDEST PUSH2 0xF05 DUP2 PUSH2 0x8D1 JUMP JUMPDEST DUP2 EQ PUSH2 0xF0F JUMPI PUSH0 DUP1 REVERT JUMPDEST POP JUMP JUMPDEST PUSH0 DUP2 CALLDATALOAD SWAP1 POP PUSH2 0xF20 DUP2 PUSH2 0xEFC JUMP JUMPDEST SWAP3 SWAP2 POP POP JUMP JUMPDEST PUSH0 PUSH1 0x20 DUP3 DUP5 SUB SLT ISZERO PUSH2 0xF3B JUMPI PUSH2 0xF3A PUSH2 0x913 JUMP JUMPDEST JUMPDEST PUSH0 PUSH2 0xF48 DUP5 DUP3 DUP6 ADD PUSH2 0xF12 JUMP JUMPDEST SWAP2 POP POP SWAP3 SWAP2 POP POP JUMP JUMPDEST PUSH0 DUP3 DUP3 MSTORE PUSH1 0x20 DUP3 ADD SWAP1 POP SWAP3 SWAP2 POP POP JUMP JUMPDEST PUSH32 0x496E76616C69642063616C6C6572000000000000000000000000000000000000 PUSH0 DUP3 ADD MSTORE POP JUMP JUMPDEST PUSH0 PUSH2 0xF95 PUSH1 0xE DUP4 PUSH2 0xF51 JUMP JUMPDEST SWAP2 POP PUSH2 0xFA0 DUP3 PUSH2 0xF61 JUMP JUMPDEST PUSH1 0x20 DUP3 ADD SWAP1 POP SWAP2 SWAP1 POP JUMP JUMPDEST PUSH0 PUSH1 0x20 DUP3 ADD SWAP1 POP DUP2 DUP2 SUB PUSH0 DUP4 ADD MSTORE PUSH2 0xFC2 DUP2 PUSH2 0xF89 JUMP JUMPDEST SWAP1 POP SWAP2 SWAP1 POP JUMP JUMPDEST PUSH32 0x496E76616C696420696E70757400000000000000000000000000000000000000 PUSH0 DUP3 ADD MSTORE POP JUMP JUMPDEST PUSH0 PUSH2 0xFFD PUSH1 0xD DUP4 PUSH2 0xF51 JUMP JUMPDEST SWAP2 POP PUSH2 0x1008 DUP3 PUSH2 0xFC9 JUMP JUMPDEST PUSH1 0x20 DUP3 ADD SWAP1 POP SWAP2 SWAP1 POP JUMP JUMPDEST PUSH0 PUSH1 0x20 DUP3 ADD SWAP1 POP DUP2 DUP2 SUB PUSH0 DUP4 ADD MSTORE PUSH2 0x102A DUP2 PUSH2 0xFF1 JUMP JUMPDEST SWAP1 POP SWAP2 SWAP1 POP JUMP JUMPDEST PUSH32 0x42617463682073697A6520746F6F206C61726765000000000000000000000000 PUSH0 DUP3 ADD MSTORE POP JUMP JUMPDEST PUSH0 PUSH2 0x1065 PUSH1 0x14 DUP4 PUSH2 0xF51 JUMP JUMPDEST SWAP2 POP PUSH2 0x1070 DUP3 PUSH2 0x1031 JUMP JUMPDEST PUSH1 0x20 DUP3 ADD SWAP1 POP SWAP2 SWAP1 POP JUMP JUMPDEST PUSH0 PUSH1 0x20 DUP3 ADD SWAP1 POP DUP2 DUP2 SUB PUSH0 DUP4 ADD MSTORE PUSH2 0x1092 DUP2 PUSH2 0x1059 JUMP JUMPDEST SWAP1 POP SWAP2 SWAP1 POP JUMP JUMPDEST PUSH32 0x4E487B7100000000000000000000000000000000000000000000000000000000 PUSH0 MSTORE PUSH1 0x32 PUSH1 0x4 MSTORE PUSH1 0x24 PUSH0 REVERT JUMPDEST PUSH32 0x4E487B7100000000000000000000000000000000000000000000000000000000 PUSH0 MSTORE PUSH1 0x11 PUSH1 0x4 MSTORE PUSH1 0x24 PUSH0 REVERT JUMPDEST PUSH0 PUSH2 0x10FD DUP3 PUSH2 0xECB JUMP JUMPDEST SWAP2 POP PUSH32 0xFFFFFFFFFFFFFFFFFFFFFFFFFFFFFFFFFFFFFFFFFFFFFFFFFFFFFFFFFFFFFFFF DUP3 SUB PUSH2 0x112F JUMPI PUSH2 0x112E PUSH2 0x10C6 JUMP JUMPDEST JUMPDEST PUSH1 0x1 DUP3 ADD SWAP1 POP SWAP2 SWAP1 POP JUMP JUMPDEST PUSH0 DUP2 SWAP1 POP SWAP2 SWAP1 POP JUMP JUMPDEST PUSH2 0x114C DUP2 PUSH2 0x113A JUMP JUMPDEST DUP3 MSTORE POP POP JUMP JUMPDEST PUSH0 PUSH1 0xFF DUP3 AND SWAP1 POP SWAP2 SWAP1 POP JUMP JUMPDEST PUSH2 0x1167 DUP2 PUSH2 0x1152 JUMP JUMPDEST DUP3 MSTORE POP POP JUMP JUMPDEST PUSH0 PUSH1 0x80 DUP3 ADD SWAP1 POP PUSH2 0x1180 PUSH0 DUP4 ADD DUP8 PUSH2 0x1143 JUMP JUMPDEST PUSH2 0x118D PUSH1 0x20 DUP4 ADD DUP7 PUSH2 0x115E JUMP JUMPDEST PUSH2 0x119A PUSH1 0x40 DUP4 ADD DUP6 PUSH2 0x1143 JUMP JUMPDEST PUSH2 0x11A7 PUSH1 0x60 DUP4 ADD DUP5 PUSH2 0x1143 JUMP JUMPDEST SWAP6 SWAP5 POP POP POP POP POP JUMP JUMPDEST PUSH32 0x496E76616C6964207369676E6174757265000000000000000000000000000000 PUSH0 DUP3 ADD MSTORE POP JUMP JUMPDEST PUSH0 PUSH2 0x11E4 PUSH1 0x11 DUP4 PUSH2 0xF51 JUMP JUMPDEST SWAP2 POP PUSH2 0x11EF DUP3 PUSH2 0x11B0 JUMP JUMPDEST PUSH1 0x20 DUP3 ADD SWAP1 POP SWAP2 SWAP1 POP JUMP JUMPDEST PUSH0 PUSH1 0x20 DUP3 ADD SWAP1 POP DUP2 DUP2 SUB PUSH0 DUP4 ADD MSTORE PUSH2 0x1211 DUP2 PUSH2 0x11D8 JUMP JUMPDEST SWAP1 POP SWAP2 SWAP1 POP JUMP JUMPDEST PUSH0 DUP2 SWAP1 POP SWAP3 SWAP2 POP POP JUMP JUMPDEST PUSH32 0x19457468657265756D205369676E6564204D6573736167653A0A000000000000 PUSH0 DUP3 ADD MSTORE POP JUMP JUMPDEST PUSH0 PUSH2 0x1256 PUSH1 0x1A DUP4 PUSH2 0x1218 JUMP JUMPDEST SWAP2 POP PUSH2 0x1261 DUP3 PUSH2 0x1222 JUMP JUMPDEST PUSH1 0x1A DUP3 ADD SWAP1 POP SWAP2 SWAP1 POP JUMP JUMPDEST PUSH0 DUP2 MLOAD SWAP1 POP SWAP2 SWAP1 POP JUMP JUMPDEST PUSH0 JUMPDEST DUP4 DUP2 LT ISZERO PUSH2 0x1293 JUMPI DUP1 DUP3 ADD MLOAD DUP2 DUP5 ADD MSTORE PUSH1 0x20 DUP2 ADD SWAP1 POP PUSH2 0x1278 JUMP JUMPDEST PUSH0 DUP5 DUP5 ADD MSTORE POP POP POP POP JUMP JUMPDEST PUSH0 PUSH2 0x12A8 DUP3 PUSH2 0x126C JUMP JUMPDEST PUSH2 0x12B2 DUP2 DUP6 PUSH2 0x1218 JUMP JUMPDEST SWAP4 POP PUSH2 0x12C2 DUP2 DUP6 PUSH1 0x20 DUP7 ADD PUSH2 0x1276 JUMP JUMPDEST DUP1 DUP5 ADD SWAP2 POP POP SWAP3 SWAP2 POP POP JUMP JUMPDEST PUSH0 PUSH2 0x12D8 DUP3 PUSH2 0x124A JUMP JUMPDEST SWAP2 POP PUSH2 0x12E4 DUP3 DUP6 PUSH2 0x129E JUMP JUMPDEST SWAP2 POP PUSH2 0x12F0 DUP3 DUP5 PUSH2 0x129E JUMP JUMPDEST SWAP2 POP DUP2 SWAP1 POP SWAP4 SWAP3 POP POP POP JUMP JUMPDEST PUSH32 0x496E76616C6964207369676E6174757265206C656E6774680000000000000000 PUSH0 DUP3 ADD MSTORE POP JUMP JUMPDEST PUSH0 PUSH2 0x1330 PUSH1 0x18 DUP4 PUSH2 0xF51 JUMP JUMPDEST SWAP2 POP PUSH2 0x133B DUP3 PUSH2 0x12FC JUMP JUMPDEST PUSH1 0x20 DUP3 ADD SWAP1 POP SWAP2 SWAP1 POP JUMP JUMPDEST PUSH0 PUSH1 0x20 DUP3 ADD SWAP1 POP DUP2 DUP2 SUB PUSH0 DUP4 ADD MSTORE PUSH2 0x135D DUP2 PUSH2 0x1324 JUMP JUMPDEST SWAP1 POP SWAP2 SWAP1 POP JUMP JUMPDEST PUSH0 PUSH2 0x136E DUP3 PUSH2 0x1152 JUMP JUMPDEST SWAP2 POP PUSH2 0x1379 DUP4 PUSH2 0x1152 JUMP JUMPDEST SWAP3 POP DUP3 DUP3 ADD SWAP1 POP PUSH1 0xFF DUP2 GT ISZERO PUSH2 0x1392 JUMPI PUSH2 0x1391 PUSH2 0x10C6 JUMP JUMPDEST JUMPDEST SWAP3 SWAP2 POP POP JUMP JUMPDEST PUSH32 0x496E76616C6964207369676E61747572652076657273696F6E00000000000000 PUSH0 DUP3 ADD MSTORE POP JUMP JUMPDEST PUSH0 PUSH2 0x13CC PUSH1 0x19 DUP4 PUSH2 0xF51 JUMP JUMPDEST SWAP2 POP PUSH2 0x13D7 DUP3 PUSH2 0x1398 JUMP JUMPDEST PUSH1 0x20 DUP3 ADD SWAP1 POP SWAP2 SWAP1 POP JUMP JUMPDEST PUSH0 PUSH1 0x20 DUP3 ADD SWAP1 POP DUP2 DUP2 SUB PUSH0 DUP4 ADD MSTORE PUSH2 0x13F9 DUP2 PUSH2 0x13C0 JUMP JUMPDEST SWAP1 POP SWAP2 SWAP1 POP JUMP JUMPDEST PUSH32 0x4E487B7100000000000000000000000000000000000000000000000000000000 PUSH0 MSTORE PUSH1 0x12 PUSH1 0x4 MSTORE PUSH1 0x24 PUSH0 REVERT INVALID LOG2 PUSH5 0x6970667358 0x22 SLT KECCAK256 PUSH8 0x4D93B8FC1E6DCDC4 BASEFEE PUSH29 0xA028DA3E95E0EE8BB95446F88E35C0DC3D03C3397F64736F6C63430008 EQ STOP CALLER "
		},
		"gasEstimates": {
			"creation": {
				"codeDepositCost": "1043800",
				"executionCost": "25350",
				"totalCost": "1069150"
			},
			"external": {
				"checkGas()": "397",
				"marketAddress()": "2505",
				"owner()": "2486",
				"processBatchTransactions(address[],bytes[],string[])": "infinite",
				"setMarketAddress(address)": "26972",
				"signTransaction(address,string,bytes)": "infinite"
			},
			"internal": {
				"getEthSignMsgHash(string memory)": "infinite",
				"splitSign(bytes memory)": "infinite"
			}
		},
		"methodIdentifiers": {
			"checkGas()": "eca7ed0a",
			"marketAddress()": "95623641",
			"owner()": "8da5cb5b",
			"processBatchTransactions(address[],bytes[],string[])": "95db67e4",
			"setMarketAddress(address)": "fae92612",
			"signTransaction(address,string,bytes)": "95e0e0c9"
		}
	},
	"abi": [
		{
			"inputs": [],
			"stateMutability": "nonpayable",
			"type": "constructor"
		},
		{
			"anonymous": false,
			"inputs": [
				{
					"indexed": true,
					"internalType": "address",
					"name": "from",
					"type": "address"
				},
				{
					"indexed": false,
					"internalType": "string",
					"name": "_msg",
					"type": "string"
				}
			],
			"name": "Event01",
			"type": "event"
		},
		{
			"anonymous": false,
			"inputs": [
				{
					"indexed": true,
					"internalType": "bytes32",
					"name": "r",
					"type": "bytes32"
				},
				{
					"indexed": false,
					"internalType": "bytes32",
					"name": "s",
					"type": "bytes32"
				},
				{
					"indexed": false,
					"internalType": "uint8",
					"name": "v",
					"type": "uint8"
				}
			],
			"name": "Event02",
			"type": "event"
		},
		{
			"anonymous": false,
			"inputs": [
				{
					"indexed": true,
					"internalType": "address",
					"name": "account",
					"type": "address"
				}
			],
			"name": "Event03",
			"type": "event"
		},
		{
			"inputs": [],
			"name": "checkGas",
			"outputs": [
				{
					"internalType": "uint256",
					"name": "",
					"type": "uint256"
				}
			],
			"stateMutability": "view",
			"type": "function"
		},
		{
			"inputs": [],
			"name": "marketAddress",
			"outputs": [
				{
					"internalType": "address payable",
					"name": "",
					"type": "address"
				}
			],
			"stateMutability": "view",
			"type": "function"
		},
		{
			"inputs": [],
			"name": "owner",
			"outputs": [
				{
					"internalType": "address",
					"name": "",
					"type": "address"
				}
			],
			"stateMutability": "view",
			"type": "function"
		},
		{
			"inputs": [
				{
					"internalType": "address[]",
					"name": "users",
					"type": "address[]"
				},
				{
					"internalType": "bytes[]",
					"name": "signatures",
					"type": "bytes[]"
				},
				{
					"internalType": "string[]",
					"name": "messages",
					"type": "string[]"
				}
			],
			"name": "processBatchTransactions",
			"outputs": [],
			"stateMutability": "payable",
			"type": "function"
		},
		{
			"inputs": [
				{
					"internalType": "address payable",
					"name": "_marketAddress",
					"type": "address"
				}
			],
			"name": "setMarketAddress",
			"outputs": [],
			"stateMutability": "nonpayable",
			"type": "function"
		},
		{
			"inputs": [
				{
					"internalType": "address",
					"name": "user",
					"type": "address"
				},
				{
					"internalType": "string",
					"name": "_msg",
					"type": "string"
				},
				{
					"internalType": "bytes",
					"name": "signature",
					"type": "bytes"
				}
			],
			"name": "signTransaction",
			"outputs": [],
			"stateMutability": "nonpayable",
			"type": "function"
		},
		{
			"stateMutability": "payable",
			"type": "receive"
		}
	]
}